S00E00004F6E65506F732E73726563C2
S113000012C100002DC100002BC1000029C1000055
S113001027C1000025C1000023C1000021C1000048
S11300201FC100001DC100001BC1000019C1000058
S113003017C100000C94C30813C1000011C10000D3
S11300400FC100000DC100000BC1000009C1000078
S113005007C1000005C1000003C1000001C1000088
S1130060FFC00000FDC00000FBC00000F9C000009C
S1130070F7C00000F5C00000F3C00000F1C00000AC
S1130080EFC00000EDC00000EBC00000E9C00000BC
S1130090E7C00000E5C00000E3C00000E1C00000CC
S11300A0DFC00000DDC00000DBC00000D9C00000DC
S11300B0D7C00000D5C000000C94E608D1C00000F1
S11300C0CFC00000CDC00000CBC00000C9C00000FC
S11300D0C7C00000C5C00000C3C00000C1C000000C
S11300E0BFC00000BDC00000BBC00000B9C000001C
S11300F0B7C00000B5C00000B3C00000B1C000002C
S1130100AFC00000ADC00000ABC00000A9C000003B
S1130110A7C00000A5C00000A3C00000A1C000004B
S11301209FC000009DC000009BC0000099C000005B
S113013097C0000095C0000093C0000091C000006B
S11301408FC000008DC000008BC0000089C000007B
S113015087C0000085C0000083C0000081C000008B
S11301607FC000007DC000007BC0000079C000009B
S113017077C0000075C0000073C0000071C00000AB
S11301806FC000006DC000006BC0000069C00000BB
S113019067C0000065C0000063C0000061C00000CB
S11301A05FC000005DC000005BC0000059C00000DB
S11301B057C0000055C0000053C0000051C00000EB
S11301C04FC000004DC000004BC0000049C00000FB
S11301D047C0000045C0000043C0000041C000000B
S11301E03FC000003DC000003BC0000039C000001B
S11301F037C000000C94E90F0C949F10FD0BEB0B1F
S1130200EE0BF10BF40BF70BFA0B261750166F16C7
S11302109B16B716CC16E81607176364696E6F70E1
S1130220737578585B0011241FBECFEFCDBFDFE29A
S1130230DEBF13E2A0E0B0E2E2E3FCE302C005901B
S11302400D92AC3FB107D9F726E2ACEFB3E201C09F
S11302501D92A23BB207E1F70E9483170C94171E6C
S1130260CFCE1092122510921E2510921F2581EADE
S11302708093142580E28093152510921625109200
S11302801725109218251092192582E090E080938A
S11302901A2590931B2510921C2510921D2580E091
S11302A092ECA1E0B0E08093202590932125A093C7
S11302B02225B0932325109224251092252588E029
S11302C080932625809112258F5F8093122581E0EB
S11302D0089580911225815080931225089580916C
S11302E0112581508093112580911125109210259C
S11302F0089580E0089580E0089580916D26882314
S1130300DCF480768032E9F580916E268132D9F56D
S113031080917326909174260797B9F580E295E24F
S1130320809375269093762687E090E080937726D5
S11303309093782681E008958076803241F580910B
S11303406E26803221F0823221F581E00895809179
S11303507326909174260797F1F48DEC91E08093C5
S1130360792690937A2680E295E28093752690937D
S1130370762687E090E0809377269093782681E034
S1130380089580E0089580E0089580E0089580E075
S1130390089580E0089580E008950895FF920F93F2
S11303A01F93CF93DF938091FF2381119CC00E9400
S11303B02B0E882351F0C0910024D09101240E9477
S11303C0380EC817D90759F48EC0C0910024D091B3
S11303D001240E94330EC817D90709F484C0DFB77B
S11303E0F894C0910224EC2FF0E0EE0FFF1FED5FB4
S11303F0FB4D80819181892B09F58091FC2390919B
S1130400FD2301968093FC239093FD230E942B0EE1
S1130410811107C08091FC239091FD2384369105BE
S113042058F00E942B0E882349F08091FC23909170
S1130430FD238032934010F4DFBF55C01092FC239B
S11304401092FD238091FE23811106C081E0C11129
S113045080E08093022404C081E0C11180E0C82FB1
S113046081E08093FF23DFBFD0E0FE01EE0FFF1F8A
S1130470ED5FFB4DFF24F3948081918180349105DD
S113048009F4F12CFF2091F00E942B0E882339F0FF
S11304900E94380E80930024909301240BC00E9484
S11304A0330E809300249093012404C010920024FE
S11304B010920124FE01EE0FFF1FED5FFB4D208122
S11304C03181AE010024569547950794569547957A
S11304D00794542F402D485F5B4D09E712E06F2DC0
S11304E081E80E94EA0EDF91CF911F910F91FF9056
S11304F00895811115C02091022481E090E0222307
S113050011F080E090E0FC01EE0FFF1FED5FFB4D6A
S1130510108211821092FE231092FF2380E03ECFBE
S1130520089580E03BCF08954FB7F8942091892433
S113053030918A24E0918B24F0E0EE0FFF1FE45702
S1130540FB4D80819181821B930B4FBF0895ECDF9B
S113055021E0892B09F420E0822F08950F931F9343
S1130560CF93DF934FB7F89450918B2480918824D4
S1130570811110C02091892430918A24C52FD0E0A4
S1130580FE01EE0FFF1FE457FB4D80819181281778
S1130590390718F44FBF80E023C0109289241092C9
S11305A08A2481E0511180E080938B2481E0809340
S11305B088244FBF80E0CBDFAE01002456954795D9
S11305C00794569547950794542F402D40575B4DFB
S11305D007E213E020E430E061E082E00E94EA0EEA
S11305E0DF91CF911F910F910895109211251092D0
S11305F0FF231092FE2310920224109203241092DF
S113060004241092052410920624109200241092BF
S1130610012480E0C3DE1092882410928B2410926F
S11306208C2410928D241092892410928A2480E0C4
S113063095DF882359F0909111259F5F90931125A0
S113064090911125913011F49093102508950F93F2
S11306501F93942F811129C080918B24E1E0811193
S1130660E0E061157105B1F4F0E00024F695E7953A
S11306700794F695E7950794FE2FE02DAF014057B8
S11306805B4D07E213E020E430E061E0892F0E9433
S1130690EA0E0BC0F0E0EE0FFF1FE457FB4D608342
S11306A071831092882480E059DF1F910F9108957F
S11306B080E04DCF08951F93CF93DF9311E0809195
S11306C02625893009F010E060E070E03FB7F89427
S11306D08091892490918A2420918B243FBF30E01B
S11306E0F901EE0FFF1FE457FB4D40815181841740
S11306F0950730F0809110258111E8CF90E020C05B
S1130700F9010024F695E7950794F695E795079483
S1130710FE2FE02DE80FF91FE057FB4D2081EB0180
S1130720C22B01968093892490938A2480E016DF5B
S1130730112321F07C2F662710E0C8CF8C2F9D2F2A
S1130740DF91CF911F91089580E0B5CF08959FB7B1
S1130750F89480910224E82FF0E0EE0FFF1FED5F84
S1130760FB4D208131812034310589F44091FF23F0
S113077041110DC04091FE23411109C021E0209395
S1130780FE23811120E02093022420E030E09FBF6B
S113079080E490E0821B930B0895D9DF21E0892B3C
S11307A009F420E0822F08951F93CF93DF93162F2F
S11307B0C72FD1E080912625893009F0D0E080E070
S11307C0ECDF811107C0809110258111F8CF80E002
S11307D090E02BC06FB7F8942091022430E0F90127
S11307E0EE0FFF1FED5FFB4D80819181AC014F5FE8
S11307F05F4F40835183F9010024F695E7950794F0
S1130800F695E7950794FE2FE02D8E0F9F1FFC01B0
S1130810E85FFB4D10836FBFDD2329F01C2FCC0F45
S1130820CC0BD0E0CCCF81E090E0DF91CF911F9151
S11308300895BC0180E0B8CF0895E0912C25F09193
S11308402D250190F081E02D228133812E0F3F1F51
S1130850FC014081E40FF11DE217F307A0F481814C
S11308608430A1F0861306C014C081818430A1F0C5
S11308708617A9F08081E80FF11DE217F307A8F3AA
S113088080E090E0089580E090E0089580E090E0BA
S113089008958E2F9F2F089580E090E008958E2F65
S11308A09F2F089580916F268F770C942D0E0895B5
S11308B090912E25992381F1E0912C25F0912D25FD
S11308C00190F081E02D9481891740F5E0932A2569
S11308D0F0932B25228133812E0F3F1FE217F3075C
S11308E0F8F49181943061F49281981309C0938152
S11308F0961306C0E0932A25F0932B2581E00895F2
S11309009081E90FF11DE217F30758F3E0932A25CC
S1130910F0932B2580E0089580E0089580E0089509
S113092080E00895FF920F931F93CF93DF93C82F16
S113093060E0BEDFF82E882381F1A0912C25B091D0
S11309402D25EC2FF0E0EE0FFF1F12962D913C9118
S11309501397E20FF31F00811181D8011696ED91D0
S1130960FC9117970995682F8C2FA2DFF82E882306
S1130970A1F0C0912A25D0912B2565E0CE015DDF41
S1130980EC01009721F08A810E94AB0FF6CFD801C9
S11309901296ED91FC91139709958F2DDF91CF91CC
S11309A01F910F91FF9008951F93CF93DF93182FFA
S11309B07FDF882341F1C0912A25D0912B2565E062
S11309C0CE013BDFEC01009749F04C815D816B81E6
S11309D08A810E94440E8111F2CF15C0A0912C256A
S11309E0B0912D25812F90E0880F991F1296ED91DB
S11309F0FC911397E80FF91F0190F081E02D01900D
S1130A00F081E02D0995DF91CF911F9108950C9409
S1130A10C10D0895CF9380912E258823C1F0E091D4
S1130A202C25F0912D250190F081E02D84818823DF
S1130A3071F0C0E08C2F76DFCF5FE0912C25F09130
S1130A402D250190F081E02D8481C81798F3109230
S1130A502E2581E090E08093322590933325CF9129
S1130A600895CF9380912E25882341F1E0912C2580
S1130A70F0912D25A081B18114968C918823F1F0F9
S1130A80C0E08C2F90E0880F991F0280F381E02D45
S1130A90E80FF91F0190F081E02D0084F185E02D2D
S1130AA0309709F00995CF5FE0912C25F0912D2521
S1130AB0A081B18114968C91C81718F3CF91089531
S1130AC0EF92FF920F931F93CF93DF9310927726A9
S1130AD0109278261092792610927A2610927B260C
S1130AE010927C2620916D2622230CF095C28091D1
S1130AF0732690917426009709F093C289C22F71CE
S1130B0009F0B9C030916E26363089F0383009F4D6
S1130B10A6C03111B0C0029741F462E070E082E3F4
S1130B2095E20E943B0E01E0F6C100E0F4C1209181
S1130B306F2630917026832F992782309105A1F07A
S1130B401CF4019739F081C083309105F1F10F97BE
S1130B5069F17BC08091342090913520DC016C9147
S1130B6070E00E943B0E60C0E0913420F09135208B
S1130B708189281708F06BC0C9019927880F991F2C
S1130B80880F991FE0913620F0913720E80FF91F64
S1130B9080819181FC01628173810E943B0EE0910E
S1130BA07526F091762682E081833EC080913820BC
S1130BB090913920009709F44CC0DC0112966D9194
S1130BC07C9113970E943B0E2FC0332721303105AF
S1130BD089F048F02230310509F428C22330310568
S1130BE009F428C238C064E070E080E390E20E9417
S1130BF03B0E1AC089E290E225E0382FA6E1B0E26C
S1130C00E82FF92F819190E08D939D938E2F831B74
S1130C108217C0F3220F62E0620F6093142070E029
S1130C2084E190E20E943B0E809173269091742699
S1130C3020917726309178268217930770F4809359
S1130C4077269093782601E066C100E064C100E055
S1130C5062C100E060C100E05EC101E05CC10197D7
S1130C6041F461E070E08EE295E20E943B0E01E007
S1130C7052C100E050C1213009F03FC030916E26CE
S1130C803A30D9F5019799F580912E25882389F179
S1130C90C0917126D0917226E0902C25F0902D25DC
S1130CA0D701ED91FC918481C81728F560E08C2F61
S1130CB0FFDD082F882309F42EC1CE019927880F60
S1130CC0991FD7011296ED91FC911397E80FF91F24
S1130CD00190F081E02D0680F781E02D0995809345
S1130CE0302561E070E080E395E2C5D714C100E0EF
S1130CF012C100E010C100E00EC1223009F00DC1A4
S1130D0020916E26211102C1029781F480917126EF
S1130D100E94A50E90E0809328259093292562E0F7
S1130D2070E088E295E2A7D701E0F5C000E0F3C0E7
S1130D302F7109F090C080916E26833009F4E8C0C9
S1130D4018F48130B1F087C0853019F0893061F131
S1130D5082C08091732690917426892B41F482E598
S1130D6094E08093792690937A2601E0D4C000E041
S1130D70D2C08091732690917426892B89F4809136
S1130D806F2690917026019769F480913225909195
S1130D9033258D7F809332259093332501E0BBC0AA
S1130DA000E0B9C000E0B7C080917326909174262A
S1130DB0892B09F046C054D7882309F444C02091F4
S1130DC06F26309170263327E0913420F09135203E
S1130DD0818990E082179307C0F11CDE80916F2611
S1130DE09091702680932E25882389F1992781502C
S1130DF0904C880F991F880F991FE0913620F0912D
S1130E003720E80FF91FE0932C25F0932D2501904E
S1130E10F081E02D84818823E1F0C0E060E08C2F34
S1130E20C3DD082F882309F476C0CF5FE0912C2519
S1130E30F0912D250190F081E02D8481C81770F385
S1130E406AC000E068C000E066C000E064C001E081
S1130E5062C001E060C0213009F580916E268B30BC
S1130E60E9F48091732690917426892B99F48091EA
S1130E702E25882389F0C0917126D0916F268C2F5E
S1130E8051DD082F882309F446C06D2F8C2F8CDD8B
S1130E90082F41C000E03FC000E03DC0223009F00F
S1130EA03CC080916E26813019F08330B1F032C09D
S1130EB08091732690917426892B59F480916F2622
S1130EC090917026892B39F48091712659D7082F77
S1130ED022C000E020C000E01EC0809173269091E3
S1130EE07426892B79F480916F2690917026892B32
S1130EF059F4C1E7D6E28881F5D788810E94C80FEA
S1130F00082F09C000E007C000E005C000E003C0EE
S1130F1000E001C000E0011191C080916D268F7145
S1130F208130C1F580912E258823A1F1C0917126CD
S1130F30D091722600912C2510912D25D801ED9188
S1130F40FC918481C81730F560E08C2FB1DC8823D4
S1130F5009F1CE019927880F991FD8011296ED91B6
S1130F60FC911397E80FF91F00811181D80116969F
S1130F70ED91FC9117970995682F8C2F99DC8823A4
S1130F8049F0D8011496ED91FC9115970995082F15
S1130F90811154C080916D268F718230D9F5809172
S1130FA02E25882389F1E0912C25F0912D25A0810F
S1130FB0B18114968C91882349F110E0212F30E0FF
S1130FC0220F331F0280F381E02DE20FF31FC08153
S1130FD0D181EE81FF810995682F812F69DC082F6B
S1130FE0882361F1EC81FD810995082F811126C0C8
S1130FF01F5FE0912C25F0912D25A081B1811496DD
S11310008C911817D8F21AC000E018C000E016C07E
S113101000E014C000E012C0822F807609F07DCF7A
S113102087CE322F307609F078CF69CD26E082E280
S113103090E2E3CD24E08DEA90E2DFCD802FDF91D2
S1131040CF911F910F91FF90EF900895CF93DF936D
S1131050E0913425F0913525848183FF08C08860B0
S1131060848383E0838386EF80933E2589C0982F11
S1131070947131F083E083838FEF80933E2580C0A9
S113108086FF45C0A0913625B0913725809138253B
S11310909091392514962D913C91159782179307B9
S11310A06CF49C012F5F3F4F2093382530933925F2
S11310B0A80FB91F11968C91878362C080913A253D
S11310C090913B2518962D913C911997821793077F
S11310D0C8F420913C25222321F0868181608683F7
S11310E04FC016962D913C911797AC014F5F5F4FFF
S11310F040933A2550933B25D901A80FB91F8C91F1
S113110087833EC083E0838310923E2539C08823C1
S1131110A4F5A0913625B091372580913A25909178
S11311203B2518962D913C91199782179307F8F453
S113113016964D915C9117979C012F5F3F4F20931A
S11311403A2530933B256781EA01C80FD91F68838C
S113115018968D919C9119972817390718F482E0F5
S113116083830EC087E0838310923E2509C083E009
S1131170838389EF80933E2503C08BEF80933E25C4
S1131180DF91CF9108951F920F920FB60F92112401
S11311902F933F934F935F936F937F938F939F937B
S11311A0AF93BF93EF93FF9351DFFF91EF91BF9103
S11311B0AF919F918F917F916F915F914F913F91EB
S11311C02F910F900FBE0F901F9018951F920F92A2
S11311D00FB60F9211242F933F934F935F936F9306
S11311E07F938F939F93AF93BF93EF93FF932EDFE0
S11311F0FF91EF91BF91AF919F918F917F916F91EB
S11312005F914F913F912F910F900FBE0F901F90C0
S113121018954F925F926F927F928F929F92AF92A6
S1131220BF92CF92DF92EF92FF920F931F93CF93CF
S1131230DF93EC014A015B0128013901D901C8019E
S1131240689412F8B695A795979587951694D1F753
S1131250B901A801032E36E1769567955795479510
S11312603A95D1F7302D2C8122FD08C0B695A7956B
S11312709795879576956795579547958815990518
S1131280AA05BB0508F4A6C084169506A606B706EB
S113129008F4A2C08C8182FD04C0880C991CAA1C8D
S11312A0BB1CC301B201A50194010E94F1172F3F99
S11312B031054105510508F491C0C12CD12C7601AA
S11312C0CA9419EF05C02C153D054E055F0568F05D
S11312D0CC0CDD1CEE1CFF1C1D3F14F46894C0F8FC
S11312E01F5F173081F7212F50C0212F11230CF0DD
S11312F04CC0D501C401880F991FAA1FBB1F880FBA
S1131300991FAA1FBB1F880F991FAA1FBB1F481A2A
S1131310590A6A0A7B0A1E3FF4F46DEF7FEF611BE2
S1131320710917FD739504C0440C551C661C771C89
S11313306A95D2F7D501C401B695A7959795879577
S1131340BC01CD01640D751D861D971DA501940179
S11313500E94F11736C023E0210FD501C40104C057
S1131360880F991FAA1FBB1F2A95D2F79C01AD01B4
S1131370B695A79597958795BC01CD01640D751D0C
S1131380861D971D0E94F1171CC02D5FD501C40155
S113139004C0880F991FAA1FBB1F2A95D2F79C016E
S11313A0AD01B695A79597958795BC01CD01640DC0
S11313B0751D861D971D0E94F117215031094109A1
S11313C05109832F8F701295107F182B1F832E8342
S11313D081E018C080E016C080E014C0D501C401CB
S11313E0880F991FAA1FBB1F880F991FAA1FBB1F15
S11313F0880F991FAA1FBB1F481A590A6A0A7B0A39
S113140019EF8BCFDF91CF911F910F91FF90EF9048
S1131410DF90CF90BF90AF909F908F907F906F9010
S11314205F904F9008950F931F93CF93DF93EC0138
S11314308B01009709F4BEC0803C910521F460E162
S113144080E0B3D7B7C0C11584E0D80721F464E0C5
S113145080E0ABD7AFC0C038E1E0DE0721F462E042
S113146080E0A3D7A7C0C115F1E0DF0721F461E054
S113147080E09BD79FC0C03883E0D80721F461E0A7
S113148081E093D797C0C115E2E0DE0721F462E062
S113149081E08BD78FC0C032F3E0DF0721F464E032
S11314A082E083D787C0C11588E0D80721F461E0C2
S11314B083E07BD77FC0C115E9E0DE0721F461E05A
S11314C084E073D777C0C115FAE0DF0721F461E047
S11314D085E06BD76FC0C03488E0D80721F462E0A0
S11314E083E063D767C0C034E9E0DE0721F462E03B
S11314F084E05BD75FC0C039F8E0DF0721F464E023
S113150083E053D757C0C03989E0D80721F464E099
S113151084E04BD74FC0C039EAE0DE0721F464E031
S113152085E043D747C0C03CF8E0DF0721F468E01A
S113153083E03BD73FC0C03C89E0D80721F468E092
S113154084E033D737C0C03AE8E0DE0721F460E135
S113155083E02BD72FC0C03AF9E0DF0721F460E124
S113156084E023D727C0C03A8AE0D80721F460E199
S113157085E01BD71FC0C03BE8E0DE0721F460E232
S113158083E013D717C0C03BF9E0DF0721F460E222
S113159084E00BD70FC0C03884E0D80721F460E49E
S11315A083E003D707C0C03AE4E0DE0719F460E43F
S11315B085E0FBD68D818F738D83F80194818581BD
S11315C0892B9681992311F098E001C090E0892B32
S11315D08D83F801408151816281738100E01CE6B2
S11315E02CED32E0CE0115DE9C8198609C839C81B9
S11315F090619C83DF91CF911F910F910895811188
S113160018C090916C26992389F09FB7F894EEE75F
S1131610F6E22081215020839FBF08C09FB7F89431
S1131620EEE7F6E220812F5F20839FBF80936C2634
S1131630089590916C26992389F3F8CF0F93E8ECE1
S1131640F4E080818F7D808380818F7D8083E0E4DE
S1131650F6E202E00593109242261092432600E23D
S1131660069300E40693E8E3F6E200E2069300E45E
S113167006931092792610927A2610927B26109265
S11316807C261092772610927826109228260F91A5
S113169008950F9385E080932826E1E4F6E204E0C0
S11316A00593E9E3F6E204E005930F9108950F939F
S11316B083E0809328261092422610924326E0E489
S11316C0F6E202E006930F910895E0917926F091F5
S11316D07A26309709F0099508950F93CF93DF93F5
S11316E080912826833019F4F0DFA8DF60C0809150
S11316F0242690912526C0917726D0917826C81B60
S1131700D90B71F52091262630912726820F931F3D
S11317108093262690932726209173263091742651
S11317208217930721F080913F25882341F084E0BC
S113173080932826E8E3F6E202E0069338C0E091BD
S11317407B26F0917C26309799F00995882381F0C7
S11317501092242610922526C0917726D0917826BF
S1131760C034D10528F010923F25C0E4D0E003C076
S113177081E080933F25C0934226D09343268091F5
S11317802426909125262091752630917626280FBF
S1131790391F2093442630934526C80FD91FC09380
S11317A02426D0932526E0E4F6E202E00693DF91B6
S11317B0CF910F910895FC018181877090E0FC0125
S11317C03197E730F10520F4E250FF4F0C941318E1
S11317D088E090E0089580E290E0089580E490E04D
S11317E0089580E890E0089580E091E0089580E015
S11317F092E008958FEF93E0089580E190E00895DA
S1131800282F2F7030E0220F331F992787FD9095E2
S11318108827990F881F9927820F931F02979C018D
S1131820220F331F220F331F220F331F820F931FE8
S113183080549A4D08950F93CF938091CC0480FFE8
S113184062C081E08093CC04E8E3F6E200E806930A
S1131850E0E4F6E200E806938093CA04E8E3F6E2E3
S113186000E1069380912826882329F08350823052
S113187008F42BDFE3DE80913A2690913B2608970B
S113188009F043C088E0E4EEF5E2ADE6B6E201908B
S11318900D928A95E1F7E8ECF4E080818062808320
S11318A08081806280830CD9C82F811103C0F1DE4E
S11318B0C1E02CC080916D2688236CF410922626FA
S11318C010922726109224261092252682E08093D7
S11318D0282603DF1BC02091732630917426232B06
S11318E011F4E5DE13C010922626109227261092DA
S11318F024261092252681E080932826E8E3F6E248
S113190002E0069303C0C0E001C0C1E08C2FCF9178
S11319100F910895BF92CF92DF92EF92FF920F93AF
S11319201F93CF93DF93B82E6BDFEC011B2D111F98
S11319301127111F8B2D8F70E82EF12CEE0CFF1C3C
S1131940E10EF11CC701880F991F880F991F880F9A
S1131950991F9C01285C394D7901C9012CDF6C0168
S1131960112309F45BC0D70116962D913C9117976A
S11319708D819E81280F391F2D833E838B819C810D
S113198028173907C9F1FC01E21BF30B9F0121154C
S1131990F4E03F0740F02FEF33E0C901B6010E94A5
S11319A0DD17281B390B888181FF0AC0C901B601E4
S11319B00E94DD1741E0892B09F040E0942F01C01B
S11319C090E0888190FB81F98883D70116961D9257
S11319D01C92179712962D933C93139729813A8161
S11319E08D819E81820F931F14968D939C931597DE
S11319F0F70102E0069398C0888181FF87C08D7F3C
S1131A008883D70116961D921C92179712961D92E1
S1131A101C921397F70102E0069386C0D701129631
S1131A200D911C911397888182FF15C0E981FA8179
S1131A302D813E818B819C81B6010E94DD17B0E42B
S1131A40BB9EB001112460507B4DAC01CF01820FCD
S1131A50931F0E9419182D813E81200F311F2D8361
S1131A603E83EB81FC81E217F30710F4ED83FE83E0
S1131A70D70116968D919C9117978017910709F0BD
S1131A8045C08D819E81E817F90709F43FC0E81B22
S1131A90F90BE115B4E0FB0748F0EFEFF3E0CF01F9
S1131AA0B6010E94DD17E81BF90B06C0CF01B60191
S1131AB00E94DD17E81BF90BD70112961D921C92A8
S1131AC01397EC15FD0578F4888184608883B0E46D
S1131AD0BB9EC001112480509B4DF70184839583E4
S1131AE0C682D7820FC029813A818D819E81820F5F
S1131AF0931FD70114968D939C9315971696ED9387
S1131B00FC931797F70102E006930EC0888180FFCB
S1131B100BC08E7F8883EF81F885309729F06D8123
S1131B207E814B2D80E00995DF91CF911F910F911C
S1131B30FF90EF90DF90CF90BF900895CF93CFB7F1
S1131B40F89481E05CDDEAECF4E080E4808380E2F8
S1131B508083E1ECF4E0808181608083A9ECB4E0CF
S1131B608C9182608C93E8ECF4E0808180648083C3
S1131B708C9181608C93808180688083CFBFCF916A
S1131B800895CF9380E31DD4E0ECF4E08081806479
S1131B908083CFB7F8941092392610924126109280
S1131BA04926109251261092592610926126E0EC93
S1131BB0F5E280818E7F8083E9ECF5E280818E7F7F
S1131BC08083E2EDF5E280818E7F8083EBEDF5E2A8
S1131BD080818E7F80836AE170E082E0EAD48F3F67
S1131BE019F08093FA0403C08FE18093FA046BE147
S1131BF070E082E0DED48F3F19F08093FB0403C0D1
S1131C008FE18093FB04E0ECF4E0808182608083C8
S1131C1080818068808380818061808388E396E20C
S1131C20868397838081806280838FEF8093C5044D
S1131C30E8ECF4E080818160808310926C268FB799
S1131C40F894E2E8F6E290819F5F90838FBF76DF9D
S1131C50CFBFCF91089580E008958093C304089581
S1131C608091C3040895809168269091692608950F
S1131C7080E090E008958093752690937626609393
S1131C807726709378260895E82FEF70F0E0EE0F32
S1131C90FF1F992787FD90958827990F881F9927FB
S1131CA0E80FF91FEE0FFF1FEE0FFF1FEE0FFF1FD0
S1131CB0E85CF94D8181807C09F043C06370613038
S1131CC029F010F480E403C080E801C080EC4038BF
S1131CD05105E1F050F440325105A1F04034510572
S1131CE099F04031510561F419C0411592E059074A
S1131CF089F04F3F93E0590779F04115514041F085
S1131D0020E00DC022E00BC023E009C024E007C09E
S1131D1025E005C026E003C027E001C021E01182D0
S1131D2096E09083822B81838181807C803C21F4A6
S1131D3081818770873039F081818062818381E07D
S1131D40089580E0089581E00895E82FEF70F0E0B1
S1131D50EE0FFF1F992787FD90958827990F881FFD
S1131D609927E80FF91FEE0FFF1FEE0FFF1FEE0F6D
S1131D70FF1FE85CF94D818182FB882780F9089573
S1131D80E82FEF70F0E0EE0FFF1F282F332727FD19
S1131D9030952227330F221F3327E20FF31FEE0F54
S1131DA0FF1FEE0FFF1FEE0FFF1FE85CF94D91813F
S1131DB092FF0EC091819B7F918322DDFC01808183
S1131DC080FF06C08E7F80830780F085E02D099513
S1131DD081E008957F928F929F92AF92BF92CF92AB
S1131DE0DF92EF92FF920F931F93CF93DF93982E7E
S1131DF0862E5A01690104DD7C01792C771C772435
S1131E00771CC92DCF70D0E0CC0FDD1FC70DD11DBD
S1131E10CC0FDD1FCC0FDD1FCC0FDD1FC85CD94DEF
S1131E208981807C09F44CC08981807C803C19F0D4
S1131E30898182FD47C08FB7F894F701908190FFA4
S1131E4003C08FBF712C3FC0F701908191609083D4
S1131E508FBFF701A182B282C382D4821582168217
S1131E6007831087811006C091E0C114D10419F0D2
S1131E7090E001C091E0F701808190FB81F98B7FB4
S1131E808083772019F01E821F8215C08981807C8F
S1131E90803C69F4CE018FDCBC01C6010E94DD17D1
S1131EA0892B29F0F70180818E7F80830CC01A82F0
S1131EB01B821E821F82892D2DDD7724739403C01B
S1131EC0712C01C0712C872DDF91CF911F910F913F
S1131ED0FF90EF90DF90CF90BF90AF909F908F9046
S1131EE07F900895FF920F931F93CF93DF93182F42
S1131EF0F82EFF1CFF24FF1CC82FCF70D0E0CC0F9E
S1131F00DD1FCF0DD11DCC0FDD1FCC0FDD1FCC0F7E
S1131F10DD1FC85CD94D74DCDC01FE0102E00593D1
S1131F208C9180FF12C08E7F8C931796ED91FC915B
S1131F301897309751F0FF2019F06E817F8102C00D
S1131F406A817B81412F81E00995DF91CF911F91B7
S1131F500F91FF900895CF93C82FC4DFEC2FEF703B
S1131F60F0E0EE0FFF1F8C2F992787FD90958827AF
S1131F70990F881F9927E80FF91FEE0FFF1FEE0F27
S1131F80FF1FEE0FFF1FE85CF94D1182CF910895FA
S1131F900F93E82FEF70F0E0EE0FFF1F282F332789
S1131FA027FD30952227330F221F3327E20FF31F1B
S1131FB0EE0FFF1FEE0FFF1FEE0FFF1FE85CF94D42
S1131FC091819460918301E006938CDF81E00F910D
S1131FD008951F920F920FB60F9211240F932F930F
S1131FE03F934F935F936F937F938F939F93AF939D
S1131FF0BF93EF93FF938091CB04882334F480E85C
S11320008093CA040E94310588C08091CB0482FF6A
S113201020C084E08093CA048091402686FF7DC05E
S11320208091CC0481FD79C006DC811176C0809159
S11320302826813011F43BDB70C0843009F06DC078
S1132040E1E4F6E204E00593E9E3F6E204E0059353
S113205064C08091CB0481FF5BC082E08093CA049A
S11320608091382686FF59C08091CC0481FD55C0EB
S1132070E2DB811152C080912826823041F484E051
S113208080932826E8E3F6E202E0069346C0833014
S113209009F043C0E1E4F6E204E00593E9E3F6E283
S11320A004E005933AC080E18093CA0481E01ADF1A
S11320B081E818DF0E940A051092C304E9E3F6E2FE
S11320C0108296E09093382683E48083E1E4F6E27C
S11320D0108290934026808384EE95E280933C2680
S11320E090933D26ABDA19C08091CB0486FF06C0DD
S11320F080E48093CA0480E082DA0FC08091CB042C
S113210085FF0BC080E28093CA0481E078DA05C0C1
S11321108091CB0484FFE8CFC6CFFF91EF91BF91AC
S1132120AF919F918F917F916F915F914F913F916B
S11321302F910F910F900FBE0F901F9018951F9223
S11321400F920FB60F9211240F931F932F933F9367
S11321504F935F936F937F938F939F93AF93BF93AB
S1132160CF93DF93EF93FF938091CC0481FD03C061
S113217062DB8111B8C082E08093CC048091C504F5
S11321808195880FE8E3F6E2E81BF10920813181AB
S113219028533642369527953695279536952795B3
S11321A0822F869520FF02C090E801C090E0890F3D
S11321B0E82FEF70F0E0EE0FFF1F282F332727FDE5
S11321C030952227330F221F3327E20FF31FEE0F20
S11321D0FF1FEE0FFF1FEE0FFF1FE85CF94D90810C
S11321E095FF81C000E20693811178C08091282672
S11321F0843019F46ADA22DA76C0C0913A26D09192
S11322003B26809177269091782600912426109180
S1132210252698012C0F3D1F8217930718F4EC0113
S1132220C01BD10B8091752690917626AE0164EE89
S113223075E2800F911FFDD60C0F1D1F00932426FD
S113224010932526C034D10569F4809126269091F7
S11322502726800F911F20917326309174268217B0
S1132260930788F00093772610937826E0917B26D5
S1132270F0917C26309729F00995811102C009DA82
S113228032C015DA30C080917726909178260817ED
S11322901907F9F4E0917B26F0917C26309711F42C
S11322A0F8D921C00995811102C0F3D91CC020912D
S11322B02626309127268091242690912526820F68
S11322C0931F8093262690932726109224261092FB
S11322D02526E8E3F6E202E0069305C0803811F40F
S11322E0FCD901C017DBFF91EF91DF91CF91BF9132
S11322F0AF919F918F917F916F915F914F913F919A
S11323002F911F910F910F900FBE0F901F90189552
S1132310CF93DF9300D000D0CDB7DEB78FEF80939B
S11323207000809371008093720080937300809397
S1132330740080937500809376006CE170E082E015
S113234038D18A836DE170E082E033D18983898159
S11323509A81019621F480E493E289839A838981A6
S11323609A818B839C83E0E6F0E082838C81838373
S11323708FB7F894E0E5F0E09081926090838FBF8E
S1132380818181FFFDCF61E080E490E01CD18FB7B3
S1132390F894E0E5F0E090819E7F90838FBF2496CF
S11323A0CDBFDEBFDF91CF9108959FB7F894E82F9A
S11323B0F0E0E059FF4F60958081682360839FBF00
S11323C00895863011F468E101C060E0E0E5F0E0D2
S11323D0818181FD09C08FB7F894908192609083C8
S11323E08FBF818181FFFDCF636084E490E0EBD0F7
S11323F060E480E0DACF0895CF93DF939B01E0ECB3
S1132400F1E067856623ECF3CCECD1E06881686089
S11324106883BC01705FC9010CD68881877F88837B
S1132420DF91CF910895E0ECF1E087858823ECF308
S1132430E0ECF1E0878581FF06C086E3828761E0F6
S11324408BEC91E0C0C00895E0ECF1E0978599230E
S1132450ECF3ECECF1E0908198609083A82FB0E06D
S1132460B05F6C938081877F80830895FF920F9380
S11324701F93CF93DF93182FF92EC62FE0ECF1E0D2
S11324800285D1DFE0ECF1E027852223ECF36C2F09
S1132490812FDADFC0ECD1E01A82F982188385E358
S11324A08A8761E08BEC91E08ED00A87DF91CF912F
S11324B01F910F91FF900895EF92FF920F931F9336
S11324C0CF93DF938C01E0ECF1E087858823ECF374
S11324D0780180E2E80EF11CE8018C2F801B6991E1
S11324E0B3DFCE15DF05C9F7DF91CF911F910F91AF
S11324F0FF90EF9008951F93CF93DF93E0ECF1E00A
S113250097859923ECF320E2829FC0011124C0EC4B
S1132510D1E01A82998388831A8585E38A8761E0EA
S11325208BEC91E050D01A87DF91CF911F910895E1
S1132530CF92DF92EF92FF920F931F93CF93DF938B
S1132540EC017B018A014115510551F1CE018F71D6
S11325509927892BB1F40032110598F0C701ACDF3B
S1132560CE0196958795929582958F7089279F7055
S11325708927C1DFA09680E2E80EF11C0052110900
S11325800CC06E01EFEFCE1ADE0AF70161917F01F4
S1132590CE016CDF01501109E60101151105B1F6F8
S11325A0DF91CF911F910F91FF90EF90DF90CF902B
S11325B008954091CA01E62FF72F8093CA018491B0
S11325C04093CA0108951BBEFC0128ED24BF60831B
S11325D008959EDE84D4E0E4F6E088E0828394E00B
S11325E09283A0E0B6E020E411962C93119730E892
S11325F011963C93A0E2B6E041E011964C931197FA
S113260042E011964C93A0E8B6E011964C931197D2
S113261012969C93129711968C93A0E6B6E01296AC
S11326209C93129711968C9380E1818380E281833D
S1132630318322838FB7F894E6E5F6E090819770B2
S113264090839081906190838FBF089580E4E0E04F
S1132650F6E0858380E092EEA4E0B0E00197A10962
S1132660B1090097A105B105C9F780E8E0E0F6E0FB
S1132670858380E092EEA4E0B0E00197A109B1095E
S11326800097A105B105C9F781E0E0E2F6E0858392
S113269080E092EEA4E0B0E00197A109B1090097AF
S11326A0A105B105C9F782E0E0E2F6E0858380E0A8
S11326B092EEA4E0B0E00197A109B1090097A10549
S11326C0B105C9F780E4E0E0F6E0868380E092EEAD
S11326D0A4E0B0E00197A109B1090097A105B105F3
S11326E0C9F780E8E0E0F6E0868380E092EEA4E0BB
S11326F0B0E00197A109B1090097A105B105C9F797
S113270081E0E0E2F6E0868380E092EEA4E0B0E0CF
S11327100197A109B1090097A105B105C9F782E0A4
S1132720E0E2F6E0868380E092EEA4E0B0E0019778
S1132730A109B1090097A105B105C9F780E4E0E05A
S1132740F6E0858380E094ECA9E0B0E00197A1096C
S1132750B1090097A105B105C9F780E8E0E0F6E00A
S1132760858380E094ECA9E0B0E00197A109B10968
S11327700097A105B105C9F781E0E0E2F6E08583A1
S113278080E094ECA9E0B0E00197A109B1090097B9
S1132790A105B105C9F782E0E0E2F6E0858380E0B7
S11327A094ECA9E0B0E00197A109B1090097A10553
S11327B0B105C9F780E4E0E0F6E0868380E094ECBC
S11327C0A9E0B0E00197A109B1090097A105B105FD
S11327D0C9F780E8E0E0F6E0868380E094ECA9E0C5
S11327E0B0E00197A109B1090097A105B105C9F7A6
S11327F081E0E0E2F6E0868380E094ECA9E0B0E0DA
S11328000197A109B1090097A105B105C9F782E0B3
S1132810E0E2F6E0868380E094ECA9E0B0E0019782
S1132820A109B1090097A105B105C9F780E4E0E069
S1132830F6E0858380E096EAAEE0B0E00197A10976
S1132840B1090097A105B105C9F780E8E0E0F6E019
S1132850858380E096EAAEE0B0E00197A109B10972
S11328600097A105B105C9F781E0E0E2F6E08583B0
S113287080E096EAAEE0B0E00197A109B1090097C3
S1132880A105B105C9F782E0E0E2F6E0858380E0C6
S113289096EAAEE0B0E00197A109B1090097A1055D
S11328A0B105C9F780E4E0E0F6E0868380E096EACB
S11328B0AEE0B0E00197A109B1090097A105B10507
S11328C0C9F780E8E0E0F6E0868380E096EAAEE0CF
S11328D0B0E00197A109B1090097A105B105C9F7B5
S11328E081E0E0E2F6E0868380E096EAAEE0B0E0E4
S11328F00197A109B1090097A105B105C9F782E0C3
S1132900E0E2F6E0868380E096EAAEE0B0E001978C
S1132910A109B1090097A105B105C9F780E4E0E078
S1132920F6E0858380E098E8A3E1B0E00197A1098F
S1132930B1090097A105B105C9F780E8E0E0F6E028
S1132940858380E098E8A3E1B0E00197A109B1098B
S11329500097A105B105C9F781E0E0E2F6E08583BF
S113296080E098E8A3E1B0E00197A109B1090097DC
S1132970A105B105C9F782E0E0E2F6E0858380E0D5
S113298098E8A3E1B0E00197A109B1090097A10576
S1132990B105C9F780E4E0E0F6E0868380E098E8DA
S11329A0A3E1B0E00197A109B1090097A105B10520
S11329B0C9F780E8E0E0F6E0868380E098E8A3E1E8
S11329C0B0E00197A109B1090097A105B105C9F7C4
S11329D081E0E0E2F6E0868380E098E8A3E1B0E0FD
S11329E00197A109B1090097A105B105C9F782E0D2
S11329F0E0E2F6E0868380E098E8A3E1B0E00197A6
S1132A00A109B1090097A105B105C9F7089548E2E4
S1132A1050E063E876E280E090E08ACD089588ECA7
S1132A2090E1809383269093842686E690E08093B9
S1132A3085269093862681E08093872685E1E2EBC4
S1132A40F0E2A8E8B6E201900D928A95E1F785E0FC
S1132A50E7ECF0E2ADE9B6E201900D928A95E1F778
S1132A6085E0ECECF0E2A2EAB6E201900D928A95E0
S1132A70E1F784E390E48093A7269093A8268093BB
S1132A80A9269093AA26C3CF089548E250E063E8AC
S1132A9076E280E090E0B0DC8091832690918426F9
S1132AA0883C904119F0BBDF81E0089580E00895EF
S1132AB08091832690918426089568E876E2C2C2C4
S1132AC008956DE976E2BEC2089562EA76E2BAC27A
S1132AD00895BC0188E896E2B5C20895BC018DE969
S1132AE096E2B0C20895BC0182EA96E2ABC20895B0
S1132AF02F923F925F926F927F928F929F92AF92AA
S1132B00BF92CF92DF92EF92FF920F931F93CF93D6
S1132B10DF93CDB7DEB7C155D109CDBFDEBF18A253
S1132B2019A21BA21CA21DA21EA2512C6E0127E2F7
S1132B30C20ED11C7E0131E4E30EF11C8E01045C53
S1132B401F4F0F2EF3E86F2EF6E27F2EF02D0F2E7F
S1132B50F2E28F2EF1E29F2EF02D5E0182E2A80EAA
S1132B60B11CFE01B5962896EEAFFFAF28979E01E3
S1132B702D5D3F4F2A962EAF3FAF2A97CE014B963D
S1132B802C968EAF9FAF2C971E0196E1290E311C17
S1132B90B4972E96EEAFFFAF2E9722503109609670
S1132BA02EAF3FAF6097CE01809662968EAF9FAFF7
S1132BB06297C60182DFC70184DFC80186DF81EF27
S1132BC090E258D28AE091E255D2F301808191815A
S1132BD09F938F939F928F923CD280918526909160
S1132BE086269F938F938EE391E29F938F9331D2A6
S1132BF080918726CDBFDEBF882319F081ED90E256
S1132C0002C081EE90E29F938F9389E591E29F93B6
S1132C108F931FD2DF92CF9284E791E29F938F9399
S1132C2018D2FF92EF928FE891E29F938F9311D283
S1132C301F930F938AEA91E29F938F930AD2809114
S1132C40A7269091A8269F938F9385EC91E29F935A
S1132C508F93FFD18091A9269091AA269F938F9359
S1132C6080EE91E29F938F93F4D18BEF91E202D2A5
S1132C708CE092E29F938F93ECD1BF92AF9282E467
S1132C8092E29F938F9323D2CDBFDEBF8AA190E0BF
S1132C908830910508F0E3C0FC01EB5FFE4FC3C12F
S1132CA085E492E29F938F93D4D162969FAD62970D
S1132CB09F936196EFAD6197EF9382E492E29F93C5
S1132CC08F9305D288A190E08093852690938626E1
S1132CD00F900F900F900F900F900F90BCC08AE54B
S1132CE092E29F938F93B5D16096FFAD6097FF9367
S1132CF02F962FAD2F972F9382E492E29F938F9379
S1132D00E6D181E00F900F900F900F900F900F90ED
S1132D1098A1913009F480E0882349F081E099A1D9
S1132D20911101C080E0882311F081E089A389A179
S1132D308093872690C081E992E29F938F9389D1F3
S1132D402E963FAD2E973F932D968FAD2D978F9353
S1132D508FEA92E29F938F93BAD1CE010196B9DEA6
S1132D600F900F900F900F900F900F9074C084EB02
S1132D7092E29F938F936DD13F922F928FED92E2C7
S1132D809F938F93A4D1C101A9DE0F900F900F9050
S1132D900F900F900F905FC083EE92E29F938F93FA
S1132DA058D12C969FAD2C979F932B96EFAD2B97D4
S1132DB0EF938FED92E29F938F9389D1CE014B963F
S1132DC092DE0F900F900F900F900F900F9043C0D2
S1132DD08DE093E29F938F933CD12A96FFAD2A977F
S1132DE0FF9329962FAD29972F9383E393E29F9323
S1132DF08F936DD18BA19CA18093A7269093A82635
S1132E000F900F900F900F900F900F9024C087E3B6
S1132E1093E29F938F931DD128963FAD28973F93BC
S1132E2027968FAD27978F9383E393E29F938F9396
S1132E304ED18DA19EA18093A9269093AA260F908E
S1132E400F900F900F900F900F9005C0E0DD8DE56F
S1132E5093E210D107C0552009F4ABCE03C055202E
S1132E6009F4A7CECF5ADF4FCDBFDEBFDF91CF919C
S1132E701F910F91FF90EF90DF90CF90BF90AF9094
S1132E809F908F907F906F905F903F902F900895C8
S1132E90CF93C82F8A3021F48DE090E00E9419046A
S1132EA08C2F992787FD90950E94190480E090E06B
S1132EB0CF9108950F931F93CF93DF938C010E94BA
S1132EC058038823E1F30E94A403EC01B801E0DF76
S1132ED0CE019927DF91CF911F910F91089587E03B
S1132EE0E0EAF0E0828378940E9407050E949E0D38
S1132EF088E990E28093AE269093AF268093AC2627
S1132F009093AD260895CF93DF93CDB7DEB727977F
S1132F10CDBFDEBF5EDB8091AA208D838091AB2084
S1132F208E838091AC208F838091A6209091A720DE
S1132F30A091A820B091A92089839A83AB83BC83F4
S1132F4060E185E032DABE016F5F7F4F80EA9AE08C
S1132F500E94130A7BDB80E09AE6A8E1B0E00197C7
S1132F60A109B1090097A105B105C9F78EDD182F94
S1132F709FDD9F938F931F921F938EED93E29F93F8
S1132F808F9367D0B5DD0F900F900F900F900F9037
S1132F900F90E0E0F6E060E450E049E03DE320E03B
S1132FA06783852F942FA32FB22F0197A109B1090D
S1132FB00097A105B105C9F7F3CFAA1BBB1B51E1CB
S1132FC007C0AA1FBB1FA617B70710F0A61BB70B95
S1132FD0881F991F5A95A9F780959095BC01CD013A
S1132FE00895A1E21A2EAA1BBB1BFD010DC0AA1F46
S1132FF0BB1FEE1FFF1FA217B307E407F50720F05E
S1133000A21BB30BE40BF50B661F771F881F991FD8
S11330101A9469F760957095809590959B01AC0121
S1133020BD01CF010895EE0FFF1F0590F491E02D2F
S11330300994FB01DC0102C001900D924150504003
S1133040D8F70895FB01DC0101900D920020E1F70F
S11330500895A0E0B0E0EEE2F8E1C8C5FE013596BF
S113306061917191AF018091AE269091AF2640D0CD
S1133070E2E0D5C50F931F93CF93DF93E091AE2683
S1133080F091AF26238121FF1BC0EC0100E010E08A
S113309089916091AE267091AF26DB011896ED916F
S11330A0FC911997882331F00995892B89F30FEF47
S11330B01FEFEECF8AE00995892B11F4C80102C0F5
S11330C08FEF9FEFDF91CF911F910F910895A0E0B3
S11330D0B0E0ECE6F8E18AC5FE01359661917191A4
S11330E0AF018091AC269091AD2634D3E2E097C530
S11330F0ACE0B0E0EDE7F8E169C57C016B018A0161
S1133100FC0116821782838181FFB0C1CE01019632
S11331104C01F7019381F60193FD859193FF819111
S11331206F01882309F49EC1853239F493FD85919A
S113313093FF81916F01853221F4B70190E09AD415
S1133140E8CF512C312C20E02032A0F48B3269F0EE
S113315030F4803259F0833269F420612CC08D320E
S113316039F0803339F4216026C02260246023C002
S1133170286021C027FD27C030ED380F3A3078F49D
S113318026FF06C0FAE05F9E300D1124532E13C0B3
S11331908AE0389E300D1124332E20620CC08E320A
S11331A021F426FD5FC1206406C08C3611F420682A
S11331B002C0883641F4F60193FD859193FF819115
S11331C06F018111C1CF982F9F7D9554933028F4BE
S11331D00C5F1F4FFFE3F9830DC0833631F0833753
S11331E071F0833509F057C021C0F80180818983CB
S11331F00E5F1F4F44244394512C540114C03801D2
S1133200F2E06F0E711CF801A080B18026FF03C0AC
S1133210652D70E002C06FEF7FEFC5012C87E1D30D
S11332202C0183012C852F77222E16C03801F2E061
S11332306F0E711CF801A080B18026FF03C0652DBC
S113324070E002C06FEF7FEFC5012C87BFD32C0164
S11332502C852068222E830123FC19C0832D90E045
S113326048165906A0F4B70180E290E003D43A94DA
S1133270F5CFF50127FC859127FE81915F01B70108
S113328090E0F8D331103A94F1E04F1A5108411408
S1133290510479F7DEC0843611F0893631F5F8012E
S11332A027FF07C060817181828193810C5F1F4F6A
S11332B008C060817181882777FD8095982F0E5F03
S11332C01F4F2F76B22E97FF09C090958095709569
S11332D061957F4F8F4F9F4F2068B22E2AE030E0D8
S11332E0A40113D4A82EA81843C0853729F42F7E2F
S11332F0B22E2AE030E025C0F22FF97FBF2E8F36A0
S1133300C1F018F4883579F0ADC0803719F08837EA
S113331021F0A8C02F2F2061B22EB4FE0DC08B2D3A
S11333208460B82E09C024FF0AC09F2F9660B92E6E
S113333006C028E030E005C020E130E002C020E112
S113334032E0F801B7FE07C0608171818281938108
S11333500C5F1F4F06C06081718180E090E00E5FBA
S11333601F4FA401D2D3A82EA818FB2DFF77BF2E80
S1133370B6FE0BC02B2D2E7FA51450F4B4FE0AC04C
S1133380B2FC08C02B2D2E7E05C07A2C2B2D03C039
S11333907A2C01C0752C24FF0DC0FE01EA0DF11D2D
S11333A08081803311F4297E09C022FF06C0739402
S11333B0739404C0822F867809F0739423FD12C09D
S11333C020FF06C05A2C731418F4530C5718732C8E
S11333D0731460F4B70180E290E02C874BD37394AC
S11333E02C85F6CF731410F4371801C0312C24FF48
S11333F011C0B70180E390E02C873CD32C8522FFD9
S113340016C021FF03C088E590E002C088E790E081
S1133410B7010CC0822F867851F021FD02C080E2F2
S113342001C08BE227FD8DE2B70190E023D3A51400
S113343030F4B70180E390E01DD35A94F8CFAA94F6
S1133440F401EA0DF11D8081B70190E013D3A110BE
S1133450F6CF332009F45DCEB70180E290E00AD3C1
S11334603A94F7CFF7018681978102C08FEF9FEFDF
S11334702C96E2E1C4C320FD09C0FC0123FD05C074
S113348022FF02C07383628351834083089544FD05
S113349010C046FD10C0DB01FC01AA0FBB1FEE1FCC
S11334A0FF1F1094D1F76A0F7B1F8E1F9F1F31E0FF
S11334B003C033E001C034E0660F771F881F991FF3
S11334C03150D1F7620F711D811D911D08950F9325
S11334D01F93CF93DF938C01C8018ED2EC0197FD2B
S11334E006C061D2892BC1F7B801CE01F5D2CE0155
S11334F0DF91CF911F910F9108958F929F92AF9278
S1133500CF92DF92EF92FF920F931F93CF93DF93AB
S1133510EC01A62E4A01022F6FD2AC0155274B3283
S1133520510521F04D32510549F40068AA9411F473
S113353080E060C0CE0160D297FDFACF102F1D7FCE
S1133540302F3073F1F48033E1F4FF24FA94FA0C51
S113355009F43DC0CE0150D297FD39C0382F3F7DCC
S1133560383549F41264AA94AA9489F1CE0144D25C
S113357097FF07C02CC006FF02C0126001C0126191
S1133580AF2CC12CD12C760120ED280F283078F0F7
S113359014FF03C0BE01A0D217C02A3040F016FFAA
S11335A0F9CF2F7D3FEE320F3630A0F72750412F51
S11335B0C701B6016CDF6B017C011260AA9451F063
S11335C0CE011AD297FFE0CF11FD04C0B1CFC12CB8
S11335D0D12C760117FF08C0F094E094D094C094E5
S11335E0C11CD11CE11CF11C212FB701A601C4018F
S11335F042DF81E0DF91CF911F910F91FF90EF9017
S1133600DF90CF90AF909F908F900895A1E2B0E0AB
S1133610EBE0FBE1E0C25C017A018E010F5F1F4F1A
S1133620680180E2D8011D928A95E9F7F50173805B
S113363040E050E0812CB0E0912C81E090E0F90171
S113364073FCA59173FEA1918F017A2F9F01A111A3
S113365003C080E090E07BC0AE3519F441155105FC
S113366059F1E92DF0E0E417F5073CF4AD3569F1C3
S1133670AD3219F4BB2319F103C0B11101C08A2E74
S1133680E72FE695E695E69586010E0F111DF801E4
S1133690A72FA7708C0102C0000F111FAA95E2F793
S11336A0D801B081BA2BB083781559F0781510F48D
S11336B07F5FE6CF7150E4CF9924939403C0B1E0C7
S11336C001C0B0E04F5F5F4FBACFBB2319F08E81CA
S11336D080628E83911003C09924939415C0F601DF
S11336E0CE018196208120952193E817F907D1F71F
S11336F0F3CFE114F10429F0D7018C93F70131964B
S11337007F016150F1F0912CC50169A375D169A1C4
S113371097FD15C0282F269526952695F601E20FCC
S1133720F11D208130E0AC014770552702C035956A
S113373027954A95E2F720FDDCCFB501CDD1911054
S113374088CFE114F10411F0D7011C92C801A196AD
S1133750EDE05AC24F925F927F928F929F92AF9206
S1133760BF92CF92DF92EF92FF920F931F93CF936A
S1133770DF931F92CDB7DEB78C012B017A01FC01D8
S113378016821782A12CF801D380F201D3FC859113
S1133790D3FE8191382F2F01882309F4EEC090E0E5
S11337A0398301D13981892B19F0C80190DEEBCF1F
S11337B0353241F4F201D3FC3591D3FE31912F011E
S11337C0353259F4C801398317D1398197FDD3C0F3
S11337D03817C9F2B80180D1D0C03A3241F4D3FCD1
S11337E03591D3FE31912F01BB24B39401C0B12C88
S11337F0712C20ED230F2A3088F4FB2DF260BF2EAC
S1133800672D70E080E090E040E241DE762EF20128
S1133810D3FC3591D3FE31912F01EBCFB1FE03C020
S1133820711003C0AAC077247A94383619F03C3654
S113383061F014C0F201D3FC3591D3FE31912F0114
S1133840383661F4FB2DF860BF2E8B2D8460B82EC2
S1133850F201D3FC3591D3FE31912F01332309F4C6
S11338608CC0632F70E08AE192E03983A4D039815F
S1133870892B09F482C0B0FC07C0F701C080D18055
S1133880C70102967C0102C0C12CD12C3E3649F4FA
S1133890F8014681578160E070E02B2DC601EBDD15
S11338A072CF333699F4B1FC02C077247394C80103
S11338B0A3D097FD60C0C114D10429F0F601808320
S11338C0C60101966C017A9491F751C03B3551F4CD
S11338D09201A601672DC80199DE2C01009709F019
S11338E046C040C0C8013983F2DD398197FD43C029
S11338F03F3651F128F4343619F1393661F128C0D4
S1133900333769F03537E1F023C0C114D10429F00D
S1133910F6018082C60101966C017A9459F0C801BF
S11339206BD04C0197FD06C03ED0892B71F3B801D2
S1133930C401D2D0C114D104D1F0F601108217C051
S1133940FB2DF062BF2E07C08B2D8061B82E03C003
S11339509B2D9064B92E2B2DA601672DC801CDDDBA
S1133960811105C0F8018381807329F406C0B0FC7D
S11339700ACFA39408CFAA2019F08A2D90E002C0A0
S11339808FEF9FEF0F90DF91CF911F910F91FF90D9
S1133990EF90DF90CF90BF90AF909F908F907F90EB
S11339A05F904F90089591110EC1803219F08950A3
S11339B08550D0F70895FC010590061621F00020EB
S11339C0D9F7C00108953197CF010895FC010590FE
S11339D0615070400110D8F7809590958E0F9F1F0D
S11339E00895FC016150704001900110D8F7809552
S11339F090958E0F9F1F0895CF93DF93EC012B8139
S1133A0020FF33C026FF0AC02F7B2B838E819F812A
S1133A1001968E839F838A8190E029C022FF0FC084
S1133A20E881F9818081992787FD9095009719F4A1
S1133A3020622B831AC03196E883F9830EC0EA858D
S1133A40FB85099597FF09C02B81019611F480E14C
S1133A5001C080E2822B8B8308C02E813F812F5FBF
S1133A603F4F2E833F83992702C08FEF9FEFDF9153
S1133A70CF9108950F931F93CF93DF93182F092F9E
S1133A80EB018B8181FD03C08FEF9FEF20C082FF8C
S1133A9010C04E815F812C813D81421753077CF415
S1133AA0E881F9819F012F5F3F4F28833983108379
S1133AB006C0E885F985812F0995892B29F72E8180
S1133AC03F812F5F3F4F2E833F83812F902FDF91C4
S1133AD0CF911F910F910895FB01238120FF12C004
S1133AE026FD10C08F3F3FEF930761F082832F7D47
S1133AF0206423832681378121503109268337832B
S1133B00992708958FEF9FEF0895FA01AA27283087
S1133B1051F1203181F1E8946F936E7F6E5F7F4F96
S1133B208F4F9F4FAF4FB1E03ED0B4E03CD0670F12
S1133B30781F891F9A1FA11D680F791F8A1F911D65
S1133B40A11D6A0F711D811D911DA11D20D009F4B5
S1133B5068943F912AE0269F11243019305D3193F7
S1133B60DEF6CF010895462F4770405D4193B3E0E0
S1133B700FD0C9F7F6CF462F4F70405D4A3318F087
S1133B80495D31FD4052419302D0A9F7EACFB4E038
S1133B90A6959795879577956795BA95C9F70097F0
S1133BA06105710508959B01AC010A2E0694579591
S1133BB0479537952795BA95C9F7620F731F841FE8
S1133BC0951FA01D08959927882708952F923F9245
S1133BD04F925F926F927F928F929F92AF92BF9219
S1133BE0CF92DF92EF92FF920F931F93CF93DF93C5
S1133BF0CDB7DEB7CA1BDB0BCDBFDEBF09942A8865
S1133C00398848885F846E847D848C849B84AA84EC
S1133C10B984C884DF80EE80FD800C811B81AA8179
S1133C20B981CE0FD11DCDBFDEBFED010895F8944B
S1053C30FFCFC0
S1133C32F5026F0179017B019102310169017D0174
S1133C427B010000000300000000000000000000EF
S1133C5200004F6E65506F7300416772756D00000E
S1133C620403090486203A20000042203E200A2050
S1133C72002009024300020100C0320904000001CD
S1133C820202010005240010010424020205240694
S1133C920001052401030107058203400010090401
S1133CA20100020A00000007058102400000070526
S1133CB20202400000001201000202000040EB0375
S1133CC204240001010203010000000300000000BB
S1133CD248175A17000000C20100030000313245A0
S1133CE2460036463233343435344346364434415E
S1133CF230464144463200303145300030313930AB
S1133D02005374617274206173204F6E65506F7337
S1133D1200537461727420617320426561636F6E33
S1133D22000A2D2D2D2D2D2D2D2D2D2D2D2D2D2D0D
S1133D322D2D2D2D2D2D2D2D2D0043757272656E79
S1133D427420436F6E66696775726174696F6E3A47
S1133D5220002020204D454D20434845434B202040
S1133D62202020202020203A202523780A00312EEA
S1133D72204E4F444520494420202020202020204A
S1133D822020203A2025640A00322E204E4F44453A
S1133D92204D4F44452020202020202020203A205E
S1133DA225730A00332E204E414D4553504143455D
S1133DB22049442020202020203A2025730A003460
S1133DC22E20424C45205343414E20494E544552E5
S1133DD256414C203A2025730A00352E20424C4588
S1133DE2205343414E2057494E444F572020203AF6
S1133DF22025730A00362E2055574220525820415E
S1133E024E542044454C415920203A2025640A004E
S1133E12372E2055574220545820414E54204445B1
S1133E224C415920203A2025640A00302E20534167
S1133E32564520414E4420455849540053656C650B
S1133E4263742061206E756D62657220746F2063E5
S1133E5268616E6765207468652063757272656E49
S1133E627420636F6E66696775726174696F6E3A06
S1133E7220002564000A5772697465206E657720F4
S1133E826E6F64652049443A20000A57726974656A
S1133E92203020746F207374617274206173204225
S1133EA26561636F6E20616E64203120746F2073CC
S1133EB274617274206173204F6E65506F733A207F
S1133EC2000A577269746520746865206E657720EC
S1133ED26E616D6573706163652049443A20002503
S1133EE2323073000A577269746520746865206EF3
S1133EF2657720626C65207363616E20696E7465F8
S1133F027276616C28313620686578293A2000255A
S1133F123473000A577269746520746865206E658B
S1133F227720626C65207363616E2077696E646FBB
S1133F32772820313620686578293A20000A57729A
S1133F4269746520746865206E65772075776220D0
S1133F52727820616E74656E6E612064656C61793D
S1133F623A2000256C64000A5772697465207468EB
S1133F7265206E65772075776220747820616E748F
S1133F82656E6E612064656C61793A20000A436F44
S1133F926E66696775726174696F6E2073617665A6
S1133FA2642E20506C65617365207265737461724E
S1133FB274207468652073797374656D004C697438
S1133FC2746C652D656E6469616E0A0D00426967E1
S1133FD22D656E6469616E0A0D004D6964646C65D9
S1133FE22D656E6469616E206F7220756E6B6E6FE3
S1133FF2776E2073746F7261676520747970652EB1
S1134002205661726961626C653D202578005245D3
S113401241445F4346473A2025642E204D454D4393
S10F40224845434B203D2025780A00004F
S9030000FC
