S00E00004F6E65506F732E73726563C2
S113000004C100001FC100001DC100001BC100008D
S113001019C1000017C1000015C1000013C1000080
S113002011C100000FC100000DC100000BC1000090
S113003009C100000C94850905C1000003C100003A
S113004001C10000FFC00000FDC00000FBC00000B3
S1130050F9C00000F7C00000F5C00000F3C00000C4
S1130060F1C00000EFC00000EDC00000EBC00000D4
S1130070E9C00000E7C00000E5C00000E3C00000E4
S1130080E1C00000DFC00000DDC00000DBC00000F4
S1130090D9C00000D7C00000D5C00000D3C0000004
S11300A0D1C00000CFC00000CDC00000CBC0000014
S11300B0C9C00000C7C000000C94A809C3C0000058
S11300C0C1C00000BFC00000BDC00000BBC0000034
S11300D0B9C00000B7C00000B5C00000B3C0000044
S11300E0B1C00000AFC00000ADC00000ABC0000054
S11300F0A9C00000A7C00000A5C00000A3C0000064
S1130100A1C000009FC000009DC000009BC0000073
S113011099C0000097C0000095C0000093C0000083
S113012091C000008FC000008DC000008BC0000093
S113013089C0000087C0000085C0000083C00000A3
S113014081C000007FC000007DC000007BC00000B3
S113015079C0000077C0000075C0000073C00000C3
S113016071C000006FC000006DC000006BC00000D3
S113017069C0000067C0000065C0000063C00000E3
S113018061C000005FC000005DC000005BC00000F3
S113019059C0000057C0000055C0000053C0000003
S11301A051C000004FC000004DC000004BC0000013
S11301B049C0000047C0000045C0000043C0000023
S11301C041C000003FC000003DC000003BC0000033
S11301D039C0000037C0000035C0000033C0000043
S11301E031C000002FC000002DC000002BC0000053
S11301F029C000000C94AB100C946111BF0CAD0C21
S1130200B00CB30CB60CB90CBC0C11241FBECFEF50
S1130210CDBFDFE2DEBF13E2A0E0B0E2EEE7F8E438
S113022002C005900D92A030B107D9F725E2A0E0F5
S1130230B3E201C01D92A63BB207E1F70E944B2036
S11302400C943D24DDCECF93DF93EC01C03C28E039
S1130250D20729F468E083E00E94981207C0803C2A
S1130260994021F468E084E00E94981288818061BA
S11302708883DF91CF910895FF920F931F93CF93BB
S1130280DF93EC01F42EB901A80100E01CE62CED8B
S113029032E056D788234CF088819F2D990F990F0F
S11302A09C70837FF92EF82AF882DF91CF911F91F9
S11302B00F91FF900895FC01DB01460F571F05C005
S11302C08D91838382818823ECF7A417B507C1F746
S11302D080E00895FC01DB014115510561F0460FF2
S11302E0571F9FEF938382818823ECF783818D933B
S11302F0A417B507B9F780E00895FB018081E82FC2
S1130300E695E695E69540E2E49FF0011124FA5F54
S1130310877021E030E0A90102C0440F551F8A957F
S1130320E2F746830895FB018081E82FE695E69580
S1130330E69540E2E49FF0011124FA5F877021E022
S113034030E0A90102C0440F551F8A95E2F74583A6
S1130350089510921624109222241092232481EAE4
S11303608093182480E28093192410921A24109206
S11303701B2410921C2410921D2482E090E0809390
S11303801E2490931F24109220241092212480E094
S113039092ECA1E0B0E08093242490932524A093D0
S11303A02624B0932724109228241092292488E02C
S11303B080932A24809116248F5F8093162481E0F1
S11303C00895809116248150809316240895809175
S11303D0152481508093152480911524109214249F
S11303E0089580E0089580E0089580917125882320
S11303F0DCF480768032E9F5809172258132D9F57A
S113040080917725909178250797B9F584E294E255
S11304108093792590937A2587E090E080937B25DB
S113042090937C2581E008958076803241F5809117
S11304307225803221F0823221F581E00895809185
S11304407725909178250797F1F485E492E08093DD
S11304507D2590937E2584E294E280937925909380
S11304607A2587E090E080937B2590937C2581E03A
S1130470089580E0089580E0089580E0089580E084
S1130480089580E0089580E008950895FF920F9301
S11304901F93CF93DF938091032381119CC00E940B
S11304A0ED0E882351F0C0910423D09105230E94BE
S11304B0FA0EC817D90759F48EC0C0910423D091FD
S11304C005230E94F50EC817D90709F484C0DFB7C5
S11304D0F894C0910623EC2FF0E0EE0FFF1FE95FC4
S11304E0FC4D80819181892B09F5809100239091A5
S11304F00123019680930023909301230E94ED0E23
S1130500811107C0809100239091012384369105C5
S113051058F00E94ED0E882349F0809100239091B9
S113052001238032934010F4DFBF55C010920023A2
S11305301092012380910223811106C081E0C11130
S113054080E08093062304C081E0C11180E0C82FBD
S113055081E080930323DFBFD0E0FE01EE0FFF1F95
S1130560E95FFC4DFF24F3948081918180349105EF
S113057009F4F12CFF2091F00E94ED0E882339F04C
S11305800E94FA0E80930423909305230BC00E94CB
S1130590F50E809304239093052304C01092042342
S11305A010920523FE01EE0FFF1FE95FFC4D208131
S11305B03181AE0100245695479507945695479589
S11305C00794542F402D445F5C4D01EF12E06F2DD2
S11305D081E80E94AC0FDF91CF911F910F91FF90A2
S11305E00895811115C02091062381E090E0222313
S11305F011F080E090E0FC01EE0FFF1FE95FFC4D7D
S113060010821182109202231092032380E03ECFC5
S1130610089580E03BCF08954FB7F89420918D233F
S113062030918E23E0918F23F0E0EE0FFF1FE0570F
S1130630FC4D80819181821B930B4FBF0895ECDFA9
S113064021E0892B09F420E0822F08950F931F9352
S1130650CF93DF934FB7F89450918F2380918C23DD
S1130660811110C020918D2330918E23C52FD0E0AD
S1130670FE01EE0FFF1FE057FC4D8081918128178A
S1130680390718F44FBF80E023C010928D231092D5
S11306908E2381E0511180E080938F2381E0809349
S11306A08C234FBF80E0CBDFAE01002456954795E5
S11306B00794569547950794542F402D4C565C4DFE
S11306C00FE913E020E430E061E082E00E94AC0F27
S11306D0DF91CF911F910F910895109215241092DC
S11306E003231092022310920623109207231092E0
S11306F008231092092310920A23109204231092C3
S1130700052380E0C3DE10928C2310928F23109275
S113071090231092912310928D2310928E2380E0C7
S113072095DF882359F0909115249F5F90931524A9
S113073090911524913011F49093142408950F93FB
S11307401F93942F811129C080918F23E1E081119F
S1130750E0E061157105B1F4F0E00024F695E79549
S11307600794F695E7950794FE2FE02DAF014C56BC
S11307705C4D0FE913E020E430E061E0892F0E9432
S1130780AC0F0BC0F0E0EE0FFF1FE057FC4D608391
S1130790718310928C2380E059DF1F910F9108958B
S11307A080E04DCF08951F93CF93DF9311E08091A4
S11307B02A24893009F010E060E070E03FB7F89433
S11307C080918D2390918E2320918F233FBF30E021
S11307D0F901EE0FFF1FE057FC4D40815181841752
S11307E0950730F0809114248111E8CF90E020C067
S11307F0F9010024F695E7950794F695E795079493
S1130800FE2FE02DE80FF91FEC56FC4D2081EB0183
S1130810C22B019680938D2390938E2380E016DF64
S1130820112321F07C2F662710E0C8CF8C2F9D2F39
S1130830DF91CF911F91089580E0B5CF08959FB7C0
S1130840F89480910623E82FF0E0EE0FFF1FE95F94
S1130850FC4D208131812034310589F440910323FA
S113086041110DC040910223411109C021E02093A0
S11308700223811120E02093062320E030E09FBF73
S113088080E490E0821B930B0895D9DF21E0892B4B
S113089009F420E0822F08951F93CF93DF93162F3E
S11308A0C72FD1E080912A24893009F0D0E080E07C
S11308B0ECDF811107C0809114248111F8CF80E00E
S11308C090E02BC06FB7F8942091062330E0F90133
S11308D0EE0FFF1FE95FFC4D80819181AC014F5FFA
S11308E05F4F40835183F9010024F695E7950794FF
S11308F0F695E7950794FE2FE02D8E0F9F1FFC01C0
S1130900E45FFC4D10836FBFDD2329F01C2FCC0F57
S1130910CC0BD0E0CCCF81E090E0DF91CF911F9160
S11309200895BC0180E0B8CF0895E0913024F0919F
S113093031240190F081E02D228133812E0F3F1F5D
S1130940FC014081E40FF11DE217F307A0F481815B
S11309508430A1F0861306C014C081818430A1F0D4
S11309608617A9F08081E80FF11DE217F307A8F3B9
S113097080E090E0089580E090E0089580E090E0C9
S113098008958E2F9F2F089580E090E008958E2F74
S11309909F2F0895809173258F770C94EF0E0895FF
S11309A090913224992381F1E0913024F091312403
S11309B00190F081E02D9481891740F5E0932E2475
S11309C0F0932F24228133812E0F3F1FE217F30768
S11309D0F8F49181943061F49281981309C0938161
S11309E0961306C0E0932E24F0932F2481E00895FB
S11309F09081E90FF11DE217F30758F3E0932E24D9
S1130A00F0932F2480E0089580E0089580E0089515
S1130A1080E00895FF920F931F93CF93DF93C82F25
S1130A2060E0BEDFF82E882381F1A0913024B091DC
S1130A303124EC2FF0E0EE0FFF1F12962D913C9124
S1130A401397E20FF31F00811181D8011696ED91DF
S1130A50FC9117970995682F8C2FA2DFF82E882315
S1130A60A1F0C0912E24D0912F2465E0CE015DDF4A
S1130A70EC01009721F08A810E946D10F6CFD80115
S1130A801296ED91FC91139709958F2DDF91CF91DB
S1130A901F910F91FF9008951F93CF93DF93182F09
S1130AA07FDF882341F1C0912E24D0912F2465E06B
S1130AB0CE013BDFEC01009749F04C815D816B81F5
S1130AC08A810E94060F8111F2CF15C0A0913024B3
S1130AD0B0913124812F90E0880F991F1296ED91E7
S1130AE0FC911397E80FF91F0190F081E02D01901C
S1130AF0F081E02D0995DF91CF911F9108950C9419
S1130B00830E0895CF93809132248823C1F0E0911D
S1130B103024F09131240190F081E02D84818823E8
S1130B2071F0C0E08C2F76DFCF5FE0913024F0913C
S1130B3031240190F081E02D8481C81798F310923C
S1130B40322481E090E08093362490933724CF912F
S1130B500895CF9380913224882341F1E091302489
S1130B60F0913124A081B18114968C918823F1F005
S1130B70C0E08C2F90E0880F991F0280F381E02D54
S1130B80E80FF91F0190F081E02D0084F185E02D3C
S1130B90309709F00995CF5FE0913024F09131242A
S1130BA0A081B18114968C91C81718F3CF91089540
S1130BB0EF92FF920F931F93CF93DF9310927B25B5
S1130BC010927C2510927D2510927E2510927F250F
S1130BD0109280252091712522230CF097C28091D8
S1130BE0772590917825009709F095C28BC22F71D3
S1130BF009F0B9C030917225363089F0383009F4E3
S1130C00A6C03111B0C0029741F462E070E086E3FF
S1130C1094E20E94FD0E01E0F8C100E0F6C12091CB
S1130C20732530917425832F992782309105A1F083
S1130C301CF4019739F081C083309105F1F10F97CD
S1130C4069F17BC08091342090913520DC016C9156
S1130C5070E00E94FD0E60C0E0913420F0913520D8
S1130C608189281708F06BC0C9019927880F991F3B
S1130C70880F991FE0913620F0913720E80FF91F73
S1130C8080819181FC01628173810E94FD0EE0915B
S1130C907925F0917A2582E081833EC080913820C5
S1130CA090913920009709F44CC0DC0112966D91A3
S1130CB07C9113970E94FD0E2FC0332721303105FC
S1130CC089F048F02230310509F42AC22330310575
S1130CD009F42AC238C064E070E080E390E20E9424
S1130CE0FD0E1AC089E290E225E0382FA6E1B0E2B9
S1130CF0E82FF92F819190E08D939D938E2F831B84
S1130D008217C0F3220F62E0620F6093142070E038
S1130D1084E190E20E94FD0E8091772590917825E0
S1130D2020917B2530917C258217930770F4809362
S1130D307B2590937C2501E068C100E066C100E05A
S1130D4064C100E062C100E060C101E05EC10197DE
S1130D5041F461E070E082E394E20E94FD0E01E060
S1130D6054C100E052C1213009F040C030917225D5
S1130D703A30E1F50197A1F580913224882391F16D
S1130D80C0917525D0917625E0903024F0903124DF
S1130D90D701ED91FC918481C81730F560E08C2F68
S1130DA0FFDD082F882309F430C1CE019927880F6D
S1130DB0991FD7011296ED91FC911397E80FF91F33
S1130DC00190F081E02D0680F781E02D0995809354
S1130DD0342461E070E084E394E20E94FD0E15C1C6
S1130DE000E013C100E011C100E00FC1223009F09E
S1130DF00EC120917225211103C1029781F48091C3
S1130E0075250E94670F90E080932C2490932D24E5
S1130E1062E070E08CE294E2F0D701E0F6C000E01A
S1130E20F4C02F7109F090C080917225833009F4C9
S1130E30E9C018F48130B1F087C0853019F08930E9
S1130E4061F182C08091772590917825892B41F4B6
S1130E508AEC94E080937D2590937E2501E0D5C0B3
S1130E6000E0D3C08091772590917825892B89F46F
S1130E708091732590917425019769F480913624AB
S1130E80909137248D7F809336249093372401E00A
S1130E90BCC000E0BAC000E0B8C080917725909152
S1130EA07825892B09F046C09DD7882309F444C0CE
S1130EB020917325309174253327E0913420F091EB
S1130EC03520818990E082179307C0F11BDE809161
S1130ED073259091742580933224882389F199276E
S1130EE08150904C880F991F880F991FE0913620EC
S1130EF0F0913720E80FF91FE0933024F093312468
S1130F000190F081E02D84818823E1F0C0E060E06D
S1130F108C2FC2DD082F882309F477C0CF5FE091BE
S1130F203024F09131240190F081E02D8481C817A0
S1130F3070F36BC000E069C000E067C000E065C00A
S1130F4001E063C001E061C0213009F580917225A0
S1130F508B30E9F48091772590917825892B99F449
S1130F6080913224882389F0C0917525D09173250E
S1130F708C2F50DD082F882309F447C06D2F8C2F48
S1130F808BDD082F42C000E040C000E03EC02230AC
S1130F9009F03DC080917225813019F08330B1F0A1
S1130FA033C08091772590917825892B59F48091CD
S1130FB0732590917425892B39F480917525A2D7D6
S1130FC0082F23C000E021C000E01FC080917725D6
S1130FD090917825892B81F48091732590917425C3
S1130FE0892B61F4C5E7D5E288810E943410888199
S1130FF00E948A10082F09C000E007C000E005C065
S113100000E003C000E001C000E0011191C0809144
S113101071258F718130C1F5809132248823A1F12B
S1131020C0917525D09176250091302410913124FA
S1131030D801ED91FC918481C81730F560E08C2FC4
S1131040AFDC882309F1CE019927880F991FD801B5
S11310501296ED91FC911397E80FF91F008111810D
S1131060D8011696ED91FC9117970995682F8C2F4E
S113107097DC882349F0D8011496ED91FC911597DB
S11310800995082F811154C0809171258F71823088
S1131090D9F580913224882389F1E0913024F091AC
S11310A03124A081B18114968C91882349F110E0F8
S11310B0212F30E0220F331F0280F381E02DE20F55
S11310C0F31FC081D181EE81FF810995682F812FA3
S11310D067DC082F882361F1EC81FD810995082FD5
S11310E0811126C01F5FE0913024F0913124A0814A
S11310F0B18114968C911817D8F21AC000E018C068
S113110000E016C000E014C000E012C0822F807618
S113111009F07DCF86CE322F307609F078CF67CDB7
S113112026E082E290E2E1CD24E080E891E2DDCDA8
S1131130802FDF91CF911F910F91FF90EF90089531
S1131140CF92DF92EF92FF920F931F93CF93DF938F
S1131150EC016A017B01DB01CA010197A109B10914
S1131160BC01CD01600F711F821F931FA70196015F
S11311700E9415212138310541055105F8F4213427
S113118060F4213260F4213160F4293060F42530B8
S113119060F4233060F090E00BC093E009C092E06B
S11311A007C092E805C091E003C091E801C090E84F
S11311B088818C77892B888381E001C08FEFDF9150
S11311C0CF911F910F91FF90EF90DF90CF900895F2
S11311D0CF93DF93E0913824F0913924848183FF05
S11311E008C08860848383E0838386EF80934224ED
S11311F089C0982F947131F083E083838FEF8093BB
S1131200422480C086FF45C0A0913A24B0913B247B
S113121080913C2490913D2414962D913C911597F6
S1131220821793076CF49C012F5F3F4F20933C245B
S113123030933D24A80FB91F11968C91878362C007
S113124080913E2490913F2418962D913C911997BA
S113125082179307C8F420914024222321F0868129
S1131260816086834FC016962D913C911797AC01EF
S11312704F5F5F4F40933E2450933F24D901A80F02
S1131280B91F8C9187833EC083E0838310924224EC
S113129039C08823A4F5A0913A24B0913B248091CD
S11312A03E2490913F2418962D913C9119978217D2
S11312B09307F8F416964D915C9117979C012F5F54
S11312C03F4F20933E2430933F246781EA01C80FA7
S11312D0D91F688318968D919C91199728173907FF
S11312E018F482E083830EC087E083831092422443
S11312F009C083E0838389EF8093422403C08BEF8A
S113130080934224DF91CF9108951F920F920FB6DC
S11313100F9211242F933F934F935F936F937F9377
S11313208F939F93AF93BF93EF93FF9351DFFF91FD
S1131330EF91BF91AF919F918F917F916F915F9149
S11313404F913F912F910F900FBE0F901F901895C2
S11313501F920F920FB60F9211242F933F934F9326
S11313605F936F937F938F939F93AF93BF93EF9309
S1131370FF932EDFFF91EF91BF91AF919F918F91DA
S11313807F916F915F914F913F912F910F900FBE7D
S11313900F901F9018954F925F926F927F928F9249
S11313A09F92AF92BF92CF92DF92EF92FF920F93F0
S11313B01F93CF93DF93EC014A015B0128013901AC
S11313C0D901C801689412F8B695A79597958795A1
S11313D01694D1F7B901A801032E36E176956795E5
S11313E0579547953A95D1F7302D2C8122FD08C0A9
S11313F0B695A7959795879576956795579547954B
S113140088159905AA05BB0508F4A6C08416950697
S1131410A606B70608F4A2C08C8182FD04C0880C1D
S1131420991CAA1CBB1CC301B201A50194010E9412
S113143015212F3F31054105510508F491C0C12CF8
S1131440D12C7601CA9419EF05C02C153D054E0523
S11314505F0568F0CC0CDD1CEE1CFF1C1D3F14F472
S11314606894C0F81F5F173081F7212F50C0212FD7
S113147011230CF04CC0D501C401880F991FAA1F79
S1131480BB1F880F991FAA1FBB1F880F991FAA1F74
S1131490BB1F481A590A6A0A7B0A1E3FF4F46DEF0F
S11314A07FEF611B710917FD739504C0440C551C33
S11314B0661C771C6A95D2F7D501C401B695A79529
S11314C097958795BC01CD01640D751D861D971DEB
S11314D0A50194010E94152136C023E0210FD501F6
S11314E0C40104C0880F991FAA1FBB1F2A95D2F7F5
S11314F09C01AD01B695A79597958795BC01CD0143
S1131500640D751D861D971D0E9415211CC02D5F3D
S1131510D501C40104C0880F991FAA1FBB1F2A95B7
S1131520D2F79C01AD01B695A79597958795BC0117
S1131530CD01640D751D861D971D0E941521215036
S1131540310941095109832F8F701295107F182B8F
S11315501F832E8381E018C080E016C080E014C091
S1131560D501C401880F991FAA1FBB1F880F991F9B
S1131570AA1FBB1F880F991FAA1FBB1F481A590A0D
S11315806A0A7B0A19EF8BCFDF91CF911F910F91DC
S1131590FF90EF90DF90CF90BF90AF909F908F908F
S11315A07F906F905F904F9008950F931F93CF9308
S11315B0DF93EC018B01009709F4BEC0803C9105D8
S11315C021F460E180E0B4D7B7C0C11584E0D80746
S11315D021F464E080E0ACD7AFC0C038E1E0DE07BE
S11315E021F462E080E0A4D7A7C0C115F1E0DF07D1
S11315F021F461E080E09CD79FC0C03883E0D80725
S113160021F461E081E094D797C0C115E2E0DE07E0
S113161021F462E081E08CD78FC0C032F3E0DF07B1
S113162021F464E082E084D787C0C11588E0D8073C
S113163021F461E083E07CD77FC0C115E9E0DE07D7
S113164021F461E084E074D777C0C115FAE0DF07C4
S113165021F461E085E06CD76FC0C03488E0D8071E
S113166021F462E083E064D767C0C034E9E0DE07B8
S113167021F462E084E05CD75FC0C039F8E0DF07A2
S113168021F464E083E054D757C0C03989E0D80717
S113169021F464E084E04CD74FC0C039EAE0DE07AF
S11316A021F464E085E044D747C0C03CF8E0DF079C
S11316B021F468E083E03CD73FC0C03C89E0D80710
S11316C021F468E084E034D737C0C03AE8E0DE07AC
S11316D021F460E183E02CD72FC0C03AF9E0DF07A2
S11316E021F460E184E024D727C0C03A8AE0D80717
S11316F021F460E185E01CD71FC0C03BE8E0DE07B1
S113170021F460E283E014D717C0C03BF9E0DF079F
S113171021F460E284E00CD70FC0C03884E0D8071D
S113172021F460E483E004D707C0C03AE4E0DE07B4
S113173019F460E485E0FCD68D818F738D83F80104
S113174094818581892B9681992311F098E001C0B9
S113175090E0892B8D83F8014081518162817381EE
S113176000E01CE62CED32E0CE0115DE9C81986091
S11317709C839C8190619C83DF91CF911F910F91F9
S11317800895811118C090917025992389F09FB70D
S1131790F894E2E8F5E22081215020839FBF08C03D
S11317A09FB7F894E2E8F5E220812F5F20839FBF82
S11317B080937025089590917025992389F3F8CF2B
S11317C00F93E8ECF4E080818F7D808380818F7DAE
S11317D08083E4E4F5E202E005931092462510923A
S11317E0472500E2069300E40693ECE3F5E200E209
S11317F0069300E4069310927D2510927E251092A4
S11318007F251092802510927B2510927C251092C2
S11318102C250F9108950F9385E080932C25E5E402
S1131820F5E204E00593EDE3F5E204E005930F919E
S113183008950F9383E080932C25109246251092EF
S11318404725E4E4F5E202E006930F910895E09160
S11318507D25F0917E25309709F0099508950F9321
S1131860CF93DF9380912C25833019F4F0DFA8DF28
S113187060C08091282590912925C0917B25D09125
S11318807C25C81BD90B71F520912A2530912B2575
S1131890820F931F80932A2590932B2520917725DF
S11318A0309178258217930721F08091432488236F
S11318B041F084E080932C25ECE3F5E202E006930A
S11318C038C0E0917F25F0918025309799F00995F3
S11318D0882381F01092282510922925C0917B2518
S11318E0D0917C25C034D10528F010924324C0E463
S11318F0D0E003C081E080934324C0934625D09375
S1131900472580912825909129252091792530918A
S11319107A25280F391F2093482530934925C80F6D
S1131920D91FC0932825D0932925E4E4F5E202E0E9
S11319300693DF91CF910F910895FC018181877007
S113194090E0FC013197E730F10520F4E250FF4FBD
S11319500C94372188E090E0089580E290E00895A7
S113196080E490E0089580E890E0089580E091E0BC
S1131970089580E092E008958FEF93E0089580E168
S113198090E00895282F2F7030E0220F331F9927FD
S113199087FD90958827990F881F9927820F931F99
S11319A002979C01220F331F220F331F220F331F74
S11319B0820F931F8C539B4D08950F93CF93809167
S11319C0CC0480FF62C081E08093CC04ECE3F5E2B8
S11319D000E80693E4E4F5E200E806938093CA0481
S11319E0ECE3F5E200E1069380912C25882329F0AD
S11319F08350823008F42BDFE3DE80913E25909102
S1131A003F25089709F043C088E0E8EEF4E2A1E737
S1131A10B5E201900D928A95E1F7E8ECF4E080815B
S1131A2080628083808180628083C2D8C82F8111C4
S1131A3003C0F1DEC1E02CC08091712588236CF4D1
S1131A4010922A2510922B251092282510922925D0
S1131A5082E080932C2503DF1BC0209177253091F1
S1131A607825232B11F4E5DE13C010922A25109259
S1131A702B25109228251092292581E080932C256E
S1131A80ECE3F5E202E0069303C0C0E001C0C1E06C
S1131A908C2FCF910F910895BF92CF92DF92EF9246
S1131AA0FF920F931F93CF93DF93B82E6BDFEC015C
S1131AB01B2D111F1127111F8B2D8F70E82EF12C58
S1131AC0EE0CFF1CE10EF11CC701880F991F880F53
S1131AD0991F880F991F9C01245C3A4D7901C90113
S1131AE02CDF6C01112309F45BC0D70116962D91EC
S1131AF03C9117978D819E81280F391F2D833E833A
S1131B008B819C8128173907C9F1FC01E21BF30B77
S1131B109F012115F4E03F0740F02FEF33E0C901A6
S1131B20B6010E940121281B390B888181FF0AC05C
S1131B30C901B6010E94012141E0892B09F040E06E
S1131B40942F01C090E0888190FB81F98883D701AC
S1131B5016961D921C92179712962D933C931397E9
S1131B6029813A818D819E81820F931F14968D93D2
S1131B709C931597F70102E0069398C0888181FF32
S1131B8087C08D7F8883D70116961D921C92179764
S1131B9012961D921C921397F70102E0069386C0D9
S1131BA0D70112960D911C911397888182FF15C05D
S1131BB0E981FA812D813E818B819C81B6010E944D
S1131BC00121B0E4BB9EB00111246C5F7B4DAC01DC
S1131BD0CF01820F931F0E943D212D813E81200F52
S1131BE0311F2D833E83EB81FC81E217F30710F450
S1131BF0ED83FE83D70116968D919C9117978017DC
S1131C00910709F045C08D819E81E817F90709F411
S1131C103FC0E81BF90BE115B4E0FB0748F0EFEF18
S1131C20F3E0CF01B6010E940121E81BF90B06C0C5
S1131C30CF01B6010E940121E81BF90BD7011296CE
S1131C401D921C921397EC15FD0578F4888184602D
S1131C508883B0E4BB9EC00111248C5F9B4DF701C7
S1131C6084839583C682D7820FC029813A818D816E
S1131C709E81820F931FD70114968D939C93159781
S1131C801696ED93FC931797F70102E006930EC0A6
S1131C90888180FF0BC08E7F8883EF81F885309721
S1131CA029F06D817E814B2D80E00995DF91CF91E4
S1131CB01F910F91FF90EF90DF90CF90BF90089508
S1131CC0CF93CFB7F89481E05CDDEAECF4E080E4F4
S1131CD0808380E28083E1ECF4E080818160808312
S1131CE0A9ECB4E08C9182608C93E8ECF4E0808100
S1131CF0806480838C9181608C93808180688083F0
S1131D00CFBFCF910895CF9380E31ED4E0ECF4E0ED
S1131D10808180648083CFB7F89410923D2510921F
S1131D20452510924D251092552510925D2510924F
S1131D306525E4ECF4E280818E7F8083EDECF4E2AF
S1131D4080818E7F8083E6EDF4E280818E7F8083C4
S1131D50EFEDF4E280818E7F80836AE170E082E0BF
S1131D600ED48F3F19F08093FA0403C08FE180935F
S1131D70FA046BE170E082E002D48F3F19F08093A3
S1131D80FB0403C08FE18093FB04E0ECF4E080816A
S1131D908260808380818068808380818061808389
S1131DA08CE395E2868397838081806280838FEFC2
S1131DB08093C504E8ECF4E0808181608083109214
S1131DC070258FB7F894E6E8F5E290819F5F9083E1
S1131DD08FBF76DFCFBFCF91089580E008958093C1
S1131DE0C30408958091C304089580916C25909153
S1131DF06D25089580E090E008958093792590936F
S1131E007A2560937B2570937C250895E82FEF70E5
S1131E10F0E0EE0FFF1F992787FD90958827990F13
S1131E20881F9927E80FF91FEE0FFF1FEE0FFF1F02
S1131E30EE0FFF1FE45CFA4D8181807C09F043C002
S1131E406370613029F010F480E403C080E801C0BD
S1131E5080EC40385105E1F050F440325105A1F0D6
S1131E604034510599F04031510561F419C04115D0
S1131E7092E0590789F04F3F93E0590779F04115F3
S1131E80514041F020E00DC022E00BC023E009C026
S1131E9024E007C025E005C026E003C027E001C018
S1131EA021E0118296E09083822B81838181807C62
S1131EB0803C21F481818770873039F08181806290
S1131EC0818381E0089580E0089581E00895E82FFA
S1131ED0EF70F0E0EE0FFF1F992787FD909588279C
S1131EE0990F881F9927E80FF91FEE0FFF1FEE0FB8
S1131EF0FF1FEE0FFF1FE45CFA4D818182FB8827F0
S1131F0080F90895E82FEF70F0E0EE0FFF1F282FFF
S1131F10332727FD30952227330F221F3327E20F63
S1131F20F31FEE0FFF1FEE0FFF1FEE0FFF1FE45C0A
S1131F30FA4D918192FF0EC091819B7F918322DDA6
S1131F40FC01808180FF06C08E7F80830780F0853E
S1131F50E02D099581E008957F928F929F92AF9230
S1131F60BF92CF92DF92EF92FF920F931F93CF9382
S1131F70DF93982E862E5A01690104DD7C01792CA9
S1131F80771C7724771CC92DCF70D0E0CC0FDD1FD0
S1131F90C70DD11DCC0FDD1FCC0FDD1FCC0FDD1FF6
S1131FA0C45CDA4D8981807C09F44CC08981807CD1
S1131FB0803C19F0898182FD47C08FB7F894F701FE
S1131FC0908190FF03C08FBF712C3FC0F7019081B7
S1131FD0916090838FBFF701A182B282C382D482C1
S1131FE01582168207831087811006C091E0C11400
S1131FF0D10419F090E001C091E0F701808190FBD9
S113200081F98B7F8083772019F01E821F8215C08F
S11320108981807C803C69F4CE018FDCBC01C601DF
S11320200E940121892B29F0F70180818E7F808312
S11320300CC01A821B821E821F82892D2DDD7724FB
S1132040739403C0712C01C0712C872DDF91CF9143
S11320501F910F91FF90EF90DF90CF90BF90AF90C2
S11320609F908F907F900895FF920F931F93CF932B
S1132070DF93182FF82EFF1CFF24FF1CC82FCF70EE
S1132080D0E0CC0FDD1FCF0DD11DCC0FDD1FCC0F49
S1132090DD1FCC0FDD1FC45CDA4D74DCDC01FE01F6
S11320A002E005938C9180FF12C08E7F8C9317966B
S11320B0ED91FC911897309751F0FF2019F06E8143
S11320C07F8102C06A817B81412F81E00995DF9184
S11320D0CF911F910F91FF900895CF93C82FC4DF24
S11320E0EC2FEF70F0E0EE0FFF1F8C2F992787FD88
S11320F090958827990F881F9927E80FF91FEE0FED
S1132100FF1FEE0FFF1FEE0FFF1FE45CFA4D11825D
S1132110CF9108950F93E82FEF70F0E0EE0FFF1FBB
S1132120282F332727FD30952227330F221F3327EB
S1132130E20FF31FEE0FFF1FEE0FFF1FEE0FFF1F47
S1132140E45CFA4D91819460918301E006938CDF05
S113215081E00F9108951F920F920FB60F921124F0
S11321600F932F933F934F935F936F937F938F932B
S11321709F93AF93BF93EF93FF938091CB048823F6
S113218034F480E88093CA040E94A90588C0809131
S1132190CB0482FF20C084E08093CA04809144254C
S11321A086FF7DC08091CC0481FD79C006DC81115D
S11321B076C080912C25813011F43BDB70C08430D3
S11321C009F06DC0E5E4F5E204E00593EDE3F5E222
S11321D004E0059364C08091CB0481FF5BC082E07E
S11321E08093CA0480913C2586FF59C08091CC0419
S11321F081FD55C0E2DB811152C080912C258230D3
S113220041F484E080932C25ECE3F5E202E00693AC
S113221046C0833009F043C0E5E4F5E204E00593E9
S1132220EDE3F5E204E005933AC080E18093CA044B
S113223081E01ADF81E818DF0E9482051092C3044E
S1132240EDE3F5E2108296E090933C2583E48083ED
S1132250E5E4F5E2108290934425808388EE94E2CD
S11322608093402590934125ABDA19C08091CB042B
S113227086FF06C080E48093CA0480E082DA0FC03F
S11322808091CB0485FF0BC080E28093CA0481E077
S113229078DA05C08091CB0484FFE8CFC6CFFF91E4
S11322A0EF91BF91AF919F918F917F916F915F91CA
S11322B04F913F912F910F910F900FBE0F901F9050
S11322C018951F920F920FB60F9211240F931F931C
S11322D02F933F934F935F936F937F938F939F932A
S11322E0AF93BF93CF93DF93EF93FF938091CC048D
S11322F081FD03C062DB8111B9C082E08093CC040C
S11323008091C5048195880FECE3F5E2E81BF1099F
S1132310208131812C533542369527953695279562
S113232036952795822F869520FF02C090E801C03C
S113233090E0890FE82FEF70F0E0EE0FFF1F282FD9
S1132340332727FD30952227330F221F3327E20F2F
S1132350F31FEE0FFF1FEE0FFF1FEE0FFF1FE45CD6
S1132360FA4D908195FF82C000E20693811179C0F5
S113237080912C25843019F46ADA22DA77C0C0916E
S11323803E25D0913F2580917B2590917C2500911D
S113239028251091292598012C0F3D1F821793079A
S11323A018F4EC01C01BD10B8091792590917A250A
S11323B0AE0168EE74E2800F911F0E943D210C0F64
S11323C01D1F0093282510932925C034D10569F4D5
S11323D080912A2590912B25800F911F209177259C
S11323E0309178258217930788F000937B2510930A
S11323F07C25E0917F25F0918025309729F009957F
S1132400811102C008DA32C014DA30C080917B2511
S113241090917C2508171907F9F4E0917F25F09134
S11324208025309711F4F7D921C00995811102C094
S1132430F2D91CC020912A2530912B258091282582
S113244090912925820F931F80932A2590932B2501
S11324501092282510922925ECE3F5E202E0069378
S113246005C0803811F4FBD901C016DBFF91EF9150
S1132470DF91CF91BF91AF919F918F917F916F9198
S11324805F914F913F912F911F910F910F900FBE2C
S11324900F901F901895CF93DF9300D000D0CDB745
S11324A0DEB78FEF80937000809371008093720089
S11324B080937300809374008093750080937600FA
S11324C06CE170E082E05BD08A836DE170E082E0D1
S11324D056D0898389819A81019621F480E493E21C
S11324E089839A8389819A818B839C83E0E6F0E0D7
S11324F082838C8183838FB7F894E0E5F0E0908148
S1132500926090838FBF818181FFFDCF61E080E481
S113251090E03FD08FB7F894E0E5F0E090819E7FA3
S113252090838FBF2496CDBFDEBFDF91CF910895F6
S11325309FB7F894E82FF0E0E059FF4F6095808151
S1132540682360839FBF0895863011F468E101C059
S113255060E0E0E5F0E0818181FD09C08FB7F89487
S11325609081926090838FBF818181FFFDCF6360F2
S113257084E490E00ED060E480E0DACF08954091E6
S1132580CA01E62FF72F8093CA0184914093CA01B0
S113259008951BBEFC0128ED24BF608308957BDFF2
S11325A043D2E0E4F6E088E0828394E09283A0E002
S11325B0B6E020E411962C93119730E811963C93E1
S11325C0A0E2B6E041E011964C93119742E01196D7
S11325D04C93A0E8B6E011964C93119712969C93F5
S11325E0129711968C93A0E6B6E012969C931297DC
S11325F011968C9380E1818380E2818331832283ED
S11326008FB7F894E6E5F6E0908197709083908117
S1132610906190838FBF089580E4E0E0F6E08583C5
S113262080E092EEA4E0B0E00197A109B10900971F
S1132630A105B105C9F780E8E0E0F6E0858380E014
S113264092EEA4E0B0E00197A109B1090097A105B9
S1132650B105C9F781E0E0E2F6E0858380E092EE1F
S1132660A4E0B0E00197A109B1090097A105B10563
S1132670C9F782E0E0E2F6E0858380E092EEA4E030
S1132680B0E00197A109B1090097A105B105C9F707
S113269080E4E0E0F6E0868380E092EEA4E0B0E03F
S11326A00197A109B1090097A105B105C9F780E80F
S11326B0E0E0F6E0868380E092EEA4E0B0E00197EB
S11326C0A109B1090097A105B105C9F781E0E0E2CC
S11326D0F6E0868380E092EEA4E0B0E00197A109E1
S11326E0B1090097A105B105C9F782E0E0E2F6E07F
S11326F0868380E092EEA4E0B0E00197A109B109DD
S11327000097A105B105C9F780E4E0E0F6E0858310
S113271080E094ECA9E0B0E00197A109B109009729
S1132720A105B105C9F780E8E0E0F6E0858380E023
S113273094ECA9E0B0E00197A109B1090097A105C3
S1132740B105C9F781E0E0E2F6E0858380E094EC2E
S1132750A9E0B0E00197A109B1090097A105B1056D
S1132760C9F782E0E0E2F6E0858380E094ECA9E03A
S1132770B0E00197A109B1090097A105B105C9F716
S113278080E4E0E0F6E0868380E094ECA9E0B0E049
S11327900197A109B1090097A105B105C9F780E81E
S11327A0E0E0F6E0868380E094ECA9E0B0E00197F5
S11327B0A109B1090097A105B105C9F781E0E0E2DB
S11327C0F6E0868380E094ECA9E0B0E00197A109EB
S11327D0B1090097A105B105C9F782E0E0E2F6E08E
S11327E0868380E094ECA9E0B0E00197A109B109E7
S11327F00097A105B105C9F780E4E0E0F6E0858320
S113280080E096EAAEE0B0E00197A109B109009733
S1132810A105B105C9F780E8E0E0F6E0858380E032
S113282096EAAEE0B0E00197A109B1090097A105CD
S1132830B105C9F781E0E0E2F6E0858380E096EA3D
S1132840AEE0B0E00197A109B1090097A105B10577
S1132850C9F782E0E0E2F6E0858380E096EAAEE044
S1132860B0E00197A109B1090097A105B105C9F725
S113287080E4E0E0F6E0868380E096EAAEE0B0E053
S11328800197A109B1090097A105B105C9F780E82D
S1132890E0E0F6E0868380E096EAAEE0B0E00197FF
S11328A0A109B1090097A105B105C9F781E0E0E2EA
S11328B0F6E0868380E096EAAEE0B0E00197A109F5
S11328C0B1090097A105B105C9F782E0E0E2F6E09D
S11328D0868380E096EAAEE0B0E00197A109B109F1
S11328E00097A105B105C9F780E4E0E0F6E085832F
S11328F080E098E8A3E1B0E00197A109B10900974D
S1132900A105B105C9F780E8E0E0F6E0858380E041
S113291098E8A3E1B0E00197A109B1090097A105E6
S1132920B105C9F781E0E0E2F6E0858380E098E84C
S1132930A3E1B0E00197A109B1090097A105B10590
S1132940C9F782E0E0E2F6E0858380E098E8A3E15D
S1132950B0E00197A109B1090097A105B105C9F734
S113296080E4E0E0F6E0868380E098E8A3E1B0E06C
S11329700197A109B1090097A105B105C9F780E83C
S1132980E0E0F6E0868380E098E8A3E1B0E0019718
S1132990A109B1090097A105B105C9F781E0E0E2F9
S11329A0F6E0868380E098E8A3E1B0E00197A1090E
S11329B0B1090097A105B105C9F782E0E0E2F6E0AC
S11329C0868380E098E8A3E1B0E00197A109B1090A
S11329D00097A105B105C9F70895CF93C82F8A3090
S11329E021F48DE090E00E9491048C2F992787FDBB
S11329F090950E94910480E090E0CF9108950F9308
S1132A001F93CF93DF938C010E94D0038823E1F3BB
S1132A100E941C04EC01B801E0DFCE019927DF918C
S1132A20CF911F910F91089587E0E0EAF0E082834F
S1132A3078940E947F0544D988E990E28093B22576
S1132A409093B3258093B0259093B1250895EF9288
S1132A50FF920F931F93CF93DF93CDB7DEB72797E2
S1132A60CDBFDEBF7C01FB0184818D8385818E8394
S1132A7086818F83408151816281738149835A8326
S1132A806B837C83870180EAE81688E0F80621F4EA
S1132A9060E183E04DDD12C080EBE81688E0F806C3
S1132AA021F460E283E044DD11C080EAE81689E0A5
S1132AB0F80621F460E184E03BDD0EC0003B89E0D0
S1132AC0180721F460E284E033DD06C0003A1A40BE
S1132AD019F460E185E02CDDBE016F5F7F4FC70113
S1132AE00E94D50A2796CDBFDEBFDF91CF911F91FB
S1132AF00F91FF90EF900895CF92DF92EF92FF92A3
S1132B000F931F9384E18093B42080EC98E00E949B
S1132B102301C12CD12C760100E412E42FE030E033
S1132B2040E064EB70E280EC98E00E943C01E0EC51
S1132B30F8E08081806480831F910F91FF90EF9073
S1132B40DF90CF900895FA01F695E795F695E7950D
S1132B50F695E795E617F707F8F4E80FF91F4770BD
S1132B60222369F081E090E09C0102C0220F331F10
S1132B704A95E2F7A9018081482B4083089581E0BA
S1132B8090E09C0102C0220F331F4A95E2F7A9018D
S1132B9040958081482340830895DF92EF92FF920D
S1132BA00F931F93CF93DF9300D01F92CDB7DEB75F
S1132BB07A0189016F3F710521F48983DD24D3945F
S1132BC017C0806489836038710528F46A83689427
S1132BD0DD24D1F80DC0862F80688A83660F672FA5
S1132BE0661F770B71956B830F2EF3E0DF2EF02DAC
S1132BF064EB70E280EC98E00E947D014D2D50E082
S1132C00BE016F5F7F4F80EC98E00E945B01A801DA
S1132C10B70180EC98E00E946A0164EB70E280ECFA
S1132C2098E00E9493012396CDBFDEBFDF91CF9140
S1132C301F910F91FF90EF90DF900895DF92EF9234
S1132C40FF920F931F93CF93DF9300D01F92CDB7C2
S1132C50DEB77A0189016F3F710529F480688983A1
S1132C60DD24D39417C0806C89836038710528F4FF
S1132C706A836894DD24D1F80DC0862F80688A8326
S1132C80660F672F661F770B71956B830F2EF3E02A
S1132C90DF2EF02D64EB70E280EC98E00E947D0161
S1132CA04D2D50E0BE016F5F7F4F80EC98E00E9495
S1132CB05B01A801B70180EC98E00E945B0164EB22
S1132CC070E280EC98E00E9493012396CDBFDEBFB2
S1132CD0DF91CF911F910F91FF90EF90DF900895B6
S1132CE0CF93DF931F92CDB7DEB7498321E030E065
S1132CF0AE014F5F5F4FA2DF0F90DF91CF91089538
S1132D000F931F9321153105A1F0DC01820F931F4E
S1132D10E0E0F0E08A019B010E2E04C03595279572
S1132D20179507950A94D2F70D933896A817B90703
S1132D3089F71F910F91089510928B2510928C257D
S1132D4010928D2510928E2521E046E050E064E03B
S1132D5070E08BE895E2F7DE1092AF2524E030E0D6
S1132D604BE855E26FEF70E08DE068CF08950F9364
S1132D701F93CF93DF9300D0CDB7DEB78B01898348
S1132D809A8322E030E0AE014F5F5F4F64E070E071
S1132D908DE254DF43E066E070E08DE2A1DF41E0C4
S1132DA066E070E08DE29CDF24E030E0A8016AE098
S1132DB070E08DE2F2DE40E066E070E08DE290DFEC
S1132DC00F900F90DF91CF911F910F91089524E000
S1132DD030E047E855E26FEF70E084E0DECE08951E
S1132DE024E030E047E855E26FEF70E084E026CF5E
S1132DF0089524E030E04BEA55E26FEF70E083E0A1
S1132E00CCCE089524E030E04BEA55E26FEF70E059
S1132E1083E014CF089524E030E049E955E26FEFF0
S1132E2070E08EE0BACE089524E030E049E955E23E
S1132E306FEF70E08EE002CF089524E030E04DE9BA
S1132E4055E26FEF70E08FE1A8CE089524E030E002
S1132E504DE955E26FEF70E08FE1F0CE089525E083
S1132E6030E044E955E26FEF70E088E096CE0895D3
S1132E7025E030E044E955E26FEF70E088E0DECE13
S1132E800895282F4DE150E064E070E087E895E272
S1132E905ACE0895882311F083E001C080E0809326
S1132EA0A225E9E8F5E290819C7F892B808308952F
S1132EB08093A12521E0811120E042E150E064E00B
S1132EC070E087E895E23FCE0895282F40E050E077
S1132ED064E070E087E895E236CE0895282F47E055
S1132EE050E064E070E089E995E22DCE0895CF9337
S1132EF0C82F282F4DE050E064E070E089E995E2A6
S1132F0022DE2C2F4EE050E064E070E089E995E287
S1132F101ADECF910895CF93C82F282F42E150E0B5
S1132F2065E070E089E995E20EDE2C2F4FE050E079
S1132F3065E070E089E995E206DE2C2F4CE050E074
S1132F4065E070E089E995E2FEDD2C2F40E150E078
S1132F5065E070E089E995E2F6DDCF910895282FC8
S1132F604AE050E064E070E089E995E2ECCD089530
S1132F70282F43E050E064E070E089E995E2E3CD76
S1132F8008951F93CF93DF931F92CDB7DEB7182F09
S1132F901370E5E9F5E280E2189F90011124808125
S1132FA08378282B2083111121C021E046E150E0D1
S1132FB064E070E087E895E2C6DD21E041E150E09D
S1132FC064E070E08DE995E2BEDD21E044E150E08B
S1132FD064E070E08DE995E2B6DD21E045E150E082
S1132FE064E070E08DE995E2AEDD42C021E046E1A7
S1132FF050E064E070E087E895E2A5DD1230D9F492
S113300020E041E150E064E070E08DE995E29BDD71
S113301020E044E150E064E070E08DE995E293DD66
S113302020E045E150E064E070E08DE995E28BDD5D
S113303088E089831FC021E041E150E064E070E052
S11330408DE995E280DD21E044E150E064E070E048
S11330508DE995E278DD21E045E150E064E070E03F
S11330608DE995E270DD113019F480E1898302C0A5
S113307080E4898321E030E0AE014F5F5F4F60E080
S113308070E081E2DBDD1093A7250F90DF91CF91F3
S11330901F9108958370E6E9F5E290819C7F982B57
S11330A09083EFE9F5E2282F220F220F9081937F7E
S11330B0922B90838093A6250895982F9F70E6E91C
S11330C0F5E2392F330F330F2081237C232B208308
S11330D08B70813021F488E08093A8250FC089305B
S11330E021F480E18093A82509C0923021F480E284
S11330F08093A82503C080E48093A8259093A525F8
S113310008958F71282F30E0EFE9F5E2A90100243A
S1133110569547950794569547950794542F402DF7
S113312090819F73492B4083220F331F220F331F3B
S1133130220F331F982F96959695292B2093A0251F
S11331408093A3250895CF93DF93EC01888119DF41
S11331508981A0DF8A81B1DF85E580939D2585E0A3
S11331608093A4258981813019F484E0CADF02C0E8
S11331708AE0C7DFDF91CF910895CF93DF93CDB776
S1133180DEB7AD97CDBFDEBF8091A625813051F467
S113319022E030E040E758E860E070E0CE010196BC
S11331A0AFDD0BC0823049F422E030E04BE958E84F
S11331B060E070E0CE010196A3DD24E030E047E05A
S11331C059EA62E075E2CE0103969ADD22E030E02E
S11331D045E350E060E070E0CE01079691DD809118
S11331E0A72581110AC022E030E046E150E060E00A
S11331F070E0CE01099684DD17C0813051F422E0DD
S113320030E046E050E060E070E0CE01099678DD01
S11332100BC0823049F422E030E041E050E060E04D
S113322070E0CE0109966CDD8091A625813051F4C1
S113323022E030E047E850E060E070E0CE010B9619
S11332405FDD0BC0823049F422E030E04DE850E00D
S113325060E070E0CE010B9653DD8091A5258630A9
S113326021F08A3011F0833071F48091A725811107
S113327028C022E030E044E650E060E070E0CE0197
S11332800D963EDD1EC0813079F08091A7258150D6
S11332908230B8F422E030E040E250E060E070E0D8
S11332A0CE010D962DDD0DC08091A725823049F405
S11332B022E030E040E150E060E070E0CE010D96A5
S11332C01FDD8091A8258830D9F48091A62581300E
S11332D051F424E030E04DE250E06AE171E3CE01C4
S11332E00F960EDD61C0823009F05EC024E030E04C
S11332F04BE650E06BE371E3CE010F9601DD54C061
S11333008031D9F48091A625813051F424E030E055
S113331042E550E06AE173E3CE010F96F1DC44C06C
S1133320823009F041C024E030E04EEB50E06BE322
S113333073E3CE010F96E4DC37C08032D1F4809180
S1133340A625813051F424E030E04AE950E06AE1F6
S113335075E3CE010F96D4DC27C0823029F524E032
S113336030E04EE551E06BE375E3CE010F96C8DC27
S11333701BC08034C9F48091A625813051F424E027
S113338030E04DE151E06AE177E3CE010F96B8DC1D
S11333900BC0823049F424E030E046E952E06BE3AC
S11333A077E3CE010F96ACDC8091A525813051F4F2
S11333B022E030E040E150E060E070E0CE0143966E
S11333C09FDC09C022E030E048E250E060E070E0B9
S11333D0CE01439695DC8091A425843061F087303A
S11333E051F021E030E048ED50E060E070E0CE01C3
S11333F04E9686DC09C021E030E04CEB50E060E002
S113340070E0CE014E967CDC8091A425813051F48D
S113341024E030E040E45CE560E070E0CE014F96EB
S11334206FDC3CC0823051F424E030E040EA5CE5DB
S113343064E070E0CE014F9663DC30C0833051F419
S113344024E030E040EC5CE668E070E0CE014F96AA
S113345057DC24C0843051F424E030E040E85CE5DB
S113346064E070E0CE014F964BDC18C0853051F417
S113347024E030E040EE5FE36EE170E0CE014F9671
S11334803FDC0CC0873009F0ABC024E030E040EEF4
S11334905DE76EE170E0CE014F9632DC8091A425A9
S11334A0813051F421E030E049EC50E060E070E01C
S11334B0CE01839625DC3CC0823051F421E030E01B
S11334C042EC50E060E070E0CE01839619DC30C03D
S11334D0833051F421E030E045EC50E060E070E0EE
S11334E0CE0183960DDC24C0843051F421E030E019
S11334F045E950E060E070E0CE01839601DC18C03D
S1133500853051F421E030E040EC50E060E070E0C0
S1133510CE018396F5DB0CC0873009F061C021E051
S113352030E043E950E060E070E0CE018396E8DBF0
S11335308091A425813099F424E030E047E054E000
S113354060E079E0CE018496DBDB21E030E04EE1FF
S113355050E060E070E0CE018896D2DB41C082305A
S113356011F0843099F424E030E048E055E060E460
S113357078E0CE018496C4DB21E030E046E250E0FE
S113358060E070E0CE018896BBDB2AC0833099F4FA
S113359024E030E049E050E160E478E0CE01849634
S11335A0AFDB21E030E04EE550E060E070E0CE01BA
S11335B08896A6DB15C08D7F853091F424E030E039
S11335C04DE154E060E078E0CE01849699DB21E09F
S11335D030E04EEB50E060E070E0CE01889690DB86
S11335E021E030E04DE050E060E070E0CE0145962F
S11335F087DB8091A625813051F422E030E047E05A
S113360056E160E070E0CE0146967ADB0BC0823072
S113361049F422E030E047E056E060E070E0CE019B
S113362046966EDB8091A3259FEF980F9230C0F4ED
S11336308091A72581110AC022E030E043E35BE0DA
S113364060E070E0CE0148965BDB2DC122E030E003
S113365048E959E560E070E0CE01489651DB23C1AA
S1133660833011F08830C1F48091A72581110AC0FC
S113367022E030E04DE35AE060E070E0CE0148968D
S11336803FDB11C122E030E04AEE51E560E070E03A
S1133690CE01489635DB07C18430C1F48091A7255B
S11336A081110AC022E030E041E558E060E070E0BA
S11336B0CE01489625DBF7C022E030E04EE852E424
S11336C060E070E0CE0148961BDBEDC08530C1F4AC
S11336D08091A72581110AC022E030E043EA58E036
S11336E060E070E0CE0148960BDBDDC022E030E004
S11336F04EE155E460E070E0CE01489601DBD3C0B2
S11337008630C1F48091A72581110AC022E030E0FF
S113371042EC55E060E070E0CE014896F1DAC3C0B7
S113372022E030E044E15EE260E070E0CE014896E1
S1133730E7DAB9C08730C1F48091A72581110AC0A6
S113374022E030E040E050E160E070E0CE014896D5
S1133750D7DAA9C022E030E040E050E860E070E051
S1133760CE014896CDDA9FC08930C1F48091A72557
S113377081110AC022E030E04EE155E060E070E0E3
S1133780CE014896BDDA8FC022E030E044EF58E223
S113379060E070E0CE014896B3DA85C08A3011F05B
S11337A08131C1F48091A72581110AC022E030E063
S11337B046E656E060E070E0CE014896A1DA73C0B8
S11337C022E030E042E353E360E070E0CE0148964B
S11337D097DA69C08B30C1F48091A72581110AC0A2
S11337E022E030E04CE557E060E070E0CE0148961E
S11337F087DA59C022E030E040EE5AE360E070E03E
S1133800CE0148967DDA4FC08C30C1F48091A72553
S113381081110AC022E030E04EEA57E060E070E037
S1133820CE0148966DDA3FC022E030E040E75DE328
S113383060E070E0CE01489663DA35C09EEE980FE2
S11338409230C0F48091A72581110AC022E030E0B3
S113385048EB56E060E070E0CE01489651DA23C0B0
S113386022E030E042EC55E360E070E0CE0148969F
S113387047DA19C08431B9F48091A72581110AC0AF
S113388022E030E045EF58E060E070E0CE01489679
S113389037DA09C022E030E04EEA57E460E070E035
S11338A0CE0148962DDA8091A4259FEF980F92308F
S11338B0A8F58091A6258130B9F48091A1258823AB
S11338C051F024E030E045E755E565E375E1CE01CC
S11338D04A9616DAFDC024E030E045E755E7BA0120
S11338E0CE014A960DDAF4C0823009F0F1C080911D
S11338F0A125882351F024E030E047E657E467E24D
S113390077E0CE014A96FCD9E3C024E030E047E6F4
S113391057E6BA01CE014A96F3D9DAC08330A9F545
S11339208091A6258130B9F48091A125882351F096
S113393024E030E04FE65FE46FE27FE0CE014A9698
S1133940DFD9C6C024E030E04FE65FE6BA01CE011D
S11339504A96D6D9BDC0823009F0BAC08091A1255B
S1133960882351F024E030E04BE85BE66BE47BE233
S1133970CE014A96C5D9ACC024E030E04BE85BE800
S1133980BA01CE014A96BCD9A3C08430A9F580916E
S1133990A6258130B9F48091A125882351F024E033
S11339A030E04FE55FE36FE17FE1CE014A96A8D9AD
S11339B08FC024E030E04FE55FE5BA01CE014A96BE
S11339C09FD986C0823009F083C08091A1258823C5
S11339D051F024E030E04AE95AE76AE57AE3CE019F
S11339E04A968ED975C024E030E04AE95AE9BA0112
S11339F0CE014A9685D96CC08530A9F58091A6255B
S1133A008130B9F48091A125882351F024E030E07D
S1133A1048E458E268E07EE0CE014A9671D958C085
S1133A2024E030E048E458E4BA01CE014A9668D96B
S1133A304FC0823009F04CC08091A125882351F0F9
S1133A4024E030E045E855E665E475E2CE014A96A7
S1133A5057D93EC024E030E045E855E8BA01CE012C
S1133A604A964ED935C0873099F58091A625813084
S1133A70B9F48091A125882351F024E030E042E993
S1133A8052E762E572E3CE014A963AD921C024E0B6
S1133A9030E042E952E9BA01CE014A9631D918C060
S1133AA08230B1F48091A125882351F024E030E0E4
S1133AB041ED51EB61E771E5CE014A9621D908C089
S1133AC024E030E041ED51EDBA01CE014A9618D917
S1133AD0BE01665D7F4F8EE190E049D98AA58111D0
S1133AE00AC021E030E040E750E060E070E0CE0141
S1133AF0899606D90BC0482F4F71406650E060E0AC
S1133B0070E021E030E0CE018996FAD822E030E07E
S1133B10AE014F5F5F4F64E070E083E28FD824E032
S1133B2030E0AE014D5F5F4F6CE070E083E286D819
S1133B3022E030E0AE01495F5F4F62E170E083E272
S1133B407DD822E030E0AE01475F5F4F62E070E075
S1133B5087E274D822E030E0AE01455F5F4F64E055
S1133B6070E087E26BD822E030E0AE01435F5F4F44
S1133B7066E070E087E262D824E030E0AE01415FA5
S1133B805F4F68E070E087E259D822E030E0AE0190
S1133B904D5E5F4F66E270E087E250D821E030E08E
S1133BA0AE014B5E5F4F66E078E08EE247D822E0DC
S1133BB030E0AE014A5E5F4F66E078E18EE23ED8C7
S1133BC022E030E0AE01485E5F4F64E078E28EE2CE
S1133BD035D824E030E0AE01465E5F4F6FEF70E011
S1133BE08EE12CD821E030E0AE01425E5F4F6BE005
S1133BF070E088E223D824E030E0AE01415E5F4FFC
S1133C006CE070E088E21AD821E030E0AE014D5D4E
S1133C105F4F6BE070E08AE211D821E030E0AE0142
S1133C20485D5F4F6BE070E08BE208D824E030E041
S1133C30AE014C5D5F4F67E070E08BE20E941E16A0
S1133C4021E030E0AE01475D5F4F6EE070E08BE253
S1133C500E941E16AD96CDBFDEBFDF91CF910895B1
S1133C606BD8C7D8B4D8E9D8FAD8D5C80895CF93B3
S1133C70DF93CDB7DEB72597CDBFDEBFC3D8B0D8AD
S1133C80E5D8F6D8D1D879DA25E030E040E050E440
S1133C9060E070E0CE01019633D822E030E0AE015E
S1133CA04F5F5F4F6FEF70E088E10E941E1622E0C5
S1133CB030E0AE014F5F5F4F64E078E18EE20E9436
S1133CC01E162596CDBFDEBFDF91CF91089580915A
S1133CD0AF25811117C0DED880E0EAD881E0809357
S1133CE0AA2580E0F2D881E0F9D881E000D981E00A
S1133CF012D980E034D981E03BD981E0C2D885EB88
S1133D0090E221CA089521E044E050E065E070E0CB
S1133D108FE895E20E94A31521E045E050E065E0BC
S1133D2070E08FE895E20E94A31521E046E050E0A0
S1133D3065E070E08FE895E20E94A31521E047E07A
S1133D4050E065E070E08FE895E20E94A31525E05D
S1133D5030E04FE855E26FEF70E08FE00C941E16F0
S1133D6008950E949C1610928B2510928C25109217
S1133D708D2510928E25C7DF82E08093AF250895AC
S1133D8021E08091AA25811120E040E050E064E028
S1133D9070E08BE895E20E94A31521E048E050E032
S1133DA064E070E08BE895E20E94A31524E030E023
S1133DB04BE855E26FEF70E08DE00C941E16089509
S1133DC057D821E08091AA25811120E040E050E0FD
S1133DD064E070E08BE895E20E94A31521E041E0E5
S1133DE050E064E070E08BE895E20E94A31524E0C3
S1133DF030E04BE855E26FEF70E08DE00E941E1654
S1133E008091A925882369F010928B2510928C2526
S1133E1010928D2510928E2581E08093AF25B0CF2E
S1133E2008951092AF250895CF93DF93EB0120916D
S1133E30AA2521112296C11524E0D207C0F4C03866
S1133E40D10520F02091A225222389F09E01AC0106
S1133E506FEF70E089E00E941E16C0939425E5E997
S1133E60F5E29D2F93708081807E892B8083DF9182
S1133E70CF9108950F931F93CF93DF9300D000D079
S1133E80CDB7DEB7182F092F24E030E0AE014F5F25
S1133E905F4F6FEF70E080E00E94CD152981822F83
S1133EA08F701F928F9322952F701F922F938A8168
S1133EB01F928F932C8130E0322F22278B81282B65
S1133EC03F932F9325E831E23F932F930F931F9352
S1133ED01BD2CDBFDEBF2496CDBFDEBFDF91CF9115
S1133EE01F910F9108950F931F93CF93DF93CDB735
S1133EF0DEB72897CDBFDEBF182F092F28E030E0AA
S1133F00AE014F5F5F4F6FEF70E081E00E94CD150F
S1133F1089811F928F938A811F928F938B811F9225
S1133F208F938C811F928F938D811F928F938E819B
S1133F301F928F938F811F928F9388851F928F93E7
S1133F4021EB31E23F932F930F931F93DDD1CDBF2C
S1133F50DEBF2896CDBFDEBFDF91CF911F910F91B9
S1133F6008950F931F93CF93DF9300D000D0CDB764
S1133F70DEB7182F092F24E030E0AE014F5F5F4F0A
S1133F806FEF70E083E00E94CD152A8130E0322F7C
S1133F9022278981282B3F932F932C8130E0322FC5
S1133FA022278B81282B3F932F9329ED31E23F93D6
S1133FB02F930F931F93A8D1CDBFDEBF2496CDBFFF
S1133FC0DEBFDF91CF911F910F9108952091A62517
S1133FD0213021F0223021F450E403C050E101C02B
S1133FE050E02091A525213089F0253091F0293029
S1133FF099F02D30A1F02230A9F02630B1F02A300A
S1134000B9F02330C1F460E070E117C060E470E0FF
S113401014C060E870E011C060E071E00EC060E0C0
S113402072E00BC060E074E008C060E076E005C0B8
S113403060E078E002C060E070E02091A7252223D0
S113404039F0213041F0223049F430E94AE108C026
S11340503EE640E005C032E543E002C030E040E027
S11340602091A4251F922F932091A3251F922F9373
S11340707F936F931F925F934F933F9328EF31E2A7
S11340803F932F939F938F933FD18DB79EB70E96F7
S11340908DBF9EBF0895CF93DF93CDB7DEB7C854CD
S11340A0D140CDBFDEBF0E94CF120E947C156DEAC5
S11340B070E280EA99E00E94271566EA70E280EADD
S11340C09AE00E9427150E940C1387E492E2EFD035
S11340D08AE692E2ECD0C4DDFADD85E08093AB257C
S11340E01092AC258AE08093AD251092AE2585EB25
S11340F090E229D8BCDD81E892E2D9D08E010F5F2D
S11341001F4FC801B7DE8DE992E29F938F93BED013
S11341101F930F93BBD0C801E6DE89EA92E29F9316
S11341208F93B4D01F930F93B1D0C8011ADF85EBDE
S113413092E29F938F93AAD01F930F93A7D0C801A5
S113414045DF83ED92E29F938F93A0D01F930F934B
S11341509DD0CDBFDEBF0F2EF1EEEF2EF2E2FF2E8B
S1134160F02D0BEF12E20F2EF5E16F2EF02D0F2E36
S1134170F3EB7F2EF02D0F2EF1E8CF2ED12CF02D66
S1134180CC0EDD1E95E1C90ED11C812C0F2EF9E059
S11341909F2EF02D0F2EFDE3AF2EF02DB12CFF92AC
S11341A0EF9274D01F921F921F930F936FD0D9DD9B
S11341B08EDDE8EBF0E2DE01AF57BF4F862D0190B4
S11341C00D928A95E1F7F601872D11928A95E9F708
S11341D064E170E0CE018F579F4F26DEF1DD0F9032
S11341E00F900F900F900F900F90882D992DAA2D5E
S11341F0BB2D0197A109B1090097A105B105C9F724
S1134200CECFAA1BBB1B51E107C0AA1FBB1FA61719
S1134210B70710F0A61BB70B881F991F5A95A9F76B
S113422080959095BC01CD010895A1E21A2EAA1B98
S1134230BB1BFD010DC0AA1FBB1FEE1FFF1FA21752
S1134240B307E407F50720F0A21BB30BE40BF50B4F
S1134250661F771F881F991F1A9469F760957095D8
S1134260809590959B01AC01BD01CF010895EE0F9F
S1134270FF1F0590F491E02D0994FB01DC0102C0BD
S113428001900D9241505040D8F70895A0E0B0E05D
S1134290EBE4F1E2D1C2FE01359661917191AF0177
S11342A08091B2259091B3254ED0E2E0DEC20F9307
S11342B01F93CF93DF93E091B225F091B32523812F
S11342C021FF1BC0EC0100E010E089916091B22550
S11342D07091B325DB011896ED91FC911997882311
S11342E031F00995892B89F30FEF1FEFEECF8AE0A8
S11342F00995892B11F4C80102C08FEF9FEFDF915C
S1134300CF911F910F910895AEE0B0E0E9E8F1E29A
S113431091C20D891E8986E08C8309831A838FEFED
S11343209FE78D839E83AE01475E5F4F6F89788DD3
S1134330CE01019608D0EF81F885E00FF11F1082BD
S11343402E96E4E090C2ACE0B0E0E8EAF1E264C2A8
S11343507C016B018A01FC0116821782838181FF33
S1134360B0C1CE0101964C01F7019381F60193FD92
S1134370859193FF81916F01882309F49EC1853251
S113438039F493FD859193FF81916F01853221F476
S1134390B70190E0B1D1E8CF512C312C20E020328C
S11343A0A0F48B3269F030F4803259F0833269F42E
S11343B020612CC08D3239F0803339F4216026C05D
S11343C02260246023C0286021C027FD27C030ED6F
S11343D0380F3A3078F426FF06C0FAE05F9E300DBD
S11343E01124532E13C08AE0389E300D1124332E2D
S11343F020620CC08E3221F426FD5FC1206406C009
S11344008C3611F4206802C0883641F4F60193FD1D
S1134410859193FF81916F018111C1CF982F9F7D69
S11344209554933028F40C5F1F4FFFE3F9830DC0BC
S1134430833631F0833771F0833509F057C021C0DA
S1134440F801808189830E5F1F4F44244394512CCB
S1134450540114C03801F2E06F0E711CF801A08001
S1134460B18026FF03C0652D70E002C06FEF7FEFBF
S1134470C5012C8736D12C0183012C852F77222E60
S113448016C03801F2E06F0E711CF801A080B180F3
S113449026FF03C0652D70E002C06FEF7FEFC501FA
S11344A02C8714D12C012C852068222E830123FC17
S11344B019C0832D90E048165906A0F4B70180E294
S11344C090E01AD13A94F5CFF50127FC859127FEA7
S11344D081915F01B70190E00FD131103A94F1E07E
S11344E04F1A51084114510479F7DEC0843611F093
S11344F0893631F5F80127FF07C060817181828117
S113450093810C5F1F4F08C060817181882777FDFC
S11345108095982F0E5F1F4F2F76B22E97FF09C0FC
S113452090958095709561957F4F8F4F9F4F206830
S1134530B22E2AE030E0A40111D1A82EA81843C05D
S1134540853729F42F7EB22E2AE030E025C0F22FE1
S1134550F97FBF2E8F36C1F018F4883579F0ADC0DD
S1134560803719F0883721F0A8C02F2F2061B22E90
S1134570B4FE0DC08B2D8460B82E09C024FF0AC080
S11345809F2F9660B92E06C028E030E005C020E1D8
S113459030E002C020E132E0F801B7FE07C06081DC
S11345A07181828193810C5F1F4F06C0608171818C
S11345B080E090E00E5F1F4FA401D0D0A82EA81871
S11345C0FB2DFF77BF2EB6FE0BC02B2D2E7FA5141F
S11345D050F4B4FE0AC0B2FC08C02B2D2E7E05C0D8
S11345E07A2C2B2D03C07A2C01C0752C24FF0DC00E
S11345F0FE01EA0DF11D8081803311F4297E09C08A
S113460022FF06C07394739404C0822F867809F045
S1134610739423FD12C020FF06C05A2C731418F49F
S1134620530C5718732C731460F4B70180E290E0B4
S11346302C8762D073942C85F6CF731410F437183A
S113464001C0312C24FF11C0B70180E390E02C8716
S113465053D02C8522FF16C021FF03C088E590E0CB
S113466002C088E790E0B7010CC0822F867851F031
S113467021FD02C080E201C08BE227FD8DE2B7017B
S113468090E03AD0A51430F4B70180E390E034D040
S11346905A94F8CFAA94F401EA0DF11D8081B70170
S11346A090E02AD0A110F6CF332009F45DCEB701F3
S11346B080E290E021D03A94F7CFF7018681978188
S11346C002C08FEF9FEF2C96E2E1BFC0FC01059082
S11346D0615070400110D8F7809590958E0F9F1F00
S11346E00895FC016150704001900110D8F7809545
S11346F090958E0F9F1F08950F931F93CF93DF9371
S1134700182F092FEB018B8181FD03C08FEF9FEFE1
S113471020C082FF10C04E815F812C813D814217F1
S113472053077CF4E881F9819F012F5F3F4F288371
S11347303983108306C0E885F985812F0995892B73
S113474029F72E813F812F5F3F4F2E833F83812F97
S1134750902FDF91CF911F910F910895FA01AA270D
S1134760283051F1203181F1E8946F936E7F6E5FB0
S11347707F4F8F4F9F4FAF4FB1E03ED0B4E03CD05E
S1134780670F781F891F9A1FA11D680F791F8A1F41
S1134790911DA11D6A0F711D811D911DA11D20D0A8
S11347A009F468943F912AE0269F11243019305D62
S11347B03193DEF6CF010895462F4770405D419353
S11347C0B3E00FD0C9F7F6CF462F4F70405D4A33A0
S11347D018F0495D31FD4052419302D0A9F7EACF68
S11347E0B4E0A6959795879577956795BA95C9F797
S11347F000976105710508959B01AC010A2E06948A
S11348005795479537952795BA95C9F7620F731F42
S1134810841F951FA01D08952F923F924F925F927F
S11348206F927F928F929F92AF92BF92CF92DF92BC
S1134830EF92FF920F931F93CF93DF93CDB7DEB721
S1134840CA1BDB0BCDBFDEBF09942A883988488890
S11348505F846E847D848C849B84AA84B984C88498
S1134860DF80EE80FD800C811B81AA81B981CE0F8F
S1114870D11DCDBFDEBFED010895F894FFCF3A
S113487E6D03E701F101F3010903A901E101F5015A
S113488EF30100000003000000000000000000001F
S113489E00004F6E65506F7300416772756D0000B6
S11348AE0403090486203A20000042203E200A20F8
S11348BE002009024300020100C032090400000175
S11348CE020201000524001001042402020524063C
S11348DE00010524010301070582034000100904A9
S11348EE0100020A000000070581024000000705CE
S11348FE0202400000001201000202000040EB031D
S113490E0424000101020301000000030000000062
S113491EED14FF14000000C2010003000000C201E8
S113492E000300001400010A48656C6C6F204457A4
S113493E313030302C20697427732023000000009E
S113494E0000000000000000000000000000000055
S113495E0000000000000000000000000000000045
S113496E0000000000000000000000000000000035
S113497E0000000000000000000000000000000025
S113498E0000000000000000000000000000000015
S113499E0000000000000000000000000000000005
S11349AE00000000000000000000000000000000F5
S11349BE00000000000000000000000000000000E5
S11349CE00000000000000000000000000000000D5
S11349DE00000000000000000000000000000000C5
S11349EE00000000000000000000000000000000B5
S11349FE313245460025303258202D206D6F6465C6
S1134A0E6C3A2025642C2076657273696F6E3A2099
S1134A1E25642C207265766973696F6E3A2025645D
S1134A2E00253032583A253032583A253032583A29
S1134A3E253032583A253032583A253032583A25F4
S1134A4E3032583A253032580050414E3A202530F3
S1134A5E32582C2053686F727420416464726573EB
S1134A6E733A2025303258004461746120726174A7
S1134A7E653A202575206B622F732C205052463ACE
S1134A8E202575204D487A2C20507265616D626C1C
S1134A9E653A2025752073796D626F6C73202863D7
S1134AAE6F646520232575292C204368616E6E651D
S1134ABE6C3A2023257500232323204457313030AC
S1134ACE302D61726475696E6F2D73656E646572D7
S1134ADE2D746573742023232300445731303030F2
S1134AEE20696E697469616C697A6564202E2E2E54
S1134AFE00436F6D6D697474656420636F6E6669CF
S1134B0E6775726174696F6E202E2E2E0044657661
S1134B1E6963652049443A2000556E6971756520B4
S1134B2E49443A20004E6574776F726B20494420D5
S1134B3E26204465766963652041646472657373E7
S1134B4E3A2000446576696365206D6F64653A208A
S1134B5E005472616E736D697474696E672070614E
S1134B6E636B6574202E2E2E20230025640A00000C
S9030000FC
