S00E00004F6E65506F732E73726563C2
S113000019C1000034C1000032C1000030C1000039
S11300102EC100002CC100002AC1000028C100002C
S113002026C1000024C1000022C1000020C100003C
S11300301EC100000C949A091AC1000018C10000E6
S113004016C1000014C1000012C1000010C100005C
S11300500EC100000CC100000AC1000008C100006C
S113006006C1000004C1000002C1000000C100007C
S1130070FEC00000FCC00000FAC00000F8C0000090
S1130080F6C00000F4C00000F2C00000F0C00000A0
S1130090EEC00000ECC00000EAC00000E8C00000B0
S11300A0E6C00000E4C00000E2C00000E0C00000C0
S11300B0DEC00000DCC000000C94BD09D8C0000004
S11300C0D6C00000D4C00000D2C00000D0C00000E0
S11300D0CEC00000CCC00000CAC00000C8C00000F0
S11300E0C6C00000C4C00000C2C00000C0C0000000
S11300F0BEC00000BCC00000BAC00000B8C0000010
S1130100B6C00000B4C00000B2C00000B0C000001F
S1130110AEC00000ACC00000AAC00000A8C000002F
S1130120A6C00000A4C00000A2C00000A0C000003F
S11301309EC000009CC000009AC0000098C000004F
S113014096C0000094C0000092C0000090C000005F
S11301508EC000008CC000008AC0000088C000006F
S113016086C0000084C0000082C0000080C000007F
S11301707EC000007CC000007AC0000078C000008F
S113018076C0000074C0000072C0000070C000009F
S11301906EC000006CC000006AC0000068C00000AF
S11301A066C0000064C0000062C0000060C00000BF
S11301B05EC000005CC000005AC0000058C00000CF
S11301C056C0000054C0000052C0000050C00000DF
S11301D04EC000004CC000004AC0000048C00000EF
S11301E046C0000044C0000042C0000040C00000FF
S11301F03EC000000C94C0100C947611D40CC20CB8
S1130200C50CC80CCB0CCE0CD10C961891189B18AD
S1130210C018C018C018C018A018A818C018C01852
S1130220AF18B318B718BC186364696E6F70737530
S113023078585B0011241FBECFEFCDBFDFE2DEBFD5
S113024016E2A0E0B0E2E4E5FDE502C005900D92FF
S1130250AC39B107D9F729E2ACE9B6E201C01D9285
S1130260AF3AB207E1F70E94F5240C94A82EC8CE49
S1130270CF93DF93EC01C03C28E0D20729F468E077
S113028083E00E94AD1207C0803C994021F468E0ED
S113029084E00E94AD12888180618883DF91CF91D0
S11302A00895FF920F931F93CF93DF93EC01F42EE5
S11302B0B901A80100E01CE62CED32E056D78823F2
S11302C04CF088819F2D990F990F9C70837FF92E94
S11302D0F82AF882DF91CF911F910F91FF90089532
S11302E0FC01DB01460F571F05C08D91838382817A
S11302F08823ECF7A417B507C1F780E00895FC0143
S1130300DB014115510561F0460F571F9FEF9383A1
S113031082818823ECF783818D93A417B507B9F7FD
S113032080E00895FB018081E82FE695E695E69547
S113033040E2E49FF0011124FA5F877021E030E08D
S1130340A90102C0440F551F8A95E2F74683089518
S1130350FB018081E82FE695E695E69540E2E49F6F
S1130360F0011124FA5F877021E030E0A90102C096
S1130370440F551F8A95E2F7458308951092B227DA
S11303801092BE271092BF2781EA8093B42780E29F
S11303908093B5271092B6271092B7271092B827EA
S11303A01092B92782E090E08093BA279093BB27FC
S11303B01092BC271092BD2780E092ECA1E0B0E03F
S11303C08093C0279093C127A093C227B093C327DB
S11303D01092C4271092C52788E08093C627809185
S11303E0B2278F5F8093B22781E008958091B2276E
S11303F081508093B22708958091B12781508093D2
S1130400B1278091B1271092B027089580E0089514
S113041080E0089580916E298823DCF48076803210
S1130420E9F580916F298132D9F5809174299091F1
S113043075290797B9F580EC97E280937629909314
S1130440772987E090E0809378299093792981E057
S113045008958076803241F580916F29803221F0B1
S1130460823221F581E00895809174299091752953
S11304700797F1F48AE592E080937A2990937B2997
S113048080EC97E2809376299093772987E090E037
S1130490809378299093792981E0089580E00895E4
S11304A080E0089580E0089580E0089580E0089554
S11304B080E008950895FF920F931F93CF93DF93E5
S11304C080919F2681119CC00E94020F882351F0C5
S11304D0C091A026D091A1260E940F0FC817D9075A
S11304E059F48EC0C091A026D091A1260E940A0F73
S11304F0C817D90709F484C0DFB7F894C091A226BD
S1130500EC2FF0E0EE0FFF1FED55F94D8081918146
S1130510892B09F580919C2690919D2601968093C4
S11305209C2690939D260E94020F811107C0809102
S11305309C2690919D268436910558F00E94020FC6
S1130540882349F080919C2690919D268032934087
S113055010F4DFBF55C010929C2610929D26809106
S11305609E26811106C081E0C11180E08093A226FD
S113057004C081E0C11180E0C82F81E080939F26F0
S1130580DFBFD0E0FE01EE0FFF1FED55F94DFF2454
S1130590F394808191818034910509F4F12CFF203A
S11305A091F00E94020F882339F00E940F0F80936C
S11305B0A0269093A1260BC00E940A0F8093A02628
S11305C09093A12604C01092A0261092A126FE01A9
S11305D0EE0FFF1FED55F94D20813181AE0100244E
S11305E0569547950794569547950794542F402D53
S11305F04855594D06E013E06F2D81E80E94C10F64
S1130600DF91CF911F910F91FF900895811115C033
S11306102091A22681E090E0222311F080E090E076
S1130620FC01EE0FFF1FED55F94D1082118210925F
S11306309E2610929F2680E03ECF089580E03BCF17
S113064008954FB7F8942091292730912A27E091F3
S11306502B27F0E0EE0FFF1FE45DF84D80819181C0
S1130660821B930B4FBF0895ECDF21E0892B09F423
S113067020E0822F08950F931F93CF93DF934FB7FA
S1130680F89450912B2780912827811110C0209134
S1130690292730912A27C52FD0E0FE01EE0FFF1F36
S11306A0E45DF84D808191812817390718F44FBF14
S11306B080E023C01092292710922A2781E051114B
S11306C080E080932B2781E0809328274FBF80E030
S11306D0CBDFAE0100245695479507945695479570
S11306E00794542F402D405D584D04EB13E020E453
S11306F030E061E082E00E94C10FDF91CF911F9151
S11307000F9108951092B12710929F2610929E2661
S11307101092A2261092A3261092A4261092A52627
S11307201092A6261092A0261092A12680E0C3DE85
S11307301092282710922B2710922C2710922D27E5
S11307401092292710922A2780E095DF882359F0F8
S11307509091B1279F5F9093B1279091B1279130E9
S113076011F49093B02708950F931F93942F811140
S113077029C080912B27E1E08111E0E0611571052A
S1130780B1F4F0E00024F695E7950794F695E79523
S11307900794FE2FE02DAF01405D584D04EB13E0AC
S11307A020E430E061E0892F0E94C10F0BC0F0E02B
S11307B0EE0FFF1FE45DF84D6083718310922827CC
S11307C080E059DF1F910F91089580E04DCF089587
S11307D01F93CF93DF9311E08091C627893009F0EE
S11307E010E060E070E03FB7F89480912927909181
S11307F02A2720912B273FBF30E0F901EE0FFF1F7E
S1130800E45DF84D408151818417950730F0809163
S1130810B0278111E8CF90E020C0F9010024F695BB
S1130820E7950794F695E7950794FE2FE02DE80FDA
S1130830F91FE05DF84D2081EB01C22B01968093F6
S1130840292790932A2780E016DF112321F07C2F9B
S1130850662710E0C8CF8C2F9D2FDF91CF911F9179
S1130860089580E0B5CF08959FB7F8948091A226AB
S1130870E82FF0E0EE0FFF1FED55F94D2081318197
S11308802034310589F440919F2641110DC04091D7
S11308909E26411109C021E020939E26811120E06B
S11308A02093A22620E030E09FBF80E490E0821BEA
S11308B0930B0895D9DF21E0892B09F420E0822FDE
S11308C008951F93CF93DF93162FC72FD1E0809104
S11308D0C627893009F0D0E080E0ECDF811107C041
S11308E08091B0278111F8CF80E090E02BC06FB7E2
S11308F0F8942091A22630E0F901EE0FFF1FED5588
S1130900F94D80819181AC014F5F5F4F40835183EA
S1130910F9010024F695E7950794F695E795079471
S1130920FE2FE02D8E0F9F1FFC01E855F94D10831B
S11309306FBFDD2329F01C2FCC0FCC0BD0E0CCCF24
S113094081E090E0DF91CF911F910895BC0180E098
S1130950B8CF0895E091CC27F091CD270190F08194
S1130960E02D228133812E0F3F1FFC014081E40FD3
S1130970F11DE217F307A0F481818430A1F08613FE
S113098006C014C081818430A1F08617A9F080814B
S1130990E80FF11DE217F307A8F380E090E0089553
S11309A080E090E0089580E090E008958E2F9F2FDE
S11309B0089580E090E008958E2F9F2F08958091F0
S11309C070298F770C94040F08959091CE27992362
S11309D081F1E091CC27F091CD270190F081E02DB9
S11309E09481891740F5E093CA27F093CB2722819D
S11309F033812E0F3F1FE217F307F8F491819430EF
S1130A0061F49281981309C09381961306C0E09310
S1130A10CA27F093CB2781E008959081E90FF11D57
S1130A20E217F30758F3E093CA27F093CB2780E04B
S1130A30089580E0089580E0089580E00895FF928D
S1130A400F931F93CF93DF93C82F60E0BEDFF82E80
S1130A50882381F1A091CC27B091CD27EC2FF0E031
S1130A60EE0FFF1F12962D913C911397E20FF31F87
S1130A7000811181D8011696ED91FC911797099583
S1130A80682F8C2FA2DFF82E8823A1F0C091CA27EB
S1130A90D091CB2765E0CE015DDFEC01009721F01A
S1130AA08A810E948210F6CFD8011296ED91FC91B2
S1130AB0139709958F2DDF91CF911F910F91FF907F
S1130AC008951F93CF93DF93182F7FDF882341F17D
S1130AD0C091CA27D091CB2765E0CE013BDFEC0162
S1130AE0009749F04C815D816B818A810E941B0FC4
S1130AF08111F2CF15C0A091CC27B091CD27812FC1
S1130B0090E0880F991F1296ED91FC911397E80FCE
S1130B10F91F0190F081E02D0190F081E02D0995FD
S1130B20DF91CF911F9108950C94980E0895CF935F
S1130B308091CE278823C1F0E091CC27F091CD2776
S1130B400190F081E02D8481882371F0C0E08C2F26
S1130B5076DFCF5FE091CC27F091CD270190F08133
S1130B60E02D8481C81798F31092CE2781E090E09D
S1130B708093D2279093D327CF910895CF938091D8
S1130B80CE27882341F1E091CC27F091CD27A08195
S1130B90B18114968C918823F1F0C0E08C2F90E001
S1130BA0880F991F0280F381E02DE80FF91F01904F
S1130BB0F081E02D0084F185E02D309709F009954E
S1130BC0CF5FE091CC27F091CD27A081B18114961D
S1130BD08C91C81718F3CF910895EF92FF920F9359
S1130BE01F93CF93DF931092782910927929109252
S1130BF07A2910927B2910927C2910927D292091C8
S1130C006E2922230CF097C2809174299091752942
S1130C10009709F095C28BC22F7109F0B9C03091C9
S1130C206F29363089F0383009F4A6C03111B0C0CC
S1130C30029741F462E070E082ED97E20E94120FA5
S1130C4001E0F8C100E0F6C12091702930917129CA
S1130C50832F992782309105A1F01CF4019739F074
S1130C6081C083309105F1F10F9769F17BC08091C8
S1130C70342090913520DC016C9170E00E94120FB9
S1130C8060C0E0913420F09135208189281708F064
S1130C906BC0C9019927880F991F880F991FE0918C
S1130CA03620F0913720E80FF91F80819181FC01F3
S1130CB0628173810E94120FE0917629F091772965
S1130CC082E081833EC08091382090913920009742
S1130CD009F44CC0DC0112966D917C9113970E942B
S1130CE0120F2FC033272130310589F048F022300C
S1130CF0310509F42AC22330310509F42AC238C067
S1130D0064E070E080E390E20E94120F1AC089E26E
S1130D1090E225E0382FA6E1B0E2E82FF92F819187
S1130D2090E08D939D938E2F831B8217C0F3220F27
S1130D3062E0620F6093142070E084E190E20E940C
S1130D40120F8091742990917529209178293091FE
S1130D5079298217930770F48093782990937929DD
S1130D6001E068C100E066C100E064C100E062C166
S1130D7000E060C101E05EC1019741F461E070E010
S1130D808EEC97E20E94120F01E054C100E052C1C0
S1130D90213009F040C030916F293A30E1F50197D4
S1130DA0A1F58091CE27882391F1C0917229D09129
S1130DB07329E090CC27F090CD27D701ED91FC91D9
S1130DC08481C81730F560E08C2FFFDD082F88235D
S1130DD009F430C1CE019927880F991FD7011296C3
S1130DE0ED91FC911397E80FF91F0190F081E02D2C
S1130DF00680F781E02D09958093D02761E070E0AB
S1130E0080ED97E20E94120F15C100E013C100E0CB
S1130E1011C100E00FC1223009F00EC120916F29E9
S1130E20211103C1029781F4809172290E947C0FE1
S1130E3090E08093C8279093C92762E070E088EC23
S1130E4097E2F0D701E0F6C000E0F4C02F7109F09A
S1130E5090C080916F29833009F4E9C018F481307F
S1130E60B1F087C0853019F0893061F182C080917A
S1130E70742990917529892B41F48FED94E0809326
S1130E807A2990937B2901E0D5C000E0D3C08091FA
S1130E90742990917529892B89F4809170299091F6
S1130EA07129019769F48091D2279091D3278D7F7E
S1130EB08093D2279093D32701E0BCC000E0BAC04E
S1130EC000E0B8C08091742990917529892B09F0AC
S1130ED046C09DD7882309F444C0209170293091DD
S1130EE071293327E0913420F0913520818990E0F5
S1130EF082179307C0F11BDE8091702990917129AC
S1130F008093CE27882389F199278150904C880FAC
S1130F10991F880F991FE0913620F0913720E80F30
S1130F20F91FE093CC27F093CD270190F081E02DB9
S1130F3084818823E1F0C0E060E08C2FC2DD082FBB
S1130F40882309F477C0CF5FE091CC27F091CD27B7
S1130F500190F081E02D8481C81770F36BC000E02C
S1130F6069C000E067C000E065C001E063C001E063
S1130F7061C0213009F580916F298B30E9F48091AB
S1130F80742990917529892B99F48091CE2788230F
S1130F9089F0C0917229D09170298C2F50DD082FCF
S1130FA0882309F447C06D2F8C2F8BDD082F42C096
S1130FB000E040C000E03EC0223009F03DC0809116
S1130FC06F29813019F08330B1F033C080917429D6
S1130FD090917529892B59F48091702990917129E8
S1130FE0892B39F480917229A2D7082F23C000E0FD
S1130FF021C000E01FC08091742990917529892B2C
S113100081F48091702990917129892B61F4C2E750
S1131010D9E288810E94491088810E949F10082F7C
S113102009C000E007C000E005C000E003C000E024
S113103001C000E0011191C080916E298F7181304F
S1131040C1F58091CE278823A1F1C0917229D09156
S113105073290091CC271091CD27D801ED91FC91F3
S11310608481C81730F560E08C2FAFDC882309F148
S1131070CE019927880F991FD8011296ED91FC9102
S11310801397E80FF91F00811181D8011696ED918D
S1131090FC9117970995682F8C2F97DC882349F0CA
S11310A0D8011496ED91FC9115970995082F81119B
S11310B054C080916E298F718230D9F58091CE27EA
S11310C0882389F1E091CC27F091CD27A081B181CB
S11310D014968C91882349F110E0212F30E0220FDF
S11310E0331F0280F381E02DE20FF31FC081D18111
S11310F0EE81FF810995682F812F67DC082F8823F3
S113110061F1EC81FD810995082F811126C01F5FD3
S1131110E091CC27F091CD27A081B18114968C91D8
S11311201817D8F21AC000E018C000E016C000E09A
S113113014C000E012C0822F807609F07DCF86CEE5
S1131140322F307609F078CF67CD26E082E290E244
S1131150E1CD24E08AE091E2DDCD802FDF91CF91D3
S11311601F910F91FF90EF900895CF92DF92EF922D
S1131170FF920F931F93CF93DF93EC016A017B01DE
S1131180DB01CA010197A109B109BC01CD01600FBE
S1131190711F821F931FA70196010E94DE27213829
S11311A0310541055105F8F4213460F4213260F42D
S11311B0213160F4293060F4253060F4233060F08C
S11311C090E00BC093E009C092E007C092E805C02C
S11311D091E003C091E801C090E888818C77892B65
S11311E0888381E001C08FEFDF91CF911F910F9130
S11311F0FF90EF90DF90CF900895CF93DF93E0912D
S1131200D427F091D527848183FF08C08860848324
S113121083E0838386EF8093DE2789C0982F9471BF
S113122031F083E083838FEF8093DE2780C086FFD5
S113123045C0A091D627B091D7278091D827909107
S1131240D92714962D913C911597821793076CF426
S11312509C012F5F3F4F2093D8273093D927A80FA5
S1131260B91F11968C91878362C08091DA2790917F
S1131270DB2718962D913C91199782179307C8F490
S11312802091DC27222321F08681816086834FC050
S113129016962D913C911797AC014F5F5F4F409389
S11312A0DA275093DB27D901A80FB91F8C918783C4
S11312B03EC083E083831092DE2739C08823A4F5DF
S11312C0A091D627B091D7278091DA279091DB2778
S11312D018962D913C91199782179307F8F4169656
S11312E04D915C9117979C012F5F3F4F2093DA2714
S11312F03093DB276781EA01C80FD91F68831896EA
S11313008D919C9119972817390718F482E08383EB
S11313100EC087E083831092DE2709C083E08383B5
S113132089EF8093DE2703C08BEF8093DE27DF9164
S1131330CF9108951F920F920FB60F9211242F93FD
S11313403F934F935F936F937F938F939F93AF9349
S1131350BF93EF93FF9351DFFF91EF91BF91AF9153
S11313609F918F917F916F915F914F913F912F91B9
S11313700F900FBE0F901F9018951F920F920FB6EB
S11313800F9211242F933F934F935F936F937F9307
S11313908F939F93AF93BF93EF93FF932EDFFF91B0
S11313A0EF91BF91AF919F918F917F916F915F91D9
S11313B04F913F912F910F900FBE0F901F90189552
S11313C04F925F926F927F928F929F92AF92BF9251
S11313D0CF92DF92EF92FF920F931F93CF93DF93FD
S11313E0EC014A015B0128013901D901C801689463
S11313F012F8B695A795979587951694D1F7B901E4
S1131400A801032E36E176956795579547953A9549
S1131410D1F7302D2C8122FD08C0B695A79597955C
S11314208795769567955795479588159905AA05E3
S1131430BB0508F4A6C084169506A606B70608F4EC
S1131440A2C08C8182FD04C0880C991CAA1CBB1C00
S1131450C301B201A50194010E94DE272F3F31058B
S11314604105510508F491C0C12CD12C7601CA94D0
S113147019EF05C02C153D054E055F0568F0CC0C31
S1131480DD1CEE1CFF1C1D3F14F46894C0F81F5FA4
S1131490173081F7212F50C0212F11230CF04CC09D
S11314A0D501C401880F991FAA1FBB1F880F991F5C
S11314B0AA1FBB1F880F991FAA1FBB1F481A590ACE
S11314C06A0A7B0A1E3FF4F46DEF7FEF611B71091A
S11314D017FD739504C0440C551C661C771C6A9553
S11314E0D2F7D501C401B695A79597958795BC0108
S11314F0CD01640D751D861D971DA50194010E94E3
S1131500DE2736C023E0210FD501C40104C0880FB3
S1131510991FAA1FBB1F2A95D2F79C01AD01B6954E
S1131520A79597958795BC01CD01640D751D861D02
S1131530971D0E94DE271CC02D5FD501C40104C085
S1131540880F991FAA1FBB1F2A95D2F79C01AD01D2
S1131550B695A79597958795BC01CD01640D751D2A
S1131560861D971D0E94DE2721503109410951092A
S1131570832F8F701295107F182B1F832E8381E089
S113158018C080E016C080E014C0D501C401880FE3
S1131590991FAA1FBB1F880F991FAA1FBB1F880F63
S11315A0991FAA1FBB1F481A590A6A0A7B0A19EF16
S11315B08BCFDF91CF911F910F91FF90EF90DF9030
S11315C0CF90BF90AF909F908F907F906F905F90DF
S11315D04F9008950F931F93CF93DF93EC018B01EA
S11315E0009709F4BEC0803C910521F460E180E0DD
S11315F0B4D7B7C0C11584E0D80721F464E080E013
S1131600ACD7AFC0C038E1E0DE0721F462E080E08F
S1131610A4D7A7C0C115F1E0DF0721F461E080E0A1
S11316209CD79FC0C03883E0D80721F461E081E0F3
S113163094D797C0C115E2E0DE0721F462E081E0AF
S11316408CD78FC0C032F3E0DF0721F464E082E07E
S113165084D787C0C11588E0D80721F461E083E00E
S11316607CD77FC0C115E9E0DE0721F461E084E0A6
S113167074D777C0C115FAE0DF0721F461E085E093
S11316806CD76FC0C03488E0D80721F462E083E0EF
S113169064D767C0C034E9E0DE0721F462E084E087
S11316A05CD75FC0C039F8E0DF0721F464E083E071
S11316B054D757C0C03989E0D80721F464E084E0E6
S11316C04CD74FC0C039EAE0DE0721F464E085E07E
S11316D044D747C0C03CF8E0DF0721F468E083E06A
S11316E03CD73FC0C03C89E0D80721F468E084E0DF
S11316F034D737C0C03AE8E0DE0721F460E183E084
S11317002CD72FC0C03AF9E0DF0721F460E184E070
S113171024D727C0C03A8AE0D80721F460E185E0E5
S11317201CD71FC0C03BE8E0DE0721F460E283E081
S113173014D717C0C03BF9E0DF0721F460E284E06E
S11317400CD70FC0C03884E0D80721F460E483E0EC
S113175004D707C0C03AE4E0DE0719F460E485E08A
S1131760FCD68D818F738D83F80194818581892BBB
S11317709681992311F098E001C090E0892B8D8324
S1131780F801408151816281738100E01CE62CEDF7
S113179032E0CE0115DE9C8198609C839C8190612F
S11317A09C83DF91CF911F910F910895811118C0EF
S11317B090910C29992389F09FB7F894EFE7F9E207
S11317C02081215020839FBF08C09FB7F894EFE782
S11317D0F9E220812F5F20839FBF80930C29089515
S11317E090910C29992389F3F8CF0F93E8ECF4E056
S11317F080818F7D808380818F7D8083E0EEF8E21D
S113180002E005931092E2281092E32800E2069386
S113181000E40693E8EDF8E200E2069300E40693A0
S113182010927A2910927B2910927C2910927D299A
S113183010927829109279291092C8280F9108954E
S11318400F9385E08093C828E1EEF8E204E0059365
S1131850E9EDF8E204E005930F9108950F9383E016
S11318608093C8281092E2281092E328E0EEF8E270
S113187002E006930F910895E0917A29F0917B2973
S1131880309709F0099508950F93CF93DF938091D2
S1131890C828833019F4F0DFA8DF60C08091C42821
S11318A09091C528C0917829D0917929C81BD90B6A
S11318B071F52091C6283091C728820F931F809319
S11318C0C6289093C72820917429309175298217CE
S11318D0930721F08091DF27882341F084E08093EF
S11318E0C828E8EDF8E202E0069338C0E0917C29CC
S11318F0F0917D29309799F00995882381F0109211
S1131900C4281092C528C0917829D0917929C0346F
S1131910D10528F01092DF27C0E4D0E003C081E0B5
S11319208093DF27C093E228D093E3288091C428D2
S11319309091C5282091762930917729280F391F55
S11319402093E4283093E528C80FD91FC093C428F6
S1131950D093C528E0EEF8E202E00693DF91CF9140
S11319600F910895FC018181877090E0FC0131970B
S1131970E730F10520F4E250FF4F0C94002888E092
S113198090E0089580E290E0089580E490E0089566
S113199080E890E0089580E091E0089580E092E08E
S11319A008958FEF93E0089580E190E00895282F43
S11319B02F7030E0220F331F992787FD90958827D9
S11319C0990F881F9927820F931F02979C01220F5A
S11319D0331F220F331F220F331F820F931F805A8E
S11319E0974D08950F93CF938091CC0480FF62C0EC
S11319F081E08093CC04E8EDF8E200E80693E0EEA1
S1131A00F8E200E806938093CA04E8EDF8E200E106
S1131A1006938091C828882329F08350823008F4E3
S1131A202BDFE3DE8091DA289091DB28089709F018
S1131A3043C088E0E4E8F8E2AEE6B9E201900D9232
S1131A408A95E1F7E8ECF4E080818062808380810C
S1131A5080628083C2D8C82F811103C0F1DEC1E047
S1131A602CC080916E2988236CF41092C6281092A1
S1131A70C7281092C4281092C52882E08093C828F1
S1131A8003DF1BC02091742930917529232B11F495
S1131A90E5DE13C01092C6281092C7281092C428FD
S1131AA01092C52881E08093C828E8EDF8E202E0AE
S1131AB0069303C0C0E001C0C1E08C2FCF910F9109
S1131AC00895BF92CF92DF92EF92FF920F931F93EC
S1131AD0CF93DF93B82E6BDFEC011B2D111F112761
S1131AE0111F8B2D8F70E82EF12CEE0CFF1CE10ED4
S1131AF0F11CC701880F991F880F991F880F991F20
S1131B009C012852374D7901C9012CDF6C01112346
S1131B1009F45BC0D70116962D913C9117978D81DE
S1131B209E81280F391F2D833E838B819C8128172A
S1131B303907C9F1FC01E21BF30B9F012115F4E005
S1131B403F0740F02FEF33E0C901B6010E94CA27D6
S1131B50281B390B888181FF0AC0C901B6010E9484
S1131B60CA2741E0892B09F040E0942F01C090E09E
S1131B70888190FB81F98883D70116961D921C9267
S1131B80179712962D933C93139729813A818D814F
S1131B909E81820F931F14968D939C931597F70142
S1131BA002E0069398C0888181FF87C08D7F888377
S1131BB0D70116961D921C92179712961D921C928D
S1131BC01397F70102E0069386C0D70112960D9190
S1131BD01C911397888182FF15C0E981FA812D81B8
S1131BE03E818B819C81B6010E94CA27B0E4BB9ED2
S1131BF0B00111246056784DAC01CF01820F931FC0
S1131C000E94AA282D813E81200F311F2D833E83FF
S1131C10EB81FC81E217F30710F4ED83FE83D70117
S1131C2016968D919C9117978017910709F045C0DE
S1131C308D819E81E817F90709F43FC0E81BF90B71
S1131C40E115B4E0FB0748F0EFEFF3E0CF01B60194
S1131C500E94CA27E81BF90B06C0CF01B6010E94F7
S1131C60CA27E81BF90BD70112961D921C921397F1
S1131C70EC15FD0578F4888184608883B0E4BB9E0C
S1131C80C00111248056984DF70184839583C68240
S1131C90D7820FC029813A818D819E81820F931F43
S1131CA0D70114968D939C9315971696ED93FC93F8
S1131CB01797F70102E006930EC0888180FF0BC0DE
S1131CC08E7F8883EF81F885309729F06D817E813E
S1131CD04B2D80E00995DF91CF911F910F91FF90DB
S1131CE0EF90DF90CF90BF900895CF93CFB7F89443
S1131CF081E05CDDEAECF4E080E4808380E28083D0
S1131D00E1ECF4E0808181608083A9ECB4E08C9103
S1131D1082608C93E8ECF4E08081806480838C9111
S1131D2081608C93808180688083CFBFCF91089538
S1131D30CF9380E31ED4E0ECF4E080818064808360
S1131D40CFB7F8941092D9281092E1281092E9287C
S1131D501092F1281092F92810920129E0E6F8E295
S1131D6080818E7F8083E9E6F8E280818E7F8083A4
S1131D70E2E7F8E280818E7F8083EBE7F8E28081FE
S1131D808E7F80836AE170E082E0ECD48F3F19F0AB
S1131D908093FA0403C08FE18093FA046BE170E04E
S1131DA082E0E0D48F3F19F08093FB0403C08FE1FD
S1131DB08093FB04E0ECF4E0808182608083808186
S1131DC08068808380818061808388ED98E2868347
S1131DD097838081806280838FEF8093C504E8ECD1
S1131DE0F4E080818160808310920C298FB7F8948D
S1131DF0E3E8F9E290819F5F90838FBF76DFCFBFE6
S1131E00CF91089580E008958093C304089580914C
S1131E10C30408958091082990910929089580E0C8
S1131E2090E0089580937629909377296093782998
S1131E30709379290895E82FEF70F0E0EE0FFF1FFB
S1131E40992787FD90958827990F881F9927E80F70
S1131E50F91FEE0FFF1FEE0FFF1FEE0FFF1FE852DB
S1131E60F74D8181807C09F043C06370613029F0B3
S1131E7010F480E403C080E801C080EC40385105D0
S1131E80E1F050F440325105A1F04034510599F08D
S1131E904031510561F419C0411592E0590789F0A8
S1131EA04F3F93E0590779F04115514041F020E04C
S1131EB00DC022E00BC023E009C024E007C025E0E8
S1131EC005C026E003C027E001C021E0118296E0AE
S1131ED09083822B81838181807C803C21F4818169
S1131EE08770873039F081818062818381E0089531
S1131EF080E0089581E00895E82FEF70F0E0EE0FA0
S1131F00FF1F992787FD90958827990F881F992788
S1131F10E80FF91FEE0FFF1FEE0FFF1FEE0FFF1F5D
S1131F20E852F74D818182FB882780F90895E82FD4
S1131F30EF70F0E0EE0FFF1F282F332727FD3095B9
S1131F402227330F221F3327E20FF31FEE0FFF1F49
S1131F50EE0FFF1FEE0FFF1FE852F74D918192FF26
S1131F600EC091819B7F918322DDFC01808180FFE3
S1131F7006C08E7F80830780F085E02D099581E07F
S1131F8008957F928F929F92AF92BF92CF92DF92E9
S1131F90EF92FF920F931F93CF93DF93982E862E89
S1131FA05A01690104DD7C01792C771C7724771CA4
S1131FB0C92DCF70D0E0CC0FDD1FC70DD11DCC0FC4
S1131FC0DD1FCC0FDD1FCC0FDD1FC852D74D89811B
S1131FD0807C09F44CC08981807C803C19F0898123
S1131FE082FD47C08FB7F894F701908190FF03C03A
S1131FF08FBF712C3FC0F7019081916090838FBF98
S1132000F701A182B282C382D48215821682078329
S11320101087811006C091E0C114D10419F090E03A
S113202001C091E0F701808190FB81F98B7F80836F
S1132030772019F01E821F8215C08981807C803C24
S113204069F4CE018FDCBC01C6010E94CA27892B2A
S113205029F0F70180818E7F80830CC01A821B8255
S11320601E821F82892D2DDD7724739403C0712C69
S113207001C0712C872DDF91CF911F910F91FF909B
S1132080EF90DF90CF90BF90AF909F908F907F9014
S11320900895FF920F931F93CF93DF93182FF82E79
S11320A0FF1CFF24FF1CC82FCF70D0E0CC0FDD1F16
S11320B0CF0DD11DCC0FDD1FCC0FDD1FCC0FDD1FCD
S11320C0C852D74D74DCDC01FE0102E005938C910B
S11320D080FF12C08E7F8C931796ED91FC91189718
S11320E0309751F0FF2019F06E817F8102C06A8120
S11320F07B81412F81E00995DF91CF911F910F9151
S1132100FF900895CF93C82FC4DFEC2FEF70F0E059
S1132110EE0FFF1F8C2F992787FD90958827990F25
S1132120881F9927E80FF91FEE0FFF1FEE0FFF1FFF
S1132130EE0FFF1FE852F74D1182CF9108950F93D0
S1132140E82FEF70F0E0EE0FFF1F282F332727FD55
S113215030952227330F221F3327E20FF31FEE0F90
S1132160FF1FEE0FFF1FEE0FFF1FE852F74D918187
S11321709460918301E006938CDF81E00F910895D0
S11321801F920F920FB60F9211240F932F933F9328
S11321904F935F936F937F938F939F93AF93BF936B
S11321A0EF93FF938091CB04882334F480E88093E9
S11321B0CA040E94BE0588C08091CB0482FF20C05F
S11321C084E08093CA048091E02886FF7DC08091DA
S11321D0CC0481FD79C006DC811176C08091C828C9
S11321E0813011F43BDB70C0843009F06DC0E1EE46
S11321F0F8E204E00593E9EDF8E204E0059364C035
S11322008091CB0481FF5BC082E08093CA048091FB
S1132210D82886FF59C08091CC0481FD55C0E2DBEB
S1132220811152C08091C828823041F484E08093A7
S1132230C828E8EDF8E202E0069346C0833009F0CE
S113224043C0E1EEF8E204E00593E9EDF8E204E0CE
S113225005933AC080E18093CA0481E01ADF81E8E3
S113226018DF0E9497051092C304E9EDF8E210828A
S113227096E09093D82883E48083E1EEF8E210821C
S11322809093E028808384E898E28093DC289093FC
S1132290DD28ABDA19C08091CB0486FF06C080E448
S11322A08093CA0480E082DA0FC08091CB0485FF5A
S11322B00BC080E28093CA0481E078DA05C0809183
S11322C0CB0484FFE8CFC6CFFF91EF91BF91AF91CC
S11322D09F918F917F916F915F914F913F912F913A
S11322E00F910F900FBE0F901F9018951F920F9291
S11322F00FB60F9211240F931F932F933F934F9375
S11323005F936F937F938F939F93AF93BF93CF9379
S1132310DF93EF93FF938091CC0481FD03C062DBD4
S11323208111B9C082E08093CC048091C504819569
S1132330880FE8EDF8E2E81BF10920813181285D7E
S11323403842369527953695279536952795822FC9
S1132350869520FF02C090E801C090E0890FE82F25
S1132360EF70F0E0EE0FFF1F282F332727FD309585
S11323702227330F221F3327E20FF31FEE0FFF1F15
S1132380EE0FFF1FEE0FFF1FE852F74D908195FFF0
S113239082C000E20693811179C08091C8288430FC
S11323A019F46ADA22DA77C0C091DA28D091DB28EE
S11323B080917829909179290091C4281091C52899
S11323C098012C0F3D1F8217930718F4EC01C01BD2
S11323D0D10B8091762990917729AE0164E878E257
S11323E0800F911F0E94AA280C0F1D1F0093C42860
S11323F01093C528C034D10569F48091C628909102
S1132400C728800F911F2091742930917529821754
S1132410930788F00093782910937929E0917C2917
S1132420F0917D29309729F00995811102C008DACD
S113243032C014DA30C08091782990917929081734
S11324401907F9F4E0917C29F0917D29309711F472
S1132450F7D921C00995811102C0F2D91CC020917D
S1132460C6283091C7288091C4289091C528820F2E
S1132470931F8093C6289093C7281092C428109263
S1132480C528E8EDF8E202E0069305C0803811F4AF
S1132490FBD901C016DBFF91EF91DF91CF91BF9182
S11324A0AF919F918F917F916F915F914F913F91E8
S11324B02F911F910F910F900FBE0F901F901895A1
S11324C0CF93DF9300D000D0CDB7DEB78FEF8093EA
S11324D070008093710080937200809373008093E6
S11324E0740080937500809376006CE170E082E064
S11324F039D18A836DE170E082E034D189838981A6
S11325009A81019621F480E493E289839A838981F4
S11325109A818B839C83E0E6F0E082838C818383C1
S11325208FB7F894E0E5F0E09081926090838FBFDC
S1132530818181FFFDCF61E080E490E01DD18FB700
S1132540F894E0E5F0E090819E7F90838FBF24961D
S1132550CDBFDEBFDF91CF9108959FB7F894E82FE8
S1132560F0E0E059FF4F60958081682360839FBF4E
S11325700895863011F468E101C060E0E0E5F0E020
S1132580818181FD09C08FB7F89490819260908316
S11325908FBF818181FFFDCF636084E490E0ECD044
S11325A060E480E0DACF0895CF93DF939B01E0EC01
S11325B0F1E067856623ECF3CCECD1E068816860D8
S11325C06883BC01705FC9010E94AA288881877F43
S11325D08883DF91CF910895E0ECF1E0878588232B
S11325E0ECF3E0ECF1E0878581FF06C086E38287A7
S11325F061E08BEC91E0C0C00895E0ECF1E09785D8
S11326009923ECF3ECECF1E0908198609083A82F8F
S1132610B0E0B05F6C938081877F80830895FF92E0
S11326200F931F93CF93DF93182FF92EC62FE0EC4F
S1132630F1E00285D1DFE0ECF1E027852223ECF321
S11326406C2F812FDADFC0ECD1E01A82F982188373
S113265085E38A8761E08BEC91E08ED00A87DF9175
S1132660CF911F910F91FF900895EF92FF920F93D6
S11326701F93CF93DF938C01E0ECF1E087858823EF
S1132680ECF3780180E2E80EF11CE8018C2F801B4A
S11326906991B3DFCE15DF05C9F7DF91CF911F91A3
S11326A00F91FF90EF9008951F93CF93DF93E0EC89
S11326B0F1E097859923ECF320E2829FC001112475
S11326C0C0ECD1E01A82998388831A8585E38A87CE
S11326D061E08BEC91E050D01A87DF91CF911F918C
S11326E00895CF92DF92EF92FF920F931F93CF93AF
S11326F0DF93EC017B018A014115510551F1CE01B3
S11327008F719927892BB1F40032110598F0C70114
S1132710ACDFCE0196958795929582958F70892727
S11327209F708927C1DFA09680E2E80EF11C005259
S113273011090CC06E01EFEFCE1ADE0AF7016191A8
S11327407F01CE016CDF01501109E601011511056D
S1132750B1F6DF91CF911F910F91FF90EF90DF9031
S1132760CF9008954091CA01E62FF72F8093CA01B4
S113277084914093CA0108951BBEFC0128ED24BF37
S113278060830895E0919820F0919920608171818F
S11327908281938108950F931F93CF93DF9300D089
S11327A01F92CDB7DEB76115710529F4806889835E
S11327B081E090E014C0806C89836038710520F456
S11327C06A8382E090E00BC0862F80688A83660F5C
S11327D0672F661F770B71956B8383E090E0BE01D2
S11327E06F5F7F4F0E9433202396CDBFDEBFDF9102
S11327F0CF911F910F9108950F931F93FA019A019E
S1132800280F391F2130344068F49C0122503109CB
S113281040E050E08B01BF0189E090E0BCDF80E044
S113282090E002C08FEF9FEF1F910F9108950F93D7
S11328301F93CF93DF9300D01F92CDB7DEB76115FE
S1132840710521F4898381E090E014C08064898358
S11328506038710520F46A8382E090E00BC0862F13
S113286080688A83660F672F661F770B71956B8369
S113287083E090E0BE016F5F7F4F0E946E2023963D
S1132880CDBFDEBFDF91CF911F910F9108950F93BC
S11328901F939B01BA0140E050E08C0181E190E07C
S11328A0C6DF1F910F9108950F931F938C0125E0AC
S11328B030E040E050E060E070E087E190E0B7DFB6
S11328C01F910F9108950F931F938C0125E030E021
S11328D040E050E060E070E085E190E0A8DF1F9107
S11328E00F910895EF92FF920F931F93CF93DF936D
S11328F000D000D0CDB7DEB79E012F5F3F4F8901D6
S113290024E030E040E050E092DFFE01359660E0E4
S113291070E0CB01B82FA72F962F88272291BC01F6
S1132920CD01620F711D811D911DE017F10791F713
S11329302496CDBFDEBFDF91CF911F910F91FF9001
S1132940EF90089560E070E080E090E0CBCF0895D0
S11329500F931F93CF93DF9300D0CDB7DEB78E01D3
S11329600F5F1F4F22E030E040E050E060DF8A81DB
S113297090E0982F88272981820F911D0F900F9046
S1132980DF91CF911F910F9108950F931F93CF93D0
S1132990DF931F92CDB7DEB78E010F5F1F4F21E08B
S11329A030E040E050E043DF89810F90DF91CF9128
S11329B01F910F9108950F931F93CF93DF931F924D
S11329C0CDB7DEB749838E010F5F1F4F21E030E0A2
S11329D040E050E0E0DE0F90DF91CF911F910F9126
S11329E008950F931F93CF93DF9300D0CDB7DEB735
S11329F049835A838E010F5F1F4F22E030E040E08D
S1132A0050E0C9DE0F900F90DF91CF911F910F918D
S1132A100895AC0164E078E18EE290E0E2CF08959D
S1132A20AC0160E070E088E190E0DBCF08950F93A3
S1132A301F93CF93DF9300D000D0CDB7DEB72983A7
S1132A403A834B835C838E010F5F1F4F24E030E099
S1132A5040E050E0A0DE2496CDBFDEBFDF91CF91F1
S1132A601F910F910895CF92DF92EF92FF920F93EF
S1132A701F938C01CA01AA2797FDA095BA2F072E90
S1132A807FE0880F991FAA1FBB1F7A95D1F7702D7D
S1132A90E0919820F0919920C284D384E484F58451
S1132AA08C299D29AE29BF2920E030E0802B912B71
S1132AB0A22BB32BAB0160E070E0032E36E1440F90
S1132AC0551F661F771F3A95D1F7302D9A01AB0138
S1132AD0282B392B4A2B5B2B60E070E088E090E0D8
S1132AE0A6DF1F910F91FF90EF90DF90CF90089594
S1132AF00F931F938C0128E030E040E050E060E049
S1132B0070E081E090E093DE1F910F910895AB0196
S1132B1064E070E08DE290E064DF43E066E070E042
S1132B208DE290E048DF40E066E070E08DE290E006
S1132B3042DF6AE070E08DE290E0D4CE089540E098
S1132B4062E070E08CE290E036DF42E062E070E048
S1132B508CE290E030CF0895CF93DF93EC014DE603
S1132B6066E078E08EE290E026DFCD2B41F047E08E
S1132B7056E066E078E18EE290E033DF07C047E09C
S1132B8056E166E078E18EE290E02BDFDF91CF91B1
S1132B9008954F925F926F927F92AF92BF92CF92BD
S1132BA0DF92EF92FF920F931F93CF93DF93EC0189
S1132BB0488059806A807B80842DEC89FD89EE0FE2
S1132BC0FF1FE45DFC4DC080D1800C810150843036
S1132BD041F021E090E0873009F020E0E22EF92E68
S1132BE003C0EE24E394F12C8C8D9D8DAE8DBF8DAE
S1132BF0892B8A2B8B2BA1F4E0919820F0919920BA
S1132C0080899189A289B389A064808B918BA28BDE
S1132C10B38BD694C794D694C794D694C7940DC056
S1132C20E0919820F091992080899189A289B389B3
S1132C30AF7B808B918BA28BB38BE0919820F0912A
S1132C40992088A1808780899189A289B389AC7FE2
S1132C50808B918BA28BB38B48A159A16AA17BA1D4
S1132C60BA015527442744275527637077279A01CB
S1132C70AB01282B392B4A2B5B2B208B318B428BBE
S1132C80538B60E070E084E090E0D1DEA60164E064
S1132C9078E28EE290E0A5DE10E0C8015DDFE42D6D
S1132CA0F0E0EF52FC4DA080B12C6501CC0CDD1C92
S1132CB0CC0CDD1CF601EF55FC4D208131814281A5
S1132CC0538167E070E08BE290E0B1DEF501E556F8
S1132CD0FC4D40816BE070E08BE290E06CDEF7012C
S1132CE0FF27E756FC4D40816BE070E088E290E0FE
S1132CF062DEF601E754FC4D20813181428153812B
S1132D006CE070E088E290E092DEEC8DFD8DEE0FD9
S1132D10FF1F888D998DE80FF91FEE0FFF1FEE57E7
S1132D20FC4D4081518162E070E087E290E059DE21
S1132D30F801EE0FFF1FE258FC4D4081518164E021
S1132D4070E087E290E04DDE8C8D9D8DAE8DBF8D61
S1132D50892B8A2B8B2B41F444E650E066E070E02B
S1132D6087E290E03EDE23C088859985AA85BB85ED
S1132D700497A105B10571F440E150E066E070E00C
S1132D8087E290E02EDE40E166E270E087E290E0C8
S1132D9012DE0DC040E250E066E070E087E290E0B1
S1132DA020DE48E266E270E087E290E004DE8C8593
S1132DB09D85F801EE0FFF1FEE0FFF1FE80FF91FAF
S1132DC0EE0FFF1FEE0FFF1FE25AFC4D20813181F1
S1132DD04281538168E070E087E290E028DE8CA1B4
S1132DE09DA1AEA1BFA1892B8A2B8B2B41F481E439
S1132DF090E1A0E0B0E08CA39DA3AEA3BFA34CA13F
S1132E005DA160E270E087E290E0EBDD2091912328
S1132E103091922340919323509194236CE070E07D
S1132E2083E290E004DEF801EE0FFF1FEB56FC4D49
S1132E304081518164E070E083E290E0D2DD888DCE
S1132E40998DAA8DBB8D892B8A2B8B2B69F0EC8DE8
S1132E50FD8DE257FC4D408160E070E081E290E03E
S1132E60AADDE1E083E002C0E0E080E00C891D8996
S1132E702E893F890F2EFBE1000F111F221F331FE4
S1132E80FA95D1F7F02DB301A2014F7055276627AB
S1132E907727042B152B262B372B4C815D816E81D4
S1132EA07F81032E32E1440F551F661F771F3A9529
S1132EB0D1F7302D442755276C707727042B152B19
S1132EC0262B372B488959896A897B89032E36E159
S1132ED0440F551F661F771F3A95D1F7302D4427AD
S1132EE05527607C7770042B152B262B372B552404
S1132EF066247724B301A201440F551F661F771F70
S1132F00440F551F661F771F440F551F661F771FF9
S1132F10440F551F661F771F552766277727402BB9
S1132F20512B622B732B90E0A0E0B0E0072E74E1EC
S1132F30880F991FAA1FBB1F7A95D1F7702D842B78
S1132F40952BA62BB72B4E2E512C612C712C032EB6
S1132F5031E1440C551C661C771C3A95D1F7302D91
S1132F60A3019201282B392B4A2B5B2B60E070E0E4
S1132F708FE190E05CDD4C815D816E817F8188858D
S1132F809985AA85BB85842B952BA62BB72BBC01D1
S1132F90552744278C8D9D8DAE8DBF8D072E7DE0EA
S1132FA0880F991FAA1FBB1F7A95D1F7702D9A011C
S1132FB0AB01282B392B4A2B5B2BE0919820F09105
S1132FC09920228733874487558760E070E088E042
S1132FD090E02DDD42E460E070E08DE090E0EBDC19
S1132FE0DF91CF911F910F91FF90EF90DF90CF90E1
S1132FF0BF90AF907F906F905F904F900895CF9265
S1133000DF92EF92FF926B017C0160E070E08AE155
S113301090E068DCDC01CB0188279927A07F2FE0B2
S1133020E222FF249C01AD012C293D294E295F2970
S113303060E070E08AE190E0FADCFF90EF90DF90CE
S1133040CF900895CF93C82F80FF20C060E070E038
S113305086E290E047DCDC01CB01937C9C01AD016E
S1133060346160E070E086E290E0E1DC60E070E012
S113307086E390E037DC9B01AC01446860E070E0DB
S113308086E390E0D4DCC1FD19C00EC060E070E0BE
S113309086E290E027DC9B01AC01337C60E070E0C9
S11330A086E290E0C4DC1CC020E131E040E050E066
S11330B068E270E086E390E0BADC12C020E131E01F
S11330C04FE050E068E270E086E390E0B0DC20E19D
S11330D031E040E050E068E270E086E390E0A7DC95
S11330E0CF910895EF92FF920F931F93CF93DF93A5
S11330F000D0CDB7DEB77C018E010F5F1F4F22E0F9
S113310030E040E050E060E070E086E390E08FDB88
S11331108FE0E816F104A0F5F701EB5FFE4F0C9485
S1133120002819828A818E7F8A832AC089818C7FB4
S11331308160898325C089818C7F8260898320C0D6
S11331408981837B886489838A8180688A8318C0A3
S11331508981837B89838A818F778A8311C08A815D
S113316082608A830DC08A818D7F8A8309C08981A8
S11331708F7C8062898304C081E0898383E08A83B1
S11331808E010F5F1F4F21E030E040E050E060E02F
S113319070E086E390E0FFDA0F5F1F4F21E030E03C
S11331A040E050E061E070E086E390E0F4DA0F90F4
S11331B00F90DF91CF911F910F91FF90EF900895A1
S11331C08EE090E08FDF40E050E866E070E08DE252
S11331D090E007DC81E090E0B7D681E090E082CF18
S11331E0089580E090E07EDF40E050E064E070E02D
S11331F086E390E0F6CB08959B01AC0161E070E0BA
S11332008AE090E014CC0895CF93C82F81FF0EC0BC
S113321040E860E070E08DE090E0CDDBE091982044
S1133220F091992081E0868B40E801C040E0C0FF26
S11332301DC0466060E070E08DE090E0BCDB63E0C0
S113324070E08FE090E084DB88709470892BB9F093
S113325040E460E070E08DE090E0ADDBE091982028
S1133260F0919920168A8FEF9FEF0BC0426060E0C7
S113327070E08DE090E09FDB80E090E002C080E0B1
S113328090E0CF91089563E070E08FE090E07DDB03
S1133290482F407850E060E070E0807490E0A0E057
S11332A0B0E0880F991FAA1FBB1F481759076A0768
S11332B07B0731F041E063E070E08DE090E07BCB90
S11332C00895CF92DF92EF92FF92CF93DF9360E065
S11332D070E08EE090E006DB6B017C0192D1EC01A2
S11332E020E030E0A90160E070E08EE090E09FDB38
S11332F040E460E070E08DE090E05DDB28EF3FEFBC
S113330047E254E260E070E08FE090E090DBBBDFE6
S1133310A701960160E070E08EE090E088DBCE01CA
S113332074D1E0919820F0919920168ADF91CF9181
S1133330FF90EF90DF90CF9008950F931F93CF935A
S1133340DF93EC0182FF9FDF8E0101701127C0FD26
S113335011C021C0B6DFC1FD0AC040E051E060E009
S113336070E08DE090E03DDB0FEF1FEF1BC00FEF2F
S11333701FEF18C040E053E060E070E08DE090E0A3
S113338030DB63E070E08FE090E0FFDA83FDE2CFB2
S113339000E010E007C040E051E060E070E08DE044
S11333A090E01FDBC801DF91CF911F910F91089529
S11333B00F931F93CF938C0163E070E084E090E05F
S11333C0E4DAC82F01151105D9F0A80160E070E016
S11333D08CE090E006DBE0919820F0919920008940
S11333E01189228933893061008B118B228B338BB5
S11333F04C2F406163E070E084E090E0DCDA14C0BC
S1133400E0919820F09199200089118922893389CB
S11334103F7E008B118B228B338B482F4F7E63E0D2
S113342070E084E090E0C7DACF911F910F91089586
S1133430AC0164E270E087E290E0D3CA089540EE04
S113344063E070E086E390E0B6DA40EF63E070E0BA
S113345086E390E0B0CA0895C4DE40E050E060E046
S113346070E08CE290E0BDDA40E066E070E08CE26F
S113347090E0A1DA64DB40E063E070E086E390E092
S11334809ADA81E090E060D540EF63E070E086E393
S113349090E091DAE0919820F0919920168A0895AD
S11334A08F71482F40666EE070E08BE290E083CA33
S11334B008950F931F93CF93DF93C82FE091982023
S11334C0F09199201786168A148A158A10A211A2DF
S11334D012A213A214A215A216A217A233DA603301
S11334E071408A4C9E4D09F085C0B6DF80E090E0C3
S11334F0F9DD44E060E070E084E290E05CDA6EE1E3
S113350070E080E090E003DBD62FE0919820F0910A
S11335109920718764E070E080E090E0F8DA662337
S113352079F042E062E170E08DE290E044DAE0910B
S11335309820F0919920848995899061848B958B4A
S1133540009198201091992066E070E080E090E06E
S1133550DEDAF8016083718382839383009198207B
S11335601091992067E070E080E090E0D0DAF801F3
S11335706483758386839783E0919820F0919920E2
S1133580DF7111F0D68702C080E18687868588DFE7
S1133590C0FF0BC015DEE0919820F091992084893A
S11335A095899860848B958B0CC065E070E086E308
S11335B090E0CED9AC015D7F65E070E086E390E0F9
S11335C010DA81E090E08EDD40E06AE070E08CE2A9
S11335D090E0F1D9C0919820D091992060E070E0FA
S11335E084E090E07FD9688B798B8A8B9B8B80E019
S11335F090E002C08FEF9FEFDF91CF911F910F9169
S11336000895F89481E090E00895789408958F9255
S11336109F92AF92BF92CF92DF92EF92FF920F935D
S1133620CF93DF93DB011D921D921D921C92139781
S1133630EC01E0E0F0E0299130E040E050E060E0AF
S113364070E080E090E00E2F0E945728822E932E87
S1133650A42EB52E4D915D916D917C911397840E9E
S1133660951EA61EB71E8D929D92AD92BC92139785
S11336703896E032F105F9F6DF91CF910F91FF9082
S1133680EF90DF90CF90BF90AF909F908F90089570
S11336904F925F926F927F928F929F92AF92BF925E
S11336A0CF92DF92EF92FF920F931F93CF93DF930A
S11336B0CDB7DEB7AA97CDBFDEBF44D94B015C01BD
S11336C061D86B017C01CE01019612DA8E010F5F85
S11336D01F4F24E030E040E050E060E070E083E021
S11336E090E0A5D860E070E084E090E0FBD86B8FB8
S11336F07C8F8D8F9E8F085F1F4F25E030E040E068
S113370050E060E070E088E090E091D860E070E024
S11337108DE090E0E7D86F8F78A389A39AA360E047
S113372070E08EE090E0DED86BA37CA38DA39EA313
S11337300B5F1F4F25E030E040E050E060E070E0B8
S11337408FE090E074D860E070E080E190E0CAD847
S11337506FA378A789A79AA70B5F1F4F28E030E0D3
S113376040E050E060E070E082E190E060D860E02A
S113377070E08FE190E0B6D82B013C018FE091E23C
S11337800E94CB288BE391E20E94CB289F928F92D8
S11337904501AA24BB249F928F9288E491E29F93CF
S11337A08F930E94BA28DF92CF926701EE24FF2400
S11337B0DF92CF9280E691E29F938F930E94BA2882
S11337C089811F928F938A811F928F938B811F927D
S11337D08F938C811F928F938D811F928F938E81F3
S11337E01F928F938F811F928F9388851F928F933F
S11337F088E791E29F938F930E94BA281F921F92A9
S11338001F921F921F921F921F921F928EEA91E2A3
S11338109F938F930E94BA28CDBFDEBF3C8D3F9308
S11338204B8D4F932B8D3C8D4D8D5E8DCA01AA27F8
S1133830BB279F938F9380ED91E29F938F930E9478
S1133840BA2889851F928F938A851F928F938B85BF
S11338501F928F938C851F928F938D851F928F93C8
S113386088EE91E29F938F930E94BA2838A13F93E8
S11338704F8D4F932F8D38A149A15AA1CA01AA2770
S1133880BB279F938F938FE092E29F938F930E9425
S1133890BA283CA13F934BA14F932BA13CA14DA12E
S11338A05EA1CA01AA27BB279F938F9387E292E266
S11338B09F938F930E94BA288E851F928F938F8532
S11338C01F928F9388891F928F9389891F928F9358
S11338D08A891F928F938FE392E29F938F930E9422
S11338E0BA28CDBFDEBF58A55F938FA18F932FA1B8
S11338F038A549A55AA5CA01AA27BB279F938F9328
S113390086E692E29F938F930E94BA288B891F9236
S11339108F938C891F928F938D891F928F938E8999
S11339201F928F938F891F928F93888D1F928F93ED
S1133930898D1F928F938A8D1F928F938EE792E2C7
S11339409F938F930E94BA285F924F92230166241B
S113395077245F924F9284EB92E29F938F930E941D
S1133960BA288FE091E20E94CB28CDBFDEBFAA9691
S1133970CDBFDEBFDF91CF911F910F91FF90EF90EC
S1133980DF90CF90BF90AF909F908F907F906F907B
S11339905F904F900895CF93DF93CDB7DEB7A19793
S11339A0CDBFDEBF81E090E084DD019649F48CEC6C
S11339B092E29F938F930E94BA280F900F90FFCFAB
S11339C037D38DEC90E2E5D883E03CDB84E390E4EC
S11339D020D884E390E424D888E090E029DD0F2EF9
S11339E0F0E22F2EF6E03F2EF02D12E00F2EFBE535
S11339F06F2EF9E27F2EF02DAE014F5F5F4F4A012B
S1133A000F2EF4EB4F2EF0E25F2EF02D0F2EA12C93
S1133A10F6E0BF2EF02D80E090E0CADC80E090E07C
S1133A208CDC03C0D10117961C9360E070E08FE03A
S1133A3090E00E94721460935529709356298093E4
S1133A405729909358296B017C01CC24B0EDDB22DB
S1133A50B7E2EB22B4E2FB22CD28CE28CF2811F323
S1133A6076FF65C220E030E440E050E060E070E0C2
S1133A708FE090E00E94171560E070E080E190E034
S1133A800E94721473708827992740E050E089E5FA
S1133A9099E20E94471489E599E20E94CB28F30138
S1133AA0108288ED92E20E94CB284AE050E061EC5B
S1133AB070E289E599E20E949D28892B09F0ABCF39
S1133AC08FED92E20E94CB28C4010E946314FE0190
S1133AD03696D40120E030E040E050E060E070E051
S1133AE080E090E008E00E9457280291202BEA171A
S1133AF0FB07C1F720934D2930934E2940934F295A
S1133B0050935029609351297093522980935329DB
S1133B1090935429445C504F6F4F7F4F8F4F9F4F6A
S1133B2008E00E947228D52E022FF32EE42E622F75
S1133B307F2D8E2D9D2D60DB20914D2930914E29B6
S1133B4040914F29509150296091512970915229E7
S1133B50DF92EF92FF920F931F921F921F921F9278
S1133B605F934F933F932F938091532990915429BE
S1133B7000E20E9472285F934F933F932F93A6EE27
S1133B80B2E2BF93AF930E94BA2864EF71E080E081
S1133B9090E035DA84EE9CE00BDC80916D29D20153
S1133BA08C9340E050E062EB70E28FE090E00E9482
S1133BB0FC1341E050E060E070E08FE090E00E9490
S1133BC0331583E021DBCDBFDEBF019611F000E4A5
S1133BD008C089EF92E20E94CB281DCFD501179629
S1133BE00C9360E070E08FE090E00E9472146093A8
S1133BF05529709356298093572990935829DC01AD
S1133C00CB018827907DA772B472892B8A2B8B2BCA
S1133C1029F383E093E20E94CB2880916D298F5F82
S1133C2080936D298091552990915629A091572907
S1133C30B091582996FF6BC18AE093E20E94CB2889
S1133C4080E8F501878320E830E440E050E060E05C
S1133C5070E08FE090E00E94171560E070E080E172
S1133C6090E00E9472146F7777278827992765312F
S1133C7071058105910550F440E050E089E599E231
S1133C800E94471489E599E20E94CB28D3011C9233
S1133C904AE050E06AE970E289E599E20E949D28D1
S1133CA0892B09F0B8CE81E0F1018783C4010E9419
S1133CB05414FE013696D40120E030E040E050E098
S1133CC060E070E080E090E008E00E9457280291F4
S1133CD0202BEA17FB07C1F7209345293093462987
S1133CE040934729509348296093492970934A295E
S1133CF080934B2990934C29C4010E946314FE01C4
S1133D003696D4011E861F86188A198A1A8A1B8A37
S1133D101C8A1D8A2E853F85488959896A897B8931
S1133D208C899D8908E00E9457280291022B0E87F6
S1133D303F87488B598B6A8B7B8B8C8B9D8BEA17C7
S1133D40FB0741F700933D2930933E2940933F29D7
S1133D505093402960934129709342299C89909300
S1133D604329AD89A0934429BE01665F7F4F83E652
S1133D7099E24DDCBE016A5F7F4F87E699E247DC3A
S1133D80B4018BE699E243DCA5E4B9E22D913D91BF
S1133D904D915C912E8B3F8B488F598F2E813F81A3
S1133DA0488559852A8F3B8F4C8F5D8F8A859B85EB
S1133DB0AC85BD85281B390B4A0B5B0BCA01B901C5
S1133DC0AAD76B017C016E857F85888999892E89A4
S1133DD03F89488D598D621B730B840B950B9BD7C0
S1133DE06E877F87888B998B89819A81AB81BC810F
S1133DF0BC01CD012A8D3B8D4C8D5D8D621B730BF7
S1133E00840B950B88D76A8F7B8F8C8F9D8F8091C5
S1133E104D2990914E29A0914F29B09150292E8976
S1133E203F89488D598D281B390B4A0B5B0BCA01FE
S1133E30B90171D76E8B7F8B888F998F2E853F85C3
S1133E4048895989C701B6010E9467276E8F7F8F01
S1133E5088A399A32E893F89488D598D6A8D7B8DBE
S1133E608C8D9D8D0E9467279B01AC016E8D7F8D8B
S1133E7088A199A119D66E8F7F8F88A399A32E85C7
S1133E803F8548895989C701B6010FD62A8D3B8DD4
S1133E904C8D5D8D0AD62E893F89488D598D05D666
S1133EA09B01AC016E8D7F8D88A199A162D6C9D684
S1133EB02ED722EC38EA49E85DE20E946727609336
S1133EC0392970933A2980933B2990933C2929EC12
S1133ED038EE4EE85DE4FBD76093352970933629BC
S1133EE0809337299093382920E030E048EC52E45D
S1133EF0EED7E1D67F936F9381E193E29F938F9303
S1133F000E94BA280F900F900F900F9084CD8EE1ED
S1133F1093E20E94CB2820E030E947E254E260E0DB
S1133F2070E08FE090E00E94171589DA74CD20E0EC
S1133F3030E947E254E260E070E08FE090E00E94F4
S1133F4017157DDA68CD27DDAF92BF92CF92DF924D
S1133F50EF92FF920F931F93CF93DF93A12C0F2E19
S1133F60FCE6BF2EF02D0F2EFCEDCF2EF02D689425
S1133F70DD24D1F8E12CF12C00E010E0282F392FBA
S1133F8040E050E060E070E080E090E00E940628AD
S1133F9029513C4F4F4F5F4F6F4F7F4F8F4F9F4F74
S1133FA0F7D620E030E84BEB55E4E3D54FD6F22FBB
S1133FB0E32F8F2F9E2FA42FB52F0197A109B109AD
S1133FC00097A105B105C9F7DF91CF911F910F911A
S1133FD0FF90EF90DF90CF90BF90AF900895CF9275
S1133FE0DF92EF92FF920F931F9384E18093A829AD
S1133FF080EC98E00E943801C12CD12C760100E2BB
S113400011EA27E030E040E068EA79E280EC98E0E9
S11340100E945101E0ECF8E080818064808380E0BC
S113402090E01F910F91FF90EF90DF90CF90089553
S1134030CF92DF92EF92FF920F931F93C12CD12C5A
S1134040760100EC11EE24EE30E040E068EA79E21B
S113405080EC98E00E9451011F910F91FF90EF9026
S1134060DF90CF9008958F929F92AF92BF92CF929C
S1134070DF92EF92FF920F931F93CF93DF937C0114
S1134080EB0149015A01BDDA6C0168EA79E280EC7E
S113409098E00E949201A701BE0180EC98E00E9482
S11340A07001A401B80180EC98E00E94700168EAF4
S11340B079E280EC98E00E94A801C601A6DA80E0CB
S11340C090E0DF91CF911F910F91FF90EF90DF90DF
S11340D0CF90BF90AF909F908F9008958F929F92B2
S11340E0AF92BF92CF92DF92EF92FF920F931F9302
S11340F0CF93DF937C01EB0149015A0182DA6C0111
S113410068EA79E280EC98E00E949201A701BE017E
S113411080EC98E00E947001A401B80180EC98E062
S11341200E947F0168EA79E280EC98E00E94A8018D
S1134130C6016BDA80E090E0DF91CF911F910F917F
S1134140FF90EF90DF90CF90BF90AF909F908F90B3
S113415008950E94601235D4E0E4F6E088E082839A
S113416094E09283A0E0B6E020E411962C9311979A
S113417030E811963C93A0E2B6E041E011964C93EE
S1134180119742E011964C93A0E8B6E011964C9337
S1134190119712969C93129711968C93A0E6B6E011
S11341A012969C93129711968C9380E1818380E2FE
S11341B08183318322838FB7F894E6E5F6E090811A
S11341C0977090839081906190838FBF089580E46D
S11341D0E0E0F6E0858380E092EEA4E0B0E00197B1
S11341E0A109B1090097A105B105C9F780E8E0E08C
S11341F0F6E0858380E092EEA4E0B0E00197A109A7
S1134200B1090097A105B105C9F781E0E0E2F6E044
S1134210858380E092EEA4E0B0E00197A109B109A2
S11342200097A105B105C9F782E0E0E2F6E08583D5
S113423080E092EEA4E0B0E00197A109B1090097F3
S1134240A105B105C9F780E4E0E0F6E0868380E0EB
S113425092EEA4E0B0E00197A109B1090097A1058D
S1134260B105C9F780E8E0E0F6E0868380E092EEED
S1134270A4E0B0E00197A109B1090097A105B10537
S1134280C9F781E0E0E2F6E0868380E092EEA4E004
S1134290B0E00197A109B1090097A105B105C9F7DB
S11342A082E0E0E2F6E0868380E092EEA4E0B0E013
S11342B00197A109B1090097A105B105C9F780E4E7
S11342C0E0E0F6E0858380E094ECA9E0B0E00197BB
S11342D0A109B1090097A105B105C9F780E8E0E09B
S11342E0F6E0858380E094ECA9E0B0E00197A109B1
S11342F0B1090097A105B105C9F781E0E0E2F6E054
S1134300858380E094ECA9E0B0E00197A109B109AC
S11343100097A105B105C9F782E0E0E2F6E08583E4
S113432080E094ECA9E0B0E00197A109B1090097FD
S1134330A105B105C9F780E4E0E0F6E0868380E0FA
S113434094ECA9E0B0E00197A109B1090097A10597
S1134350B105C9F780E8E0E0F6E0868380E094ECFC
S1134360A9E0B0E00197A109B1090097A105B10541
S1134370C9F781E0E0E2F6E0868380E094ECA9E00E
S1134380B0E00197A109B1090097A105B105C9F7EA
S113439082E0E0E2F6E0868380E094ECA9E0B0E01D
S11343A00197A109B1090097A105B105C9F780E4F6
S11343B0E0E0F6E0858380E096EAAEE0B0E00197C5
S11343C0A109B1090097A105B105C9F780E8E0E0AA
S11343D0F6E0858380E096EAAEE0B0E00197A109BB
S11343E0B1090097A105B105C9F781E0E0E2F6E063
S11343F0858380E096EAAEE0B0E00197A109B109B7
S11344000097A105B105C9F782E0E0E2F6E08583F3
S113441080E096EAAEE0B0E00197A109B109009707
S1134420A105B105C9F780E4E0E0F6E0868380E009
S113443096EAAEE0B0E00197A109B1090097A105A1
S1134440B105C9F780E8E0E0F6E0868380E096EA0B
S1134450AEE0B0E00197A109B1090097A105B1054B
S1134460C9F781E0E0E2F6E0868380E096EAAEE018
S1134470B0E00197A109B1090097A105B105C9F7F9
S113448082E0E0E2F6E0868380E096EAAEE0B0E027
S11344900197A109B1090097A105B105C9F780E405
S11344A0E0E0F6E0858380E098E8A3E1B0E00197DE
S11344B0A109B1090097A105B105C9F780E8E0E0B9
S11344C0F6E0858380E098E8A3E1B0E00197A109D4
S11344D0B1090097A105B105C9F781E0E0E2F6E072
S11344E0858380E098E8A3E1B0E00197A109B109D0
S11344F00097A105B105C9F782E0E0E2F6E0858303
S113450080E098E8A3E1B0E00197A109B109009720
S1134510A105B105C9F780E4E0E0F6E0868380E018
S113452098E8A3E1B0E00197A109B1090097A105BA
S1134530B105C9F780E8E0E0F6E0868380E098E81A
S1134540A3E1B0E00197A109B1090097A105B10564
S1134550C9F781E0E0E2F6E0868380E098E8A3E131
S1134560B0E00197A109B1090097A105B105C9F708
S113457082E0E0E2F6E0868380E098E8A3E1B0E040
S11345800197A109B1090097A105B105C9F70895DB
S113459044E250E064E879E280E090E00C94711326
S11345A0089588EC90E1809384299093852986E688
S11345B090E0809386299093872981E080938829CD
S11345C085E1E9EDF3E2A9E8B9E201900D928A955B
S11345D0E1F785E0EEEEF3E2AEE9B9E201900D9287
S11345E08A95E1F785E0E3EFF3E2A3EAB9E201900B
S11345F00D928A95E1F7CCCF089544E250E064E847
S113460079E280E090E00E94D41280918429909114
S11346108529883C904119F0C4DF81E0089580E049
S113462008958091842990918529089569E879E213
S11346309AC508956EE979E296C5089563EA79E228
S113464092C50895BC0189E899E28DC50895BC011D
S11346508EE999E288C50895BC0183EA99E283C58D
S113466008952F923F924F925F926F927F928F9212
S11346709F92AF92BF92CF92DF92EF92FF920F93ED
S11346801F93CF93DF93CDB7DEB7CB54D109CDBF02
S1134690DEBF18A219A26E0123E2C20ED11C7E0154
S11346A03DE3E30EF11C8E01085C1F4F0F2EF4E86E
S11346B02F2EF9E23F2EF02D0F2EF9E48F2EF4E287
S11346C09F2EF02D0F2EF6E84F2EF9E25F2EF02DDF
S11346D00F2EF5E6AF2EF4E2BF2EF02D3E0182E25E
S11346E0680E711CFE0131962496EEAFFFAF24973D
S11346F09E01255E3F4F26962EAF3FAF2697CE01F3
S1134700469628968EAF9FAF28977F962A96EEAF4F
S1134710FFAF2A972A5F3F4F2C962EAF3FAF2C97BF
S1134720C60184DFC70186DFC80188DF88E194E21F
S113473032D581E394E22FD5F101808191819F9359
S11347408F939F928F9216D5F201808191819F93CE
S11347508F93BF92AF920ED580918829CDBFDEBFD3
S1134760882319F088EF93E202C088E094E29F93D3
S11347708F9380E894E29F938F93FCD4DF92CF923F
S11347808BE994E29F938F93F5D4FF92EF9286EB9B
S113479094E29F938F93EED41F930F9381ED94E251
S11347A09F938F93E7D48CEE94E2F5D48DEF94E24B
S11347B09F938F93DFD47F926F9283E395E29F93CD
S11347C08F9316D5CDBFDEBF8AA1833009F459C0BB
S11347D028F4813061F0823041F1B1C0853009F4B0
S11347E088C008F46AC0863009F49FC0A8C086E374
S11347F095E29F938F93BED42A969FAD2A979F9359
S11348002996EFAD2997EF9383E395E29F938F93D6
S1134810EFD488A190E0F201808391830F900F90F0
S11348200F900F900F900F9085C08BE495E29F93AB
S11348308F93A0D42C96FFAD2C97FF932B962FAD7E
S11348402B972F9383E395E29F938F93D1D481E0A9
S11348500F900F900F900F900F900F9098A19130A0
S113486009F480E0882349F081E099A1911101C005
S113487080E0882311F081E089A389A180938829AD
S113488059C082E895E29F938F9374D424963FADE8
S113489024973F9323968FAD23978F9380EA95E2D5
S11348A09F938F93A5D4CE010196CCDE0F900F90E9
S11348B00F900F900F900F903DC085EA95E29F9363
S11348C08F9358D428969FAD28979F932796EFAD42
S11348D02797EF9380ED95E29F938F9389D4CE0130
S11348E04696B5DE0F900F900F900F900F900F909B
S11348F021C084ED95E29F938F933CD42696FFAD1F
S11349002697FF9325962FAD25972F9380ED95E25B
S11349109F938F936DD4CE014B969EDE0F900F9094
S11349200F900F900F900F9005C032DE8EEF95E23E
S113493032D409C030E0332309F4F2CE04C080E05D
S1134940882309F4EDCEC55BDF4FCDBFDEBFDF9119
S1134950CF911F910F91FF90EF90DF90CF90BF9078
S1134960AF909F908F907F906F905F904F903F900B
S11349702F900895CF93C82F8A3021F48DE090E0D2
S11349800E94A6048C2F992787FD90950E94A60467
S113499080E090E0CF9108950F931F93CF93DF931E
S11349A08C010E94E5038823E1F30E943104EC01A9
S11349B0B801E0DFCE019927DF91CF911F910F91CC
S11349C0089587E0E0EAF0E0828378940E949405F9
S11349D00E94750E85EF90E28093AB299093AC29E9
S11349E08093A9299093AA290895CF93DF93CDB7F3
S11349F0DEB72797CDBFDEBFACDBF1DA80910721AC
S1134A008D83809108218E83809109218F838091E9
S1134A10032190910421A0910521B091062189835D
S1134A209A83AB83BC8360E185E00E94AD12BE0132
S1134A306F5F7F4F80EA9AE00E94EA0AC8DB0E9417
S1134A40481B80E09AE6A8E1B0E00197A109B1090A
S1134A500097A105B105C9F776DACFDD182FE1DD9E
S1134A609F938F931F921F938FE796E29F938F9349
S1134A7081D3F7DD0F900F900F900F900F900F9050
S1134A80E0E0F6E060E450E049E03DE320E06783E5
S1134A90852F942FA32FB22F0197A109B109009755
S1134AA0A105B105C9F7F3CF5058BB27AA270ED0EB
S1134AB0D4C1C5D130F0CAD120F031F49F3F11F4F4
S1134AC01EF4AAC10EF4E095E7FBA0C1E92FD6D1EC
S1134AD080F3BA17620773078407950718F071F417
S1134AE09EF5EEC10EF4E0950B2EBA2FA02D0B010E
S1134AF0B90190010C01CA01A0011124FF27591B1F
S1134B0099F0593F50F4503E68F11A16F040A22F24
S1134B10232F342F4427585FF3CF46953795279595
S1134B20A795F0405395C9F77EF41F16BA0B620B94
S1134B30730B840BBAF09150A1F0FF0FBB1F661FDB
S1134B40771F881FC2F70EC0BA0F621F731F841F1E
S1134B5048F4879577956795B795F7959E3F08F044
S1134B60B3CF9395880F08F09927EE0F9795879503
S1134B7008950CD072C16AD140F061D130F021F4B3
S1134B805F3F19F043C151119CC146C177D198F3DD
S1134B909923C9F35523B1F3951B550BBB27AA27BA
S1134BA062177307840738F09F5F5F4F220F331F2C
S1134BB0441FAA1FA9F333D00E2E3AF0E0E830D0F8
S1134BC091505040E695001CCAF729D0FE2F27D0FB
S1134BD0660F771F881FBB1F261737074807AB07C9
S1134BE0B0E809F0BB0B802DBF01FF2793585F4F3E
S1134BF02AF09E3F510568F009C163C15F3FECF3A1
S1134C00983EDCF3869577956795B795F7959F5F02
S1134C10C9F7880F911D9695879597F90895E1E056
S1134C20660F771F881FBB1F621773078407BA07B5
S1134C3020F0621B730B840BBA0BEE1F88F7E09510
S1134C400895BEE304D008F490E80895BFE3222752
S1134C503327A9011BD158F19F5740F1B91738F1F7
S1134C60BFE3B91B9927B8503AF4660F771F881F22
S1134C70991FB395D2F316C0B8504AF0232F342F9E
S1134C80452F562F672F782F8827B850BAF7B85F6B
S1134C9049F0869577956795579547953795279564
S1134CA0BA95B9F70EF4BBD088940895889460E05F
S1134CB070E0CB010895EAD088F09F5790F0B92FA7
S1134CC09927B751A0F0D1F0660F771F881F991F5D
S1134CD01AF0BA95C9F712C0B13081F0F1D0B1E041
S1134CE00895EEC0672F782F8827B85F39F0B93F51
S1134CF0CCF3869577956795B395D9F73EF490955F
S1134D008095709561957F4F8F4F9F4F089597FBC6
S1134D100EF485D03EC0E89409C097FB3EF490950C
S1134D208095709561957F4F8F4F9F4F9923A9F080
S1134D30F92F96E9BB279395F6958795779567950F
S1134D40B795F111F8CFFAF4BB0F11F460FF1BC053
S1134D506F5F7F4F8F4F9F4F16C0882311F096E9E6
S1134D6011C0772321F09EE8872F762F05C0662394
S1134D7071F096E8862F70E060E02AF09A95660F4D
S1134D80771F881FDAF7880F9695879597F9089506
S1134D90E894F92F96EBFF2381F0121613061406FC
S1134DA0440B9395F695879577956795579540406D
S1134DB0FF23B9F71BC099270895882351F498500D
S1134DC0D2F7872B762F652F542F432F322F20E0D5
S1134DD0B1F3121613061406440B88233AF09A957D
S1134DE0440F551F661F771F881FCAF755234AF4BF
S1134DF0440F551F11F460FF04C06F5F7F4F8F4F46
S1134E009F4F880F9695879597F9089597F99F670F
S1134E1080E870E060E008959FEF80EC089590953D
S1134E2080957095609550954095309521953F4FAC
S1134E304F4F5F4F6F4F7F4F8F4F9F4F0895002409
S1134E400A941616170618060906089500240A94EB
S1134E5012161306140605060895092E0394000C71
S1134E6011F4882352F0BB0F40F4BF2B11F460FF00
S1134E7004C06F5F7F4F8F4F9F4F089557FD905829
S1134E80440F551F59F05F3F71F04795880F97FB0A
S1134E90991F61F09F3F79F08795089512161306C4
S1134EA01406551FF2CF4695F1DF08C016161706F3
S1134EB01806991FF1CF8695710561050894089528
S1134EC0E894BB2766277727CB0197F908950BD081
S1134ED0C4CFB5DF28F0BADF18F0952309F096CFD8
S1134EE09BCF1124EECFCADFA0F3959FD1F3950F8A
S1134EF050E0551F629FF001729FBB27F00DB11D5A
S1134F00639FAA27F00DB11DAA1F649F6627B00DE9
S1134F10A11D661F829F2227B00DA11D621F739FD2
S1134F20B00DA11D621F839FA00D611D221F749FE0
S1134F303327A00D611D231F849F600D211D822F27
S1134F40762F6A2F11249F5750408AF0E1F088236E
S1134F504AF0EE0FFF1FBB1F661F771F881F91507B
S1134F605040A9F79E3F510570F050CFAACF5F3F44
S1134F70ECF3983EDCF3869577956795B795F795AE
S1134F80E7959F5FC1F7FE2B880F911D9695879536
S1134F9097F90895AA1BBB1B51E107C0AA1FBB1FA9
S1134FA0A617B70710F0A61BB70B881F991F5A95B1
S1134FB0A9F780959095BC01CD010895A1E21A2E20
S1134FC0AA1BBB1BFD010DC0AA1FBB1FEE1FFF1FA9
S1134FD0A217B307E407F50720F0A21BB30BE40BF9
S1134FE0F50B661F771F881F991F1A9469F7609540
S1134FF07095809590959B01AC01BD01CF010895FA
S1135000EE0FFF1F0590F491E02D0994DF93CF93E9
S11350101F930F939A9DF02D219FF00D8B9DF00D02
S11350208A9DE02DF10D039FF00D029FE00DF11D0F
S11350304E9DE00DF11D5E9DF00D4F9DF00D7F9393
S11350406F93BF92AF925F934F93D50167D08B015B
S1135050AC01D70163D0EB01E80FF91FD6011FD0D3
S11350602F913F91D6015AD0C60FD71FE81FF91FC1
S1135070AF91BF9114D02F913F9150D0C60FD71F3D
S1135080E81FF91FD6014AD0E60FF71F9801BE01A9
S1135090CF0111240F911F91CF91DF9108953ED03C
S11350A0460F571FC81FD91F08F4319608950F9350
S11350B0083090F0982F872F762F652F542F432F89
S11350C0322F22270850F4CF220F331F441F551FBD
S11350D0661F771F881F991F0A95B2F70F910895CD
S11350E097FB10F8169400080F93083098F00850B6
S11350F0232F342F452F562F672F782F892F902D4C
S1135100F4CF059497958795779567955795479527
S1135110379527950A95AAF70F910895A29FB00194
S1135120B39FC001A39F700D811D1124911DB29FD7
S1135130700D811D1124911D0895FB01DC0104C033
S11351408D910190801921F441505040C8F7881B7B
S1135150990B0895FB01DC0102C001900D924150AE
S11351605040D8F70895FB01DC0101900D92002016
S1135170E1F70895A0E0B0E0EFEBF8E2C8C5FE0166
S1135180359661917191AF018091AB299091AC29D1
S113519040D0E2E0D5C50F931F93CF93DF93E09106
S11351A0AB29F091AC29238121FF1BC0EC0100E065
S11351B010E089916091AB297091AC29DB011896BC
S11351C0ED91FC911997882331F00995892B89F386
S11351D00FEF1FEFEECF8AE00995892B11F4C80178
S11351E002C08FEF9FEFDF91CF911F910F91089530
S11351F0A0E0B0E0EDEFF8E28AC5FE0135966191DA
S11352007191AF018091A9299091AA2934D3E2E048
S113521097C5ACE0B0E0EEE0F9E269C57C016B0152
S11352208A01FC0116821782838181FFB0C1CE01FD
S113523001964C01F7019381F60193FD859193FF4B
S113524081916F01882309F49EC1853239F493FD5D
S1135250859193FF81916F01853221F4B70190E02C
S11352609AD4E8CF512C312C20E02032A0F48B3298
S113527069F030F4803259F0833269F420612CC033
S11352808D3239F0803339F4216026C022602460E5
S113529023C0286021C027FD27C030ED380F3A30E5
S11352A078F426FF06C0FAE05F9E300D1124532ED9
S11352B013C08AE0389E300D1124332E20620CC0B6
S11352C08E3221F426FD5FC1206406C08C3611F4B1
S11352D0206802C0883641F4F60193FD859193FF5E
S11352E081916F018111C1CF982F9F7D9554933087
S11352F028F40C5F1F4FFFE3F9830DC0833631F0B0
S1135300833771F0833509F057C021C0F8018081DB
S113531089830E5F1F4F44244394512C540114C0BD
S11353203801F2E06F0E711CF801A080B18026FFF5
S113533003C0652D70E002C06FEF7FEFC5012C87BD
S1135340E1D32C0183012C852F77222E16C038013E
S1135350F2E06F0E711CF801A080B18026FF03C03B
S1135360652D70E002C06FEF7FEFC5012C87BFD3BE
S11353702C012C852068222E830123FC19C0832D47
S113538090E048165906A0F4B70180E290E003D4F7
S11353903A94F5CFF50127FC859127FE81915F01B1
S11353A0B70190E0F8D331103A94F1E04F1A510864
S11353B04114510479F7DEC0843611F0893631F591
S11353C0F80127FF07C060817181828193810C5F9E
S11353D01F4F08C060817181882777FD8095982FC1
S11353E00E5F1F4F2F76B22E97FF09C090958095C0
S11353F0709561957F4F8F4F9F4F2068B22E2AE0A2
S113540030E0A40113D4A82EA81843C0853729F48A
S11354102F7EB22E2AE030E025C0F22FF97FBF2E76
S11354208F36C1F018F4883579F0ADC0803719F0A3
S1135430883721F0A8C02F2F2061B22EB4FE0DC0F2
S11354408B2D8460B82E09C024FF0AC09F2F96605C
S1135450B92E06C028E030E005C020E130E002C0EB
S113546020E132E0F801B7FE07C0608171818281DA
S113547093810C5F1F4F06C06081718180E090E0D2
S11354800E5F1F4FA401D2D3A82EA818FB2DFF77BF
S1135490BF2EB6FE0BC02B2D2E7FA51450F4B4FEE8
S11354A00AC0B2FC08C02B2D2E7E05C07A2C2B2DF1
S11354B003C07A2C01C0752C24FF0DC0FE01EA0D37
S11354C0F11D8081803311F4297E09C022FF06C0BA
S11354D07394739404C0822F867809F0739423FD27
S11354E012C020FF06C05A2C731418F4530C57181A
S11354F0732C731460F4B70180E290E02C874BD3D3
S113550073942C85F6CF731410F4371801C0312C22
S113551024FF11C0B70180E390E02C873CD32C8595
S113552022FF16C021FF03C088E590E002C088E78F
S113553090E0B7010CC0822F867851F021FD02C0A3
S113554080E201C08BE227FD8DE2B70190E023D316
S1135550A51430F4B70180E390E01DD35A94F8CF3A
S1135560AA94F401EA0DF11D8081B70190E013D3F0
S1135570A110F6CF332009F45DCEB70180E290E0AC
S11355800AD33A94F7CFF7018681978102C08FEF4F
S11355909FEF2C96E2E1C4C320FD09C0FC0123FD6A
S11355A005C022FF02C07383628351834083089540
S11355B044FD10C046FD10C0DB01FC01AA0FBB1F57
S11355C0EE1FFF1F1094D1F76A0F7B1F8E1F9F1FC2
S11355D031E003C033E001C034E0660F771F881F59
S11355E0991F3150D1F7620F711D811D911D0895CE
S11355F00F931F93CF93DF938C01C8018ED2EC01DC
S113560097FD06C061D2892BC1F7B801CE01F5D24E
S1135610CE01DF91CF911F910F9108958F929F92A8
S1135620AF92CF92DF92EF92FF920F931F93CF939B
S1135630DF93EC01A62E4A01022F6FD2AC0155274D
S11356404B32510521F04D32510549F40068AA94BA
S113565011F480E060C0CE0160D297FDFACF102F24
S11356601D7F302F3073F1F48033E1F4FF24FA947A
S1135670FA0C09F43DC0CE0150D297FD39C0382F41
S11356803F7D383549F41264AA94AA9489F1CE0175
S113569044D297FF07C02CC006FF02C0126001C0AD
S11356A01261AF2CC12CD12C760120ED280F2830AB
S11356B078F014FF03C0BE01A0D217C02A3040F016
S11356C016FFF9CF2F7D3FEE320F3630A0F727506B
S11356D0412FC701B6016CDF6B017C011260AA94F3
S11356E051F0CE011AD297FFE0CF11FD04C0B1CF23
S11356F0C12CD12C760117FF08C0F094E094D0940B
S1135700C094C11CD11CE11CF11C212FB701A601BE
S1135710C40142DF81E0DF91CF911F910F91FF908F
S1135720EF90DF90CF90AF909F908F900895A1E27B
S1135730B0E0ECE9FBE2E0C25C017A018E010F5FAC
S11357401F4F680180E2D8011D928A95E9F7F5019F
S1135750738040E050E0812CB0E0912C81E090E037
S1135760F90173FCA59173FEA1918F017A2F9F011A
S1135770A11103C080E090E07BC0AE3519F441155F
S1135780510559F1E92DF0E0E417F5073CF4AD3586
S113579069F1AD3219F4BB2319F103C0B11101C091
S11357A08A2EE72FE695E695E69586010E0F111DE4
S11357B0F801A72FA7708C0102C0000F111FAA9532
S11357C0E2F7D801B081BA2BB083781559F0781577
S11357D010F47F5FE6CF7150E4CF9924939403C013
S11357E0B1E001C0B0E04F5F5F4FBACFBB2319F007
S11357F08E8180628E83911003C09924939415C086
S1135800F601CE018196208120952193E817F907AE
S1135810D1F7F3CFE114F10429F0D7018C93F70108
S113582031967F016150F1F0912CC50169A375D1C6
S113583069A197FD15C0282F269526952695F60172
S1135840E20FF11D208130E0AC014770552702C002
S1135850359527954A95E2F720FDDCCFB501CDD1EA
S1135860911088CFE114F10411F0D7011C92C80102
S1135870A196EDE05AC24F925F927F928F929F92CF
S1135880AF92BF92CF92DF92EF92FF920F931F934A
S1135890CF93DF931F92CDB7DEB78C012B017A0132
S11358A0FC0116821782A12CF801D380F201D3FCEB
S11358B08591D3FE8191382F2F01882309F4EEC0FE
S11358C090E0398301D13981892B19F0C80190DE28
S11358D0EBCF353241F4F201D3FC3591D3FE319153
S11358E02F01353259F4C801398317D1398197FD15
S11358F0D3C03817C9F2B80180D1D0C03A3241F4CC
S1135900D3FC3591D3FE31912F01BB24B39401C054
S1135910B12C712C20ED230F2A3088F4FB2DF2607A
S1135920BF2E672D70E080E090E040E241DE762EED
S1135930F201D3FC3591D3FE31912F01EBCFB1FEAF
S113594003C0711003C0AAC077247A94383619F0C2
S11359503C3661F014C0F201D3FC3591D3FE319191
S11359602F01383661F4FB2DF860BF2E8B2D846037
S1135970B82EF201D3FC3591D3FE31912F0133239C
S113598009F48CC0632F70E088E292E03983A4D0DC
S11359903981892B09F482C0B0FC07C0F701C080AB
S11359A0D180C70102967C0102C0C12CD12C3E36A5
S11359B049F4F8014681578160E070E02B2DC6015F
S11359C0EBDD72CF333699F4B1FC02C077247394C3
S11359D0C801A3D097FD60C0C114D10429F0F60119
S11359E08083C60101966C017A9491F751C03B35CE
S11359F051F49201A601672DC80199DE2C0100978C
S1135A0009F046C040C0C8013983F2DD398197FDF1
S1135A1043C03F3651F128F4343619F1393661F177
S1135A2028C0333769F03537E1F023C0C114D104FD
S1135A3029F0F6018082C60101966C017A9459F02E
S1135A40C8016BD04C0197FD06C03ED0892B71F381
S1135A50B801C401D2D0C114D104D1F0F60110822E
S1135A6017C0FB2DF062BF2E07C08B2D8061B82EAE
S1135A7003C09B2D9064B92E2B2DA601672DC80160
S1135A80CDDD811105C0F8018381807329F406C03E
S1135A90B0FC0ACFA39408CFAA2019F08A2D90E075
S1135AA002C08FEF9FEF0F90DF91CF911F910F9165
S1135AB0FF90EF90DF90CF90BF90AF909F908F902A
S1135AC07F905F904F90089591110EC1803219F02C
S1135AD089508550D0F70895FC010590061621F0F1
S1135AE00020D9F7C00108953197CF010895FC0132
S1135AF00590615070400110D8F7809590958E0FF5
S1135B009F1F0895FC016150704001900110D8F767
S1135B10809590958E0F9F1F0895CF93DF93EC018E
S1135B202B8120FF33C026FF0AC02F7B2B838E815D
S1135B309F8101968E839F838A8190E029C022FFF2
S1135B400FC0E881F9818081992787FD909500979E
S1135B5019F420622B831AC03196E883F9830EC0AE
S1135B60EA85FB85099597FF09C02B81019611F4FD
S1135B7080E101C080E2822B8B8308C02E813F81AB
S1135B802F5F3F4F2E833F83992702C08FEF9FEFF4
S1135B90DF91CF9108950F931F93CF93DF93182F25
S1135BA0092FEB018B8181FD03C08FEF9FEF20C094
S1135BB082FF10C04E815F812C813D8142175307C3
S1135BC07CF4E881F9819F012F5F3F4F288339835B
S1135BD0108306C0E885F985812F0995892B29F75B
S1135BE02E813F812F5F3F4F2E833F83812F902F44
S1135BF0DF91CF911F910F910895FB01238120FF25
S1135C0012C026FD10C08F3F3FEF930761F08283DF
S1135C102F7D2064238326813781215031092683F7
S1135C203783992708958FEF9FEF0895FA01AA27E4
S1135C30283051F1203181F1E8946F936E7F6E5FCB
S1135C407F4F8F4F9F4FAF4FB1E03ED0B4E03CD079
S1135C50670F781F891F9A1FA11D680F791F8A1F5C
S1135C60911DA11D6A0F711D811D911DA11D20D0C3
S1135C7009F468943F912AE0269F11243019305D7D
S1135C803193DEF6CF010895462F4770405D41936E
S1135C90B3E00FD0C9F7F6CF462F4F70405D4A33BB
S1135CA018F0495D31FD4052419302D0A9F7EACF83
S1135CB0B4E0A6959795879577956795BA95C9F7B2
S1135CC000976105710508959B01AC010A2E0694A5
S1135CD05795479537952795BA95C9F7620F731F5E
S1135CE0841F951FA01D08959927882708952F9232
