S00E00004F6E65506F732E73726563C2
S113000021C100003CC100003AC1000038C1000019
S113001036C1000034C1000032C1000030C100000C
S11300202EC100002CC100002AC1000028C100001C
S113003026C100000C94720922C1000020C10000F6
S11300401EC100001CC100001AC1000018C100003C
S113005016C1000014C1000012C1000010C100004C
S11300600EC100000CC100000AC1000008C100005C
S113007006C1000004C1000002C1000000C100006C
S1130080FEC00000FCC00000FAC00000F8C0000080
S1130090F6C00000F4C00000F2C00000F0C0000090
S11300A0EEC00000ECC00000EAC00000E8C00000A0
S11300B0E6C00000E4C000000C949509E0C0000014
S11300C0DEC00000DCC00000DAC00000D8C00000C0
S11300D0D6C00000D4C00000D2C00000D0C00000D0
S11300E0CEC00000CCC00000CAC00000C8C00000E0
S11300F0C6C00000C4C00000C2C00000C0C00000F0
S1130100BEC00000BCC00000BAC00000B8C00000FF
S1130110B6C00000B4C00000B2C00000B0C000000F
S1130120AEC00000ACC00000AAC00000A8C000001F
S1130130A6C00000A4C00000A2C00000A0C000002F
S11301409EC000009CC000009AC0000098C000003F
S113015096C0000094C0000092C0000090C000004F
S11301600C94C1278CC000008AC0000088C0000025
S113017086C0000084C0000082C0000080C000006F
S11301807EC000007CC000007AC0000078C000007F
S113019076C0000074C0000072C0000070C000008F
S11301A06EC000006CC000006AC0000068C000009F
S11301B066C0000064C0000062C0000060C00000AF
S11301C05EC000005CC000005AC0000058C00000BF
S11301D056C0000054C0000052C0000050C00000CF
S11301E04EC000004CC000004AC0000048C00000DF
S11301F046C000000C94A0100C945611B40CA20C30
S1130200A50CA80CAB0CAE0CB10C6D1968197219C5
S1130210971997199719971977197F199719971992
S113022086198A198E199319222767267626972606
S1130230B326C826E42603276364696E6F7073755A
S113024078585B0011241FBECFEFCDBFDFE2DEBFC5
S113025018E2A0E0B0E2EAE7F4E602C005900D92ED
S1130260A436B107D9F72CE2A4E6B8E201C01D9286
S1130270A93DB207E1F70E9487280C943B32C0CE17
S1130280CF93DF93EC01C03C28E0D20729F468E067
S113029083E00E948D1207C0803C994021F468E0FD
S11302A084E00E948D12888180618883DF91CF91E0
S11302B00895FF920F931F93CF93DF93EC01F42ED5
S11302C0B901A80100E01CE62CED32E026D7882312
S11302D04CF088819F2D990F990F9C70837FF92E84
S11302E0F82AF882DF91CF911F910F91FF90089522
S11302F0FC01DB01460F571F05C08D91838382816A
S11303008823ECF7A417B507C1F780E00895FC0132
S1130310DB014115510561F0460F571F9FEF938391
S113032082818823ECF783818D93A417B507B9F7ED
S113033080E00895FB018081E82FE695E695E69537
S113034040E2E49FF0011124FA5F877021E030E07D
S1130350A90102C0440F551F8A95E2F74683089508
S1130360FB018081E82FE695E695E69540E2E49F5F
S1130370F0011124FA5F877021E030E0A90102C086
S1130380440F551F8A95E2F74583089510927A2900
S1130390109286291092872981EA80937C2980E231
S11303A080937D2910927E2910927F2910928029B2
S11303B01092812982E090E080938229909383298E
S11303C0109284291092852980E092ECA1E0B0E09B
S11303D08093882990938929A0938A29B0938B29A3
S11303E010928C2910928D2988E080938E29809117
S11303F07A298F5F80937A2981E0089580917A2900
S1130400815080937A29089580917929815080932D
S113041079298091792910927829089580E00895A6
S113042080E0089580917E2B8823DCF480768032EE
S1130430E9F580917F2B8132D9F58091842B9091BD
S1130440852B0797B9F588E899E28093862B9093DA
S1130450872B87E090E08093882B9093892B81E011
S113046008958076803241F580917F2B803221F08F
S1130470823221F581E008958091842B9091852B1F
S11304800797F1F482E692E080938A2B90938B2B6A
S113049088E899E28093862B9093872B87E090E0FD
S11304A08093882B9093892B81E0089580E00895B0
S11304B080E0089580E0089580E0089580E0089544
S11304C080E008950895FF920F931F93CF93DF93D5
S11304D08091672881119CC00E94E20E882351F00C
S11304E0C0916828D09169280E94EF0EC817D907D7
S11304F059F48EC0C0916828D09169280E94EA0EF0
S1130500C817D90709F484C0DFB7F894C0916A28E2
S1130510EC2FF0E0EE0FFF1FE559F74D808191813C
S1130520892B09F580916428909165280196809320
S11305306428909365280E94E20E811107C080917F
S11305406428909165288436910558F00E94E20E43
S1130550882349F0809164289091652880329340E3
S113056010F4DFBF55C01092642810926528809162
S11305706628811106C081E0C11180E080936A2859
S113058004C081E0C11180E0C82F81E08093672816
S1130590DFBFD0E0FE01EE0FFF1FE559F74DFF244A
S11305A0F394808191818034910509F4F12CFF202A
S11305B091F00E94E20E882339F00E94EF0E80939E
S11305C06828909369280BC00E94EA0E80936828DB
S11305D09093692804C01092682810926928FE013B
S11305E0EE0FFF1FE559F74D20813181AE01002444
S11305F0569547950794569547950794542F402D43
S11306004059574D0EE013E06F2D81E80E94A10F71
S1130610DF91CF911F910F91FF900895811115C023
S113062020916A2881E090E0222311F080E090E09C
S1130630FC01EE0FFF1FE559F74D10821182109255
S113064066281092672880E03ECF089580E03BCF73
S113065008954FB7F8942091F1283091F228E09151
S1130660F328F0E0EE0FFF1FEC50F74D80819181ED
S1130670821B930B4FBF0895ECDF21E0892B09F413
S113068020E0822F08950F931F93CF93DF934FB7EA
S1130690F8945091F3288091F028811110C0209192
S11306A0F1283091F228C52FD0E0FE01EE0FFF1F94
S11306B0EC50F74D808191812817390718F44FBF0A
S11306C080E023C01092F1281092F22881E05111A9
S11306D080E08093F32881E08093F0284FBF80E08E
S11306E0CBDFAE0100245695479507945695479560
S11306F00794542F402D4850574D0CEB13E020E441
S113070030E061E082E00E94A10FDF91CF911F9160
S11307100F910895109279291092672810926628F3
S113072010926A2810926B2810926C2810926D28EF
S113073010926E28109268281092692880E0C3DE17
S11307401092F0281092F3281092F4281092F528B1
S11307501092F1281092F22880E095DF882359F056
S1130760909179299F5F909379299091792991307B
S113077011F49093782908950F931F93942F811166
S113078029C08091F328E1E08111E0E06115710551
S1130790B1F4F0E00024F695E7950794F695E79513
S11307A00794FE2FE02DAF014850574D0CEB13E09A
S11307B020E430E061E0892F0E94A10F0BC0F0E03B
S11307C0EE0FFF1FEC50F74D608371831092F028F9
S11307D080E059DF1F910F91089580E04DCF089577
S11307E01F93CF93DF9311E080918E29893009F014
S11307F010E060E070E03FB7F8948091F1289091A8
S1130800F2282091F3283FBF30E0F901EE0FFF1FDB
S1130810EC50F74D408151818417950730F0809159
S113082078298111E8CF90E020C0F9010024F695E1
S1130830E7950794F695E7950794FE2FE02DE80FCA
S1130840F91FE850F74D2081EB01C22B01968093EC
S1130850F1289093F22880E016DF112321F07C2FF9
S1130860662710E0C8CF8C2F9D2FDF91CF911F9169
S1130870089580E0B5CF08959FB7F89480916A28D1
S1130880E82FF0E0EE0FFF1FE559F74D208131818D
S11308902034310589F44091672841110DC04091FD
S11308A06628411109C021E020936628811120E0C7
S11308B020936A2820E030E09FBF80E490E0821B10
S11308C0930B0895D9DF21E0892B09F420E0822FCE
S11308D008951F93CF93DF93162FC72FD1E08091F4
S11308E08E29893009F0D0E080E0ECDF811107C067
S11308F0809178298111F8CF80E090E02BC06FB708
S1130900F89420916A2830E0F901EE0FFF1FE559B1
S1130910F74D80819181AC014F5F5F4F40835183DC
S1130920F9010024F695E7950794F695E795079461
S1130930FE2FE02D8E0F9F1FFC01E059F74D108311
S11309406FBFDD2329F01C2FCC0FCC0BD0E0CCCF14
S113095081E090E0DF91CF911F910895BC0180E088
S1130960B8CF0895E0919429F09195290190F081F0
S1130970E02D228133812E0F3F1FFC014081E40FC3
S1130980F11DE217F307A0F481818430A1F08613EE
S113099006C014C081818430A1F08617A9F080813B
S11309A0E80FF11DE217F307A8F380E090E0089543
S11309B080E090E0089580E090E008958E2F9F2FCE
S11309C0089580E090E008958E2F9F2F08958091E0
S11309D0802B8F770C94E40E089590919629992397
S11309E081F1E0919429F09195290190F081E02D15
S11309F09481891740F5E0939229F09393292281F9
S1130A0033812E0F3F1FE217F307F8F491819430DE
S1130A1061F49281981309C09381961306C0E09300
S1130A209229F093932981E008959081E90FF11DB3
S1130A30E217F30758F3E0939229F093932980E0A7
S1130A40089580E0089580E0089580E00895FF927D
S1130A500F931F93CF93DF93C82F60E0BEDFF82E70
S1130A60882381F1A0919429B0919529EC2FF0E08D
S1130A70EE0FFF1F12962D913C911397E20FF31F77
S1130A8000811181D8011696ED91FC911797099573
S1130A90682F8C2FA2DFF82E8823A1F0C091922911
S1130AA0D091932965E0CE015DDFEC01009721F040
S1130AB08A810E946210F6CFD8011296ED91FC91C2
S1130AC0139709958F2DDF91CF911F910F91FF906F
S1130AD008951F93CF93DF93182F7FDF882341F16D
S1130AE0C0919229D091932965E0CE013BDFEC01BE
S1130AF0009749F04C815D816B818A810E94FB0ED5
S1130B008111F2CF15C0A0919429B0919529812F1C
S1130B1090E0880F991F1296ED91FC911397E80FBE
S1130B20F91F0190F081E02D0190F081E02D0995ED
S1130B30DF91CF911F9108950C94780E0895CF936F
S1130B40809196298823C1F0E0919429F091952908
S1130B500190F081E02D8481882371F0C0E08C2F16
S1130B6076DFCF5FE0919429F09195290190F0818F
S1130B70E02D8481C81798F31092962981E090E0C3
S1130B8080939A2990939B29CF910895CF93809134
S1130B909629882341F1E0919429F0919529A08127
S1130BA0B18114968C918823F1F0C0E08C2F90E0F1
S1130BB0880F991F0280F381E02DE80FF91F01903F
S1130BC0F081E02D0084F185E02D309709F009953E
S1130BD0CF5FE0919429F0919529A081B181149679
S1130BE08C91C81718F3CF910895EF92FF920F9349
S1130BF01F93CF93DF931092882B1092892B10921E
S1130C008A2B10928B2B10928C2B10928D2B20916F
S1130C107E2B22230CF06FC28091842B9091852B24
S1130C20009709F06DC263C22F7109F091C0309131
S1130C307F2B363089F0383009F47EC0311188C0FA
S1130C40029741F462E070E08AE999E20E94F20EB0
S1130C5001E0D0C100E0CEC12091802B3091812BE6
S1130C60832F992782309105A1F01CF4019739F064
S1130C7059C083309105E9F10F9769F153C0809110
S1130C80182090911920DC016C9170E00E94F20E02
S1130C9038C0E0911820F09119208189281708F0B4
S1130CA043C0C9019927880F991F880F991FE091A4
S1130CB01A20F0911B20E80FF91F80819181FC011B
S1130CC0628173810E94F20EE091862BF091872B52
S1130CD082E0818316C080911C2090911D20009792
S1130CE029F1DC0112966D917C9113970E94F20E0A
S1130CF008C021111DC064E070E084E190E20E940C
S1130D00F20E8091842B9091852B2091882B309129
S1130D10892B8217930770F48093882B9093892BE7
S1130D2001E068C100E066C100E064C100E062C1A6
S1130D3000E060C101E05EC1019741F461E070E050
S1130D4086E999E20E94F20E01E054C100E052C12A
S1130D50213009F040C030917F2B3A30E1F5019702
S1130D60A1F580919629882391F1C091822BD0918D
S1130D70832BE0909429F0909529D701ED91FC9173
S1130D808481C81730F560E08C2F27DE082F882374
S1130D9009F430C1CE019927880F991FD701129603
S1130DA0ED91FC911397E80FF91F0190F081E02D6C
S1130DB00680F781E02D09958093982961E070E021
S1130DC088E999E20E94F20E15C100E013C100E027
S1130DD011C100E00FC1223009F00EC120917F2B18
S1130DE0211103C1029781F48091822B0E945C0F30
S1130DF090E0809390299093912962E070E080E9DB
S1130E0099E2F0D701E0F6C000E0F4C02F7109F0D8
S1130E1090C080917F2B833009F4E9C018F48130AD
S1130E20B1F087C0853019F0893061F182C08091BA
S1130E30842B9091852B892B41F487EE94E0809349
S1130E408A2B90938B2B01E0D5C000E0D3C0809116
S1130E50842B9091852B892B89F48091802B909100
S1130E60812B019769F480919A2990919B298D7F18
S1130E7080939A2990939B2901E0BCC000E0BAC0FA
S1130E8000E0B8C08091842B9091852B892B09F0C8
S1130E9046C09DD7882309F444C02091802B30910B
S1130EA0812B3327E0911820F0911920818990E05B
S1130EB082179307C0F143DE8091802B9091812BA0
S1130EC080939629882389F199278150904C880F23
S1130ED0991F880F991FE0911A20F0911B20E80FA9
S1130EE0F91FE0939429F09395290190F081E02D66
S1130EF084818823E1F0C0E060E08C2FEADD082FD4
S1130F00882309F477C0CF5FE0919429F091952963
S1130F100190F081E02D8481C81770F36BC000E06C
S1130F2069C000E067C000E065C001E063C001E0A3
S1130F3061C0213009F580917F2B8B30E9F48091D9
S1130F40842B9091852B892B99F480919629882361
S1130F5089F0C091822BD091802B8C2F78DD082FC3
S1130F60882309F447C06D2F8C2FB3DD082F42C0AE
S1130F7000E040C000E03EC0223009F03DC0809156
S1130F807F2B813019F08330B1F033C08091842BF2
S1130F909091852B892B59F48091802B9091812BF2
S1130FA0892B39F48091822BA2D7082F23C000E02B
S1130FB021C000E01FC08091842B9091852B892B48
S1130FC081F48091802B9091812B892B61F4C2E86C
S1130FD0DBE288810E94291088810E947F10082FFB
S1130FE009C000E007C000E005C000E003C000E065
S1130FF001C000E0011189C080917E2B8F71813086
S1131000C1F5809196298823A1F1C091822BD091BA
S1131010832B0091942910919529D801ED91FC918D
S11310208481C81730F560E08C2FD7DC882309F160
S1131030CE019927880F991FD8011296ED91FC9142
S11310401397E80FF91F00811181D8011696ED91CD
S1131050FC9117970995682F8C2FBFDC882349F0E2
S1131060D8011496ED91FC9115970995082F8111DB
S11310704CC080917E2B8F718230D9F58091962956
S1131080882389F1E0919429F0919529A081B18177
S113109014968C91882349F110E0212F30E0220F1F
S11310A0331F0280F381E02DE20FF31FC081D18151
S11310B0EE81FF810995682F812F8FDC082F88230B
S11310C021F1EC81FD810995082F81111EC01F5F5C
S11310D0E0919429F0919529A081B18114968C9185
S11310E01817D8F212C000E010C000E00EC000E0F3
S11310F00CC000E00AC0822F807609F07DCF86CE36
S1131100322F307609F078CF8FCD802FDF91CF91B9
S11311101F910F91FF90EF900895CF92DF92EF927D
S1131120FF920F931F93CF93DF93EC016A017B012E
S1131130DB01CA010197A109B109BC01CD01600F0E
S1131140711F821F931FA70196010E943A2B213819
S1131150310541055105F8F4213460F4213260F47D
S1131160213160F4293060F4253060F4233060F0DC
S113117090E00BC093E009C092E007C092E805C07C
S113118091E003C091E801C090E888818C77892BB5
S1131190888381E001C08FEFDF91CF911F910F9180
S11311A0FF90EF90DF90CF900895CF93DF93E0917D
S11311B09C29F0919D29848183FF08C088608483E1
S11311C083E0838386EF8093A62989C0982F947146
S11311D031F083E083838FEF8093A62980C086FF5C
S11311E045C0A0919E29B0919F298091A0299091FA
S11311F0A12914962D913C911597821793076CF4AD
S11312009C012F5F3F4F2093A0293093A129A80F61
S1131210B91F11968C91878362C08091A229909105
S1131220A32918962D913C91199782179307C8F416
S11312302091A429222321F08681816086834FC0D6
S113124016962D913C911797AC014F5F5F4F4093D9
S1131250A2295093A329D901A80FB91F8C91878380
S11312603EC083E083831092A62939C08823A4F565
S1131270A0919E29B0919F298091A2299091A329A0
S113128018962D913C91199782179307F8F41696A6
S11312904D915C9117979C012F5F3F4F2093A2299A
S11312A03093A3296781EA01C80FD91F6883189670
S11312B08D919C9119972817390718F482E083833C
S11312C00EC087E083831092A62909C083E083833C
S11312D089EF8093A62903C08BEF8093A629DF9121
S11312E0CF9108951F920F920FB60F9211242F934E
S11312F03F934F935F936F937F938F939F93AF939A
S1131300BF93EF93FF9351DFFF91EF91BF91AF91A3
S11313109F918F917F916F915F914F913F912F9109
S11313200F900FBE0F901F9018951F920F920FB63B
S11313300F9211242F933F934F935F936F937F9357
S11313408F939F93AF93BF93EF93FF932EDFFF9100
S1131350EF91BF91AF919F918F917F916F915F9129
S11313604F913F912F910F900FBE0F901F901895A2
S1131370FC01818185FFFDCF608380E090E00895CA
S11313804F925F926F927F928F929F92AF92BF9291
S1131390CF92DF92EF92FF920F931F93CF93DF933D
S11313A0EC014A015B0128013901D901C8016894A3
S11313B012F8B695A795979587951694D1F7B90124
S11313C0A801032E36E176956795579547953A958A
S11313D0D1F7302D2C8122FD08C0B695A79597959D
S11313E08795769567955795479588159905AA0524
S11313F0BB0508F4A6C084169506A606B70608F42D
S1131400A2C08C8182FD04C0880C991CAA1CBB1C40
S1131410C301B201A50194010E943A2B2F3F31056B
S11314204105510508F491C0C12CD12C7601CA9410
S113143019EF05C02C153D054E055F0568F0CC0C71
S1131440DD1CEE1CFF1C1D3F14F46894C0F81F5FE4
S1131450173081F7212F50C0212F11230CF04CC0DD
S1131460D501C401880F991FAA1FBB1F880F991F9C
S1131470AA1FBB1F880F991FAA1FBB1F481A590A0E
S11314806A0A7B0A1E3FF4F46DEF7FEF611B71095A
S113149017FD739504C0440C551C661C771C6A9593
S11314A0D2F7D501C401B695A79597958795BC0148
S11314B0CD01640D751D861D971DA50194010E9423
S11314C03A2B36C023E0210FD501C40104C0880F94
S11314D0991FAA1FBB1F2A95D2F79C01AD01B6958F
S11314E0A79597958795BC01CD01640D751D861D43
S11314F0971D0E943A2B1CC02D5FD501C40104C066
S1131500880F991FAA1FBB1F2A95D2F79C01AD0112
S1131510B695A79597958795BC01CD01640D751D6A
S1131520861D971D0E943A2B21503109410951090A
S1131530832F8F701295107F182B1F832E8381E0C9
S113154018C080E016C080E014C0D501C401880F23
S1131550991FAA1FBB1F880F991FAA1FBB1F880FA3
S1131560991FAA1FBB1F481A590A6A0A7B0A19EF56
S11315708BCFDF91CF911F910F91FF90EF90DF9070
S1131580CF90BF90AF909F908F907F906F905F901F
S11315904F9008950F931F93CF93DF93EC018B012A
S11315A0009709F4BEC0803C910521F460E180E01D
S11315B0B4D7B7C0C11584E0D80721F464E080E053
S11315C0ACD7AFC0C038E1E0DE0721F462E080E0D0
S11315D0A4D7A7C0C115F1E0DF0721F461E080E0E2
S11315E09CD79FC0C03883E0D80721F461E081E034
S11315F094D797C0C115E2E0DE0721F462E081E0F0
S11316008CD78FC0C032F3E0DF0721F464E082E0BE
S113161084D787C0C11588E0D80721F461E083E04E
S11316207CD77FC0C115E9E0DE0721F461E084E0E6
S113163074D777C0C115FAE0DF0721F461E085E0D3
S11316406CD76FC0C03488E0D80721F462E083E02F
S113165064D767C0C034E9E0DE0721F462E084E0C7
S11316605CD75FC0C039F8E0DF0721F464E083E0B1
S113167054D757C0C03989E0D80721F464E084E026
S11316804CD74FC0C039EAE0DE0721F464E085E0BE
S113169044D747C0C03CF8E0DF0721F468E083E0AA
S11316A03CD73FC0C03C89E0D80721F468E084E01F
S11316B034D737C0C03AE8E0DE0721F460E183E0C4
S11316C02CD72FC0C03AF9E0DF0721F460E184E0B1
S11316D024D727C0C03A8AE0D80721F460E185E026
S11316E01CD71FC0C03BE8E0DE0721F460E283E0C2
S11316F014D717C0C03BF9E0DF0721F460E284E0AF
S11317000CD70FC0C03884E0D80721F460E483E02C
S113171004D707C0C03AE4E0DE0719F460E485E0CA
S1131720FCD68D818F738D83F80194818581892BFB
S11317309681992311F098E001C090E0892B8D8364
S1131740F801408151816281738100E01CE62CED37
S113175032E0CE0115DE9C8198609C839C8190616F
S11317609C83DF91CF911F910F910895811118C02F
S11317709091D42A992389F09FB7F894EFE8FBE27B
S11317802081215020839FBF08C09FB7F894EFE8C1
S1131790FBE220812F5F20839FBF8093D42A08958A
S11317A09091D42A992389F3F8CF0F93E8ECF4E0CD
S11317B080818F7D808380818F7D8083E8EAFAE257
S11317C002E005931092AA2A1092AB2A00E2069333
S11317D000E40693E0EAFAE200E2069300E40693EA
S11317E010928A2B10928B2B10928C2B10928D2B93
S11317F01092882B1092892B1092902A0F910895A1
S11318000F9385E08093902AE9EAFAE204E00593D5
S1131810E1EAFAE204E005930F9108950F9383E05F
S11318208093902A1092AA2A1092AB2AE8EAFAE24C
S113183002E006930F910895E0918A2BF0918B2B8F
S1131840309709F0099508950F93CF93DF93809112
S1131850902A833019F4F0DFA8DF60C080918C2ACD
S113186090918D2AC091882BD091892BC81BD90BBC
S113187071F520918E2A30918F2A820F931F8093C5
S11318808E2A90938F2A2091842B3091852B821756
S1131890930721F08091A729882341F084E0809365
S11318A0902AE0EAFAE202E0069338C0E0918C2B39
S11318B0F0918D2B309799F00995882381F010923F
S11318C08C2A10928D2AC091882BD091892BC034F8
S11318D0D10528F01092A729C0E4D0E003C081E02C
S11318E08093A729C093AA2AD093AB2A80918C2AEB
S11318F090918D2A2091862B3091872B280F391FA8
S11319002093AC2A3093AD2AC80FD91FC0938C2AD8
S1131910D0938D2AE8EAFAE202E00693DF91CF91B0
S11319200F910895FC018181877090E0FC0131974B
S1131930E730F10520F4E250FF4F0C945C2B88E073
S113194090E0089580E290E0089580E490E00895A6
S113195080E890E0089580E091E0089580E092E0CE
S113196008958FEF93E0089580E190E00895282F83
S11319702F7030E0220F331F992787FD9095882719
S1131980990F881F9927820F931F02979C01220F9A
S1131990331F220F331F220F331F820F931F885DC3
S11319A0954D08950F93CF938091CC0480FF62C02E
S11319B081E08093CC04E0EAFAE200E80693E8EAE6
S11319C0FAE200E806938093CA04E0EAFAE200E14E
S11319D006938091902A882329F08350823008F45A
S11319E02BDFE3DE8091A22A9091A32A089709F0C5
S11319F043C088E0ECE4FAE2AEE7BBE201900D926A
S1131A008A95E1F7E8ECF4E080818062808380814C
S1131A1080628083EAD8C82F811103C0F1DEC1E05F
S1131A202CC080917E2B88236CF410928E2A109205
S1131A308F2A10928C2A10928D2A82E08093902A09
S1131A4003DF1BC02091842B3091852B232B11F4B1
S1131A50E5DE13C010928E2A10928F2A10928C2ADF
S1131A6010928D2A81E08093902AE0EAFAE202E063
S1131A70069303C0C0E001C0C1E08C2FCF910F9149
S1131A800895BF92CF92DF92EF92FF920F931F932C
S1131A90CF93DF93B82E6BDFEC011B2D111F1127A1
S1131AA0111F8B2D8F70E82EF12CEE0CFF1CE10E14
S1131AB0F11CC701880F991F880F991F880F991F60
S1131AC09C012056354D7901C9012CDF6C0111238D
S1131AD009F45BC0D70116962D913C9117978D811F
S1131AE09E81280F391F2D833E838B819C8128176B
S1131AF03907C9F1FC01E21BF30B9F012115F4E046
S1131B003F0740F02FEF33E0C901B6010E94262BB6
S1131B10281B390B888181FF0AC0C901B6010E94C4
S1131B20262B41E0892B09F040E0942F01C090E07E
S1131B30888190FB81F98883D70116961D921C92A7
S1131B40179712962D933C93139729813A818D818F
S1131B509E81820F931F14968D939C931597F70182
S1131B6002E0069398C0888181FF87C08D7F8883B7
S1131B70D70116961D921C92179712961D921C92CD
S1131B801397F70102E0069386C0D70112960D91D0
S1131B901C911397888182FF15C0E981FA812D81F8
S1131BA03E818B819C81B6010E94262BB0E4BB9EB2
S1131BB0B00111246859764DAC01CF01820F931FF7
S1131BC00E94F92B2D813E81200F311F2D833E83EE
S1131BD0EB81FC81E217F30710F4ED83FE83D70158
S1131BE016968D919C9117978017910709F045C01F
S1131BF08D819E81E817F90709F43FC0E81BF90BB2
S1131C00E115B4E0FB0748F0EFEFF3E0CF01B601D4
S1131C100E94262BE81BF90B06C0CF01B6010E94D7
S1131C20262BE81BF90BD70112961D921C921397D1
S1131C30EC15FD0578F4888184608883B0E4BB9E4C
S1131C40C00111248859964DF70184839583C68277
S1131C50D7820FC029813A818D819E81820F931F83
S1131C60D70114968D939C9315971696ED93FC9338
S1131C701797F70102E006930EC0888180FF0BC01E
S1131C808E7F8883EF81F885309729F06D817E817E
S1131C904B2D80E00995DF91CF911F910F91FF901B
S1131CA0EF90DF90CF90BF900895CF93CFB7F89483
S1131CB081E05CDDEAECF4E080E4808380E2808310
S1131CC0E1ECF4E0808181608083A9ECB4E08C9144
S1131CD082608C93E8ECF4E08081806480838C9152
S1131CE081608C93808180688083CFBFCF91089579
S1131CF0CF9380E31ED4E0ECF4E0808180648083A1
S1131D00CFB7F8941092A12A1092A92A1092B12A5E
S1131D101092B92A1092C12A1092C92AE8E2FAE272
S1131D2080818E7F8083E1E3FAE280818E7F8083ED
S1131D30EAE3FAE280818E7F8083E3E4FAE2808141
S1131D408E7F80836AE170E082E0ECD48F3F19F0EB
S1131D508093FA0403C08FE18093FA046BE170E08E
S1131D6082E0E0D48F3F19F08093FB0403C08FE13D
S1131D708093FB04E0ECF4E08081826080838081C6
S1131D808068808380818061808380EA9AE2868390
S1131D9097838081806280838FEF8093C504E8EC11
S1131DA0F4E08081816080831092D42A8FB7F89404
S1131DB0E3E9FBE290819F5F90838FBF76DFCFBF23
S1131DC0CF91089580E008958093C304089580918D
S1131DD0C30408958091D02A9091D12A089580E077
S1131DE090E008958093862B9093872B6093882BA3
S1131DF07093892B0895E82FEF70F0E0EE0FFF1F2A
S1131E00992787FD90958827990F881F9927E80FB0
S1131E10F91FEE0FFF1FEE0FFF1FEE0FFF1FE0561F
S1131E20F54D8181807C09F043C06370613029F0F5
S1131E3010F480E403C080E801C080EC4038510510
S1131E40E1F050F440325105A1F04034510599F0CD
S1131E504031510561F419C0411592E0590789F0E8
S1131E604F3F93E0590779F04115514041F020E08C
S1131E700DC022E00BC023E009C024E007C025E028
S1131E8005C026E003C027E001C021E0118296E0EE
S1131E909083822B81838181807C803C21F48181A9
S1131EA08770873039F081818062818381E0089571
S1131EB080E0089581E00895E82FEF70F0E0EE0FE0
S1131EC0FF1F992787FD90958827990F881F9927C9
S1131ED0E80FF91FEE0FFF1FEE0FFF1FEE0FFF1F9E
S1131EE0E056F54D818182FB882780F90895E82F1B
S1131EF0EF70F0E0EE0FFF1F282F332727FD3095FA
S1131F002227330F221F3327E20FF31FEE0FFF1F89
S1131F10EE0FFF1FEE0FFF1FE056F54D918192FF6C
S1131F200EC091819B7F918322DDFC01808180FF23
S1131F3006C08E7F80830780F085E02D099581E0BF
S1131F4008957F928F929F92AF92BF92CF92DF9229
S1131F50EF92FF920F931F93CF93DF93982E862EC9
S1131F605A01690104DD7C01792C771C7724771CE4
S1131F70C92DCF70D0E0CC0FDD1FC70DD11DCC0F04
S1131F80DD1FCC0FDD1FCC0FDD1FC056D54D898161
S1131F90807C09F44CC08981807C803C19F0898163
S1131FA082FD47C08FB7F894F701908190FF03C07A
S1131FB08FBF712C3FC0F7019081916090838FBFD8
S1131FC0F701A182B282C382D4821582168207836A
S1131FD01087811006C091E0C114D10419F090E07B
S1131FE001C091E0F701808190FB81F98B7F8083B0
S1131FF0772019F01E821F8215C08981807C803C65
S113200069F4CE018FDCBC01C6010E94262B892B0A
S113201029F0F70180818E7F80830CC01A821B8295
S11320201E821F82892D2DDD7724739403C0712CA9
S113203001C0712C872DDF91CF911F910F91FF90DB
S1132040EF90DF90CF90BF90AF909F908F907F9054
S11320500895FF920F931F93CF93DF93182FF82EB9
S1132060FF1CFF24FF1CC82FCF70D0E0CC0FDD1F56
S1132070CF0DD11DCC0FDD1FCC0FDD1FCC0FDD1F0D
S1132080C056D54D74DCDC01FE0102E005938C9151
S113209080FF12C08E7F8C931796ED91FC91189758
S11320A0309751F0FF2019F06E817F8102C06A8160
S11320B07B81412F81E00995DF91CF911F910F9191
S11320C0FF900895CF93C82FC4DFEC2FEF70F0E09A
S11320D0EE0FFF1F8C2F992787FD90958827990F66
S11320E0881F9927E80FF91FEE0FFF1FEE0FFF1F40
S11320F0EE0FFF1FE056F54D1182CF9108950F9317
S1132100E82FEF70F0E0EE0FFF1F282F332727FD95
S113211030952227330F221F3327E20FF31FEE0FD0
S1132120FF1FEE0FFF1FEE0FFF1FE056F54D9181CD
S11321309460918301E006938CDF81E00F91089510
S11321401F920F920FB60F9211240F932F933F9368
S11321504F935F936F937F938F939F93AF93BF93AB
S1132160EF93FF938091CB04882334F480E8809329
S1132170CA040E94C60588C08091CB0482FF20C097
S113218084E08093CA048091A82A86FF7DC0809150
S1132190CC0481FD79C006DC811176C08091902A3F
S11321A0813011F43BDB70C0843009F06DC0E9EA82
S11321B0FAE204E00593E1EAFAE204E0059364C07C
S11321C08091CB0481FF5BC082E08093CA0480913C
S11321D0A02A86FF59C08091CC0481FD55C0E2DB62
S11321E0811152C08091902A823041F484E080931E
S11321F0902AE0EAFAE202E0069346C0833009F04E
S113220043C0E9EAFAE204E00593E1EAFAE204E011
S113221005933AC080E18093CA0481E01ADF81E823
S113222018DF0E949F051092C304E1EAFAE21082CB
S113223096E09093A02A83E48083E9EAFAE210828C
S11322409093A82A80838CE49AE28093A42A9093A2
S1132250A52AABDA19C08091CB0486FF06C080E4BE
S11322608093CA0480E082DA0FC08091CB0485FF9A
S11322700BC080E28093CA0481E078DA05C08091C3
S1132280CB0484FFE8CFC6CFFF91EF91BF91AF910C
S11322909F918F917F916F915F914F913F912F917A
S11322A00F910F900FBE0F901F9018951F920F92D1
S11322B00FB60F9211240F931F932F933F934F93B5
S11322C05F936F937F938F939F93AF93BF93CF93BA
S11322D0DF93EF93FF938091CC0481FD03C062DB15
S11322E08111B9C082E08093CC048091C5048195AA
S11322F0880FE0EAFAE2E81BF10920813181205AD3
S11323003A42369527953695279536952795822F07
S1132310869520FF02C090E801C090E0890FE82F65
S1132320EF70F0E0EE0FFF1F282F332727FD3095C5
S11323302227330F221F3327E20FF31FEE0FFF1F55
S1132340EE0FFF1FEE0FFF1FE056F54D908195FF36
S113235082C000E20693811179C08091902A843072
S113236019F46ADA22DA77C0C091A22AD091A32A9A
S11323708091882B9091892B00918C2A10918D2A21
S113238098012C0F3D1F8217930718F4EC01C01B12
S1132390D10B8091862B9091872BAE016CE47AE26D
S11323A0800F911F0E94F92B0C0F1D1F00938C2A84
S11323B010938D2AC034D10569F480918E2A9091AE
S11323C08F2A800F911F2091842B3091852B8217A7
S11323D0930788F00093882B1093892BE0918C2B22
S11323E0F0918D2B309729F00995811102C008DAFC
S11323F032C014DA30C08091882B9091892B081751
S11324001907F9F4E0918C2BF0918D2B309711F48E
S1132410F7D921C00995811102C0F2D91CC02091BD
S11324208E2A30918F2A80918C2A90918D2A820F46
S1132430931F80938E2A90938F2A10928C2A109245
S11324408D2AE0EAFAE202E0069305C0803811F42E
S1132450FBD901C016DBFF91EF91DF91CF91BF91C2
S1132460AF919F918F917F916F915F914F913F9128
S11324702F911F910F910F900FBE0F901F901895E1
S1132480CF93DF9300D000D0CDB7DEB78FEF80932A
S11324907000809371008093720080937300809326
S11324A0740080937500809376006CE170E082E0A4
S11324B039D18A836DE170E082E034D189838981E6
S11324C09A81019621F480E493E289839A83898135
S11324D09A818B839C83E0E6F0E082838C81838302
S11324E08FB7F894E0E5F0E09081926090838FBF1D
S11324F0818181FFFDCF61E080E490E01DD18FB741
S1132500F894E0E5F0E090819E7F90838FBF24965D
S1132510CDBFDEBFDF91CF9108959FB7F894E82F28
S1132520F0E0E059FF4F60958081682360839FBF8E
S11325300895863011F468E101C060E0E0E5F0E060
S1132540818181FD09C08FB7F89490819260908356
S11325508FBF818181FFFDCF636084E490E0ECD084
S113256060E480E0DACF0895CF93DF939B01E0EC41
S1132570F1E067856623ECF3CCECD1E06881686018
S11325806883BC01705FC9010E94F92B8881877F31
S11325908883DF91CF910895E0ECF1E0878588236B
S11325A0ECF3E0ECF1E0878581FF06C086E38287E7
S11325B061E08BEC91E0C0C00895E0ECF1E0978518
S11325C09923ECF3ECECF1E0908198609083A82FD0
S11325D0B0E0B05F6C938081877F80830895FF9221
S11325E00F931F93CF93DF93182FF92EC62FE0EC90
S11325F0F1E00285D1DFE0ECF1E027852223ECF362
S11326006C2F812FDADFC0ECD1E01A82F9821883B3
S113261085E38A8761E08BEC91E08ED00A87DF91B5
S1132620CF911F910F91FF900895EF92FF920F9316
S11326301F93CF93DF938C01E0ECF1E0878588232F
S1132640ECF3780180E2E80EF11CE8018C2F801B8A
S11326506991B3DFCE15DF05C9F7DF91CF911F91E3
S11326600F91FF90EF9008951F93CF93DF93E0ECC9
S1132670F1E097859923ECF320E2829FC0011124B5
S1132680C0ECD1E01A82998388831A8585E38A870E
S113269061E08BEC91E050D01A87DF91CF911F91CC
S11326A00895CF92DF92EF92FF920F931F93CF93EF
S11326B0DF93EC017B018A014115510551F1CE01F3
S11326C08F719927892BB1F40032110598F0C70155
S11326D0ACDFCE0196958795929582958F70892768
S11326E09F708927C1DFA09680E2E80EF11C00529A
S11326F011090CC06E01EFEFCE1ADE0AF7016191E9
S11327007F01CE016CDF01501109E60101151105AD
S1132710B1F6DF91CF911F910F91FF90EF90DF9071
S1132720CF9008954091CA01E62FF72F8093CA01F4
S113273084914093CA0108951BBEFC0128ED24BF77
S113274060830895CF93DF93CDB7DEB72797CDBFCE
S1132750DEBF809180208D83809181208E83809143
S113276082208F8380917C2090917D20A0917E2077
S1132770B0917F2089839A83AB83BC8360E184E03A
S1132780CCDEBE016F5F7F4F80EA99E00E94CA0AE7
S11327902796CDBFDEBFDF91CF910895CF93DF930E
S11327A0FC016081662349F0EC01219680EA99E0FE
S11327B00E94B80969916111F9CFDF91CF91089511
S11327C086EC90E2EBCF08958F929F92AF92BF92E6
S11327D0CF92DF92EF92FF920F931F93CF93DF93E9
S11327E0CDB7DEB72897CDBFDEBF8C016B01FC01EE
S11327F001900020E9F731977F01E81AF90A19825C
S11328001A821B821C821D821E821F821886C701A7
S113281099279F938F932CE334E23F932F930E9445
S1132820182C0F900F900F900F9080E5E8125DC068
S1132830B8016F5F7F4F4CE050E0C6010E94092C45
S1132840B801635D7F4F44E150E0C6010D960E94DC
S1132850092CB8016F5B7F4F4CE050E0C6018296B3
S11328600E94092CB801605F7F4F42E050E0FE01F6
S113287031965F01CF010E94092CB801655D7F4F3D
S11328804E01F4E08F0E911C42E050E0C4010E941E
S1132890092CF601148611A216A67E01F7E0EF0EAC
S11328A0F11CFF92EF9200E417E21F930F93BF9283
S11328B0AF920E94862C8F81992787FD9095F6010F
S11328C087A790ABFF92EF921F930F939F928F92E3
S11328D00E94862C8F81992787FD9095F60181AB04
S11328E092ABCDBFDEBF81E001C080E02896CDBFB2
S11328F0DEBFDF91CF911F910F91FF90EF90DF909A
S1132900CF90BF90AF909F908F9008958FEC90E2FE
S113291045DF80E094EDA0E3B0E00197A109B1099F
S11329200097A105B105C9F74BDF80E09AE6A8E15D
S1132930B0E00197A109B1090097A105B105C9F754
S113294083ED90E22BCF08950F931F93CF93DF93E2
S113295000D01F92CDB7DEB76115710529F48068E8
S1132960898381E090E014C0806C898360387105AC
S113297020F46A8382E090E00BC0862F80688A830B
S1132980660F672F661F770B71956B8383E090E06A
S1132990BE016F5F7F4F0E94B5212396CDBFDEBF7E
S11329A0DF91CF911F910F9108950F931F93FA0117
S11329B09A01280F391F2130344068F49C012250B9
S11329C0310940E050E08B01BF0189E090E0BCDFB9
S11329D080E090E002C08FEF9FEF1F910F91089568
S11329E00F931F93CF93DF9300D01F92CDB7DEB721
S11329F06115710521F4898381E090E014C080643D
S1132A0089836038710520F46A8382E090E00BC00A
S1132A10862F80688A83660F672F661F770B7195F0
S1132A206B8383E090E0BE016F5F7F4F0E94F021D3
S1132A302396CDBFDEBFDF91CF911F910F910895F3
S1132A400F931F939B01BA0140E050E08C0181E198
S1132A5090E0C6DF1F910F9108950F931F938C018F
S1132A6025E030E040E050E060E070E087E190E095
S1132A70B7DF1F910F9108950F931F938C0125E0E9
S1132A8030E040E050E060E070E085E190E0A8DFF5
S1132A901F910F910895EF92FF920F931F93CF937D
S1132AA0DF9300D000D0CDB7DEB79E012F5F3F4F3C
S1132AB0890124E030E040E050E092DFFE013596E9
S1132AC060E070E0CB01B82FA72F962F88272291C2
S1132AD0BC01CD01620F711D811D911DE017F1072D
S1132AE091F72496CDBFDEBFDF91CF911F910F9157
S1132AF0FF90EF90089560E070E080E090E0CBCF2D
S1132B0008950F931F93CF93DF9300D0CDB7DEB713
S1132B108E010F5F1F4F22E030E040E050E060DFA5
S1132B208A8190E0982F88272981820F911D0F9028
S1132B300F90DF91CF911F910F9108950F931F93E1
S1132B40CF93DF931F92CDB7DEB78E010F5F1F4F78
S1132B5021E030E040E050E043DF89810F90DF91D5
S1132B60CF911F910F9108950F931F93CF93DF93EC
S1132B701F92CDB7DEB749838E010F5F1F4F21E04F
S1132B8030E040E050E0E0DE0F90DF91CF911F9104
S1132B900F9108950F931F93CF93DF9300D0CDB778
S1132BA0DEB749835A838E010F5F1F4F22E030E066
S1132BB040E050E0C9DE0F900F90DF91CF911F915C
S1132BC00F910895AC0164E078E18EE290E0E2CFE9
S1132BD00895AC0160E070E088E190E0DBCF0895F7
S1132BE00F931F93CF93DF9300D000D0CDB7DEB700
S1132BF029833A834B835C838E010F5F1F4F24E04C
S1132C0030E040E050E0A0DE2496CDBFDEBFDF918F
S1132C10CF911F910F910895CF92DF92EF92FF927F
S1132C200F931F938C01CA01AA2797FDA095BA2F71
S1132C30072E7FE0880F991FAA1FBB1F7A95D1F733
S1132C40702DE0918320F0918420C284D384E484A5
S1132C50F5848C299D29AE29BF2920E030E0802B02
S1132C60912BA22BB32BAB0160E070E0032E36E175
S1132C70440F551F661F771F3A95D1F7302D9A01DF
S1132C80AB01282B392B4A2B5B2B60E070E088E0EA
S1132C9090E0A6DF1F910F91FF90EF90DF90CF900F
S1132CA00895AB0164E070E08DE290E073DF43E0EF
S1132CB066E070E08DE290E057DF40E066E070E0AF
S1132CC08DE290E051DF6AE070E08DE290E0E3CEC7
S1132CD0089540E062E070E08CE290E045DF42E07D
S1132CE062E070E08CE290E03FCF0895CF93DF93F1
S1132CF0EC014DE666E078E08EE290E035DFCD2B26
S1132D0041F047E056E066E078E18EE290E042DF91
S1132D1007C047E056E166E078E18EE290E03ADFF2
S1132D20DF91CF9108954F925F926F927F92AF920D
S1132D30BF92CF92DF92EF92FF920F931F93CF93A4
S1132D40DF93EC01488059806A807B80842DEC8974
S1132D50FD89EE0FFF1FE551FD4DC080D1800C8130
S1132D600150843041F021E090E0873009F020E008
S1132D70E22EF92E03C0EE24E394F12C8C8D9D8D6C
S1132D80AE8DBF8D892B8A2B8B2BA1F4E0918320F0
S1132D90F091842080899189A289B389A064808B71
S1132DA0918BA28BB38BD694C794D694C794D694A4
S1132DB0C7940DC0E0918320F0918420808991898B
S1132DC0A289B389AF7B808B918BA28BB38BE0916B
S1132DD08320F091842088A1808780899189A289A9
S1132DE0B389AC7F808B918BA28BB38B48A159A103
S1132DF06AA17BA1BA01552744274427552763704C
S1132E0077279A01AB01282B392B4A2B5B2B208B7C
S1132E10318B428B538B60E070E084E090E0E0DE25
S1132E20A60164E078E28EE290E0B4DE10E0C8012E
S1132E305DDFE42DF0E0E057FC4DA080B12C65018E
S1132E40CC0CDD1CCC0CDD1CF601E05AFC4D2081C1
S1132E5031814281538167E070E08BE290E0C0DE13
S1132E60F501E65AFC4D40816BE070E08BE290E0A6
S1132E707BDEF701FF27E85AFC4D40816BE070E0F0
S1132E8088E290E071DEF601E858FC4D2081318142
S1132E90428153816CE070E088E290E0A1DEEC8D29
S1132EA0FD8DEE0FFF1F888D998DE80FF91FEE0F32
S1132EB0FF1FEF5BFC4D4081518162E070E087E2CF
S1132EC090E068DEF801EE0FFF1FE35CFC4D4081EB
S1132ED0518164E070E087E290E05CDE8C8D9D8D32
S1132EE0AE8DBF8D892B8A2B8B2B41F444E650E0A9
S1132EF066E070E087E290E04DDE23C08885998526
S1132F00AA85BB850497A105B10571F440E150E0A1
S1132F1066E070E087E290E03DDE40E166E270E06A
S1132F2087E290E021DE0DC040E250E066E070E010
S1132F3087E290E02FDE48E266E270E087E290E00C
S1132F4013DE8C859D85F801EE0FFF1FEE0FFF1F2A
S1132F50E80FF91FEE0FFF1FEE0FFF1FE35EFC4D9E
S1132F60208131814281538168E070E087E290E002
S1132F7037DE8CA19DA1AEA1BFA1892B8A2B8B2BFF
S1132F8041F481E490E1A0E0B0E08CA39DA3AEA362
S1132F90BFA34CA15DA160E270E087E290E0FADD9E
S1132FA02091502330915123409152235091532327
S1132FB06CE070E083E290E013DEF801EE0FFF1F97
S1132FC0EC5AFC4D4081518164E070E083E290E072
S1132FD0E1DD888D998DAA8DBB8D892B8A2B8B2B56
S1132FE069F0EC8DFD8DE35BFC4D408160E070E0A9
S1132FF081E290E0B9DDE1E083E002C0E0E080E05E
S11330000C891D892E893F890F2EFBE1000F111FAA
S1133010221F331FFA95D1F7F02DB301A2014F708F
S1133020552766277727042B152B262B372B4C8106
S11330305D816E817F81032E32E1440F551F661F2F
S1133040771F3A95D1F7302D442755276C70772791
S1133050042B152B262B372B488959896A897B89A0
S1133060032E36E1440F551F661F771F3A95D1F79B
S1133070302D44275527607C7770042B152B262B85
S1133080372B552466247724B301A201440F551F1E
S1133090661F771F440F551F661F771F440F551F68
S11330A0661F771F440F551F661F771F5527662716
S11330B07727402B512B622B732B90E0A0E0B0E0DC
S11330C0072E74E1880F991FAA1FBB1F7A95D1F7A9
S11330D0702D842B952BA62BB72B4E2E512C612CA7
S11330E0712C032E31E1440C551C661C771C3A9557
S11330F0D1F7302DA3019201282B392B4A2B5B2BBE
S113310060E070E08FE190E06BDD4C815D816E8169
S11331107F8188859985AA85BB85842B952BA62BD1
S1133120B72BBC01552744278C8D9D8DAE8DBF8D4B
S1133130072E7DE0880F991FAA1FBB1F7A95D1F730
S1133140702D9A01AB01282B392B4A2B5B2BE09174
S11331508320F0918420228733874487558760E059
S113316070E088E090E03CDD42E460E070E08DE0F7
S113317090E0FADCDF91CF911F910F91FF90EF90D7
S1133180DF90CF90BF90AF907F906F905F904F9003
S11331900895CF92DF92EF92FF926B017C0160E081
S11331A070E08AE190E077DCDC01CB018827992785
S11331B0A07F2FE0E222FF249C01AD012C293D29B0
S11331C04E295F2960E070E08AE190E009DDFF901C
S11331D0EF90DF90CF900895E0918320F0918420C8
S11331E080A391A362A373A344A355A326A337A3E7
S11331F00895CF93C82F80FF20C060E070E086E27E
S113320090E049DCDC01CB01937C9C01AD0134618D
S113321060E070E086E290E0E3DC60E070E086E38A
S113322090E039DC9B01AC01446860E070E086E327
S113323090E0D6DCC1FD19C00EC060E070E086E20B
S113324090E029DC9B01AC01337C60E070E086E215
S113325090E0C6DC1CC020E131E040E050E068E2D0
S113326070E086E390E0BCDC12C020E131E04FE086
S113327050E068E270E086E390E0B2DC20E131E007
S113328040E050E068E270E086E390E0A9DCCF9192
S11332900895EF92FF920F931F93CF93DF9300D083
S11332A0CDB7DEB77C018E010F5F1F4F22E030E007
S11332B040E050E060E070E086E390E091DB8FE076
S11332C0E816F104A0F5F701EB5FFE4F0C945C2BBC
S11332D019828A818E7F8A832AC089818C7F81604A
S11332E0898325C089818C7F8260898320C08981FC
S11332F0837B886489838A8180688A8318C08981F2
S1133300837B89838A818F778A8311C08A818260D3
S11333108A830DC08A818D7F8A8309C089818F7CCD
S11333208062898304C081E0898383E08A838E017B
S11333300F5F1F4F21E030E040E050E060E070E0BC
S113334086E390E001DB0F5F1F4F21E030E040E0B7
S113335050E061E070E086E390E0F6DA0F900F90C1
S1133360DF91CF911F910F91FF90EF9008958EE020
S113337090E08FDF40E050E866E070E08DE290E09E
S113338009DC81E090E060D781E090E082CF08958D
S113339080E090E07EDF40E050E064E070E086E3AF
S11333A090E0F8CB08959B01AC0161E070E08AE005
S11333B090E016CC0895CF93C82F81FF0EC040E84B
S11333C060E070E08DE090E0CFDBE0918320F0914D
S11333D0842081E0868B40E801C040E0C0FF1DC02E
S11333E0466060E070E08DE090E0BEDB63E070E09A
S11333F08FE090E086DB88709470892BB9F040E40C
S113340060E070E08DE090E0AFDBE0918320F0912C
S11334108420168A8FEF9FEF0BC0426060E070E05B
S11334208DE090E0A1DB80E090E002C080E090E0DD
S1133430CF91089563E070E08FE090E07FDB482F48
S1133440407850E060E070E0807490E0A0E0B0E08C
S1133450880F991FAA1FBB1F481759076A077B07C4
S113346031F041E063E070E08DE090E07DCB0895C1
S1133470CF92DF92EF92FF92CF93DF9360E070E000
S11334808EE090E008DB6B017C01BFD2EC0120E010
S113349030E0A90160E070E08EE090E0A1DB40E460
S11334A060E070E08DE090E05FDB28EF3FEF47E203
S11334B054E260E070E08FE090E092DBBBDFA701B4
S11334C0960160E070E08EE090E08ADBCE01A1D24C
S11334D0E0918320F0918420168ADF91CF91FF90B0
S11334E0EF90DF90CF9008950F931F93CF93DF93C6
S11334F0EC0182FF9FDF8E0101701127C0FD11C016
S113350021C0B6DFC1FD0AC040E051E060E070E0D8
S11335108DE090E03FDB0FEF1FEF1BC00FEF1FEFBD
S113352018C040E053E060E070E08DE090E032DBF2
S113353063E070E08FE090E001DB83FDE2CF00E028
S113354010E007C040E051E060E070E08DE090E002
S113355021DBC801DF91CF911F910F9108950F9343
S11335601F93CF938C0163E070E084E090E0E6DA8F
S1133570C82F01151105D9F0A80160E070E08CE0B6
S113358090E008DBE0918320F09184200089118988
S1133590228933893061008B118B228B338B4C2F22
S11335A0406163E070E084E090E0DEDA14C0E09112
S11335B08320F091842000891189228933893F7EF8
S11335C0008B118B228B338B482F4F7E63E070E08E
S11335D084E090E0C9DACF911F910F910895CF92C2
S11335E0DF92EF92FF921F93CF93DF936B017C01E5
S11335F0142F0BD2EC0160E070E08EE090E04BDA27
S1133600112339F09B01AC012C293D294E295F2956
S11336100AC0C094D094E094F0949B01AC012C2196
S11336203D214E215F2160E070E08EE090E0D8DA29
S1133630CE01EFD1DF91CF911F91FF90EF90DF90FA
S1133640CF90089540EE63E070E086E390E08CDA7A
S113365040EF63E070E086E390E086CA0895CF927D
S1133660DF92EF92FF920F931F93CF93DF93C0915A
S11336708320D091842060E070E08FE090E00BDA4A
S11336806B017C016F8B788F898F9A8F76FF6DC069
S113369020E03FE640E050E060E070E08FE090E042
S11336A09FDAE0918320F0918420178E60E070E02F
S11336B080E190E026DAE0918320F0918420208557
S11336C0222319F09C01337003C09C012F77332708
S11336D0238F348F99231CF4878D8160878F8F010A
S11336E0035E1F4F22E030E040E050E060E070E015
S11336F081E190E075D9C3FE1EC0E0918320F09172
S11337008420858D85FD17C028E030E040E050E03E
S113371060E070E08FE090E063DAE0918320F09164
S113372084208789908DA18DB28D877F878B908F20
S1133730A18FB28F168AA0918320B0918420929693
S1133740ED91FC919397309719F0CD014796099527
S1133750E0918320F09184208785882331F041E033
S113376063E070E08DE090E0FFD9C7FE21C028EF50
S113377030E040E050E060E070E08FE090E030DA6C
S1133780C3FE09C0E0918320F091842086898823B8
S113379011F06EDE57DFA0918320B09184209096C3
S11337A0ED91FC919197309719F0CD0147960995C9
S11337B0D701C60188279927A272BB27892B8A2B98
S11337C08B2BE9F020E030E042E050E060E070E074
S11337D08FE090E005DAE0918320F0918420168A4E
S11337E047DE30DFA0918320B09184209496ED9140
S11337F0FC919597309719F0CD0147960995CC2403
S113380080E9D82285E0E82284E2F822CD28CE2877
S1133810CF28E9F020E030E945E054E260E070E0D0
S11338208FE090E0DDD9E0918320F0918420168A26
S11338301FDE08DFA0918320B09184209696ED913D
S1133840FC919797309719F0CD0147960995DF9130
S1133850CF911F910F91FF90EF90DF90CF9008953B
S113386097DD40E050E060E070E08CE290E092D9B7
S113387040E066E070E08CE290E076D92ADA40E03D
S113388063E070E086E390E06FD981E090E0DCD4FF
S113389040EF63E070E086E390E066D9E091832036
S11338A0F0918420168A08958F71482F40666EE047
S11338B070E08BE290E058C908950F931F93CF9363
S11338C0DF93C82FE0918320F09184201786168A15
S11338D0148A158A10A211A212A213A214A215A26C
S11338E016A217A208D9603371408A4C9E4D09F084
S11338F085C0B6DF80E090E0CCDC44E060E070E0BE
S113390084E290E031D96EE170E080E090E0C9D9C2
S1133910D62FE0918320F0918420718764E070E0D9
S113392080E090E0BED9662379F042E062E170E085
S11339308DE290E019D9E0918320F091842084896C
S113394095899061848B958B0091832010918420BC
S113395066E070E080E090E0A4D9F80160837183B0
S113396082839383009183201091842067E070E028
S113397080E090E096D9F801648375838683978309
S1133980E0918320F0918420DF7111F0D68702C08A
S113399080E18687868588DFC0FF0BC0E8DCE09184
S11339A08320F0918420848995899860848B958BF9
S11339B00CC065E070E086E390E0A3D8AC015D7FC5
S11339C065E070E086E390E0E5D881E090E061DCBA
S11339D040E06AE070E08CE290E0C6D8C0918320B9
S11339E0D091842060E070E084E090E054D8688B4B
S11339F0798B8A8B9B8B80E090E002C08FEF9FEFE6
S1133A00DF91CF911F910F910895F89481E090E098
S1133A100895789408958F929F92AF92BF92CF9217
S1133A20DF92EF92FF920F93CF93DF93DB011D920E
S1133A301D921D921C921397EC01E0E0F0E0299195
S1133A4030E040E050E060E070E080E090E00E2F75
S1133A500E94B32B822E932EA42EB52E4D915D91F0
S1133A606D917C911397840E951EA61EB71E8D92A0
S1133A709D92AD92BC9213973896E032F105F9F617
S1133A80DF91CF910F91FF90EF90DF90CF90BF9097
S1133A90AF909F908F90089588EB9BE0A0E0B0E0FA
S1133AA08093AD209093AE20A093AF20B093B0202C
S1133AB081E08093442C08951092AD201092AE20A2
S1133AC01092AF201092B02082E08093442C08958D
S1133AD00895CF93DF93EEEFFAE22DE73BE21192E4
S1133AE0E217F307E1F7FC01648175816038710521
S1133AF030F440E050E08EEF9AE20E94201580916D
S1133B00FE2A813409F06BC08091FF2A883809F0BD
S1133B1066C08091002B8093942B8091012B90E0C0
S1133B20982F88272091022B822B8093952B90939A
S1133B30962BC091032BD0E0DC2FCC278091042B53
S1133B40C82BC093972BD093982B8091052B90E092
S1133B50982F88272091062B822B8093992B909362
S1133B609A2B10929B2BB0D6C817D90751F5809188
S1133B70072B803371F44091082B40939B2B50E02A
S1133B8069E07BE28CE99BE20E94092C1092442CB0
S1133B9026C0823321F485E08093442C20C08136F2
S1133BA021F486E08093442C1AC0893621F488E0FD
S1133BB08093442C14C0803591F487E08093442C86
S1133BC00EC08091972B9091982B8F3F910521F4F3
S1133BD083E08093442C03C084E08093442C88EEDB
S1133BE093E0A0E0B0E08093AD209093AE20A0934A
S1133BF0AF20B093B020DF91CF9108950F931F931E
S1133C00CF93DF93CDB7DEB72597CDBFDEBF8E014F
S1133C100F5F1F4FC8010E943C15FE013696D80164
S1133C2020E030E040E050E060E070E080E090E0D0
S1133C3008E00E94B32B1291212BEA17FB07C1F76E
S1133C402596CDBFDEBFDF91CF911F910F910895CF
S1133C50CF93C82F46D381E090E02FDE019649F43C
S1133C6086ED90E29F938F930E94182C0F900F90F3
S1133C70FFCF60D385E890E256D8CC2311F083E0DF
S1133C80B8DA0E9445270E94E2150E944A270E9442
S1133C90E9152CE53DE14CE45DE169E67DE188E66A
S1133CA09DE19ADA41E060E870ED83E294E097DC0C
S1133CB0CF910895AF92BF92CF92DF92EF92FF928D
S1133CC00F931F93CF93DF93CDB7DEB75C010DB78E
S1133CD01EB7FC0101900020E9F7CF018A199B0966
S1133CE09C01245F3F4F79018DB79EB7821B930BD4
S1133CF08DBF9EBFADB7BEB711966D0181E4EDB720
S1133D00FEB7818388E811968C9311978091FD2AE0
S1133D1012968C93129713961C92139714961C92D6
S1133D20149715967C93159716966C931697179679
S1133D301C92CAD5D60118968C93189780E31996CD
S1133D408C931997F50101900020E9F73197EA194E
S1133D50FB091A96EC93F50101900020E9F73197DD
S1133D60EA19FB09EC0DFD1D1386F50101900020F5
S1133D70E9F73197EA19FB09EC0DFD1D1486F501ED
S1133D8001900020E9F73197AF014A195B09B501A9
S1133D90C6010B960E94092C4FEF5FEFBA014093C6
S1133DA0AD205093AE206093AF207093B0208FEF7E
S1133DB08093442C40E050E0B601C7010E94D51422
S1133DC040E050E060E070E0C7010E940C1682E021
S1133DD0F2DA0F2EF0E8EF2EF6E0FF2EF02D05C0FC
S1133DE0F701808580FFFCCF3ADC8091AD20909173
S1133DF0AE20A091AF20B091B0208F3F9F4FAF4F26
S1133E00BF4F71F38091442C853059F48091942BE9
S1133E109091FD2A891305C01092442C8F5F8093E2
S1133E20FD2A8091442C0DBF1EBFDF91CF911F91BD
S1133E300F91FF90EF90DF90CF90BF90AF900895D7
S1133E40EF92FF920F931F93CF93DF93CDB7DEB71B
S1133E502C97CDBFDEBF7C018FEF8093442C80E094
S1133E6090E042DB8FEF9FE07ADB00E816E005C0CC
S1133E70F801808580FFFCCFF2DB8091442C8F3FDA
S1133E80B9F3811140C081E4898388E88A838091F1
S1133E90942B8B831C821D82E9E9FBE28081918152
S1133EA09E838F83188610D5898782E38A871B8631
S1133EB01C8640E050E0BE016F5F7F4F8CE090E0D5
S1133EC00E94D51440E050E060E070E08CE090E0A7
S1133ED00E940C1680E06FDA60E070E08FE090E002
S1133EE00E944B1567FFF8CF20E830E040E050E037
S1133EF060E070E08FE090E00E94F0156CE97BE2F6
S1133F00C7010E94022C8091442C2C96CDBFDEBFA9
S1133F10DF91CF911F910F91FF90EF9008952F9211
S1133F203F924F925F926F927F928F929F92AF9245
S1133F30BF92CF92DF92EF92FF920F931F93CF9392
S1133F40DF93CDB7DEB7AB97CDBFDEBF1C018FEFDC
S1133F508093442C81E4898388E88A838091FD2AB4
S1133F608B831C821D82E9E9FBE2808191819E831F
S1133F708F831886A9D4898780E58A871B861C8647
S1133F801D861E868FEF9FEFEADA80E090E0ACDAC0
S1133F9000E816E006C0D80118968C9180FFFBCF8C
S1133FA05EDB8091442C8F3FB1F3863009F02AC147
S1133FB025DE422E532E642E752E445C504F6F4FD7
S1133FC07F4F8F4F9F4F08E00E94CE2B622F732F9D
S1133FD0842F952FE8D964EF71E080E090E0D9D880
S1133FE084EE9CE0BCDA8091FD2A8B8340E050E0B3
S1133FF0BE016F5F7F4F8EE090E00E94D51441E0D8
S113400050E060E070E08EE090E00E940C1683E0E7
S1134010D2D9019631F48FE992E20E94292C82E0F0
S1134020FDC08FEF8093442C00E816E005C0F80132
S1134030808580FFFCCF13DB8091442C8F3FB9F344
S1134040883009F0D2C08E01015F1F4FC8010E9461
S11340502D15FE017496D80110E000E0F12CE12C3E
S113406060E070E080E090E0212F302F4F2D5E2D36
S113407008E00E94B32B1291122B032FF42EE52E8D
S1134080EA17FB0789F7BADD2C8F3D8F4E8F5F8FC0
S113409068A379A38AA39BA3BE01685E7F4F88E0CF
S11340A09BE2B9DCBE016C5E7F4F8CE09BE2B3DC2B
S11340B0BE01615F7F4F80E19BE2ADDC1CA30DA3D9
S11340C0FEA2EFA22C893D894E895F8928A739A7D2
S11340D04AA75BA7888D998DAA8DBB8D281B390BA8
S11340E04A0B5B0BCA01B9010E94E7296B017C01F1
S11340F06C8D7D8D8E8D9F8D2CA13DA14EA15FA1D8
S1134100621B730B840B950B0E94E7296C8F7D8FC8
S11341108E8F9F8F8F859889A989BA89BC01CD011B
S113412028A539A54AA55BA5621B730B840B950BC7
S11341300E94E72968A779A78AA79BA76CA17DA1FC
S11341408EA19FA164197509860997090E94E72920
S11341502B013C012C8D3D8D4E8D5F8DC701B60129
S11341600E94C32A4B015C01A301920168A579A5B1
S11341708AA59BA50E94C32A9B01AC01C501B40179
S1134180EFD74B015C012C8D3D8D4E8D5F8DC701AA
S1134190B601E7D728A539A54AA55BA5E2D7A301AF
S11341A09201DFD79B01AC01C501B4010E9415291E
S11341B00E947D290E94E32922EC38EA49E85DE265
S11341C00E94C32A29EC38EE4EE85DE40E94C32A1B
S11341D020E030E048EC52E40E94C32A0E94B72950
S11341E0D1016D937C9380E019C020E030E947E26F
S11341F054E260E070E08FE090E00E94F01522DA73
S113420082E00CC020E030E947E254E260E070E074
S11342108FE090E00E94F01515DA82E0AB96CDBFF6
S1134220DEBFDF91CF911F910F91FF90EF90DF9050
S1134230CF90BF90AF909F908F907F906F905F9042
S11342404F903F902F900895AF92BF92CF92DF92FC
S1134250EF92FF920F931F93CF93DF93A12C0F2E16
S1134260FCE6BF2EF02D0F2EFCEDCF2EF02D689422
S1134270DD24D1F8E12CF12C00E010E0282F392FB7
S113428040E050E060E070E080E090E00E94622B4B
S113429029513C4F4F4F5F4F6F4F7F4F8F4F9F4F71
S11342A00E94242A20E030E84BEB55E4BED70E945C
S11342B08229F22FE32F8F2F9E2FA42FB52F019742
S11342C0A109B1090097A105B105C9F7DF91CF9103
S11342D01F910F91FF90EF90DF90CF90BF90AF9020
S11342E00895CF92DF92EF92FF920F931F9384E190
S11342F08093432C80EC98E00E944001C12CD12C87
S1134300760100E211EA27E030E040E063E47CE279
S113431080EC98E00E945901E0ECF8E08081806430
S1134320808380E090E01F910F91FF90EF90DF90E9
S1134330CF900895CF92DF92EF92FF920F931F9345
S1134340C12CD12C760100EC11EE24EE30E040E0DB
S113435063E47CE280EC98E00E9459011F910F9184
S1134360FF90EF90DF90CF9008958F929F92AF923D
S1134370BF92CF92DF92EF92FF920F931F93CF934E
S1134380DF937C01EB0149015A013FDB6C0163E4DB
S11343907CE280EC98E00E949A01A701BE0180ECC7
S11343A098E00E947801A401B80180EC98E00E9492
S11343B0780163E47CE280EC98E00E94B001C601DD
S11343C028DB80E090E0DF91CF911F910F91FF9067
S11343D0EF90DF90CF90BF90AF909F908F90089513
S11343E08F929F92AF92BF92CF92DF92EF92FF9201
S11343F00F931F93CF93DF937C01EB0149015A0183
S113440004DB6C0163E47CE280EC98E00E949A0196
S1134410A701BE0180EC98E00E947801A401B801D4
S113442080EC98E00E94870163E47CE280EC98E0F1
S11344300E94B001C601EDDA80E090E0DF91CF91F7
S11344401F910F91FF90EF90DF90CF90BF90AF90AE
S11344509F908F9008950E94401280E09AE6A8E110
S1134460B0E00197A109B1090097A105B105C9F709
S1134470E0E4F6E088E0828334E03283A0E0B6E052
S113448090E411969C93119720E811962C93A0E246
S1134490B6E041E011964C93119742E011964C938B
S11344A0A0E8B6E011964C93119711968C93A0E670
S11344B0B6E012963C93129711968C9380E1818317
S11344C080E28183218392838FB7F894E6E5F6E056
S11344D09081977090839081906190838FBF81E0E9
S11344E0E0E8F6E0828302C5089580E4E0E0F6E0C7
S11344F0858380E092EEA4E0B0E00197A109B109C0
S11345000097A105B105C9F780E8E0E0F6E08583EE
S113451080E092EEA4E0B0E00197A109B109009710
S1134520A105B105C9F781E0E0E2F6E0858380E00A
S113453092EEA4E0B0E00197A109B1090097A105AA
S1134540B105C9F782E0E0E2F6E0858380E092EE0F
S1134550A4E0B0E00197A109B1090097A105B10554
S1134560C9F780E4E0E0F6E0868380E092EEA4E020
S1134570B0E00197A109B1090097A105B105C9F7F8
S113458080E8E0E0F6E0868380E092EEA4E0B0E02C
S11345900197A109B1090097A105B105C9F781E007
S11345A0E0E2F6E0868380E092EEA4E0B0E00197DA
S11345B0A109B1090097A105B105C9F782E0E0E2BC
S11345C0F6E0868380E092EEA4E0B0E00197A109D2
S11345D0B1090097A105B105C9F780E4E0E0F6E070
S11345E0858380E094ECA9E0B0E00197A109B109CA
S11345F00097A105B105C9F780E8E0E0F6E08583FE
S113460080E094ECA9E0B0E00197A109B10900971A
S1134610A105B105C9F781E0E0E2F6E0858380E019
S113462094ECA9E0B0E00197A109B1090097A105B4
S1134630B105C9F782E0E0E2F6E0858380E094EC1E
S1134640A9E0B0E00197A109B1090097A105B1055E
S1134650C9F780E4E0E0F6E0868380E094ECA9E02A
S1134660B0E00197A109B1090097A105B105C9F707
S113467080E8E0E0F6E0868380E094ECA9E0B0E036
S11346800197A109B1090097A105B105C9F781E016
S1134690E0E2F6E0868380E094ECA9E0B0E00197E4
S11346A0A109B1090097A105B105C9F782E0E0E2CB
S11346B0F6E0868380E094ECA9E0B0E00197A109DC
S11346C0B1090097A105B105C9F780E4E0E0F6E07F
S11346D0858380E096EAAEE0B0E00197A109B109D4
S11346E00097A105B105C9F780E8E0E0F6E085830D
S11346F080E096EAAEE0B0E00197A109B109009725
S1134700A105B105C9F781E0E0E2F6E0858380E028
S113471096EAAEE0B0E00197A109B1090097A105BE
S1134720B105C9F782E0E0E2F6E0858380E096EA2D
S1134730AEE0B0E00197A109B1090097A105B10568
S1134740C9F780E4E0E0F6E0868380E096EAAEE034
S1134750B0E00197A109B1090097A105B105C9F716
S113476080E8E0E0F6E0868380E096EAAEE0B0E040
S11347700197A109B1090097A105B105C9F781E025
S1134780E0E2F6E0868380E096EAAEE0B0E00197EE
S1134790A109B1090097A105B105C9F782E0E0E2DA
S11347A0F6E0868380E096EAAEE0B0E00197A109E6
S11347B0B1090097A105B105C9F780E4E0E0F6E08E
S11347C0858380E098E8A3E1B0E00197A109B109ED
S11347D00097A105B105C9F780E8E0E0F6E085831C
S11347E080E098E8A3E1B0E00197A109B10900973E
S11347F0A105B105C9F781E0E0E2F6E0858380E038
S113480098E8A3E1B0E00197A109B1090097A105D7
S1134810B105C9F782E0E0E2F6E0858380E098E83C
S1134820A3E1B0E00197A109B1090097A105B10581
S1134830C9F780E4E0E0F6E0868380E098E8A3E14D
S1134840B0E00197A109B1090097A105B105C9F725
S113485080E8E0E0F6E0868380E098E8A3E1B0E059
S11348600197A109B1090097A105B105C9F781E034
S1134870E0E2F6E0868380E098E8A3E1B0E0019707
S1134880A109B1090097A105B105C9F782E0E0E2E9
S1134890F6E0868380E098E8A3E1B0E00197A109FF
S11348A0B1090097A105B105C9F7089548E250E0A0
S11348B06BE17CE280E090E00C94511308958091C8
S11348C01B2C90911C2C089560E070E081E00E9404
S11348D0921390E00895CF93DF9388EC90E1809356
S11348E01B2C90931C2CF0DFCDE1DCE288839983B0
S11348F081E080931F2C85E1E8E9F3E2A0E2BCE2C9
S113490001900D928A95E1F785E0EDEAF3E2A5E3E3
S1134910BCE201900D928A95E1F785E0E2EBF3E2C7
S1134920AAE3BCE201900D928A95E1F7888199810E
S11349308330910539F130F48130910549F00297C3
S1134940A1F047C08430910551F10597A9F141C008
S113495084EF97E480933F2C9093402C89E898E36C
S11349608093412C9093422C3EC08DEE97E480932B
S11349703F2C9093402C83E898E38093412C9093B0
S1134980422C31C083E098E480933F2C9093402CD8
S113499085E998E38093412C9093422C24C08BEEBC
S11349A097E480933F2C9093402C82E898E3809383
S11349B0412C9093422C17C086EE97E480933F2CB1
S11349C09093402C8DE798E38093412C9093422C54
S11349D00AC086E390E480933F2C9093402C80930C
S11349E0412C9093422C62DFDF91CF91089548E2ED
S11349F050E06BE17CE280E090E00E94B412809190
S1134A001B2C90911C2C883C904119F064DF81E0B0
S1134A10089580E0089560E27CE2F4C6089565E3B9
S1134A207CE2F0C608956AE37CE2ECC60895CF9375
S1134A30DF93CDB7DEB76F97CDBFDEBFCE01019652
S1134A40EADFCE014696EBDFCE014B96ECDF87ED35
S1134A5093E2FFD680911B2C90911C2C9F938F93F3
S1134A608CE094E29F938F93E3D62EDF9F938F93F2
S1134A7088E294E29F938F93DBD680911F2CCDBF65
S1134A80DEBF882319F087EB93E202C087EC93E240
S1134A909F938F9383E494E29F938F93C9D6CE011F
S1134AA001969F938F938EE594E29F938F93C0D644
S1134AB0CE0146969F938F9389E794E29F938F93B9
S1134AC0B7D6CE014B969F938F9384E994E29F933C
S1134AD08F93AED680913F2C9091402C9F938F93CF
S1134AE08FEA94E29F938F93A3D68091412C909167
S1134AF0422C9F938F938AEC94E29F938F9398D642
S1134B00CDBFDEBF6F96CDBFDEBFDF91CF910895DD
S1134B10BC0180E29CE276C60895BC0185E39CE278
S1134B2071C60895BC018AE39CE26CC608952F9275
S1134B303F924F925F926F927F928F929F92AF9229
S1134B40BF92CF92DF92EF92FF920F931F93CF9376
S1134B50DF93CDB7DEB7CE54D109CDBFDEBF18A2E7
S1134B601AA21BA21CA21DA2512C6E0126E2C20E87
S1134B70D11C7E0130E4E30EF11C8E01055C1F4F55
S1134B800F2EFBE16F2EFCE27F2EF02D0F2EF9E0AD
S1134B908F2EF4E29F2EF02D5E0181E2A80EB11C4F
S1134BA0FE01B4962796EEAFFFAF27979E012E5DC8
S1134BB03F4F29962EAF3FAF2997CE014B962B96A8
S1134BC08EAF9FAF2B971E0196E1290E311CB39730
S1134BD02D96EEAFFFAF2D97225031092F962EAFB1
S1134BE03FAF2F97412CC60116DFC70118DFC8015C
S1134BF01ADF80EF93E22DD688ED93E22AD6F301F3
S1134C00808191819F938F939F928F9211D65CDEC6
S1134C109F938F9385E294E29F938F9309D680911B
S1134C201F2CCDBFDEBF882319F087EB93E202C0AF
S1134C3087EC93E29F938F9380E494E29F938F9306
S1134C40F7D5DF92CF928BE594E29F938F93F0D5C3
S1134C50FF92EF9286E794E29F938F93E9D51F9397
S1134C600F9381E994E29F938F93E2D580913F2C37
S1134C709091402C9F938F938CEA94E29F938F930F
S1134C80D7D58091412C9091422C9F938F9387ECA0
S1134C9094E29F938F93CCD582EE94E2DAD583EF9E
S1134CA094E29F938F93C4D5BF92AF9287E797E224
S1134CB09F938F93FBD5CDBFDEBF89A190E0883051
S1134CC0910508F0C8C0FC01EC5EFE4FF5C489E212
S1134CD095E2BFD580E094E2A4EFB42D0197A10939
S1134CE0B1090097A105B105C9F7B1C08EE695E2F7
S1134CF09F938F939DD52F969FAD2F979F932E961D
S1134D00EFAD2E97EF9387E797E29F938F93CED5DE
S1134D100F900F900F900F900F900F9088A1882301
S1134D2011F081E088A388A180931F2C90C085EAAC
S1134D3095E29F938F937CD52D96FFAD2D97FF938E
S1134D402C962FAD2C972F9383EC95E29F938F9302
S1134D50ADD5CE010196DCDE0F900F900F900F9031
S1134D600F900F9074C088EC95E29F938F9360D559
S1134D703F922F9283EF95E29F938F9397D5C10132
S1134D80CCDE0F900F900F900F900F900F905FC09C
S1134D9087EF95E29F938F934BD52B963FAD2B973F
S1134DA03F932A968FAD2A978F9383EF95E29F9333
S1134DB08F937CD5CE014B96B5DE0F900F900F905C
S1134DC00F900F900F9043C081E296E29F938F93D0
S1134DD02FD529969FAD29979F932896EFAD2897B5
S1134DE0EF9387E496E29F938F9360D58AA19BA16A
S1134DF080933F2C9093402C0F900F900F900F9026
S1134E000F900F9024C08BE496E29F938F9310D55C
S1134E102796FFAD2797FF9326962FAD26972F93BE
S1134E2087E496E29F938F9341D58CA19DA18093B3
S1134E30412C9093422C0F900F900F900F900F9055
S1134E400F9005C033DD81E796E203D507C05520F6
S1134E5009F4C9CE03C0552009F4C5CEC25BDF4FA7
S1134E60CDBFDEBFDF91CF911F910F91FF90EF90E7
S1134E70DF90CF90BF90AF909F908F907F906F9076
S1134E805F904F903F902F90089580913F2C909188
S1134E90402C08958091412C9091422C0895CF93F9
S1134EA0C82F8A3021F48DE090E00E94AE048C2F4C
S1134EB0992787FD90950E94AE0480E090E0CF9101
S1134EC008950F931F93CF93DF938C010E94ED03FA
S1134ED08823E1F30E943904EC01B801E0DFCE013C
S1134EE09927DF91CF911F910F91089587E0E0EA10
S1134EF0F0E0828378940E949C050E94550E81EB19
S1134F0090E28093D52C9093D62C8093D32C9093BD
S1134F10D42C0895992787FD90950C94AE04089598
S1134F20CF93DF93CDB7DEB72797CDBFDEBF809198
S1134F30C3208D838091C4208E838091C5208F836C
S1134F408091BF209091C020A091C120B091C22037
S1134F5089839A83AB83BC8360E185E00E948D12D0
S1134F60BE016F5F7F4F80EA9AE00E94CA0A82E026
S1134F70E0E8F6E086832796CDBFDEBFDF91CF91D0
S1134F8008951F920F920FB60F9211242F933F93FF
S1134F904F935F936F937F938F939F93AF93BF933D
S1134FA0EF93FF9382E0E0E2F6E087838091A0092B
S1134FB080939F2CE0917D2BF0E0EB5BF34D80839D
S1134FC0A9DFE0917D2BEF5FE0937D2B80919F2CF7
S1134FD08A3019F581E0A0E2B6E017968C93F0E0F0
S1134FE0EB5BF34D108260EA7CE285E49CE20E9474
S1134FF0E413882379F0EFECFCE281818F938081C4
S11350008F938CE394E29F938F9312D40F900F901D
S11350100F900F9010927D2B08C0E93531F4109257
S11350207D2B80E8E0E0F6E08783FF91EF91BF916C
S1135030AF919F918F917F916F915F914F913F912C
S11350402F910F900FBE0F901F901895CF93DF9361
S1135050CDB7DEB76197CDBFDEBF86E298E2F9D364
S11350600E94861400E016E06894442446F868948C
S1135070332437F86E0183E0C80ED11C5C2C6D2CF0
S11350800F2EFFECEF2EFCE2FF2EF02D0F2EF7E794
S11350908F2EF7E29F2EF02D0F2EF3EAAF2EF7E2BC
S11350A0BF2EF02DF80146823682CE0101960E9471
S11350B08F1F8111F7CF742CF8017582852D962DE1
S11350C00E94201F8111F8CFF8013782F894F7016C
S11350D081818F9380818F939F928F92A9D3F701BF
S11350E081818F9380818F938A818F9389818F931C
S11350F0BF92AF92DF92CF92EAD3789461E070E0EE
S1135100852D962D0E945A1ECDBFDEBFCBCFA3D9CD
S113511007DF0E94A213E0EAF9E083818F7C8061BB
S11351208383E3D964DCC82FCADB9F938F931F92D8
S1135130CF9387E498E29F938F937AD3E0E4F6E0E9
S113514080850F900F900F900F900F900F9082FD1D
S113515002C0EDDC01C06BDC81E00E94281E76DF1A
S11351605058BB27AA270ED0D4C1C5D130F0CAD11C
S113517020F031F49F3F11F41EF4AAC10EF4E0951F
S1135180E7FBA0C1E92FD6D180F3BA1762077307F2
S11351908407950718F071F49EF5EEC10EF4E095BE
S11351A00B2EBA2FA02D0B01B90190010C01CA01DD
S11351B0A0011124FF27591B99F0593F50F4503E88
S11351C068F11A16F040A22F232F342F4427585F7A
S11351D0F3CF469537952795A795F0405395C9F792
S11351E07EF41F16BA0B620B730B840BBAF091504A
S11351F0A1F0FF0FBB1F661F771F881FC2F70EC0E9
S1135200BA0F621F731F841F48F4879577956795BB
S1135210B795F7959E3F08F0B3CF9395880F08F0A4
S11352209927EE0F9795879508950CD072C16AD18E
S113523040F061D130F021F45F3F19F043C15111C6
S11352409CC146C177D198F39923C9F35523B1F38F
S1135250951B550BBB27AA2762177307840738F0E1
S11352609F5F5F4F220F331F441FAA1FA9F333D040
S11352700E2E3AF0E0E830D091505040E695001CF4
S1135280CAF729D0FE2F27D0660F771F881FBB1FB0
S1135290261737074807AB07B0E809F0BB0B802D8A
S11352A0BF01FF2793585F4F2AF09E3F510568F0D6
S11352B009C163C15F3FECF3983EDCF386957795B3
S11352C06795B795F7959F5FC9F7880F911D9695D8
S11352D0879597F90895E1E0660F771F881FBB1F34
S11352E0621773078407BA0720F0621B730B840BE1
S11352F0BA0BEE1F88F7E0950895BEE304D008F4D6
S113530090E80895BFE322273327A9011BD158F160
S11353109F5740F1B91738F1BFE3B91B9927B8502B
S11353203AF4660F771F881F991FB395D2F316C0FE
S1135330B8504AF0232F342F452F562F672F782F3C
S11353408827B850BAF7B85F49F08695779567957E
S11353505795479537952795BA95B9F70EF4BBD06D
S113536088940895889460E070E0CB010895EAD0B1
S113537088F09F5790F0B92F9927B751A0F0D1F03A
S1135380660F771F881F991F1AF0BA95C9F712C0C4
S1135390B13081F0F1D0B1E00895EEC0672F782FDD
S11353A08827B85F39F0B93FCCF386957795679530
S11353B0B395D9F73EF490958095709561957F4F9C
S11353C08F4F9F4F089597FB0EF485D03EC0E8940D
S11353D009C097FB3EF490958095709561957F4F39
S11353E08F4F9F4F9923A9F0F92F96E9BB279395E7
S11353F0F695879577956795B795F111F8CFFAF4F7
S1135400BB0F11F460FF1BC06F5F7F4F8F4F9F4F27
S113541016C0882311F096E911C0772321F09EE885
S1135420872F762F05C0662371F096E8862F70E0EB
S113543060E02AF09A95660F771F881FDAF7880FC5
S11354409695879597F90895E894F92F96EBFF239D
S113545081F0121613061406440B9395F69587955E
S11354607795679557954040FF23B9F71BC0992757
S11354700895882351F49850D2F7872B762F652FFF
S1135480542F432F322F20E0B1F3121613061406C3
S1135490440B88233AF09A95440F551F661F771FD3
S11354A0881FCAF755234AF4440F551F11F460FFAF
S11354B004C06F5F7F4F8F4F9F4F880F96958795DE
S11354C097F9089597F99F6780E870E060E0089580
S11354D09FEF80EC08959095809570956095509518
S11354E04095309521953F4F4F4F5F4F6F4F7F4F02
S11354F08F4F9F4F089500240A9416161706180616
S11355000906089500240A941216130614060506C3
S11355100895092E0394000C11F4882352F0BB0F54
S113552040F4BF2B11F460FF04C06F5F7F4F8F4FB7
S11355309F4F089557FD9058440F551F59F05F3FF2
S113554071F04795880F97FB991F61F09F3F79F0A1
S113555087950895121613061406551FF2CF469523
S1135560F1DF08C0161617061806991FF1CF8695A5
S11355707105610508940895E894BB276627772789
S1135580CB0197F908950BD0C4CFB5DF28F0BADF6B
S113559018F0952309F096CF9BCF1124EECFCADFE4
S11355A0A0F3959FD1F3950F50E0551F629FF00132
S11355B0729FBB27F00DB11D639FAA27F00DB11D8B
S11355C0AA1F649F6627B00DA11D661F829F222714
S11355D0B00DA11D621F739FB00DA11D621F839F9B
S11355E0A00D611D221F749F3327A00D611D231F71
S11355F0849F600D211D822F762F6A2F11249F57BF
S113560050408AF0E1F088234AF0EE0FFF1FBB1FE1
S1135610661F771F881F91505040A9F79E3F510580
S113562070F050CFAACF5F3FECF3983EDCF3869541
S113563077956795B795F795E7959F5FC1F7FE2B2B
S1135640880F911D9695879597F90895AA1BBB1B02
S113565051E107C0AA1FBB1FA617B70710F0A61B6E
S1135660B70B881F991F5A95A9F780959095BC018F
S1135670CD010895A1E21A2EAA1BBB1BFD010DC08A
S1135680AA1FBB1FEE1FFF1FA217B307E407F507EE
S113569020F0A21BB30BE40BF50B661F771F881FCA
S11356A0991F1A9469F760957095809590959B0160
S11356B0AC01BD01CF010895EE0FFF1F0590F491D9
S11356C0E02D0994DF93CF931F930F939A9DF02DB0
S11356D0219FF00D8B9DF00D8A9DE02DF10D039F10
S11356E0F00D029FE00DF11D4E9DE00DF11D5E9D3C
S11356F0F00D4F9DF00D7F936F93BF92AF925F9328
S11357004F93D50167D08B01AC01D70163D0EB0176
S1135710E80FF91FD6011FD02F913F91D6015AD01F
S1135720C60FD71FE81FF91FAF91BF9114D02F9157
S11357303F9150D0C60FD71FE81FF91FD6014AD09A
S1135740E60FF71F9801BE01CF0111240F911F919D
S1135750CF91DF9108953ED0460F571FC81FD91F20
S113576008F4319608950F93083090F0982F872FFE
S1135770762F652F542F432F322F22270850F4CF32
S1135780220F331F441F551F661F771F881F991F41
S11357900A95B2F70F91089597FB10F81694000834
S11357A00F93083098F00850232F342F452F562F8D
S11357B0672F782F892F902DF4CF0594979587958F
S11357C07795679557954795379527950A95AAF73D
S11357D00F910895A29FB001B39FC001A39F700DC4
S11357E0811D1124911DB29F700D811D1124911DE5
S11357F00895FB01DC0102C001900D92415050401C
S1135800D8F70895FB01DC0101900D920020E1F727
S11358100895FB01DC014150504048F001900D9285
S11358200020C9F701C01D9241505040E0F708958F
S1135830A0E0B0E0EDE1FCE2FDC5FE01359661912A
S11358407191AF018091D52C9091D62C75D0E2E066
S11358500AC60F931F93CF93DF93E091D52CF09159
S1135860D62C238121FF1BC0EC0100E010E08991BC
S11358706091D52C7091D62CDB011896ED91FC919A
S11358801997882331F00995892B89F30FEF1FEFBE
S1135890EECF8AE00995892B11F4C80102C08FEF7D
S11358A09FEFDF91CF911F910F910895A0E0B0E099
S11358B0EBE5FCE2BFC5FE01359661917191AF0144
S11358C08091D32C9091D42C69D3E2E0CCC5AEE086
S11358D0B0E0ECE6FCE2ACC50D891E8986E08C8361
S11358E009831A838FEF9FE78D839E83AE01475E02
S11358F05F4F6F89788DCE0101961ED0EF81F885B8
S1135900E00FF11F10822E96E4E0ABC5AEE0B0E0EC
S1135910EBE8FCE28FC585E08C838B899C898983C5
S11359209A83AE01495E5F4F6D897E89CE010196EF
S113593035D32E96E2E097C5ACE0B0E0E1EAFCE2B4
S113594069C57C016B018A01FC011682178283817F
S113595081FFB0C1CE0101964C01F7019381F6019C
S113596093FD859193FF81916F01882309F49EC172
S1135970853239F493FD859193FF81916F018532CE
S113598021F4B70190E09AD4E8CF512C312C20E0D7
S11359902032A0F48B3269F030F4803259F0833233
S11359A069F420612CC08D3239F0803339F42160E0
S11359B026C02260246023C0286021C027FD27C0A0
S11359C030ED380F3A3078F426FF06C0FAE05F9ED7
S11359D0300D1124532E13C08AE0389E300D11244B
S11359E0332E20620CC08E3221F426FD5FC1206468
S11359F006C08C3611F4206802C0883641F4F601E2
S1135A0093FD859193FF81916F018111C1CF982FEF
S1135A109F7D9554933028F40C5F1F4FFFE3F98367
S1135A200DC0833631F0833771F0833509F057C0E8
S1135A3021C0F801808189830E5F1F4F4424439461
S1135A40512C540114C03801F2E06F0E711CF8019E
S1135A50A080B18026FF03C0652D70E002C06FEF07
S1135A607FEFC5012C87E1D32C0183012C852F778F
S1135A70222E16C03801F2E06F0E711CF801A080CE
S1135A80B18026FF03C0652D70E002C06FEF7FEF89
S1135A90C5012C87BFD32C012C852068222E8301BD
S1135AA023FC19C0832D90E048165906A0F4B701D1
S1135AB080E290E003D43A94F5CFF50127FC859178
S1135AC027FE81915F01B70190E0F8D331103A9439
S1135AD0F1E04F1A51084114510479F7DEC08436BD
S1135AE011F0893631F5F80127FF07C06081718113
S1135AF0828193810C5F1F4F08C060817181882768
S1135B0077FD8095982F0E5F1F4F2F76B22E97FF4B
S1135B1009C090958095709561957F4F8F4F9F4FE9
S1135B202068B22E2AE030E0A40113D4A82EA818CD
S1135B3043C0853729F42F7EB22E2AE030E025C0F9
S1135B40F22FF97FBF2E8F36C1F018F4883579F023
S1135B50ADC0803719F0883721F0A8C02F2F2061FD
S1135B60B22EB4FE0DC08B2D8460B82E09C024FF64
S1135B700AC09F2F9660B92E06C028E030E005C009
S1135B8020E130E002C020E132E0F801B7FE07C0B6
S1135B9060817181828193810C5F1F4F06C0608197
S1135BA0718180E090E00E5F1F4FA401D2D3A82E34
S1135BB0A818FB2DFF77BF2EB6FE0BC02B2D2E7F12
S1135BC0A51450F4B4FE0AC0B2FC08C02B2D2E7EDE
S1135BD005C07A2C2B2D03C07A2C01C0752C24FF10
S1135BE00DC0FE01EA0DF11D8081803311F4297E80
S1135BF009C022FF06C07394739404C0822F867870
S1135C0009F0739423FD12C020FF06C05A2C7314AC
S1135C1018F4530C5718732C731460F4B70180E212
S1135C2090E02C874BD373942C85F6CF731410F427
S1135C30371801C0312C24FF11C0B70180E390E074
S1135C402C873CD32C8522FF16C021FF03C088E596
S1135C5090E002C088E790E0B7010CC0822F8678FC
S1135C6051F021FD02C080E201C08BE227FD8DE2EC
S1135C70B70190E023D3A51430F4B70180E390E09A
S1135C801DD35A94F8CFAA94F401EA0DF11D808132
S1135C90B70190E013D3A110F6CF332009F45DCE01
S1135CA0B70180E290E00AD33A94F7CFF7018681F6
S1135CB0978102C08FEF9FEF2C96E2E1C4C320FDD1
S1135CC009C0FC0123FD05C022FF02C07383628367
S1135CD051834083089544FD10C046FD10C0DB018C
S1135CE0FC01AA0FBB1FEE1FFF1F1094D1F76A0F10
