S00E00004F6E65506F732E73726563C2
S113000013C100002EC100002CC100002AC1000051
S113001028C1000026C1000024C1000022C1000044
S113002020C100001EC100001CC100001AC1000054
S113003018C100000C94940914C1000012C10000FE
S113004010C100000EC100000CC100000AC1000074
S113005008C1000006C1000004C1000002C1000084
S113006000C10000FEC00000FCC00000FAC0000097
S1130070F8C00000F6C00000F4C00000F2C00000A8
S1130080F0C00000EEC00000ECC00000EAC00000B8
S1130090E8C00000E6C00000E4C00000E2C00000C8
S11300A0E0C00000DEC00000DCC00000DAC00000D8
S11300B0D8C00000D6C000000C94B709D2C000001C
S11300C0D0C00000CEC00000CCC00000CAC00000F8
S11300D0C8C00000C6C00000C4C00000C2C0000008
S11300E0C0C00000BEC00000BCC00000BAC0000018
S11300F0B8C00000B6C00000B4C00000B2C0000028
S1130100B0C00000AEC00000ACC00000AAC0000037
S1130110A8C00000A6C00000A4C00000A2C0000047
S1130120A0C000009EC000009CC000009AC0000057
S113013098C0000096C0000094C0000092C0000067
S113014090C000008EC000008CC000008AC0000077
S113015088C0000086C0000084C0000082C0000087
S113016080C000007EC000007CC000007AC0000097
S113017078C0000076C0000074C0000072C00000A7
S113018070C000006EC000006CC000006AC00000B7
S113019068C0000066C0000064C0000062C00000C7
S11301A060C000005EC000005CC000005AC00000D7
S11301B058C0000056C0000054C0000052C00000E7
S11301C050C000004EC000004CC000004AC00000F7
S11301D048C0000046C0000044C0000042C0000007
S11301E040C000003EC000003CC000003AC0000017
S11301F038C000000C94BA100C947011CE0CBC0CD6
S1130200BF0CC20CC50CC80CCB0CB017AB17B51780
S1130210DA17DA17DA17DA17BA17C217DA17DA178A
S1130220C917CD17D117D61711241FBECFEFCDBFD5
S1130230DFE2DEBF14E2A0E0B0E2E2E6F1E502C0F4
S113024005900D92A233B107D9F727E2A2E3B4E2F5
S113025001C01D92A332B207E1F70E9469220C94F7
S1130260AF28CECECF93DF93EC01C03C28E0D20779
S113027029F468E083E00E94A71207C0803C9940FB
S113028021F468E084E00E94A71288818061888359
S1130290DF91CF910895FF920F931F93CF93DF9334
S11302A0EC01F42EB901A80100E01CE62CED32E0CB
S11302B056D788234CF088819F2D990F990F9C70F5
S11302C0837FF92EF82AF882DF91CF911F910F9145
S11302D0FF900895FC01DB01460F571F05C08D9167
S11302E0838382818823ECF7A417B507C1F780E0E4
S11302F00895FC01DB014115510561F0460F571FBC
S11303009FEF938382818823ECF783818D93A417D5
S1130310B507B9F780E00895FB018081E82FE695E1
S1130320E695E69540E2E49FF0011124FA5F8770B8
S113033021E030E0A90102C0440F551F8A95E2F77D
S113034046830895FB018081E82FE695E695E695BE
S113035040E2E49FF0011124FA5F877021E030E06D
S1130360A90102C0440F551F8A95E2F745830895F9
S113037010924825109254251092552581EA8093B5
S11303804A2580E280934B2510924C2510924D25EE
S113039010924E2510924F2582E090E080935025D4
S11303A090935125109252251092532580E092EC9F
S11303B0A1E0B0E08093562590935725A09358254B
S11303C0B093592510925A2510925B2588E08093AA
S11303D05C25809148258F5F8093482581E00895AE
S11303E08091482581508093482508958091472520
S11303F08150809347258091472510924625089582
S113040080E0089580E00895809106278823DCF435
S113041080768032E9F5809107278132D9F5809181
S11304200C2790910D270797B9F586E595E28093FF
S11304300E2790930F2787E090E0809310279093E6
S1130440112781E008958076803241F58091072755
S1130450803221F0823221F581E0089580910C27C9
S113046090910D270797F1F484E592E08093122789
S11304709093132786E595E280930E2790930F2798
S113048087E090E0809310279093112781E00895EE
S113049080E0089580E0089580E0089580E0089564
S11304A080E0089580E008950895FF920F931F93CC
S11304B0CF93DF938091352481119CC00E94FC0E60
S11304C0882351F0C0913624D09137240E94090F1B
S11304D0C817D90759F48EC0C0913624D091372457
S11304E00E94040FC817D90709F484C0DFB7F89431
S11304F0C0913824EC2FF0E0EE0FFF1FE75CFB4DBA
S113050080819181892B09F5809132249091332443
S1130510019680933224909333240E94FC0E81111F
S113052007C080913224909133248436910558F089
S11305300E94FC0E882349F0809132249091332448
S11305408032934010F4DFBF55C0109232241092D1
S1130550332480913424811106C081E0C11180E0EC
S11305608093382404C081E0C11180E0C82F81E069
S113057080933524DFBFD0E0FE01EE0FFF1FE75C60
S1130580FB4DFF24F394808191818034910509F41B
S1130590F12CFF2091F00E94FC0E882339F00E9478
S11305A0090F80933624909337240BC00E94040FC4
S11305B0809336249093372404C0109236241092EA
S11305C03724FE01EE0FFF1FE75CFB4D20813181D4
S11305D0AE01002456954795079456954795079480
S11305E0542F402D425C5B4D00E013E06F2D81E8F9
S11305F00E94BB0FDF91CF911F910F91FF9008953F
S1130600811115C02091382481E090E0222311F05B
S113061080E090E0FC01EE0FFF1FE75CFB4D1082D1
S11306201182109234241092352480E03ECF089534
S113063080E03BCF08954FB7F8942091BF243091C8
S1130640C024E091C124F0E0EE0FFF1FEE53FB4DF8
S113065080819181821B930B4FBF0895ECDF21E0D1
S1130660892B09F420E0822F08950F931F93CF93D1
S1130670DF934FB7F8945091C1248091BE24811127
S113068010C02091BF243091C024C52FD0E0FE01BA
S1130690EE0FFF1FEE53FB4D808191812817390720
S11306A018F44FBF80E023C01092BF241092C024DE
S11306B081E0511180E08093C12481E08093BE24C5
S11306C04FBF80E0CBDFAE010024569547950794D9
S11306D0569547950794542F402D4A535B4D0EEA87
S11306E013E020E430E061E082E00E94BB0FDF9180
S11306F0CF911F910F9108951092472510923524A0
S113070010923424109238241092392410923A24EE
S113071010923B2410923C241092362410923724D9
S113072080E0C3DE1092BE241092C1241092C22431
S11307301092C3241092BF241092C02480E095DF4D
S1130740882359F0909147259F5F90934725909176
S11307504725913011F49093462508950F931F93E4
S1130760942F811129C08091C124E1E08111E0E03E
S113077061157105B1F4F0E00024F695E79507944E
S1130780F695E7950794FE2FE02DAF014A535B4D94
S11307900EEA13E020E430E061E0892F0E94BB0FF1
S11307A00BC0F0E0EE0FFF1FEE53FB4D608371832F
S11307B01092BE2480E059DF1F910F91089580E0CC
S11307C04DCF08951F93CF93DF9311E080915C2563
S11307D0893009F010E060E070E03FB7F894809150
S11307E0BF249091C0242091C1243FBF30E0F9017F
S11307F0EE0FFF1FEE53FB4D408151818417950787
S113080030F0809146258111E8CF90E020C0F901B5
S11308100024F695E7950794F695E7950794FE2F3F
S1130820E02DE80FF91FEA53FB4D2081EB01C22BA9
S113083001968093BF249093C02480E016DF112397
S113084021F07C2F662710E0C8CF8C2F9D2FDF91DD
S1130850CF911F91089580E0B5CF08959FB7F89484
S113086080913824E82FF0E0EE0FFF1FE75CFB4D8A
S1130870208131812034310589F44091352441119E
S11308800DC040913424411109C021E02093342447
S1130890811120E02093382420E030E09FBF80E4E1
S11308A090E0821B930B0895D9DF21E0892B09F492
S11308B020E0822F08951F93CF93DF93162FC72F25
S11308C0D1E080915C25893009F0D0E080E0ECDF54
S11308D0811107C0809146258111F8CF80E090E016
S11308E02BC06FB7F8942091382430E0F901EE0F53
S11308F0FF1FE75CFB4D80819181AC014F5F5F4F2F
S113090040835183F9010024F695E7950794F69501
S1130910E7950794FE2FE02D8E0F9F1FFC01E25CEC
S1130920FB4D10836FBFDD2329F01C2FCC0FCC0BA4
S1130930D0E0CCCF81E090E0DF91CF911F9108957A
S1130940BC0180E0B8CF0895E0916225F091632561
S11309500190F081E02D228133812E0F3F1FFC0195
S11309604081E40FF11DE217F307A0F48181843084
S1130970A1F0861306C014C081818430A1F08617CB
S1130980A9F08081E80FF11DE217F307A8F380E0D6
S113099090E0089580E090E0089580E090E008956C
S11309A08E2F9F2F089580E090E008958E2F9F2F23
S11309B00895809108278F770C94FE0E08959091E6
S11309C06425992381F1E0916225F09163250190DA
S11309D0F081E02D9481891740F5E0936025F09330
S11309E06125228133812E0F3F1FE217F307F8F4AC
S11309F09181943061F49281981309C09381961384
S1130A0006C0E0936025F093612581E0089590810C
S1130A10E90FF11DE217F30758F3E0936025F09313
S1130A20612580E0089580E0089580E0089580E0E5
S1130A300895FF920F931F93CF93DF93C82F60E025
S1130A40BEDFF82E882381F1A0916225B091632541
S1130A50EC2FF0E0EE0FFF1F12962D913C911397AF
S1130A60E20FF31F00811181D8011696ED91FC91DC
S1130A7017970995682F8C2FA2DFF82E8823A1F0F1
S1130A80C0916025D091612565E0CE015DDFEC0168
S1130A90009721F08A810E947C10F6CFD80112962B
S1130AA0ED91FC91139709958F2DDF91CF911F91B3
S1130AB00F91FF9008951F93CF93DF93182F7FDF3B
S1130AC0882341F1C0916025D091612565E0CE0174
S1130AD03BDFEC01009749F04C815D816B818A8199
S1130AE00E94150F8111F2CF15C0A0916225B0911B
S1130AF06325812F90E0880F991F1296ED91FC9148
S1130B001397E80FF91F0190F081E02D0190F08117
S1130B10E02D0995DF91CF911F9108950C94920EC9
S1130B200895CF93809164258823C1F0E0916225D4
S1130B30F09163250190F081E02D8481882371F088
S1130B40C0E08C2F76DFCF5FE0916225F0916325C2
S1130B500190F081E02D8481C81798F310926425E8
S1130B6081E090E08093682590936925CF91089562
S1130B70CF9380916425882341F1E0916225F0911F
S1130B806325A081B18114968C918823F1F0C0E093
S1130B908C2F90E0880F991F0280F381E02DE80FDD
S1130BA0F91F0190F081E02D0084F185E02D30974C
S1130BB009F00995CF5FE0916225F0916325A0814A
S1130BC0B18114968C91C81718F3CF910895EF92C0
S1130BD0FF920F931F93CF93DF93109210271092DD
S1130BE01127109212271092132710921427109293
S1130BF015272091062722230CF097C280910C27F9
S1130C0090910D27009709F095C28BC22F7109F0BE
S1130C10B9C030910727363089F0383009F4A6C0BE
S1130C203111B0C0029741F462E070E088E695E2C9
S1130C300E940C0F01E0F8C100E0F6C120910827E2
S1130C4030910927832F992782309105A1F01CF454
S1130C50019739F081C083309105F1F10F9769F163
S1130C607BC08091342090913520DC016C9170E040
S1130C700E940C0F60C0E0913420F09135208189EE
S1130C80281708F06BC0C9019927880F991F880F8E
S1130C90991FE0913620F0913720E80FF91F8081E9
S1130CA09181FC01628173810E940C0FE0910E27F7
S1130CB0F0910F2782E081833EC08091382090918B
S1130CC03920009709F44CC0DC0112966D917C9197
S1130CD013970E940C0F2FC033272130310589F060
S1130CE048F02230310509F42AC22330310509F4D1
S1130CF02AC238C064E070E080E390E20E940C0FE6
S1130D001AC089E290E225E0382FA6E1B0E2E82F8C
S1130D10F92F819190E08D939D938E2F831B8217E1
S1130D20C0F3220F62E0620F6093142070E084E14C
S1130D3090E20E940C0F80910C2790910D27209136
S1130D401027309111278217930770F4809310278E
S1130D509093112701E068C100E066C100E064C11E
S1130D6000E062C100E060C101E05EC1019741F4AE
S1130D7061E070E084E695E20E940C0F01E054C14A
S1130D8000E052C1213009F040C0309107273A30C9
S1130D90E1F50197A1F580916425882391F1C09133
S1130DA00A27D0910B27E0906225F0906325D701A4
S1130DB0ED91FC918481C81730F560E08C2FFFDD44
S1130DC0082F882309F430C1CE019927880F991F71
S1130DD0D7011296ED91FC911397E80FF91F01903A
S1130DE0F081E02D0680F781E02D0995809366253A
S1130DF061E070E086E695E20E940C0F15C100E008
S1130E0013C100E011C100E00FC1223009F00EC18E
S1130E1020910727211103C1029781F480910A27A9
S1130E200E94760F90E080935E2590935F2562E0A8
S1130E3070E08EE595E2F0D701E0F6C000E0F4C082
S1130E402F7109F090C080910727833009F4E9C01D
S1130E5018F48130B1F087C0853019F0893061F120
S1130E6082C080910C2790910D27892B41F489ED44
S1130E7094E0809312279093132701E0D5C000E0FB
S1130E80D3C080910C2790910D27892B89F48091F0
S1130E90082790910927019769F48091682590911A
S1130EA069258D7F809368259093692501E0BCC0F6
S1130EB000E0BAC000E0B8C080910C2790910D27E3
S1130EC0892B09F046C09DD7882309F444C020919A
S1130ED00827309109273327E0913420F0913520F9
S1130EE0818990E082179307C0F11BDE8091082767
S1130EF09091092780936425882389F1992781504B
S1130F00904C880F991F880F991FE0913620F0911B
S1130F103720E80FF91FE0936225F09363250190D1
S1130F20F081E02D84818823E1F0C0E060E08C2F23
S1130F30C2DD082F882309F477C0CF5FE0916225D2
S1130F40F09163250190F081E02D8481C81770F33E
S1130F506BC000E069C000E067C000E065C001E06C
S1130F6063C001E061C0213009F5809107278B300F
S1130F70E9F480910C2790910D27892B99F48091A5
S1130F806425882389F0C0910A27D09108278C2FE3
S1130F9050DD082F882309F447C06D2F8C2F8BDD7B
S1130FA0082F42C000E040C000E03EC0223009F0FB
S1130FB03DC080910727813019F08330B1F033C0F0
S1130FC080910C2790910D27892B59F48091082743
S1130FD090910927892B39F480910A27A2D7082FE9
S1130FE023C000E021C000E01FC080910C27909135
S1130FF00D27892B81F48091082790910927892B4B
S113100061F4CAE0D7E288810E94431088810E947B
S11310109910082F09C000E007C000E005C000E0F7
S113102003C000E001C000E0011191C080910627D7
S11310308F718130C1F5809164258823A1F1C0911D
S11310400A27D0910B270091622510916325D801BE
S1131050ED91FC918481C81730F560E08C2FAFDCF2
S1131060882309F1CE019927880F991FD801129678
S1131070ED91FC911397E80FF91F00811181D801BC
S11310801696ED91FC9117970995682F8C2F97DC94
S1131090882349F0D8011496ED91FC911597099590
S11310A0082F811154C0809106278F718230D9F5A1
S11310B080916425882389F1E0916225F09163256C
S11310C0A081B18114968C91882349F110E0212FDD
S11310D030E0220F331F0280F381E02DE20FF31F73
S11310E0C081D181EE81FF810995682F812F67DC52
S11310F0082F882361F1EC81FD810995082F811166
S113110026C01F5FE0916225F0916325A081B18123
S113111014968C911817D8F21AC000E018C000E099
S113112016C000E014C000E012C0822F807609F0DF
S11311307DCF86CE322F307609F078CF67CD26E08A
S113114082E290E2E1CD24E081E191E2DDCD802FE5
S1131150DF91CF911F910F91FF90EF900895CF925F
S1131160DF92EF92FF920F931F93CF93DF93EC01E3
S11311706A017B01DB01CA010197A109B109BC0124
S1131180CD01600F711F821F931FA70196010E945A
S113119002252138310541055105F8F4213460F464
S11311A0213260F4213160F4293060F4253060F498
S11311B0233060F090E00BC093E009C092E007C0D8
S11311C092E805C091E003C091E801C090E88881ED
S11311D08C77892B888381E001C08FEFDF91CF91D9
S11311E01F910F91FF90EF90DF90CF900895CF93D0
S11311F0DF93E0916A25F0916B25848183FF08C019
S11312008860848383E0838386EF8093742589C018
S1131210982F947131F083E083838FEF809374254A
S113122080C086FF45C0A0916C25B0916D2580914A
S11312306E2590916F2514962D913C9115978217E8
S113124093076CF49C012F5F3F4F20936E253093DE
S11312506F25A80FB91F11968C91878362C0809166
S113126070259091712518962D913C9119978217AC
S11312709307C8F420917225222321F0868181608E
S113128086834FC016962D913C911797AC014F5F02
S11312905F4F4093702550937125D901A80FB91F52
S11312A08C9187833EC083E083831092742539C078
S11312B08823A4F5A0916C25B0916D2580917025AB
S11312C09091712518962D913C9119978217930747
S11312D0F8F416964D915C9117979C012F5F3F4F40
S11312E020937025309371256781EA01C80FD91FB7
S11312F0688318968D919C9119972817390718F4CB
S113130082E083830EC087E083831092742509C032
S113131083E0838389EF8093742503C08BEF8093EC
S11313207425DF91CF9108951F920F920FB60F92FB
S113133011242F933F934F935F936F937F938F93D6
S11313409F93AF93BF93EF93FF9351DFFF91EF917F
S1131350BF91AF919F918F917F916F915F914F91C9
S11313603F912F910F900FBE0F901F9018951F92D1
S11313700F920FB60F9211242F933F934F935F93C5
S11313806F937F938F939F93AF93BF93EF93FF9349
S11313902EDFFF91EF91BF91AF919F918F917F913C
S11313A06F915F914F913F912F910F900FBE0F90CE
S11313B01F9018954F925F926F927F928F929F9297
S11313C0AF92BF92CF92DF92EF92FF920F931F934F
S11313D0CF93DF93EC014A015B0128013901D90164
S11313E0C801689412F8B695A795979587951694B1
S11313F0D1F7B901A801032E36E176956795579583
S113140047953A95D1F7302D2C8122FD08C0B69529
S1131410A7959795879576956795579547958815D8
S11314209905AA05BB0508F4A6C084169506A60668
S1131430B70608F4A2C08C8182FD04C0880C991CF4
S1131440AA1CBB1CC301B201A50194010E94022580
S11314502F3F31054105510508F491C0C12CD12C11
S11314607601CA9419EF05C02C153D054E055F059C
S113147068F0CC0CDD1CEE1CFF1C1D3F14F46894BA
S1131480C0F81F5F173081F7212F50C0212F11237F
S11314900CF04CC0D501C401880F991FAA1FBB1FB3
S11314A0880F991FAA1FBB1F880F991FAA1FBB1F54
S11314B0481A590A6A0A7B0A1E3FF4F46DEF7FEF5B
S11314C0611B710917FD739504C0440C551C661CFF
S11314D0771C6A95D2F7D501C401B695A79597955F
S11314E08795BC01CD01640D751D861D971DA50151
S11314F094010E94022536C023E0210FD501C401C6
S113150004C0880F991FAA1FBB1F2A95D2F79C01FC
S1131510AD01B695A79597958795BC01CD01640D4E
S1131520751D861D971D0E9402251CC02D5FD501C7
S1131530C40104C0880F991FAA1FBB1F2A95D2F7A4
S11315409C01AD01B695A79597958795BC01CD01F2
S1131550640D751D861D971D0E94022521503109B9
S113156041095109832F8F701295107F182B1F8307
S11315702E8381E018C080E016C080E014C0D5013D
S1131580C401880F991FAA1FBB1F880F991FAA1F88
S1131590BB1F880F991FAA1FBB1F481A590A6A0A42
S11315A07B0A19EF8BCFDF91CF911F910F91FF90A1
S11315B0EF90DF90CF90BF90AF909F908F907F90EF
S11315C06F905F904F9008950F931F93CF93DF9385
S11315D0EC018B01009709F4BEC0803C910521F415
S11315E060E180E0B4D7B7C0C11584E0D80721F426
S11315F064E080E0ACD7AFC0C038E1E0DE0721F49E
S113160062E080E0A4D7A7C0C115F1E0DF0721F4B0
S113161061E080E09CD79FC0C03883E0D80721F404
S113162061E081E094D797C0C115E2E0DE0721F4C0
S113163062E081E08CD78FC0C032F3E0DF0721F491
S113164064E082E084D787C0C11588E0D80721F41C
S113165061E083E07CD77FC0C115E9E0DE0721F4B7
S113166061E084E074D777C0C115FAE0DF0721F4A4
S113167061E085E06CD76FC0C03488E0D80721F4FE
S113168062E083E064D767C0C034E9E0DE0721F498
S113169062E084E05CD75FC0C039F8E0DF0721F482
S11316A064E083E054D757C0C03989E0D80721F4F7
S11316B064E084E04CD74FC0C039EAE0DE0721F48F
S11316C064E085E044D747C0C03CF8E0DF0721F47C
S11316D068E083E03CD73FC0C03C89E0D80721F4F0
S11316E068E084E034D737C0C03AE8E0DE0721F48C
S11316F060E183E02CD72FC0C03AF9E0DF0721F482
S113170060E184E024D727C0C03A8AE0D80721F4F6
S113171060E185E01CD71FC0C03BE8E0DE0721F490
S113172060E283E014D717C0C03BF9E0DF0721F47F
S113173060E284E00CD70FC0C03884E0D80721F4FD
S113174060E483E004D707C0C03AE4E0DE0719F49C
S113175060E485E0FCD68D818F738D83F8019481DC
S11317608581892B9681992311F098E001C090E03E
S1131770892B8D83F801408151816281738100E05E
S11317801CE62CED32E0CE0115DE9C8198609C8332
S11317909C8190619C83DF91CF911F910F9108955B
S11317A0811118C09091A026992389F09FB7F894CD
S11317B0E7E1F7E22081215020839FBF08C09FB753
S11317C0F894E7E1F7E220812F5F20839FBF8093A5
S11317D0A02608959091A026992389F3F8CF0F931A
S11317E0E8ECF4E080818F7D808380818F7D80832D
S11317F0E4E7F6E202E0059310927626109277264B
S113180000E2069300E40693ECE6F6E200E20693B7
S113181000E40693109212271092132710921427B3
S113182010921527109210271092112710925E26FD
S11318300F9108950F9385E080935E26E5E7F6E225
S113184004E00593EDE6F6E204E005930F910895B4
S11318500F9383E080935E2610927626109277266B
S1131860E4E7F6E202E006930F910895E09112276F
S1131870F0911327309709F0099508950F93CF93AA
S1131880DF9380915E26833019F4F0DFA8DF60C017
S113189080915A2690915B26C0911027D0911127F0
S11318A0C81BD90B71F520915C2630915D26820FFF
S11318B0931F80935C2690935D2620910C27309192
S11318C00D278217930721F080917525882341F015
S11318D084E080935E26ECE6F6E202E0069338C0EC
S11318E0E0911427F0911527309799F009958823F2
S11318F081F010925A2610925B26C0911027D09145
S11319001127C034D10528F010927525C0E4D0E029
S113191003C081E080937525C0937626D093772603
S113192080915A2690915B2620910E2730910F27A3
S1131930280F391F2093782630937926C80FD91F92
S1131940C0935A26D0935B26E4E7F6E202E00693BE
S1131950DF91CF910F910895FC018181877090E010
S1131960FC013197E730F10520F4E250FF4F0C946D
S1131970242588E090E0089580E290E0089580E4D2
S113198090E0089580E890E0089580E091E0089563
S113199080E092E008958FEF93E0089580E190E075
S11319A00895282F2F7030E0220F331F992787FDC9
S11319B090958827990F881F9927820F931F029764
S11319C09C01220F331F220F331F220F331F820F5C
S11319D0931F8A509A4D08950F93CF938091CC040E
S11319E080FF62C081E08093CC04ECE6F6E200E87C
S11319F00693E4E7F6E200E806938093CA04ECE673
S1131A00F6E200E1069380915E26882329F0835054
S1131A10823008F42BDFE3DE80916E2690916F26EE
S1131A20089709F043C088E0EAE1F6E2A6E0B7E2ED
S1131A3001900D928A95E1F7E8ECF4E080818062F0
S1131A408083808180628083C2D8C82F811103C0C3
S1131A50F1DEC1E02CC08091062788236CF410923B
S1131A605C2610925D2610925A2610925B2682E024
S1131A7080935E2603DF1BC020910C2730910D2735
S1131A80232B11F4E5DE13C010925C2610925D2620
S1131A9010925A2610925B2681E080935E26ECE633
S1131AA0F6E202E0069303C0C0E001C0C1E08C2F5F
S1131AB0CF910F910895BF92CF92DF92EF92FF9250
S1131AC00F931F93CF93DF93B82E6BDFEC011B2D85
S1131AD0111F1127111F8B2D8F70E82EF12CEE0C86
S1131AE0FF1CE10EF11CC701880F991F880F991F75
S1131AF0880F991F9C012459394D7901C9012CDFA4
S1131B006C01112309F45BC0D70116962D913C9109
S1131B1017978D819E81280F391F2D833E838B81DA
S1131B209C8128173907C9F1FC01E21BF30B9F01C3
S1131B302115F4E03F0740F02FEF33E0C901B6016F
S1131B400E94EE24281B390B888181FF0AC0C90139
S1131B50B6010E94EE2441E0892B09F040E0942F65
S1131B6001C090E0888190FB81F98883D7011696A3
S1131B701D921C92179712962D933C9313972981CB
S1131B803A818D819E81820F931F14968D939C932D
S1131B901597F70102E0069398C0888181FF87C0FA
S1131BA08D7F8883D70116961D921C9217971296E3
S1131BB01D921C921397F70102E0069386C0D70189
S1131BC012960D911C911397888182FF15C0E981AB
S1131BD0FA812D813E818B819C81B6010E94EE2485
S1131BE0B0E4BB9EB00111246A5C7A4DAC01CF0114
S1131BF0820F931F0E94CE252D813E81200F311F1D
S1131C002D833E83EB81FC81E217F30710F4ED830F
S1131C10FE83D70116968D919C9117978017910793
S1131C2009F045C08D819E81E817F90709F43FC08A
S1131C30E81BF90BE115B4E0FB0748F0EFEFF3E024
S1131C40CF01B6010E94EE24E81BF90B06C0CF01B8
S1131C50B6010E94EE24E81BF90BD70112961D92DF
S1131C601C921397EC15FD0578F4888184608883B1
S1131C70B0E4BB9EC00111248A5C9A4DF7018483B1
S1131C809583C682D7820FC029813A818D819E8136
S1131C90820F931FD70114968D939C9315971696D4
S1131CA0ED93FC931797F70102E006930EC0888129
S1131CB080FF0BC08E7F8883EF81F885309729F0F1
S1131CC06D817E814B2D80E00995DF91CF911F912D
S1131CD00F91FF90EF90DF90CF90BF900895CF9336
S1131CE0CFB7F89481E05CDDEAECF4E080E4808333
S1131CF080E28083E1ECF4E0808181608083A9EC60
S1131D00B4E08C9182608C93E8ECF4E08081806490
S1131D1080838C9181608C93808180688083CFBF25
S1131D20CF910895CF9380E31ED4E0ECF4E080815A
S1131D3080648083CFB7F89410926D261092752634
S1131D4010927D261092852610928D26109295264B
S1131D50E6EFF5E280818E7F8083EFEFF5E280810C
S1131D608E7F8083E8E0F6E280818E7F8083E1E1EC
S1131D70F6E280818E7F80836AE170E082E00ED497
S1131D808F3F19F08093FA0403C08FE18093FA0423
S1131D906BE170E082E002D48F3F19F08093FB0482
S1131DA003C08FE18093FB04E0ECF4E08081826067
S1131DB080838081806880838081806180838CE6D9
S1131DC096E2868397838081806280838FEF8093FD
S1131DD0C504E8ECF4E08081816080831092A02641
S1131DE08FB7F894EBE1F7E290819F5F90838FBF08
S1131DF076DFCFBFCF91089580E008958093C30428
S1131E0008958091C304089580919C2690919D2605
S1131E10089580E090E0089580930E2790930F2713
S1131E2060931027709311270895E82FEF70F0E066
S1131E30EE0FFF1F992787FD90958827990F881F1C
S1131E409927E80FF91FEE0FFF1FEE0FFF1FEE0F8C
S1131E50FF1FE459F94D8181807C09F043C0637010
S1131E60613029F010F480E403C080E801C080EC04
S1131E7040385105E1F050F440325105A1F04034AE
S1131E80510599F04031510561F419C0411592E0B2
S1131E90590789F04F3F93E0590779F041155140B4
S1131EA041F020E00DC022E00BC023E009C024E093
S1131EB007C025E005C026E003C027E001C021E0FB
S1131EC0118296E09083822B81838181807C803C87
S1131ED021F481818770873039F081818062818328
S1131EE081E0089580E0089581E00895E82FEF707F
S1131EF0F0E0EE0FFF1F992787FD90958827990F33
S1131F00881F9927E80FF91FEE0FFF1FEE0FFF1F21
S1131F10EE0FFF1FE459F94D818182FB882780F978
S1131F200895E82FEF70F0E0EE0FFF1F282F3327FE
S1131F3027FD30952227330F221F3327E20FF31F8B
S1131F40EE0FFF1FEE0FFF1FEE0FFF1FE459F94DB9
S1131F50918192FF0EC091819B7F918322DDFC01D0
S1131F60808180FF06C08E7F80830780F085E02D0E
S1131F70099581E008957F928F929F92AF92BF92CC
S1131F80CF92DF92EF92FF920F931F93CF93DF9341
S1131F90982E862E5A01690104DD7C01792C771C68
S1131FA07724771CC92DCF70D0E0CC0FDD1FC70D6F
S1131FB0D11DCC0FDD1FCC0FDD1FCC0FDD1FC4598D
S1131FC0D94D8981807C09F44CC08981807C803C16
S1131FD019F0898182FD47C08FB7F894F701908189
S1131FE090FF03C08FBF712C3FC0F70190819160B7
S1131FF090838FBFF701A182B282C382D4821582FB
S1132000168207831087811006C091E0C114D104A1
S113201019F090E001C091E0F701808190FB81F913
S11320208B7F8083772019F01E821F8215C08981DF
S1132030807C803C69F4CE018FDCBC01C6010E9427
S1132040EE24892B29F0F70180818E7F80830CC0D8
S11320501A821B821E821F82892D2DDD77247394A0
S113206003C0712C01C0712C872DDF91CF911F917A
S11320700F91FF90EF90DF90CF90BF90AF909F9023
S11320808F907F900895FF920F931F93CF93DF93C8
S1132090182FF82EFF1CFF24FF1CC82FCF70D0E090
S11320A0CC0FDD1FCF0DD11DCC0FDD1FCC0FDD1FDD
S11320B0CC0FDD1FC459D94D74DCDC01FE0102E0F4
S11320C005938C9180FF12C08E7F8C931796ED91AF
S11320D0FC911897309751F0FF2019F06E817F81A1
S11320E002C06A817B81412F81E00995DF91CF9104
S11320F01F910F91FF900895CF93C82FC4DFEC2F49
S1132100EF70F0E0EE0FFF1F8C2F992787FD90955D
S11321108827990F881F9927E80FF91FEE0FFF1FD3
S1132120EE0FFF1FEE0FFF1FE459F94D1182CF91FF
S113213008950F93E82FEF70F0E0EE0FFF1F282FA4
S1132140332727FD30952227330F221F3327E20F31
S1132150F31FEE0FFF1FEE0FFF1FEE0FFF1FE459DB
S1132160F94D91819460918301E006938CDF81E0C5
S11321700F9108951F920F920FB60F9211240F938F
S11321802F933F934F935F936F937F938F939F937B
S1132190AF93BF93EF93FF938091CB04882334F4E0
S11321A080E88093CA040E94B80588C08091CB045B
S11321B082FF20C084E08093CA048091742686FF45
S11321C07DC08091CC0481FD79C006DC811176C08C
S11321D080915E26813011F43BDB70C0843009F0BD
S11321E06DC0E5E7F6E204E00593EDE6F6E204E00F
S11321F0059364C08091CB0481FF5BC082E080932F
S1132200CA0480916C2686FF59C08091CC0481FD5C
S113221055C0E2DB811152C080915E26823041F4C8
S113222084E080935E26ECE6F6E202E0069346C084
S1132230833009F043C0E5E7F6E204E00593EDE6F8
S1132240F6E204E005933AC080E18093CA0481E099
S11322501ADF81E818DF0E9491051092C304EDE6AD
S1132260F6E2108296E090936C2683E48083E5E79F
S1132270F6E210829093742680838AE196E280933A
S1132280702690937126ABDA19C08091CB0486FF37
S113229006C080E48093CA0480E082DA0FC0809193
S11322A0CB0485FF0BC080E28093CA0481E078DA16
S11322B005C08091CB0484FFE8CFC6CFFF91EF9196
S11322C0BF91AF919F918F917F916F915F914F914A
S11322D03F912F910F910F900FBE0F901F90189563
S11322E01F920F920FB60F9211240F931F932F93E7
S11322F03F934F935F936F937F938F939F93AF938A
S1132300BF93CF93DF93EF93FF938091CC0481FD30
S113231003C062DB8111B9C082E08093CC04809158
S1132320C5048195880FECE6F6E2E81BF1092081EB
S113233031812C5636423695279536952795369514
S11323402795822F869520FF02C090E801C090E077
S1132350890FE82FEF70F0E0EE0FFF1F282F3327CF
S113236027FD30952227330F221F3327E20FF31F57
S1132370EE0FFF1FEE0FFF1FEE0FFF1FE459F94D85
S1132380908195FF82C000E20693811179C080910B
S11323905E26843019F46ADA22DA77C0C0916E2698
S11323A0D0916F26809110279091112700915A2681
S11323B010915B2698012C0F3D1F8217930718F488
S11323C0EC01C01BD10B80910E2790910F27AE0119
S11323D06AE176E2800F911F0E94CE250C0F1D1F2B
S11323E000935A2610935B26C034D10569F480917A
S11323F05C2690915D26800F911F20910C273091CF
S11324000D278217930788F0009310271093112744
S1132410E0911427F0911527309729F0099581113F
S113242002C008DA32C014DA30C0809110279091CB
S1132430112708171907F9F4E0911427F0911527CB
S1132440309711F4F7D921C00995811102C0F2D94E
S11324501CC020915C2630915D2680915A26909173
S11324605B26820F931F80935C2690935D261092C7
S11324705A2610925B26ECE6F6E202E0069305C0CB
S1132480803811F4FBD901C016DBFF91EF91DF9185
S1132490CF91BF91AF919F918F917F916F915F91F8
S11324A04F913F912F911F910F910F900FBE0F905D
S11324B01F901895CF93DF9300D000D0CDB7DEB72F
S11324C08FEF8093700080937100809372008093EB
S11324D073008093740080937500809376006CE1A0
S11324E070E082E05BD08A836DE170E082E056D0D8
S11324F0898389819A81019621F480E493E2898316
S11325009A8389819A818B839C83E0E6F0E08283BD
S11325108C8183838FB7F894E0E5F0E0908192603A
S113252090838FBF818181FFFDCF61E080E490E0E3
S11325303FD08FB7F894E0E5F0E090819E7F9083E0
S11325408FBF2496CDBFDEBFDF91CF9108959FB793
S1132550F894E82FF0E0E059FF4F609580816823FC
S113256060839FBF0895863011F468E101C060E084
S1132570E0E5F0E0818181FD09C08FB7F894908196
S1132580926090838FBF818181FFFDCF636084E47B
S113259090E00ED060E480E0DACF08954091CA0163
S11325A0E62FF72F8093CA0184914093CA010895BE
S11325B01BBEFC0128ED24BF60830895E0919820A0
S11325C0F0919920608171818281938108950F93A4
S11325D01F93CF93DF9300D01F92CDB7DEB7611561
S11325E0710529F48068898381E090E014C0806CCF
S11325F089836038710520F46A8382E090E00BC01F
S1132600862F80688A83660F672F661F770B719504
S11326106B8383E090E0BE016F5F7F4FA4D7239666
S1132620CDBFDEBFDF91CF911F910F9108950F931E
S11326301F93FA019A01280F391F2130344068F49E
S11326409C012250310940E050E08B01BF0189E038
S113265090E0BDDF80E090E002C08FEF9FEF1F911C
S11326600F9108950F931F93CF93DF9300D01F9280
S1132670CDB7DEB76115710521F4898381E090E05F
S113268014C0806489836038710520F46A8382E011
S113269090E00BC0862F80688A83660F672F661FC1
S11326A0770B71956B8383E090E0BE016F5F7F4F82
S11326B095D72396CDBFDEBFDF91CF911F910F91A8
S11326C008950F931F939B01BA0140E050E08C01E1
S11326D081E190E0C7DF1F910F9108950F931F933D
S11326E08C0125E030E040E050E060E070E087E1FC
S11326F090E0B8DF1F910F9108950F931F938C0101
S113270025E030E040E050E060E070E085E190E0FA
S1132710A9DF1F910F910895EF92FF920F931F93DA
S1132720CF93DF9300D000D0CDB7DEB79E012F5FEB
S11327303F4F890124E030E040E050E093DFFE01A8
S1132740359660E070E0CB01B82FA72F962F88272D
S11327502291BC01CD01620F711D811D911DE017F5
S1132760F10791F72496CDBFDEBFDF91CF911F9182
S11327700F91FF90EF90089560E070E080E090E0AA
S1132780CBCF08950F931F93CF93DF9300D0CDB792
S1132790DEB78E010F5F1F4F22E030E040E050E0D3
S11327A061DF8A8190E0982F88272981820F911D0B
S11327B00F900F90DF91CF911F910F9108950F9378
S11327C01F93CF93DF931F92CDB7DEB78E010F5FB8
S11327D01F4F21E030E040E050E044DF89810F905A
S11327E0DF91CF911F910F9108950F931F93CF9372
S11327F0DF931F92CDB7DEB749838E010F5F1F4F62
S113280021E030E040E050E0E2DE0F90DF91CF9134
S11328101F910F9108950F931F93CF93DF9300D0CF
S1132820CDB7DEB749835A838E010F5F1F4F22E075
S113283030E040E050E0CBDE0F900F90DF91CF917D
S11328401F910F910895AC0164E078E18EE290E06D
S1132850E2CF0895AC0160E070E088E190E0DBCF66
S113286008950F931F93CF93DF9300D000D0CDB77B
S1132870DEB729833A834B835C838E010F5F1F4F3E
S113288024E030E040E050E0A2DE2496CDBFDEBF7D
S1132890DF91CF911F910F910895CF92DF92EF9224
S11328A0FF920F931F938C01CA01AA2797FDA0954D
S11328B0BA2F072E7FE0880F991FAA1FBB1F7A9596
S11328C0D1F7702DE0919820F0919920C284D3849F
S11328D0E484F5848C299D29AE29BF2920E030E0C9
S11328E0802B912BA22BB32BAB0160E070E0032E65
S11328F036E1440F551F661F771F3A95D1F7302DE7
S11329009A01AB01282B392B4A2B5B2B60E070E03A
S113291088E090E0A6DF1F910F91FF90EF90DF9089
S1132920CF9008950F931F938C0128E030E040E08E
S113293050E060E070E081E090E094DE1F910F9140
S11329400895AB0164E070E08DE290E064DF43E061
S113295066E070E08DE290E048DF40E066E070E021
S11329608DE290E042DF6AE070E08DE290E0D4CE48
S1132970089540E062E070E08CE290E036DF42E0EF
S113298062E070E08CE290E030CF0895CF93DF9363
S1132990EC014DE666E078E08EE290E026DFCD2B98
S11329A041F047E056E066E078E18EE290E033DF04
S11329B007C047E056E166E078E18EE290E02BDF65
S11329C0DF91CF9108954F925F926F927F92AF9271
S11329D0BF92CF92DF92EF92FF920F931F93CF9308
S11329E0DF93EC01488059806A807B80842DEC89D8
S11329F0FD89EE0FFF1FEA5EFE4DC080D1800C8181
S1132A000150843041F021E090E0873009F020E06B
S1132A10E22EF92E03C0EE24E394F12C8C8D9D8DCF
S1132A20AE8DBF8D892B8A2B8B2BA1F4E09198203E
S1132A30F091992080899189A289B389A064808BBF
S1132A40918BA28BB38BD694C794D694C794D69407
S1132A50C7940DC0E0919820F091992080899189C4
S1132A60A289B389AF7B808B918BA28BB38BE091CE
S1132A709820F091992088A1808780899189A289E2
S1132A80B389AC7F808B918BA28BB38B48A159A166
S1132A906AA17BA1BA0155274427442755276370AF
S1132AA077279A01AB01282B392B4A2B5B2B208BE0
S1132AB0318B428B538B60E070E084E090E0D1DE98
S1132AC0A60164E078E28EE290E0A5DE10E0C801A1
S1132AD05DDFE42DF0E0E554FE4DA080B12C6501EE
S1132AE0CC0CDD1CCC0CDD1CF601E557FE4D208121
S1132AF031814281538167E070E08BE290E0B1DE86
S1132B00F501EB57FE4D40816BE070E08BE290E005
S1132B106CDEF701FF27ED57FE4D40816BE070E05E
S1132B2088E290E062DEF601ED55FE4D20813181B0
S1132B30428153816CE070E088E290E092DEEC8D9B
S1132B40FD8DEE0FFF1F888D998DE80FF91FEE0F95
S1132B50FF1FE459FE4D4081518162E070E087E23D
S1132B6090E059DEF801EE0FFF1FE859FE4D408159
S1132B70518164E070E087E290E04DDE8C8D9D8DA4
S1132B80AE8DBF8D892B8A2B8B2B41F444E650E00C
S1132B9066E070E087E290E03EDE23C08885998598
S1132BA0AA85BB850497A105B10571F440E150E005
S1132BB066E070E087E290E02EDE40E166E270E0DD
S1132BC087E290E012DE0DC040E250E066E070E083
S1132BD087E290E020DE48E266E270E087E290E07F
S1132BE004DE8C859D85F801EE0FFF1FEE0FFF1F9D
S1132BF0E80FF91FEE0FFF1FEE0FFF1FE85BFE4DFE
S1132C00208131814281538168E070E087E290E065
S1132C1028DE8CA19DA1AEA1BFA1892B8A2B8B2B71
S1132C2041F481E490E1A0E0B0E08CA39DA3AEA3C5
S1132C30BFA34CA15DA160E270E087E290E0EBDD10
S1132C4020917B2130917C2140917D2150917E21E6
S1132C506CE070E083E290E004DEF801EE0FFF1F09
S1132C60E158FE4D4081518164E070E083E290E0E0
S1132C70D2DD888D998DAA8DBB8D892B8A2B8B2BC8
S1132C8069F0EC8DFD8DE858FE4D408160E070E008
S1132C9081E290E0AADDE1E083E002C0E0E080E0D0
S1132CA00C891D892E893F890F2EFBE1000F111F0E
S1132CB0221F331FFA95D1F7F02DB301A2014F70F3
S1132CC0552766277727042B152B262B372B4C816A
S1132CD05D816E817F81032E32E1440F551F661F93
S1132CE0771F3A95D1F7302D442755276C707727F5
S1132CF0042B152B262B372B488959896A897B8904
S1132D00032E36E1440F551F661F771F3A95D1F7FE
S1132D10302D44275527607C7770042B152B262BE8
S1132D20372B552466247724B301A201440F551F81
S1132D30661F771F440F551F661F771F440F551FCB
S1132D40661F771F440F551F661F771F5527662779
S1132D507727402B512B622B732B90E0A0E0B0E03F
S1132D60072E74E1880F991FAA1FBB1F7A95D1F70C
S1132D70702D842B952BA62BB72B4E2E512C612C0A
S1132D80712C032E31E1440C551C661C771C3A95BA
S1132D90D1F7302DA3019201282B392B4A2B5B2B21
S1132DA060E070E08FE190E05CDD4C815D816E81DC
S1132DB07F8188859985AA85BB85842B952BA62B35
S1132DC0B72BBC01552744278C8D9D8DAE8DBF8DAF
S1132DD0072E7DE0880F991FAA1FBB1F7A95D1F794
S1132DE0702D9A01AB01282B392B4A2B5B2BE091D8
S1132DF09820F0919920228733874487558760E093
S1132E0070E088E090E02DDD42E460E070E08DE069
S1132E1090E0EBDCDF91CF911F910F91FF90EF9049
S1132E20DF90CF90BF90AF907F906F905F904F9066
S1132E300895CF92DF92EF92FF926B017C0160E0E4
S1132E4070E08AE190E068DCDC01CB0188279927F7
S1132E50A07F2FE0E222FF249C01AD012C293D2913
S1132E604E295F2960E070E08AE190E0FADCFF908F
S1132E70EF90DF90CF900895CF93C82F80FF20C0AC
S1132E8060E070E086E290E047DCDC01CB01937CFB
S1132E909C01AD01346160E070E086E290E0E1DC29
S1132EA060E070E086E390E037DC9B01AC014468AD
S1132EB060E070E086E390E0D4DCC1FD19C00EC090
S1132EC060E070E086E290E027DC9B01AC01337C9B
S1132ED060E070E086E290E0C4DC1CC020E131E0F8
S1132EE040E050E068E270E086E390E0BADC12C0B3
S1132EF020E131E04FE050E068E270E086E390E0EA
S1132F00B0DC20E131E040E050E068E270E086E3CC
S1132F1090E0A7DCCF910895EF92FF920F931F9357
S1132F20CF93DF9300D0CDB7DEB77C018E010F5F66
S1132F301F4F22E030E040E050E060E070E086E3C4
S1132F4090E090DB8FE0E816F104A0F5F701EB5F69
S1132F50FE4F0C94242519828A818E7F8A832AC08D
S1132F6089818C7F8160898325C089818C7F82607F
S1132F70898320C08981837B886489838A8180686E
S1132F808A8318C08981837B89838A818F778A8326
S1132F9011C08A8182608A830DC08A818D7F8A8371
S1132FA009C089818F7C8062898304C081E0898320
S1132FB083E08A838E010F5F1F4F21E030E040E001
S1132FC050E060E070E086E390E001DB0F5F1F4FAC
S1132FD021E030E040E050E061E070E086E390E022
S1132FE0F6DA0F900F90DF91CF911F910F91FF9020
S1132FF0EF9008958EE090E08FDF40E050E866E0C7
S113300070E08DE290E007DC81E090E01AD281E08C
S113301090E082CF089580E090E07EDF40E050E0D1
S113302064E070E086E390E0F6CB08959B01AC0188
S113303061E070E08AE090E014CC0895CF93C82F4B
S113304081FF0EC040E860E070E08DE090E0CDDBF1
S1133050E0919820F091992081E0868B40E801C0AE
S113306040E0C0FF1DC0466060E070E08DE090E08D
S1133070BCDB63E070E08FE090E084DB88709470E8
S1133080892BB9F040E460E070E08DE090E0ADDBC6
S1133090E0919820F0919920168A8FEF9FEF0BC052
S11330A0426060E070E08DE090E09FDB80E090E0C3
S11330B002C080E090E0CF91089563E070E08FE07B
S11330C090E07DDB482F407850E060E070E0807451
S11330D090E0A0E0B0E0880F991FAA1FBB1F48171B
S11330E059076A077B0731F041E063E070E08DE047
S11330F090E07BCB0895CF92DF92EF92FF92CF9333
S1133100DF9360E070E08EE090E006DB6B017C0111
S113311092D1EC0120E030E0A90160E070E08EE0A3
S113312090E09FDB40E460E070E08DE090E05DDBE8
S113313028EF3FEF47E254E260E070E08FE090E078
S113314090DBBBDFA701960160E070E08EE090E0C9
S113315088DBCE0174D1E0919820F0919920168AF1
S1133160DF91CF91FF90EF90DF90CF9008950F9370
S11331701F93CF93DF93EC0182FF9FDF8E010170D9
S11331801127C0FD11C021C0B6DFC1FD0AC040E057
S113319051E060E070E08DE090E03DDB0FEF1FEF69
S11331A01BC00FEF1FEF18C040E053E060E070E079
S11331B08DE090E030DB63E070E08FE090E0FFDAD8
S11331C083FDE2CF00E010E007C040E051E060E0A2
S11331D070E08DE090E01FDBC801DF91CF911F917B
S11331E00F9108950F931F93CF938C0163E070E0C8
S11331F084E090E0E4DAC82F01151105D9F0A801A4
S113320060E070E08CE090E006DBE0919820F091C3
S1133210992000891189228933893061008B118BAF
S1133220228B338B4C2F406163E070E084E090E0AC
S1133230DCDA14C0E0919820F0919920008911897A
S1133240228933893F7E008B118B228B338B482F4D
S11332504F7E63E070E084E090E0C7DACF911F9185
S11332600F910895AC0164E270E087E290E0D3CA64
S1133270089540EE63E070E086E390E0B6DA40EF54
S113328063E070E086E390E0B0CA0895C4DE40E0F5
S113329050E060E070E08CE290E0BDDA40E066E08F
S11332A070E08CE290E0A1DA64DB40E063E070E07F
S11332B086E390E09ADA81E090E0C3D040EF63E0E7
S11332C070E086E390E091DAE0919820F091992003
S11332D0168A08958F71482F40666EE070E08BE285
S11332E090E083CA08950F931F93CF93DF93C82F61
S11332F0E0919820F09199201786168A148A158AED
S113330010A211A212A213A214A215A216A217A20D
S113331033DA603371408A4C9E4D09F085C0B6DFC4
S113332080E090E0F9DD44E060E070E084E290E069
S11333305CDA6EE170E080E090E003DBD62FE09190
S11333409820F0919920718764E070E080E090E02B
S1133350F8DA662379F042E062E170E08DE290E011
S113336044DAE0919820F0919920848995899061BC
S1133370848B958B009198201091992066E070E0E1
S113338080E090E0DEDAF8016083718382839383C6
S1133390009198201091992067E070E080E090E01F
S11333A0D0DAF8016483758386839783E09198204B
S11333B0F0919920DF7111F0D68702C080E18687F1
S11333C0868588DFC0FF0BC015DEE0919820F09160
S11333D09920848995899860848B958B0CC065E0CD
S11333E070E086E390E0CED9AC015D7F65E070E0EB
S11333F086E390E010DA81E090E08EDD40E06AE060
S113340070E08CE290E0F1D9C0919820D09199209D
S113341060E070E084E090E07FD9688B798B8A8BE0
S11334209B8B80E090E002C08FEF9FEFDF91CF9104
S11334301F910F910895F89481E090E00895789495
S11334400895AF92BF92CF92DF92EF92FF920F93C3
S11334501F93CF93DF93A12C0F2EFCE6BF2EF02DEC
S11334600F2EFCEDCF2EF02D6894DD24D1F8E12C45
S1133470F12C00E010E0282F392F40E050E060E00C
S113348070E080E090E00E942A2529513C4F4F4F84
S11334905F4F6F4F7F4F8F4F9F4F0E94EC2320E071
S11334A030E84BEB55E40E94DD220E944A23F22FC0
S11334B0E32F8F2F9E2FA42FB52F0197A109B109B8
S11334C00097A105B105C9F7DF91CF911F910F9125
S11334D0FF90EF90DF90CF90BF90AF900895CF9280
S11334E0DF92EF92FF920F931F9384E180931C2746
S11334F080EC98E00E943201C12CD12C760100E2CC
S113350011EA27E030E040E06CE177E280EC98E0FB
S11335100E944B01E0ECF8E080818064808380E0CD
S113352090E01F910F91FF90EF90DF90CF9008955E
S1133530CF92DF92EF92FF920F931F93C12CD12C65
S1133540760100EC11EE24EE30E040E06CE177E22D
S113355080EC98E00E944B011F910F91FF90EF9037
S1133560DF90CF9008958F929F92AF92BF92CF92A7
S1133570DF92EF92FF920F931F93CF93DF937C011F
S1133580EB0149015A0157DF6C016CE177E280ECF1
S113359098E00E948C01A701BE0180EC98E00E9493
S11335A06A01A401B80180EC98E00E946A016CE110
S11335B077E280EC98E00E94A201C60140DF80E03F
S11335C090E0DF91CF911F910F91FF90EF90DF90EA
S11335D0CF90BF90AF909F908F9008958F929F92BD
S11335E0AF92BF92CF92DF92EF92FF920F931F930D
S11335F0CF93DF937C01EB0149015A011CDF6C017D
S11336006CE177E280EC98E00E948C01A701BE0196
S113361080EC98E00E946A01A401B80180EC98E073
S11336200E9479016CE177E280EC98E00E94A201AB
S1133630C60105DF80E090E0DF91CF911F910F91EB
S1133640FF90EF90DF90CF90BF90AF909F908F90BE
S113365008950E945A1243D2E0E4F6E088E082839F
S113366094E09283A0E0B6E020E411962C931197A5
S113367030E811963C93A0E2B6E041E011964C93F9
S1133680119742E011964C93A0E8B6E011964C9342
S1133690119712969C93129711968C93A0E6B6E01C
S11336A012969C93129711968C9380E1818380E209
S11336B08183318322838FB7F894E6E5F6E0908125
S11336C0977090839081906190838FBF089580E478
S11336D0E0E0F6E0858380E092EEA4E0B0E00197BC
S11336E0A109B1090097A105B105C9F780E8E0E097
S11336F0F6E0858380E092EEA4E0B0E00197A109B2
S1133700B1090097A105B105C9F781E0E0E2F6E04F
S1133710858380E092EEA4E0B0E00197A109B109AD
S11337200097A105B105C9F782E0E0E2F6E08583E0
S113373080E092EEA4E0B0E00197A109B1090097FE
S1133740A105B105C9F780E4E0E0F6E0868380E0F6
S113375092EEA4E0B0E00197A109B1090097A10598
S1133760B105C9F780E8E0E0F6E0868380E092EEF8
S1133770A4E0B0E00197A109B1090097A105B10542
S1133780C9F781E0E0E2F6E0868380E092EEA4E00F
S1133790B0E00197A109B1090097A105B105C9F7E6
S11337A082E0E0E2F6E0868380E092EEA4E0B0E01E
S11337B00197A109B1090097A105B105C9F780E4F2
S11337C0E0E0F6E0858380E094ECA9E0B0E00197C6
S11337D0A109B1090097A105B105C9F780E8E0E0A6
S11337E0F6E0858380E094ECA9E0B0E00197A109BC
S11337F0B1090097A105B105C9F781E0E0E2F6E05F
S1133800858380E094ECA9E0B0E00197A109B109B7
S11338100097A105B105C9F782E0E0E2F6E08583EF
S113382080E094ECA9E0B0E00197A109B109009708
S1133830A105B105C9F780E4E0E0F6E0868380E005
S113384094ECA9E0B0E00197A109B1090097A105A2
S1133850B105C9F780E8E0E0F6E0868380E094EC07
S1133860A9E0B0E00197A109B1090097A105B1054C
S1133870C9F781E0E0E2F6E0868380E094ECA9E019
S1133880B0E00197A109B1090097A105B105C9F7F5
S113389082E0E0E2F6E0868380E094ECA9E0B0E028
S11338A00197A109B1090097A105B105C9F780E401
S11338B0E0E0F6E0858380E096EAAEE0B0E00197D0
S11338C0A109B1090097A105B105C9F780E8E0E0B5
S11338D0F6E0858380E096EAAEE0B0E00197A109C6
S11338E0B1090097A105B105C9F781E0E0E2F6E06E
S11338F0858380E096EAAEE0B0E00197A109B109C2
S11339000097A105B105C9F782E0E0E2F6E08583FE
S113391080E096EAAEE0B0E00197A109B109009712
S1133920A105B105C9F780E4E0E0F6E0868380E014
S113393096EAAEE0B0E00197A109B1090097A105AC
S1133940B105C9F780E8E0E0F6E0868380E096EA16
S1133950AEE0B0E00197A109B1090097A105B10556
S1133960C9F781E0E0E2F6E0868380E096EAAEE023
S1133970B0E00197A109B1090097A105B105C9F704
S113398082E0E0E2F6E0868380E096EAAEE0B0E032
S11339900197A109B1090097A105B105C9F780E410
S11339A0E0E0F6E0858380E098E8A3E1B0E00197E9
S11339B0A109B1090097A105B105C9F780E8E0E0C4
S11339C0F6E0858380E098E8A3E1B0E00197A109DF
S11339D0B1090097A105B105C9F781E0E0E2F6E07D
S11339E0858380E098E8A3E1B0E00197A109B109DB
S11339F00097A105B105C9F782E0E0E2F6E085830E
S1133A0080E098E8A3E1B0E00197A109B10900972B
S1133A10A105B105C9F780E4E0E0F6E0868380E023
S1133A2098E8A3E1B0E00197A109B1090097A105C5
S1133A30B105C9F780E8E0E0F6E0868380E098E825
S1133A40A3E1B0E00197A109B1090097A105B1056F
S1133A50C9F781E0E0E2F6E0868380E098E8A3E13C
S1133A60B0E00197A109B1090097A105B105C9F713
S1133A7082E0E0E2F6E0868380E098E8A3E1B0E04B
S1133A800197A109B1090097A105B105C9F70895E6
S1133A90CF93C82F8A3021F48DE090E00E94A004D7
S1133AA08C2F992787FD90950E94A00480E090E0D8
S1133AB0CF9108950F931F93CF93DF938C010E94AE
S1133AC0DF038823E1F30E942B04EC01B801E0DF5B
S1133AD0CE019927DF91CF911F910F91089587E02F
S1133AE0E0EAF0E0828378940E948E050E946F0ED3
S1133AF08AE990E280931F279093202780931D27C3
S1133B0090931E2708958F929F92AF92BF92CF9267
S1133B10DF92EF92FF920F93CF93DF93DB011D921D
S1133B201D921D921C921397EC01E0E0F0E02991A4
S1133B3030E040E050E060E070E080E090E00E2F84
S1133B40DAD7822E932EA42EB52E4D915D916D91D0
S1133B507C911397840E951EA61EB71E8D929D927E
S1133B60AD92BC9213973896E032F10501F7DF91DC
S1133B70CF910F91FF90EF90DF90CF90BF90AF90D7
S1133B809F908F900895EF92FF920F931F93CF937E
S1133B90DF93CDB7DEB72797CDBFDEBF7C01FB0136
S1133BA084818D8385818E8386818F834081518139
S1133BB06281738149835A836B837C83870180EAA2
S1133BC0E81688E0F80629F460E183E00E94A71271
S1133BD014C080EBE81688E0F80629F460E283E07C
S1133BE00E94A71213C080EAE81689E0F80629F4B7
S1133BF060E184E00E94A71210C0003B89E018072E
S1133C0029F460E284E00E94A71207C0003A1A4037
S1133C1021F460E185E00E94A712BE016F5F7F4F2F
S1133C20C7010E94E40A2796CDBFDEBFDF91CF9182
S1133C301F910F91FF90EF9008954F925F926F92B2
S1133C407F928F929F92AF92BF92CF92DF92EF9228
S1133C50FF920F931F93CF93DF93CDB7DEB7AA974D
S1133C60CDBFDEBF0E94BC134B015C010E94DE127B
S1133C706B017C01CE0101960E9492148E010F5FAC
S1133C801F4F24E030E040E050E060E070E083E06B
S1133C9090E00E94321360E070E084E090E00E94C3
S1133CA08C136B8F7C8F8D8F9E8F085F1F4F25E049
S1133CB030E040E050E060E070E088E090E00E9496
S1133CC0321360E070E08DE090E00E948C136F8FFF
S1133CD078A389A39AA360E070E08EE090E00E944C
S1133CE08C136BA37CA38DA39EA30B5F1F4F25E0B6
S1133CF030E040E050E060E070E08FE090E00E944F
S1133D00321360E070E080E190E00E948C136FA3B6
S1133D1078A789A79AA70B5F1F4F28E030E040E0FF
S1133D2050E060E070E082E190E00E94321360E0D5
S1133D3070E08FE190E00E948C132B013C0183EC36
S1133D4091E246D78FEE91E243D79F928F9245013D
S1133D50AA24BB249F928F928CEF91E29F938F931E
S1133D6026D7DF92CF926701EE24FF24DF92CF9211
S1133D7084E192E29F938F931AD789811F928F9344
S1133D808A811F928F938B811F928F938C811F92B4
S1133D908F938D811F928F938E811F928F938F812A
S1133DA01F928F9388851F928F938CE292E29F9348
S1133DB08F93FDD61F921F921F921F921F921F92E4
S1133DC01F921F9282E692E29F938F93F0D6CDBF0B
S1133DD0DEBF3C8D3F934B8D4F932B8D3C8D4D8D92
S1133DE05E8DCA01AA27BB279F938F9384E892E232
S1133DF09F938F93DCD689851F928F938A851F9218
S1133E008F938B851F928F938C851F928F938D85B3
S1133E101F928F938CE992E29F938F93C8D638A117
S1133E203F934F8D4F932F8D38A149A15AA1CA01B9
S1133E30AA27BB279F938F9383EC92E29F938F9340
S1133E40B6D63CA13F934BA14F932BA13CA14DA1CE
S1133E505EA1CA01AA27BB279F938F938BED92E2A1
S1133E609F938F93A4D68E851F928F938F851F92D5
S1133E708F9388891F928F9389891F928F938A8940
S1133E801F928F9383EF92E29F938F9390D6CDBF2F
S1133E90DEBF58A55F938FA18F932FA138A549A5A5
S1133EA05AA5CA01AA27BB279F938F938AE193E25D
S1133EB09F938F937CD68B891F928F938C891F92AB
S1133EC08F938D891F928F938E891F928F938F89E1
S1133ED01F928F93888D1F928F93898D1F928F933A
S1133EE08A8D1F928F9382E393E29F938F935FD681
S1133EF05F924F922301662477245F924F9288E663
S1133F0093E29F938F9353D683EC91E261D6CDBF16
S1133F10DEBFAA96CDBFDEBFDF91CF911F910F9177
S1133F20FF90EF90DF90CF90BF90AF909F908F90D5
S1133F307F906F905F904F900895CF93DF93CDB7AC
S1133F40DEB7A197CDBFDEBF81E090E0CCD901966A
S1133F5041F480E893E29F938F9329D60F900F90BA
S1133F60FFCFE6DA89EE90E20E94E31483E00E9438
S1133F703C1784E390E40E94231484E390E40E94B9
S1133F802A1488E090E06ED90F2EF0E22F2EF6E08E
S1133F903F2EF02D12E00F2EFFEE6F2EF6E27F2E55
S1133FA0F02DAE014F5F5F4F4A010F2EF0ED4F2E03
S1133FB0F0E25F2EF02D0F2EA12CF6E0BF2EF02D97
S1133FC080E090E00FD980E090E0D1D803C0D10127
S1133FD017961C9360E070E08FE090E00E948C13D1
S1133FE06093E9267093EA268093EB269093EC265F
S1133FF06B017C01CC24B0EDDB22B7E2EB22B4E20E
S1134000FB22CD28CE28CF2811F376FF55C220E01D
S113401030E440E050E060E070E08FE090E00E9427
S1134020311460E070E080E190E00E948C137370C2
S11340308827992740E050E08DEE96E20E946113B4
S11340408DEE96E2C5D5F30110828CE893E2C0D5DB
S11340504AE050E06DED70E28DEE96E292D5892B48
S113406009F0AECF83E993E2B3D5C4010E947D1376
S1134070FE013696D40120E030E040E050E060E0FC
S113408070E080E090E008E036D50291202BEA173A
S1134090FB07C9F72093E1263093E2264093E326F9
S11340A05093E4266093E5267093E6268093E726F2
S11340B09093E826445C504F6F4F7F4F8F4F9F4F34
S11340C008E034D5D52E022FF32EE42E622F7F2D57
S11340D08E2D9D2D0E9416182091E1263091E22606
S11340E04091E3265091E4266091E5267091E626FE
S11340F0DF92EF92FF920F931F921F921F921F92D3
S11341005F934F933F932F938091E7269091E826F6
S113411000E20CD55F934F933F932F93AAE9B3E248
S1134120BF93AF9344D564EF71E080E090E00E94C8
S1134130191784EE9CE056D880910527D2018C9300
S113414040E050E06EEC70E28FE090E00E941713C4
S113415041E050E060E070E08FE090E00E944D1498
S113416083E00E941E18CDBFDEBF019611F000E46B
S113417007C08DEA93E22CD523CFD50117960C9373
S113418060E070E08FE090E00E948C136093E92679
S11341907093EA268093EB269093EC26DC01CB0106
S11341A08827907DA772B472892B8A2B8B2B29F3D5
S11341B087EB93E20DD5809105278F5F80930527C8
S11341C08091E9269091EA26A091EB26B091EC2605
S11341D096FF62C18EEB93E2FBD480E8F5018783FE
S11341E020E830E440E050E060E070E08FE090E0F0
S11341F00E94311460E070E080E190E00E948C1332
S11342006F7777278827992769317105810591058B
S113421048F440E050E08DEE96E20E9461138DEE8A
S113422096E2D6D4D3011C924AE050E066EB70E2E9
S11342308DEE96E2A6D4892B09F0C2CE81E0F1017D
S11342408783C4010E946E13FE013696D40120E0D8
S113425030E040E050E060E070E080E090E008E0B2
S11342604AD40291202BEA17FB07C9F72093D926D9
S11342703093DA264093DB265093DC266093DD26C8
S11342807093DE268093DF269093E026C4010E947B
S11342907D13FE013696D4011E861F86188A198A5C
S11342A01A8A1B8A1C8A1D8A2E853F85488959894A
S11342B06A897B898C899D8908E01DD40291022B2F
S11342C00E873F87488B598B6A8B7B8B8C8B9D8B9E
S11342D0EA17FB0749F70093D1263093D22640937F
S11342E0D3265093D4266093D5267093D6269C89E2
S11342F09093D726AD89A093D826BE01665F7F4FE1
S113430087EF96E200DCBE016A5F7F4F8BEF96E297
S1134310FADBB4018FEF96E2F6DBA9EDB6E22D915C
S11343203D914D915C912E8B3F8B488F598F2E81FF
S11343303F81488559852A8F3B8F4C8F5D8F8A85B5
S11343409B85AC85BD85281B390B4A0B5B0BCA01C9
S1134350B90105D26B017C016E857F8588899989B5
S11343602E893F89488D598D621B730B840B950BE5
S1134370F6D16E877F87888B998B89819A81AB81EF
S1134380BC81BC01CD012A8D3B8D4C8D5D8D621BA2
S1134390730B840B950BE3D16A8F7B8F8C8F9D8F6E
S11343A08091E1269091E226A091E326B091E42643
S11343B02E893F89488D598D281B390B4A0B5B0B7D
S11343C0CA01B901CCD16E8B7F8B888F998F2E85D2
S11343D03F8548895989C701B6019DD26E8F7F8F69
S11343E088A399A32E893F89488D598D6A8D7B8D29
S11343F08C8D9D8D90D29B01AC016E8D7F8D88A19B
S113440099A176D06E8F7F8F88A399A32E853F853F
S113441048895989C701B6016CD02A8D3B8D4C8DD2
S11344205D8D67D02E893F89488D598D62D09B015F
S1134430AC016E8D7F8D88A199A1BFD026D18BD17F
S113444022EC38EA49E85DE266D26093CD267093A7
S1134450CE268093CF269093D02629EC38EE4EE8D2
S11344605DE459D26093C9267093CA268093CB2603
S11344709093CC2620E030E048EC52E44CD23FD17B
S11344807F936F9385EC93E29F938F9390D30F90D8
S11344900F900F900F9094CD82ED93E299D320E08A
S11344A030E947E254E260E070E08FE090E00E947F
S11344B031140E94391984CD20E030E947E254E2F6
S11344C060E070E08FE090E00E9431140E9439199E
S11344D077CDBFD804D86FEA70E280EA99E053DB65
S11344E068EA70E280EA9AE04EDBF1D8A6DB25DDCB
S11344F05058BB27AA270ED0D4C1C5D130F0CAD199
S113450020F031F49F3F11F41EF4AAC10EF4E0959B
S1134510E7FBA0C1E92FD6D180F3BA17620773076E
S11345208407950718F071F49EF5EEC10EF4E0953A
S11345300B2EBA2FA02D0B01B90190010C01CA0159
S1134540A0011124FF27591B99F0593F50F4503E04
S113455068F11A16F040A22F232F342F4427585FF6
S1134560F3CF469537952795A795F0405395C9F70E
S11345707EF41F16BA0B620B730B840BBAF09150C6
S1134580A1F0FF0FBB1F661F771F881FC2F70EC065
S1134590BA0F621F731F841F48F487957795679538
S11345A0B795F7959E3F08F0B3CF9395880F08F021
S11345B09927EE0F9795879508950CD072C16AD10B
S11345C040F061D130F021F45F3F19F043C1511143
S11345D09CC146C177D198F39923C9F35523B1F30C
S11345E0951B550BBB27AA2762177307840738F05E
S11345F09F5F5F4F220F331F441FAA1FA9F333D0BD
S11346000E2E3AF0E0E830D091505040E695001C70
S1134610CAF729D0FE2F27D0660F771F881FBB1F2C
S1134620261737074807AB07B0E809F0BB0B802D06
S1134630BF01FF2793585F4F2AF09E3F510568F052
S113464009C163C15F3FECF3983EDCF3869577952F
S11346506795B795F7959F5FC9F7880F911D969554
S1134660879597F90895E1E0660F771F881FBB1FB0
S1134670621773078407BA0720F0621B730B840B5D
S1134680BA0BEE1F88F7E0950895BEE304D008F452
S113469090E80895BFE322273327A9011BD158F1DD
S11346A09F5740F1B91738F1BFE3B91B9927B850A8
S11346B03AF4660F771F881F991FB395D2F316C07B
S11346C0B8504AF0232F342F452F562F672F782FB9
S11346D08827B850BAF7B85F49F0869577956795FB
S11346E05795479537952795BA95B9F70EF4BBD0EA
S11346F088940895889460E070E0CB010895EAD02E
S113470088F09F5790F0B92F9927B751A0F0D1F0B6
S1134710660F771F881F991F1AF0BA95C9F712C040
S1134720B13081F0F1D0B1E00895EEC0672F782F59
S11347308827B85F39F0B93FCCF3869577956795AC
S1134740B395D9F73EF490958095709561957F4F18
S11347508F4F9F4F089597FB0EF485D03EC0E89489
S113476009C097FB3EF490958095709561957F4FB5
S11347708F4F9F4F9923A9F0F92F96E9BB27939563
S1134780F695879577956795B795F111F8CFFAF473
S1134790BB0F11F460FF1BC06F5F7F4F8F4F9F4FA4
S11347A016C0882311F096E911C0772321F09EE802
S11347B0872F762F05C0662371F096E8862F70E068
S11347C060E02AF09A95660F771F881FDAF7880F42
S11347D09695879597F90895E894F92F96EBFF231A
S11347E081F0121613061406440B9395F6958795DB
S11347F07795679557954040FF23B9F71BC09927D4
S11348000895882351F49850D2F7872B762F652F7B
S1134810542F432F322F20E0B1F31216130614063F
S1134820440B88233AF09A95440F551F661F771F4F
S1134830881FCAF755234AF4440F551F11F460FF2B
S113484004C06F5F7F4F8F4F9F4F880F969587955A
S113485097F9089597F99F6780E870E060E00895FC
S11348609FEF80EC08959095809570956095509594
S11348704095309521953F4F4F4F5F4F6F4F7F4F7E
S11348808F4F9F4F089500240A9416161706180692
S11348900906089500240A94121613061406050640
S11348A00895092E0394000C11F4882352F0BB0FD1
S11348B040F4BF2B11F460FF04C06F5F7F4F8F4F34
S11348C09F4F089557FD9058440F551F59F05F3F6F
S11348D071F04795880F97FB991F61F09F3F79F01E
S11348E087950895121613061406551FF2CF4695A0
S11348F0F1DF08C0161617061806991FF1CF869522
S11349007105610508940895E894BB276627772705
S1134910CB0197F908950BD0C4CFB5DF28F0BADFE7
S113492018F0952309F096CF9BCF1124EECFCADF60
S1134930A0F3959FD1F3950F50E0551F629FF001AE
S1134940729FBB27F00DB11D639FAA27F00DB11D07
S1134950AA1F649F6627B00DA11D661F829F222790
S1134960B00DA11D621F739FB00DA11D621F839F17
S1134970A00D611D221F749F3327A00D611D231FED
S1134980849F600D211D822F762F6A2F11249F573B
S113499050408AF0E1F088234AF0EE0FFF1FBB1F5E
S11349A0661F771F881F91505040A9F79E3F5105FD
S11349B070F050CFAACF5F3FECF3983EDCF38695BE
S11349C077956795B795F795E7959F5FC1F7FE2BA8
S11349D0880F911D9695879597F90895AA1BBB1B7F
S11349E051E107C0AA1FBB1FA617B70710F0A61BEB
S11349F0B70B881F991F5A95A9F780959095BC010C
S1134A00CD010895A1E21A2EAA1BBB1BFD010DC006
S1134A10AA1FBB1FEE1FFF1FA217B307E407F5076A
S1134A2020F0A21BB30BE40BF50B661F771F881F46
S1134A30991F1A9469F760957095809590959B01DC
S1134A40AC01BD01CF010895EE0FFF1F0590F49155
S1134A50E02D0994DF93CF931F930F939A9DF02D2C
S1134A60219FF00D8B9DF00D8A9DE02DF10D039F8C
S1134A70F00D029FE00DF11D4E9DE00DF11D5E9DB8
S1134A80F00D4F9DF00D7F936F93BF92AF925F93A4
S1134A904F93D50167D08B01AC01D70163D0EB01F3
S1134AA0E80FF91FD6011FD02F913F91D6015AD09C
S1134AB0C60FD71FE81FF91FAF91BF9114D02F91D4
S1134AC03F9150D0C60FD71FE81FF91FD6014AD017
S1134AD0E60FF71F9801BE01CF0111240F911F911A
S1134AE0CF91DF9108953ED0460F571FC81FD91F9D
S1134AF008F4319608950F93083090F0982F872F7B
S1134B00762F652F542F432F322F22270850F4CFAE
S1134B10220F331F441F551F661F771F881F991FBD
S1134B200A95B2F70F91089597FB10F816940008B0
S1134B300F93083098F00850232F342F452F562F09
S1134B40672F782F892F902DF4CF0594979587950B
S1134B507795679557954795379527950A95AAF7B9
S1134B600F910895A29FB001B39FC001A39F700D40
S1134B70811D1124911DB29F700D811D1124911D61
S1134B800895FB01DC0104C08D910190801921F48A
S1134B9041505040C8F7881B990B0895FB01DC0174
S1134BA002C001900D9241505040D8F70895A0E002
S1134BB0B0E0ECEDF5E2B2C2FE013596619171917F
S1134BC0AF0180911F27909120272FD0E2E0BFC230
S1134BD00F931F93CF93DF93E0911F27F09120272A
S1134BE0238121FF1BC0EC0100E010E0899160915A
S1134BF01F2770912027DB011896ED91FC911997DE
S1134C00882331F00995892B89F30FEF1FEFEECF3D
S1134C108AE00995892B11F4C80102C08FEF9FEF38
S1134C20DF91CF911F910F910895ACE0B0E0EAE1DC
S1134C30F6E264C27C016B018A01FC0116821782D0
S1134C40838181FFB0C1CE0101964C01F7019381AC
S1134C50F60193FD859193FF81916F01882309F4F7
S1134C609EC1853239F493FD859193FF81916F0143
S1134C70853221F4B70190E0B1D1E8CF512C312C29
S1134C8020E02032A0F48B3269F030F4803259F005
S1134C90833269F420612CC08D3239F0803339F4C9
S1134CA0216026C02260246023C0286021C027FD23
S1134CB027C030ED380F3A3078F426FF06C0FAE00A
S1134CC05F9E300D1124532E13C08AE0389E300DA0
S1134CD01124332E20620CC08E3221F426FD5FC1D4
S1134CE0206406C08C3611F4206802C0883641F472
S1134CF0F60193FD859193FF81916F018111C1CFDD
S1134D00982F9F7D9554933028F40C5F1F4FFFE339
S1134D10F9830DC0833631F0833771F0833509F0A0
S1134D2057C021C0F801808189830E5F1F4F44243E
S1134D304394512C540114C03801F2E06F0E711CDD
S1134D40F801A080B18026FF03C0652D70E002C089
S1134D506FEF7FEFC5012C8736D12C0183012C85A1
S1134D602F77222E16C03801F2E06F0E711CF80165
S1134D70A080B18026FF03C0652D70E002C06FEFF4
S1134D807FEFC5012C8714D12C012C852068222E9D
S1134D90830123FC19C0832D90E048165906A0F422
S1134DA0B70180E290E01AD13A94F5CFF50127FCDF
S1134DB0859127FE81915F01B70190E00FD13110F9
S1134DC03A94F1E04F1A51084114510479F7DEC0C6
S1134DD0843611F0893631F5F80127FF07C0608168
S1134DE07181828193810C5F1F4F08C06081718142
S1134DF0882777FD8095982F0E5F1F4F2F76B22E50
S1134E0097FF09C090958095709561957F4F8F4F5E
S1134E109F4F2068B22E2AE030E0A40111D1A82EC1
S1134E20A81843C0853729F42F7EB22E2AE030E03B
S1134E3025C0F22FF97FBF2E8F36C1F018F48835C4
S1134E4079F0ADC0803719F0883721F0A8C02F2F32
S1134E502061B22EB4FE0DC08B2D8460B82E09C023
S1134E6024FF0AC09F2F9660B92E06C028E030E0C8
S1134E7005C020E130E002C020E132E0F801B7FED5
S1134E8007C060817181828193810C5F1F4F06C0CE
S1134E906081718180E090E00E5F1F4FA401D0D04B
S1134EA0A82EA818FB2DFF77BF2EB6FE0BC02B2D06
S1134EB02E7FA51450F4B4FE0AC0B2FC08C02B2DFA
S1134EC02E7E05C07A2C2B2D03C07A2C01C0752CA4
S1134ED024FF0DC0FE01EA0DF11D8081803311F421
S1134EE0297E09C022FF06C07394739404C0822FE4
S1134EF0867809F0739423FD12C020FF06C05A2C53
S1134F00731418F4530C5718732C731460F4B7010A
S1134F1080E290E02C8762D073942C85F6CF7314D2
S1134F2010F4371801C0312C24FF11C0B70180E3FD
S1134F3090E02C8753D02C8522FF16C021FF03C09C
S1134F4088E590E002C088E790E0B7010CC0822FAA
S1134F50867851F021FD02C080E201C08BE227FD7A
S1134F608DE2B70190E03AD0A51430F4B70180E3A4
S1134F7090E034D05A94F8CFAA94F401EA0DF11DCC
S1134F808081B70190E02AD0A110F6CF332009F434
S1134F905DCEB70180E290E021D03A94F7CFF701DB
S1134FA08681978102C08FEF9FEF2C96E2E1BFC00C
S1134FB0FC010590615070400110D8F780959095E0
S1134FC08E0F9F1F0895FC016150704001900110E5
S1134FD0D8F7809590958E0F9F1F08950F931F9378
S1134FE0CF93DF93182F092FEB018B8181FD03C031
S1134FF08FEF9FEF20C082FF10C04E815F812C8114
S11350003D81421753077CF4E881F9819F012F5FAA
S11350103F4F28833983108306C0E885F985812FA3
S11350200995892B29F72E813F812F5F3F4F2E83CE
S11350303F83812F902FDF91CF911F910F9108957E
S1135040FA01AA27283051F1203181F1E8946F93B5
S11350506E7F6E5F7F4F8F4F9F4FAF4FB1E03ED05B
S1135060B4E03CD0670F781F891F9A1FA11D680FF9
S1135070791F8A1F911DA11D6A0F711D811D911D2C
S1135080A11D20D009F468943F912AE0269F1124A1
S11350903019305D3193DEF6CF010895462F477005
S11350A0405D4193B3E00FD0C9F7F6CF462F4F7060
S11350B0405D4A3318F0495D31FD4052419302D0BE
S11350C0A9F7EACFB4E0A695979587957795679564
S11350D0BA95C9F700976105710508959B01AC0164
S11350E00A2E06945795479537952795BA95C9F78B
S11350F0620F731F841F951FA01D08952F923F9266
S11351004F925F926F927F928F929F92AF92BF92D3
S1135110CF92DF92EF92FF920F931F93CF93DF937F
S1135120CDB7DEB7CA1BDB0BCDBFDEBF09942A881F
S1135130398848885F846E847D848C849B84AA84A7
S1135140B984C884DF80EE80FD800C811B81AA8134
S1135150B981CE0FD11DCDBFDEBFED010895F89406
S1055160FFCF7B
S11351627C03F601000202021803B801F0010402F2
S11351720202000000030000000000000000000022
S113518200004F6E65506F7300416772756D0000C9
S11351920403090486203A20000042203E200A200B
S11351A2002009024300020100C032090400000188
S11351B2020201000524001001042402020524064F
S11351C200010524010301070582034000100904BC
S11351D20100020A000000070581024000000705E1
S11351E20202400000001201000202000040EB0330
S11351F20424000101020301A126000000030000AF
S11352020000481D5A1D000000C2010003000000F6
S1135212C20100030000418800CADE5741564523FB
S113522200000000000000000000000000004188AF
S113523200CADE56455741100200000000418800B2
S1135242CADE574156452100000200000002000058
S1135252000800000002000000090000000900002C
S11352620001000000000000000000000021040012
S1135272003132454600000098599859EA518E424D
S11352821E45142E0080EA51F4283233E03A703D70
S1135292E03AC235842BC2353233C235C235AE4709
S11352A2E03A5038A23050382D001A3152001A33E5
S11352B29A001A351D011A376B003B31BE003B338D
S11352C25E013B3596023B3787008D000A001600CB
S11352D2010006000100020040100807A90225701F
S11352E2889B88D8BC1E265626BEBE070400090821
S11352F205400809104008080540081D0400081D5F
S1135302040008405C0000A05C0400C06C0800803B
S11353125C0400E03F1E00E07D1E00000001020369
S11353220400050A2D2D2D2D2D2D2D2D2D2D2D2D48
S11353322D2D2D2D2D2D2D2D2D2D2D2D2D2D2D2D97
S11353422D2D2D2D2D2D2D2D2D2D2D2D2D2D00449D
S1135352574D3130303020494E464F00446576690E
S1135362636520494420203A2025303458202530D2
S113537234580A0050617274204944202020203A93
S1135382202530345820253034580A004555492008
S1135392202020202020203A202530325820253079
S11353A232582025303258202530325820253032C8
S11353B25820253032582025303258202530325892
S11353C20A0050414E20416464726573733A202589
S11353D2303258202530325820253032582025309A
S11353E232580A005359535F434647202020203A3B
S11353F2202530345820253034580A0054585F464A
S11354024354524C2020203A202530325820253053
S11354123258202530325820253032582025303257
S1135422580A005359535F4354524C2020203A20C7
S11354322530345820253034580A005359535F4DCF
S113544241534B2020203A20253034582025303433
S1135452580A005359535F535441545553203A2028
S11354622530325820253032582025303258202514
S113547230325820253032580A0052585F46494E7D
S1135482464F2020203A20253034582025303458E5
S11354920A0052585F465155414C2020203A20259B
S11354A230325820253032582025303258202530C9
S11354B232582025303258202530325820253032B7
S11354C25820253032580A004348414E5F43545213
S11354D24C20203A202530345820253034580A00F4
S11354E2494E4954204641494C4544005374657021
S11354F220300053746570203100256C58256C5897
S113550220767320256C58256C58200A0044575481
S11355125F4552524F5200537465702032005374E7
S11355226570203300444953543A202564206D6D3C
S11355320A00537465702033206661696C656400E7
S11355424C6974746C652D656E6469616E0A0D0034
S11355524269672D656E6469616E0A0D004D696466
S1135562646C652D656E6469616E206F7220756E60
S11355726B6E6F776E2073746F72616765207479D6
S113558270652E205661726961626C653D202578D2
S1055592000013
S9030000FC
