S00E00004F6E65506F732E73726563C2
S113000004C100001FC100001DC100001BC100008D
S113001019C1000017C1000015C1000013C1000080
S113002011C100000FC100000DC100000BC1000090
S113003009C100000C94850905C1000003C100003A
S113004001C10000FFC00000FDC00000FBC00000B3
S1130050F9C00000F7C00000F5C00000F3C00000C4
S1130060F1C00000EFC00000EDC00000EBC00000D4
S1130070E9C00000E7C00000E5C00000E3C00000E4
S1130080E1C00000DFC00000DDC00000DBC00000F4
S1130090D9C00000D7C00000D5C00000D3C0000004
S11300A0D1C00000CFC00000CDC00000CBC0000014
S11300B0C9C00000C7C000000C94A809C3C0000058
S11300C0C1C00000BFC00000BDC00000BBC0000034
S11300D0B9C00000B7C00000B5C00000B3C0000044
S11300E0B1C00000AFC00000ADC00000ABC0000054
S11300F0A9C00000A7C00000A5C00000A3C0000064
S1130100A1C000009FC000009DC000009BC0000073
S113011099C0000097C0000095C0000093C0000083
S113012091C000008FC000008DC000008BC0000093
S113013089C0000087C0000085C0000083C00000A3
S113014081C000007FC000007DC000007BC00000B3
S113015079C0000077C0000075C0000073C00000C3
S113016071C000006FC000006DC000006BC00000D3
S113017069C0000067C0000065C0000063C00000E3
S113018061C000005FC000005DC000005BC00000F3
S113019059C0000057C0000055C0000053C0000003
S11301A051C000004FC000004DC000004BC0000013
S11301B049C0000047C0000045C0000043C0000023
S11301C041C000003FC000003DC000003BC0000033
S11301D039C0000037C0000035C0000033C0000043
S11301E031C000002FC000002DC000002BC0000053
S11301F029C000000C94A7100C945D11BF0CAD0C29
S1130200B00CB30CB60CB90CBC0C11241FBECFEF50
S1130210CDBFDFE2DEBF10E2A0E0B0E2E4E8F1E34C
S113022002C005900D92AC3CB107D9F723E2ACECC7
S1130230B0E201C01D92A935B207E1F70E94511541
S11302400C94C018DDCECF93DF93EC01C03C28E0C2
S1130250D20729F468E083E00E94931207C0803C2F
S1130260994021F468E084E00E94931288818061BF
S11302708883DF91CF910895FF920F931F93CF93BB
S1130280DF93EC01F42EB901A80100E01CE62CED8B
S113029032E056D788234CF088819F2D990F990F0F
S11302A09C70837FF92EF82AF882DF91CF911F91F9
S11302B00F91FF900895FC01DB01460F571F05C005
S11302C08D91838382818823ECF7A417B507C1F746
S11302D080E00895FC01DB014115510561F0460FF2
S11302E0571F9FEF938382818823ECF783818D933B
S11302F0A417B507B9F780E00895FB018081E82FC2
S1130300E695E695E69540E2E49FF0011124FA5F54
S1130310877021E030E0A90102C0440F551F8A957F
S1130320E2F746830895FB018081E82FE695E69580
S1130330E69540E2E49FF0011124FA5F877021E022
S113034030E0A90102C0440F551F8A95E2F74583A6
S113035008951092E2211092EE211092EF2181EA89
S11303608093E42180E28093E5211092E6211092AB
S1130370E7211092E8211092E92182E090E0809335
S1130380EA219093EB211092EC211092ED2180E070
S113039092ECA1E0B0E08093F0219093F121A0933E
S11303A0F221B093F3211092F4211092F52188E008
S11303B08093F6218091E2218F5F8093E22181E096
S11303C008958091E22181508093E22108958091E3
S11303D0E12181508093E1218091E1211092E0217B
S11303E0089580E0089580E0089580913D23882356
S11303F0DCF480768032E9F580913E238132D9F5B0
S113040080914323909144230797B9F580EF91E2BB
S1130410809345239093462387E090E0809347237D
S11304209093482381E008958076803241F580914D
S11304303E23803221F0823221F581E008958091BB
S11304404323909144230797F1F485E492E0809349
S1130450492390934A2380EF91E28093452390931C
S1130460462387E090E0809347239093482381E0DC
S1130470089580E0089580E0089580E0089580E084
S1130480089580E0089580E008950895FF920F9301
S11304901F93CF93DF938091CF2081119CC00E9442
S11304A0EA0E882351F0C091D020D091D1200E942F
S11304B0F70EC817D90759F48EC0C091D020D09137
S11304C0D1200E94F20EC817D90709F484C0DFB7FF
S11304D0F894C091D220EC2FF0E0EE0FFF1FED5204
S11304E0FF4D80819181892B09F58091CC209091D9
S11304F0CD2001968093CC209093CD200E94EA0ECB
S1130500811107C08091CC209091CD208436910533
S113051058F00E94EA0E882349F08091CC209091F3
S1130520CD208032934010F4DFBF55C01092CC2010
S11305301092CD208091CE20811106C081E0C1119E
S113054080E08093D22004C081E0C11180E0C82FF4
S113055081E08093CF20DFBFD0E0FE01EE0FFF1FCC
S1130560ED52FF4DFF24F3948081918180349105F5
S113057009F4F12CFF2091F00E94EA0E882339F04F
S11305800E94F70E8093D0209093D1200BC00E943C
S1130590F20E8093D0209093D12004C01092D020EA
S11305A01092D120FE01EE0FFF1FED52FF4D20816E
S11305B03181AE0100245695479507945695479589
S11305C00794542F402D48525F4D01EF12E06F2DD8
S11305D081E80E94A90FDF91CF911F910F91FF90A5
S11305E00895811115C02091D22081E090E022234A
S11305F011F080E090E0FC01EE0FFF1FED52FF4D83
S1130600108211821092CE201092CF2080E03ECF33
S1130610089580E03BCF08954FB7F8942091592175
S113062030915A21E0915B21F0E0EE0FFF1FE45A74
S1130630FE4D80819181821B930B4FBF0895ECDFA7
S113064021E0892B09F420E0822F08950F931F9352
S1130650CF93DF934FB7F89450915B218091582149
S1130660811110C02091592130915A21C52FD0E019
S1130670FE01EE0FFF1FE45AFE4D80819181281781
S1130680390718F44FBF80E023C01092592110920B
S11306905A2181E0511180E080935B2181E08093B5
S11306A058214FBF80E0CBDFAE010024569547951B
S11306B00794569547950794542F402D405A5E4D04
S11306C00FE913E020E430E061E082E00E94A90F2A
S11306D0DF91CF911F910F9108951092E121109213
S11306E0CF201092CE201092D2201092D3201092BC
S11306F0D4201092D5201092D6201092D02010929F
S1130700D12080E0C3DE1092582110925B21109218
S11307105C2110925D211092592110925A2180E09F
S113072095DF882359F09091E1219F5F9093E12117
S11307309091E121913011F49093E02108950F9369
S11307401F93942F811129C080915B21E1E08111D5
S1130750E0E061157105B1F4F0E00024F695E79549
S11307600794F695E7950794FE2FE02DAF01405AC4
S11307705E4D0FE913E020E430E061E0892F0E9430
S1130780A90F0BC0F0E0EE0FFF1FE45AFE4D60838B
S113079071831092582180E059DF1F910F910895C1
S11307A080E04DCF08951F93CF93DF9311E08091A4
S11307B0F621893009F010E060E070E03FB7F8946A
S11307C08091592190915A2120915B213FBF30E0C3
S11307D0F901EE0FFF1FE45AFE4D40815181841749
S11307E0950730F08091E0218111E8CF90E020C09E
S11307F0F9010024F695E7950794F695E795079493
S1130800FE2FE02DE80FF91FE05AFE4D2081EB0189
S1130810C22B01968093592190935A2180E016DFD0
S1130820112321F07C2F662710E0C8CF8C2F9D2F39
S1130830DF91CF911F91089580E0B5CF08959FB7C0
S1130840F8948091D220E82FF0E0EE0FFF1FED52D4
S1130850FF4D208131812034310589F44091CF202E
S113086041110DC04091CE20411109C021E02093D7
S1130870CE20811120E02093D22020E030E09FBFE1
S113088080E490E0821B930B0895D9DF21E0892B4B
S113089009F420E0822F08951F93CF93DF93162F3E
S11308A0C72FD1E08091F621893009F0D0E080E0B3
S11308B0ECDF811107C08091E0218111F8CF80E045
S11308C090E02BC06FB7F8942091D22030E0F9016A
S11308D0EE0FFF1FED52FF4D80819181AC014F5F00
S11308E05F4F40835183F9010024F695E7950794FF
S11308F0F695E7950794FE2FE02D8E0F9F1FFC01C0
S1130900E852FF4D10836FBFDD2329F01C2FCC0F5D
S1130910CC0BD0E0CCCF81E090E0DF91CF911F9160
S11309200895BC0180E0B8CF0895E091FC21F091D6
S1130930FD210190F081E02D228133812E0F3F1F94
S1130940FC014081E40FF11DE217F307A0F481815B
S11309508430A1F0861306C014C081818430A1F0D4
S11309608617A9F08081E80FF11DE217F307A8F3B9
S113097080E090E0089580E090E0089580E090E0C9
S113098008958E2F9F2F089580E090E008958E2F74
S11309909F2F089580913F238F770C94EC0E089538
S11309A09091FE21992381F1E091FC21F091FD21A8
S11309B00190F081E02D9481891740F5E093FA21AC
S11309C0F093FB21228133812E0F3F1FE217F3079F
S11309D0F8F49181943061F49281981309C0938161
S11309E0961306C0E093FA21F093FB2181E0089569
S11309F09081E90FF11DE217F30758F3E093FA2110
S1130A00F093FB2180E0089580E0089580E008954C
S1130A1080E00895FF920F931F93CF93DF93C82F25
S1130A2060E0BEDFF82E882381F1A091FC21B09113
S1130A30FD21EC2FF0E0EE0FFF1F12962D913C915B
S1130A401397E20FF31F00811181D8011696ED91DF
S1130A50FC9117970995682F8C2FA2DFF82E882315
S1130A60A1F0C091FA21D091FB2165E0CE015DDFB8
S1130A70EC01009721F08A810E946910F6CFD80119
S1130A801296ED91FC91139709958F2DDF91CF91DB
S1130A901F910F91FF9008951F93CF93DF93182F09
S1130AA07FDF882341F1C091FA21D091FB2165E0D9
S1130AB0CE013BDFEC01009749F04C815D816B81F5
S1130AC08A810E94030F8111F2CF15C0A091FC21ED
S1130AD0B091FD21812F90E0880F991F1296ED911E
S1130AE0FC911397E80FF91F0190F081E02D01901C
S1130AF0F081E02D0995DF91CF911F9108950C9419
S1130B00800E0895CF938091FE218823C1F0E09157
S1130B10FC21F091FD210190F081E02D8481882356
S1130B2071F0C0E08C2F76DFCF5FE091FC21F09173
S1130B30FD210190F081E02D8481C81798F3109273
S1130B40FE2181E090E08093022290930322CF91D2
S1130B500895CF938091FE21882341F1E091FC21F7
S1130B60F091FD21A081B18114968C918823F1F03C
S1130B70C0E08C2F90E0880F991F0280F381E02D54
S1130B80E80FF91F0190F081E02D0084F185E02D3C
S1130B90309709F00995CF5FE091FC21F091FD2198
S1130BA0A081B18114968C91C81718F3CF91089540
S1130BB0EF92FF920F931F93CF93DF9310924723EB
S1130BC0109248231092492310924A2310924B23E7
S1130BD010924C2320913D2322230CF097C2809144
S1130BE0432390914423009709F095C28BC22F713F
S1130BF009F0B9C030913E23363089F0383009F419
S1130C00A6C03111B0C0029741F462E070E082E006
S1130C1092E20E94FA0E01E0F8C100E0F6C12091D0
S1130C203F2330914023832F992782309105A1F0EF
S1130C301CF4019739F081C083309105F1F10F97CD
S1130C4069F17BC08091342090913520DC016C9156
S1130C5070E00E94FA0E60C0E0913420F0913520DB
S1130C608189281708F06BC0C9019927880F991F3B
S1130C70880F991FE0913620F0913720E80FF91F73
S1130C8080819181FC01628173810E94FA0EE0915E
S1130C904523F091462382E081833EC08091382031
S1130CA090913920009709F44CC0DC0112966D91A3
S1130CB07C9113970E94FA0E2FC0332721303105FF
S1130CC089F048F02230310509F42AC22330310575
S1130CD009F42AC238C064E070E080E390E20E9424
S1130CE0FA0E1AC089E290E225E0382FA6E1B0E2BC
S1130CF0E82FF92F819190E08D939D938E2F831B84
S1130D008217C0F3220F62E0620F6093142070E038
S1130D1084E190E20E94FA0E80914323909144234F
S1130D2020914723309148238217930770F48093CE
S1130D3047239093482301E068C100E066C100E0C6
S1130D4064C100E062C100E060C101E05EC10197DE
S1130D5041F461E070E08EEF91E20E94FA0E01E04E
S1130D6054C100E052C1213009F040C030913E230B
S1130D703A30E1F50197A1F58091FE21882391F1A4
S1130D80C0914123D0914223E090FC21F090FD21B9
S1130D90D701ED91FC918481C81730F560E08C2F68
S1130DA0FFDD082F882309F430C1CE019927880F6D
S1130DB0991FD7011296ED91FC911397E80FF91F33
S1130DC00190F081E02D0680F781E02D0995809354
S1130DD0002261E070E080E092E20E94FA0E15C108
S1130DE000E013C100E011C100E00FC1223009F09E
S1130DF00EC120913E23211103C1029781F48091F9
S1130E0041230E94640F90E08093F8219093F9218C
S1130E1062E070E088EF91E2EDD701E0F6C000E017
S1130E20F4C02F7109F090C080913E23833009F4FF
S1130E30E9C018F48130B1F087C0853019F08930E9
S1130E4061F182C08091432390914423892B41F422
S1130E508AEC94E08093492390934A2301E0D5C01F
S1130E6000E0D3C08091432390914423892B89F4DB
S1130E7080913F2390914023019769F4809102224D
S1130E80909103228D7F809302229093032201E0AC
S1130E90BCC000E0BAC000E0B8C080914323909188
S1130EA04423892B09F046C09AD7882309F444C007
S1130EB020913F23309140233327E0913420F09157
S1130EC03520818990E082179307C0F11BDE809161
S1130ED03F23909140238093FE21882389F1992711
S1130EE08150904C880F991F880F991FE0913620EC
S1130EF0F0913720E80FF91FE093FC21F093FD21D6
S1130F000190F081E02D84818823E1F0C0E060E06D
S1130F108C2FC2DD082F882309F477C0CF5FE091BE
S1130F20FC21F091FD210190F081E02D8481C8170E
S1130F3070F36BC000E069C000E067C000E065C00A
S1130F4001E063C001E061C0213009F580913E23D6
S1130F508B30E9F48091432390914423892B99F4B5
S1130F608091FE21882389F0C0914123D0913F23B1
S1130F708C2F50DD082F882309F447C06D2F8C2F48
S1130F808BDD082F42C000E040C000E03EC02230AC
S1130F9009F03DC080913E23813019F08330B1F0D7
S1130FA033C08091432390914423892B59F4809139
S1130FB03F2390914023892B39F4809141239FD77B
S1130FC0082F23C000E021C000E01FC0809143230C
S1130FD090914423892B81F480913F239091402365
S1130FE0892B61F4C1E4D3E288810E9430108881A6
S1130FF00E948610082F09C000E007C000E005C069
S113100000E003C000E001C000E0011191C0809144
S11310103D238F718130C1F58091FE218823A1F198
S1131020C0914123D09142230091FC211091FD21D4
S1131030D801ED91FC918481C81730F560E08C2FC4
S1131040AFDC882309F1CE019927880F991FD801B5
S11310501296ED91FC911397E80FF91F008111810D
S1131060D8011696ED91FC9117970995682F8C2F4E
S113107097DC882349F0D8011496ED91FC911597DB
S11310800995082F811154C080913D238F718230BE
S1131090D9F58091FE21882389F1E091FC21F0911A
S11310A0FD21A081B18114968C91882349F110E02F
S11310B0212F30E0220F331F0280F381E02DE20F55
S11310C0F31FC081D181EE81FF810995682F812FA3
S11310D067DC082F882361F1EC81FD810995082FD5
S11310E0811126C01F5FE091FC21F091FD21A081B8
S11310F0B18114968C911817D8F21AC000E018C068
S113110000E016C000E014C000E012C0822F807618
S113111009F07DCF86CE322F307609F078CF67CDB7
S113112026E082E290E2E1CD24E08DEA90E2DDCD9A
S1131130802FDF91CF911F910F91FF90EF90089531
S1131140CF92DF92EF92FF920F931F93CF93DF938F
S1131150EC016A017B01DB01CA010197A109B10914
S1131160BC01CD01600F711F821F931FA70196015F
S11311700E94E4152138310541055105F8F4213464
S113118060F4213260F4213160F4293060F42530B8
S113119060F4233060F090E00BC093E009C092E06B
S11311A007C092E805C091E003C091E801C090E84F
S11311B088818C77892B888381E001C08FEFDF9150
S11311C0CF911F910F91FF90EF90DF90CF900895F2
S11311D0CF93DF93E0910422F0910522848183FF71
S11311E008C08860848383E0838386EF80930E2223
S11311F089C0982F947131F083E083838FEF8093BB
S11312000E2280C086FF45C0A0910622B09107221D
S1131210809108229091092214962D913C91159762
S1131220821793076CF49C012F5F3F4F2093082291
S113123030930922A80FB91F11968C91878362C03D
S113124080910A2290910B2218962D913C91199726
S113125082179307C8F420910C22222321F086815F
S1131260816086834FC016962D913C911797AC01EF
S11312704F5F5F4F40930A2250930B22D901A80F6E
S1131280B91F8C9187833EC083E0838310920E2222
S113129039C08823A4F5A0910622B0910722809139
S11312A00A2290910B2218962D913C91199782173E
S11312B09307F8F416964D915C9117979C012F5F54
S11312C03F4F20930A2230930B226781EA01C80F13
S11312D0D91F688318968D919C91199728173907FF
S11312E018F482E083830EC087E0838310920E2279
S11312F009C083E0838389EF80930E2203C08BEFC0
S113130080930E22DF91CF9108951F920F920FB612
S11313100F9211242F933F934F935F936F937F9377
S11313208F939F93AF93BF93EF93FF9351DFFF91FD
S1131330EF91BF91AF919F918F917F916F915F9149
S11313404F913F912F910F900FBE0F901F901895C2
S11313501F920F920FB60F9211242F933F934F9326
S11313605F936F937F938F939F93AF93BF93EF9309
S1131370FF932EDFFF91EF91BF91AF919F918F91DA
S11313807F916F915F914F913F912F910F900FBE7D
S11313900F901F9018954F925F926F927F928F9249
S11313A09F92AF92BF92CF92DF92EF92FF920F93F0
S11313B01F93CF93DF93EC014A015B0128013901AC
S11313C0D901C801689412F8B695A79597958795A1
S11313D01694D1F7B901A801032E36E176956795E5
S11313E0579547953A95D1F7302D2C8122FD08C0A9
S11313F0B695A7959795879576956795579547954B
S113140088159905AA05BB0508F4A6C08416950697
S1131410A606B70608F4A2C08C8182FD04C0880C1D
S1131420991CAA1CBB1CC301B201A50194010E9412
S1131430E4152F3F31054105510508F491C0C12C35
S1131440D12C7601CA9419EF05C02C153D054E0523
S11314505F0568F0CC0CDD1CEE1CFF1C1D3F14F472
S11314606894C0F81F5F173081F7212F50C0212FD7
S113147011230CF04CC0D501C401880F991FAA1F79
S1131480BB1F880F991FAA1FBB1F880F991FAA1F74
S1131490BB1F481A590A6A0A7B0A1E3FF4F46DEF0F
S11314A07FEF611B710917FD739504C0440C551C33
S11314B0661C771C6A95D2F7D501C401B695A79529
S11314C097958795BC01CD01640D751D861D971DEB
S11314D0A50194010E94E41536C023E0210FD50133
S11314E0C40104C0880F991FAA1FBB1F2A95D2F7F5
S11314F09C01AD01B695A79597958795BC01CD0143
S1131500640D751D861D971D0E94E4151CC02D5F7A
S1131510D501C40104C0880F991FAA1FBB1F2A95B7
S1131520D2F79C01AD01B695A79597958795BC0117
S1131530CD01640D751D861D971D0E94E415215073
S1131540310941095109832F8F701295107F182B8F
S11315501F832E8381E018C080E016C080E014C091
S1131560D501C401880F991FAA1FBB1F880F991F9B
S1131570AA1FBB1F880F991FAA1FBB1F481A590A0D
S11315806A0A7B0A19EF8BCFDF91CF911F910F91DC
S1131590FF90EF90DF90CF90BF90AF909F908F908F
S11315A07F906F905F904F9008950F931F93CF9308
S11315B0DF93EC018B01009709F4BEC0803C9105D8
S11315C021F460E180E0AFD7B7C0C11584E0D8074B
S11315D021F464E080E0A7D7AFC0C038E1E0DE07C3
S11315E021F462E080E09FD7A7C0C115F1E0DF07D6
S11315F021F461E080E097D79FC0C03883E0D8072A
S113160021F461E081E08FD797C0C115E2E0DE07E5
S113161021F462E081E087D78FC0C032F3E0DF07B6
S113162021F464E082E07FD787C0C11588E0D80741
S113163021F461E083E077D77FC0C115E9E0DE07DC
S113164021F461E084E06FD777C0C115FAE0DF07C9
S113165021F461E085E067D76FC0C03488E0D80723
S113166021F462E083E05FD767C0C034E9E0DE07BD
S113167021F462E084E057D75FC0C039F8E0DF07A7
S113168021F464E083E04FD757C0C03989E0D8071C
S113169021F464E084E047D74FC0C039EAE0DE07B4
S11316A021F464E085E03FD747C0C03CF8E0DF07A1
S11316B021F468E083E037D73FC0C03C89E0D80715
S11316C021F468E084E02FD737C0C03AE8E0DE07B1
S11316D021F460E183E027D72FC0C03AF9E0DF07A7
S11316E021F460E184E01FD727C0C03A8AE0D8071C
S11316F021F460E185E017D71FC0C03BE8E0DE07B6
S113170021F460E283E00FD717C0C03BF9E0DF07A4
S113171021F460E284E007D70FC0C03884E0D80722
S113172021F460E483E0FFD607C0C03AE4E0DE07BA
S113173019F460E485E0F7D68D818F738D83F80109
S113174094818581892B9681992311F098E001C0B9
S113175090E0892B8D83F8014081518162817381EE
S113176000E01CE62CED32E0CE0115DE9C81986091
S11317709C839C8190619C83DF91CF911F910F91F9
S11317800895811118C090913C23992389F09FB743
S1131790F894EEE4F3E22081215020839FBF08C037
S11317A09FB7F894EEE4F3E220812F5F20839FBF7C
S11317B080933C23089590913C23992389F3F8CF97
S11317C00F93E8ECF4E080818F7D808380818F7DAE
S11317D08083E0E1F3E202E0059310921223109279
S11317E0132300E2069300E40693E8E0F3E200E248
S11317F0069300E406931092492310924A23109210
S11318004B2310924C23109247231092482310929A
S1131810F8220F9108950F9385E08093F822E1E177
S1131820F3E204E00593E9E0F3E204E005930F91A9
S113183008950F9383E08093F8221092122310925C
S11318401323E0E1F3E202E006930F910895E0919F
S11318504923F0914A23309709F0099508950F938D
S1131860CF93DF938091F822833019F4F0DFA8DF5F
S113187060C08091F4229091F522C0914723D091C9
S11318804823C81BD90B71F52091F6223091F72219
S1131890820F931F8093F6229093F7222091432383
S11318A0309144238217930721F080910F228823DB
S11318B041F084E08093F822E8E0F3E202E006934A
S11318C038C0E0914B23F0914C23309799F009955F
S11318D0882381F01092F4221092F522C0914723BC
S11318E0D0914823C034D10528F010920F22C0E4CF
S11318F0D0E003C081E080930F22C0931223D093E1
S113190013238091F4229091F52220914523309164
S11319104623280F391F2093142330931523C80F0F
S1131920D91FC093F422D093F522E0E1F3E202E060
S11319300693DF91CF910F910895FC018181877007
S113194090E0FC013197E730F10520F4E250FF4FBD
S11319500C94061688E090E0089580E290E00895E3
S113196080E490E0089580E890E0089580E091E0BC
S1131970089580E092E008958FEF93E0089580E168
S113198090E00895282F2F7030E0220F331F9927FD
S113199087FD90958827990F881F9927820F931F99
S11319A002979C01220F331F220F331F220F331F74
S11319B0820F931F80579D4D08950F93CF9380916D
S11319C0CC0480FF62C081E08093CC04E8E0F3E2C1
S11319D000E80693E0E1F3E200E806938093CA048A
S11319E0E8E0F3E200E106938091F822882329F0ED
S11319F08350823008F42BDFE3DE80910A23909138
S1131A000B23089709F043C088E0E4EBF2E2ADE36E
S1131A10B3E201900D928A95E1F7E8ECF4E080815D
S1131A2080628083808180628083C2D8C82F8111C4
S1131A3003C0F1DEC1E02CC080913D2388236CF407
S1131A401092F6221092F7221092F4221092F522AC
S1131A5082E08093F82203DF1BC02091432330915E
S1131A604423232B11F4E5DE13C01092F6221092C6
S1131A70F7221092F4221092F52281E08093F8224A
S1131A80E8E0F3E202E0069303C0C0E001C0C1E075
S1131A908C2FCF910F910895BF92CF92DF92EF9246
S1131AA0FF920F931F93CF93DF93B82E6BDFEC015C
S1131AB01B2D111F1127111F8B2D8F70E82EF12C58
S1131AC0EE0CFF1CE10EF11CC701880F991F880F53
S1131AD0991F880F991F9C01285F3C4D7901C9010A
S1131AE02CDF6C01112309F45BC0D70116962D91EC
S1131AF03C9117978D819E81280F391F2D833E833A
S1131B008B819C8128173907C9F1FC01E21BF30B77
S1131B109F012115F4E03F0740F02FEF33E0C901A6
S1131B20B6010E94D015281B390B888181FF0AC099
S1131B30C901B6010E94D01541E0892B09F040E0AB
S1131B40942F01C090E0888190FB81F98883D701AC
S1131B5016961D921C92179712962D933C931397E9
S1131B6029813A818D819E81820F931F14968D93D2
S1131B709C931597F70102E0069395C0888181FF35
S1131B8084C08D7F8883D70116961D921C92179767
S1131B9012961D921C921397F70102E0069383C0DC
S1131BA0D70112960D911C911397888182FF14C05E
S1131BB0E981FA812D813E818B819C81B601F0D728
S1131BC0B0E4BB9EB001112460537E4DAC01CF0143
S1131BD0820F931F0E940C162D813E81200F311F0E
S1131BE02D833E83EB81FC81E217F30710F4ED8330
S1131BF0FE83D70116968D919C91179780179107B4
S1131C0009F043C08D819E81E817F90709F43DC0AE
S1131C10E81BF90BE115B4E0FB0740F0EFEFF3E04C
S1131C20CF01B601BDD7E81BF90B05C0CF01B60142
S1131C30B7D7E81BF90BD70112961D921C92139784
S1131C40EC15FD0578F4888184608883B0E4BB9E3C
S1131C50C001112480539E4DF70184839583C6826D
S1131C60D7820FC029813A818D819E81820F931F73
S1131C70D70114968D939C9315971696ED93FC9328
S1131C801797F70102E006930EC0888180FF0BC00E
S1131C908E7F8883EF81F885309729F06D817E816E
S1131CA04B2D80E00995DF91CF911F910F91FF900B
S1131CB0EF90DF90CF90BF900895CF93CFB7F89473
S1131CC081E05FDDEAECF4E080E4808380E28083FD
S1131CD0E1ECF4E0808181608083A9ECB4E08C9134
S1131CE082608C93E8ECF4E08081806480838C9142
S1131CF081608C93808180688083CFBFCF91089569
S1131D00CF9380E31CD4E0ECF4E080818064808392
S1131D10CFB7F8941092092310921123109219232B
S1131D20109221231092292310923123E0E9F2E248
S1131D3080818E7F8083E9E9F2E280818E7F8083D7
S1131D40E2EAF2E280818E7F8083EBEAF2E2808134
S1131D508E7F80836AE170E082E00CD48F3F19F0BB
S1131D608093FA0403C08FE18093FA046BE170E07E
S1131D7082E000D48F3F19F08093FB0403C08FE10D
S1131D808093FB04E0ECF4E08081826080838081B6
S1131D908068808380818061808388E093E2868389
S1131DA097838081806280838FEF8093C504E8EC01
S1131DB0F4E080818160808310923C238FB7F89493
S1131DC0E2E5F3E290819F5F90838FBF76DFCFBF20
S1131DD0CF91089580E008958093C304089580917D
S1131DE0C30408958091382390913923089580E0A5
S1131DF090E008958093452390934623609347236E
S1131E00709348230895E82FEF70F0E0EE0FFF1F62
S1131E10992787FD90958827990F881F9927E80FA0
S1131E20F91FEE0FFF1FEE0FFF1FEE0FFF1FE85FFE
S1131E30FC4D8181807C09F043C06370613029F0DE
S1131E4010F480E403C080E801C080EC4038510500
S1131E50E1F050F440325105A1F04034510599F0BD
S1131E604031510561F419C0411592E0590789F0D8
S1131E704F3F93E0590779F04115514041F020E07C
S1131E800DC022E00BC023E009C024E007C025E018
S1131E9005C026E003C027E001C021E0118296E0DE
S1131EA09083822B81838181807C803C21F4818199
S1131EB08770873039F081818062818381E0089561
S1131EC080E0089581E00895E82FEF70F0E0EE0FD0
S1131ED0FF1F992787FD90958827990F881F9927B9
S1131EE0E80FF91FEE0FFF1FEE0FFF1FEE0FFF1F8E
S1131EF0E85FFC4D818182FB882780F90895E82FF3
S1131F00EF70F0E0EE0FFF1F282F332727FD3095E9
S1131F102227330F221F3327E20FF31FEE0FFF1F79
S1131F20EE0FFF1FEE0FFF1FE85FFC4D918192FF44
S1131F300EC091819B7F918325DDFC01808180FF10
S1131F4006C08E7F80830780F085E02D099581E0AF
S1131F5008957F928F929F92AF92BF92CF92DF9219
S1131F60EF92FF920F931F93CF93DF93982E862EB9
S1131F705A01690107DD7C01792C771C7724771CD1
S1131F80C92DCF70D0E0CC0FDD1FC70DD11DCC0FF4
S1131F90DD1FCC0FDD1FCC0FDD1FC85FDC4D898139
S1131FA0807C09F44BC08981807C803C19F0898154
S1131FB082FD46C08FB7F894F701908190FF03C06B
S1131FC08FBF712C3EC0F7019081916090838FBFC9
S1131FD0F701A182B282C382D4821582168207835A
S1131FE01087811006C091E0C114D10419F090E06B
S1131FF001C091E0F701808190FB81F98B7F8083A0
S1132000772019F01E821F8214C08981807C803C55
S113201061F4CE0192DCBC01C601C2D5892B29F042
S1132020F70180818E7F80830CC01A821B821E82FE
S11320301F82892D31DD7724739403C0712C01C074
S1132040712C872DDF91CF911F910F91FF90EF900D
S1132050DF90CF90BF90AF909F908F907F90089526
S1132060FF920F931F93CF93DF93182FF82EFF1C2B
S1132070FF24FF1CC82FCF70D0E0CC0FDD1FCF0D85
S1132080D11DCC0FDD1FCC0FDD1FCC0FDD1FC85FB2
S1132090DC4D78DCDC01FE0102E005938C9180FFCD
S11320A012C08E7F8C931796ED91FC911897309700
S11320B051F0FF2019F06E817F8102C06A817B811B
S11320C0412F81E00995DF91CF911F910F91FF90EE
S11320D00895CF93C82FC4DFEC2FEF70F0E0EE0F1C
S11320E0FF1F8C2F992787FD90958827990F881FAC
S11320F09927E80FF91FEE0FFF1FEE0FFF1FEE0FDA
S1132100FF1FE85FFC4D1182CF9108950F93E82FD4
S1132110EF70F0E0EE0FFF1F282F332727FD3095D7
S11321202227330F221F3327E20FF31FEE0FFF1F67
S1132130EE0FFF1FEE0FFF1FE85FFC4D91819460CF
S1132140918301E006938CDF81E00F9108951F9243
S11321500F920FB60F9211240F932F933F934F9327
S11321605F936F937F938F939F93AF93BF93EF93FB
S1132170FF938091CB04882334F480E88093CA04CD
S11321800E94A90588C08091CB0482FF20C084E00E
S11321908093CA048091102386FF7DC08091CC0473
S11321A081FD79C00ADC811176C08091F8228130EA
S11321B011F43FDB70C0843009F06DC0E1E1F3E25B
S11321C004E00593E9E0F3E204E0059364C0809140
S11321D0CB0481FF5BC082E08093CA048091082312
S11321E086FF59C08091CC0481FD55C0E6DB811186
S11321F052C08091F822823041F484E08093F82226
S1132200E8E0F3E202E0069346C0833009F043C0FD
S1132210E1E1F3E204E00593E9E0F3E204E005938D
S11322203AC080E18093CA0481E01ADF81E818DFB4
S11322300E9482051092C304E9E0F3E2108296E062
S11322409093082383E48083E1E1F3E21082909386
S11322501023808384EB92E280930C2390930D23CC
S1132260AFDA19C08091CB0486FF06C080E4809366
S1132270CA0480E086DA0FC08091CB0485FF0BC0CE
S113228080E28093CA0481E07CDA05C08091CB04AB
S113229084FFE8CFC6CFFF91EF91BF91AF919F919B
S11322A08F917F916F915F914F913F912F910F91FA
S11322B00F900FBE0F901F9018951F920F920FB69C
S11322C00F9211240F931F932F933F934F935F9378
S11322D06F937F938F939F93AF93BF93CF93DF932A
S11322E0EF93FF938091CC0481FD03C066DB8111E1
S11322F0B8C082E08093CC048091C5048195880F96
S1132300E8E0F3E2E81BF1092081318128503342EF
S1132310369527953695279536952795822F869558
S113232020FF02C090E801C090E0890FE82FEF7011
S1132330F0E0EE0FFF1F282F332727FD30952227CB
S1132340330F221F3327E20FF31FEE0FFF1FEE0F91
S1132350FF1FEE0FFF1FE85FFC4D908195FF81C0CA
S113236000E20693811178C08091F822843019F438
S11323706EDA26DA76C0C0910A23D0910B238091BD
S11323804723909148230091F4221091F52298015B
S11323902C0F3D1F8217930718F4EC01C01BD10BBF
S11323A08091452390914623AE0164EB72E2800F45
S11323B0911F32D40C0F1D1F0093F4221093F522A9
S11323C0C034D10569F48091F6229091F722800FF0
S11323D0911F20914323309144238217930788F05F
S11323E00093472310934823E0914B23F0914C230F
S11323F0309729F00995811102C00DDA32C019DA3B
S113240030C0809147239091482308171907F9F4A5
S1132410E0914B23F0914C23309711F4FCD921C067
S11324200995811102C0F7D91CC02091F622309180
S1132430F7228091F4229091F522820F931F8093CA
S1132440F6229093F7221092F4221092F522E8E0FB
S1132450F3E202E0069305C0803811F400DA01C00B
S11324601BDBFF91EF91DF91CF91BF91AF919F91D2
S11324708F917F916F915F914F913F912F911F9118
S11324800F910F900FBE0F901F901895CF93DF936D
S113249000D000D0CDB7DEB78FEF8093700080936B
S11324A07100809372008093730080937400809312
S11324B07500809376006CE170E082E05BD08A83E3
S11324C06DE170E082E056D0898389819A8101961A
S11324D021F480E493E289839A8389819A818B83AE
S11324E09C83E0E6F0E082838C8183838FB7F89449
S11324F0E0E5F0E09081926090838FBF818181FF5D
S1132500FDCF61E080E490E03FD08FB7F894E0E540
S1132510F0E090819E7F90838FBF2496CDBFDEBF75
S1132520DF91CF9108959FB7F894E82FF0E0E05938
S1132530FF4F60958081682360839FBF0895863034
S113254011F468E101C060E0E0E5F0E0818181FD23
S113255009C08FB7F8949081926090838FBF818176
S113256081FFFDCF636084E490E00ED060E480E0FE
S1132570DACF08954091CA01E62FF72F8093CA015C
S113258084914093CA0108951BBEFC0128ED24BF29
S1132590608308957BDF43D2E0E4F6E088E0828341
S11325A094E09283A0E0B6E020E411962C93119776
S11325B030E811963C93A0E2B6E041E011964C93CA
S11325C0119742E011964C93A0E8B6E011964C9313
S11325D0119712969C93129711968C93A0E6B6E0ED
S11325E012969C93129711968C9380E1818380E2DA
S11325F08183318322838FB7F894E6E5F6E09081F6
S1132600977090839081906190838FBF089580E448
S1132610E0E0F6E0858380E092EEA4E0B0E001978C
S1132620A109B1090097A105B105C9F780E8E0E067
S1132630F6E0858380E092EEA4E0B0E00197A10982
S1132640B1090097A105B105C9F781E0E0E2F6E020
S1132650858380E092EEA4E0B0E00197A109B1097E
S11326600097A105B105C9F782E0E0E2F6E08583B1
S113267080E092EEA4E0B0E00197A109B1090097CF
S1132680A105B105C9F780E4E0E0F6E0868380E0C7
S113269092EEA4E0B0E00197A109B1090097A10569
S11326A0B105C9F780E8E0E0F6E0868380E092EEC9
S11326B0A4E0B0E00197A109B1090097A105B10513
S11326C0C9F781E0E0E2F6E0868380E092EEA4E0E0
S11326D0B0E00197A109B1090097A105B105C9F7B7
S11326E082E0E0E2F6E0868380E092EEA4E0B0E0EF
S11326F00197A109B1090097A105B105C9F780E4C3
S1132700E0E0F6E0858380E094ECA9E0B0E0019796
S1132710A109B1090097A105B105C9F780E8E0E076
S1132720F6E0858380E094ECA9E0B0E00197A1098C
S1132730B1090097A105B105C9F781E0E0E2F6E02F
S1132740858380E094ECA9E0B0E00197A109B10988
S11327500097A105B105C9F782E0E0E2F6E08583C0
S113276080E094ECA9E0B0E00197A109B1090097D9
S1132770A105B105C9F780E4E0E0F6E0868380E0D6
S113278094ECA9E0B0E00197A109B1090097A10573
S1132790B105C9F780E8E0E0F6E0868380E094ECD8
S11327A0A9E0B0E00197A109B1090097A105B1051D
S11327B0C9F781E0E0E2F6E0868380E094ECA9E0EA
S11327C0B0E00197A109B1090097A105B105C9F7C6
S11327D082E0E0E2F6E0868380E094ECA9E0B0E0F9
S11327E00197A109B1090097A105B105C9F780E4D2
S11327F0E0E0F6E0858380E096EAAEE0B0E00197A1
S1132800A109B1090097A105B105C9F780E8E0E085
S1132810F6E0858380E096EAAEE0B0E00197A10996
S1132820B1090097A105B105C9F781E0E0E2F6E03E
S1132830858380E096EAAEE0B0E00197A109B10992
S11328400097A105B105C9F782E0E0E2F6E08583CF
S113285080E096EAAEE0B0E00197A109B1090097E3
S1132860A105B105C9F780E4E0E0F6E0868380E0E5
S113287096EAAEE0B0E00197A109B1090097A1057D
S1132880B105C9F780E8E0E0F6E0868380E096EAE7
S1132890AEE0B0E00197A109B1090097A105B10527
S11328A0C9F781E0E0E2F6E0868380E096EAAEE0F4
S11328B0B0E00197A109B1090097A105B105C9F7D5
S11328C082E0E0E2F6E0868380E096EAAEE0B0E003
S11328D00197A109B1090097A105B105C9F780E4E1
S11328E0E0E0F6E0858380E098E8A3E1B0E00197BA
S11328F0A109B1090097A105B105C9F780E8E0E095
S1132900F6E0858380E098E8A3E1B0E00197A109AF
S1132910B1090097A105B105C9F781E0E0E2F6E04D
S1132920858380E098E8A3E1B0E00197A109B109AB
S11329300097A105B105C9F782E0E0E2F6E08583DE
S113294080E098E8A3E1B0E00197A109B1090097FC
S1132950A105B105C9F780E4E0E0F6E0868380E0F4
S113296098E8A3E1B0E00197A109B1090097A10596
S1132970B105C9F780E8E0E0F6E0868380E098E8F6
S1132980A3E1B0E00197A109B1090097A105B10540
S1132990C9F781E0E0E2F6E0868380E098E8A3E10D
S11329A0B0E00197A109B1090097A105B105C9F7E4
S11329B082E0E0E2F6E0868380E098E8A3E1B0E01C
S11329C00197A109B1090097A105B105C9F70895B7
S11329D0CF93C82F8A3021F48DE090E00E949104B7
S11329E08C2F992787FD90950E94910480E090E0B8
S11329F0CF9108950F931F93CF93DF938C010E947F
S1132A00D0038823E1F30E941C04EC01B801E0DF49
S1132A10CE019927DF91CF911F910F91089587E0FF
S1132A20E0EAF0E0828378940E947F0546D988E941
S1132A3090E280935523909356238093532390934D
S1132A4054230895CF92DF92EF92FF920F931F9336
S1132A50CF93DF931F92CDB7DEB784E1898380ECF7
S1132A6098E00E942301C12CD12C760100E412E4E9
S1132A702FE030E040E0BE016F5F7F4F80EC98E0D4
S1132A800E943C01E0ECF8E08081806480830F9038
S1132A90DF91CF911F910F91FF90EF90DF90CF9036
S1132AA00895CF93DF93CDB7DEB72D97CDBFDEBFAB
S1132AB071DDC8DF8091AA208B878091AB208C8741
S1132AC08091AC208D878091A6209091A720A09121
S1132AD0A820B091A9208F839887A987BA8760E13D
S1132AE084E021DDBE01695F7F4F80EA99E00E94A6
S1132AF0D50A8DDD198284E18E83912C0F2EF2E1AB
S1132B00AF2EF02D0F2EFAE7BF2EF02DC12C02EBC5
S1132B1010E20F2EE12CF6E0FF2EF02D6894DD2458
S1132B20D6F8BE016A5F7F4F80EC98E00E947D0179
S1132B3041E050E0BE016F5F7F4F80EC98E00E945F
S1132B405B0144E050E0BE016E5F7F4F80EC98E093
S1132B500E946A01BE016A5F7F4F80EC98E00E9488
S1132B609301892D9A2DAB2DBC2D0197A109B10993
S1132B700097A105B105C9F78A811F928F938B81B4
S1132B801F928F938C811F928F938D811F928F93AD
S1132B901F930F934AD0F701D782CDBFDEBFC1CFB9
S1132BA0AA1BBB1B51E107C0AA1FBB1FA617B7076F
S1132BB010F0A61BB70B881F991F5A95A9F780958B
S1132BC09095BC01CD010895A1E21A2EAA1BBB1B4E
S1132BD0FD010DC0AA1FBB1FEE1FFF1FA217B307E5
S1132BE0E407F50720F0A21BB30BE40BF50B661FFB
S1132BF0771F881F991F1A9469F7609570958095BF
S1132C0090959B01AC01BD01CF010895EE0FFF1F0C
S1132C100590F491E02D0994FB01DC0102C00190C0
S1132C200D9241505040D8F70895A0E0B0E0EAE199
S1132C30F6E185C2FE01359661917191AF018091F3
S1132C4055239091562302D0E2E092C2ACE0B0E06A
S1132C50EBE2F6E164C27C016B018A01FC0116829D
S1132C601782838181FFB0C1CE0101964C01F70127
S1132C709381F60193FD859193FF81916F018823E0
S1132C8009F49EC1853239F493FD859193FF8191B6
S1132C906F01853221F4B70190E0B1D1E8CF512C16
S1132CA0312C20E02032A0F48B3269F030F48032F1
S1132CB059F0833269F420612CC08D3239F08033AD
S1132CC039F4216026C02260246023C0286021C01A
S1132CD027FD27C030ED380F3A3078F426FF06C0C0
S1132CE0FAE05F9E300D1124532E13C08AE0389E03
S1132CF0300D1124332E20620CC08E3221F426FDB7
S1132D005FC1206406C08C3611F4206802C0883686
S1132D1041F4F60193FD859193FF81916F01811137
S1132D20C1CF982F9F7D9554933028F40C5F1F4F8B
S1132D30FFE3F9830DC0833631F0833771F08335B7
S1132D4009F057C021C0F801808189830E5F1F4FAD
S1132D5044244394512C540114C03801F2E06F0E02
S1132D60711CF801A080B18026FF03C0652D70E0BE
S1132D7002C06FEF7FEFC5012C8736D12C01830190
S1132D802C852F77222E16C03801F2E06F0E711CAD
S1132D90F801A080B18026FF03C0652D70E002C059
S1132DA06FEF7FEFC5012C8714D12C012C8520688F
S1132DB0222E830123FC19C0832D90E04816590666
S1132DC0A0F4B70180E290E01AD13A94F5CFF5016E
S1132DD027FC859127FE81915F01B70190E00FD117
S1132DE031103A94F1E04F1A51084114510479F723
S1132DF0DEC0843611F0893631F5F80127FF07C0AB
S1132E0060817181828193810C5F1F4F08C0608152
S1132E107181882777FD8095982F0E5F1F4F2F763D
S1132E20B22E97FF09C090958095709561957F4F5C
S1132E308F4F9F4F2068B22E2AE030E0A40111D1B9
S1132E40A82EA81843C0853729F42F7EB22E2AE075
S1132E5030E025C0F22FF97FBF2E8F36C1F018F471
S1132E60883579F0ADC0803719F0883721F0A8C0D3
S1132E702F2F2061B22EB4FE0DC08B2D8460B82E8E
S1132E8009C024FF0AC09F2F9660B92E06C028E00F
S1132E9030E005C020E130E002C020E132E0F8017A
S1132EA0B7FE07C060817181828193810C5F1F4FDF
S1132EB006C06081718180E090E00E5F1F4FA40125
S1132EC0D0D0A82EA818FB2DFF77BF2EB6FE0BC0BE
S1132ED02B2D2E7FA51450F4B4FE0AC0B2FC08C0FA
S1132EE02B2D2E7E05C07A2C2B2D03C07A2C01C0ED
S1132EF0752C24FF0DC0FE01EA0DF11D8081803385
S1132F0011F4297E09C022FF06C07394739404C08F
S1132F10822F867809F0739423FD12C020FF06C027
S1132F205A2C731418F4530C5718732C731460F43C
S1132F30B70180E290E02C8762D073942C85F6CFA1
S1132F40731410F4371801C0312C24FF11C0B701D9
S1132F5080E390E02C8753D02C8522FF16C021FFFC
S1132F6003C088E590E002C088E790E0B7010CC098
S1132F70822F867851F021FD02C080E201C08BE2ED
S1132F8027FD8DE2B70190E03AD0A51430F4B701E3
S1132F9080E390E034D05A94F8CFAA94F401EA0D77
S1132FA0F11D8081B70190E02AD0A110F6CF332023
S1132FB009F45DCEB70180E290E021D03A94F7CFD6
S1132FC0F7018681978102C08FEF9FEF2C96E2E193
S1132FD0BFC0FC010590615070400110D8F7809586
S1132FE090958E0F9F1F0895FC01615070400190D1
S1132FF00110D8F7809590958E0F9F1F08950F9319
S11330001F93CF93DF93182F092FEB018B8181FD41
S113301003C08FEF9FEF20C082FF10C04E815F81FD
S11330202C813D81421753077CF4E881F9819F018B
S11330302F5F3F4F28833983108306C0E885F985C5
S1133040812F0995892B29F72E813F812F5F3F4FCF
S11330502E833F83812F902FDF91CF911F910F916A
S11330600895FA01AA27283051F1203181F1E8941A
S11330706F936E7F6E5F7F4F8F4F9F4FAF4FB1E067
S11330803ED0B4E03CD0670F781F891F9A1FA11D62
S1133090680F791F8A1F911DA11D6A0F711D811D63
S11330A0911DA11D20D009F468943F912AE0269F28
S11330B011243019305D3193DEF6CF010895462F87
S11330C04770405D4193B3E00FD0C9F7F6CF462F68
S11330D04F70405D4A3318F0495D31FD40524193D1
S11330E002D0A9F7EACFB4E0A6959795879577958E
S11330F06795BA95C9F700976105710508959B0115
S1133100AC010A2E06945795479537952795BA959D
S1133110C9F7620F731F841F951FA01D08952F9276
S11331203F924F925F926F927F928F929F92AF9253
S1133130BF92CF92DF92EF92FF920F931F93CF93A0
S1133140DF93CDB7DEB7CA1BDB0BCDBFDEBF09945F
S11331502A88398848885F846E847D848C849B8423
S1133160AA84B984C884DF80EE80FD800C811B8131
S1133170AA81B981CE0FD11DCDBFDEBFED01089567
S1073180F894FFCFED
S11331846D03E701F101F3010903A901E101F5016B
S1133194F301000000030000000000000000000030
S11331A400004F6E65506F7300416772756D0000C7
S11331B40403090486203A20000042203E200A2009
S11331C4002009024300020100C032090400000186
S11331D4020201000524001001042402020524064D
S11331E400010524010301070582034000100904BA
S11331F40100020A000000070581024000000705DF
S11332040202400000001201000202000040EB032D
S11332140424000101020301000000030000000073
S1133224E814FA14000000C201000300003132451E
S113323446002523303258202523303258202523B4
S10F3244303258202523303258200A0074
S9030000FC
