S00E00004F6E65506F732E73726563C2
S113000021C100003CC100003AC1000038C1000019
S113001036C1000034C1000032C1000030C100000C
S11300202EC100002CC100002AC1000028C100001C
S113003026C100000C94A20922C1000020C10000C6
S11300401EC100001CC100001AC1000018C100003C
S113005016C1000014C1000012C1000010C100004C
S11300600EC100000CC100000AC1000008C100005C
S113007006C1000004C1000002C1000000C100006C
S1130080FEC00000FCC00000FAC00000F8C0000080
S1130090F6C00000F4C00000F2C00000F0C0000090
S11300A0EEC00000ECC00000EAC00000E8C00000A0
S11300B0E6C00000E4C000000C94C509E0C00000E4
S11300C0DEC00000DCC00000DAC00000D8C00000C0
S11300D0D6C00000D4C00000D2C00000D0C00000D0
S11300E0CEC00000CCC00000CAC00000C8C00000E0
S11300F0C6C00000C4C00000C2C00000C0C00000F0
S1130100BEC00000BCC00000BAC00000B8C00000FF
S1130110B6C00000B4C00000B2C00000B0C000000F
S1130120AEC00000ACC00000AAC00000A8C000001F
S1130130A6C00000A4C00000A2C00000A0C000002F
S11301409EC000009CC000009AC0000098C000003F
S113015096C0000094C0000092C0000090C000004F
S11301600C9459248CC000008AC0000088C0000090
S113017086C0000084C0000082C0000080C000006F
S11301807EC000007CC000007AC0000078C000007F
S113019076C0000074C0000072C0000070C000008F
S11301A06EC000006CC000006AC0000068C000009F
S11301B066C0000064C0000062C0000060C00000AF
S11301C05EC000005CC000005AC0000058C00000BF
S11301D056C0000054C0000052C0000050C00000CF
S11301E04EC000004CC000004AC0000048C00000DF
S11301F046C000000C94C8100C947E11DC0CCA0C90
S1130200CD0CD00CD30CD60CD90C61195C19661921
S11302108B198B198B198B196B1973198B198B19F2
S11302207A197E1982198719C023052314233523CB
S1130230512366238223A1236364696E6F707375EF
S113024078585B0011241FBECFEFCDBFDFE2DEBFC5
S113025018E2A0E0B0E2E8EDFAE502C005900D92E4
S1130260A832B107D9F72CE2A8E2B8E201C01D9286
S1130270AD3CB207E1F70E94EF240C946A2DC0CE86
S1130280CF93DF93EC01C03C28E0D20729F468E067
S113029083E00E94B51207C0803C994021F468E0D5
S11302A084E00E94B512888180618883DF91CF91B8
S11302B00895FF920F931F93CF93DF93EC01F42ED5
S11302C0B901A80100E01CE62CED32E056D78823E2
S11302D04CF088819F2D990F990F9C70837FF92E84
S11302E0F82AF882DF91CF911F910F91FF90089522
S11302F0FC01DB01460F571F05C08D91838382816A
S11303008823ECF7A417B507C1F780E00895FC0132
S1130310DB014115510561F0460F571F9FEF938391
S113032082818823ECF783818D93A417B507B9F7ED
S113033080E00895FB018081E82FE695E695E69537
S113034040E2E49FF0011124FA5F877021E030E07D
S1130350A90102C0440F551F8A95E2F74683089508
S1130360FB018081E82FE695E695E69540E2E49F5F
S1130370F0011124FA5F877021E030E0A90102C086
S1130380440F551F8A95E2F74583089510923E293C
S113039010924A2910924B2981EA8093402980E2E5
S11303A080934129109242291092432910924429A2
S11303B01092452982E090E0809346299093472942
S11303C0109248291092492980E092ECA1E0B0E013
S11303D080934C2990934D29A0934E29B0934F2993
S11303E0109250291092512988E0809352298091CB
S11303F03E298F5F80933E2981E0089580913E29B4
S1130400815080933E29089580913D2981508093A5
S11304103D2980913D2910923C29089580E008955A
S113042080E008958091722B8823DCF480768032FA
S1130430E9F58091732B8132D9F58091782B9091D5
S1130440792B0797B9F58CE499E280937A2B9093F2
S11304507B2B87E090E080937C2B90937D2B81E035
S113046008958076803241F58091732B803221F09B
S1130470823221F581E008958091782B9091792B37
S11304800797F1F482E692E080937E2B90937F2B82
S11304908CE499E280937A2B90937B2B87E090E015
S11304A080937C2B90937D2B81E0089580E00895C8
S11304B080E0089580E0089580E0089580E0089544
S11304C080E008950895FF920F931F93CF93DF93D5
S11304D080912B2881119CC00E940A0F882351F01F
S11304E0C0912C28D0912D280E94170FC817D90726
S11304F059F48EC0C0912C28D0912D280E94120F3F
S1130500C817D90709F484C0DFB7F894C0912E281E
S1130510EC2FF0E0EE0FFF1FE15DF74D808191813C
S1130520892B09F580912828909129280196809398
S11305302828909329280E940A0F811107C08091CE
S11305402828909129288436910558F00E940A0F92
S1130550882349F08091282890912928803293405B
S113056010F4DFBF55C010922828109229288091DA
S11305702A28811106C081E0C11180E080932E28D1
S113058004C081E0C11180E0C82F81E080932B2852
S1130590DFBFD0E0FE01EE0FFF1FE15DF74DFF244A
S11305A0F394808191818034910509F4F12CFF202A
S11305B091F00E940A0F882339F00E94170F80934C
S11305C02C2890932D280BC00E94120F80932C2866
S11305D090932D2804C010922C2810922D28FE01EF
S11305E0EE0FFF1FE15DF74D20813181AE01002444
S11305F0569547950794569547950794542F402D43
S11306004C5C574D0EE013E06F2D81E80E94C90F3A
S1130610DF91CF911F910F91FF900895811115C023
S113062020912E2881E090E0222311F080E090E0D8
S1130630FC01EE0FFF1FE15DF74D10821182109255
S11306402A2810922B2880E03ECF089580E03BCFEB
S113065008954FB7F8942091B5283091B628E091C9
S1130660B728F0E0EE0FFF1FE854F74D8081918129
S1130670821B930B4FBF0895ECDF21E0892B09F413
S113068020E0822F08950F931F93CF93DF934FB7EA
S1130690F8945091B7288091B428811110C020910A
S11306A0B5283091B628C52FD0E0FE01EE0FFF1F0C
S11306B0E854F74D808191812817390718F44FBF0A
S11306C080E023C01092B5281092B62881E0511121
S11306D080E08093B72881E08093B4284FBF80E006
S11306E0CBDFAE0100245695479507945695479560
S11306F00794542F402D4454574D0CEB13E020E441
S113070030E061E082E00E94C90FDF91CF911F9138
S11307100F91089510923D2910922B2810922A28A7
S113072010922E2810922F281092302810923128DF
S11307301092322810922C2810922D2880E0C3DECB
S11307401092B4281092B7281092B8281092B928A1
S11307501092B5281092B62880E095DF882359F0CE
S113076090913D299F5F90933D2990913D2991302F
S113077011F490933C2908950F931F93942F8111A2
S113078029C08091B728E1E08111E0E0611571058D
S1130790B1F4F0E00024F695E7950794F695E79513
S11307A00794FE2FE02DAF014454574D0CEB13E09A
S11307B020E430E061E0892F0E94C90F0BC0F0E013
S11307C0EE0FFF1FE854F74D608371831092B42835
S11307D080E059DF1F910F91089580E04DCF089577
S11307E01F93CF93DF9311E080915229893009F050
S11307F010E060E070E03FB7F8948091B5289091E4
S1130800B6282091B7283FBF30E0F901EE0FFF1F53
S1130810E854F74D408151818417950730F0809159
S11308203C298111E8CF90E020C0F9010024F6951D
S1130830E7950794F695E7950794FE2FE02DE80FCA
S1130840F91FE454F74D2081EB01C22B01968093EC
S1130850B5289093B62880E016DF112321F07C2F71
S1130860662710E0C8CF8C2F9D2FDF91CF911F9169
S1130870089580E0B5CF08959FB7F89480912E280D
S1130880E82FF0E0EE0FFF1FE15DF74D208131818D
S11308902034310589F440912B2841110DC0409139
S11308A02A28411109C021E020932A28811120E03F
S11308B020932E2820E030E09FBF80E490E0821B4C
S11308C0930B0895D9DF21E0892B09F420E0822FCE
S11308D008951F93CF93DF93162FC72FD1E08091F4
S11308E05229893009F0D0E080E0ECDF811107C0A3
S11308F080913C298111F8CF80E090E02BC06FB744
S1130900F89420912E2830E0F901EE0FFF1FE15DED
S1130910F74D80819181AC014F5F5F4F40835183DC
S1130920F9010024F695E7950794F695E795079461
S1130930FE2FE02D8E0F9F1FFC01EC5CF74D108302
S11309406FBFDD2329F01C2FCC0FCC0BD0E0CCCF14
S113095081E090E0DF91CF911F910895BC0180E088
S1130960B8CF0895E0915829F09159290190F08168
S1130970E02D228133812E0F3F1FFC014081E40FC3
S1130980F11DE217F307A0F481818430A1F08613EE
S113099006C014C081818430A1F08617A9F080813B
S11309A0E80FF11DE217F307A8F380E090E0089543
S11309B080E090E0089580E090E008958E2F9F2FCE
S11309C0089580E090E008958E2F9F2F08958091E0
S11309D0742B8F770C940C0F089590915A299923B6
S11309E081F1E0915829F09159290190F081E02D8D
S11309F09481891740F5E0935629F0935729228171
S1130A0033812E0F3F1FE217F307F8F491819430DE
S1130A1061F49281981309C09381961306C0E09300
S1130A205629F093572981E008959081E90FF11D2B
S1130A30E217F30758F3E0935629F093572980E01F
S1130A40089580E0089580E0089580E00895FF927D
S1130A500F931F93CF93DF93C82F60E0BEDFF82E70
S1130A60882381F1A0915829B0915929EC2FF0E005
S1130A70EE0FFF1F12962D913C911397E20FF31F77
S1130A8000811181D8011696ED91FC911797099573
S1130A90682F8C2FA2DFF82E8823A1F0C09156294D
S1130AA0D091572965E0CE015DDFEC01009721F07C
S1130AB08A810E948A10F6CFD8011296ED91FC919A
S1130AC0139709958F2DDF91CF911F910F91FF906F
S1130AD008951F93CF93DF93182F7FDF882341F16D
S1130AE0C0915629D091572965E0CE013BDFEC0136
S1130AF0009749F04C815D816B818A810E94230FAC
S1130B008111F2CF15C0A0915829B0915929812F94
S1130B1090E0880F991F1296ED91FC911397E80FBE
S1130B20F91F0190F081E02D0190F081E02D0995ED
S1130B30DF91CF911F9108950C94A00E0895CF9347
S1130B4080915A298823C1F0E0915829F0915929BC
S1130B500190F081E02D8481882371F0C0E08C2F16
S1130B6076DFCF5FE0915829F09159290190F08107
S1130B70E02D8481C81798F310925A2981E090E0FF
S1130B8080935E2990935F29CF910895CF938091AC
S1130B905A29882341F1E0915829F0915929A081DB
S1130BA0B18114968C918823F1F0C0E08C2F90E0F1
S1130BB0880F991F0280F381E02DE80FF91F01903F
S1130BC0F081E02D0084F185E02D309709F009953E
S1130BD0CF5FE0915829F0915929A081B1811496F1
S1130BE08C91C81718F3CF910895EF92FF920F9349
S1130BF01F93CF93DF9310927C2B10927D2B109236
S1130C007E2B10927F2B1092802B1092812B20919F
S1130C10722B22230CF097C28091782B9091792B20
S1130C20009709F095C28BC22F7109F0B9C03091B9
S1130C30732B363089F0383009F4A6C03111B0C0B6
S1130C40029741F462E070E08EE599E20E941A0F87
S1130C5001E0F8C100E0F6C12091742B3091752BAE
S1130C60832F992782309105A1F01CF4019739F064
S1130C7081C083309105F1F10F9769F17BC08091B8
S1130C80342090913520DC016C9170E00E941A0FA1
S1130C9060C0E0913420F09135208189281708F054
S1130CA06BC0C9019927880F991F880F991FE0917C
S1130CB03620F0913720E80FF91F80819181FC01E3
S1130CC0628173810E941A0FE0917A2BF0917B2B41
S1130CD082E081833EC08091382090913920009732
S1130CE009F44CC0DC0112966D917C9113970E941B
S1130CF01A0F2FC033272130310589F048F02230F4
S1130D00310509F42AC22330310509F42AC238C056
S1130D1064E070E080E390E20E941A0F1AC089E256
S1130D2090E225E0382FA6E1B0E2E82FF92F819177
S1130D3090E08D939D938E2F831B8217C0F3220F17
S1130D4062E0620F6093142070E084E190E20E94FC
S1130D501A0F8091782B9091792B20917C2B3091D4
S1130D607D2B8217930770F480937C2B90937D2BBB
S1130D7001E068C100E066C100E064C100E062C156
S1130D8000E060C101E05EC1019741F461E070E000
S1130D908AE599E20E941A0F01E054C100E052C1B1
S1130DA0213009F040C03091732B3A30E1F50197BE
S1130DB0A1F580915A29882391F1C091762BD09185
S1130DC0772BE0905829F0905929D701ED91FC91A7
S1130DD08481C81730F560E08C2FFFDD082F88234D
S1130DE009F430C1CE019927880F991FD7011296B3
S1130DF0ED91FC911397E80FF91F0190F081E02D1C
S1130E000680F781E02D099580935C2961E070E00C
S1130E108CE599E20E941A0F15C100E013C100E0AD
S1130E2011C100E00FC1223009F00EC12091732BD3
S1130E30211103C1029781F48091762B0E94840FC3
S1130E4090E0809354299093552962E070E084E502
S1130E5099E2F0D701E0F6C000E0F4C02F7109F088
S1130E6090C08091732B833009F4E9C018F4813069
S1130E70B1F087C0853019F0893061F182C080916A
S1130E80782B9091792B892B41F487EE94E0809311
S1130E907E2B90937F2B01E0D5C000E0D3C08091DE
S1130EA0782B9091792B892B89F48091742B9091D4
S1130EB0752B019769F480915E2990915F298D7F4C
S1130EC080935E2990935F2901E0BCC000E0BAC022
S1130ED000E0B8C08091782B9091792B892B09F090
S1130EE046C09DD7882309F444C02091742B3091C7
S1130EF0752B3327E0913420F0913520818990E0DF
S1130F0082179307C0F11BDE8091742B9091752B8F
S1130F1080935A29882389F199278150904C880F0E
S1130F20991F880F991FE0913620F0913720E80F20
S1130F30F91FE0935829F09359290190F081E02D8D
S1130F4084818823E1F0C0E060E08C2FC2DD082FAB
S1130F50882309F477C0CF5FE0915829F09159298B
S1130F600190F081E02D8481C81770F36BC000E01C
S1130F7069C000E067C000E065C001E063C001E053
S1130F8061C0213009F58091732B8B30E9F4809195
S1130F90782B9091792B892B99F480915A29882365
S1130FA089F0C091762BD091742B8C2F50DD082FB3
S1130FB0882309F447C06D2F8C2F8BDD082F42C086
S1130FC000E040C000E03EC0223009F03DC0809106
S1130FD0732B813019F08330B1F033C08091782BBA
S1130FE09091792B892B59F48091742B9091752BC6
S1130FF0892B39F48091762BA2D7082F23C000E0E7
S113100021C000E01FC08091782B9091792B892B0F
S113101081F48091742B9091752B892B61F4C6E730
S1131020DBE288810E94511088810E94A710082F5A
S113103009C000E007C000E005C000E003C000E014
S113104001C000E0011191C08091722B8F71813039
S1131050C1F580915A298823A1F1C091762BD091B2
S1131060772B0091582910915929D801ED91FC91C1
S11310708481C81730F560E08C2FAFDC882309F138
S1131080CE019927880F991FD8011296ED91FC91F2
S11310901397E80FF91F00811181D8011696ED917D
S11310A0FC9117970995682F8C2F97DC882349F0BA
S11310B0D8011496ED91FC9115970995082F81118B
S11310C054C08091722B8F718230D9F580915A2946
S11310D0882389F1E0915829F0915929A081B1819F
S11310E014968C91882349F110E0212F30E0220FCF
S11310F0331F0280F381E02DE20FF31FC081D18101
S1131100EE81FF810995682F812F67DC082F8823E2
S113111061F1EC81FD810995082F811126C01F5FC3
S1131120E0915829F0915929A081B18114968C91AC
S11311301817D8F21AC000E018C000E016C000E08A
S113114014C000E012C0822F807609F07DCF86CED5
S1131150322F307609F078CF67CD26E082E290E234
S1131160E1CD24E081EF90E2DDCD802FDF91CF91BE
S11311701F910F91FF90EF900895CF92DF92EF921D
S1131180FF920F931F93CF93DF93EC016A017B01CE
S1131190DB01CA010197A109B109BC01CD01600FAE
S11311A0711F821F931FA70196010E947226213886
S11311B0310541055105F8F4213460F4213260F41D
S11311C0213160F4293060F4253060F4233060F07C
S11311D090E00BC093E009C092E007C092E805C01C
S11311E091E003C091E801C090E888818C77892B55
S11311F0888381E001C08FEFDF91CF911F910F9120
S1131200FF90EF90DF90CF900895CF93DF93E0911C
S11312106029F0916129848183FF08C088608483F8
S113122083E0838386EF80936A2989C0982F947121
S113123031F083E083838FEF80936A2980C086FF37
S113124045C0A0916229B09163298091642990914D
S1131250652914962D913C911597821793076CF488
S11312609C012F5F3F4F2093642930936529A80F79
S1131270B91F11968C91878362C0809166299091E1
S1131280672918962D913C91199782179307C8F4F2
S113129020916829222321F08681816086834FC0B2
S11312A016962D913C911797AC014F5F5F4F409379
S11312B0662950936729D901A80FB91F8C91878398
S11312C03EC083E0838310926A2939C08823A4F541
S11312D0A0916229B0916329809166299091672930
S11312E018962D913C91199782179307F8F4169646
S11312F04D915C9117979C012F5F3F4F2093662976
S1131300309367296781EA01C80FD91F688318964B
S11313108D919C9119972817390718F482E08383DB
S11313200EC087E0838310926A2909C083E0838317
S113133089EF80936A2903C08BEF80936A29DF9138
S1131340CF9108951F920F920FB60F9211242F93ED
S11313503F934F935F936F937F938F939F93AF9339
S1131360BF93EF93FF9351DFFF91EF91BF91AF9143
S11313709F918F917F916F915F914F913F912F91A9
S11313800F900FBE0F901F9018951F920F920FB6DB
S11313900F9211242F933F934F935F936F937F93F7
S11313A08F939F93AF93BF93EF93FF932EDFFF91A0
S11313B0EF91BF91AF919F918F917F916F915F91C9
S11313C04F913F912F910F900FBE0F901F90189542
S11313D04F925F926F927F928F929F92AF92BF9241
S11313E0CF92DF92EF92FF920F931F93CF93DF93ED
S11313F0EC014A015B0128013901D901C801689453
S113140012F8B695A795979587951694D1F7B901D3
S1131410A801032E36E176956795579547953A9539
S1131420D1F7302D2C8122FD08C0B695A79597954C
S11314308795769567955795479588159905AA05D3
S1131440BB0508F4A6C084169506A606B70608F4DC
S1131450A2C08C8182FD04C0880C991CAA1CBB1CF0
S1131460C301B201A50194010E9472262F3F3105E8
S11314704105510508F491C0C12CD12C7601CA94C0
S113148019EF05C02C153D054E055F0568F0CC0C21
S1131490DD1CEE1CFF1C1D3F14F46894C0F81F5F94
S11314A0173081F7212F50C0212F11230CF04CC08D
S11314B0D501C401880F991FAA1FBB1F880F991F4C
S11314C0AA1FBB1F880F991FAA1FBB1F481A590ABE
S11314D06A0A7B0A1E3FF4F46DEF7FEF611B71090A
S11314E017FD739504C0440C551C661C771C6A9543
S11314F0D2F7D501C401B695A79597958795BC01F8
S1131500CD01640D751D861D971DA50194010E94D2
S1131510722636C023E0210FD501C40104C0880F10
S1131520991FAA1FBB1F2A95D2F79C01AD01B6953E
S1131530A79597958795BC01CD01640D751D861DF2
S1131540971D0E9472261CC02D5FD501C40104C0E2
S1131550880F991FAA1FBB1F2A95D2F79C01AD01C2
S1131560B695A79597958795BC01CD01640D751D1A
S1131570861D971D0E947226215031094109510987
S1131580832F8F701295107F182B1F832E8381E079
S113159018C080E016C080E014C0D501C401880FD3
S11315A0991FAA1FBB1F880F991FAA1FBB1F880F53
S11315B0991FAA1FBB1F481A590A6A0A7B0A19EF06
S11315C08BCFDF91CF911F910F91FF90EF90DF9020
S11315D0CF90BF90AF909F908F907F906F905F90CF
S11315E04F9008950F931F93CF93DF93EC018B01DA
S11315F0009709F4BEC0803C910521F460E180E0CD
S1131600B4D7B7C0C11584E0D80721F464E080E002
S1131610ACD7AFC0C038E1E0DE0721F462E080E07F
S1131620A4D7A7C0C115F1E0DF0721F461E080E091
S11316309CD79FC0C03883E0D80721F461E081E0E3
S113164094D797C0C115E2E0DE0721F462E081E09F
S11316508CD78FC0C032F3E0DF0721F464E082E06E
S113166084D787C0C11588E0D80721F461E083E0FE
S11316707CD77FC0C115E9E0DE0721F461E084E096
S113168074D777C0C115FAE0DF0721F461E085E083
S11316906CD76FC0C03488E0D80721F462E083E0DF
S11316A064D767C0C034E9E0DE0721F462E084E077
S11316B05CD75FC0C039F8E0DF0721F464E083E061
S11316C054D757C0C03989E0D80721F464E084E0D6
S11316D04CD74FC0C039EAE0DE0721F464E085E06E
S11316E044D747C0C03CF8E0DF0721F468E083E05A
S11316F03CD73FC0C03C89E0D80721F468E084E0CF
S113170034D737C0C03AE8E0DE0721F460E183E073
S11317102CD72FC0C03AF9E0DF0721F460E184E060
S113172024D727C0C03A8AE0D80721F460E185E0D5
S11317301CD71FC0C03BE8E0DE0721F460E283E071
S113174014D717C0C03BF9E0DF0721F460E284E05E
S11317500CD70FC0C03884E0D80721F460E483E0DC
S113176004D707C0C03AE4E0DE0719F460E485E07A
S1131770FCD68D818F738D83F80194818581892BAB
S11317809681992311F098E001C090E0892B8D8314
S1131790F801408151816281738100E01CE62CEDE7
S11317A032E0CE0115DE9C8198609C839C8190611F
S11317B09C83DF91CF911F910F910895811118C0DF
S11317C09091982A992389F09FB7F894E3E8FBE273
S11317D02081215020839FBF08C09FB7F894E3E87D
S11317E0FBE220812F5F20839FBF8093982A089576
S11317F09091982A992389F3F8CF0F93E8ECF4E0B9
S113180080818F7D808380818F7D8083ECE6FAE206
S113181002E0059310926E2A10926F2A00E206935A
S113182000E40693E4E6FAE200E2069300E4069399
S113183010927E2B10927F2B1092802B1092812B72
S113184010927C2B10927D2B1092542A0F910895A4
S11318500F9385E08093542AEDE6FAE204E00593C1
S1131860E5E6FAE204E005930F9108950F9383E00F
S11318708093542A10926E2A10926F2AECE6FAE2B0
S113188002E006930F910895E0917E2BF0917F2B57
S1131890309709F0099508950F93CF93DF938091C2
S11318A0542A833019F4F0DFA8DF60C08091502AF5
S11318B09091512AC0917C2BD0917D2BC81BD90BC0
S11318C071F52091522A3091532A820F931F8093ED
S11318D0522A9093532A2091782B3091792B821796
S11318E0930721F080916B29882341F084E0809351
S11318F0542AE4E6FAE202E0069338C0E091802B31
S1131900F091812B309799F00995882381F01092FA
S1131910502A1092512AC0917C2BD0917D2BC03437
S1131920D10528F010926B29C0E4D0E003C081E017
S113193080936B29C0936E2AD0936F2A8091502A8A
S11319409091512A20917A2B30917B2B280F391FAB
S11319502093702A3093712AC80FD91FC093502A3C
S1131960D093512AECE6FAE202E00693DF91CF919C
S11319700F910895FC018181877090E0FC013197FB
S1131980E730F10520F4E250FF4F0C94942688E0F0
S113199090E0089580E290E0089580E490E0089556
S11319A080E890E0089580E091E0089580E092E07E
S11319B008958FEF93E0089580E190E00895282F33
S11319C02F7030E0220F331F992787FD90958827C9
S11319D0990F881F9927820F931F02979C01220F4A
S11319E0331F220F331F220F331F820F931F845183
S11319F0964D08950F93CF938091CC0480FF62C0DD
S1131A0081E08093CC04E4E6FAE200E80693ECE695
S1131A10FAE200E806938093CA04E4E6FAE200E1FD
S1131A2006938091542A882329F08350823008F445
S1131A302BDFE3DE8091662A9091672A089709F0EC
S1131A4043C088E0E0E1FAE2A2E7BBE201900D9234
S1131A508A95E1F7E8ECF4E08081806280838081FC
S1131A6080628083C2D8C82F811103C0F1DEC1E037
S1131A702CC08091722B88236CF41092522A1092FD
S1131A80532A1092502A1092512A82E08093542AA9
S1131A9003DF1BC02091782B3091792B232B11F479
S1131AA0E5DE13C01092522A1092532A1092502A43
S1131AB01092512A81E08093542AE4E6FAE202E08B
S1131AC0069303C0C0E001C0C1E08C2FCF910F91F9
S1131AD00895BF92CF92DF92EF92FF920F931F93DC
S1131AE0CF93DF93B82E6BDFEC011B2D111F112751
S1131AF0111F8B2D8F70E82EF12CEE0CFF1CE10EC4
S1131B00F11CC701880F991F880F991F880F991F0F
S1131B109C012C59354D7901C9012CDF6C0111232D
S1131B2009F45BC0D70116962D913C9117978D81CE
S1131B309E81280F391F2D833E838B819C8128171A
S1131B403907C9F1FC01E21BF30B9F012115F4E0F5
S1131B503F0740F02FEF33E0C901B6010E945E2633
S1131B60281B390B888181FF0AC0C901B6010E9474
S1131B705E2641E0892B09F040E0942F01C090E0FB
S1131B80888190FB81F98883D70116961D921C9257
S1131B90179712962D933C93139729813A818D813F
S1131BA09E81820F931F14968D939C931597F70132
S1131BB002E0069398C0888181FF87C08D7F888367
S1131BC0D70116961D921C92179712961D921C927D
S1131BD01397F70102E0069386C0D70112960D9180
S1131BE01C911397888182FF15C0E981FA812D81A8
S1131BF03E818B819C81B6010E945E26B0E4BB9E2F
S1131C00B0011124645D764DAC01CF01820F931FA6
S1131C100E9447272D813E81200F311F2D833E8353
S1131C20EB81FC81E217F30710F4ED83FE83D70107
S1131C3016968D919C9117978017910709F045C0CE
S1131C408D819E81E817F90709F43FC0E81BF90B61
S1131C50E115B4E0FB0748F0EFEFF3E0CF01B60184
S1131C600E945E26E81BF90B06C0CF01B6010E9454
S1131C705E26E81BF90BD70112961D921C9213974E
S1131C80EC15FD0578F4888184608883B0E4BB9EFC
S1131C90C0011124845D964DF70184839583C68227
S1131CA0D7820FC029813A818D819E81820F931F33
S1131CB0D70114968D939C9315971696ED93FC93E8
S1131CC01797F70102E006930EC0888180FF0BC0CE
S1131CD08E7F8883EF81F885309729F06D817E812E
S1131CE04B2D80E00995DF91CF911F910F91FF90CB
S1131CF0EF90DF90CF90BF900895CF93CFB7F89433
S1131D0081E05CDDEAECF4E080E4808380E28083BF
S1131D10E1ECF4E0808181608083A9ECB4E08C91F3
S1131D2082608C93E8ECF4E08081806480838C9101
S1131D3081608C93808180688083CFBFCF91089528
S1131D40CF9380E31ED4E0ECF4E080818064808350
S1131D50CFB7F8941092652A10926D2A1092752AC2
S1131D6010927D2A1092852A10928D2AECEEF9E2C7
S1131D7080818E7F8083E5EFF9E280818E7F80838E
S1131D80EEEFF9E280818E7F8083E7E0FAE28081E2
S1131D908E7F80836AE170E082E0ECD48F3F19F09B
S1131DA08093FA0403C08FE18093FA046BE170E03E
S1131DB082E0E0D48F3F19F08093FB0403C08FE1ED
S1131DC08093FB04E0ECF4E0808182608083808176
S1131DD08068808380818061808384E69AE2868340
S1131DE097838081806280838FEF8093C504E8ECC1
S1131DF0F4E08081816080831092982A8FB7F894F0
S1131E00E7E8FBE290819F5F90838FBF76DFCFBFCF
S1131E10CF91089580E008958093C304089580913C
S1131E20C30408958091942A9091952A089580E09E
S1131E3090E0089580937A2B90937B2B60937C2B76
S1131E4070937D2B0895E82FEF70F0E0EE0FFF1FE5
S1131E50992787FD90958827990F881F9927E80F60
S1131E60F91FEE0FFF1FEE0FFF1FEE0FFF1FEC59C0
S1131E70F54D8181807C09F043C06370613029F0A5
S1131E8010F480E403C080E801C080EC40385105C0
S1131E90E1F050F440325105A1F04034510599F07D
S1131EA04031510561F419C0411592E0590789F098
S1131EB04F3F93E0590779F04115514041F020E03C
S1131EC00DC022E00BC023E009C024E007C025E0D8
S1131ED005C026E003C027E001C021E0118296E09E
S1131EE09083822B81838181807C803C21F4818159
S1131EF08770873039F081818062818381E0089521
S1131F0080E0089581E00895E82FEF70F0E0EE0F8F
S1131F10FF1F992787FD90958827990F881F992778
S1131F20E80FF91FEE0FFF1FEE0FFF1FEE0FFF1F4D
S1131F30EC59F54D818182FB882780F90895E82FBB
S1131F40EF70F0E0EE0FFF1F282F332727FD3095A9
S1131F502227330F221F3327E20FF31FEE0FFF1F39
S1131F60EE0FFF1FEE0FFF1FEC59F54D918192FF0D
S1131F700EC091819B7F918322DDFC01808180FFD3
S1131F8006C08E7F80830780F085E02D099581E06F
S1131F9008957F928F929F92AF92BF92CF92DF92D9
S1131FA0EF92FF920F931F93CF93DF93982E862E79
S1131FB05A01690104DD7C01792C771C7724771C94
S1131FC0C92DCF70D0E0CC0FDD1FC70DD11DCC0FB4
S1131FD0DD1FCC0FDD1FCC0FDD1FCC59D54D898102
S1131FE0807C09F44CC08981807C803C19F0898113
S1131FF082FD47C08FB7F894F701908190FF03C02A
S11320008FBF712C3FC0F7019081916090838FBF87
S1132010F701A182B282C382D48215821682078319
S11320201087811006C091E0C114D10419F090E02A
S113203001C091E0F701808190FB81F98B7F80835F
S1132040772019F01E821F8215C08981807C803C14
S113205069F4CE018FDCBC01C6010E945E26892B87
S113206029F0F70180818E7F80830CC01A821B8245
S11320701E821F82892D2DDD7724739403C0712C59
S113208001C0712C872DDF91CF911F910F91FF908B
S1132090EF90DF90CF90BF90AF909F908F907F9004
S11320A00895FF920F931F93CF93DF93182FF82E69
S11320B0FF1CFF24FF1CC82FCF70D0E0CC0FDD1F06
S11320C0CF0DD11DCC0FDD1FCC0FDD1FCC0FDD1FBD
S11320D0CC59D54D74DCDC01FE0102E005938C91F2
S11320E080FF12C08E7F8C931796ED91FC91189708
S11320F0309751F0FF2019F06E817F8102C06A8110
S11321007B81412F81E00995DF91CF911F910F9140
S1132110FF900895CF93C82FC4DFEC2FEF70F0E049
S1132120EE0FFF1F8C2F992787FD90958827990F15
S1132130881F9927E80FF91FEE0FFF1FEE0FFF1FEF
S1132140EE0FFF1FEC59F54D1182CF9108950F93B7
S1132150E82FEF70F0E0EE0FFF1F282F332727FD45
S113216030952227330F221F3327E20FF31FEE0F80
S1132170FF1FEE0FFF1FEE0FFF1FEC59F54D91816E
S11321809460918301E006938CDF81E00F910895C0
S11321901F920F920FB60F9211240F932F933F9318
S11321A04F935F936F937F938F939F93AF93BF935B
S11321B0EF93FF938091CB04882334F480E88093D9
S11321C0CA040E94C60588C08091CB0482FF20C047
S11321D084E08093CA0480916C2A86FF7DC080913C
S11321E0CC0481FD79C006DC811176C08091542A2B
S11321F0813011F43BDB70C0843009F06DC0EDE632
S1132200FAE204E00593E5E6FAE204E0059364C02B
S11322108091CB0481FF5BC082E08093CA048091EB
S1132220642A86FF59C08091CC0481FD55C0E2DB4D
S1132230811152C08091542A823041F484E0809309
S1132240542AE4E6FAE202E0069346C0833009F039
S113225043C0EDE6FAE204E00593E5E6FAE204E0C1
S113226005933AC080E18093CA0481E01ADF81E8D3
S113227018DF0E949F051092C304E5E6FAE210827B
S113228096E09093642A83E48083EDE6FAE2108278
S113229090936C2A808380E19AE28093682A9093D9
S11322A0692AABDA19C08091CB0486FF06C080E4AA
S11322B08093CA0480E082DA0FC08091CB0485FF4A
S11322C00BC080E28093CA0481E078DA05C0809173
S11322D0CB0484FFE8CFC6CFFF91EF91BF91AF91BC
S11322E09F918F917F916F915F914F913F912F912A
S11322F00F910F900FBE0F901F9018951F920F9281
S11323000FB60F9211240F931F932F933F934F9364
S11323105F936F937F938F939F93AF93BF93CF9369
S1132320DF93EF93FF938091CC0481FD03C062DBC4
S11323308111B9C082E08093CC048091C504819559
S1132340880FE4E6FAE2E81BF10920813181245682
S11323503A42369527953695279536952795822FB7
S1132360869520FF02C090E801C090E0890FE82F15
S1132370EF70F0E0EE0FFF1F282F332727FD309575
S11323802227330F221F3327E20FF31FEE0FFF1F05
S1132390EE0FFF1FEE0FFF1FEC59F54D908195FFD7
S11323A082C000E20693811179C08091542A84305E
S11323B019F46ADA22DA77C0C091662AD091672AC2
S11323C080917C2B90917D2B0091502A1091512A61
S11323D098012C0F3D1F8217930718F4EC01C01BC2
S11323E0D10B80917A2B90917B2BAE0160E17AE244
S11323F0800F911F0E9447270C0F1D1F0093502A26
S11324001093512AC034D10569F48091522A9091D5
S1132410532A800F911F2091782B3091792B8217AA
S1132420930788F000937C2B10937D2BE091802BF5
S1132430F091812B309729F00995811102C008DAB7
S113244032C014DA30C080917C2B90917D2B081718
S11324501907F9F4E091802BF091812B309711F456
S1132460F7D921C00995811102C0F2D91CC020916D
S1132470522A3091532A8091502A9091512A820FE6
S1132480931F8093522A9093532A1092502A1092A9
S1132490512AE4E6FAE202E0069305C0803811F41A
S11324A0FBD901C016DBFF91EF91DF91CF91BF9172
S11324B0AF919F918F917F916F915F914F913F91D8
S11324C02F911F910F910F900FBE0F901F90189591
S11324D0CF93DF9300D000D0CDB7DEB78FEF8093DA
S11324E070008093710080937200809373008093D6
S11324F0740080937500809376006CE170E082E054
S113250039D18A836DE170E082E034D18983898195
S11325109A81019621F480E493E289839A838981E4
S11325209A818B839C83E0E6F0E082838C818383B1
S11325308FB7F894E0E5F0E09081926090838FBFCC
S1132540818181FFFDCF61E080E490E01DD18FB7F0
S1132550F894E0E5F0E090819E7F90838FBF24960D
S1132560CDBFDEBFDF91CF9108959FB7F894E82FD8
S1132570F0E0E059FF4F60958081682360839FBF3E
S11325800895863011F468E101C060E0E0E5F0E010
S1132590818181FD09C08FB7F89490819260908306
S11325A08FBF818181FFFDCF636084E490E0ECD034
S11325B060E480E0DACF0895CF93DF939B01E0ECF1
S11325C0F1E067856623ECF3CCECD1E068816860C8
S11325D06883BC01705FC9010E9447278881877F97
S11325E08883DF91CF910895E0ECF1E0878588231B
S11325F0ECF3E0ECF1E0878581FF06C086E3828797
S113260061E08BEC91E0C0C00895E0ECF1E09785C7
S11326109923ECF3ECECF1E0908198609083A82F7F
S1132620B0E0B05F6C938081877F80830895FF92D0
S11326300F931F93CF93DF93182FF92EC62FE0EC3F
S1132640F1E00285D1DFE0ECF1E027852223ECF311
S11326506C2F812FDADFC0ECD1E01A82F982188363
S113266085E38A8761E08BEC91E08ED00A87DF9165
S1132670CF911F910F91FF900895EF92FF920F93C6
S11326801F93CF93DF938C01E0ECF1E087858823DF
S1132690ECF3780180E2E80EF11CE8018C2F801B3A
S11326A06991B3DFCE15DF05C9F7DF91CF911F9193
S11326B00F91FF90EF9008951F93CF93DF93E0EC79
S11326C0F1E097859923ECF320E2829FC001112465
S11326D0C0ECD1E01A82998388831A8585E38A87BE
S11326E061E08BEC91E050D01A87DF91CF911F917C
S11326F00895CF92DF92EF92FF920F931F93CF939F
S1132700DF93EC017B018A014115510551F1CE01A2
S11327108F719927892BB1F40032110598F0C70104
S1132720ACDFCE0196958795929582958F70892717
S11327309F708927C1DFA09680E2E80EF11C005249
S113274011090CC06E01EFEFCE1ADE0AF701619198
S11327507F01CE016CDF01501109E601011511055D
S1132760B1F6DF91CF911F910F91FF90EF90DF9021
S1132770CF9008954091CA01E62FF72F8093CA01A4
S113278084914093CA0108951BBEFC0128ED24BF27
S113279060830895CF93DF93CDB7DEB72797CDBF7E
S11327A0DEBF80919C208D8380919D208E838091BB
S11327B09E208F838091982090919920A0919A20B7
S11327C0B0919B2089839A83AB83BC8360E184E0CE
S11327D0CCDEBE016F5F7F4F80EA99E00E94F20A6F
S11327E02796CDBFDEBFDF91CF9108958F929F9240
S11327F0AF92BF92CF92DF92EF92FF920F931F930B
S1132800CF93DF93CDB7DEB72897CDBFDEBF8C0162
S11328106B01FC0101900020E9F731977F01E81A70
S1132820F90A19821A821B821C821D821E821F824F
S11328301886C70199279F938F932BE634E23F9321
S11328402F930E9466270F900F900F900F9080E5B2
S1132850E8125DC0B8016F5F7F4F4CE050E0C601E5
S11328600E945727B801635D7F4F44E150E0C601E1
S11328700D960E945727B8016F5B7F4F4CE050E0E4
S1132880C60182960E945727B801605F7F4F42E0DD
S113289050E0FE0131965F01CF010E945727B80135
S11328A0655D7F4F4E01F4E08F0E911C42E050E0D5
S11328B0C4010E945727F601148611A216A67E01B0
S11328C0F7E0EF0EF11CFF92EF920FE617E21F9371
S11328D00F93BF92AF920E94B5278F81992787FDEE
S11328E09095F60187A790ABFF92EF921F930F93F9
S11328F09F928F920E94B5278F81992787FD90958B
S1132900F60181AB92ABCDBFDEBF81E001C080E0B8
S11329102896CDBFDEBFDF91CF911F910F91FF901D
S1132920EF90DF90CF90BF90AF909F908F900895DD
S11329300F931F93CF93DF9300D01F92CDB7DEB7D1
S11329406115710529F48068898381E090E014C0E1
S1132950806C89836038710520F46A8382E090E09A
S11329600BC0862F80688A83660F672F661F770BDC
S113297071956B8383E090E0BE016F5F7F4F0E948F
S1132980C41E2396CDBFDEBFDF91CF911F910F915F
S113299008950F931F93FA019A01280F391F2130CC
S11329A0344068F49C012250310940E050E08B012E
S11329B0BF0189E090E0BCDF80E090E002C08FEFCF
S11329C09FEF1F910F9108950F931F93CF93DF9360
S11329D000D01F92CDB7DEB76115710521F489834C
S11329E081E090E014C0806489836038710520F42C
S11329F06A8382E090E00BC0862F80688A83660F2A
S1132A00672F661F770B71956B8383E090E0BE019F
S1132A106F5F7F4F0E94FF1E2396CDBFDEBFDF9105
S1132A20CF911F910F9108950F931F939B01BA01AA
S1132A3040E050E08C0181E190E0C6DF1F910F91EE
S1132A4008950F931F938C0125E030E040E050E09F
S1132A5060E070E087E190E0B7DF1F910F91089587
S1132A600F931F938C0125E030E040E050E060E0DC
S1132A7070E085E190E0A8DF1F910F910895EF9237
S1132A80FF920F931F93CF93DF9300D000D0CDB765
S1132A90DEB79E012F5F3F4F890124E030E040E024
S1132AA050E092DFFE01359660E070E0CB01B82F74
S1132AB0A72F962F88272291BC01CD01620F711D8B
S1132AC0811D911DE017F10791F72496CDBFDEBF5C
S1132AD0DF91CF911F910F91FF90EF90089560E0E7
S1132AE070E080E090E0CBCF08950F931F93CF93D5
S1132AF0DF9300D0CDB7DEB78E010F5F1F4F22E00A
S1132B0030E040E050E060DF8A8190E0982F882731
S1132B102981820F911D0F900F90DF91CF911F910A
S1132B200F9108950F931F93CF93DF931F92CDB707
S1132B30DEB78E010F5F1F4F21E030E040E050E030
S1132B4043DF89810F90DF91CF911F910F910895F9
S1132B500F931F93CF93DF931F92CDB7DEB74983B3
S1132B608E010F5F1F4F21E030E040E050E0E0DED7
S1132B700F90DF91CF911F910F9108950F931F93A1
S1132B80CF93DF9300D0CDB7DEB749835A838E014C
S1132B900F5F1F4F22E030E040E050E0C9DE0F90AD
S1132BA00F90DF91CF911F910F910895AC0164E0D4
S1132BB078E18EE290E0E2CF0895AC0160E070E04D
S1132BC088E190E0DBCF08950F931F93CF93DF93B9
S1132BD000D000D0CDB7DEB729833A834B835C8322
S1132BE08E010F5F1F4F24E030E040E050E0A0DE94
S1132BF02496CDBFDEBFDF91CF911F910F91089531
S1132C00CF92DF92EF92FF920F931F938C01CA0130
S1132C10AA2797FDA095BA2F072E7FE0880F991F4A
S1132C20AA1FBB1F7A95D1F7702DE0919F20F091D8
S1132C30A020C284D384E484F5848C299D29AE2900
S1132C40BF2920E030E0802B912BA22BB32BAB01CA
S1132C5060E070E0032E36E1440F551F661F771FB6
S1132C603A95D1F7302D9A01AB01282B392B4A2BF9
S1132C705B2B60E070E088E090E0A6DF1F910F918D
S1132C80FF90EF90DF90CF900895AB0164E070E087
S1132C908DE290E073DF43E066E070E08DE290E067
S1132CA057DF40E066E070E08DE290E051DF6AE0DB
S1132CB070E08DE290E0E3CE089540E062E070E0E1
S1132CC08CE290E045DF42E062E070E08CE290E06C
S1132CD03FCF0895CF93DF93EC014DE666E078E0B3
S1132CE08EE290E035DFCD2B41F047E056E066E020
S1132CF078E18EE290E042DF07C047E056E166E00B
S1132D0078E18EE290E03ADFDF91CF9108954F921F
S1132D105F926F927F92AF92BF92CF92DF92EF92C7
S1132D20FF920F931F93CF93DF93EC014880598058
S1132D306A807B80842DEC89FD89EE0FFF1FE55EA0
S1132D40FC4DC080D1800C810150843041F021E0E1
S1132D5090E0873009F020E0E22EF92E03C0EE2443
S1132D60E394F12C8C8D9D8DAE8DBF8D892B8A2B98
S1132D708B2BA1F4E0919F20F091A0208089918970
S1132D80A289B389A064808B918BA28BB38BD694D8
S1132D90C794D694C794D694C7940DC0E0919F204D
S1132DA0F091A02080899189A289B389AF7B808B1F
S1132DB0918BA28BB38BE0919F20F091A02088A1EE
S1132DC0808780899189A289B389AC7F808B918B1C
S1132DD0A28BB38B48A159A16AA17BA1BA01552743
S1132DE0442744275527637077279A01AB01282B82
S1132DF0392B4A2B5B2B208B318B428B538B60E01E
S1132E0070E084E090E0E0DEA60164E078E28EE227
S1132E1090E0B4DE10E0C8015DDFE42DF0E0E054A2
S1132E20FC4DA080B12C6501CC0CDD1CCC0CDD1C50
S1132E30F601E057FC4D208131814281538167E0E6
S1132E4070E08BE290E0C0DEF501E657FC4D408176
S1132E506BE070E08BE290E07BDEF701FF27E85740
S1132E60FC4D40816BE070E088E290E071DEF60199
S1132E70E855FC4D20813181428153816CE070E042
S1132E8088E290E0A1DEEC8DFD8DEE0FFF1F888DB2
S1132E90998DE80FF91FEE0FFF1FEF58FC4D40818D
S1132EA0518162E070E087E290E068DEF801EE0FA5
S1132EB0FF1FE359FC4D4081518164E070E087E2DB
S1132EC090E05CDE8C8D9D8DAE8DBF8D892B8A2B21
S1132ED08B2B41F444E650E066E070E087E290E03A
S1132EE04DDE23C088859985AA85BB850497A105F5
S1132EF0B10571F440E150E066E070E087E290E0F3
S1132F003DDE40E166E270E087E290E021DE0DC044
S1132F1040E250E066E070E087E290E02FDE48E2B5
S1132F2066E270E087E290E013DE8C859D85F8010F
S1132F30EE0FFF1FEE0FFF1FE80FF91FEE0FFF1F2D
S1132F40EE0FFF1FE35BFC4D2081318142815381F1
S1132F5068E070E087E290E037DE8CA19DA1AEA12D
S1132F60BFA1892B8A2B8B2B41F481E490E1A0E053
S1132F70B0E08CA39DA3AEA3BFA34CA15DA160E26E
S1132F8070E087E290E0FADD209180233091812384
S1132F9040918223509183236CE070E083E290E0BF
S1132FA013DEF801EE0FFF1FEC57FC4D40815181F9
S1132FB064E070E083E290E0E1DD888D998DAA8D74
S1132FC0BB8D892B8A2B8B2B69F0EC8DFD8DE358FF
S1132FD0FC4D408160E070E081E290E0B9DDE1E029
S1132FE083E002C0E0E080E00C891D892E893F89DE
S1132FF00F2EFBE1000F111F221F331FFA95D1F78B
S1133000F02DB301A2014F70552766277727042BB3
S1133010152B262B372B4C815D816E817F81032EEE
S113302032E1440F551F661F771F3A95D1F7302DB3
S1133030442755276C707727042B152B262B372B09
S1133040488959896A897B89032E36E1440F551FC3
S1133050661F771F3A95D1F7302D44275527607C9A
S11330607770042B152B262B372B552466247724B5
S1133070B301A201440F551F661F771F440F551F4C
S1133080661F771F440F551F661F771F440F551F78
S1133090661F771F552766277727402B512B622BF6
S11330A0732B90E0A0E0B0E0072E74E1880F991F25
S11330B0AA1FBB1F7A95D1F7702D842B952BA62BB5
S11330C0B72B4E2E512C612C712C032E31E1440C64
S11330D0551C661C771C3A95D1F7302DA30192013B
S11330E0282B392B4A2B5B2B60E070E08FE190E0BA
S11330F06BDD4C815D816E817F8188859985AA8590
S1133100BB85842B952BA62BB72BBC0155274427B5
S11331108C8D9D8DAE8DBF8D072E7DE0880F991F00
S1133120AA1FBB1F7A95D1F7702D9A01AB01282BEA
S1133130392B4A2B5B2BE0919F20F091A020228712
S113314033874487558760E070E088E090E03CDD99
S113315042E460E070E08DE090E0FADCDF91CF9132
S11331601F910F91FF90EF90DF90CF90BF90AF90A1
S11331707F906F905F904F900895CF92DF92EF927F
S1133180FF926B017C0160E070E08AE190E077DC03
S1133190DC01CB0188279927A07F2FE0E222FF24BE
S11331A09C01AD012C293D294E295F2960E070E086
S11331B08AE190E009DDFF90EF90DF90CF900895D1
S11331C0E0919F20F091A02080A391A362A373A318
S11331D044A355A326A337A30895CF93C82F80FFF4
S11331E020C060E070E086E290E049DCDC01CB01C5
S11331F0937C9C01AD01346160E070E086E290E074
S1133200E3DC60E070E086E390E039DC9B01AC0134
S1133210446860E070E086E390E0D6DCC1FD19C04C
S11332200EC060E070E086E290E029DC9B01AC0116
S1133230337C60E070E086E290E0C6DC1CC020E1F4
S113324031E040E050E068E270E086E390E0BCDC0E
S113325012C020E131E04FE050E068E270E086E324
S113326090E0B2DC20E131E040E050E068E270E060
S113327086E390E0A9DCCF910895EF92FF920F933B
S11332801F93CF93DF9300D0CDB7DEB77C018E01BF
S11332900F5F1F4F22E030E040E050E060E070E05C
S11332A086E390E091DB8FE0E816F104A0F5F701E6
S11332B0EB5FFE4F0C94942619828A818E7F8A8359
S11332C02AC089818C7F8160898325C089818C7F14
S11332D08260898320C08981837B886489838A8111
S11332E080688A8318C08981837B89838A818F77E8
S11332F08A8311C08A8182608A830DC08A818D7F0E
S11333008A8309C089818F7C8062898304C081E0BB
S1133310898383E08A838E010F5F1F4F21E030E0B1
S113332040E050E060E070E086E390E001DB0F5F96
S11333301F4F21E030E040E050E061E070E086E3C0
S113334090E0F6DA0F900F90DF91CF911F910F91DB
S1133350FF90EF9008958EE090E08FDF40E050E81A
S113336066E070E08DE290E009DC81E090E07DD4DD
S113337081E090E082CF089580E090E07EDF40E03D
S113338050E064E070E086E390E0F8CB08959B01A0
S1133390AC0161E070E08AE090E016CC0895CF9330
S11333A0C82F81FF0EC040E860E070E08DE090E03F
S11333B0CFDBE0919F20F091A02081E0868B40E854
S11333C001C040E0C0FF1DC0466060E070E08DE0D9
S11333D090E0BEDB63E070E08FE090E086DB887015
S11333E09470892BB9F040E460E070E08DE090E0E7
S11333F0AFDBE0919F20F091A020168A8FEF9FEF22
S11334000BC0426060E070E08DE090E0A1DB80E002
S113341090E002C080E090E0CF9108950F931F9355
S1133420CF938C0163E070E084E090E07BDBC82FF5
S113343001151105D9F0A80160E070E08CE090E07E
S11334409DDBE0919F20F091A020008911892289C1
S113345033893061008B118B228B338B4C2F40616D
S113346063E070E084E090E073DB14C0E0919F209F
S1133470F091A02000891189228933893F7E008B35
S1133480118B228B338B482F4F7E63E070E084E0F6
S113349090E05EDBCF911F910F910895AC0164E23F
S11334A070E087E290E06ACB0895CF92DF92EF92CA
S11334B0FF921F93CF93DF936B017C01142F0AD1EA
S11334C0EC0160E070E08EE090E0D9DA112339F08D
S11334D09B01AC012C293D294E295F290AC0C094C7
S11334E0D094E094F0949B01AC012C213D214E2119
S11334F05F2160E070E08EE090E066DBCE01EED00C
S1133500DF91CF911F91FF90EF90DF90CF900895BE
S113351040EE63E070E086E390E01ADB40EF63E0A6
S113352070E086E390E014CB089526DF40E050E09D
S113353060E070E08CE290E021DB40E066E070E067
S11335408CE290E005DBB9DB40E063E070E086E309
S113355090E0FEDA81E090E088D340EF63E070E031
S113356086E390E0F5DAE0919F20F091A020168A9E
S113357008958F71482F40666EE070E08BE290E012
S1133580E7CA08950F931F93CF93DF93C82FE09159
S11335909F20F091A0201786168A148A158A10A2FB
S11335A011A212A213A214A215A216A217A297DAAC
S11335B0603371408A4C9E4D09F085C0B6DF80E0CF
S11335C090E05BDE44E060E070E084E290E0C0DA2A
S11335D06EE170E080E090E058DBD62FE0919F2010
S11335E0F091A020718764E070E080E090E04DDB12
S11335F0662379F042E062E170E08DE290E0A8DABF
S1133600E0919F20F091A020848995899061848B1A
S1133610958B00919F201091A02066E070E080E0DF
S113362090E033DBF801608371838283938300919C
S11336309F201091A02067E070E080E090E025DBFF
S1133640F8016483758386839783E0919F20F091CA
S1133650A020DF7111F0D68702C080E186878685BD
S113366088DFC0FF0BC077DEE0919F20F091A0209F
S1133670848995899860848B958B0CC065E070E093
S113368086E390E032DAAC015D7F65E070E086E3CA
S113369090E074DA81E090E0F0DD40E06AE070E010
S11336A08CE290E055DAC0919F20D091A02060E098
S11336B070E084E090E0E3D9688B798B8A8B9B8BF4
S11336C080E090E002C08FEF9FEFDF91CF911F91D8
S11336D00F910895F89481E090E008957894089506
S11336E088EB9BE0A0E0B0E08093D8209093D920B1
S11336F0A093DA20B093DB2081E08093382C0895E6
S11337001092D8201092D9201092DA201092DB2047
S113371082E08093382C08950895CF93DF93E2EFED
S1133720FAE221E73BE21192E217F307E1F7FC0129
S1133730648175816038710528F440E050E082EFBF
S11337409AE272D98091F22A813409F06BC0809197
S1133750F32A883809F066C08091F42A8093882B74
S11337608091F52A90E0982F88272091F62A822BC1
S11337708093892B90938A2BC091F72AD0E0DC2F79
S1133780CC278091F82AC82BC0938B2BD0938C2BF9
S11337908091F92A90E0982F88272091FA2A822B89
S11337A080938D2B90938E2B10928F2B9CD5C817C2
S11337B0D90751F58091FB2A803371F44091FC2A9A
S11337C040938F2B50E06DEF7AE280E99BE20E94F8
S11337D057271092382C26C0823321F485E0809339
S11337E0382C20C0813621F486E08093382C1AC00E
S11337F0893621F488E08093382C14C0803591F404
S113380087E08093382C0EC080918B2B90918C2B69
S11338108F3F910521F483E08093382C03C084E02A
S11338208093382C88EE93E0A0E0B0E08093D82019
S11338309093D920A093DA20B093DB20DF91CF912D
S113384008950F931F93CF93DF93CDB7DEB72597DA
S1133850CDBFDEBF8E010F5F1F4FC80101D9FE012E
S11338603696D80120E030E040E050E060E070E0BF
S113387080E090E008E00E94EB261291212BEA17E9
S1133880FB07C1F72596CDBFDEBFDF91CF911F9116
S11338900F910895CF93C82F33D281E090E072DE68
S11338A0019649F486E091E29F938F930E946627E4
S11338B00F900F90FFCF4DD280EB90E228DACC230B
S11338C011F083E08ADC7FD771D982D776D920E8DA
S11338D03BE140E75BE16DE87BE18CE89BE170DC78
S11338E041E060E870ED83E294E0DFDDCF9108957C
S11338F02F923F924F925F926F927F928F929F92FC
S1133900AF92BF92CF92DF92EF92FF920F931F93E9
S1133910CF93DF93CDB7DEB7A997CDBFDEBF982E87
S1133920892E8FEF8093382C01E4098318E81A83D9
S11339308091F12A8B831C821D829E839F8218862C
S1133940D2D4898781E68A871B861C860D871E87C9
S11339508091F12A8F87188A198A8A8A9B8A1C8AFD
S1133960C2D48D8B89E68E8B1BA21CA266E970E003
S113397080E090E002DC80E29EE450DD82E390E0AF
S11339808DDD40E050E0BE016F5F7F4F8CE090E042
S113399000D841E050E060E070E08CE090E030D985
S11339A082E0FDDC60E070E08FE090E068D8609336
S11339B0ED2A7093EE2A8093EF2A9093F02A2B013C
S11339C03C01442420ED522227E2622224E27222A6
S11339D045284628472831F32091F12A2F5F209368
S11339E0F12A76FF1CC120E830E440E050E060E0BA
S11339F070E08FE090E0E8D860E070E080E190E073
S1133A003ED86F7777278827992765317105810517
S1133A10910528F440E050E089ED9AE205D810922F
S1133A20DB2A42E050E061EA70E289ED9AE20E940A
S1133A303A27892B09F000C14E0185E2880E911CBA
S1133A40C4010E942115FE01BA96D40120E030E0A1
S1133A5040E050E060E070E080E090E008E00E9428
S1133A60EB261291212BEA17FB07C1F72093D12AE9
S1133A703093D22A4093D32A5093D42A6093D52AE0
S1133A807093D62A8093D72A9093D82ADADE20938B
S1133A90C92A3093CA2A4093CB2A5093CC2A6093E4
S1133AA0CD2A7093CE2A8093CF2A9093D02A445E55
S1133AB0534F6F4F7F4F8F4F9F4F0E940627822E89
S1133AC0932E042F152F622F792D802F912F5FDCD9
S1133AD07FD61C01282D2E7F392D402F512F60E0D9
S1133AE070E080E090E008E00E94EB26A22CB32C6A
S1133AF0C12CD12CE12CF12C00E010E00E942227F3
S1133B00E22F732E842E952E162FB72FA82FF92F60
S1133B102093C12A3093C22A4093C32A5093C42AC3
S1133B206093C52A7093C62A8093C72A9093C82AA3
S1133B302091D12A3091D22A4091D32A5091D42A6B
S1133B406091D52A7091D62A8091D72A9091D82A4B
S1133B502F8B08E00E940627288F0E940627298FB2
S1133B600E9406272A8F2091C92A3091CA2A40919F
S1133B70CB2A5091CC2A6091CD2A7091CE2A809183
S1133B80CF2A9091D02A2B8F0E9406272C8F0E9437
S1133B9006272D8F0E9406272E8FEF8F2E2F372D6D
S1133BA0482D592D612F7B2F8A2F9F2F0E94062786
S1133BB028A30E94062729A30E9406272AA38091EE
S1133BC0F12A8F8740E050E0BE01635F7F4F88E1B8
S1133BD090E00E94C91441E050E060E070E088E1A8
S1133BE090E00ED881E0DBDB892B41F560E070E0EA
S1133BF08FE090E00E943F1567FFF8CF20E830E0A7
S1133C0040E050E060E070E08FE090E00E94E41556
S1133C108091F12A8F5F8093F12A80E010C020E028
S1133C2030E947E254E260E070E08FE090E00E9407
S1133C30E4156EDC82E003C082E001C082E0A99654
S1133C40CDBFDEBFDF91CF911F910F91FF90EF9019
S1133C50DF90CF90BF90AF909F908F907F906F90A8
S1133C605F904F903F902F900895AF92BF92CF9264
S1133C70DF92EF92FF920F931F93CF93DF93A12CC8
S1133C800F2EFCE6BF2EF02D0F2EFCEDCF2EF02DC7
S1133C906894DD24D1F8E12CF12C00E010E0282F09
S1133CA0392F40E050E060E070E080E090E00E9456
S1133CB09A2629513C4F4F4F5F4F6F4F7F4F8F4F85
S1133CC09F4F5DD720E030E84BEB55E4B6D622D7C2
S1133CD0F22FE32F8F2F9E2FA42FB52F0197A10929
S1133CE0B1090097A105B105C9F7DF91CF911F91E3
S1133CF00F91FF90EF90DF90CF90BF90AF90089519
S1133D00CF92DF92EF92FF920F931F9384E18093FF
S1133D10372C80EC98E00E944001C12CD12C760114
S1133D2000E211EA27E030E040E067E37CE280EC67
S1133D3098E00E945901E0ECF8E08081806480837F
S1133D4080E090E01F910F91FF90EF90DF90CF9073
S1133D500895CF92DF92EF92FF920F931F93C12C9D
S1133D60D12C760100EC11EE24EE30E040E067E364
S1133D707CE280EC98E00E9459011F910F91FF9022
S1133D80EF90DF90CF9008958F929F92AF92BF9261
S1133D90CF92DF92EF92FF920F931F93CF93DF9313
S1133DA07C01EB0149015A0195DC6C0167E37CE27B
S1133DB080EC98E00E949A01A701BE0180EC98E093
S1133DC00E947801A401B80180EC98E00E94780177
S1133DD067E37CE280EC98E00E94B001C6017EDCDF
S1133DE080E090E0DF91CF911F910F91FF90EF90D1
S1133DF0DF90CF90BF90AF909F908F9008958F9257
S1133E009F92AF92BF92CF92DF92EF92FF920F9365
S1133E101F93CF93DF937C01EB0149015A015ADCD4
S1133E206C0167E37CE280EC98E00E949A01A701B0
S1133E30BE0180EC98E00E947801A401B80180ECF6
S1133E4098E00E94870167E37CE280EC98E00E949E
S1133E50B001C60143DC80E090E0DF91CF911F9177
S1133E600F91FF90EF90DF90CF90BF90AF909F9015
S1133E708F9008950E94681280E09AE6A8E1B0E06D
S1133E800197A109B1090097A105B105C9F7E0E4BB
S1133E90F6E088E0828334E03283A0E0B6E090E488
S1133EA011969C93119720E811962C93A0E2B6E00A
S1133EB041E011964C93119742E011964C93A0E87F
S1133EC0B6E011964C93119711968C93A0E6B6E048
S1133ED012963C93129711968C9380E1818380E231
S1133EE08183218392838FB7F894E6E5F6E090818D
S1133EF0977090839081906190838FBF81E0E0E818
S1133F00F6E0828391C4089580E4E0E0F6E08583DE
S1133F1080E092EEA4E0B0E00197A109B109009716
S1133F20A105B105C9F780E8E0E0F6E0858380E00B
S1133F3092EEA4E0B0E00197A109B1090097A105B0
S1133F40B105C9F781E0E0E2F6E0858380E092EE16
S1133F50A4E0B0E00197A109B1090097A105B1055A
S1133F60C9F782E0E0E2F6E0858380E092EEA4E027
S1133F70B0E00197A109B1090097A105B105C9F7FE
S1133F8080E4E0E0F6E0868380E092EEA4E0B0E036
S1133F900197A109B1090097A105B105C9F780E806
S1133FA0E0E0F6E0868380E092EEA4E0B0E00197E2
S1133FB0A109B1090097A105B105C9F781E0E0E2C3
S1133FC0F6E0868380E092EEA4E0B0E00197A109D8
S1133FD0B1090097A105B105C9F782E0E0E2F6E076
S1133FE0868380E092EEA4E0B0E00197A109B109D4
S1133FF00097A105B105C9F780E4E0E0F6E0858308
S113400080E094ECA9E0B0E00197A109B109009720
S1134010A105B105C9F780E8E0E0F6E0858380E01A
S113402094ECA9E0B0E00197A109B1090097A105BA
S1134030B105C9F781E0E0E2F6E0858380E094EC25
S1134040A9E0B0E00197A109B1090097A105B10564
S1134050C9F782E0E0E2F6E0858380E094ECA9E031
S1134060B0E00197A109B1090097A105B105C9F70D
S113407080E4E0E0F6E0868380E094ECA9E0B0E040
S11340800197A109B1090097A105B105C9F780E815
S1134090E0E0F6E0868380E094ECA9E0B0E00197EC
S11340A0A109B1090097A105B105C9F781E0E0E2D2
S11340B0F6E0868380E094ECA9E0B0E00197A109E2
S11340C0B1090097A105B105C9F782E0E0E2F6E085
S11340D0868380E094ECA9E0B0E00197A109B109DE
S11340E00097A105B105C9F780E4E0E0F6E0858317
S11340F080E096EAAEE0B0E00197A109B10900972B
S1134100A105B105C9F780E8E0E0F6E0858380E029
S113411096EAAEE0B0E00197A109B1090097A105C4
S1134120B105C9F781E0E0E2F6E0858380E096EA34
S1134130AEE0B0E00197A109B1090097A105B1056E
S1134140C9F782E0E0E2F6E0858380E096EAAEE03B
S1134150B0E00197A109B1090097A105B105C9F71C
S113416080E4E0E0F6E0868380E096EAAEE0B0E04A
S11341700197A109B1090097A105B105C9F780E824
S1134180E0E0F6E0868380E096EAAEE0B0E00197F6
S1134190A109B1090097A105B105C9F781E0E0E2E1
S11341A0F6E0868380E096EAAEE0B0E00197A109EC
S11341B0B1090097A105B105C9F782E0E0E2F6E094
S11341C0868380E096EAAEE0B0E00197A109B109E8
S11341D00097A105B105C9F780E4E0E0F6E0858326
S11341E080E098E8A3E1B0E00197A109B109009744
S11341F0A105B105C9F780E8E0E0F6E0858380E039
S113420098E8A3E1B0E00197A109B1090097A105DD
S1134210B105C9F781E0E0E2F6E0858380E098E843
S1134220A3E1B0E00197A109B1090097A105B10587
S1134230C9F782E0E0E2F6E0858380E098E8A3E154
S1134240B0E00197A109B1090097A105B105C9F72B
S113425080E4E0E0F6E0868380E098E8A3E1B0E063
S11342600197A109B1090097A105B105C9F780E833
S1134270E0E0F6E0868380E098E8A3E1B0E001970F
S1134280A109B1090097A105B105C9F781E0E0E2F0
S1134290F6E0868380E098E8A3E1B0E00197A10905
S11342A0B1090097A105B105C9F782E0E0E2F6E0A3
S11342B0868380E098E8A3E1B0E00197A109B10901
S11342C00097A105B105C9F7089548E250E06FE0F1
S11342D07CE280E090E00C947913089580910F2C97
S11342E09091102C089560E070E081E00E94BA1370
S11342F090E00895CF93DF9388EC90E180930F2CA6
S11343009093102CF0DFC1E1DCE28883998381E093
S11343108093132C85E1E8ECF3E2A4E1BCE2019084
S11343200D928A95E1F785E0EDEDF3E2A9E2BCE2B6
S113433001900D928A95E1F785E0E2EEF3E2AEE2B8
S1134340BCE201900D928A95E1F7888199818330CE
S1134350910539F130F48130910549F00297A1F0CB
S113436047C08430910551F10597A9F141C085EE0C
S113437097E48093332C9093342C8DE798E38093C7
S1134380352C9093362C3EC084EF97E48093332CE5
S11343909093342C88E898E38093352C9093362CB2
S11343A031C088E098E48093332C9093342C89E9CD
S11343B098E38093352C9093362C24C08BED97E4AE
S11343C08093332C9093342C85E798E38093352C99
S11343D09093362C17C085EF97E48093332C9093F9
S11343E0342C8AE898E38093352C9093362C0AC0B9
S11343F086E390E48093332C9093342C8093352C73
S11344009093362C62DFDF91CF91089548E250E01B
S11344106FE07CE280E090E00E94DC1280910F2C3F
S11344209091102C883C904119F064DF81E008954C
S113443080E0089564E17CE233C5089569E27CE29A
S11344402FC508956EE27CE22BC50895BC0184E17A
S11344509CE226C50895BC0189E29CE221C5089529
S1134460BC018EE29CE21CC508952F923F924F92AC
S11344705F926F927F928F929F92AF92BF92CF92F0
S1134480DF92EF92FF920F931F93CF93DF93CDB7F9
S1134490DEB7CE54D109CDBFDEBF18A21AA21BA22B
S11344A01CA21DA2512C6E0126E2C20ED11C7E015B
S11344B030E4E30EF11C8E01055C1F4F0F2EFFE06C
S11344C06F2EFCE27F2EF02D0F2EF8E38F2EF4E2F8
S11344D09F2EF02D5E0181E2A80EB11CFE01B49660
S11344E02796EEAFFFAF27979E012E5D3F4F29968B
S11344F02EAF3FAF2997CE014B962B968EAF9FAF31
S11345002B971E0196E1290E311CB3972D96EEAF21
S1134510FFAF2D97225031092F962EAF3FAF2F9723
S1134520412CC60187DFC70189DFC8018BDF87E023
S113453094E2DDD480E294E2DAD4F30180819181C3
S11345409F938F939F928F92C1D4CDDE9F938F932D
S113455084E594E29F938F93B9D48091132CCDBFBB
S1134560DEBF882319F087EE93E202C087EF93E25F
S11345709F938F938FE694E29F938F93A7D4DF92B8
S1134580CF928AE894E29F938F93A0D4FF92EF9204
S113459085EA94E29F938F9399D41F930F9380ECB1
S11345A094E29F938F9392D48091332C9091342CE6
S11345B09F938F938BED94E29F938F9387D48091F5
S11345C0352C9091362C9F938F9386EF94E29F9392
S11345D08F937CD481E195E28AD482E295E29F9321
S11345E08F9374D4BF92AF9288E897E29F938F938E
S11345F0ABD4CDBFDEBF89A190E08830910508F02F
S1134600C8C0FC01EC5EFE4F8FC388E595E26FD411
S113461080E094E2A4EFB42D0197A109B1090097B9
S1134620A105B105C9F7B1C08DE995E29F938F93B8
S11346304DD42F969FAD2F979F932E96EFAD2E9727
S1134640EF9388E897E29F938F937ED40F900F9017
S11346500F900F900F900F9088A1882311F081E0A4
S113466088A388A18093132C90C084ED95E29F9336
S11346708F932CD42D96FFAD2D97FF932C962FADB1
S11346802C972F9382EF95E29F938F935DD4CE0165
S11346900196DCDE0F900F900F900F900F900F900B
S11346A074C087EF95E29F938F9310D43F922F921B
S11346B082E296E29F938F9347D4C101CCDE0F90A0
S11346C00F900F900F900F900F905FC086E296E2CC
S11346D09F938F93FBD32B963FAD2B973F932A96B3
S11346E08FAD2A978F9382E296E29F938F932CD477
S11346F0CE014B96B5DE0F900F900F900F900F9058
S11347000F9043C080E596E29F938F93DFD3299661
S11347109FAD29979F932896EFAD2897EF9386E74F
S113472096E29F938F9310D48AA19BA18093332CFC
S11347309093342C0F900F900F900F900F900F9038
S113474024C08AE796E29F938F93C0D32796FFAD48
S11347502797FF9326962FAD26972F9386E796E209
S11347609F938F93F1D38CA19DA18093352C90932B
S1134770362C0F900F900F900F900F900F9005C054
S1134780A4DD80EA96E2B3D307C0552009F4C9CE6C
S113479003C0552009F4C5CEC25BDF4FCDBFDEBFD9
S11347A0DF91CF911F910F91FF90EF90DF90CF9009
S11347B0BF90AF909F908F907F906F905F904F903D
S11347C03F902F9008958091332C9091342C08952C
S11347D08091352C9091362C0895CF93C82F8A3030
S11347E021F48DE090E00E94AE048C2F992787FD80
S11347F090950E94AE0480E090E0CF9108950F93CD
S11348001F93CF93DF938C010E94ED038823E1F380
S11348100E943904EC01B801E0DFCE019927DF9151
S1134820CF911F910F91089587E0E0EAF0E0828331
S113483078940E949C050E947D0E8CED90E28093FA
S1134840C92C9093CA2C8093C72C9093C82C08959C
S1134850CF93DF93CDB7DEB72797CDBFDEBF80916F
S1134860EE208D838091EF208E838091F0208F83C2
S11348708091EA209091EB20A091EC20B091ED2062
S113488089839A83AB83BC8360E185E00E94B5127F
S1134890BE016F5F7F4F80EA9AE00E94F20A82E0D5
S11348A0E0E8F6E086832796CDBFDEBFDF91CF91A7
S11348B008951F920F920FB60F9211242F933F93D6
S11348C04F935F936F937F938F939F93AF93BF9314
S11348D0EF93FF9382E0E0E2F6E087838091A00902
S11348E08093932C9091712BE92FF0E0E75CF34DCA
S11348F080839F5F9093712B8A3021F581E0A0E241
S1134900B6E017968C93E92FF0E0E75CF34D108244
S113491064E97CE289E39CE20E94F613882379F03F
S1134920E3ECFCE281818F9380818F938BE694E2A8
S11349309F938F93CBD20F900F900F900F90109264
S1134940712B08C0993531F41092712B80E8E0E0A6
S1134950F6E08783FF91EF91BF91AF919F918F9183
S11349607F916F915F914F913F912F910F900FBE67
S11349700F901F901895C0E2D6E002E011E0689411
S1134980CC24C7F80F2EF9EBDF2EF02D0F2EFAE210
S1134990EF2EF02DF12C84E090E00E94781C0D8322
S11349A01D8383E090E00E94781C0D831E8382E0C7
S11349B090E00E94781C0E831D8381E090E00E94A9
S11349C0781C0E831E838C2D9D2DAE2DBF2D01973B
S11349D0A109B1090097A105B105C9F7DCCF4ADAED
S11349E037DF0E94CA13E0EAF9E083818F7C80619B
S11349F083838ADA73DC9F938F931F921F92CBE099
S1134A00D8E2DF93CF9362D201DD182F67DC9F9346
S1134A108F931F921F93DF93CF9358D2E0E4F6E075
S1134A2080852DB73EB7245F3F4F2DBF3EBF82FF29
S1134A301CDD81E00E944A1C9EDF0CD005C1FDD024
S1134A4040F0F4D030F021F45F3F19F0D6C051119A
S1134A502FC1D9C00AD198F39923C9F35523B1F3CF
S1134A60951B550BBB27AA2762177307840738F0D9
S1134A709F5F5F4F220F331F441FAA1FA9F333D038
S1134A800E2E3AF0E0E830D091505040E695001CEC
S1134A90CAF729D0FE2F27D0660F771F881FBB1FA8
S1134AA0261737074807AB07B0E809F0BB0B802D82
S1134AB0BF01FF2793585F4F2AF09E3F510568F0CE
S1134AC09CC0F6C05F3FECF3983EDCF38695779587
S1134AD06795B795F7959F5FC9F7880F911D9695D0
S1134AE0879597F90895E1E0660F771F881FBB1F2C
S1134AF0621773078407BA0720F0621B730B840BD9
S1134B00BA0BEE1F88F7E0950895BEE304D008F4CD
S1134B1090E80895BFE322273327A901AED058F1C6
S1134B209F5740F1B91738F1BFE3B91B9927B85023
S1134B303AF4660F771F881F991FB395D2F316C0F6
S1134B40B8504AF0232F342F452F562F672F782F34
S1134B508827B850BAF7B85F49F086957795679576
S1134B605795479537952795BA95B9F70EF44ED0D2
S1134B7088940895889460E070E0CB010895E894E7
S1134B80F92F96EBFF2381F0121613061406440B3B
S1134B909395F69587957795679557954040FF23AC
S1134BA0B9F71BC099270895882351F49850D2F778
S1134BB0872B762F652F542F432F322F20E0B1F30C
S1134BC0121613061406440B88233AF09A95440FE0
S1134BD0551F661F771F881FCAF755234AF4440FD1
S1134BE0551F11F460FF04C06F5F7F4F8F4F9F4FBD
S1134BF0880F9695879597F9089597F99F6780E8A8
S1134C0070E060E008959FEF80EC089590958095A2
S1134C107095609550954095309521953F4F4F4F35
S1134C205F4F6F4F7F4F8F4F9F4F089500240A941B
S1134C301616170618060906089500240A94121673
S1134C401306140605060895092E0394000C11F4A6
S1134C50882352F0BB0F40F4BF2B11F460FF04C053
S1134C606F5F7F4F8F4F9F4F089557FD9058440FAC
S1134C70551F59F05F3F71F04795880F97FB991FB7
S1134C8061F09F3F79F08795089512161306140674
S1134C90551FF2CF4695F1DF08C016161706180601
S1134CA0991FF1CF86957105610508940895E894DC
S1134CB0BB2766277727CB0197F90895AA1BBB1B4F
S1134CC051E107C0AA1FBB1FA617B70710F0A61B08
S1134CD0B70B881F991F5A95A9F780959095BC0129
S1134CE0CD010895A1E21A2EAA1BBB1BFD010DC024
S1134CF0AA1FBB1FEE1FFF1FA217B307E407F50788
S1134D0020F0A21BB30BE40BF50B661F771F881F63
S1134D10991F1A9469F760957095809590959B01F9
S1134D20AC01BD01CF010895EE0FFF1F0590F49172
S1134D30E02D0994DF93CF931F930F939A9DF02D49
S1134D40219FF00D8B9DF00D8A9DE02DF10D039FA9
S1134D50F00D029FE00DF11D4E9DE00DF11D5E9DD5
S1134D60F00D4F9DF00D7F936F93BF92AF925F93C1
S1134D704F93D50170D08B01AC01D7016CD0EB01FE
S1134D80E80FF91FD6011FD02F913F91D60163D0B0
S1134D90C60FD71FE81FF91FAF91BF9114D02F91F1
S1134DA03F9159D0C60FD71FE81FF91FD60153D022
S1134DB0E60FF71F9801BE01CF0111240F911F9137
S1134DC0CF91DF91089547D0460F571FC81FD91FB1
S1134DD008F4319608950F93083090F0982F872F98
S1134DE0762F652F542F432F322F22270850F4CFCC
S1134DF0220F331F441F551F661F771F881F991FDB
S1134E000A95B2F70F91089597FB10F816940008CD
S1134E100F93083098F00850232F342F452F562F26
S1134E20672F782F892F902DF4CF05949795879528
S1134E307795679557954795379527950A95AAF7D6
S1134E400F9108952A0D3B1D4C1D5D1D6E1D7F1D88
S1134E50801F911F0895A29FB001B39FC001A39F1B
S1134E60700D811D1124911DB29F700D811D11249F
S1134E70911D0895FB01DC0104C08D9101908019FE
S1134E8021F441505040C8F7881B990B0895FB0149
S1134E90DC0102C001900D9241505040D8F70895B2
S1134EA0FB01DC0101900D920020E1F70895FB0164
S1134EB0DC014150504048F001900D920020C9F7A8
S1134EC001C01D9241505040E0F70895A0E0B0E0C9
S1134ED0EBE6F7E2DEC5FE01359661917191AF0113
S1134EE08091C92C9091CA2C56D0E2E0EBC50F9367
S1134EF01F93CF93DF93E091C92CF091CA2C2381A7
S1134F0021FF1BC0EC0100E010E089916091C92CE5
S1134F107091CA2CDB011896ED91FC9119978823A6
S1134F2031F00995892B89F30FEF1FEFEECF8AE05B
S1134F300995892B11F4C80102C08FEF9FEFDF910F
S1134F40CF911F910F910895A0E0B0E0E9EAF7E254
S1134F50A0C5FE01359661917191AF018091C72C76
S1134F609091C82C4AD3E2E0ADC5AEE0B0E0EAEBE4
S1134F70F7E28FC585E08C838B899C8989839A832A
S1134F80AE01495E5F4F6D897E89CE01019635D3AE
S1134F902E96E2E097C5ACE0B0E0E0EDF7E269C53B
S1134FA07C016B018A01FC0116821782838181FFD7
S1134FB0B0C1CE0101964C01F7019381F60193FD36
S1134FC0859193FF81916F01882309F49EC18532F5
S1134FD039F493FD859193FF81916F01853221F41A
S1134FE0B70190E09AD4E8CF512C312C20E0203244
S1134FF0A0F48B3269F030F4803259F0833269F4D2
S113500020612CC08D3239F0803339F4216026C000
S11350102260246023C0286021C027FD27C030ED12
S1135020380F3A3078F426FF06C0FAE05F9E300D60
S11350301124532E13C08AE0389E300D1124332ED0
S113504020620CC08E3221F426FD5FC1206406C0AC
S11350508C3611F4206802C0883641F4F60193FDC1
S1135060859193FF81916F018111C1CF982F9F7D0D
S11350709554933028F40C5F1F4FFFE3F9830DC060
S1135080833631F0833771F0833509F057C021C07E
S1135090F801808189830E5F1F4F44244394512C6F
S11350A0540114C03801F2E06F0E711CF801A080A5
S11350B0B18026FF03C0652D70E002C06FEF7FEF63
S11350C0C5012C87E1D32C0183012C852F77222E57
S11350D016C03801F2E06F0E711CF801A080B18097
S11350E026FF03C0652D70E002C06FEF7FEFC5019E
S11350F02C87BFD32C012C852068222E830123FC0E
S113510019C0832D90E048165906A0F4B70180E237
S113511090E003D43A94F5CFF50127FC859127FE5E
S113512081915F01B70190E0F8D331103A94F1E036
S11351304F1A51084114510479F7DEC0843611F036
S1135140893631F5F80127FF07C0608171818281BA
S113515093810C5F1F4F08C060817181882777FDA0
S11351608095982F0E5F1F4F2F76B22E97FF09C0A0
S113517090958095709561957F4F8F4F9F4F2068D4
S1135180B22E2AE030E0A40113D4A82EA81843C0FC
S1135190853729F42F7EB22E2AE030E025C0F22F85
S11351A0F97FBF2E8F36C1F018F4883579F0ADC081
S11351B0803719F0883721F0A8C02F2F2061B22E34
S11351C0B4FE0DC08B2D8460B82E09C024FF0AC024
S11351D09F2F9660B92E06C028E030E005C020E17C
S11351E030E002C020E132E0F801B7FE07C0608180
S11351F07181828193810C5F1F4F06C06081718130
S113520080E090E00E5F1F4FA401D2D3A82EA8180F
S1135210FB2DFF77BF2EB6FE0BC02B2D2E7FA514C2
S113522050F4B4FE0AC0B2FC08C02B2D2E7E05C07B
S11352307A2C2B2D03C07A2C01C0752C24FF0DC0B1
S1135240FE01EA0DF11D8081803311F4297E09C02D
S113525022FF06C07394739404C0822F867809F0E9
S1135260739423FD12C020FF06C05A2C731418F443
S1135270530C5718732C731460F4B70180E290E058
S11352802C874BD373942C85F6CF731410F43718F2
S113529001C0312C24FF11C0B70180E390E02C87BA
S11352A03CD32C8522FF16C021FF03C088E590E083
S11352B002C088E790E0B7010CC0822F867851F0D5
S11352C021FD02C080E201C08BE227FD8DE2B7011F
S11352D090E023D3A51430F4B70180E390E01DD30C
S11352E05A94F8CFAA94F401EA0DF11D8081B70114
S11352F090E013D3A110F6CF332009F45DCEB701AB
S113530080E290E00AD33A94F7CFF701868197813F
S113531002C08FEF9FEF2C96E2E1C4C320FD09C0C9
S1135320FC0123FD05C022FF02C073836283518305
S11353304083089544FD10C046FD10C0DB01FC010C
S1135340AA0FBB1FEE1FFF1F1094D1F76A0F7B1F1C
S11353508E1F9F1F31E003C033E001C034E0660FAD
S1135360771F881F991F3150D1F7620F711D811D5E
S1135370911D08950F931F93CF93DF938C01C80160
S11353808ED2EC0197FD06C061D2892BC1F7B8011A
S1135390CE01F5D2CE01DF91CF911F910F910895E7
S11353A08F929F92AF92CF92DF92EF92FF920F93E0
S11353B01F93CF93DF93EC01A62E4A01022F6FD2E5
S11353C0AC0155274B32510521F04D32510549F4BA
S11353D00068AA9411F480E060C0CE0160D297FD09
S11353E0FACF102F1D7F302F3073F1F48033E1F4A6
S11353F0FF24FA94FA0C09F43DC0CE0150D297FD73
S113540039C0382F3F7D383549F41264AA94AA94E0
S113541089F1CE0144D297FF07C02CC006FF02C019
S1135420126001C01261AF2CC12CD12C760120ED89
S1135430280F283078F014FF03C0BE01A0D217C093
S11354402A3040F016FFF9CF2F7D3FEE320F363071
S1135450A0F72750412FC701B6016CDF6B017C0117
S11354601260AA9451F0CE011AD297FFE0CF11FD39
S113547004C0B1CFC12CD12C760117FF08C0F09421
S1135480E094D094C094C11CD11CE11CF11C212FC8
S1135490B701A601C40142DF81E0DF91CF911F91E2
S11354A00F91FF90EF90DF90CF90AF909F908F90EF
S11354B00895A1E2B0E0EEE5FAE2E0C25C017A010F
S11354C08E010F5F1F4F680180E2D8011D928A95FB
S11354D0E9F7F501738040E050E0812CB0E0912CB5
S11354E081E090E0F90173FCA59173FEA1918F0115
S11354F07A2F9F01A11103C080E090E07BC0AE35FC
S113550019F44115510559F1E92DF0E0E417F507B7
S11355103CF4AD3569F1AD3219F4BB2319F103C084
S1135520B11101C08A2EE72FE695E695E69586012E
S11355300E0F111DF801A72FA7708C0102C0000FD8
S1135540111FAA95E2F7D801B081BA2BB083781560
S113555059F0781510F47F5FE6CF7150E4CF9924A9
S1135560939403C0B1E001C0B0E04F5F5F4FBACF86
S1135570BB2319F08E8180628E83911003C099241D
S1135580939415C0F601CE01819620812095219334
S1135590E817F907D1F7F3CFE114F10429F0D701A3
S11355A08C93F70131967F016150F1F0912CC50184
S11355B069A375D169A197FD15C0282F2695269555
S11355C02695F601E20FF11D208130E0AC01477011
S11355D0552702C0359527954A95E2F720FDDCCF83
S11355E0B501CDD1911088CFE114F10411F0D701A8
S11355F01C92C801A196EDE05AC24F925F927F922D
S11356008F929F92AF92BF92CF92DF92EF92FF92CE
S11356100F931F93CF93DF931F92CDB7DEB78C0107
S11356202B017A01FC0116821782A12CF801D38088
S1135630F201D3FC8591D3FE8191382F2F01882369
S113564009F4EEC090E0398301D13981892B19F036
S1135650C80190DEEBCF353241F4F201D3FC359131
S1135660D3FE31912F01353259F4C801398317D152
S1135670398197FDD3C03817C9F2B80180D1D0C0A1
S11356803A3241F4D3FC3591D3FE31912F01BB243E
S1135690B39401C0B12C712C20ED230F2A3088F46F
S11356A0FB2DF260BF2E672D70E080E090E040E2B9
S11356B041DE762EF201D3FC3591D3FE31912F01D8
S11356C0EBCFB1FE03C0711003C0AAC077247A9453
S11356D0383619F03C3661F014C0F201D3FC359130
S11356E0D3FE31912F01383661F4FB2DF860BF2EC3
S11356F08B2D8460B82EF201D3FC3591D3FE319109
S11357002F01332309F48CC0632F70E088E392E007
S11357103983A4D03981892B09F482C0B0FC07C035
S1135720F701C080D180C70102967C0102C0C12C60
S1135730D12C3E3649F4F8014681578160E070E08F
S11357402B2DC601EBDD72CF333699F4B1FC02C0C8
S113575077247394C801A3D097FD60C0C114D10409
S113576029F0F6018083C60101966C017A9491F7C1
S113577051C03B3551F49201A601672DC80199DE51
S11357802C01009709F046C040C0C8013983F2DDFE
S1135790398197FD43C03F3651F128F4343619F16D
S11357A0393661F128C0333769F03537E1F023C069
S11357B0C114D10429F0F6018082C60101966C015E
S11357C07A9459F0C8016BD04C0197FD06C03ED0C5
S11357D0892B71F3B801C401D2D0C114D104D1F022
S11357E0F601108217C0FB2DF062BF2E07C08B2D6F
S11357F08061B82E03C09B2D9064B92E2B2DA60179
S1135800672DC801CDDD811105C0F8018381807346
S113581029F406C0B0FC0ACFA39408CFAA2019F03B
S11358208A2D90E002C08FEF9FEF0F90DF91CF9110
S11358301F910F91FF90EF90DF90CF90BF90AF90AA
S11358409F908F907F905F904F90089591110EC11B
S1135850803219F089508550D0F70895FC010590E5
S1135860061621F00020D9F7C00108953197CF0121
S11358700895FC010590615070400110D8F780959F
S113588090958E0F9F1F0895FC0161507040019008
S11358900110D8F7809590958E0F9F1F0895CF9390
S11358A0DF93EC012B8120FF33C026FF0AC02F7B3E
S11358B02B838E819F8101968E839F838A8190E0C2
S11358C029C022FF0FC0E881F9818081992787FDD3
S11358D09095009719F420622B831AC03196E883BF
S11358E0F9830EC0EA85FB85099597FF09C02B81D2
S11358F0019611F480E101C080E2822B8B8308C001
S11359002E813F812F5F3F4F2E833F83992702C013
S11359108FEF9FEFDF91CF9108950F931F93CF9354
S1135920DF93182F092FEB018B8181FD03C08FEFCB
S11359309FEF20C082FF10C04E815F812C813D818A
S1135940421753077CF4E881F9819F012F5F3F4F91
S113595028833983108306C0E885F985812F09954A
S1135960892B29F72E813F812F5F3F4F2E833F8361
S1135970812F902FDF91CF911F910F910895FB01FB
S1135980238120FF12C026FD10C08F3F3FEF9307F5
S113599061F082832F7D2064238326813781215007
S11359A0310926833783992708958FEF9FEF089550
S11359B0FA01AA27283051F1203181F1E8946F933C
S11359C06E7F6E5F7F4F8F4F9F4FAF4FB1E03ED0E2
S11359D0B4E03CD0670F781F891F9A1FA11D680F80
S11359E0791F8A1F911DA11D6A0F711D811D911DB3
S11359F0A11D20D009F468943F912AE0269F112428
S1135A003019305D3193DEF6CF010895462F47708B
S1135A10405D4193B3E00FD0C9F7F6CF462F4F70E6
S1135A20405D4A3318F0495D31FD4052419302D044
S1135A30A9F7EACFB4E0A6959795879577956795EA
S1135A40BA95C9F700976105710508959B01AC01EA
S1135A500A2E06945795479537952795BA95C9F711
S1135A60620F731F841F951FA01D0895992788270F
S1135A7008952F923F924F925F926F927F928F92EE
S1135A809F92AF92BF92CF92DF92EF92FF920F93C9
S1135A901F93CF93DF93CDB7DEB7CA1BDB0BCDBF0C
S1135AA0DEBF09942A88398848885F846E847D849F
S1135AB08C849B84AA84B984C884DF80EE80FD80B2
S1135AC00C811B81AA81B981CE0FD11DCDBFDEBF50
S10B5AD0ED010895F894FFCFE5
S1135AD88A0304020E0210022603C601FE01120202
S1135AE81002000000030000000000000000000095
S1135AF800004F6E65506F7300416772756D00004A
S1135B080403090486203A20000042203E200A208B
S1135B18002009024300020100C032090400000108
S1135B2802020100052400100104240202052406CF
S1135B38000105240103010705820340001009043C
S1135B480100020A00000007058102400000070561
S1135B580202400000001201000202000040EB03B0
S1135B68042400010102030100C20100030000999A
S1135B782A418800000000050001500200000000CE
S1135B8802000000020000000800000002000000FB
S1135B9809000000090000000100000000000000E6
S1135BA80000000021040000FFFFFFFF00000003C5
S1135BB800000000ED23FF23000000C201000300E1
S1135BC800313245460053522C304330300A002409
S1135BD8242400460A00494E4954204641494C456C
S1135BE844000A2D2D2D2D2D2D2D2D2D2D2D2D2D12
S1135BF82D2D2D2D2D2D2D2D2D2D2D2D2D2D2D2DC9
S1135C082D2D2D2D2D2D2D2D2D2D2D2D2D004457A4
S1135C184D3130303020494E464F00446576696333
S1135C286520494420203A20253034582025303432
S1135C38580A0050617274204944202020203A20D8
S1135C482530345820253034580A00455549202039
S1135C582020202020203A20253032582025303298
S1135C6858202530325820253032582025303258D3
S1135C782025303258202530325820253032580A11
S1135C880050414E20416464726573733A20253094
S1135C9832582025303258202530325820253032C9
S1135CA8580A005359535F434647202020203A207E
S1135CB82530345820253034580A0054585F464358
S1135CC854524C2020203A20253032582025303296
S1135CD85820253032582025303258202530325863
