S00E00004F6E65506F732E73726563C2
S113000019C1000034C1000032C1000030C1000039
S11300102EC100002CC100002AC1000028C100002C
S113002026C1000024C1000022C1000020C100003C
S11300301EC100000C949A091AC1000018C10000E6
S113004016C1000014C1000012C1000010C100005C
S11300500EC100000CC100000AC1000008C100006C
S113006006C1000004C1000002C1000000C100007C
S1130070FEC00000FCC00000FAC00000F8C0000090
S1130080F6C00000F4C00000F2C00000F0C00000A0
S1130090EEC00000ECC00000EAC00000E8C00000B0
S11300A0E6C00000E4C00000E2C00000E0C00000C0
S11300B0DEC00000DCC000000C94BD09D8C0000004
S11300C0D6C00000D4C00000D2C00000D0C00000E0
S11300D0CEC00000CCC00000CAC00000C8C00000F0
S11300E0C6C00000C4C00000C2C00000C0C0000000
S11300F0BEC00000BCC00000BAC00000B8C0000010
S1130100B6C00000B4C00000B2C00000B0C000001F
S1130110AEC00000ACC00000AAC00000A8C000002F
S1130120A6C00000A4C00000A2C00000A0C000003F
S11301309EC000009CC000009AC0000098C000004F
S113014096C0000094C0000092C0000090C000005F
S11301508EC000008CC000008AC0000088C000006F
S113016086C0000084C0000082C0000080C000007F
S11301707EC000007CC000007AC0000078C000008F
S113018076C0000074C0000072C0000070C000009F
S11301906EC000006CC000006AC0000068C00000AF
S11301A066C0000064C0000062C0000060C00000BF
S11301B05EC000005CC000005AC0000058C00000CF
S11301C056C0000054C0000052C0000050C00000DF
S11301D04EC000004CC000004AC0000048C00000EF
S11301E046C0000044C0000042C0000040C00000FF
S11301F03EC000000C94C0100C947611D40CC20CB8
S1130200C50CC80CCB0CCE0CD10C771872187C180A
S1130210A118A118A118A11881188918A118A1184A
S11302209018941898189D186364696E6F707375AC
S113023078585B0011241FBECFEFCDBFDFE2DEBFD5
S113024016E2A0E0B0E2ECEBF7E502C005900D92F7
S1130250A832B107D9F729E2A8E2B6E201C01D929B
S1130260A138B207E1F70E94A3230C94DC2BC8CE7B
S1130270CF93DF93EC01C03C28E0D20729F468E077
S113028083E00E94AD1207C0803C994021F468E0ED
S113029084E00E94AD12888180618883DF91CF91D0
S11302A00895FF920F931F93CF93DF93EC01F42EE5
S11302B0B901A80100E01CE62CED32E056D78823F2
S11302C04CF088819F2D990F990F9C70837FF92E94
S11302D0F82AF882DF91CF911F910F91FF90089532
S11302E0FC01DB01460F571F05C08D91838382817A
S11302F08823ECF7A417B507C1F780E00895FC0143
S1130300DB014115510561F0460F571F9FEF9383A1
S113031082818823ECF783818D93A417B507B9F7FD
S113032080E00895FB018081E82FE695E695E69547
S113033040E2E49FF0011124FA5F877021E030E08D
S1130340A90102C0440F551F8A95E2F74683089518
S1130350FB018081E82FE695E695E69540E2E49F6F
S1130360F0011124FA5F877021E030E0A90102C096
S1130370440F551F8A95E2F74583089510923E274E
S113038010924A2710924B2781EA8093402780E2FB
S113039080934127109242271092432710924427BA
S11303A01092452782E090E0809346279093472758
S11303B0109248271092492780E092ECA1E0B0E027
S11303C080934C2790934D27A0934E27B0934F27AB
S11303D0109250271092512788E0809352278091E1
S11303E03E278F5F80933E2781E0089580913E27CA
S11303F0815080933E27089580913D2781508093BA
S11304003D2780913D2710923C27089580E0089570
S113041080E00895809140298823DCF4807680323E
S1130420E9F5809141298132D9F58091462990914D
S113043047290797B9F58CE497E28093482990936C
S1130440492987E090E080934A2990934B2981E0E1
S113045008958076803241F580914129803221F0DF
S1130460823221F581E008958091462990914729AF
S11304700797F1F48AE592E080934C2990934D29F3
S11304808CE497E2809348299093492987E090E08F
S113049080934A2990934B2981E0089580E0089540
S11304A080E0089580E0089580E0089580E0089554
S11304B080E008950895FF920F931F93CF93DF93E5
S11304C080912B2681119CC00E94020F882351F039
S11304D0C0912C26D0912D260E940F0FC817D90742
S11304E059F48EC0C0912C26D0912D260E940A0F5B
S11304F0C817D90709F484C0DFB7F894C0912E2631
S1130500EC2FF0E0EE0FFF1FE15DF94D808191814A
S1130510892B09F5809128269091292601968093AC
S11305202826909329260E94020F811107C08091EA
S11305302826909129268436910558F00E94020FAE
S1130540882349F08091282690912926803293406F
S113055010F4DFBF55C010922826109229268091EE
S11305602A26811106C081E0C11180E080932E26E5
S113057004C081E0C11180E0C82F81E080932B2664
S1130580DFBFD0E0FE01EE0FFF1FE15DF94DFF2458
S1130590F394808191818034910509F4F12CFF203A
S11305A091F00E94020F882339F00E940F0F80936C
S11305B02C2690932D260BC00E940A0F80932C2684
S11305C090932D2604C010922C2610922D26FE0105
S11305D0EE0FFF1FE15DF94D20813181AE01002452
S11305E0569547950794569547950794542F402D53
S11305F04C5C594D06E013E06F2D81E80E94C10F59
S1130600DF91CF911F910F91FF900895811115C033
S113061020912E2681E090E0222311F080E090E0EA
S1130620FC01EE0FFF1FE15DF94D10821182109263
S11306302A2610922B2680E03ECF089580E03BCFFF
S113064008954FB7F8942091B5263091B626E091DD
S1130650B726F0E0EE0FFF1FE854F94D8081918139
S1130660821B930B4FBF0895ECDF21E0892B09F423
S113067020E0822F08950F931F93CF93DF934FB7FA
S1130680F8945091B7268091B426811110C020911E
S1130690B5263091B626C52FD0E0FE01EE0FFF1F20
S11306A0E854F94D808191812817390718F44FBF18
S11306B080E023C01092B5261092B62681E0511135
S11306C080E08093B72681E08093B4264FBF80E01A
S11306D0CBDFAE0100245695479507945695479570
S11306E00794542F402D4454594D04EB13E020E457
S11306F030E061E082E00E94C10FDF91CF911F9151
S11307000F91089510923D2710922B2610922A26BD
S113071010922E2610922F261092302610923126F7
S11307201092322610922C2610922D2680E0C3DEE1
S11307301092B4261092B7261092B8261092B926B9
S11307401092B5261092B62680E095DF882359F0E2
S113075090913D279F5F90933D2790913D27913045
S113076011F490933C2708950F931F93942F8111B4
S113077029C08091B726E1E08111E0E0611571059F
S1130780B1F4F0E00024F695E7950794F695E79523
S11307900794FE2FE02DAF014454594D04EB13E0B0
S11307A020E430E061E0892F0E94C10F0BC0F0E02B
S11307B0EE0FFF1FE854F94D608371831092B42645
S11307C080E059DF1F910F91089580E04DCF089587
S11307D01F93CF93DF9311E080915227893009F062
S11307E010E060E070E03FB7F8948091B5269091F6
S11307F0B6262091B7263FBF30E0F901EE0FFF1F68
S1130800E854F94D408151818417950730F0809167
S11308103C278111E8CF90E020C0F9010024F6952F
S1130820E7950794F695E7950794FE2FE02DE80FDA
S1130830F91FE454F94D2081EB01C22B01968093FA
S1130840B5269093B62680E016DF112321F07C2F85
S1130850662710E0C8CF8C2F9D2FDF91CF911F9179
S1130860089580E0B5CF08959FB7F89480912E261F
S1130870E82FF0E0EE0FFF1FE15DF94D208131819B
S11308802034310589F440912B2641110DC040914B
S11308902A26411109C021E020932A26811120E053
S11308A020932E2620E030E09FBF80E490E0821B5E
S11308B0930B0895D9DF21E0892B09F420E0822FDE
S11308C008951F93CF93DF93162FC72FD1E0809104
S11308D05227893009F0D0E080E0ECDF811107C0B5
S11308E080913C278111F8CF80E090E02BC06FB756
S11308F0F89420912E2630E0F901EE0FFF1FE15D00
S1130900F94D80819181AC014F5F5F4F40835183EA
S1130910F9010024F695E7950794F695E795079471
S1130920FE2FE02D8E0F9F1FFC01EC5CF94D108310
S11309306FBFDD2329F01C2FCC0FCC0BD0E0CCCF24
S113094081E090E0DF91CF911F910895BC0180E098
S1130950B8CF0895E0915827F09159270190F0817C
S1130960E02D228133812E0F3F1FFC014081E40FD3
S1130970F11DE217F307A0F481818430A1F08613FE
S113098006C014C081818430A1F08617A9F080814B
S1130990E80FF11DE217F307A8F380E090E0089553
S11309A080E090E0089580E090E008958E2F9F2FDE
S11309B0089580E090E008958E2F9F2F08958091F0
S11309C042298F770C94040F089590915A27992304
S11309D081F1E0915827F09159270190F081E02DA1
S11309E09481891740F5E0935627F0935727228185
S11309F033812E0F3F1FE217F307F8F491819430EF
S1130A0061F49281981309C09381961306C0E09310
S1130A105627F093572781E008959081E90FF11D3F
S1130A20E217F30758F3E0935627F093572780E033
S1130A30089580E0089580E0089580E00895FF928D
S1130A400F931F93CF93DF93C82F60E0BEDFF82E80
S1130A50882381F1A0915827B0915927EC2FF0E019
S1130A60EE0FFF1F12962D913C911397E20FF31F87
S1130A7000811181D8011696ED91FC911797099583
S1130A80682F8C2FA2DFF82E8823A1F0C09156275F
S1130A90D091572765E0CE015DDFEC01009721F08E
S1130AA08A810E948210F6CFD8011296ED91FC91B2
S1130AB0139709958F2DDF91CF911F910F91FF907F
S1130AC008951F93CF93DF93182F7FDF882341F17D
S1130AD0C0915627D091572765E0CE013BDFEC014A
S1130AE0009749F04C815D816B818A810E941B0FC4
S1130AF08111F2CF15C0A0915827B0915927812FA9
S1130B0090E0880F991F1296ED91FC911397E80FCE
S1130B10F91F0190F081E02D0190F081E02D0995FD
S1130B20DF91CF911F9108950C94980E0895CF935F
S1130B3080915A278823C1F0E0915827F0915927D2
S1130B400190F081E02D8481882371F0C0E08C2F26
S1130B5076DFCF5FE0915827F09159270190F0811B
S1130B60E02D8481C81798F310925A2781E090E011
S1130B7080935E2790935F27CF910895CF938091C0
S1130B805A27882341F1E0915827F0915927A081F1
S1130B90B18114968C918823F1F0C0E08C2F90E001
S1130BA0880F991F0280F381E02DE80FF91F01904F
S1130BB0F081E02D0084F185E02D309709F009954E
S1130BC0CF5FE0915827F0915927A081B181149605
S1130BD08C91C81718F3CF910895EF92FF920F9359
S1130BE01F93CF93DF9310924A2910924B291092AE
S1130BF04C2910924D2910924E2910924F29209180
S1130C00402922230CF097C28091462990914729CC
S1130C10009709F095C28BC22F7109F0B9C03091C9
S1130C204129363089F0383009F4A6C03111B0C0FA
S1130C30029741F462E070E08EE597E20E94120FA1
S1130C4001E0F8C100E0F6C1209142293091432926
S1130C50832F992782309105A1F01CF4019739F074
S1130C6081C083309105F1F10F9769F17BC08091C8
S1130C70342090913520DC016C9170E00E94120FB9
S1130C8060C0E0913420F09135208189281708F064
S1130C906BC0C9019927880F991F880F991FE0918C
S1130CA03620F0913720E80FF91F80819181FC01F3
S1130CB0628173810E94120FE0914829F0914929C1
S1130CC082E081833EC08091382090913920009742
S1130CD009F44CC0DC0112966D917C9113970E942B
S1130CE0120F2FC033272130310589F048F022300C
S1130CF0310509F42AC22330310509F42AC238C067
S1130D0064E070E080E390E20E94120F1AC089E26E
S1130D1090E225E0382FA6E1B0E2E82FF92F819187
S1130D2090E08D939D938E2F831B8217C0F3220F27
S1130D3062E0620F6093142070E084E190E20E940C
S1130D40120F809146299091472920914A29309188
S1130D504B298217930770F480934A2990934B2967
S1130D6001E068C100E066C100E064C100E062C166
S1130D7000E060C101E05EC1019741F461E070E010
S1130D808AE597E20E94120F01E054C100E052C1CB
S1130D90213009F040C0309141293A30E1F5019702
S1130DA0A1F580915A27882391F1C0914429D091CB
S1130DB04529E0905827F0905927D701ED91FC91EF
S1130DC08481C81730F560E08C2FFFDD082F88235D
S1130DD009F430C1CE019927880F991FD7011296C3
S1130DE0ED91FC911397E80FF91F0190F081E02D2C
S1130DF00680F781E02D099580935C2761E070E01F
S1130E008CE597E20E94120F15C100E013C100E0C7
S1130E1011C100E00FC1223009F00EC12091412917
S1130E20211103C1029781F4809144290E947C0F0F
S1130E3090E0809354279093552762E070E084E516
S1130E4097E2F0D701E0F6C000E0F4C02F7109F09A
S1130E5090C080914129833009F4E9C018F48130AD
S1130E60B1F087C0853019F0893061F182C080917A
S1130E70462990914729892B41F48FED94E0809382
S1130E804C2990934D2901E0D5C000E0D3C0809156
S1130E90462990914729892B89F480914229909180
S1130EA04329019769F480915E2790915F278D7F94
S1130EB080935E2790935F2701E0BCC000E0BAC036
S1130EC000E0B8C08091462990914729892B09F008
S1130ED046C09DD7882309F444C02091422930910B
S1130EE043293327E0913420F0913520818990E023
S1130EF082179307C0F11BDE809142299091432908
S1130F0080935A27882389F199278150904C880F20
S1130F10991F880F991FE0913620F0913720E80F30
S1130F20F91FE0935827F09359270190F081E02DA1
S1130F3084818823E1F0C0E060E08C2FC2DD082FBB
S1130F40882309F477C0CF5FE0915827F09159279F
S1130F500190F081E02D8481C81770F36BC000E02C
S1130F6069C000E067C000E065C001E063C001E063
S1130F7061C0213009F5809141298B30E9F48091D9
S1130F80462990914729892B99F480915A278823DF
S1130F9089F0C0914429D09142298C2F50DD082F2B
S1130FA0882309F447C06D2F8C2F8BDD082F42C096
S1130FB000E040C000E03EC0223009F03DC0809116
S1130FC04129813019F08330B1F033C08091462932
S1130FD090914729892B59F4809142299091432972
S1130FE0892B39F480914429A2D7082F23C000E02B
S1130FF021C000E01FC08091462990914729892B88
S113100081F48091422990914329892B61F4C4E4AD
S1131010D9E288810E94491088810E949F10082F7C
S113102009C000E007C000E005C000E003C000E024
S113103001C000E0011191C0809140298F7181307D
S1131040C1F580915A278823A1F1C0914429D091F8
S113105045290091582710915927D801ED91FC9109
S11310608481C81730F560E08C2FAFDC882309F148
S1131070CE019927880F991FD8011296ED91FC9102
S11310801397E80FF91F00811181D8011696ED918D
S1131090FC9117970995682F8C2F97DC882349F0CA
S11310A0D8011496ED91FC9115970995082F81119B
S11310B054C0809140298F718230D9F580915A278C
S11310C0882389F1E0915827F0915927A081B181B3
S11310D014968C91882349F110E0212F30E0220FDF
S11310E0331F0280F381E02DE20FF31FC081D18111
S11310F0EE81FF810995682F812F67DC082F8823F3
S113110061F1EC81FD810995082F811126C01F5FD3
S1131110E0915827F0915927A081B18114968C91C0
S11311201817D8F21AC000E018C000E016C000E09A
S113113014C000E012C0822F807609F07DCF86CEE5
S1131140322F307609F078CF67CD26E082E290E244
S1131150E1CD24E089EE90E2DDCD802FDF91CF91C7
S11311601F910F91FF90EF900895CF92DF92EF922D
S1131170FF920F931F93CF93DF93EC016A017B01DE
S1131180DB01CA010197A109B109BC01CD01600FBE
S1131190711F821F931FA70196010E9456252138B3
S11311A0310541055105F8F4213460F4213260F42D
S11311B0213160F4293060F4253060F4233060F08C
S11311C090E00BC093E009C092E007C092E805C02C
S11311D091E003C091E801C090E888818C77892B65
S11311E0888381E001C08FEFDF91CF911F910F9130
S11311F0FF90EF90DF90CF900895CF93DF93E0912D
S11312006027F0916127848183FF08C0886084830C
S113121083E0838386EF80936A2789C0982F947133
S113122031F083E083838FEF80936A2780C086FF49
S113123045C0A0916227B091632780916427909163
S1131240652714962D913C911597821793076CF49A
S11312509C012F5F3F4F2093642730936527A80F8D
S1131260B91F11968C91878362C0809166279091F3
S1131270672718962D913C91199782179307C8F404
S113128020916827222321F08681816086834FC0C4
S113129016962D913C911797AC014F5F5F4F409389
S11312A0662750936727D901A80FB91F8C918783AC
S11312B03EC083E0838310926A2739C08823A4F553
S11312C0A0916227B0916327809166279091672748
S11312D018962D913C91199782179307F8F4169656
S11312E04D915C9117979C012F5F3F4F2093662788
S11312F0309367276781EA01C80FD91F688318965E
S11313008D919C9119972817390718F482E08383EB
S11313100EC087E0838310926A2709C083E0838329
S113132089EF80936A2703C08BEF80936A27DF914C
S1131330CF9108951F920F920FB60F9211242F93FD
S11313403F934F935F936F937F938F939F93AF9349
S1131350BF93EF93FF9351DFFF91EF91BF91AF9153
S11313609F918F917F916F915F914F913F912F91B9
S11313700F900FBE0F901F9018951F920F920FB6EB
S11313800F9211242F933F934F935F936F937F9307
S11313908F939F93AF93BF93EF93FF932EDFFF91B0
S11313A0EF91BF91AF919F918F917F916F915F91D9
S11313B04F913F912F910F900FBE0F901F90189552
S11313C04F925F926F927F928F929F92AF92BF9251
S11313D0CF92DF92EF92FF920F931F93CF93DF93FD
S11313E0EC014A015B0128013901D901C801689463
S11313F012F8B695A795979587951694D1F7B901E4
S1131400A801032E36E176956795579547953A9549
S1131410D1F7302D2C8122FD08C0B695A79597955C
S11314208795769567955795479588159905AA05E3
S1131430BB0508F4A6C084169506A606B70608F4EC
S1131440A2C08C8182FD04C0880C991CAA1CBB1C00
S1131450C301B201A50194010E9456252F3F310515
S11314604105510508F491C0C12CD12C7601CA94D0
S113147019EF05C02C153D054E055F0568F0CC0C31
S1131480DD1CEE1CFF1C1D3F14F46894C0F81F5FA4
S1131490173081F7212F50C0212F11230CF04CC09D
S11314A0D501C401880F991FAA1FBB1F880F991F5C
S11314B0AA1FBB1F880F991FAA1FBB1F481A590ACE
S11314C06A0A7B0A1E3FF4F46DEF7FEF611B71091A
S11314D017FD739504C0440C551C661C771C6A9553
S11314E0D2F7D501C401B695A79597958795BC0108
S11314F0CD01640D751D861D971DA50194010E94E3
S1131500562536C023E0210FD501C40104C0880F3D
S1131510991FAA1FBB1F2A95D2F79C01AD01B6954E
S1131520A79597958795BC01CD01640D751D861D02
S1131530971D0E9456251CC02D5FD501C40104C00F
S1131540880F991FAA1FBB1F2A95D2F79C01AD01D2
S1131550B695A79597958795BC01CD01640D751D2A
S1131560861D971D0E9456252150310941095109B4
S1131570832F8F701295107F182B1F832E8381E089
S113158018C080E016C080E014C0D501C401880FE3
S1131590991FAA1FBB1F880F991FAA1FBB1F880F63
S11315A0991FAA1FBB1F481A590A6A0A7B0A19EF16
S11315B08BCFDF91CF911F910F91FF90EF90DF9030
S11315C0CF90BF90AF909F908F907F906F905F90DF
S11315D04F9008950F931F93CF93DF93EC018B01EA
S11315E0009709F4BEC0803C910521F460E180E0DD
S11315F0B4D7B7C0C11584E0D80721F464E080E013
S1131600ACD7AFC0C038E1E0DE0721F462E080E08F
S1131610A4D7A7C0C115F1E0DF0721F461E080E0A1
S11316209CD79FC0C03883E0D80721F461E081E0F3
S113163094D797C0C115E2E0DE0721F462E081E0AF
S11316408CD78FC0C032F3E0DF0721F464E082E07E
S113165084D787C0C11588E0D80721F461E083E00E
S11316607CD77FC0C115E9E0DE0721F461E084E0A6
S113167074D777C0C115FAE0DF0721F461E085E093
S11316806CD76FC0C03488E0D80721F462E083E0EF
S113169064D767C0C034E9E0DE0721F462E084E087
S11316A05CD75FC0C039F8E0DF0721F464E083E071
S11316B054D757C0C03989E0D80721F464E084E0E6
S11316C04CD74FC0C039EAE0DE0721F464E085E07E
S11316D044D747C0C03CF8E0DF0721F468E083E06A
S11316E03CD73FC0C03C89E0D80721F468E084E0DF
S11316F034D737C0C03AE8E0DE0721F460E183E084
S11317002CD72FC0C03AF9E0DF0721F460E184E070
S113171024D727C0C03A8AE0D80721F460E185E0E5
S11317201CD71FC0C03BE8E0DE0721F460E283E081
S113173014D717C0C03BF9E0DF0721F460E284E06E
S11317400CD70FC0C03884E0D80721F460E483E0EC
S113175004D707C0C03AE4E0DE0719F460E485E08A
S1131760FCD68D818F738D83F80194818581892BBB
S11317709681992311F098E001C090E0892B8D8324
S1131780F801408151816281738100E01CE62CEDF7
S113179032E0CE0115DE9C8198609C839C8190612F
S11317A09C83DF91CF911F910F910895811118C0EF
S11317B090919828992389F09FB7F894E1E5F9E28C
S11317C02081215020839FBF08C09FB7F894E1E592
S11317D0F9E220812F5F20839FBF8093982808958A
S11317E090919828992389F3F8CF0F93E8ECF4E0CB
S11317F080818F7D808380818F7D8083ECE6F8E219
S113180002E0059310926E2810926F2800E206936E
S113181000E40693E4E6F8E200E2069300E40693AB
S113182010924C2910924D2910924E2910924F2952
S113183010924A2910924B29109254280F9108951E
S11318400F9385E080935428EDE6F8E204E00593D5
S1131850E5E6F8E204E005930F9108950F9383E021
S11318608093542810926E2810926F28ECE6F8E2C8
S113187002E006930F910895E0914C29F0914D29CF
S1131880309709F0099508950F93CF93DF938091D2
S11318905428833019F4F0DFA8DF60C08091502809
S11318A090915128C0914A29D0914B29C81BD90B3A
S11318B071F52091522830915328820F931F809301
S11318C05228909353282091462930914729821712
S11318D0930721F080916B27882341F084E0809363
S11318E05428E4E6F8E202E0069338C0E0914E2979
S11318F0F0914F29309799F00995882381F010923F
S1131900502810925128C0914A29D0914B29C034B3
S1131910D10528F010926B27C0E4D0E003C081E029
S113192080936B27C0936E28D0936F2880915028A2
S1131930909151282091482930914929280F391F25
S11319402093702830937128C80FD91FC093502852
S1131950D0935128ECE6F8E202E00693DF91CF91B0
S11319600F910895FC018181877090E0FC0131970B
S1131970E730F10520F4E250FF4F0C94782588E01D
S113198090E0089580E290E0089580E490E0089566
S113199080E890E0089580E091E0089580E092E08E
S11319A008958FEF93E0089580E190E00895282F43
S11319B02F7030E0220F331F992787FD90958827D9
S11319C0990F881F9927820F931F02979C01220F5A
S11319D0331F220F331F220F331F820F931F845193
S11319E0984D08950F93CF938091CC0480FF62C0EB
S11319F081E08093CC04E4E6F8E200E80693ECE6A8
S1131A00F8E200E806938093CA04E4E6F8E200E111
S1131A10069380915428882329F08350823008F457
S1131A202BDFE3DE8091662890916728089709F000
S1131A3043C088E0E0E1F8E2A0E4B9E201900D924D
S1131A408A95E1F7E8ECF4E080818062808380810C
S1131A5080628083C2D8C82F811103C0F1DEC1E047
S1131A602CC08091402988236CF410925228109243
S1131A705328109250281092512882E080935428C1
S1131A8003DF1BC02091462930914729232B11F4F1
S1131A90E5DE13C010925228109253281092502859
S1131AA01092512881E080935428E4E6F8E202E0A1
S1131AB0069303C0C0E001C0C1E08C2FCF910F9109
S1131AC00895BF92CF92DF92EF92FF920F931F93EC
S1131AD0CF93DF93B82E6BDFEC011B2D111F112761
S1131AE0111F8B2D8F70E82EF12CEE0CFF1CE10ED4
S1131AF0F11CC701880F991F880F991F880F991F20
S1131B009C012C59374D7901C9012CDF6C0111233B
S1131B1009F45BC0D70116962D913C9117978D81DE
S1131B209E81280F391F2D833E838B819C8128172A
S1131B303907C9F1FC01E21BF30B9F012115F4E005
S1131B403F0740F02FEF33E0C901B6010E94422560
S1131B50281B390B888181FF0AC0C901B6010E9484
S1131B60422541E0892B09F040E0942F01C090E028
S1131B70888190FB81F98883D70116961D921C9267
S1131B80179712962D933C93139729813A818D814F
S1131B909E81820F931F14968D939C931597F70142
S1131BA002E0069398C0888181FF87C08D7F888377
S1131BB0D70116961D921C92179712961D921C928D
S1131BC01397F70102E0069386C0D70112960D9190
S1131BD01C911397888182FF15C0E981FA812D81B8
S1131BE03E818B819C81B6010E944225B0E4BB9E5C
S1131BF0B0011124645D784DAC01CF01820F931FB5
S1131C000E94DE252D813E81200F311F2D833E83CE
S1131C10EB81FC81E217F30710F4ED83FE83D70117
S1131C2016968D919C9117978017910709F045C0DE
S1131C308D819E81E817F90709F43FC0E81BF90B71
S1131C40E115B4E0FB0748F0EFEFF3E0CF01B60194
S1131C500E944225E81BF90B06C0CF01B6010E9481
S1131C604225E81BF90BD70112961D921C9213977B
S1131C70EC15FD0578F4888184608883B0E4BB9E0C
S1131C80C0011124845D984DF70184839583C68235
S1131C90D7820FC029813A818D819E81820F931F43
S1131CA0D70114968D939C9315971696ED93FC93F8
S1131CB01797F70102E006930EC0888180FF0BC0DE
S1131CC08E7F8883EF81F885309729F06D817E813E
S1131CD04B2D80E00995DF91CF911F910F91FF90DB
S1131CE0EF90DF90CF90BF900895CF93CFB7F89443
S1131CF081E05CDDEAECF4E080E4808380E28083D0
S1131D00E1ECF4E0808181608083A9ECB4E08C9103
S1131D1082608C93E8ECF4E08081806480838C9111
S1131D2081608C93808180688083CFBFCF91089538
S1131D30CF9380E31ED4E0ECF4E080818064808360
S1131D40CFB7F8941092652810926D2810927528D8
S1131D5010927D281092852810928D28ECEEF7E2DF
S1131D6080818E7F8083E5EFF7E280818E7F8083A0
S1131D70EEEFF7E280818E7F8083E7E0F8E28081F6
S1131D808E7F80836AE170E082E0ECD48F3F19F0AB
S1131D908093FA0403C08FE18093FA046BE170E04E
S1131DA082E0E0D48F3F19F08093FB0403C08FE1FD
S1131DB08093FB04E0ECF4E0808182608083808186
S1131DC08068808380818061808384E698E2868352
S1131DD097838081806280838FEF8093C504E8ECD1
S1131DE0F4E0808181608083109298288FB7F89402
S1131DF0E5E5F9E290819F5F90838FBF76DFCFBFE7
S1131E00CF91089580E008958093C304089580914C
S1131E10C30408958091942890919528089580E0B2
S1131E2090E00895809348299093492960934A2922
S1131E3070934B290895E82FEF70F0E0EE0FFF1F29
S1131E40992787FD90958827990F881F9927E80F70
S1131E50F91FEE0FFF1FEE0FFF1FEE0FFF1FEC59D0
S1131E60F74D8181807C09F043C06370613029F0B3
S1131E7010F480E403C080E801C080EC40385105D0
S1131E80E1F050F440325105A1F04034510599F08D
S1131E904031510561F419C0411592E0590789F0A8
S1131EA04F3F93E0590779F04115514041F020E04C
S1131EB00DC022E00BC023E009C024E007C025E0E8
S1131EC005C026E003C027E001C021E0118296E0AE
S1131ED09083822B81838181807C803C21F4818169
S1131EE08770873039F081818062818381E0089531
S1131EF080E0089581E00895E82FEF70F0E0EE0FA0
S1131F00FF1F992787FD90958827990F881F992788
S1131F10E80FF91FEE0FFF1FEE0FFF1FEE0FFF1F5D
S1131F20EC59F74D818182FB882780F90895E82FC9
S1131F30EF70F0E0EE0FFF1F282F332727FD3095B9
S1131F402227330F221F3327E20FF31FEE0FFF1F49
S1131F50EE0FFF1FEE0FFF1FEC59F74D918192FF1B
S1131F600EC091819B7F918322DDFC01808180FFE3
S1131F7006C08E7F80830780F085E02D099581E07F
S1131F8008957F928F929F92AF92BF92CF92DF92E9
S1131F90EF92FF920F931F93CF93DF93982E862E89
S1131FA05A01690104DD7C01792C771C7724771CA4
S1131FB0C92DCF70D0E0CC0FDD1FC70DD11DCC0FC4
S1131FC0DD1FCC0FDD1FCC0FDD1FCC59D74D898110
S1131FD0807C09F44CC08981807C803C19F0898123
S1131FE082FD47C08FB7F894F701908190FF03C03A
S1131FF08FBF712C3FC0F7019081916090838FBF98
S1132000F701A182B282C382D48215821682078329
S11320101087811006C091E0C114D10419F090E03A
S113202001C091E0F701808190FB81F98B7F80836F
S1132030772019F01E821F8215C08981807C803C24
S113204069F4CE018FDCBC01C6010E944225892BB4
S113205029F0F70180818E7F80830CC01A821B8255
S11320601E821F82892D2DDD7724739403C0712C69
S113207001C0712C872DDF91CF911F910F91FF909B
S1132080EF90DF90CF90BF90AF909F908F907F9014
S11320900895FF920F931F93CF93DF93182FF82E79
S11320A0FF1CFF24FF1CC82FCF70D0E0CC0FDD1F16
S11320B0CF0DD11DCC0FDD1FCC0FDD1FCC0FDD1FCD
S11320C0CC59D74D74DCDC01FE0102E005938C9100
S11320D080FF12C08E7F8C931796ED91FC91189718
S11320E0309751F0FF2019F06E817F8102C06A8120
S11320F07B81412F81E00995DF91CF911F910F9151
S1132100FF900895CF93C82FC4DFEC2FEF70F0E059
S1132110EE0FFF1F8C2F992787FD90958827990F25
S1132120881F9927E80FF91FEE0FFF1FEE0FFF1FFF
S1132130EE0FFF1FEC59F74D1182CF9108950F93C5
S1132140E82FEF70F0E0EE0FFF1F282F332727FD55
S113215030952227330F221F3327E20FF31FEE0F90
S1132160FF1FEE0FFF1FEE0FFF1FEC59F74D91817C
S11321709460918301E006938CDF81E00F910895D0
S11321801F920F920FB60F9211240F932F933F9328
S11321904F935F936F937F938F939F93AF93BF936B
S11321A0EF93FF938091CB04882334F480E88093E9
S11321B0CA040E94BE0588C08091CB0482FF20C05F
S11321C084E08093CA0480916C2886FF7DC080914E
S11321D0CC0481FD79C006DC811176C0809154283D
S11321E0813011F43BDB70C0843009F06DC0EDE642
S11321F0F8E204E00593E5E6F8E204E0059364C040
S11322008091CB0481FF5BC082E08093CA048091FB
S1132210642886FF59C08091CC0481FD55C0E2DB5F
S1132220811152C080915428823041F484E080931B
S11322305428E4E6F8E202E0069346C0833009F04D
S113224043C0EDE6F8E204E00593E5E6F8E204E0D5
S113225005933AC080E18093CA0481E01ADF81E8E3
S113226018DF0E9497051092C304E5E6F8E2108295
S113227096E09093642883E48083EDE6F8E210828C
S113228090936C28808380E198E2809368289093EF
S11322906928ABDA19C08091CB0486FF06C080E4BC
S11322A08093CA0480E082DA0FC08091CB0485FF5A
S11322B00BC080E28093CA0481E078DA05C0809183
S11322C0CB0484FFE8CFC6CFFF91EF91BF91AF91CC
S11322D09F918F917F916F915F914F913F912F913A
S11322E00F910F900FBE0F901F9018951F920F9291
S11322F00FB60F9211240F931F932F933F934F9375
S11323005F936F937F938F939F93AF93BF93CF9379
S1132310DF93EF93FF938091CC0481FD03C062DBD4
S11323208111B9C082E08093CC048091C504819569
S1132330880FE4E6F8E2E81BF10920813181245694
S11323403842369527953695279536952795822FC9
S1132350869520FF02C090E801C090E0890FE82F25
S1132360EF70F0E0EE0FFF1F282F332727FD309585
S11323702227330F221F3327E20FF31FEE0FFF1F15
S1132380EE0FFF1FEE0FFF1FEC59F74D908195FFE5
S113239082C000E20693811179C080915428843070
S11323A019F46ADA22DA77C0C0916628D0916728D6
S11323B080914A2990914B290091502810915128DD
S11323C098012C0F3D1F8217930718F4EC01C01BD2
S11323D0D10B8091482990914929AE0160E178E2BE
S11323E0800F911F0E94DE250C0F1D1F00935028A3
S11323F010935128C034D10569F4809152289091EA
S11324005328800F911F2091462930914729821724
S1132410930788F000934A2910934B29E0914E29A1
S1132420F0914F29309729F00995811102C008DAFB
S113243032C014DA30C080914A2990914B29081790
S11324401907F9F4E0914E29F0914F29309711F4CE
S1132450F7D921C00995811102C0F2D91CC020917D
S11324605228309153288091502890915128820FFE
S1132470931F8093522890935328109250281092BF
S11324805128E4E6F8E202E0069305C0803811F42E
S1132490FBD901C016DBFF91EF91DF91CF91BF9182
S11324A0AF919F918F917F916F915F914F913F91E8
S11324B02F911F910F910F900FBE0F901F901895A1
S11324C0CF93DF9300D000D0CDB7DEB78FEF8093EA
S11324D070008093710080937200809373008093E6
S11324E0740080937500809376006CE170E082E064
S11324F039D18A836DE170E082E034D189838981A6
S11325009A81019621F480E493E289839A838981F4
S11325109A818B839C83E0E6F0E082838C818383C1
S11325208FB7F894E0E5F0E09081926090838FBFDC
S1132530818181FFFDCF61E080E490E01DD18FB700
S1132540F894E0E5F0E090819E7F90838FBF24961D
S1132550CDBFDEBFDF91CF9108959FB7F894E82FE8
S1132560F0E0E059FF4F60958081682360839FBF4E
S11325700895863011F468E101C060E0E0E5F0E020
S1132580818181FD09C08FB7F89490819260908316
S11325908FBF818181FFFDCF636084E490E0ECD044
S11325A060E480E0DACF0895CF93DF939B01E0EC01
S11325B0F1E067856623ECF3CCECD1E068816860D8
S11325C06883BC01705FC9010E94DE258881877F12
S11325D08883DF91CF910895E0ECF1E0878588232B
S11325E0ECF3E0ECF1E0878581FF06C086E38287A7
S11325F061E08BEC91E0C0C00895E0ECF1E09785D8
S11326009923ECF3ECECF1E0908198609083A82F8F
S1132610B0E0B05F6C938081877F80830895FF92E0
S11326200F931F93CF93DF93182FF92EC62FE0EC4F
S1132630F1E00285D1DFE0ECF1E027852223ECF321
S11326406C2F812FDADFC0ECD1E01A82F982188373
S113265085E38A8761E08BEC91E08ED00A87DF9175
S1132660CF911F910F91FF900895EF92FF920F93D6
S11326701F93CF93DF938C01E0ECF1E087858823EF
S1132680ECF3780180E2E80EF11CE8018C2F801B4A
S11326906991B3DFCE15DF05C9F7DF91CF911F91A3
S11326A00F91FF90EF9008951F93CF93DF93E0EC89
S11326B0F1E097859923ECF320E2829FC001112475
S11326C0C0ECD1E01A82998388831A8585E38A87CE
S11326D061E08BEC91E050D01A87DF91CF911F918C
S11326E00895CF92DF92EF92FF920F931F93CF93AF
S11326F0DF93EC017B018A014115510551F1CE01B3
S11327008F719927892BB1F40032110598F0C70114
S1132710ACDFCE0196958795929582958F70892727
S11327209F708927C1DFA09680E2E80EF11C005259
S113273011090CC06E01EFEFCE1ADE0AF7016191A8
S11327407F01CE016CDF01501109E601011511056D
S1132750B1F6DF91CF911F910F91FF90EF90DF9031
S1132760CF9008954091CA01E62FF72F8093CA01B4
S113277084914093CA0108951BBEFC0128ED24BF37
S113278060830895E0919820F0919920608171818F
S11327908281938108950F931F93CF93DF9300D089
S11327A01F92CDB7DEB76115710529F4806889835E
S11327B081E090E014C0806C89836038710520F456
S11327C06A8382E090E00BC0862F80688A83660F5C
S11327D0672F661F770B71956B8383E090E0BE01D2
S11327E06F5F7F4F0E94E11E2396CDBFDEBFDF9156
S11327F0CF911F910F9108950F931F93FA019A019E
S1132800280F391F2130344068F49C0122503109CB
S113281040E050E08B01BF0189E090E0BCDF80E044
S113282090E002C08FEF9FEF1F910F9108950F93D7
S11328301F93CF93DF9300D01F92CDB7DEB76115FE
S1132840710521F4898381E090E014C08064898358
S11328506038710520F46A8382E090E00BC0862F13
S113286080688A83660F672F661F770B71956B8369
S113287083E090E0BE016F5F7F4F0E941C1F239690
S1132880CDBFDEBFDF91CF911F910F9108950F93BC
S11328901F939B01BA0140E050E08C0181E190E07C
S11328A0C6DF1F910F910895EF92FF920F931F932C
S11328B0CF93DF9300D000D0CDB7DEB79E012F5F5A
S11328C03F4F890124E030E040E050E0B0DFFE01FA
S11328D0359660E070E0CB01B82FA72F962F88279C
S11328E02291BC01CD01620F711D811D911DE01764
S11328F0F10791F72496CDBFDEBFDF91CF911F91F1
S11329000F91FF90EF90089560E070E080E090E018
S1132910CBCF08950F931F93CF93DF9300D0CDB700
S1132920DEB78E010F5F1F4F22E030E040E050E041
S11329307EDF8A8190E0982F88272981820F911D5C
S11329400F900F90DF91CF911F910F9108950F93E6
S11329501F93CF93DF931F92CDB7DEB78E010F5F26
S11329601F4F21E030E040E050E061DF89810F90AB
S1132970DF91CF911F910F9108950F931F93CF93E0
S1132980DF931F92CDB7DEB749838E010F5F1F4FD0
S113299021E030E040E050E0FEDE0F90DF91CF9187
S11329A01F910F9108950F931F93CF93DF9300D03E
S11329B0CDB7DEB749835A838E010F5F1F4F22E0E4
S11329C030E040E050E0E7DE0F900F90DF91CF91D0
S11329D01F910F9108950F931F93CF93DF9300D00E
S11329E000D0CDB7DEB729833A834B835C838E0155
S11329F00F5F1F4F24E030E040E050E0CCDE24962F
S1132A00CDBFDEBFDF91CF911F910F910895CF927B
S1132A10DF92EF92FF920F931F938C01CA01AA27B2
S1132A2097FDA095BA2F072E7FE0880F991FAA1F44
S1132A30BB1F7A95D1F7702DE0919820F0919920E1
S1132A40C284D384E484F5848C299D29AE29BF29CA
S1132A5020E030E0802B912BA22BB32BAB0160E064
S1132A6070E0032E36E1440F551F661F771F3A9519
S1132A70D1F7302D9A01AB01282B392B4A2B5B2B34
S1132A8060E070E088E090E0A6DF1F910F91FF9076
S1132A90EF90DF90CF9008950F931F938C0128E05F
S1132AA030E040E050E060E070E081E090E0BFDEC4
S1132AB01F910F910895AB0164E070E08DE290E006
S1132AC072DF43E066E070E08DE290E056DF40E0C4
S1132AD066E070E08DE290E050DF6AE070E08DE245
S1132AE090E0E2CE089540E062E070E08CE290E095
S1132AF044DF42E062E070E08CE290E03ECF089573
S1132B00CF93DF93EC014DE666E078E08EE290E04F
S1132B1034DFCD2B41F047E056E066E078E18EE209
S1132B2090E041DF07C047E056E166E078E18EE2DD
S1132B3090E039DFDF91CF9108954F925F926F92C9
S1132B407F92AF92BF92CF92DF92EF92FF920F9358
S1132B501F93CF93DF93EC01488059806A807B8078
S1132B60842DEC89FD89EE0FFF1FE954FD4DC080D3
S1132B70D1800C810150843041F021E090E0873015
S1132B8009F020E0E22EF92E03C0EE24E394F12CA8
S1132B908C8D9D8DAE8DBF8D892B8A2B8B2BA1F4B3
S1132BA0E0919820F091992080899189A289B38934
S1132BB0A064808B918BA28BB38BD694C794D6944C
S1132BC0C794D694C7940DC0E0919820F0919920B1
S1132BD080899189A289B389AF7B808B918BA28BE9
S1132BE0B38BE0919820F091992088A18087808907
S1132BF09189A289B389AC7F808B918BA28BB38B93
S1132C0048A159A16AA17BA1BA01552744274427A9
S1132C105527637077279A01AB01282B392B4A2B50
S1132C205B2B208B318B428B538B60E070E084E014
S1132C3090E0D1DEA60164E078E28EE290E0B3DEBB
S1132C4010E0C8015DDFE42DF0E0E45AFC4DA08003
S1132C50B12C6501CC0CDD1CCC0CDD1CF601E45D53
S1132C60FC4D208131814281538167E070E08BE229
S1132C7090E0B1DEF501EA5DFC4D40816BE070E06F
S1132C808BE290E07ADEF701FF27EC5DFC4D40819A
S1132C906BE070E088E290E070DEF601EC5BFC4DE6
S1132CA020813181428153816CE070E088E290E0C0
S1132CB092DEEC8DFD8DEE0FFF1F888D998DE80F50
S1132CC0F91FEE0FFF1FE35FFC4D4081518162E06D
S1132CD070E087E290E067DEF801EE0FFF1FE75F28
S1132CE0FC4D4081518164E070E087E290E05BDE5E
S1132CF08C8D9D8DAE8DBF8D892B8A2B8B2B41F4B2
S1132D0044E650E066E070E087E290E04CDE23C0E9
S1132D1088859985AA85BB850497A105B10571F4B9
S1132D2040E150E066E070E087E290E03CDE40E1A4
S1132D3066E270E087E290E020DE0DC040E250E001
S1132D4066E070E087E290E02EDE48E266E270E042
S1132D5087E290E012DE8C859D85F801EE0FFF1F5F
S1132D60EE0FFF1FE80FF91FEE0FFF1FEE0FFF1FFF
S1132D70E751FD4D208131814281538168E070E04B
S1132D8087E290E028DE8CA19DA1AEA1BFA1892B92
S1132D908A2B8B2B41F481E490E1A0E0B0E08CA37A
S1132DA09DA3AEA3BFA34CA15DA160E270E087E246
S1132DB090E0F9DD20911C2330911D2340911E23C6
S1132DC050911F236CE070E083E290E004DEF80190
S1132DD0EE0FFF1FE05EFC4D4081518164E070E026
S1132DE083E290E0E0DD888D998DAA8DBB8D892BDF
S1132DF08A2B8B2B69F0EC8DFD8DE75EFC4D4081B9
S1132E0060E070E081E290E0B8DDE1E083E002C0E0
S1132E10E0E080E00C891D892E893F890F2EFBE1BB
S1132E20000F111F221F331FFA95D1F7F02DB301A4
S1132E30A2014F70552766277727042B152B262BC5
S1132E40372B4C815D816E817F81032E32E1440FEB
S1132E50551F661F771F3A95D1F7302D4427552704
S1132E606C707727042B152B262B372B488959890F
S1132E706A897B89032E36E1440F551F661F771F2D
S1132E803A95D1F7302D44275527607C7770042B71
S1132E90152B262B372B552466247724B301A20146
S1132EA0440F551F661F771F440F551F661F771F5A
S1132EB0440F551F661F771F440F551F661F771F4A
S1132EC0552766277727402B512B622B732B90E0D5
S1132ED0A0E0B0E0072E74E1880F991FAA1FBB1F62
S1132EE07A95D1F7702D842B952BA62BB72B4E2ECC
S1132EF0512C612C712C032E31E1440C551C661CA1
S1132F00771C3A95D1F7302DA3019201282B392B48
S1132F104A2B5B2B60E070E08FE190E05CDD4C813C
S1132F205D816E817F8188859985AA85BB85842B87
S1132F30952BA62BB72BBC01552744278C8D9D8D33
S1132F40AE8DBF8D072E7DE0880F991FAA1FBB1F72
S1132F507A95D1F7702D9A01AB01282B392B4A2B86
S1132F605B2BE0919820F091992022873387448746
S1132F70558760E070E088E090E02DDD42E460E099
S1132F8070E08DE090E0F9DCDF91CF911F910F911B
S1132F90FF90EF90DF90CF90BF90AF907F906F90B5
S1132FA05F904F900895CF92DF92EF92FF926B0162
S1132FB07C0160E070E08AE190E076DCDC01CB012A
S1132FC088279927A07F2FE0E222FF249C01AD01EE
S1132FD02C293D294E295F2960E070E08AE190E0C8
S1132FE0FADCFF90EF90DF90CF900895E091982065
S1132FF0F091992080A391A362A373A344A355A342
S113300026A337A30895CF93C82F80FF20C060E084
S113301070E086E290E048DCDC01CB01937C9C010B
S1133020AD01346160E070E086E290E0D4DC60E001
S113303070E086E390E038DC9B01AC01446860E01A
S113304070E086E390E0C7DCC1FD19C00EC060E00B
S113305070E086E290E028DC9B01AC01337C60E008
S113306070E086E290E0B7DC1CC020E131E040E093
S113307050E068E270E086E390E0ADDC12C020E14D
S113308031E04FE050E068E270E086E390E0A3DCDA
S113309020E131E040E050E068E270E086E390E057
S11330A09ADCCF910895EF92FF920F931F93CF93E1
S11330B0DF9300D0CDB7DEB77C018E010F5F1F4FC9
S11330C022E030E040E050E060E070E086E390E031
S11330D0AEDB8FE0E816F104A0F5F701EB5FFE4FDD
S11330E00C94782519828A818E7F8A832AC08981EB
S11330F08C7F8160898325C089818C7F82608983EC
S113310020C08981837B886489838A8180688A83DB
S113311018C08981837B89838A818F778A8311C0D0
S11331208A8182608A830DC08A818D7F8A8309C0E7
S113313089818F7C8062898304C081E0898383E0F4
S11331408A838E010F5F1F4F21E030E040E050E0A2
S113315060E070E086E390E01EDB0F5F1F4F21E02C
S113316030E040E050E061E070E086E390E013DBA3
S11331700F900F90DF91CF911F910F91FF90EF90DF
S113318008958EE090E08FDF40E050E866E070E064
S11331908DE290E008DC81E090E085D581E090E06C
S11331A082CF089580E090E07EDF40E050E064E06C
S11331B070E086E390E0F7CB0895CF93C82F81FFAA
S11331C00EC040E860E070E08DE090E0D6DBE09176
S11331D09820F091992081E0868B40E801C040E07E
S11331E0C0FF1DC0466060E070E08DE090E0C5DB8C
S11331F063E070E08FE090E08DDB88709470892B41
S1133200B9F040E460E070E08DE090E0B6DBE0917E
S11332109820F0919920168A8FEF9FEF0BC042609F
S113322060E070E08DE090E0A8DB80E090E002C018
S113323080E090E0CF91089563E070E08FE090E04B
S113324086DB482F407850E060E070E0807490E0C6
S1133250A0E0B0E0880F991FAA1FBB1F48175907A9
S11332606A077B0731F041E063E070E08DE090E0B5
S113327084CB0895CF92DF92EF92FF92CF93DF93A6
S113328060E070E08EE090E00FDB6B017C0184D2A3
S1133290EC0120E030E0A90160E070E08EE090E015
S11332A09ADB40E460E070E08DE090E066DB28EFBC
S11332B03FEF47E254E260E070E08FE090E08BDBA8
S11332C0BBDFA701960160E070E08EE090E083DB55
S11332D0CE0166D2E0919820F0919920168ADF9170
S11332E0CF91FF90EF90DF90CF9008950F931F93AD
S11332F0CF938C0163E070E084E090E028DBC82F7A
S113330001151105D9F0A80160E070E08CE090E0AF
S11333104ADBE0919820F091992000891189228953
S113332033893061008B118B228B338B4C2F40619E
S113333063E070E084E090E020DB14C0E09198202A
S1133340F091992000891189228933893F7E008B6D
S1133350118B228B338B482F4F7E63E070E084E027
S113336090E00BDBCF911F910F910895CF92DF92E4
S1133370EF92FF921F93CF93DF936B017C01142F85
S11333800BD2EC0160E070E08EE090E08DDA112366
S113339039F09B01AC012C293D294E295F290AC033
S11333A0C094D094E094F0949B01AC012C213D2175
S11333B04E215F2160E070E08EE090E00CDBCE01F6
S11333C0EFD1DF91CF911F91FF90EF90DF90CF90DD
S11333D0089540EE63E070E086E390E0CEDA40EFDB
S11333E063E070E086E390E0C8CA0895CF92DF926C
S11333F0EF92FF920F931F93CF93DF93C091982086
S1133400D091992060E070E08FE090E04DDA6B019C
S11334107C016F8B788F898F9A8F76FF6DC020E047
S11334203FE640E050E060E070E08FE090E0D3DA07
S1133430E0919820F0919920178E60E070E080E18F
S113344090E068DAE0919820F09199202085222379
S113345019F09C01337003C09C012F773327238F0D
S1133460348F99231CF4878D8160878F8F01035ECD
S11334701F4F22E030E040E050E060E070E081E186
S113348090E0D5D9C3FE1EC0E0919820F091992018
S1133490858D85FD17C028E030E040E050E060E015
S11334A070E08FE090E097DAE0919820F091992015
S11334B08789908DA18DB28D877F878B908FA18F07
S11334C0B28F168AA0919820B09199209296ED918E
S11334D0FC919397309719F0CD0147960995E091A7
S11334E09820F09199208785882331F041E063E0AA
S11334F070E08DE090E041DAC7FE21C028EF30E0B3
S113350040E050E060E070E08FE090E064DAC3FEF9
S113351009C0E0919820F09199208689882311F0C0
S1133520A9DE57DFA0919820B09199209096ED9153
S1133530FC919197309719F0CD0147960995D701E1
S1133540C60188279927A272BB27892B8A2B8B2B2C
S1133550E9F020E030E042E050E060E070E08FE02D
S113356090E039DAE0919820F0919920168A82DE71
S113357030DFA0919820B09199209496ED91FC9120
S11335809597309719F0CD0147960995CC2480E999
S1133590D82285E0E82284E2F822CD28CE28CF285C
S11335A0E9F020E030E945E054E260E070E08FE0CB
S11335B090E011DAE0919820F0919920168A5ADE71
S11335C008DFA0919820B09199209696ED91FC91F6
S11335D09797309719F0CD0147960995DF91CF91D0
S11335E01F910F91FF90EF90DF90CF900895DADD57
S11335F040E050E060E070E08CE290E0D4D940E03C
S113360066E070E08CE290E0B8D96DDA40E063E007
S113361070E086E390E0B1D981E090E044D340EFDC
S113362063E070E086E390E0A8D9E0919820F091FF
S11336309920168A08958F71482F40666EE070E0D5
S11336408BE290E09AC908950F931F93CF93DF9371
S1133650C82FE0919820F09199201786168A148A31
S1133660158A10A211A212A213A214A215A216A2C4
S113367017A24AD9603371408A4C9E4D09F085C027
S1133680B6DF80E090E00FDD44E060E070E084E2CB
S113369090E073D96EE170E080E090E00CDAD62F10
S11336A0E0919820F0919920718764E070E080E0C7
S11336B090E001DA662379F042E062E170E08DE2A5
S11336C090E05BD9E0919820F091992084899589C4
S11336D09061848B958B009198201091992066E0DD
S11336E070E080E090E0E7D9F80160837183828321
S11336F09383009198201091992067E070E080E016
S113370090E0D9D9F8016483758386839783E09127
S11337109820F0919920DF7111F0D68702C080E1E2
S11337208687868588DFC0FF0BC02BDDE09198205B
S1133730F0919920848995899860848B958B0CC02D
S113374065E070E086E390E0E5D8AC015D7F65E07C
S113375070E086E390E027D981E090E0A4DC40E0CB
S11337606AE070E08CE290E008D9C0919820D09192
S1133770992060E070E084E090E096D8688B798BC3
S11337808A8B9B8B80E090E002C08FEF9FEFDF91EC
S1133790CF911F910F910895F89481E090E00895DE
S11337A07894089588EB9BE0A0E0B0E080939A20A1
S11337B090939B20A0939C20B0939D2080E8E0E010
S11337C0F6E08783089510929A2010929B2010921D
S11337D09C2010929D2081E0E0E2F6E0878308952A
S11337E082E0E0E2F6E087830895E1ECF8E220E489
S11337F039E21192E217F307E1F7FC016481758164
S11338006038710528F440E050E081EC98E23FD83C
S113381088EE93E0A0E0B0E080939A2090939B2000
S1133820A0939C20B0939D2080E4E0E0F6E08783A1
S113383008954F925F926F927F928F929F92AF9270
S1133840BF92CF92DF92EF92FF920F931F93CF9389
S1133850DF93CDB7DEB7AA97CDBFDEBF55D84B01F6
S11338605C010E94C2136B017C01CE01019614D944
S11338708E010F5F1F4F24E030E040E050E060E035
S113388070E083E090E00E94171460E070E084E050
S113389090E00AD86B8F7C8F8D8F9E8F085F1F4FAF
S11338A025E030E040E050E060E070E088E090E047
S11338B00E94171460E070E08DE090E00E945414C0
S11338C06F8F78A389A39AA360E070E08EE090E004
S11338D00E9454146BA37CA38DA39EA30B5F1F4F64
S11338E025E030E040E050E060E070E08FE090E000
S11338F00E94171460E070E080E190E00E9454148C
S11339006FA378A789A79AA70B5F1F4F28E030E021
S113391040E050E060E070E082E190E00E94171423
S113392060E070E08FE190E00E9454142B013C01B0
S11339308EEE90E20E94FF258AE191E20E94FF252B
S11339409F928F924501AA24BB249F928F9287E273
S113395091E29F938F930E94EE25DF92CF926701AD
S1133960EE24FF24DF92CF928FE391E29F938F9313
S11339700E94EE2589811F928F938A811F928F93D3
S11339808B811F928F938C811F928F938D811F92B5
S11339908F938E811F928F938F811F928F9388852F
S11339A01F928F9387E591E29F938F930E94EE2558
S11339B01F921F921F921F921F921F921F921F927B
S11339C08DE891E29F938F930E94EE25CDBFDEBFD9
S11339D03C8D3F934B8D4F932B8D3C8D4D8D5E8D48
S11339E0CA01AA27BB279F938F938FEA91E29F93E3
S11339F08F930E94EE2589851F928F938A851F924B
S1133A008F938B851F928F938C851F928F938D85B7
S1133A101F928F9387EC91E29F938F930E94EE25E0
S1133A2038A13F934F8D4F932F8D38A149A15AA1AF
S1133A30CA01AA27BB279F938F938EEE91E29F938F
S1133A408F930E94EE253CA13F934BA14F932BA152
S1133A503CA14DA15EA1CA01AA27BB279F938F93C6
S1133A6086E092E29F938F930E94EE258E851F92AB
S1133A708F938F851F928F9388891F928F93898943
S1133A801F928F938A891F928F938EE192E29F9364
S1133A908F930E94EE25CDBFDEBF58A55F938FA103
S1133AA08F932FA138A549A55AA5CA01AA27BB27D8
S1133AB09F938F9385E492E29F938F930E94EE25C8
S1133AC08B891F928F938C891F928F938D891F925C
S1133AD08F938E891F928F938F891F928F93888DD6
S1133AE01F928F93898D1F928F938A8D1F928F932C
S1133AF08DE592E29F938F930E94EE255F924F9201
S1133B002301662477245F924F9283E992E29F9384
S1133B108F930E94EE258EEE90E20E94FF25CDBF8A
S1133B20DEBFAA96CDBFDEBFDF91CF911F910F916B
S1133B30FF90EF90DF90CF90BF90AF909F908F90C9
S1133B407F906F905F904F90089580E090E07CDDCF
S1133B50019649F48BEA92E29F938F930E94EE259B
S1133B600F900F90FFCF12D18CEA90E20E949D1526
S1133B7083E049DA23EE3BE142ED5BE165EF7BE173
S1133B8080EF9BE133DA41E060E870ED83E294E09A
S1133B90EDDB6CE370E080E090E005DA88E893E127
S1133BA0A5DBCFE9D0E240E050E06EE970E28EE0C0
S1133BB090E00E94FC1340E050E060E070E08EE092
S1133BC090E00E94071582E0F8DA80919A209091A3
S1133BD09B20A0919C20B0919D208F3F2FEF9207B6
S1133BE0A207B20779F402DC80919A2090919B207D
S1133BF0A0919C20B0919D208F3F2FEF9207A207A8
S1133C00B20789F3181619061A061B060CF03BC0F6
S1133C102C013D01770C4408542C3201A12C0F2EA9
S1133C20FCE6BF2EF02D0F2EFCEDCF2EF02D689468
S1133C30DD24D1F8E12CF12C00E010E0282F392FFD
S1133C404A2F5B2F642D742D842D942D57D7295121
S1133C503C4F4F4F5F4F6F4F7F4F8F4F9F4F73D6E8
S1133C6020E030E84BEB55E4CCD538D6F22FE32FE7
S1133C708F2F9E2FA42FB52F0197A109B10900976B
S1133C80A105B105C9F788818F5F88838FEF9FEF06
S1133C90DC0180939A2090939B20A0939C20B09366
S1133CA09D2081CF52DFAF92BF92CF92DF92EF92ED
S1133CB0FF920F931F93CF93DF93A12C0F2EFCE65B
S1133CC0BF2EF02D0F2EFCEDCF2EF02D6894DD24A9
S1133CD0D1F8E12CF12C00E010E0282F392F40E03E
S1133CE050E060E070E080E090E008D729513C4F5C
S1133CF04F4F5F4F6F4F7F4F8F4F9F4F24D620E022
S1133D0030E84BEB55E47DD5E9D5F22FE32F8F2F27
S1133D109E2FA42FB52F0197A109B1090097A105E2
S1133D20B105C9F7DF91CF911F910F91FF90EF90EB
S1133D30DF90CF90BF90AF900895CF92DF92EF9233
S1133D40FF920F931F9384E180937A2980EC98E08B
S1133D500E943801C12CD12C760100E211EA27E03F
S1133D6030E040E06AE779E280EC98E00E9451019B
S1133D70E0ECF8E080818064808380E090E01F9133
S1133D800F91FF90EF90DF90CF900895CF92DF9244
S1133D90EF92FF920F931F93C12CD12C760100EC6C
S1133DA011EE24EE30E040E06AE779E280EC98E03E
S1133DB00E9451011F910F91FF90EF90DF90CF90DF
S1133DC008958F929F92AF92BF92CF92DF92EF921B
S1133DD0FF920F931F93CF93DF937C01EB01490173
S1133DE05A01DADC6C016AE779E280EC98E00E941F
S1133DF09201A701BE0180EC98E00E947001A40129
S1133E00B80180EC98E00E9470016AE779E280ECE6
S1133E1098E00E94A801C601C3DC80E090E0DF9135
S1133E20CF911F910F91FF90EF90DF90CF90BF90B3
S1133E30AF909F908F9008958F929F92AF92BF9270
S1133E40CF92DF92EF92FF920F931F93CF93DF9362
S1133E507C01EB0149015A019FDC6C016AE779E2BC
S1133E6080EC98E00E949201A701BE0180EC98E0EA
S1133E700E947001A401B80180EC98E00E947F01C7
S1133E806AE779E280EC98E00E94A801C60188DC28
S1133E9080E090E0DF91CF911F910F91FF90EF9020
S1133EA0DF90CF90BF90AF909F908F9008950E9425
S1133EB0601235D4E0E4F6E088E0828394E09283F3
S1133EC0A0E0B6E020E411962C93119730E8119607
S1133ED03C93A0E2B6E041E011964C93119742E086
S1133EE011964C93A0E8B6E011964C931197129654
S1133EF09C93129711968C93A0E6B6E012969C932D
S1133F00129711968C9380E1818380E281833183BF
S1133F1022838FB7F894E6E5F6E09081977090835A
S1133F209081906190838FBF089580E4E0E0F6E093
S1133F30858380E092EEA4E0B0E00197A109B10985
S1133F400097A105B105C9F780E8E0E0F6E08583B4
S1133F5080E092EEA4E0B0E00197A109B1090097D6
S1133F60A105B105C9F781E0E0E2F6E0858380E0D0
S1133F7092EEA4E0B0E00197A109B1090097A10570
S1133F80B105C9F782E0E0E2F6E0858380E092EED5
S1133F90A4E0B0E00197A109B1090097A105B1051A
S1133FA0C9F780E4E0E0F6E0868380E092EEA4E0E6
S1133FB0B0E00197A109B1090097A105B105C9F7BE
S1133FC080E8E0E0F6E0868380E092EEA4E0B0E0F2
S1133FD00197A109B1090097A105B105C9F781E0CD
S1133FE0E0E2F6E0868380E092EEA4E0B0E00197A0
S1133FF0A109B1090097A105B105C9F782E0E0E282
S1134000F6E0868380E092EEA4E0B0E00197A10997
S1134010B1090097A105B105C9F780E4E0E0F6E035
S1134020858380E094ECA9E0B0E00197A109B1098F
S11340300097A105B105C9F780E8E0E0F6E08583C3
S113404080E094ECA9E0B0E00197A109B1090097E0
S1134050A105B105C9F781E0E0E2F6E0858380E0DF
S113406094ECA9E0B0E00197A109B1090097A1057A
S1134070B105C9F782E0E0E2F6E0858380E094ECE4
S1134080A9E0B0E00197A109B1090097A105B10524
S1134090C9F780E4E0E0F6E0868380E094ECA9E0F0
S11340A0B0E00197A109B1090097A105B105C9F7CD
S11340B080E8E0E0F6E0868380E094ECA9E0B0E0FC
S11340C00197A109B1090097A105B105C9F781E0DC
S11340D0E0E2F6E0868380E094ECA9E0B0E00197AA
S11340E0A109B1090097A105B105C9F782E0E0E291
S11340F0F6E0868380E094ECA9E0B0E00197A109A2
S1134100B1090097A105B105C9F780E4E0E0F6E044
S1134110858380E096EAAEE0B0E00197A109B10999
S11341200097A105B105C9F780E8E0E0F6E08583D2
S113413080E096EAAEE0B0E00197A109B1090097EA
S1134140A105B105C9F781E0E0E2F6E0858380E0EE
S113415096EAAEE0B0E00197A109B1090097A10584
S1134160B105C9F782E0E0E2F6E0858380E096EAF3
S1134170AEE0B0E00197A109B1090097A105B1052E
S1134180C9F780E4E0E0F6E0868380E096EAAEE0FA
S1134190B0E00197A109B1090097A105B105C9F7DC
S11341A080E8E0E0F6E0868380E096EAAEE0B0E006
S11341B00197A109B1090097A105B105C9F781E0EB
S11341C0E0E2F6E0868380E096EAAEE0B0E00197B4
S11341D0A109B1090097A105B105C9F782E0E0E2A0
S11341E0F6E0868380E096EAAEE0B0E00197A109AC
S11341F0B1090097A105B105C9F780E4E0E0F6E054
S1134200858380E098E8A3E1B0E00197A109B109B2
S11342100097A105B105C9F780E8E0E0F6E08583E1
S113422080E098E8A3E1B0E00197A109B109009703
S1134230A105B105C9F781E0E0E2F6E0858380E0FD
S113424098E8A3E1B0E00197A109B1090097A1059D
S1134250B105C9F782E0E0E2F6E0858380E098E802
S1134260A3E1B0E00197A109B1090097A105B10547
S1134270C9F780E4E0E0F6E0868380E098E8A3E113
S1134280B0E00197A109B1090097A105B105C9F7EB
S113429080E8E0E0F6E0868380E098E8A3E1B0E01F
S11342A00197A109B1090097A105B105C9F781E0FA
S11342B0E0E2F6E0868380E098E8A3E1B0E00197CD
S11342C0A109B1090097A105B105C9F782E0E0E2AF
S11342D0F6E0868380E098E8A3E1B0E00197A109C5
S11342E0B1090097A105B105C9F7089544E250E06A
S11342F066E579E280E090E00C947113089588EC0F
S113430090E1809356299093572986E690E0809314
S113431058299093592981E080935A2985E1E4E64C
S1134320F3E2ABE5B9E201900D928A95E1F785E0FD
S1134330E9E7F3E2A0E7B9E201900D928A95E1F78B
S113434085E0EEE7F3E2A5E7B9E201900D928A95E4
S1134350E1F7CCCF089544E250E066E579E280E0ED
S113436090E00E94D4128091562990915729883C5C
S1134370904119F0C4DF81E0089580E008958091B0
S113438056299091572908956BE579E220C4089540
S113439060E779E21CC4089565E779E218C40895DA
S11343A0BC018BE599E213C40895BC0180E799E24E
S11343B00EC40895BC0185E799E209C408952F92BB
S11343C03F924F925F926F927F928F929F92AF92A1
S11343D0BF92CF92DF92EF92FF920F931F93CF93EE
S11343E0DF93CDB7DEB7CB54D109CDBFDEBF18A262
S11343F019A26E0123E2C20ED11C7E013DE3E30E3D
S1134400F11C8E01085C1F4F0F2EF6E52F2EF9E2EA
S11344103F2EF02D0F2EF4ED8F2EF3E29F2EF02D74
S11344200F2EF8E54F2EF9E25F2EF02D0F2EF0EF50
S1134430AF2EF3E2BF2EF02D3E0182E2680E711C16
S1134440FE0131962496EEAFFFAF24979E01255EC0
S11344503F4F26962EAF3FAF2697CE01469628961D
S11344608EAF9FAF28977F962A96EEAFFFAF2A971D
S11344702A5F3F4F2C962EAF3FAF2C97C60184DFA7
S1134480C70186DFC80188DF83EA93E2B8D38CEBE7
S113449093E2B5D3F101808191819F938F939F9291
S11344A08F929CD3F201808191819F938F93BF92CD
S11344B0AF9294D380915A29CDBFDEBF882319F0DF
S11344C083E893E202C083E993E29F938F938BE0A6
S11344D094E29F938F9382D3DF92CF9286E294E209
S11344E09F938F937BD3FF92EF9281E494E29F9307
S11344F08F9374D31F930F938CE594E29F938F93C0
S11345006DD387E794E27BD388E894E29F938F93FB
S113451065D37F926F928EEB94E29F938F939CD39B
S1134520CDBFDEBF8AA1833009F459C028F481309D
S113453061F0823041F1B1C0853009F488C008F4DB
S11345406AC0863009F49FC0A8C081EC94E29F93AE
S11345508F9344D32A969FAD2A979F932996EFADC4
S11345602997EF938EEB94E29F938F9375D388A151
S113457090E0F201808391830F900F900F900F9041
S11345800F900F9085C086ED94E29F938F9326D36E
S11345902C96FFAD2C97FF932B962FAD2B972F9333
S11345A08EEB94E29F938F9357D381E00F900F90FB
S11345B00F900F900F900F9098A1913009F480E024
S11345C0882349F081E099A1911101C080E08823FA
S11345D011F081E089A389A180935A2959C08DE003
S11345E095E29F938F93FAD224963FAD24973F93FD
S11345F023968FAD23978F938BE295E29F938F93AE
S11346002BD3CE010196CCDE0F900F900F900F901C
S11346100F900F903DC080E395E29F938F93DED27D
S113462028969FAD28979F932796EFAD2797EF93F2
S11346308BE595E29F938F930FD3CE014696B5DE1B
S11346400F900F900F900F900F900F9021C08FE557
S113465095E29F938F93C2D22696FFAD2697FF9340
S113466025962FAD25972F938BE595E29F938F93F6
S1134670F3D2CE014B969EDE0F900F900F900F90C9
S11346800F900F9005C032DE89E895E2B8D209C0D8
S113469030E0332309F4F2CE04C080E0882309F427
S11346A0EDCEC55BDF4FCDBFDEBFDF91CF911F9154
S11346B00F91FF90EF90DF90CF90BF90AF909F90BD
S11346C08F907F906F905F904F903F902F900895C0
S11346D0CF93C82F8A3021F48DE090E00E94A60485
S11346E08C2F992787FD90950E94A60480E090E086
S11346F0CF9108950F931F93CF93DF938C010E9462
S1134700E5038823E1F30E943104EC01B801E0DF02
S1134710CE019927DF91CF911F910F91089587E0E2
S1134720E0EAF0E0828378940E9494050E94750E7A
S113473084ED90E280937D2990937E2980937B2958
S113474090937C290895CF93DF93CDB7DEB7279755
S1134750CDBFDEBFACDBF1DA8091E6208D838091A2
S1134760E7208E838091E8208F838091E2209091CE
S1134770E320A091E420B091E52089839A83AB8360
S1134780BC8360E185E00E94AD12BE016F5F7F4F84
S113479080EA9AE00E94EA0AC8DB4BD880E09AE6F5
S11347A0A8E1B0E00197A109B1090097A105B105FD
S11347B0C9F778DAD0DD182FE2DD9F938F931F922B
S11347C01F938AE096E29F938F9308D2F8DD0F90AF
S11347D00F900F900F900F900F90E0E0F6E060E4E0
S11347E050E049E03DE320E06783852F942FA32F19
S11347F0B22F0197A109B1090097A105B105C9F725
S1134800F3CF0CD005C1FDD040F0F4D030F021F44A
S11348105F3F19F0D6C051112FC1D9C00AD198F306
S11348209923C9F35523B1F3951B550BBB27AA272D
S113483062177307840738F09F5F5F4F220F331F9F
S1134840441FAA1FA9F333D00E2E3AF0E0E830D06B
S113485091505040E695001CCAF729D0FE2F27D06E
S1134860660F771F881FBB1F261737074807AB073C
S1134870B0E809F0BB0B802DBF01FF2793585F4FB1
S11348802AF09E3F510568F09CC0F6C05F3FECF3F0
S1134890983EDCF3869577956795B795F7959F5F76
S11348A0C9F7880F911D9695879597F90895E1E0CA
S11348B0660F771F881FBB1F621773078407BA0729
S11348C020F0621B730B840BBA0BEE1F88F7E09584
S11348D00895BEE304D008F490E80895BFE32227C6
S11348E03327A901AED058F19F5740F1B91738F1D9
S11348F0BFE3B91B9927B8503AF4660F771F881F96
S1134900991FB395D2F316C0B8504AF0232F342F11
S1134910452F562F672F782F8827B850BAF7B85FDE
S113492049F08695779567955795479537952795D7
S1134930BA95B9F70EF44ED088940895889460E03F
S113494070E0CB010895E894F92F96EBFF2381F0F2
S1134950121613061406440B9395F69587957795CE
S1134960679557954040FF23B9F71BC099270895D1
S1134970882351F49850D2F7872B762F652F542F24
S1134980432F322F20E0B1F3121613061406440B02
S113499088233AF09A95440F551F661F771F881F86
S11349A0CAF755234AF4440F551F11F460FF04C09D
S11349B06F5F7F4F8F4F9F4F880F9695879597F91D
S11349C0089597F99F6780E870E060E008959FEF8D
S11349D080EC0895909580957095609550954095DC
S11349E0309521953F4F4F4F5F4F6F4F7F4F8F4F04
S11349F09F4F089500240A941616170618060906F0
S1134A00089500240A941216130614060506089540
S1134A10092E0394000C11F4882352F0BB0F40F4C8
S1134A20BF2B11F460FF04C06F5F7F4F8F4F9F4F08
S1134A30089557FD9058440F551F59F05F3F71F08A
S1134A404795880F97FB991F61F09F3F79F08795F1
S1134A500895121613061406551FF2CF4695F1DF7A
S1134A6008C0161617061806991FF1CF869571050A
S1134A70610508940895E894BB2766277727CB013E
S1134A8097F90895AA1BBB1B51E107C0AA1FBB1FBE
S1134A90A617B70710F0A61BB70B881F991F5A95C6
S1134AA0A9F780959095BC01CD010895A1E21A2E35
S1134AB0AA1BBB1BFD010DC0AA1FBB1FEE1FFF1FBE
S1134AC0A217B307E407F50720F0A21BB30BE40B0E
S1134AD0F50B661F771F881F991F1A9469F7609555
S1134AE07095809590959B01AC01BD01CF0108950F
S1134AF0EE0FFF1F0590F491E02D0994DF93CF93FF
S1134B001F930F939A9DF02D219FF00D8B9DF00D17
S1134B108A9DE02DF10D039FF00D029FE00DF11D24
S1134B204E9DE00DF11D5E9DF00D4F9DF00D7F93A8
S1134B306F93BF92AF925F934F93D50130D08B01A7
S1134B40AC01D7012CD0EB01E80FF91FD6011FD01F
S1134B502F913F91D60123D0C60FD71FE81FF91F0D
S1134B60AF91BF9114D02F913F9119D0C60FD71F89
S1134B70E81FF91FD60113D0E60FF71F9801BE01F5
S1134B80CF0111240F911F91CF91DF91089507D088
S1134B90460F571FC81FD91F08F431960895A29FC6
S1134BA0B001B39FC001A39F700D811D1124911DFD
S1134BB0B29F700D811D1124911D0895FB01DC012C
S1134BC002C001900D9241505040D8F70895FB0166
S1134BD0DC0101900D920020E1F70895A0E0B0E01F
S1134BE0E3EFF5E2C8C5FE01359661917191AF011D
S1134BF080917D2990917E2940D0E2E0D5C50F9324
S1134C001F93CF93DF93E0917D29F0917E29238137
S1134C1021FF1BC0EC0100E010E0899160917D2927
S1134C2070917E29DB011896ED91FC9119978823E8
S1134C3031F00995892B89F30FEF1FEFEECF8AE04E
S1134C400995892B11F4C80102C08FEF9FEFDF9102
S1134C50CF911F910F910895A0E0B0E0E1E3F6E257
S1134C608AC5FE01359661917191AF0180917B29CE
S1134C7090917C2934D3E2E097C5ACE0B0E0E2E463
S1134C80F6E269C57C016B018A01FC011682178278
S1134C90838181FFB0C1CE0101964C01F70193815C
S1134CA0F60193FD859193FF81916F01882309F4A7
S1134CB09EC1853239F493FD859193FF81916F01F3
S1134CC0853221F4B70190E09AD4E8CF512C312CED
S1134CD020E02032A0F48B3269F030F4803259F0B5
S1134CE0833269F420612CC08D3239F0803339F479
S1134CF0216026C02260246023C0286021C027FDD3
S1134D0027C030ED380F3A3078F426FF06C0FAE0B9
S1134D105F9E300D1124532E13C08AE0389E300D4F
S1134D201124332E20620CC08E3221F426FD5FC183
S1134D30206406C08C3611F4206802C0883641F421
S1134D40F60193FD859193FF81916F018111C1CF8C
S1134D50982F9F7D9554933028F40C5F1F4FFFE3E9
S1134D60F9830DC0833631F0833771F0833509F050
S1134D7057C021C0F801808189830E5F1F4F4424EE
S1134D804394512C540114C03801F2E06F0E711C8D
S1134D90F801A080B18026FF03C0652D70E002C039
S1134DA06FEF7FEFC5012C87E1D32C0183012C85A4
S1134DB02F77222E16C03801F2E06F0E711CF80115
S1134DC0A080B18026FF03C0652D70E002C06FEFA4
S1134DD07FEFC5012C87BFD32C012C852068222EA0
S1134DE0830123FC19C0832D90E048165906A0F4D2
S1134DF0B70180E290E003D43A94F5CFF50127FCA3
S1134E00859127FE81915F01B70190E0F8D33110BD
S1134E103A94F1E04F1A51084114510479F7DEC075
S1134E20843611F0893631F5F80127FF07C0608117
S1134E307181828193810C5F1F4F08C060817181F1
S1134E40882777FD8095982F0E5F1F4F2F76B22EFF
S1134E5097FF09C090958095709561957F4F8F4F0E
S1134E609F4F2068B22E2AE030E0A40113D4A82E6C
S1134E70A81843C0853729F42F7EB22E2AE030E0EB
S1134E8025C0F22FF97FBF2E8F36C1F018F4883574
S1134E9079F0ADC0803719F0883721F0A8C02F2FE2
S1134EA02061B22EB4FE0DC08B2D8460B82E09C0D3
S1134EB024FF0AC09F2F9660B92E06C028E030E078
S1134EC005C020E130E002C020E132E0F801B7FE85
S1134ED007C060817181828193810C5F1F4F06C07E
S1134EE06081718180E090E00E5F1F4FA401D2D3F6
S1134EF0A82EA818FB2DFF77BF2EB6FE0BC02B2DB6
S1134F002E7FA51450F4B4FE0AC0B2FC08C02B2DA9
S1134F102E7E05C07A2C2B2D03C07A2C01C0752C53
S1134F2024FF0DC0FE01EA0DF11D8081803311F4D0
S1134F30297E09C022FF06C07394739404C0822F93
S1134F40867809F0739423FD12C020FF06C05A2C02
S1134F50731418F4530C5718732C731460F4B701BA
S1134F6080E290E02C874BD373942C85F6CF731496
S1134F7010F4371801C0312C24FF11C0B70180E3AD
S1134F8090E02C873CD32C8522FF16C021FF03C060
S1134F9088E590E002C088E790E0B7010CC0822F5A
S1134FA0867851F021FD02C080E201C08BE227FD2A
S1134FB08DE2B70190E023D3A51430F4B70180E368
S1134FC090E01DD35A94F8CFAA94F401EA0DF11D90
S1134FD08081B70190E013D3A110F6CF332009F4F8
S1134FE05DCEB70180E290E00AD33A94F7CFF7019F
S1134FF08681978102C08FEF9FEF2C96E2E1C4C3B4
S113500020FD09C0FC0123FD05C022FF02C07383FB
S1135010628351834083089544FD10C046FD10C04F
S1135020DB01FC01AA0FBB1FEE1FFF1F1094D1F779
S11350306A0F7B1F8E1F9F1F31E003C033E001C046
S113504034E0660F771F881F991F3150D1F7620F24
S1135050711D811D911D08950F931F93CF93DF93AD
S11350608C01C8018ED2EC0197FD06C061D2892B58
S1135070C1F7B801CE01F5D2CE01DF91CF911F91D6
S11350800F9108958F929F92AF92CF92DF92EF92F9
S1135090FF920F931F93CF93DF93EC01A62E4A0147
S11350A0022F6FD2AC0155274B32510521F04D32FE
S11350B0510549F40068AA9411F480E060C0CE015F
S11350C060D297FDFACF102F1D7F302F3073F1F48B
S11350D08033E1F4FF24FA94FA0C09F43DC0CE01C4
S11350E050D297FD39C0382F3F7D383549F41264CA
S11350F0AA94AA9489F1CE0144D297FF07C02CC088
S113510006FF02C0126001C01261AF2CC12CD12C69
S1135110760120ED280F283078F014FF03C0BE017B
S1135120A0D217C02A3040F016FFF9CF2F7D3FEEF2
S1135130320F3630A0F72750412FC701B6016CDF7C
S11351406B017C011260AA9451F0CE011AD297FF30
S1135150E0CF11FD04C0B1CFC12CD12C760117FFD3
S113516008C0F094E094D094C094C11CD11CE11CFC
S1135170F11C212FB701A601C40142DF81E0DF91B8
S1135180CF911F910F91FF90EF90DF90CF90AF9050
S11351909F908F900895A1E2B0E0E0EDF8E2E0C2C4
S11351A05C017A018E010F5F1F4F680180E2D80114
S11351B01D928A95E9F7F501738040E050E0812C57
S11351C0B0E0912C81E090E0F90173FCA59173FEAD
S11351D0A1918F017A2F9F01A11103C080E090E07B
S11351E07BC0AE3519F44115510559F1E92DF0E0B4
S11351F0E417F5073CF4AD3569F1AD3219F4BB237E
S113520019F103C0B11101C08A2EE72FE695E69586
S1135210E69586010E0F111DF801A72FA7708C01CA
S113522002C0000F111FAA95E2F7D801B081BA2B72
S1135230B083781559F0781510F47F5FE6CF71507C
S1135240E4CF9924939403C0B1E001C0B0E04F5F70
S11352505F4FBACFBB2319F08E8180628E83911089
S113526003C09924939415C0F601CE018196208140
S113527020952193E817F907D1F7F3CFE114F1044E
S113528029F0D7018C93F70131967F016150F1F039
S1135290912CC50169A375D169A197FD15C0282F6B
S11352A0269526952695F601E20FF11D208130E022
S11352B0AC014770552702C0359527954A95E2F70A
S11352C020FDDCCFB501CDD1911088CFE114F104DC
S11352D011F0D7011C92C801A196EDE05AC24F9279
S11352E05F927F928F929F92AF92BF92CF92DF9202
S11352F0EF92FF920F931F93CF93DF931F92CDB73B
S1135300DEB78C012B017A01FC0116821782A12CD5
S1135310F801D380F201D3FC8591D3FE8191382F1B
S11353202F01882309F4EEC090E0398301D139813B
S1135330892B19F0C80190DEEBCF353241F4F2012C
S1135340D3FC3591D3FE31912F01353259F4C80184
S1135350398317D1398197FDD3C03817C9F2B80101
S113536080D1D0C03A3241F4D3FC3591D3FE31918F
S11353702F01BB24B39401C0B12C712C20ED230F59
S11353802A3088F4FB2DF260BF2E672D70E080E098
S113539090E040E241DE762EF201D3FC3591D3FE5B
S11353A031912F01EBCFB1FE03C0711003C0AAC02D
S11353B077247A94383619F03C3661F014C0F2013F
S11353C0D3FC3591D3FE31912F01383661F4FB2D96
S11353D0F860BF2E8B2D8460B82EF201D3FC35917A
S11353E0D3FE31912F01332309F48CC0632F70E075
S11353F088E292E03983A4D03981892B09F482C0F0
S1135400B0FC07C0F701C080D180C70102967C01BF
S113541002C0C12CD12C3E3649F4F8014681578193
S113542060E070E02B2DC601EBDD72CF333699F4CA
S1135430B1FC02C077247394C801A3D097FD60C067
S1135440C114D10429F0F6018083C60101966C01D0
S11354507A9491F751C03B3551F49201A601672D1E
S1135460C80199DE2C01009709F046C040C0C8016C
S11354703983F2DD398197FD43C03F3651F128F479
S1135480343619F1393661F128C0333769F03537CC
S1135490E1F023C0C114D10429F0F6018082C601D1
S11354A001966C017A9459F0C8016BD04C0197FDB8
S11354B006C03ED0892B71F3B801C401D2D0C11407
S11354C0D104D1F0F601108217C0FB2DF062BF2E7B
S11354D007C08B2D8061B82E03C09B2D9064B92E1C
S11354E02B2DA601672DC801CDDD811105C0F80162
S11354F08381807329F406C0B0FC0ACFA39408CF3B
S1135500AA2019F08A2D90E002C08FEF9FEF0F9030
S1135510DF91CF911F910F91FF90EF90DF90CF908B
S1135520BF90AF909F908F907F905F904F90089521
S113553091110EC1803219F089508550D0F7089529
S1135540FC010590061621F00020D9F7C00108954A
S11355503197CF010895FC0105906150704001100E
S1135560D8F7809590958E0F9F1F0895FC01615088
S1135570704001900110D8F7809590958E0F9F1F71
S11355800895CF93DF93EC012B8120FF33C026FFD6
S11355900AC02F7B2B838E819F8101968E839F83EC
S11355A08A8190E029C022FF0FC0E881F9818081BF
S11355B0992787FD9095009719F420622B831AC0D0
S11355C03196E883F9830EC0EA85FB85099597FF38
S11355D009C02B81019611F480E101C080E2822B85
S11355E08B8308C02E813F812F5F3F4F2E833F83E3
S11355F0992702C08FEF9FEFDF91CF9108950F930A
S11356001F93CF93DF93182F092FEB018B8181FD1B
S113561003C08FEF9FEF20C082FF10C04E815F81D7
S11356202C813D81421753077CF4E881F9819F0165
S11356302F5F3F4F28833983108306C0E885F9859F
S1135640812F0995892B29F72E813F812F5F3F4FA9
S11356502E833F83812F902FDF91CF911F910F9144
S11356600895FB01238120FF12C026FD10C08F3F47
S11356703FEF930761F082832F7D2064238326818B
S113568037812150310926833783992708958FEF75
S11356909FEF0895FA01AA27283051F1203181F1B2
S11356A0E8946F936E7F6E5F7F4F8F4F9F4FAF4F26
S11356B0B1E03ED0B4E03CD0670F781F891F9A1F39
S11356C0A11D680F791F8A1F911DA11D6A0F711DED
S11356D0811D911DA11D20D009F468943F912AE0F9
S11356E0269F11243019305D3193DEF6CF010895E1
S11356F0462F4770405D4193B3E00FD0C9F7F6CF12
S1135700462F4F70405D4A3318F0495D31FD4052D9
S1135710419302D0A9F7EACFB4E0A695979587956F
S113572077956795BA95C9F700976105710508954E
S11357309B01AC010A2E06945795479537952795FA
S1135740BA95C9F7620F731F841F951FA01D089592
S11357509927882708952F923F924F925F926F92D4
S11357607F928F929F92AF92BF92CF92DF92EF92ED
S1135770FF920F931F93CF93DF93CDB7DEB7CA1B6E
S1135780DB0BCDBFDEBF09942A88398848885F8443
S11357906E847D848C849B84AA84B984C884DF80CD
S11357A0EE80FD800C811B81AA81B981CE0FD11DB1
S10F57B0CDBFDEBFED010895F894FFCFDB
S11357BC8203FC01060208021E03BE01F6010A0262
S11357CC08020000000300000000000000000000BC
S11357DC00004F6E65506F7300416772756D000069
S11357EC0403090486203A20000042203E200A20AB
S11357FC002009024300020100C032090400000128
S113580C02020100052400100104240202052406EE
S113581C000105240103010705820340001009045B
S113582C0100020A00000007058102400000070580
S113583C0202400000001201000202000040EB03CF
S113584C04240001010203019928FFFFFFFFC50096
S113585C44454341574156454302000002000000B1
S113586C0200000008000000020000000900000013
S113587C090000000100000000000000000000000E
S113588C21040000000000030000000068237A23B8
S113589C000000C2010003000031324546000A2D0D
S11358AC2D2D2D2D2D2D2D2D2D2D2D2D2D2D2D2D18
S11358BC2D2D2D2D2D2D2D2D2D2D2D2D2D2D2D2D08
S11358CC2D2D2D2D2D2D2D2D2D0044574D313030BA
S11358DC3020494E464F004465766963652049443F
S11358EC20203A202530345820253034580A0050D2
S11358FC617274204944202020203A2025303458E9
S113590C20253034580A00455549202020202020D9
S113591C20203A202530325820253032582025308A
S113592C3258202530325820253032582025303238
S113593C58202530325820253032580A0050414E18
S113594C20416464726573733A20253032582025E3
S113595C303258202530325820253032580A005322
S113596C59535F434647202020203A202530345891
S113597C20253034580A0054585F464354524C2066
S113598C20203A202530325820253032582025301A
S113599C3258202530325820253032580A005359B9
S11359AC535F4354524C2020203A20253034582045
S11359BC253034580A005359535F4D41534B202022
S11359CC203A202530345820253034580A005359B5
S11359DC535F535441545553203A202530325820A8
S11359EC2530325820253032582025303258202585
S11359FC3032580A0052585F46494E464F202020F8
S1135A0C3A202530345820253034580A0052585F37
S1135A1C465155414C2020203A202530325820251F
S1135A2C3032582025303258202530325820253039
S1135A3C3258202530325820253032582025303227
S1135A4C580A004348414E5F4354524C20203A209C
S1135A5C2530345820253034580A00494E495420F6
S1135A6C4641494C454400000098599859EA518ED6
S1135A7C421E45142E0080EA51F4283233E03A7069
S1135A8C3DE03AC235842BC2353233C235C235AE11
S1135A9C47E03A5038A23050382D001A3152001ACF
S1135AAC339A001A351D011A376B003B31BE003B8B
S1135ABC335E013B3596023B3787008D000A001696
S1135ACC00010006000100020040100807A902258D
S1135ADC70889B88D8BC1E265626BEBE07040009B7
S1135AEC0805400809104008080540081D04000872
S1135AFC1D040008405C0000A05C0400C06C08009D
S1135B0C805C0400E03F1E00E07D1E0000000102EA
S1135B1C03040005364632333434353443463644B4
S1135B2C3441304641444632003031453000303146
S1135B3C3930005374617274206173204F6E655058
S1135B4C6F730053746172742061732042656163D6
S1135B5C6F6E000A2D2D2D2D2D2D2D2D2D2D2D2D32
S1135B6C2D2D2D2D2D2D2D2D2D2D2D00437572729A
S1135B7C656E7420436F6E66696775726174696FC4
S1135B8C6E3A20002020204D454D20434845434B80
S1135B9C2020202020202020203A202523780A00B1
S1135BAC312E204E4F4445204944202020202020D3
S1135BBC20202020203A2025640A00322E204E4F2B
S1135BCC4445204D4F4445202020202020202020D7
S1135BDC3A2025730A00332E204E414D4553504133
S1135BEC43452049442020202020203A2025730AB4
S1135BFC00342E20424C45205343414E20494E54F0
S1135C0C455256414C203A2025730A00352E204229
S1135C1C4C45205343414E2057494E444F57202066
S1135C2C203A2025730A00362E2053415645204134
S1135C3C4E4420455849540053656C656374206187
S1135C4C206E756D62657220746F206368616E6777
S1135C5C65207468652063757272656E7420636F59
S1135C6C6E66696775726174696F6E3A200025649B
S1135C7C000A5772697465206E6577206E6F6465CF
S1135C8C2049443A20000A57726974652030207404
S1135C9C6F20737461727420617320426561636F49
S1135CAC6E20616E64203120746F20737461727481
S1135CBC206173204F6E65506F733A20000A57723F
S1135CCC69746520746865206E6577206E616D65F6
S1135CDC73706163652049443A20002532307300A7
