S00E00004F6E65506F732E73726563C2
S113000021C100003CC100003AC1000038C1000019
S113001036C1000034C1000032C1000030C100000C
S11300202EC100002CC100002AC1000028C100001C
S113003026C100000C94A20922C1000020C10000C6
S11300401EC100001CC100001AC1000018C100003C
S113005016C1000014C1000012C1000010C100004C
S11300600EC100000CC100000AC1000008C100005C
S113007006C1000004C1000002C1000000C100006C
S1130080FEC00000FCC00000FAC00000F8C0000080
S1130090F6C00000F4C00000F2C00000F0C0000090
S11300A0EEC00000ECC00000EAC00000E8C00000A0
S11300B0E6C00000E4C000000C94C509E0C00000E4
S11300C0DEC00000DCC00000DAC00000D8C00000C0
S11300D0D6C00000D4C00000D2C00000D0C00000D0
S11300E0CEC00000CCC00000CAC00000C8C00000E0
S11300F0C6C00000C4C00000C2C00000C0C00000F0
S1130100BEC00000BCC00000BAC00000B8C00000FF
S1130110B6C00000B4C00000B2C00000B0C000000F
S1130120AEC00000ACC00000AAC00000A8C000001F
S1130130A6C00000A4C00000A2C00000A0C000002F
S11301409EC000009CC000009AC0000098C000003F
S113015096C0000094C0000092C0000090C000004F
S11301600C9480288CC000008AC0000088C0000065
S113017086C0000084C0000082C0000080C000006F
S11301807EC000007CC000007AC0000078C000007F
S113019076C0000074C0000072C0000070C000008F
S11301A06EC000006CC000006AC0000068C000009F
S11301B066C0000064C0000062C0000060C00000AF
S11301C05EC000005CC000005AC0000058C00000BF
S11301D056C0000054C0000052C0000050C00000CF
S11301E04EC000004CC000004AC0000048C00000DF
S11301F046C000000C94D0100C948611E40CD20C70
S1130200D50CD80CDB0CDE0CE10C9D199819A21945
S1130210C719C719C719C719A719AF19C719C71912
S1130220B619BA19BE19C3198127C626D526F626CA
S113023012272727432762276364696E6F707375DB
S113024078585B0011241FBECFEFCDBFDFE2DEBFC5
S11302501BE2A0E0B0E2ECE2F7E602C005900D92EA
S1130260A033B107D9F72FE2A0E3BBE201C01D928E
S1130270A53AB207E1F70E94E0290C949433C0CE6A
S1130280CF93DF93EC01C03C28E0D20729F468E067
S113029083E00E94BD1207C0803C994021F468E0CD
S11302A084E00E94BD12888180618883DF91CF91B0
S11302B00895FF920F931F93CF93DF93EC01F42ED5
S11302C0B901A80100E01CE62CED32E056D78823E2
S11302D04CF088819F2D990F990F9C70837FF92E84
S11302E0F82AF882DF91CF911F910F91FF90089522
S11302F0FC01DB01460F571F05C08D91838382816A
S11303008823ECF7A417B507C1F780E00895FC0132
S1130310DB014115510561F0460F571F9FEF938391
S113032082818823ECF783818D93A417B507B9F7ED
S113033080E00895FB018081E82FE695E695E69537
S113034040E2E49FF0011124FA5F877021E030E07D
S1130350A90102C0440F551F8A95E2F74683089508
S1130360FB018081E82FE695E695E69540E2E49F5F
S1130370F0011124FA5F877021E030E0A90102C086
S1130380440F551F8A95E2F7458308951092462C31
S11303901092522C1092532C81EA8093482C80E2C4
S11303A08093492C10924A2C10924B2C10924C2C76
S11303B010924D2C82E090E080934E2C90934F2C21
S11303C01092502C1092512C80E092ECA1E0B0E0FD
S11303D08093542C9093552CA093562CB093572C67
S11303E01092582C1092592C88E080935A2C8091AA
S11303F0462C8F5F8093462C81E008958091462C93
S113040081508093462C08958091452C815080938F
S1130410452C8091452C1092442C089580E0089539
S113042080E0089580914A2E8823DCF4807680321F
S1130430E9F580914B2E8132D9F58091502E90911F
S1130440512E0797B9F584E59CE28093522E909340
S1130450532E87E090E08093542E9093552E81E0A4
S113046008958076803241F580914B2E803221F0C0
S1130470823221F581E008958091502E9091512E81
S11304800797F1F482E692E08093562E9093572ECC
S113049084E59CE28093522E9093532E87E090E063
S11304A08093542E9093552E81E0089580E0089512
S11304B080E0089580E0089580E0089580E0089544
S11304C080E008950895FF920F931F93CF93DF93D5
S11304D08091332B81119CC00E94120F882351F00C
S11304E0C091342BD091352B0E941F0FC817D90708
S11304F059F48EC0C091342BD091352B0E941A0F21
S1130500C817D90709F484C0DFB7F894C091362B13
S1130510EC2FF0E0EE0FFF1FE95CF44D8081918138
S1130520892B09F58091302B9091312B0196809382
S1130530302B9093312B0E94120F811107C08091B0
S1130540302B9091312B8436910558F00E94120F74
S1130550882349F08091302B9091312B8032934045
S113056010F4DFBF55C01092302B1092312B8091C4
S1130570322B811106C081E0C11180E08093362BBB
S113058004C081E0C11180E0C82F81E08093332B47
S1130590DFBFD0E0FE01EE0FFF1FE95CF44DFF2446
S11305A0F394808191818034910509F4F12CFF202A
S11305B091F00E94120F882339F00E941F0F80933C
S11305C0342B9093352B0BC00E941A0F8093342B3D
S11305D09093352B04C01092342B1092352BFE01CE
S11305E0EE0FFF1FE95CF44D20813181AE01002440
S11305F0569547950794569547950794542F402D43
S1130600445C544D0EE013E06F2D81E80E94D10F3D
S1130610DF91CF911F910F91FF900895811115C023
S11306202091362B81E090E0222311F080E090E0CD
S1130630FC01EE0FFF1FE95CF44D10821182109251
S1130640322B1092332B80E03ECF089580E03BCFD5
S113065008954FB7F8942091BD2B3091BE2BE091B3
S1130660BF2BF0E0EE0FFF1FE054F44D8081918129
S1130670821B930B4FBF0895ECDF21E0892B09F413
S113068020E0822F08950F931F93CF93DF934FB7EA
S1130690F8945091BF2B8091BC2B811110C02091F4
S11306A0BD2B3091BE2BC52FD0E0FE01EE0FFF1FF6
S11306B0E054F44D808191812817390718F44FBF15
S11306C080E023C01092BD2B1092BE2B81E051110B
S11306D080E08093BF2B81E08093BC2B4FBF80E0F0
S11306E0CBDFAE0100245695479507945695479560
S11306F00794542F402D4C53544D0CEB13E020E43D
S113070030E061E082E00E94D10FDF91CF911F9130
S11307100F9108951092452C1092332B1092322B86
S11307201092362B1092372B1092382B1092392BB3
S113073010923A2B1092342B1092352B80E0C3DEAA
S11307401092BC2B1092BF2B1092C02B1092C12B75
S11307501092BD2B1092BE2B80E095DF882359F0B8
S11307609091452C9F5F9093452C9091452C91300E
S113077011F49093442C08950F931F93942F811197
S113078029C08091BF2BE1E08111E0E06115710582
S1130790B1F4F0E00024F695E7950794F695E79513
S11307A00794FE2FE02DAF014C53544D0CEB13E096
S11307B020E430E061E0892F0E94D10F0BC0F0E00B
S11307C0EE0FFF1FE054F44D608371831092BC2B35
S11307D080E059DF1F910F91089580E04DCF089577
S11307E01F93CF93DF9311E080915A2C893009F045
S11307F010E060E070E03FB7F8948091BD2B9091D9
S1130800BE2B2091BF2B3FBF30E0F901EE0FFF1F3D
S1130810E054F44D408151818417950730F0809164
S1130820442C8111E8CF90E020C0F9010024F69512
S1130830E7950794F695E7950794FE2FE02DE80FCA
S1130840F91FEC53F44D2081EB01C22B01968093E8
S1130850BD2B9093BE2B80E016DF112321F07C2F5B
S1130860662710E0C8CF8C2F9D2FDF91CF911F9169
S1130870089580E0B5CF08959FB7F8948091362B02
S1130880E82FF0E0EE0FFF1FE95CF44D2081318189
S11308902034310589F44091332B41110DC040912E
S11308A0322B411109C021E02093322B811120E029
S11308B02093362B20E030E09FBF80E490E0821B41
S11308C0930B0895D9DF21E0892B09F420E0822FCE
S11308D008951F93CF93DF93162FC72FD1E08091F4
S11308E05A2C893009F0D0E080E0ECDF811107C098
S11308F08091442C8111F8CF80E090E02BC06FB739
S1130900F8942091362B30E0F901EE0FFF1FE95CDB
S1130910F44D80819181AC014F5F5F4F40835183DF
S1130920F9010024F695E7950794F695E795079461
S1130930FE2FE02D8E0F9F1FFC01E45CF44D10830D
S11309406FBFDD2329F01C2FCC0FCC0BD0E0CCCF14
S113095081E090E0DF91CF911F910895BC0180E088
S1130960B8CF0895E091602CF091612C0190F08152
S1130970E02D228133812E0F3F1FFC014081E40FC3
S1130980F11DE217F307A0F481818430A1F08613EE
S113099006C014C081818430A1F08617A9F080813B
S11309A0E80FF11DE217F307A8F380E090E0089543
S11309B080E090E0089580E090E008958E2F9F2FCE
S11309C0089580E090E008958E2F9F2F08958091E0
S11309D04C2E8F770C94140F08959091622C9923C8
S11309E081F1E091602CF091612C0190F081E02D77
S11309F09481891740F5E0935E2CF0935F2C22815B
S1130A0033812E0F3F1FE217F307F8F491819430DE
S1130A1061F49281981309C09381961306C0E09300
S1130A205E2CF0935F2C81E008959081E90FF11D15
S1130A30E217F30758F3E0935E2CF0935F2C80E009
S1130A40089580E0089580E0089580E00895FF927D
S1130A500F931F93CF93DF93C82F60E0BEDFF82E70
S1130A60882381F1A091602CB091612CEC2FF0E0EF
S1130A70EE0FFF1F12962D913C911397E20FF31F77
S1130A8000811181D8011696ED91FC911797099573
S1130A90682F8C2FA2DFF82E8823A1F0C0915E2C42
S1130AA0D0915F2C65E0CE015DDFEC01009721F071
S1130AB08A810E949210F6CFD8011296ED91FC9192
S1130AC0139709958F2DDF91CF911F910F91FF906F
S1130AD008951F93CF93DF93182F7FDF882341F16D
S1130AE0C0915E2CD0915F2C65E0CE013BDFEC0120
S1130AF0009749F04C815D816B818A810E942B0FA4
S1130B008111F2CF15C0A091602CB091612C812F7E
S1130B1090E0880F991F1296ED91FC911397E80FBE
S1130B20F91F0190F081E02D0190F081E02D0995ED
S1130B30DF91CF911F9108950C94A80E0895CF933F
S1130B408091622C8823C1F0E091602CF091612C9B
S1130B500190F081E02D8481882371F0C0E08C2F16
S1130B6076DFCF5FE091602CF091612C0190F081F1
S1130B70E02D8481C81798F31092622C81E090E0F4
S1130B808093662C9093672CCF910895CF93809196
S1130B90622C882341F1E091602CF091612CA081BA
S1130BA0B18114968C918823F1F0C0E08C2F90E0F1
S1130BB0880F991F0280F381E02DE80FF91F01903F
S1130BC0F081E02D0084F185E02D309709F009953E
S1130BD0CF5FE091602CF091612CA081B1811496DB
S1130BE08C91C81718F3CF910895EF92FF920F9349
S1130BF01F93CF93DF931092542E1092552E109280
S1130C00562E1092572E1092582E1092592E209133
S1130C104A2E22230CF097C28091502E9091512E8F
S1130C20009709F095C28BC22F7109F0B9C03091B9
S1130C304B2E363089F0383009F4A6C03111B0C0DB
S1130C40029741F462E070E086E69CE20E94220F83
S1130C5001E0F8C100E0F6C120914C2E30914D2EF8
S1130C60832F992782309105A1F01CF4019739F064
S1130C7081C083309105F1F10F9769F17BC08091B8
S1130C804E2090914F20DC016C9170E00E94220F65
S1130C9060C0E0914E20F0914F208189281708F020
S1130CA06BC0C9019927880F991F880F991FE0917C
S1130CB05020F0915120E80FF91F80819181FC01AF
S1130CC0628173810E94220FE091522EF091532E83
S1130CD082E081833EC080915220909153200097FE
S1130CE009F44CC0DC0112966D917C9113970E941B
S1130CF0220F2FC033272130310589F048F02230EC
S1130D00310509F42AC22330310509F42AC238C056
S1130D1064E070E08AE490E20E94220F1AC084E446
S1130D2090E224E0382FA6E1B0E2E82FF92F819178
S1130D3090E08D939D938E2F831B8217C0F3220F17
S1130D4062E0620F6093142070E084E190E20E94FC
S1130D50220F8091502E9091512E2091542E30913B
S1130D60552E8217930770F48093542E9093552E2A
S1130D7001E068C100E066C100E064C100E062C156
S1130D8000E060C101E05EC1019741F461E070E000
S1130D9082E69CE20E94220F01E054C100E052C1AD
S1130DA0213009F040C030914B2E3A30E1F50197E3
S1130DB0A1F58091622C882391F1C0914E2ED0919F
S1130DC04F2EE090602CF090612CD701ED91FC91B6
S1130DD08481C81730F560E08C2FFFDD082F88234D
S1130DE009F430C1CE019927880F991FD7011296B3
S1130DF0ED91FC911397E80FF91F0190F081E02D1C
S1130E000680F781E02D09958093642C61E070E001
S1130E1084E69CE20E94220F15C100E013C100E0A9
S1130E2011C100E00FC1223009F00EC120914B2EF8
S1130E30211103C1029781F480914E2E0E948C0FE0
S1130E4090E080935C2C90935D2C62E070E08CE5E4
S1130E509CE2F8D701E0F6C000E0F4C02F7109F07D
S1130E6090C080914B2E833009F4E9C018F481308E
S1130E70B1F087C0853019F0893061F182C080916A
S1130E80502E9091512E892B41F487EE94E080935B
S1130E90562E9093572E01E0D5C000E0D3C0809128
S1130EA0502E9091512E892B89F480914C2E909143
S1130EB04D2E019769F48091662C9091672C8D7F5B
S1130EC08093662C9093672C01E0BCC000E0BAC00C
S1130ED000E0B8C08091502E9091512E892B09F0DA
S1130EE046C0A5D7882309F444C020914C2E3091E4
S1130EF04D2E3327E0914E20F0914F20818990E0D0
S1130F0082179307C0F11BDE80914C2E90914D2ED9
S1130F108093622C882389F199278150904C880F03
S1130F20991F880F991FE0915020F0915120E80FEC
S1130F30F91FE093602CF093612C0190F081E02D77
S1130F4084818823E1F0C0E060E08C2FC2DD082FAB
S1130F50882309F477C0CF5FE091602CF091612C75
S1130F600190F081E02D8481C81770F36BC000E01C
S1130F7069C000E067C000E065C001E063C001E053
S1130F8061C0213009F580914B2E8B30E9F48091BA
S1130F90502E9091512E892B99F48091622C8823A4
S1130FA089F0C0914E2ED0914C2E8C2F50DD082FFD
S1130FB0882309F447C06D2F8C2F8BDD082F42C086
S1130FC000E040C000E03EC0223009F03DC0809106
S1130FD04B2E813019F08330B1F033C08091502E04
S1130FE09091512E892B59F480914C2E90914D2E35
S1130FF0892B39F480914E2EAAD7082F23C000E004
S113100021C000E01FC08091502E9091512E892B59
S113101081F480914C2E90914D2E892B61F4CEE475
S1131020DEE288810E94591088810E94AF10082F47
S113103009C000E007C000E005C000E003C000E014
S113104001C000E0011191C080914A2E8F7181305E
S1131050C1F58091622C8823A1F1C0914E2ED091CC
S11310604F2E0091602C1091612CD801ED91FC91D0
S11310708481C81730F560E08C2FAFDC882309F138
S1131080CE019927880F991FD8011296ED91FC91F2
S11310901397E80FF91F00811181D8011696ED917D
S11310A0FC9117970995682F8C2F97DC882349F0BA
S11310B0D8011496ED91FC9115970995082F81118B
S11310C054C080914A2E8F718230D9F58091622C60
S11310D0882389F1E091602CF091612CA081B18189
S11310E014968C91882349F110E0212F30E0220FCF
S11310F0331F0280F381E02DE20FF31FC081D18101
S1131100EE81FF810995682F812F67DC082F8823E2
S113111061F1EC81FD810995082F811126C01F5FC3
S1131120E091602CF091612CA081B18114968C9196
S11311301817D8F21AC000E018C000E016C000E08A
S113114014C000E012C0822F807609F07DCF86CED5
S1131150322F307609F078CF67CD2FE084E390E228
S1131160E1CD21E08CEF90E2DDCD802FDF91CF91B6
S11311701F910F91FF90EF900895CF92DF92EF921D
S1131180FF920F931F93CF93DF93EC016A017B01CE
S1131190DB01CA010197A109B109BC01CD01600FAE
S11311A0711F821F931FA70196010E94932C21385F
S11311B0310541055105F8F4213460F4213260F41D
S11311C0213160F4293060F4253060F4233060F07C
S11311D090E00BC093E009C092E007C092E805C01C
S11311E091E003C091E801C090E888818C77892B55
S11311F0888381E001C08FEFDF91CF911F910F9120
S1131200FF90EF90DF90CF900895CF93DF93E0911C
S1131210682CF091692C848183FF08C088608483E2
S113122083E0838386EF8093722C89C0982F947116
S113123031F083E083838FEF8093722C80C086FF2C
S113124045C0A0916A2CB0916B2C80916C2C90912C
S11312506D2C14962D913C911597821793076CF47D
S11312609C012F5F3F4F20936C2C30936D2CA80F63
S1131270B91F11968C91878362C080916E2C9091D6
S11312806F2C18962D913C91199782179307C8F4E7
S11312902091702C222321F08681816086834FC0A7
S11312A016962D913C911797AC014F5F5F4F409379
S11312B06E2C50936F2CD901A80FB91F8C91878382
S11312C03EC083E083831092722C39C08823A4F536
S11312D0A0916A2CB0916B2C80916E2C90916F2C04
S11312E018962D913C91199782179307F8F4169646
S11312F04D915C9117979C012F5F3F4F20936E2C6B
S113130030936F2C6781EA01C80FD91F6883189640
S11313108D919C9119972817390718F482E08383DB
S11313200EC087E083831092722C09C083E083830C
S113133089EF8093722C03C08BEF8093722CDF9122
S1131340CF9108951F920F920FB60F9211242F93ED
S11313503F934F935F936F937F938F939F93AF9339
S1131360BF93EF93FF9351DFFF91EF91BF91AF9143
S11313709F918F917F916F915F914F913F912F91A9
S11313800F900FBE0F901F9018951F920F920FB6DB
S11313900F9211242F933F934F935F936F937F93F7
S11313A08F939F93AF93BF93EF93FF932EDFFF91A0
S11313B0EF91BF91AF919F918F917F916F915F91C9
S11313C04F913F912F910F900FBE0F901F90189542
S11313D0FC01818185FFFDCF608380E090E008956A
S11313E04F925F926F927F928F929F92AF92BF9231
S11313F0CF92DF92EF92FF920F931F93CF93DF93DD
S1131400EC014A015B0128013901D901C801689442
S113141012F8B695A795979587951694D1F7B901C3
S1131420A801032E36E176956795579547953A9529
S1131430D1F7302D2C8122FD08C0B695A79597953C
S11314408795769567955795479588159905AA05C3
S1131450BB0508F4A6C084169506A606B70608F4CC
S1131460A2C08C8182FD04C0880C991CAA1CBB1CE0
S1131470C301B201A50194010E94932C2F3F3105B1
S11314804105510508F491C0C12CD12C7601CA94B0
S113149019EF05C02C153D054E055F0568F0CC0C11
S11314A0DD1CEE1CFF1C1D3F14F46894C0F81F5F84
S11314B0173081F7212F50C0212F11230CF04CC07D
S11314C0D501C401880F991FAA1FBB1F880F991F3C
S11314D0AA1FBB1F880F991FAA1FBB1F481A590AAE
S11314E06A0A7B0A1E3FF4F46DEF7FEF611B7109FA
S11314F017FD739504C0440C551C661C771C6A9533
S1131500D2F7D501C401B695A79597958795BC01E7
S1131510CD01640D751D861D971DA50194010E94C2
S1131520932C36C023E0210FD501C40104C0880FD9
S1131530991FAA1FBB1F2A95D2F79C01AD01B6952E
S1131540A79597958795BC01CD01640D751D861DE2
S1131550971D0E94932C1CC02D5FD501C40104C0AB
S1131560880F991FAA1FBB1F2A95D2F79C01AD01B2
S1131570B695A79597958795BC01CD01640D751D0A
S1131580861D971D0E94932C215031094109510950
S1131590832F8F701295107F182B1F832E8381E069
S11315A018C080E016C080E014C0D501C401880FC3
S11315B0991FAA1FBB1F880F991FAA1FBB1F880F43
S11315C0991FAA1FBB1F481A590A6A0A7B0A19EFF6
S11315D08BCFDF91CF911F910F91FF90EF90DF9010
S11315E0CF90BF90AF909F908F907F906F905F90BF
S11315F04F9008950F931F93CF93DF93EC018B01CA
S1131600009709F4BEC0803C910521F460E180E0BC
S1131610B4D7B7C0C11584E0D80721F464E080E0F2
S1131620ACD7AFC0C038E1E0DE0721F462E080E06F
S1131630A4D7A7C0C115F1E0DF0721F461E080E081
S11316409CD79FC0C03883E0D80721F461E081E0D3
S113165094D797C0C115E2E0DE0721F462E081E08F
S11316608CD78FC0C032F3E0DF0721F464E082E05E
S113167084D787C0C11588E0D80721F461E083E0EE
S11316807CD77FC0C115E9E0DE0721F461E084E086
S113169074D777C0C115FAE0DF0721F461E085E073
S11316A06CD76FC0C03488E0D80721F462E083E0CF
S11316B064D767C0C034E9E0DE0721F462E084E067
S11316C05CD75FC0C039F8E0DF0721F464E083E051
S11316D054D757C0C03989E0D80721F464E084E0C6
S11316E04CD74FC0C039EAE0DE0721F464E085E05E
S11316F044D747C0C03CF8E0DF0721F468E083E04A
S11317003CD73FC0C03C89E0D80721F468E084E0BE
S113171034D737C0C03AE8E0DE0721F460E183E063
S11317202CD72FC0C03AF9E0DF0721F460E184E050
S113173024D727C0C03A8AE0D80721F460E185E0C5
S11317401CD71FC0C03BE8E0DE0721F460E283E061
S113175014D717C0C03BF9E0DF0721F460E284E04E
S11317600CD70FC0C03884E0D80721F460E483E0CC
S113177004D707C0C03AE4E0DE0719F460E485E06A
S1131780FCD68D818F738D83F80194818581892B9B
S11317909681992311F098E001C090E0892B8D8304
S11317A0F801408151816281738100E01CE62CEDD7
S11317B032E0CE0115DE9C8198609C839C8190610F
S11317C09C83DF91CF911F910F910895811118C0CF
S11317D09091A02D992389F09FB7F894EBE5FEE250
S11317E02081215020839FBF08C09FB7F894EBE568
S11317F0FEE220812F5F20839FBF8093A02D089558
S11318009091A02D992389F3F8CF0F93E8ECF4E09D
S113181080818F7D808380818F7D8083E4E7FDE2FA
S113182002E005931092762D1092772D00E2069334
S113183000E40693ECE6FDE200E2069300E406937E
S11318401092562E1092572E1092582E1092592EF6
S11318501092542E1092552E10925C2D0F910895D3
S11318600F9385E080935C2DE5E7FDE204E00593AA
S1131870EDE6FDE204E005930F9108950F9383E0F4
S113188080935C2D1092762D1092772DE4E7FDE283
S113189002E006930F910895E091562EF091572E91
S11318A0309709F0099508950F93CF93DF938091B2
S11318B05C2D833019F4F0DFA8DF60C08091582DCF
S11318C09091592DC091542ED091552EC81BD90BEF
S11318D071F520915A2D30915B2D820F931F8093C7
S11318E05A2D90935B2D2091502E3091512E8217BA
S11318F0930721F08091732C882341F084E0809336
S11319005C2DECE6FDE202E0069338C0E091582E2F
S1131910F091592E309799F00995882381F010920F
S1131920582D1092592DC091542ED091552EC0345B
S1131930D10528F01092732CC0E4D0E003C081E0FC
S11319408093732CC093762DD093772D8091582D4E
S11319509091592D2091522E3091532E280F391FDA
S11319602093782D3093792DC80FD91FC093582D0B
S1131970D093592DE4E7FDE202E00693DF91CF9185
S11319800F910895FC018181877090E0FC013197EB
S1131990E730F10520F4E250FF4F0C94B52C88E0B9
S11319A090E0089580E290E0089580E490E0089546
S11319B080E890E0089580E091E0089580E092E06E
S11319C008958FEF93E0089580E190E00895282F23
S11319D02F7030E0220F331F992787FD90958827B9
S11319E0990F881F9927820F931F02979C01220F3A
S11319F0331F220F331F220F331F820F931F8C506C
S1131A00934D08950F93CF938091CC0480FF62C0CF
S1131A1081E08093CC04ECE6FDE200E80693E4E781
S1131A20FDE200E806938093CA04ECE6FDE200E1DF
S1131A30069380915C2D882329F08350823008F42A
S1131A402BDFE3DE80916E2D90916F2D089709F0C6
S1131A5043C088E0E8E1FDE2AAE4BEE201900D9211
S1131A608A95E1F7E8ECF4E08081806280838081EC
S1131A7080628083BAD8C82F811103C0F1DEC1E02F
S1131A802CC080914A2E88236CF410925A2D109207
S1131A905B2D1092582D1092592D82E080935C2D6D
S1131AA003DF1BC02091502E3091512E232B11F4B3
S1131AB0E5DE13C010925A2D10925B2D1092582D12
S1131AC01092592D81E080935C2DECE6FDE202E05A
S1131AD0069303C0C0E001C0C1E08C2FCF910F91E9
S1131AE00895BF92CF92DF92EF92FF920F931F93CC
S1131AF0CF93DF93B82E6BDFEC011B2D111F112741
S1131B00111F8B2D8F70E82EF12CEE0CFF1CE10EB3
S1131B10F11CC701880F991F880F991F880F991FFF
S1131B209C012459324D7901C9012CDF6C01112328
S1131B3009F45BC0D70116962D913C9117978D81BE
S1131B409E81280F391F2D833E838B819C8128170A
S1131B503907C9F1FC01E21BF30B9F012115F4E0E5
S1131B603F0740F02FEF33E0C901B6010E947F2CFC
S1131B70281B390B888181FF0AC0C901B6010E9464
S1131B807F2C41E0892B09F040E0942F01C090E0C4
S1131B90888190FB81F98883D70116961D921C9247
S1131BA0179712962D933C93139729813A818D812F
S1131BB09E81820F931F14968D939C931597F70122
S1131BC002E0069398C0888181FF87C08D7F888357
S1131BD0D70116961D921C92179712961D921C926D
S1131BE01397F70102E0069386C0D70112960D9170
S1131BF01C911397888182FF15C0E981FA812D8198
S1131C003E818B819C81B6010E947F2CB0E4BB9EF7
S1131C10B00111246C5C734DAC01CF01820F931F92
S1131C200E94522D2D813E81200F311F2D833E8332
S1131C30EB81FC81E217F30710F4ED83FE83D701F7
S1131C4016968D919C9117978017910709F045C0BE
S1131C508D819E81E817F90709F43FC0E81BF90B51
S1131C60E115B4E0FB0748F0EFEFF3E0CF01B60174
S1131C700E947F2CE81BF90B06C0CF01B6010E941D
S1131C807F2CE81BF90BD70112961D921C92139717
S1131C90EC15FD0578F4888184608883B0E4BB9EEC
S1131CA0C00111248C5C934DF70184839583C68213
S1131CB0D7820FC029813A818D819E81820F931F23
S1131CC0D70114968D939C9315971696ED93FC93D8
S1131CD01797F70102E006930EC0888180FF0BC0BE
S1131CE08E7F8883EF81F885309729F06D817E811E
S1131CF04B2D80E00995DF91CF911F910F91FF90BB
S1131D00EF90DF90CF90BF900895CF93CFB7F89422
S1131D1081E05CDDEAECF4E080E4808380E28083AF
S1131D20E1ECF4E0808181608083A9ECB4E08C91E3
S1131D3082608C93E8ECF4E08081806480838C91F1
S1131D4081608C93808180688083CFBFCF91089518
S1131D50CF9380E31ED4E0ECF4E080818064808340
S1131D60CFB7F89410926D2D1092752D10927D2D91
S1131D701092852D10928D2D1092952DE4EFFCE29A
S1131D8080818E7F8083EDEFFCE280818E7F808373
S1131D90E6E0FDE280818E7F8083EFE0FDE28081DA
S1131DA08E7F80836AE170E082E0ECD48F3F19F08B
S1131DB08093FA0403C08FE18093FA046BE170E02E
S1131DC082E0E0D48F3F19F08093FB0403C08FE1DD
S1131DD08093FB04E0ECF4E0808182608083808166
S1131DE0806880838081806180838CE69DE2868325
S1131DF097838081806280838FEF8093C504E8ECB1
S1131E00F4E08081816080831092A02D8FB7F894D4
S1131E10EFE5FEE290819F5F90838FBF76DFCFBFB7
S1131E20CF91089580E008958093C304089580912C
S1131E30C304089580919C2D90919D2D089580E078
S1131E4090E008958093522E9093532E6093542ED5
S1131E507093552E0895E82FEF70F0E0EE0FFF1FFA
S1131E60992787FD90958827990F881F9927E80F50
S1131E70F91FEE0FFF1FEE0FFF1FEE0FFF1FE459B8
S1131E80F24D8181807C09F043C06370613029F098
S1131E9010F480E403C080E801C080EC40385105B0
S1131EA0E1F050F440325105A1F04034510599F06D
S1131EB04031510561F419C0411592E0590789F088
S1131EC04F3F93E0590779F04115514041F020E02C
S1131ED00DC022E00BC023E009C024E007C025E0C8
S1131EE005C026E003C027E001C021E0118296E08E
S1131EF09083822B81838181807C803C21F4818149
S1131F008770873039F081818062818381E0089510
S1131F1080E0089581E00895E82FEF70F0E0EE0F7F
S1131F20FF1F992787FD90958827990F881F992768
S1131F30E80FF91FEE0FFF1FEE0FFF1FEE0FFF1F3D
S1131F40E459F24D818182FB882780F90895E82FB6
S1131F50EF70F0E0EE0FFF1F282F332727FD309599
S1131F602227330F221F3327E20FF31FEE0FFF1F29
S1131F70EE0FFF1FEE0FFF1FE459F24D918192FF08
S1131F800EC091819B7F918322DDFC01808180FFC3
S1131F9006C08E7F80830780F085E02D099581E05F
S1131FA008957F928F929F92AF92BF92CF92DF92C9
S1131FB0EF92FF920F931F93CF93DF93982E862E69
S1131FC05A01690104DD7C01792C771C7724771C84
S1131FD0C92DCF70D0E0CC0FDD1FC70DD11DCC0FA4
S1131FE0DD1FCC0FDD1FCC0FDD1FC459D24D8981FD
S1131FF0807C09F44CC08981807C803C19F0898103
S113200082FD47C08FB7F894F701908190FF03C019
S11320108FBF712C3FC0F7019081916090838FBF77
S1132020F701A182B282C382D48215821682078309
S11320301087811006C091E0C114D10419F090E01A
S113204001C091E0F701808190FB81F98B7F80834F
S1132050772019F01E821F8215C08981807C803C04
S113206069F4CE018FDCBC01C6010E947F2C892B50
S113207029F0F70180818E7F80830CC01A821B8235
S11320801E821F82892D2DDD7724739403C0712C49
S113209001C0712C872DDF91CF911F910F91FF907B
S11320A0EF90DF90CF90BF90AF909F908F907F90F4
S11320B00895FF920F931F93CF93DF93182FF82E59
S11320C0FF1CFF24FF1CC82FCF70D0E0CC0FDD1FF6
S11320D0CF0DD11DCC0FDD1FCC0FDD1FCC0FDD1FAD
S11320E0C459D24D74DCDC01FE0102E005938C91ED
S11320F080FF12C08E7F8C931796ED91FC911897F8
S1132100309751F0FF2019F06E817F8102C06A81FF
S11321107B81412F81E00995DF91CF911F910F9130
S1132120FF900895CF93C82FC4DFEC2FEF70F0E039
S1132130EE0FFF1F8C2F992787FD90958827990F05
S1132140881F9927E80FF91FEE0FFF1FEE0FFF1FDF
S1132150EE0FFF1FE459F24D1182CF9108950F93B2
S1132160E82FEF70F0E0EE0FFF1F282F332727FD35
S113217030952227330F221F3327E20FF31FEE0F70
S1132180FF1FEE0FFF1FEE0FFF1FE459F24D918169
S11321909460918301E006938CDF81E00F910895B0
S11321A01F920F920FB60F9211240F932F933F9308
S11321B04F935F936F937F938F939F93AF93BF934B
S11321C0EF93FF938091CB04882334F480E88093C9
S11321D0CA040E94C60588C08091CB0482FF20C037
S11321E084E08093CA048091742D86FF7DC0809121
S11321F0CC0481FD79C006DC811176C080915C2D10
S1132200813011F43BDB70C0843009F06DC0E5E728
S1132210FDE204E00593EDE6FDE204E0059364C00D
S11322208091CB0481FF5BC082E08093CA048091DB
S11322306C2D86FF59C08091CC0481FD55C0E2DB32
S1132240811152C080915C2D823041F484E08093EE
S11322505C2DECE6FDE202E0069346C0833009F013
S113226043C0E5E7FDE204E00593EDE6FDE204E0AA
S113227005933AC080E18093CA0481E01ADF81E8C3
S113228018DF0E949F051092C304EDE6FDE2108260
S113229096E090936C2D83E48083E5E7FDE2108261
S11322A09093742D808388E19DE28093702D9093A8
S11322B0712DABDA19C08091CB0486FF06C080E48F
S11322C08093CA0480E082DA0FC08091CB0485FF3A
S11322D00BC080E28093CA0481E078DA05C0809163
S11322E0CB0484FFE8CFC6CFFF91EF91BF91AF91AC
S11322F09F918F917F916F915F914F913F912F911A
S11323000F910F900FBE0F901F9018951F920F9270
S11323100FB60F9211240F931F932F933F934F9354
S11323205F936F937F938F939F93AF93BF93CF9359
S1132330DF93EF93FF938091CC0481FD03C062DBB4
S11323408111B9C082E08093CC048091C504819549
S1132350880FECE6FDE2E81BF109208131812C565F
S11323603D42369527953695279536952795822FA4
S1132370869520FF02C090E801C090E0890FE82F05
S1132380EF70F0E0EE0FFF1F282F332727FD309565
S11323902227330F221F3327E20FF31FEE0FFF1FF5
S11323A0EE0FFF1FEE0FFF1FE459F24D908195FFD2
S11323B082C000E20693811179C080915C2D843043
S11323C019F46ADA22DA77C0C0916E2DD0916F2D9C
S11323D08091542E9091552E0091582D1091592D85
S11323E098012C0F3D1F8217930718F4EC01C01BB2
S11323F0D10B8091522E9091532EAE0168E17DE273
S1132400800F911F0E94522D0C0F1D1F0093582DF9
S11324101093592DC034D10569F480915A2D9091AF
S11324205B2D800F911F2091502E3091512E8217D9
S1132430930788F00093542E1093552EE091582E54
S1132440F091592E309729F00995811102C008DACC
S113245032C014DA30C08091542E9091552E081752
S11324601907F9F4E091582EF091592E309711F490
S1132470F7D921C00995811102C0F2D91CC020915D
S11324805A2D30915B2D8091582D9091592D820FAA
S1132490931F80935A2D90935B2D1092582D109278
S11324A0592DECE6FDE202E0069305C0803811F4F4
S11324B0FBD901C016DBFF91EF91DF91CF91BF9162
S11324C0AF919F918F917F916F915F914F913F91C8
S11324D02F911F910F910F900FBE0F901F90189581
S11324E0CF93DF9300D000D0CDB7DEB78FEF8093CA
S11324F070008093710080937200809373008093C6
S1132500740080937500809376006CE170E082E043
S113251039D18A836DE170E082E034D18983898185
S11325209A81019621F480E493E289839A838981D4
S11325309A818B839C83E0E6F0E082838C818383A1
S11325408FB7F894E0E5F0E09081926090838FBFBC
S1132550818181FFFDCF61E080E490E01DD18FB7E0
S1132560F894E0E5F0E090819E7F90838FBF2496FD
S1132570CDBFDEBFDF91CF9108959FB7F894E82FC8
S1132580F0E0E059FF4F60958081682360839FBF2E
S11325900895863011F468E101C060E0E0E5F0E000
S11325A0818181FD09C08FB7F894908192609083F6
S11325B08FBF818181FFFDCF636084E490E0ECD024
S11325C060E480E0DACF0895CF93DF939B01E0ECE1
S11325D0F1E067856623ECF3CCECD1E068816860B8
S11325E06883BC01705FC9010E94522D8881877F76
S11325F08883DF91CF910895E0ECF1E0878588230B
S1132600ECF3E0ECF1E0878581FF06C086E3828786
S113261061E08BEC91E0C0C00895E0ECF1E09785B7
S11326209923ECF3ECECF1E0908198609083A82F6F
S1132630B0E0B05F6C938081877F80830895FF92C0
S11326400F931F93CF93DF93182FF92EC62FE0EC2F
S1132650F1E00285D1DFE0ECF1E027852223ECF301
S11326606C2F812FDADFC0ECD1E01A82F982188353
S113267085E38A8761E08BEC91E08ED00A87DF9155
S1132680CF911F910F91FF900895EF92FF920F93B6
S11326901F93CF93DF938C01E0ECF1E087858823CF
S11326A0ECF3780180E2E80EF11CE8018C2F801B2A
S11326B06991B3DFCE15DF05C9F7DF91CF911F9183
S11326C00F91FF90EF9008951F93CF93DF93E0EC69
S11326D0F1E097859923ECF320E2829FC001112455
S11326E0C0ECD1E01A82998388831A8585E38A87AE
S11326F061E08BEC91E050D01A87DF91CF911F916C
S11327000895CF92DF92EF92FF920F931F93CF938E
S1132710DF93EC017B018A014115510551F1CE0192
S11327208F719927892BB1F40032110598F0C701F4
S1132730ACDFCE0196958795929582958F70892707
S11327409F708927C1DFA09680E2E80EF11C005239
S113275011090CC06E01EFEFCE1ADE0AF701619188
S11327607F01CE016CDF01501109E601011511054D
S1132770B1F6DF91CF911F910F91FF90EF90DF9011
S1132780CF9008954091CA01E62FF72F8093CA0194
S113279084914093CA0108951BBEFC0128ED24BF17
S11327A060830895CF93DF93CDB7DEB72797CDBF6E
S11327B0DEBF8091B6208D838091B7208E83809177
S11327C0B8208F838091B2209091B320A091B4203F
S11327D0B091B52089839A83AB83BC8360E184E0A4
S11327E0CCDEBE016F5F7F4F80EA99E00E94FA0A57
S11327F02796CDBFDEBFDF91CF910895CF93DF93AE
S1132800FC016081662349F0EC01219680EA99E09D
S11328100E94E80969916111F9CFDF91CF91089580
S11328208EEF90E2EBCF08958F929F92AF92BF927A
S1132830CF92DF92EF92FF920F931F93CF93DF9388
S1132840CDB7DEB72897CDBFDEBF8C016B01FC018D
S113285001900020E9F731977F01E81AF90A1982FB
S11328601A821B821C821D821E821F821886C70147
S113287099279F938F9322E137E23F932F930E94EE
S1132880712D0F900F900F900F9080E5E8125DC0AE
S1132890B8016F5F7F4F4CE050E0C6010E94622D8B
S11328A0B801635D7F4F44E150E0C6010D960E947C
S11328B0622DB8016F5B7F4F4CE050E0C6018296F9
S11328C00E94622DB801605F7F4F42E050E0FE013C
S11328D031965F01CF010E94622DB801655D7F4F83
S11328E04E01F4E08F0E911C42E050E0C4010E94BE
S11328F0622DF601148611A216A67E01F7E0EF0EF2
S1132900F11CFF92EF9206E11AE21F930F93BF921C
S1132910AF920E94DF2D8F81992787FD9095F60154
S113292087A790ABFF92EF921F930F939F928F9282
S11329300E94DF2D8F81992787FD9095F60181AB49
S113294092ABCDBFDEBF81E001C080E02896CDBF51
S1132950DEBFDF91CF911F910F91FF90EF90DF9039
S1132960CF90BF90AF909F908F90089587E091E2B1
S113297045DF80E094EDA0E3B0E00197A109B1093F
S11329800097A105B105C9F74BDF80E09AE6A8E1FD
S1132990B0E00197A109B1090097A105B105C9F7F4
S11329A08BE091E22BCF08950F931F93CF93DF9386
S11329B000D01F92CDB7DEB76115710529F4806888
S11329C0898381E090E014C0806C8983603871054C
S11329D020F46A8382E090E00BC0862F80688A83AB
S11329E0660F672F661F770B71956B8383E090E00A
S11329F0BE016F5F7F4F0E94EA212396CDBFDEBFE9
S1132A00DF91CF911F910F9108950F931F93FA01B6
S1132A109A01280F391F2130344068F49C01225058
S1132A20310940E050E08B01BF0189E090E0BCDF58
S1132A3080E090E002C08FEF9FEF1F910F91089507
S1132A400F931F93CF93DF9300D01F92CDB7DEB7C0
S1132A506115710521F4898381E090E014C08064DC
S1132A6089836038710520F46A8382E090E00BC0AA
S1132A70862F80688A83660F672F661F770B719590
S1132A806B8383E090E0BE016F5F7F4F0E9425223D
S1132A902396CDBFDEBFDF91CF911F910F91089593
S1132AA00F931F939B01BA0140E050E08C0181E138
S1132AB090E0C6DF1F910F9108950F931F938C012F
S1132AC025E030E040E050E060E070E087E190E035
S1132AD0B7DF1F910F9108950F931F938C0125E089
S1132AE030E040E050E060E070E085E190E0A8DF95
S1132AF01F910F910895EF92FF920F931F93CF931D
S1132B00DF9300D000D0CDB7DEB79E012F5F3F4FDB
S1132B10890124E030E040E050E092DFFE01359688
S1132B2060E070E0CB01B82FA72F962F8827229161
S1132B30BC01CD01620F711D811D911DE017F107CC
S1132B4091F72496CDBFDEBFDF91CF911F910F91F6
S1132B50FF90EF90089560E070E080E090E0CBCFCC
S1132B6008950F931F93CF93DF9300D0CDB7DEB7B3
S1132B708E010F5F1F4F22E030E040E050E060DF45
S1132B808A8190E0982F88272981820F911D0F90C8
S1132B900F90DF91CF911F910F9108950F931F9381
S1132BA0CF93DF931F92CDB7DEB78E010F5F1F4F18
S1132BB021E030E040E050E043DF89810F90DF9175
S1132BC0CF911F910F9108950F931F93CF93DF938C
S1132BD01F92CDB7DEB749838E010F5F1F4F21E0EF
S1132BE030E040E050E0E0DE0F90DF91CF911F91A4
S1132BF00F9108950F931F93CF93DF9300D0CDB718
S1132C00DEB749835A838E010F5F1F4F22E030E005
S1132C1040E050E0C9DE0F900F90DF91CF911F91FB
S1132C200F910895AC0164E078E18EE290E0E2CF88
S1132C300895AC0160E070E088E190E0DBCF089596
S1132C400F931F93CF93DF9300D000D0CDB7DEB79F
S1132C5029833A834B835C838E010F5F1F4F24E0EB
S1132C6030E040E050E0A0DE2496CDBFDEBFDF912F
S1132C70CF911F910F910895CF92DF92EF92FF921F
S1132C800F931F938C01CA01AA2797FDA095BA2F11
S1132C90072E7FE0880F991FAA1FBB1F7A95D1F7D3
S1132CA0702DE091B920F091BA20C284D384E484D9
S1132CB0F5848C299D29AE29BF2920E030E0802BA2
S1132CC0912BA22BB32BAB0160E070E0032E36E115
S1132CD0440F551F661F771F3A95D1F7302D9A017F
S1132CE0AB01282B392B4A2B5B2B60E070E088E08A
S1132CF090E0A6DF1F910F91FF90EF90DF90CF90AF
S1132D000895AB0164E070E08DE290E073DF43E08E
S1132D1066E070E08DE290E057DF40E066E070E04E
S1132D208DE290E051DF6AE070E08DE290E0E3CE66
S1132D30089540E062E070E08CE290E045DF42E01C
S1132D4062E070E08CE290E03FCF0895CF93DF9390
S1132D50EC014DE666E078E08EE290E035DFCD2BC5
S1132D6041F047E056E066E078E18EE290E042DF31
S1132D7007C047E056E166E078E18EE290E03ADF92
S1132D80DF91CF9108954F925F926F927F92AF92AD
S1132D90BF92CF92DF92EF92FF920F931F93CF9344
S1132DA0DF93EC01488059806A807B80842DEC8914
S1132DB0FD89EE0FFF1FED5DFC4DC080D1800C81BD
S1132DC00150843041F021E090E0873009F020E0A8
S1132DD0E22EF92E03C0EE24E394F12C8C8D9D8D0C
S1132DE0AE8DBF8D892B8A2B8B2BA1F4E091B9205A
S1132DF0F091BA2080899189A289B389A064808BDB
S1132E00918BA28BB38BD694C794D694C794D69443
S1132E10C7940DC0E091B920F091BA2080899189BE
S1132E20A289B389AF7B808B918BA28BB38BE0910A
S1132E30B920F091BA2088A1808780899189A289DC
S1132E40B389AC7F808B918BA28BB38B48A159A1A2
S1132E506AA17BA1BA0155274427442755276370EB
S1132E6077279A01AB01282B392B4A2B5B2B208B1C
S1132E70318B428B538B60E070E084E090E0E0DEC5
S1132E80A60164E078E28EE290E0B4DE10E0C801CE
S1132E905DDFE42DF0E0E853FC4DA080B12C65012A
S1132EA0CC0CDD1CCC0CDD1CF601E856FC4D20815D
S1132EB031814281538167E070E08BE290E0C0DEB3
S1132EC0F501EE56FC4D40816BE070E08BE290E042
S1132ED07BDEF701FF27E057FC4D40816BE070E09B
S1132EE088E290E071DEF601E055FC4D20813181ED
S1132EF0428153816CE070E088E290E0A1DEEC8DC9
S1132F00FD8DEE0FFF1F888D998DE80FF91FEE0FD1
S1132F10FF1FE758FC4D4081518162E070E087E279
S1132F2090E068DEF801EE0FFF1FEB58FC4D408186
S1132F30518164E070E087E290E05CDE8C8D9D8DD1
S1132F40AE8DBF8D892B8A2B8B2B41F444E650E048
S1132F5066E070E087E290E04DDE23C088859985C5
S1132F60AA85BB850497A105B10571F440E150E041
S1132F7066E070E087E290E03DDE40E166E270E00A
S1132F8087E290E021DE0DC040E250E066E070E0B0
S1132F9087E290E02FDE48E266E270E087E290E0AC
S1132FA013DE8C859D85F801EE0FFF1FEE0FFF1FCA
S1132FB0E80FF91FEE0FFF1FEE0FFF1FEB5AFC4D3A
S1132FC0208131814281538168E070E087E290E0A2
S1132FD037DE8CA19DA1AEA1BFA1892B8A2B8B2B9F
S1132FE041F481E490E1A0E0B0E08CA39DA3AEA302
S1132FF0BFA34CA15DA160E270E087E290E0FADD3E
S1133000209188233091892340918A2350918B23E6
S11330106CE070E083E290E013DEF801EE0FFF1F36
S1133020E457FC4D4081518164E070E083E290E01C
S1133030E1DD888D998DAA8DBB8D892B8A2B8B2BF5
S113304069F0EC8DFD8DEB57FC4D408160E070E044
S113305081E290E0B9DDE1E083E002C0E0E080E0FD
S11330600C891D892E893F890F2EFBE1000F111F4A
S1133070221F331FFA95D1F7F02DB301A2014F702F
S1133080552766277727042B152B262B372B4C81A6
S11330905D816E817F81032E32E1440F551F661FCF
S11330A0771F3A95D1F7302D442755276C70772731
S11330B0042B152B262B372B488959896A897B8940
S11330C0032E36E1440F551F661F771F3A95D1F73B
S11330D0302D44275527607C7770042B152B262B25
S11330E0372B552466247724B301A201440F551FBE
S11330F0661F771F440F551F661F771F440F551F08
S1133100661F771F440F551F661F771F55276627B5
S11331107727402B512B622B732B90E0A0E0B0E07B
S1133120072E74E1880F991FAA1FBB1F7A95D1F748
S1133130702D842B952BA62BB72B4E2E512C612C46
S1133140712C032E31E1440C551C661C771C3A95F6
S1133150D1F7302DA3019201282B392B4A2B5B2B5D
S113316060E070E08FE190E06BDD4C815D816E8109
S11331707F8188859985AA85BB85842B952BA62B71
S1133180B72BBC01552744278C8D9D8DAE8DBF8DEB
S1133190072E7DE0880F991FAA1FBB1F7A95D1F7D0
S11331A0702D9A01AB01282B392B4A2B5B2BE09114
S11331B0B920F091BA20228733874487558760E08D
S11331C070E088E090E03CDD42E460E070E08DE097
S11331D090E0FADCDF91CF911F910F91FF90EF9077
S11331E0DF90CF90BF90AF907F906F905F904F90A3
S11331F00895CF92DF92EF92FF926B017C0160E021
S113320070E08AE190E077DCDC01CB018827992724
S1133210A07F2FE0E222FF249C01AD012C293D294F
S11332204E295F2960E070E08AE190E009DDFF90BB
S1133230EF90DF90CF900895E091B920F091BA20FB
S113324080A391A362A373A344A355A326A337A386
S11332500895CF93C82F80FF20C060E070E086E21D
S113326090E049DCDC01CB01937C9C01AD0134612D
S113327060E070E086E290E0E3DC60E070E086E32A
S113328090E039DC9B01AC01446860E070E086E3C7
S113329090E0D6DCC1FD19C00EC060E070E086E2AB
S11332A090E029DC9B01AC01337C60E070E086E2B5
S11332B090E0C6DC1CC020E131E040E050E068E270
S11332C070E086E390E0BCDC12C020E131E04FE026
S11332D050E068E270E086E390E0B2DC20E131E0A7
S11332E040E050E068E270E086E390E0A9DCCF9132
S11332F00895EF92FF920F931F93CF93DF9300D023
S1133300CDB7DEB77C018E010F5F1F4F22E030E0A6
S113331040E050E060E070E086E390E091DB8FE015
S1133320E816F104A0F5F701EB5FFE4F0C94B52C01
S113333019828A818E7F8A832AC089818C7F8160E9
S1133340898325C089818C7F8260898320C089819B
S1133350837B886489838A8180688A8318C0898191
S1133360837B89838A818F778A8311C08A81826073
S11333708A830DC08A818D7F8A8309C089818F7C6D
S11333808062898304C081E0898383E08A838E011B
S11333900F5F1F4F21E030E040E050E060E070E05C
S11333A086E390E001DB0F5F1F4F21E030E040E057
S11333B050E061E070E086E390E0F6DA0F900F9061
S11333C0DF91CF911F910F91FF90EF9008958EE0C0
S11333D090E08FDF40E050E866E070E08DE290E03E
S11333E009DC81E090E064D781E090E082CF089529
S11333F080E090E07EDF40E050E064E070E086E34F
S113340090E0F8CB08959B01AC0161E070E08AE0A4
S113341090E016CC0895CF93C82F81FF0EC040E8EA
S113342060E070E08DE090E0CFDBE091B920F091B6
S1133430BA2081E0868B40E801C040E0C0FF1DC097
S1133440466060E070E08DE090E0BEDB63E070E039
S11334508FE090E086DB88709470892BB9F040E4AB
S113346060E070E08DE090E0AFDBE091B920F09196
S1133470BA20168A8FEF9FEF0BC0426060E070E0C5
S11334808DE090E0A1DB80E090E002C080E090E07D
S1133490CF91089563E070E08FE090E07FDB482FE8
S11334A0407850E060E070E0807490E0A0E0B0E02C
S11334B0880F991FAA1FBB1F481759076A077B0764
S11334C031F041E063E070E08DE090E07DCB089561
S11334D0CF92DF92EF92FF92CF93DF9360E070E0A0
S11334E08EE090E008DB6B017C01BFD2EC0120E0B0
S11334F030E0A90160E070E08EE090E0A1DB40E400
S113350060E070E08DE090E05FDB28EF3FEF47E2A2
S113351054E260E070E08FE090E092DBBBDFA70153
S1133520960160E070E08EE090E08ADBCE01A1D2EB
S1133530E091B920F091BA20168ADF91CF91FF90E3
S1133540EF90DF90CF9008950F931F93CF93DF9365
S1133550EC0182FF9FDF8E0101701127C0FD11C0B5
S113356021C0B6DFC1FD0AC040E051E060E070E078
S11335708DE090E03FDB0FEF1FEF1BC00FEF1FEF5D
S113358018C040E053E060E070E08DE090E032DB92
S113359063E070E08FE090E001DB83FDE2CF00E0C8
S11335A010E007C040E051E060E070E08DE090E0A2
S11335B021DBC801DF91CF911F910F9108950F93E3
S11335C01F93CF938C0163E070E084E090E0E6DA2F
S11335D0C82F01151105D9F0A80160E070E08CE056
S11335E090E008DBE091B920F091BA2000891189BC
S11335F0228933893061008B118B228B338B4C2FC2
S1133600406163E070E084E090E0DEDA14C0E091B1
S1133610B920F091BA2000891189228933893F7E2B
S1133620008B118B228B338B482F4F7E63E070E02D
S113363084E090E0C9DACF911F910F910895CF9261
S1133640DF92EF92FF921F93CF93DF936B017C0184
S1133650142F0BD2EC0160E070E08EE090E04BDAC6
S1133660112339F09B01AC012C293D294E295F29F6
S11336700AC0C094D094E094F0949B01AC012C2136
S11336803D214E215F2160E070E08EE090E0D8DAC9
S1133690CE01EFD1DF91CF911F91FF90EF90DF909A
S11336A0CF90089540EE63E070E086E390E08CDA1A
S11336B040EF63E070E086E390E086CA0895CF921D
S11336C0DF92EF92FF920F931F93CF93DF93C091FA
S11336D0B920D091BA2060E070E08FE090E00BDA7E
S11336E06B017C016F8B788F898F9A8F76FF6DC009
S11336F020E03FE640E050E060E070E08FE090E0E2
S11337009FDAE091B920F091BA20178E60E070E062
S113371080E190E026DAE091B920F091BA2020858A
S1133720222319F09C01337003C09C012F773327A7
S1133730238F348F99231CF4878D8160878F8F01A9
S1133740035E1F4F22E030E040E050E060E070E0B4
S113375081E190E075D9C3FE1EC0E091B920F091DB
S1133760BA20858D85FD17C028E030E040E050E0A8
S113377060E070E08FE090E063DAE091B920F091CE
S1133780BA208789908DA18DB28D877F878B908F8A
S1133790A18FB28F168AA091B920B091BA209296C7
S11337A0ED91FC919397309719F0CD0147960995C7
S11337B0E091B920F091BA208785882331F041E067
S11337C063E070E08DE090E0FFD9C7FE21C028EFF0
S11337D030E040E050E060E070E08FE090E030DA0C
S11337E0C3FE09C0E091B920F091BA2086898823EC
S11337F011F06EDE57DFA091B920B091BA209096F7
S1133800ED91FC919197309719F0CD014796099568
S1133810D701C60188279927A272BB27892B8A2B37
S11338208B2BE9F020E030E042E050E060E070E013
S11338308FE090E005DAE091B920F091BA20168A81
S113384047DE30DFA091B920B091BA209496ED9173
S1133850FC919597309719F0CD0147960995CC24A2
S113386080E9D82285E0E82284E2F822CD28CE2817
S1133870CF28E9F020E030E945E054E260E070E070
S11338808FE090E0DDD9E091B920F091BA20168A5A
S11338901FDE08DFA091B920B091BA209696ED9171
S11338A0FC919797309719F0CD0147960995DF91D0
S11338B0CF911F910F91FF90EF90DF90CF900895DB
S11338C097DD40E050E060E070E08CE290E092D957
S11338D040E066E070E08CE290E076D92ADA40E0DD
S11338E063E070E086E390E06FD981E090E0E0D49B
S11338F040EF63E070E086E390E066D9E091B920A0
S1133900F091BA20168A08958F71482F40666EE0B0
S113391070E08BE290E058C908950F931F93CF9302
S1133920DF93C82FE091B920F091BA201786168A48
S1133930148A158A10A211A212A213A214A215A20B
S113394016A217A208D9603371408A4C9E4D09F023
S113395085C0B6DF80E090E0CCDC44E060E070E05D
S113396084E290E031D96EE170E080E090E0C9D962
S1133970D62FE091B920F091BA20718764E070E00D
S113398080E090E0BED9662379F042E062E170E025
S11339908DE290E019D9E091B920F091BA208489A0
S11339A095899061848B958B0091B9201091BA20F0
S11339B066E070E080E090E0A4D9F8016083718350
S11339C0828393830091B9201091BA2067E070E05C
S11339D080E090E096D9F8016483758386839783A9
S11339E0E091B920F091BA20DF7111F0D68702C0BE
S11339F080E18687868588DFC0FF0BC0E8DCE09124
S1133A00B920F091BA20848995899860848B958B2C
S1133A100CC065E070E086E390E0A3D8AC015D7F64
S1133A2065E070E086E390E0E5D881E090E061DC59
S1133A3040E06AE070E08CE290E0C6D8C091B92022
S1133A40D091BA2060E070E084E090E054D8688BB4
S1133A50798B8A8B9B8B80E090E002C08FEF9FEF85
S1133A60DF91CF911F910F910895F89481E090E038
S1133A700895789408958F929F92AF92BF92CF92B7
S1133A80DF92EF92FF920F93CF93DF93DB011D92AE
S1133A901D921D921C921397EC01E0E0F0E0299135
S1133AA030E040E050E060E070E080E090E00E2F15
S1133AB00E940C2D822E932EA42EB52E4D915D9135
S1133AC06D917C911397840E951EA61EB71E8D9240
S1133AD09D92AD92BC9213973896E032F105F9F6B7
S1133AE0DF91CF910F91FF90EF90DF90CF90BF9037
S1133AF0AF909F908F90089588EB9BE0A0E0B0E09A
S1133B008093E3209093E420A093E520B093E620F3
S1133B1081E08093102F08951092E3201092E42006
S1133B201092E5201092E62082E08093102F0895F1
S1133B300895CF93DF93EAECFDE229E43EE211928B
S1133B40E217F307E1F7FC016481758160387105C0
S1133B5030F440E050E08AEC9DE20E9450158091E0
S1133B60CA2D813409F06BC08091CB2D883809F0BF
S1133B7066C08091CC2D8093602E8091CD2D90E0F5
S1133B80982F88272091CE2D822B8093612E90939D
S1133B90622EC091CF2DD0E0DC2FCC278091D02D88
S1133BA0C82BC093632ED093642E8091D12D90E0C6
S1133BB0982F88272091D22D822B8093652E909365
S1133BC0662E1092672EB5D6C817D90751F5809185
S1133BD0D32D803371F44091D42D4093672E50E05F
S1133BE065ED7DE288E69EE20E94622D1092102F20
S1133BF026C0823321F485E08093102F20C08136C3
S1133C0021F486E08093102F1AC0893621F488E0CD
S1133C108093102F14C0803591F487E08093102F87
S1133C200EC08091632E9091642E8F3F910521F4F4
S1133C3083E08093102F03C084E08093102F88EEDC
S1133C4093E0A0E0B0E08093E3209093E420A0937D
S1133C50E520B093E620DF91CF9108950F931F9351
S1133C60CF93DF93CDB7DEB72597CDBFDEBF8E01EF
S1133C700F5F1F4FC8010E946C15FE013696D801D4
S1133C8020E030E040E050E060E070E080E090E070
S1133C9008E00E940C2D1291212BEA17FB07C1F7B3
S1133CA02596CDBFDEBFDF91CF911F910F9108956F
S1133CB0CF93C82F4BD381E090E02FDE019649F4D7
S1133CC08EE091E29F938F930E94712D0F900F903D
S1133CD0FFCF65D38BEB90E256D8CC2311F083E071
S1133CE0B8DA0E94A4270E9412160E94A9270E94F3
S1133CF019162CE83DE14CE75DE169E97DE188E9CD
S1133D009DE19ADA41E060E870ED83E294E097DCAB
S1133D10CF910895AF92BF92CF92DF92EF92FF922C
S1133D200F931F93CF93DF93CDB7DEB75C010DB72D
S1133D301EB7FC0101900020E9F7CF018A199B0905
S1133D409C01245F3F4F79018DB79EB7821B930B73
S1133D508DBF9EBFADB7BEB711966D0181E4EDB7BF
S1133D60FEB7818388E811968C9311978091C92DB1
S1133D7012968C93129713961C92139714961C9276
S1133D80149715967C93159716966C931697179619
S1133D901C92CFD5D60118968C93189780E3199668
S1133DA08C931997F50101900020E9F73197EA19EE
S1133DB0FB091A96EC93F50101900020E9F731977D
S1133DC0EA19FB09EC0DFD1D1386F5010190002095
S1133DD0E9F73197EA19FB09EC0DFD1D1486F5018D
S1133DE001900020E9F73197AF014A195B09B50149
S1133DF0C6010B960E94622D4FEF5FEFBA0140930C
S1133E00E3205093E4206093E5207093E6208FEF45
S1133E108093102F40E050E0B601C7010E940515C1
S1133E2040E050E060E070E0C7010E943C1682E090
S1133E30F2DA0F2EF0E8EF2EF6E0FF2EF02D05C09B
S1133E40F701808580FFFCCF3ADC8091E3209091DC
S1133E50E420A091E520B091E6208F3F9F4FAF4F23
S1133E60BF4F71F38091102F853059F48091602EEB
S1133E709091C92D891305C01092102F8F5F8093E4
S1133E80C92D8091102F0DBF1EBFDF91CF911F91BF
S1133E900F91FF90EF90DF90CF90BF90AF90089577
S1133EA0EF92FF920F931F93CF93DF93CDB7DEB7BB
S1133EB02C97CDBFDEBF7C018FEF8093102F80E065
S1133EC090E042DB8FEF9FE07ADB00E816E005C06C
S1133ED0F801808580FFFCCFF2DB8091102F8F3FAB
S1133EE0B9F3811140C081E4898388E88A83809191
S1133EF0602E8B831C821D82E5E6FEE28081918127
S1133F009E838F83188615D5898782E38A871B86CB
S1133F101C8640E050E0BE016F5F7F4F8CE090E074
S1133F200E94051540E050E060E070E08CE090E015
S1133F300E943C1680E06FDA60E070E08FE090E071
S1133F400E947B1567FFF8CF20E830E040E050E0A6
S1133F5060E070E08FE090E00E94201668E67EE268
S1133F60C7010E945B2D8091102F2C96CDBFDEBF20
S1133F70DF91CF911F910F91FF90EF9008952F92B1
S1133F803F924F925F926F927F928F929F92AF92E5
S1133F90BF92CF92DF92EF92FF920F931F93CF9332
S1133FA0DF93CDB7DEB7AB97CDBFDEBF1C018FEF7C
S1133FB08093102F81E4898388E88A838091C92DB6
S1133FC08B831C821D82E5E6FEE2808191819E83C3
S1133FD08F831886AED4898780E58A871B861C86E2
S1133FE01D861E868FEF9FEFEADA80E090E0ACDA60
S1133FF000E816E006C0D80118968C9180FFFBCF2C
S11340005EDB8091102F8F3FB1F3863009F02EC113
S113401025DE422E532E642E752E445C504F6F4F76
S11340207F4F8F4F9F4F08E00E94272D622F732FE1
S1134030842F952FE8D964EF71E080E090E0D9D81F
S113404084EE9CE0BCDA8091C92D8B8340E050E083
S1134050BE016F5F7F4F8EE090E00E94051541E046
S113406050E060E070E08EE090E00E943C1683E057
S1134070D2D9019631F487ED92E20E94822D82E03A
S113408001C18FEF8093102F00E816E005C0F801FE
S1134090808580FFFCCF13DB8091102F8F3FB9F315
S11340A0883009F0D6C08E01015F1F4FC8010E94FD
S11340B05D15FE017496D80110E000E0F12CE12CAE
S11340C060E070E080E090E0212F302F4F2D5E2DD6
S11340D008E00E940C2D1291122B032FF42EE52ED2
S11340E0EA17FB0789F7BADD2C8F3D8F4E8F5F8F60
S11340F068A379A38AA39BA3BE01685E7F4F84ED66
S11341009DE2B9DCBE016C5E7F4F88ED9DE2B3DCBD
S1134110BE01615F7F4F8CED9DE2ADDC1CA30DA35E
S1134120FEA2EFA22C893D894E895F8928A739A771
S11341304AA75BA7888D998DAA8DBB8D281B390B47
S11341404A0B5B0BCA01B9010E94402B6B017C0135
S11341506C8D7D8D8E8D9F8D2CA13DA14EA15FA177
S1134160621B730B840B950B0E94402B6C8F7D8F0D
S11341708E8F9F8F8F859889A989BA89BC01CD01BB
S113418028A539A54AA55BA5621B730B840B950B67
S11341900E94402B68A779A78AA79BA76CA17DA141
S11341A08EA19FA164197509860997090E94402B65
S11341B02B013C012C8D3D8D4E8D5F8DC701B601C9
S11341C00E941C2C4B015C01A301920168A579A5F6
S11341D08AA59BA50E941C2C9B01AC01C501B401BE
S11341E00E94092A4B015C012C8D3D8D4E8D5F8D03
S11341F0C701B6010E940A2A28A539A54AA55BA5CC
S11342000E940A2AA30192010E940A2A9B01AC017E
S1134210C501B4010E946E2A0E94D62A0E943C2B3A
S113422022EC38EA49E85DE20E941C2C29EC38EEC5
S11342304EE85DE40E941C2C20E030E048EC52E49F
S11342400E941C2C0E94102BD1016D937C9380E062
S113425019C020E030E947E254E260E070E08FE00A
S113426090E00E9420161EDA82E00CC020E030E9C3
S113427047E254E260E070E08FE090E00E94201694
S113428011DA82E0AB96CDBFDEBFDF91CF911F91F3
S11342900F91FF90EF90DF90CF90BF90AF909F90E1
S11342A08F907F906F905F904F903F902F900895E4
S11342B0AF92BF92CF92DF92EF92FF920F931F9330
S11342C0CF93DF93A12C0F2EFCE6BF2EF02D0F2EE3
S11342D0FCEDCF2EF02D6894DD24D1F8E12CF12CE7
S11342E000E010E0282F392F40E050E060E070E05B
S11342F080E090E00E94BB2C29513C4F4F4F5F4F10
S11343006F4F7F4F8F4F9F4F0E947D2B20E030E8EF
S11343104BEB55E40E946E2A0E94DB2AF22FE32F16
S11343208F2F9E2FA42FB52F0197A109B1090097B4
S1134330A105B105C9F7DF91CF911F910F91FF90AE
S1134340EF90DF90CF90BF90AF900895CF92DF921F
S1134350EF92FF920F931F9384E180930F2F80ECD1
S113436098E00E944001C12CD12C760100E211EAB0
S113437027E030E040E06FE07FE280EC98E00E94CC
S11343805901E0ECF8E080818064808380E090E073
S11343901F910F91FF90EF90DF90CF900895CF92EF
S11343A0DF92EF92FF920F931F93C12CD12C7601D1
S11343B000EC11EE24EE30E040E06FE07FE280ECB0
S11343C098E00E9459011F910F91FF90EF90DF90A8
S11343D0CF9008958F929F92AF92BF92CF92DF9227
S11343E0EF92FF920F931F93CF93DF937C01EB0126
S11343F049015A013ADB6C016FE07FE280EC98E0FE
S11344000E949A01A701BE0180EC98E00E94780105
S1134410A401B80180EC98E00E9478016FE07FE28B
S113442080EC98E00E94B001C60123DB80E090E0BC
S1134430DF91CF911F910F91FF90EF90DF90CF907C
S1134440BF90AF909F908F9008958F929F92AF925C
S1134450BF92CF92DF92EF92FF920F931F93CF936D
S1134460DF937C01EB0149015A01FFDA6C016FE033
S11344707FE280EC98E00E949A01A701BE0180ECE3
S113448098E00E947801A401B80180EC98E00E94B1
S113449087016FE07FE280EC98E00E94B001C601E2
S11344A0E8DA80E090E0DF91CF911F910F91FF90C7
S11344B0EF90DF90CF90BF90AF909F908F90089532
S11344C00E94701280E09AE6A8E1B0E00197A10989
S11344D0B1090097A105B105C9F7E0E4F6E088E069
S11344E0828334E03283A0E0B6E090E411969C939A
S11344F0119720E811962C93A0E2B6E041E01196C2
S11345004C93119742E011964C93A0E8B6E01196B3
S11345104C93119711968C93A0E6B6E012963C93B7
S1134520129711968C9380E1818380E281832183A9
S113453092838FB7F894E6E5F6E0908197709083C4
S11345409081906190838FBF81E0E0E8F6E0828300
S11345502CC5089580E4E0E0F6E0858380E092EEE7
S1134560A4E0B0E00197A109B1090097A105B10544
S1134570C9F780E8E0E0F6E0858380E092EEA4E00D
S1134580B0E00197A109B1090097A105B105C9F7E8
S113459081E0E0E2F6E0858380E092EEA4E0B0E022
S11345A00197A109B1090097A105B105C9F782E0F6
S11345B0E0E2F6E0858380E092EEA4E0B0E00197CB
S11345C0A109B1090097A105B105C9F780E4E0E0AC
S11345D0F6E0868380E092EEA4E0B0E00197A109C2
S11345E0B1090097A105B105C9F780E8E0E0F6E05C
S11345F0868380E092EEA4E0B0E00197A109B109BE
S11346000097A105B105C9F781E0E0E2F6E08683F1
S113461080E092EEA4E0B0E00197A109B10900970F
S1134620A105B105C9F782E0E0E2F6E0868380E007
S113463092EEA4E0B0E00197A109B1090097A105A9
S1134640B105C9F780E4E0E0F6E0858380E094EC0E
S1134650A9E0B0E00197A109B1090097A105B1054E
S1134660C9F780E8E0E0F6E0858380E094ECA9E017
S1134670B0E00197A109B1090097A105B105C9F7F7
S113468081E0E0E2F6E0858380E094ECA9E0B0E02C
S11346900197A109B1090097A105B105C9F782E005
S11346A0E0E2F6E0858380E094ECA9E0B0E00197D5
S11346B0A109B1090097A105B105C9F780E4E0E0BB
S11346C0F6E0868380E094ECA9E0B0E00197A109CC
S11346D0B1090097A105B105C9F780E8E0E0F6E06B
S11346E0868380E094ECA9E0B0E00197A109B109C8
S11346F00097A105B105C9F781E0E0E2F6E0868301
S113470080E094ECA9E0B0E00197A109B109009719
S1134710A105B105C9F782E0E0E2F6E0868380E016
S113472094ECA9E0B0E00197A109B1090097A105B3
S1134730B105C9F780E4E0E0F6E0858380E096EA1D
S1134740AEE0B0E00197A109B1090097A105B10558
S1134750C9F780E8E0E0F6E0858380E096EAAEE021
S1134760B0E00197A109B1090097A105B105C9F706
S113477081E0E0E2F6E0858380E096EAAEE0B0E036
S11347800197A109B1090097A105B105C9F782E014
S1134790E0E2F6E0858380E096EAAEE0B0E00197DF
S11347A0A109B1090097A105B105C9F780E4E0E0CA
S11347B0F6E0868380E096EAAEE0B0E00197A109D6
S11347C0B1090097A105B105C9F780E8E0E0F6E07A
S11347D0868380E096EAAEE0B0E00197A109B109D2
S11347E00097A105B105C9F781E0E0E2F6E0868310
S11347F080E096EAAEE0B0E00197A109B109009724
S1134800A105B105C9F782E0E0E2F6E0868380E025
S113481096EAAEE0B0E00197A109B1090097A105BD
S1134820B105C9F780E4E0E0F6E0858380E098E82C
S1134830A3E1B0E00197A109B1090097A105B10571
S1134840C9F780E8E0E0F6E0858380E098E8A3E13A
S1134850B0E00197A109B1090097A105B105C9F715
S113486081E0E0E2F6E0858380E098E8A3E1B0E04F
S11348700197A109B1090097A105B105C9F782E023
S1134880E0E2F6E0858380E098E8A3E1B0E00197F8
S1134890A109B1090097A105B105C9F780E4E0E0D9
S11348A0F6E0868380E098E8A3E1B0E00197A109EF
S11348B0B1090097A105B105C9F780E8E0E0F6E089
S11348C0868380E098E8A3E1B0E00197A109B109EB
S11348D00097A105B105C9F781E0E0E2F6E086831F
S11348E080E098E8A3E1B0E00197A109B10900973D
S11348F0A105B105C9F782E0E0E2F6E0868380E035
S113490098E8A3E1B0E00197A109B1090097A105D6
S1134910B105C9F7089548E250E067EE7EE280E011
S113492090E00C94811308958091E72E9091E82EE5
S1134930089560E070E081E00E94C21390E0089561
S1134940CF93DF9388EC90E18093E72E9093E82E49
S1134950F0DFC9EEDEE28883998381E08093EB2E59
S113496085E1E0EDF3E2ACEEBEE201900D928A95B2
S1134970E1F785E0E5EEF3E2A1E0BFE201900D92FC
S11349808A95E1F785E0EAEEF3E2A6E0BFE2019062
S11349900D928A95E1F7888199818330910539F1E7
S11349A030F48130910549F00297A1F047C084307A
S11349B0910551F10597A9F141C084EF97E48093E3
S11349C00B2F90930C2F89E898E380930D2F9093ED
S11349D00E2F3EC08DEE97E480930B2F90930C2FF7
S11349E083E898E380930D2F90930E2F31C083E0DA
S11349F098E480930B2F90930C2F85E998E3809390
S1134A000D2F90930E2F24C08BEE97E480930B2FE1
S1134A1090930C2F82E898E380930D2F90930E2FA0
S1134A2017C086EE97E480930B2F90930C2F8DE79D
S1134A3098E380930D2F90930E2F0AC086E390E4A1
S1134A4080930B2F90930C2F80930D2F90930E2F08
S1134A5062DFDF91CF91089548E250E067EE7EE295
S1134A6080E090E00E94E4128091E72E9091E82E7D
S1134A70883C904119F064DF81E0089580E0089556
S1134A806CEE7EE20C945B2D089561E07FE20C9461
S1134A905B2D089566E07FE20C945B2D0895CF931F
S1134AA0DF93CDB7DEB76F97CDBFDEBFCE010196E2
S1134AB0E7DFCE014696E9DFCE014B96EBDF8FE0D0
S1134AC094E20E94822D82E594E20E94822D85E97F
S1134AD094E20E94822D88ED94E20E94822D8BE163
S1134AE095E20E94822D8EE595E20E94822D81EA54
S1134AF095E20E94822D84EE95E20E94822D87E247
S1134B0096E20E94822D8AE696E2FCD78DEA96E22E
S1134B10F9D78091E72E9091E82E9F938F9382EEA0
S1134B2096E29F938F93DDD704DF9F938F938EEF4D
S1134B3096E29F938F93D5D78091EB2ECDBFDEBFA6
S1134B40882319F08FEE93E202C08FEF93E29F93D4
S1134B508F9389E197E29F938F93C3D7CE010196F8
S1134B609F938F9384E397E29F938F93BAD7CE0159
S1134B7046969F938F938FE497E29F938F93B1D739
S1134B80CE014B969F938F938AE697E29F938F93E0
S1134B90A8D780910B2F90910C2F9F938F9385E82A
S1134BA097E29F938F939DD780910D2F90910E2F15
S1134BB09F938F9380EA97E29F938F9392D7CDBF71
S1134BC0DEBF6F96CDBFDEBFDF91CF910895BC01EC
S1134BD08CEE9EE270C70895BC0181E09FE26BC732
S1134BE00895BC0186E09FE266C708952F923F9224
S1134BF04F925F926F927F928F929F92AF92BF92E9
S1134C00CF92DF92EF92FF920F931F93CF93DF9394
S1134C10CDB7DEB7CE54D109CDBFDEBF18A21AA2DC
S1134C201BA21CA21DA2512C6E0126E2C20ED11C95
S1134C307E0130E4E30EF11C8E01055C1F4F0F2E44
S1134C40F7EE6F2EFEE27F2EF02D0F2EFFED8F2E4E
S1134C50F6E29F2EF02D5E0181E2A80EB11CFE014A
S1134C60B4962796EEAFFFAF27979E012E5D3F4F78
S1134C7029962EAF3FAF2997CE014B962B968EAF38
S1134C809FAF2B971E0196E1290E311CB3972D96E9
S1134C90EEAFFFAF2D97225031092F962EAF3FAFC5
S1134CA02F97412CC601ECDEC701EFDEC801F2DE0E
S1134CB086EC96E227D78EEA96E224D7F301808128
S1134CC091819F938F939F928F920BD732DE9F9304
S1134CD08F938BEF96E29F938F9303D78091EB2E64
S1134CE0CDBFDEBF882319F08FEE93E202C08FEFB1
S1134CF093E29F938F9386E197E29F938F93F1D6EC
S1134D00DF92CF9281E397E29F938F93EAD6FF924B
S1134D10EF928CE497E29F938F93E3D61F930F93C4
S1134D2087E697E29F938F93DCD680910B2F909127
S1134D300C2F9F938F9382E897E29F938F93D1D602
S1134D4080910D2F90910E2F9F938F938DE997E271
S1134D509F938F93C6D688EB97E2D4D689EC97E2DB
S1134D609F938F93BED6BF92AF928DE49AE29F93A6
S1134D708F93F5D6CDBFDEBF89A190E08830910531
S1134D8008F0C8C0FC01EC5EFE4FEFC58FEF97E260
S1134D90B9D680E094E2A4EFB42D0197A109B1093A
S1134DA00097A105B105C9F7B1C084E498E29F93C7
S1134DB08F9397D62F969FAD2F979F932E96EFADF7
S1134DC02E97EF938DE49AE29F938F93C8D60F901A
S1134DD00F900F900F900F900F9088A1882311F0DF
S1134DE081E088A388A18093EB2E90C08BE798E2A2
S1134DF09F938F9376D62D96FFAD2D97FF932C9688
S1134E002FAD2C972F9389E998E29F938F93A7D680
S1134E10CE010196DCDE0F900F900F900F900F9053
S1134E200F9074C08EE998E29F938F935AD63F9265
S1134E302F9289EC98E29F938F9391D6C101CCDE97
S1134E400F900F900F900F900F900F905FC08DEC0C
S1134E5098E29F938F9345D62B963FAD2B973F9324
S1134E602A968FAD2A978F9389EC98E29F938F931C
S1134E7076D6CE014B96B5DE0F900F900F900F9023
S1134E800F900F9043C087EF98E29F938F9329D69A
S1134E9029969FAD29979F932896EFAD2897EF9376
S1134EA08DE199E29F938F935AD68AA19BA1809317
S1134EB00B2F90930C2F0F900F900F900F900F903B
S1134EC00F9024C081E299E29F938F930AD627968C
S1134ED0FFAD2797FF9326962FAD26972F938DE14D
S1134EE099E29F938F933BD68CA19DA180930D2F24
S1134EF090930E2F0F900F900F900F900F900F9094
S1134F0005C009DD87E499E2FDD507C0552009F401
S1134F10C9CE03C0552009F4C5CEC25BDF4FCDBF57
S1134F20DEBFDF91CF911F910F91FF90EF90DF9043
S1134F30CF90BF90AF909F908F907F906F905F9035
S1134F404F903F902F90089580910B2F90910C2FAC
S1134F50089580910D2F90910E2F0895CF93C82F0F
S1134F608A3021F48DE090E00E94AE048C2F9927C2
S1134F7087FD90950E94AE0480E090E0CF91089563
S1134F800F931F93CF93DF938C010E94ED0388232B
S1134F90E1F30E943904EC01B801E0DFCE01992766
S1134FA0DF91CF911F910F91089587E0E0EAF0E03F
S1134FB0828378940E949C050E94850E87EE90E27D
S1134FC08093A12F9093A22F80939F2F9093A02F33
S1134FD00895CF93DF93CDB7DEB72797CDBFDEBF5C
S1134FE08091F9208D838091FA208E838091FB201B
S1134FF08F838091F5209091F620A091F720B091B5
S1135000F82089839A83AB83BC8360E185E00E94A6
S1135010BD12BE016F5F7F4F80EA9AE00E94FA0AD8
S113502082E0E0E8F6E086832796CDBFDEBFDF911D
S1135030CF910895CF93DF9322E0E0E8F6E0258353
S113504020E030E02F5F3F4F20344FE13407D1F7A9
S1135050FC016081662349F0EC01219680EA9AE024
S11350600E94E80969916111F9CF80E090E001960E
S11350708034FCE99F07D9F782E0E0E8F6E0868314
S1135080DF91CF910895AF92BF92CF92DF92EF92CA
S1135090FF920F931F93CF93DF93CDB7DEB7C8571B
S11350A0D109CDBFDEBFBF92AF92DF92CF92FF9204
S11350B0EF921F930F933F932F935F934F937F939D
S11350C06F939F938F9387E799E29F938F938E01BA
S11350D00F5F1F4F1F930F9353D5C801ABDFCDBF95
S11350E0DEBFC858DF4FCDBFDEBFDF91CF911F9128
S11350F00F91FF90EF90DF90CF90BF90AF90089505
S11351001F920F920FB60F9211242F933F934F9338
S11351105F936F937F938F939F93AF93BF93EF931B
S1135120FF9382E0E0E2F6E087838091A009809318
S11351306B2F9091492EE92FF0E0EF5EF04D8083C4
S11351409F5F9093492E8A3021F581E0A0E2B6E07A
S113515017968C93E92FF0E0EF5EF04D10826CE629
S11351607FE281E19FE20E941414882379F0EBE945
S1135170FFE281818F9380818F9382E197E29F93F5
S11351808F93AFD40F900F900F900F901092492EE1
S113519008C0993531F41092492E80E8E0E0F6E039
S11351A08783FF91EF91BF91AF919F918F917F91F1
S11351B06F915F914F913F912F910F900FBE0F9080
S11351C01F901895CF93DF93CDB7DEB7AE97CDBFC1
S11351D0DEBF88E0FE013196DF01982F1D929A957B
S11351E0E9F73896DF011D928A95E9F789E19AE299
S11351F089D40E94B6140F2EFBE98F2EFFE29F2E56
S1135200F02D0F2E412CF6E05F2EF02D3E01B1E182
S11352106B0E711CFE013F96EDA3FEA3CE01079613
S11352208FA398A7DE011D96A9A7BAA73A97EBA763
S1135230FCA704968DA79EA71E0193E0290E311C9E
S1135240CE0101960E94BF1FD4012D913C91298764
S11352503A878111F5CF80E4F201878364E070E03E
S113526087E39AE20E948A1EC3010E94501F8111A3
S113527017C082E0809327068BE39AE243D4FEA111
S1135280FF938DA18F9398A59F93AFA1AF938AE4C9
S11352909AE29F938F937F926F9291D4CDBFDEBF9A
S11352A063E070E087E39AE20E948A1EC3010E94D1
S11352B0501F811117C081E08093270680E59AE290
S11352C021D4FAA5FF9389A58F939CA59F93ABA5A1
S11352D0AF938AE49AE29F938F937F926F926FD4F5
S11352E0CDBFDEBF62E070E087E39AE20E948A1ECF
S11352F0C3010E94501F811116C080E8D201179685
S11353008C9384E69AE2FED3BEA5BF93EDA5EF93FA
S11353103F922F928AE49AE29F938F937F926F92A7
S11353204ED4CDBFDEBF88858F938F818F938E81BE
S11353308F938D818F938C818F938B818F938A81AF
S11353408F9389818F9386E79AE29F938F93C9D332
S113535088898F938F858F938E858F938D858F9377
S11353608C858F938B858F938A858F9389858F9373
S11353708FE99AE29F938F93B4D369817A81CF8422
S1135380D888ED80FE800D851E852B813C814B8560
S11353905C855B0189859A8576DE19821A821B8277
S11353A01C821D821E821F82188619861A861B86FD
S11353B01C861D861E861F86188ACDBFDEBF40CF81
S11353C07FD807DE0E94D213E0EAF9E083818F7C64
S11353D080618383BFD840DBC82FA6DA9F938F9365
S11353E01F92CF9383E19BE29F938F937AD3E0E460
S11353F0F6E080850F900F900F900F900F900F9014
S113540082FD02C0F3DB01C04ADB81E00E94581E2A
S1135410D9DE5058BB27AA270ED0D4C1C5D130F04D
S1135420CAD120F031F49F3F11F41EF4AAC10EF446
S1135430E095E7FBA0C1E92FD6D180F3BA17620744
S113544073078407950718F071F49EF5EEC10EF406
S1135450E0950B2EBA2FA02D0B01B90190010C0180
S1135460CA01A0011124FF27591B99F0593F50F498
S1135470503E68F11A16F040A22F232F342F4427F0
S1135480585FF3CF469537952795A795F0405395E8
S1135490C9F77EF41F16BA0B620B730B840BBAF0B8
S11354A09150A1F0FF0FBB1F661F771F881FC2F723
S11354B00EC0BA0F621F731F841F48F48795779537
S11354C06795B795F7959E3F08F0B3CF9395880FEE
S11354D008F09927EE0F9795879508950CD072C11F
S11354E06AD140F061D130F021F45F3F19F043C13B
S11354F051119CC146C177D198F39923C9F355231F
S1135500B1F3951B550BBB27AA27621773078407B2
S113551038F09F5F5F4F220F331F441FAA1FA9F368
S113552033D00E2E3AF0E0E830D091505040E6955A
S1135530001CCAF729D0FE2F27D0660F771F881FBB
S1135540BB1F261737074807AB07B0E809F0BB0BAA
S1135550802DBF01FF2793585F4F2AF09E3F5105CE
S113556068F009C163C15F3FECF3983EDCF38695B4
S113557077956795B795F7959F5FC9F7880F911D44
S11355809695879597F90895E1E0660F771F881F30
S1135590BB1F621773078407BA0720F0621B730BE3
S11355A0840BBA0BEE1F88F7E0950895BEE304D090
S11355B008F490E80895BFE322273327A9011BD1FB
S11355C058F19F5740F1B91738F1BFE3B91B992738
S11355D0B8503AF4660F771F881F991FB395D2F31A
S11355E016C0B8504AF0232F342F452F562F672F5B
S11355F0782F8827B850BAF7B85F49F08695779521
S113560067955795479537952795BA95B9F70EF449
S1135610BBD088940895889460E070E0CB0108952D
S1135620EAD088F09F5790F0B92F9927B751A0F08E
S1135630D1F0660F771F881F991F1AF0BA95C9F722
S113564012C0B13081F0F1D0B1E00895EEC0672FFF
S1135650782F8827B85F39F0B93FCCF386957795D2
S11356606795B395D9F73EF49095809570956195BB
S11356707F4F8F4F9F4F089597FB0EF485D03EC008
S1135680E89409C097FB3EF49095809570956195D8
S11356907F4F8F4F9F4F9923A9F0F92F96E9BB278E
S11356A09395F695879577956795B795F111F8CF0A
S11356B0FAF4BB0F11F460FF1BC06F5F7F4F8F4F75
S11356C09F4F16C0882311F096E911C0772321F06B
S11356D09EE8872F762F05C0662371F096E8862F03
S11356E070E060E02AF09A95660F771F881FDAF75A
S11356F0880F9695879597F90895E894F92F96EB76
S1135700FF2381F0121613061406440B9395F695A5
S113571087957795679557954040FF23B9F71BC048
S113572099270895882351F49850D2F7872B762F20
S1135730652F542F432F322F20E0B1F31216130696
S11357401406440B88233AF09A95440F551F661F9C
S1135750771F881FCAF755234AF4440F551F11F4C5
S113576060FF04C06F5F7F4F8F4F9F4F880F9695E8
S1135770879597F9089597F99F6780E870E060E04E
S113578008959FEF80EC08959095809570956095AD
S113579050954095309521953F4F4F4F5F4F6F4F38
S11357A07F4F8F4F9F4F089500240A9416161706B3
S11357B018060906089500240A94121613061406FE
S11357C005060895092E0394000C11F4882352F061
S11357D0BB0F40F4BF2B11F460FF04C06F5F7F4F19
S11357E08F4F9F4F089557FD9058440F551F59F000
S11357F05F3F71F04795880F97FB991F61F09F3FBA
S113580079F087950895121613061406551FF2CFE2
S11358104695F1DF08C0161617061806991FF1CF32
S113582086957105610508940895E894BB27662759
S11358307727CB0197F908950BD0C4CFB5DF28F0B3
S1135840BADF18F0952309F096CF9BCF1124EECF41
S1135850CADFA0F3959FD1F3950F50E0551F629FC7
S1135860F001729FBB27F00DB11D639FAA27F00DB5
S1135870B11DAA1F649F6627B00DA11D661F829FDC
S11358802227B00DA11D621F739FB00DA11D621FC1
S1135890839FA00D611D221F749F3327A00D611DDE
S11358A0231F849F600D211D822F762F6A2F1124C0
S11358B09F5750408AF0E1F088234AF0EE0FFF1F13
S11358C0BB1F661F771F881F91505040A9F79E3F4A
S11358D0510570F050CFAACF5F3FECF3983EDCF354
S11358E0869577956795B795F795E7959F5FC1F787
S11358F0FE2B880F911D9695879597F90895AA1BFD
S1135900BB1B51E107C0AA1FBB1FA617B70710F0A6
S1135910A61BB70B881F991F5A95A9F780959095D8
S1135920BC01CD010895A1E21A2EAA1BBB1BFD01E7
S11359300DC0AA1FBB1FEE1FFF1FA217B307E4076A
S1135940F50720F0A21BB30BE40BF50B661F771FC2
S1135950881F991F1A9469F76095709580959095A2
S11359609B01AC01BD01CF010895EE0FFF1F05900F
S1135970F491E02D0994DF93CF931F930F939A9D95
S1135980F02D219FF00D8B9DF00D8A9DE02DF10DE2
S1135990039FF00D029FE00DF11D4E9DE00DF11DE2
S11359A05E9DF00D4F9DF00D7F936F93BF92AF926C
S11359B05F934F93D50167D08B01AC01D70163D0BE
S11359C0EB01E80FF91FD6011FD02F913F91D601AB
S11359D05AD0C60FD71FE81FF91FAF91BF9114D03B
S11359E02F913F9150D0C60FD71FE81FF91FD60142
S11359F04AD0E60FF71F9801BE01CF0111240F9181
S1135A001F91CF91DF9108953ED0460F571FC81FB5
S1135A10D91F08F4319608950F93083090F0982F09
S1135A20872F762F652F542F432F322F222708508C
S1135A30F4CF220F331F441F551F661F771F881F83
S1135A40991F0A95B2F70F91089597FB10F81694D1
S1135A5000080F93083098F00850232F342F452F57
S1135A60562F672F782F892F902DF4CF0594979573
S1135A7087957795679557954795379527950A950F
S1135A80AAF70F910895A29FB001B39FC001A39FED
S1135A90700D811D1124911DB29F700D811D112463
S1135AA0911D0895FB01DC0102C001900D9241504B
S1135AB05040D8F70895FB01DC0101900D920020BD
S1135AC0E1F70895FB01DC014150504048F001909A
S1135AD00D920020C9F701C01D9241505040E0F7DB
S1135AE00895A0E0B0E0E6E7FDE2FDC5FE013596CD
S1135AF061917191AF018091A12F9091A22F75D0E6
S1135B00E2E00AC60F931F93CF93DF93E091A12F96
S1135B10F091A22F238121FF1BC0EC0100E010E0D3
S1135B2089916091A12F7091A22FDB011896ED91BC
S1135B30FC911997882331F00995892B89F30FEF8C
S1135B401FEFEECF8AE00995892B11F4C80102C03A
S1135B508FEF9FEFDF91CF911F910F910895A0E0F8
S1135B60B0E0E4EBFDE2BFC5FE01359661917191B1
S1135B70AF0180919F2F9091A02F69D3E2E0CCC513
S1135B80AEE0B0E0E5ECFDE2ACC50D891E8986E02F
S1135B908C8309831A838FEF9FE78D839E83AE01E5
S1135BA0475E5F4F6F89788DCE0101961ED0EF81DD
S1135BB0F885E00FF11F10822E96E4E0ABC5AEE04D
S1135BC0B0E0E4EEFDE28FC585E08C838B899C898F
S1135BD089839A83AE01495E5F4F6D897E89CE01C8
S1135BE0019635D32E96E2E097C5ACE0B0E0EAEF3B
S1135BF0FDE269C57C016B018A01FC0116821782F2
S1135C00838181FFB0C1CE0101964C01F7019381DC
S1135C10F60193FD859193FF81916F01882309F427
S1135C209EC1853239F493FD859193FF81916F0173
S1135C30853221F4B70190E09AD4E8CF512C312C6D
S1135C4020E02032A0F48B3269F030F4803259F035
S1135C50833269F420612CC08D3239F0803339F4F9
S1135C60216026C02260246023C0286021C027FD53
S1135C7027C030ED380F3A3078F426FF06C0FAE03A
S1135C805F9E300D1124532E13C08AE0389E300DD0
S1135C901124332E20620CC08E3221F426FD5FC104
S1135CA0206406C08C3611F4206802C0883641F4A2
S1135CB0F60193FD859193FF81916F018111C1CF0D
S1135CC0982F9F7D9554933028F40C5F1F4FFFE36A
S1135CD0F9830DC0833631F0833771F0833509F0D1
S1135CE057C021C0F801808189830E5F1F4F44246F
