S00E00004F6E65506F732E73726563C2
S113000021C100003CC100003AC1000038C1000019
S113001036C1000034C1000032C1000030C100000C
S11300202EC100002CC100002AC1000028C100001C
S113003026C100000C94A20922C1000020C10000C6
S11300401EC100001CC100001AC1000018C100003C
S113005016C1000014C1000012C1000010C100004C
S11300600EC100000CC100000AC1000008C100005C
S113007006C1000004C1000002C1000000C100006C
S1130080FEC00000FCC00000FAC00000F8C0000080
S1130090F6C00000F4C00000F2C00000F0C0000090
S11300A0EEC00000ECC00000EAC00000E8C00000A0
S11300B0E6C00000E4C000000C94C509E0C00000E4
S11300C0DEC00000DCC00000DAC00000D8C00000C0
S11300D0D6C00000D4C00000D2C00000D0C00000D0
S11300E0CEC00000CCC00000CAC00000C8C00000E0
S11300F0C6C00000C4C00000C2C00000C0C00000F0
S1130100BEC00000BCC00000BAC00000B8C00000FF
S1130110B6C00000B4C00000B2C00000B0C000000F
S1130120AEC00000ACC00000AAC00000A8C000001F
S1130130A6C00000A4C00000A2C00000A0C000002F
S11301409EC000009CC000009AC0000098C000003F
S113015096C0000094C0000092C0000090C000004F
S11301608EC000008CC000008AC0000088C000005F
S113017086C0000084C0000082C0000080C000006F
S11301807EC000007CC000007AC0000078C000007F
S113019076C0000074C0000072C0000070C000008F
S11301A06EC000006CC000006AC0000068C000009F
S11301B066C0000064C0000062C0000060C00000AF
S11301C05EC000005CC000005AC0000058C00000BF
S11301D056C0000054C0000052C0000050C00000CF
S11301E04EC000004CC000004AC0000048C00000DF
S11301F046C000000C94C8100C947E11DC0CCA0C90
S1130200CD0CD00CD30CD60CD90C52184D18571851
S11302107C187C187C187C185C1864187C187C1872
S11302206B186F1873187818FC224122502271221F
S11302308D22A222BE22DD226364696E6F70737503
S113024078585B0011241FBECFEFCDBFDFE2DEBFC5
S113025018E2A0E0B0E2E0E6F7E502C005900D92F6
S1130260AA34B107D9F72CE2AAE4B8E201C01D927E
S1130270AE32B207E1F70E9464230C94AE2BC0CED9
S1130280CF93DF93EC01C03C28E0D20729F468E067
S113029083E00E94B51207C0803C994021F468E0D5
S11302A084E00E94B512888180618883DF91CF91B8
S11302B00895FF920F931F93CF93DF93EC01F42ED5
S11302C0B901A80100E01CE62CED32E056D78823E2
S11302D04CF088819F2D990F990F9C70837FF92E84
S11302E0F82AF882DF91CF911F910F91FF90089522
S11302F0FC01DB01460F571F05C08D91838382816A
S11303008823ECF7A417B507C1F780E00895FC0132
S1130310DB014115510561F0460F571F9FEF938391
S113032082818823ECF783818D93A417B507B9F7ED
S113033080E00895FB018081E82FE695E695E69537
S113034040E2E49FF0011124FA5F877021E030E07D
S1130350A90102C0440F551F8A95E2F74683089508
S1130360FB018081E82FE695E695E69540E2E49F5F
S1130370F0011124FA5F877021E030E0A90102C086
S1130380440F551F8A95E2F745830895109260291A
S113039010926C2910926D2981EA8093622980E27F
S11303A0809363291092642910926529109266291A
S11303B01092672982E090E08093682990936929DC
S11303C010926A2910926B2980E092ECA1E0B0E0CF
S11303D080936E2990936F29A0937029B09371290B
S11303E0109272291092732988E080937429809165
S11303F060298F5F8093602981E00895809160294E
S1130400815080936029089580915F298150809361
S11304105F2980915F2910925E29089580E00895F4
S113042080E008958091612B8823DCF4807680320B
S1130430E9F58091622B8132D9F58091672B9091F7
S1130440682B0797B9F58EE699E28093692B909310
S11304506A2B87E090E080936B2B90936C2B81E068
S113046008958076803241F58091622B803221F0AC
S1130470823221F581E008958091672B9091682B59
S11304800797F1F482E692E080936D2B90936E2BA4
S11304908EE699E28093692B90936A2B87E090E033
S11304A080936B2B90936C2B81E0089580E00895EA
S11304B080E0089580E0089580E0089580E0089544
S11304C080E008950895FF920F931F93CF93DF93D5
S11304D080914D2881119CC00E940A0F882351F0FD
S11304E0C0914E28D0914F280E94170FC817D907E2
S11304F059F48EC0C0914E28D0914F280E94120FFB
S1130500C817D90709F484C0DFB7F894C0915028FC
S1130510EC2FF0E0EE0FFF1FEF5AF74D8081918131
S1130520892B09F580914A2890914B280196809354
S11305304A2890934B280E940A0F811107C080918A
S11305404A2890914B288436910558F00E940A0F4E
S1130550882349F080914A2890914B288032934017
S113056010F4DFBF55C010924A2810924B28809196
S11305704C28811106C081E0C11180E0809350288D
S113058004C081E0C11180E0C82F81E080934D2830
S1130590DFBFD0E0FE01EE0FFF1FEF5AF74DFF243F
S11305A0F394808191818034910509F4F12CFF202A
S11305B091F00E940A0F882339F00E94170F80934C
S11305C04E2890934F280BC00E94120F80934E2800
S11305D090934F2804C010924E2810924F28FE0189
S11305E0EE0FFF1FEF5AF74D20813181AE01002439
S11305F0569547950794569547950794542F402D43
S11306004A5A574D0EE013E06F2D81E80E94C90F3E
S1130610DF91CF911F910F91FF900895811115C023
S11306202091502881E090E0222311F080E090E0B6
S1130630FC01EE0FFF1FEF5AF74D1082118210924A
S11306404C2810924D2880E03ECF089580E03BCFA7
S113065008954FB7F8942091D7283091D828E09185
S1130660D928F0E0EE0FFF1FE652F74D808191810B
S1130670821B930B4FBF0895ECDF21E0892B09F413
S113068020E0822F08950F931F93CF93DF934FB7EA
S1130690F8945091D9288091D628811110C02091C6
S11306A0D7283091D828C52FD0E0FE01EE0FFF1FC8
S11306B0E652F74D808191812817390718F44FBF0E
S11306C080E023C01092D7281092D82881E05111DD
S11306D080E08093D92881E08093D6284FBF80E0C2
S11306E0CBDFAE0100245695479507945695479560
S11306F00794542F402D4252574D0CEB13E020E445
S113070030E061E082E00E94C90FDF91CF911F9138
S11307100F91089510925F2910924D2810924C2841
S11307201092502810925128109252281092532857
S11307301092542810924E2810924F2880E0C3DE65
S11307401092D6281092D9281092DA281092DB2819
S11307501092D7281092D82880E095DF882359F08A
S113076090915F299F5F90935F2990915F299130C9
S113077011F490935E2908950F931F93942F811180
S113078029C08091D928E1E08111E0E0611571056B
S1130790B1F4F0E00024F695E7950794F695E79513
S11307A00794FE2FE02DAF014252574D0CEB13E09E
S11307B020E430E061E0892F0E94C90F0BC0F0E013
S11307C0EE0FFF1FE652F74D608371831092D62817
S11307D080E059DF1F910F91089580E04DCF089577
S11307E01F93CF93DF9311E080917429893009F02E
S11307F010E060E070E03FB7F8948091D7289091C2
S1130800D8282091D9283FBF30E0F901EE0FFF1F0F
S1130810E652F74D408151818417950730F080915D
S11308205E298111E8CF90E020C0F9010024F695FB
S1130830E7950794F695E7950794FE2FE02DE80FCA
S1130840F91FE252F74D2081EB01C22B01968093F0
S1130850D7289093D82880E016DF112321F07C2F2D
S1130860662710E0C8CF8C2F9D2FDF91CF911F9169
S1130870089580E0B5CF08959FB7F89480915028EB
S1130880E82FF0E0EE0FFF1FEF5AF74D2081318182
S11308902034310589F440914D2841110DC0409117
S11308A04C28411109C021E020934C28811120E0FB
S11308B02093502820E030E09FBF80E490E0821B2A
S11308C0930B0895D9DF21E0892B09F420E0822FCE
S11308D008951F93CF93DF93162FC72FD1E08091F4
S11308E07429893009F0D0E080E0ECDF811107C081
S11308F080915E298111F8CF80E090E02BC06FB722
S1130900F8942091502830E0F901EE0FFF1FEF5AC0
S1130910F74D80819181AC014F5F5F4F40835183DC
S1130920F9010024F695E7950794F695E795079461
S1130930FE2FE02D8E0F9F1FFC01EA5AF74D108306
S11309406FBFDD2329F01C2FCC0FCC0BD0E0CCCF14
S113095081E090E0DF91CF911F910895BC0180E088
S1130960B8CF0895E0917A29F0917B290190F08124
S1130970E02D228133812E0F3F1FFC014081E40FC3
S1130980F11DE217F307A0F481818430A1F08613EE
S113099006C014C081818430A1F08617A9F080813B
S11309A0E80FF11DE217F307A8F380E090E0089543
S11309B080E090E0089580E090E008958E2F9F2FCE
S11309C0089580E090E008958E2F9F2F08958091E0
S11309D0632B8F770C940C0F089590917C299923A5
S11309E081F1E0917A29F0917B290190F081E02D49
S11309F09481891740F5E0937829F093792922812D
S1130A0033812E0F3F1FE217F307F8F491819430DE
S1130A1061F49281981309C09381961306C0E09300
S1130A207829F093792981E008959081E90FF11DE7
S1130A30E217F30758F3E0937829F093792980E0DB
S1130A40089580E0089580E0089580E00895FF927D
S1130A500F931F93CF93DF93C82F60E0BEDFF82E70
S1130A60882381F1A0917A29B0917B29EC2FF0E0C1
S1130A70EE0FFF1F12962D913C911397E20FF31F77
S1130A8000811181D8011696ED91FC911797099573
S1130A90682F8C2FA2DFF82E8823A1F0C09178292B
S1130AA0D091792965E0CE015DDFEC01009721F05A
S1130AB08A810E948A10F6CFD8011296ED91FC919A
S1130AC0139709958F2DDF91CF911F910F91FF906F
S1130AD008951F93CF93DF93182F7FDF882341F16D
S1130AE0C0917829D091792965E0CE013BDFEC01F2
S1130AF0009749F04C815D816B818A810E94230FAC
S1130B008111F2CF15C0A0917A29B0917B29812F50
S1130B1090E0880F991F1296ED91FC911397E80FBE
S1130B20F91F0190F081E02D0190F081E02D0995ED
S1130B30DF91CF911F9108950C94A00E0895CF9347
S1130B4080917C298823C1F0E0917A29F0917B2956
S1130B500190F081E02D8481882371F0C0E08C2F16
S1130B6076DFCF5FE0917A29F0917B290190F081C3
S1130B70E02D8481C81798F310927C2981E090E0DD
S1130B808093802990938129CF910895CF93809168
S1130B907C29882341F1E0917A29F0917B29A08175
S1130BA0B18114968C918823F1F0C0E08C2F90E0F1
S1130BB0880F991F0280F381E02DE80FF91F01903F
S1130BC0F081E02D0084F185E02D309709F009953E
S1130BD0CF5FE0917A29F0917B29A081B1811496AD
S1130BE08C91C81718F3CF910895EF92FF920F9349
S1130BF01F93CF93DF9310926B2B10926C2B109258
S1130C006D2B10926E2B10926F2B1092702B2091E3
S1130C10612B22230CF097C28091672B9091682B53
S1130C20009709F095C28BC22F7109F0B9C03091B9
S1130C30622B363089F0383009F4A6C03111B0C0C7
S1130C40029741F462E070E080E899E20E941A0F92
S1130C5001E0F8C100E0F6C12091632B3091642BD0
S1130C60832F992782309105A1F01CF4019739F064
S1130C7081C083309105F1F10F9769F17BC08091B8
S1130C80342090913520DC016C9170E00E941A0FA1
S1130C9060C0E0913420F09135208189281708F054
S1130CA06BC0C9019927880F991F880F991FE0917C
S1130CB03620F0913720E80FF91F80819181FC01E3
S1130CC0628173810E941A0FE091692BF0916A2B63
S1130CD082E081833EC08091382090913920009732
S1130CE009F44CC0DC0112966D917C9113970E941B
S1130CF01A0F2FC033272130310589F048F02230F4
S1130D00310509F42AC22330310509F42AC238C056
S1130D1064E070E080E390E20E941A0F1AC089E256
S1130D2090E225E0382FA6E1B0E2E82FF92F819177
S1130D3090E08D939D938E2F831B8217C0F3220F17
S1130D4062E0620F6093142070E084E190E20E94FC
S1130D501A0F8091672B9091682B20916B2B309107
S1130D606C2B8217930770F480936B2B90936C2BEE
S1130D7001E068C100E066C100E064C100E062C156
S1130D8000E060C101E05EC1019741F461E070E000
S1130D908CE799E20E941A0F01E054C100E052C1AD
S1130DA0213009F040C03091622B3A30E1F50197CF
S1130DB0A1F580917C29882391F1C091652BD09174
S1130DC0662BE0907A29F0907B29D701ED91FC9174
S1130DD08481C81730F560E08C2FFFDD082F88234D
S1130DE009F430C1CE019927880F991FD7011296B3
S1130DF0ED91FC911397E80FF91F0190F081E02D1C
S1130E000680F781E02D099580937E2961E070E0EA
S1130E108EE799E20E941A0F15C100E013C100E0A9
S1130E2011C100E00FC1223009F00EC12091622BE4
S1130E30211103C1029781F48091652B0E94840FD4
S1130E4090E0809376299093772962E070E086E7BA
S1130E5099E2F0D701E0F6C000E0F4C02F7109F088
S1130E6090C08091622B833009F4E9C018F481307A
S1130E70B1F087C0853019F0893061F182C080916A
S1130E80672B9091682B892B41F487EE94E0809333
S1130E906D2B90936E2B01E0D5C000E0D3C0809100
S1130EA0672B9091682B892B89F48091632B909107
S1130EB0642B019769F480918029909181298D7F19
S1130EC0809380299093812901E0BCC000E0BAC0DE
S1130ED000E0B8C08091672B9091682B892B09F0B2
S1130EE046C09DD7882309F444C02091632B3091D8
S1130EF0642B3327E0913420F0913520818990E0F0
S1130F0082179307C0F11BDE8091632B9091642BB1
S1130F1080937C29882389F199278150904C880FEC
S1130F20991F880F991FE0913620F0913720E80F20
S1130F30F91FE0937A29F0937B290190F081E02D49
S1130F4084818823E1F0C0E060E08C2FC2DD082FAB
S1130F50882309F477C0CF5FE0917A29F0917B2947
S1130F600190F081E02D8481C81770F36BC000E01C
S1130F7069C000E067C000E065C001E063C001E053
S1130F8061C0213009F58091622B8B30E9F48091A6
S1130F90672B9091682B892B99F480917C29882365
S1130FA089F0C091652BD091632B8C2F50DD082FD5
S1130FB0882309F447C06D2F8C2F8BDD082F42C086
S1130FC000E040C000E03EC0223009F03DC0809106
S1130FD0622B813019F08330B1F033C08091672BDC
S1130FE09091682B892B59F48091632B9091642BF9
S1130FF0892B39F48091652BA2D7082F23C000E0F8
S113100021C000E01FC08091672B9091682B892B31
S113101081F48091632B9091642B892B61F4C5E654
S1131020DBE288810E94511088810E94A710082F5A
S113103009C000E007C000E005C000E003C000E014
S113104001C000E0011191C08091612B8F7181304A
S1131050C1F580917C298823A1F1C091652BD091A1
S1131060662B00917A2910917B29D801ED91FC918E
S11310708481C81730F560E08C2FAFDC882309F138
S1131080CE019927880F991FD8011296ED91FC91F2
S11310901397E80FF91F00811181D8011696ED917D
S11310A0FC9117970995682F8C2F97DC882349F0BA
S11310B0D8011496ED91FC9115970995082F81118B
S11310C054C08091612B8F718230D9F580917C2935
S11310D0882389F1E0917A29F0917B29A081B1815B
S11310E014968C91882349F110E0212F30E0220FCF
S11310F0331F0280F381E02DE20FF31FC081D18101
S1131100EE81FF810995682F812F67DC082F8823E2
S113111061F1EC81FD810995082F811126C01F5FC3
S1131120E0917A29F0917B29A081B18114968C9168
S11311301817D8F21AC000E018C000E016C000E08A
S113114014C000E012C0822F807609F07DCF86CED5
S1131150322F307609F078CF67CD26E082E290E234
S1131160E1CD24E08BED90E2DDCD802FDF91CF91B6
S11311701F910F91FF90EF900895CF92DF92EF921D
S1131180FF920F931F93CF93DF93EC016A017B01CE
S1131190DB01CA010197A109B109BC01CD01600FAE
S11311A0711F821F931FA70196010E9419252138E0
S11311B0310541055105F8F4213460F4213260F41D
S11311C0213160F4293060F4253060F4233060F07C
S11311D090E00BC093E009C092E007C092E805C01C
S11311E091E003C091E801C090E888818C77892B55
S11311F0888381E001C08FEFDF91CF911F910F9120
S1131200FF90EF90DF90CF900895CF93DF93E0911C
S11312108229F0918329848183FF08C088608483B4
S113122083E0838386EF80938C2989C0982F9471FF
S113123031F083E083838FEF80938C2980C086FF15
S113124045C0A0918429B0918529809186299091E7
S1131250872914962D913C911597821793076CF466
S11312609C012F5F3F4F2093862930938729A80F35
S1131270B91F11968C91878362C0809188299091BF
S1131280892918962D913C91199782179307C8F4D0
S113129020918A29222321F08681816086834FC090
S11312A016962D913C911797AC014F5F5F4F409379
S11312B0882950938929D901A80FB91F8C91878354
S11312C03EC083E0838310928C2939C08823A4F51F
S11312D0A0918429B09185298091882990918929A8
S11312E018962D913C91199782179307F8F4169646
S11312F04D915C9117979C012F5F3F4F2093882954
S1131300309389296781EA01C80FD91F6883189629
S11313108D919C9119972817390718F482E08383DB
S11313200EC087E0838310928C2909C083E08383F5
S113133089EF80938C2903C08BEF80938C29DF91F4
S1131340CF9108951F920F920FB60F9211242F93ED
S11313503F934F935F936F937F938F939F93AF9339
S1131360BF93EF93FF9351DFFF91EF91BF91AF9143
S11313709F918F917F916F915F914F913F912F91A9
S11313800F900FBE0F901F9018951F920F920FB6DB
S11313900F9211242F933F934F935F936F937F93F7
S11313A08F939F93AF93BF93EF93FF932EDFFF91A0
S11313B0EF91BF91AF919F918F917F916F915F91C9
S11313C04F913F912F910F900FBE0F901F90189542
S11313D04F925F926F927F928F929F92AF92BF9241
S11313E0CF92DF92EF92FF920F931F93CF93DF93ED
S11313F0EC014A015B0128013901D901C801689453
S113140012F8B695A795979587951694D1F7B901D3
S1131410A801032E36E176956795579547953A9539
S1131420D1F7302D2C8122FD08C0B695A79597954C
S11314308795769567955795479588159905AA05D3
S1131440BB0508F4A6C084169506A606B70608F4DC
S1131450A2C08C8182FD04C0880C991CAA1CBB1CF0
S1131460C301B201A50194010E9419252F3F310542
S11314704105510508F491C0C12CD12C7601CA94C0
S113148019EF05C02C153D054E055F0568F0CC0C21
S1131490DD1CEE1CFF1C1D3F14F46894C0F81F5F94
S11314A0173081F7212F50C0212F11230CF04CC08D
S11314B0D501C401880F991FAA1FBB1F880F991F4C
S11314C0AA1FBB1F880F991FAA1FBB1F481A590ABE
S11314D06A0A7B0A1E3FF4F46DEF7FEF611B71090A
S11314E017FD739504C0440C551C661C771C6A9543
S11314F0D2F7D501C401B695A79597958795BC01F8
S1131500CD01640D751D861D971DA50194010E94D2
S1131510192536C023E0210FD501C40104C0880F6A
S1131520991FAA1FBB1F2A95D2F79C01AD01B6953E
S1131530A79597958795BC01CD01640D751D861DF2
S1131540971D0E9419251CC02D5FD501C40104C03C
S1131550880F991FAA1FBB1F2A95D2F79C01AD01C2
S1131560B695A79597958795BC01CD01640D751D1A
S1131570861D971D0E9419252150310941095109E1
S1131580832F8F701295107F182B1F832E8381E079
S113159018C080E016C080E014C0D501C401880FD3
S11315A0991FAA1FBB1F880F991FAA1FBB1F880F53
S11315B0991FAA1FBB1F481A590A6A0A7B0A19EF06
S11315C08BCFDF91CF911F910F91FF90EF90DF9020
S11315D0CF90BF90AF909F908F907F906F905F90CF
S11315E04F9008950F931F93CF93DF93EC018B01DA
S11315F0009709F4BEC0803C910521F460E180E0CD
S1131600B4D7B7C0C11584E0D80721F464E080E002
S1131610ACD7AFC0C038E1E0DE0721F462E080E07F
S1131620A4D7A7C0C115F1E0DF0721F461E080E091
S11316309CD79FC0C03883E0D80721F461E081E0E3
S113164094D797C0C115E2E0DE0721F462E081E09F
S11316508CD78FC0C032F3E0DF0721F464E082E06E
S113166084D787C0C11588E0D80721F461E083E0FE
S11316707CD77FC0C115E9E0DE0721F461E084E096
S113168074D777C0C115FAE0DF0721F461E085E083
S11316906CD76FC0C03488E0D80721F462E083E0DF
S11316A064D767C0C034E9E0DE0721F462E084E077
S11316B05CD75FC0C039F8E0DF0721F464E083E061
S11316C054D757C0C03989E0D80721F464E084E0D6
S11316D04CD74FC0C039EAE0DE0721F464E085E06E
S11316E044D747C0C03CF8E0DF0721F468E083E05A
S11316F03CD73FC0C03C89E0D80721F468E084E0CF
S113170034D737C0C03AE8E0DE0721F460E183E073
S11317102CD72FC0C03AF9E0DF0721F460E184E060
S113172024D727C0C03A8AE0D80721F460E185E0D5
S11317301CD71FC0C03BE8E0DE0721F460E283E071
S113174014D717C0C03BF9E0DF0721F460E284E05E
S11317500CD70FC0C03884E0D80721F460E483E0DC
S113176004D707C0C03AE4E0DE0719F460E485E07A
S1131770FCD68D818F738D83F80194818581892BAB
S11317809681992311F098E001C090E0892B8D8314
S1131790F801408151816281738100E01CE62CEDE7
S11317A032E0CE0115DE9C8198609C839C8190611F
S11317B09C83DF91CF911F910F910895811118C0DF
S11317C09091B82A992389F09FB7F894E2E7FBE255
S11317D02081215020839FBF08C09FB7F894E2E77F
S11317E0FBE220812F5F20839FBF8093B82A089556
S11317F09091B82A992389F3F8CF0F93E8ECF4E099
S113180080818F7D808380818F7D8083ECE8FAE204
S113181002E0059310928E2A10928F2A00E206931A
S113182000E40693E4E8FAE200E2069300E4069397
S113183010926D2B10926E2B10926F2B1092702BB6
S113184010926B2B10926C2B1092762A0F910895A4
S11318500F9385E08093762AEDE8FAE204E005939D
S1131860E5E8FAE204E005930F9108950F9383E00D
S11318708093762A10928E2A10928F2AECE8FAE24C
S113188002E006930F910895E0916D2BF0916E2B79
S1131890309709F0099508950F93CF93DF938091C2
S11318A0762A833019F4F0DFA8DF60C08091722AB1
S11318B09091732AC0916B2BD0916C2BC81BD90BC0
S11318C071F52091742A3091752A820F931F8093A9
S11318D0742A9093752A2091672B3091682B821774
S11318E0930721F080918D29882341F084E080932F
S11318F0762AE4E8FAE202E0069338C0E0916F2B1E
S1131900F091702B309799F00995882381F010920B
S1131910722A1092732AC0916B2BD0916C2BC03415
S1131920D10528F010928D29C0E4D0E003C081E0F5
S113193080938D29C0938E2AD0938F2A8091722A06
S11319409091732A2091692B30916A2B280F391FAB
S11319502093902A3093912AC80FD91FC093722ADA
S1131960D093732AECE8FAE202E00693DF91CF9178
S11319700F910895FC018181877090E0FC013197FB
S1131980E730F10520F4E250FF4F0C943B2588E04A
S113199090E0089580E290E0089580E490E0089556
S11319A080E890E0089580E091E0089580E092E07E
S11319B008958FEF93E0089580E190E00895282F33
S11319C02F7030E0220F331F992787FD90958827C9
S11319D0990F881F9927820F931F02979C01220F4A
S11319E0331F220F331F220F331F820F931F825F77
S11319F0954D08950F93CF938091CC0480FF62C0DE
S1131A0081E08093CC04E4E8FAE200E80693ECE891
S1131A10FAE200E806938093CA04E4E8FAE200E1FB
S1131A2006938091762A882329F08350823008F423
S1131A302BDFE3DE8091862A9091872A089709F0AC
S1131A4043C088E0E2E3FAE2A1E6BBE201900D9232
S1131A508A95E1F7E8ECF4E08081806280838081FC
S1131A6080628083C2D8C82F811103C0F1DEC1E037
S1131A702CC08091612B88236CF41092742A1092EC
S1131A80752A1092722A1092732A82E08093762A21
S1131A9003DF1BC02091672B3091682B232B11F49B
S1131AA0E5DE13C01092742A1092752A1092722ADD
S1131AB01092732A81E08093762AE4E8FAE202E045
S1131AC0069303C0C0E001C0C1E08C2FCF910F91F9
S1131AD00895BF92CF92DF92EF92FF920F931F93DC
S1131AE0CF93DF93B82E6BDFEC011B2D111F112751
S1131AF0111F8B2D8F70E82EF12CEE0CFF1CE10EC4
S1131B00F11CC701880F991F880F991F880F991F0F
S1131B109C012C57354D7901C9012CDF6C0111232F
S1131B2009F45BC0D70116962D913C9117978D81CE
S1131B309E81280F391F2D833E838B819C8128171A
S1131B403907C9F1FC01E21BF30B9F012115F4E0F5
S1131B503F0740F02FEF33E0C901B6010E9405258D
S1131B60281B390B888181FF0AC0C901B6010E9474
S1131B70052541E0892B09F040E0942F01C090E055
S1131B80888190FB81F98883D70116961D921C9257
S1131B90179712962D933C93139729813A818D813F
S1131BA09E81820F931F14968D939C931597F70132
S1131BB002E0069398C0888181FF87C08D7F888367
S1131BC0D70116961D921C92179712961D921C927D
S1131BD01397F70102E0069386C0D70112960D9180
S1131BE01C911397888182FF15C0E981FA812D81A8
S1131BF03E818B819C81B6010E940525B0E4BB9E89
S1131C00B0011124625B764DAC01CF01820F931FAA
S1131C100E94A1252D813E81200F311F2D833E83FB
S1131C20EB81FC81E217F30710F4ED83FE83D70107
S1131C3016968D919C9117978017910709F045C0CE
S1131C408D819E81E817F90709F43FC0E81BF90B61
S1131C50E115B4E0FB0748F0EFEFF3E0CF01B60184
S1131C600E940525E81BF90B06C0CF01B6010E94AE
S1131C700525E81BF90BD70112961D921C921397A8
S1131C80EC15FD0578F4888184608883B0E4BB9EFC
S1131C90C0011124825B964DF70184839583C6822B
S1131CA0D7820FC029813A818D819E81820F931F33
S1131CB0D70114968D939C9315971696ED93FC93E8
S1131CC01797F70102E006930EC0888180FF0BC0CE
S1131CD08E7F8883EF81F885309729F06D817E812E
S1131CE04B2D80E00995DF91CF911F910F91FF90CB
S1131CF0EF90DF90CF90BF900895CF93CFB7F89433
S1131D0081E05CDDEAECF4E080E4808380E28083BF
S1131D10E1ECF4E0808181608083A9ECB4E08C91F3
S1131D2082608C93E8ECF4E08081806480838C9101
S1131D3081608C93808180688083CFBFCF91089528
S1131D40CF9380E31ED4E0ECF4E080818064808350
S1131D50CFB7F8941092852A10928D2A1092952A62
S1131D6010929D2A1092A52A1092AD2AEEE0FAE272
S1131D7080818E7F8083E7E1FAE280818E7F808399
S1131D80E0E2FAE280818E7F8083E9E2FAE28081F8
S1131D908E7F80836AE170E082E0ECD48F3F19F09B
S1131DA08093FA0403C08FE18093FA046BE170E03E
S1131DB082E0E0D48F3F19F08093FB0403C08FE1ED
S1131DC08093FB04E0ECF4E0808182608083808176
S1131DD08068808380818061808384E89AE286833E
S1131DE097838081806280838FEF8093C504E8ECC1
S1131DF0F4E08081816080831092B82A8FB7F894D0
S1131E00E6E7FBE290819F5F90838FBF76DFCFBFD1
S1131E10CF91089580E008958093C304089580913C
S1131E20C30408958091B42A9091B52A089580E05E
S1131E3090E008958093692B90936A2B60936B2BA9
S1131E4070936C2B0895E82FEF70F0E0EE0FFF1FF6
S1131E50992787FD90958827990F881F9927E80F60
S1131E60F91FEE0FFF1FEE0FFF1FEE0FFF1FEC57C2
S1131E70F54D8181807C09F043C06370613029F0A5
S1131E8010F480E403C080E801C080EC40385105C0
S1131E90E1F050F440325105A1F04034510599F07D
S1131EA04031510561F419C0411592E0590789F098
S1131EB04F3F93E0590779F04115514041F020E03C
S1131EC00DC022E00BC023E009C024E007C025E0D8
S1131ED005C026E003C027E001C021E0118296E09E
S1131EE09083822B81838181807C803C21F4818159
S1131EF08770873039F081818062818381E0089521
S1131F0080E0089581E00895E82FEF70F0E0EE0F8F
S1131F10FF1F992787FD90958827990F881F992778
S1131F20E80FF91FEE0FFF1FEE0FFF1FEE0FFF1F4D
S1131F30EC57F54D818182FB882780F90895E82FBD
S1131F40EF70F0E0EE0FFF1F282F332727FD3095A9
S1131F502227330F221F3327E20FF31FEE0FFF1F39
S1131F60EE0FFF1FEE0FFF1FEC57F54D918192FF0F
S1131F700EC091819B7F918322DDFC01808180FFD3
S1131F8006C08E7F80830780F085E02D099581E06F
S1131F9008957F928F929F92AF92BF92CF92DF92D9
S1131FA0EF92FF920F931F93CF93DF93982E862E79
S1131FB05A01690104DD7C01792C771C7724771C94
S1131FC0C92DCF70D0E0CC0FDD1FC70DD11DCC0FB4
S1131FD0DD1FCC0FDD1FCC0FDD1FCC57D54D898104
S1131FE0807C09F44CC08981807C803C19F0898113
S1131FF082FD47C08FB7F894F701908190FF03C02A
S11320008FBF712C3FC0F7019081916090838FBF87
S1132010F701A182B282C382D48215821682078319
S11320201087811006C091E0C114D10419F090E02A
S113203001C091E0F701808190FB81F98B7F80835F
S1132040772019F01E821F8215C08981807C803C14
S113205069F4CE018FDCBC01C6010E940525892BE1
S113206029F0F70180818E7F80830CC01A821B8245
S11320701E821F82892D2DDD7724739403C0712C59
S113208001C0712C872DDF91CF911F910F91FF908B
S1132090EF90DF90CF90BF90AF909F908F907F9004
S11320A00895FF920F931F93CF93DF93182FF82E69
S11320B0FF1CFF24FF1CC82FCF70D0E0CC0FDD1F06
S11320C0CF0DD11DCC0FDD1FCC0FDD1FCC0FDD1FBD
S11320D0CC57D54D74DCDC01FE0102E005938C91F4
S11320E080FF12C08E7F8C931796ED91FC91189708
S11320F0309751F0FF2019F06E817F8102C06A8110
S11321007B81412F81E00995DF91CF911F910F9140
S1132110FF900895CF93C82FC4DFEC2FEF70F0E049
S1132120EE0FFF1F8C2F992787FD90958827990F15
S1132130881F9927E80FF91FEE0FFF1FEE0FFF1FEF
S1132140EE0FFF1FEC57F54D1182CF9108950F93B9
S1132150E82FEF70F0E0EE0FFF1F282F332727FD45
S113216030952227330F221F3327E20FF31FEE0F80
S1132170FF1FEE0FFF1FEE0FFF1FEC57F54D918170
S11321809460918301E006938CDF81E00F910895C0
S11321901F920F920FB60F9211240F932F933F9318
S11321A04F935F936F937F938F939F93AF93BF935B
S11321B0EF93FF938091CB04882334F480E88093D9
S11321C0CA040E94C60588C08091CB0482FF20C047
S11321D084E08093CA0480918C2A86FF7DC080911C
S11321E0CC0481FD79C006DC811176C08091762A09
S11321F0813011F43BDB70C0843009F06DC0EDE830
S1132200FAE204E00593E5E8FAE204E0059364C029
S11322108091CB0481FF5BC082E08093CA048091EB
S1132220842A86FF59C08091CC0481FD55C0E2DB2D
S1132230811152C08091762A823041F484E08093E7
S1132240762AE4E8FAE202E0069346C0833009F015
S113225043C0EDE8FAE204E00593E5E8FAE204E0BD
S113226005933AC080E18093CA0481E01ADF81E8D3
S113227018DF0E949F051092C304E5E8FAE2108279
S113228096E09093842A83E48083EDE8FAE2108256
S113229090938C2A808382E39AE28093882A909395
S11322A0892AABDA19C08091CB0486FF06C080E48A
S11322B08093CA0480E082DA0FC08091CB0485FF4A
S11322C00BC080E28093CA0481E078DA05C0809173
S11322D0CB0484FFE8CFC6CFFF91EF91BF91AF91BC
S11322E09F918F917F916F915F914F913F912F912A
S11322F00F910F900FBE0F901F9018951F920F9281
S11323000FB60F9211240F931F932F933F934F9364
S11323105F936F937F938F939F93AF93BF93CF9369
S1132320DF93EF93FF938091CC0481FD03C062DBC4
S11323308111B9C082E08093CC048091C504819559
S1132340880FE4E8FAE2E81BF1092081318124587E
S11323503A42369527953695279536952795822FB7
S1132360869520FF02C090E801C090E0890FE82F15
S1132370EF70F0E0EE0FFF1F282F332727FD309575
S11323802227330F221F3327E20FF31FEE0FFF1F05
S1132390EE0FFF1FEE0FFF1FEC57F54D908195FFD9
S11323A082C000E20693811179C08091762A84303C
S11323B019F46ADA22DA77C0C091862AD091872A82
S11323C080916B2B90916C2B0091722A1091732A3F
S11323D098012C0F3D1F8217930718F4EC01C01BC2
S11323E0D10B8091692B90916A2BAE0162E37AE262
S11323F0800F911F0E94A1250C0F1D1F0093722AAC
S11324001093732AC034D10569F48091742A909191
S1132410752A800F911F2091672B3091682B8217AA
S1132420930788F000936B2B10936C2BE0916F2B28
S1132430F091702B309729F00995811102C008DAC8
S113244032C014DA30C080916B2B90916C2B08173A
S11324501907F9F4E0916F2BF091702B309711F478
S1132460F7D921C00995811102C0F2D91CC020916D
S1132470742A3091752A8091722A9091732A820F5E
S1132480931F8093742A9093752A1092722A109243
S1132490732AE4E8FAE202E0069305C0803811F4F6
S11324A0FBD901C016DBFF91EF91DF91CF91BF9172
S11324B0AF919F918F917F916F915F914F913F91D8
S11324C02F911F910F910F900FBE0F901F90189591
S11324D0CF93DF9300D000D0CDB7DEB78FEF8093DA
S11324E070008093710080937200809373008093D6
S11324F0740080937500809376006CE170E082E054
S113250039D18A836DE170E082E034D18983898195
S11325109A81019621F480E493E289839A838981E4
S11325209A818B839C83E0E6F0E082838C818383B1
S11325308FB7F894E0E5F0E09081926090838FBFCC
S1132540818181FFFDCF61E080E490E01DD18FB7F0
S1132550F894E0E5F0E090819E7F90838FBF24960D
S1132560CDBFDEBFDF91CF9108959FB7F894E82FD8
S1132570F0E0E059FF4F60958081682360839FBF3E
S11325800895863011F468E101C060E0E0E5F0E010
S1132590818181FD09C08FB7F89490819260908306
S11325A08FBF818181FFFDCF636084E490E0ECD034
S11325B060E480E0DACF0895CF93DF939B01E0ECF1
S11325C0F1E067856623ECF3CCECD1E068816860C8
S11325D06883BC01705FC9010E94A1258881877F3F
S11325E08883DF91CF910895E0ECF1E0878588231B
S11325F0ECF3E0ECF1E0878581FF06C086E3828797
S113260061E08BEC91E0C0C00895E0ECF1E09785C7
S11326109923ECF3ECECF1E0908198609083A82F7F
S1132620B0E0B05F6C938081877F80830895FF92D0
S11326300F931F93CF93DF93182FF92EC62FE0EC3F
S1132640F1E00285D1DFE0ECF1E027852223ECF311
S11326506C2F812FDADFC0ECD1E01A82F982188363
S113266085E38A8761E08BEC91E08ED00A87DF9165
S1132670CF911F910F91FF900895EF92FF920F93C6
S11326801F93CF93DF938C01E0ECF1E087858823DF
S1132690ECF3780180E2E80EF11CE8018C2F801B3A
S11326A06991B3DFCE15DF05C9F7DF91CF911F9193
S11326B00F91FF90EF9008951F93CF93DF93E0EC79
S11326C0F1E097859923ECF320E2829FC001112465
S11326D0C0ECD1E01A82998388831A8585E38A87BE
S11326E061E08BEC91E050D01A87DF91CF911F917C
S11326F00895CF92DF92EF92FF920F931F93CF939F
S1132700DF93EC017B018A014115510551F1CE01A2
S11327108F719927892BB1F40032110598F0C70104
S1132720ACDFCE0196958795929582958F70892717
S11327309F708927C1DFA09680E2E80EF11C005249
S113274011090CC06E01EFEFCE1ADE0AF701619198
S11327507F01CE016CDF01501109E601011511055D
S1132760B1F6DF91CF911F910F91FF90EF90DF9021
S1132770CF9008954091CA01E62FF72F8093CA01A4
S113278084914093CA0108951BBEFC0128ED24BF27
S1132790608308950F931F93CF93DF9300D01F920C
S11327A0CDB7DEB76115710529F48068898381E0AE
S11327B090E014C0806C89836038710520F46A83CA
S11327C082E090E00BC0862F80688A83660F672FB3
S11327D0661F770B71956B8383E090E0BE016F5F9A
S11327E07F4F0E94071E2396CDBFDEBFDF91CF919E
S11327F01F910F9108950F931F93FA019A01280FC7
S1132800391F2130344068F49C012250310940E0E2
S113281050E08B01BF0189E090E0BCDF80E090E0F4
S113282002C08FEF9FEF1F910F9108950F931F9395
S1132830CF93DF9300D01F92CDB7DEB7611571053A
S113284021F4898381E090E014C080648983603836
S1132850710520F46A8382E090E00BC0862F8068C3
S11328608A83660F672F661F770B71956B8383E0EE
S113287090E0BE016F5F7F4F0E94421E2396CDBF42
S1132880DEBFDF91CF911F910F9108950F931F9396
S11328909B01BA0140E050E08C0181E190E0C6DF89
S11328A01F910F910895EF92FF920F931F93CF936F
S11328B0DF9300D000D0CDB7DEB79E012F5F3F4F2E
S11328C0890124E030E040E050E0B0DFFE013596BD
S11328D060E070E0CB01B82FA72F962F88272291B4
S11328E0BC01CD01620F711D811D911DE017F1071F
S11328F091F72496CDBFDEBFDF91CF911F910F9149
S1132900FF90EF90089560E070E080E090E0CBCF1E
S113291008950F931F93CF93DF9300D0CDB7DEB705
S11329208E010F5F1F4F22E030E040E050E07EDF79
S11329308A8190E0982F88272981820F911D0F901A
S11329400F90DF91CF911F910F9108950F931F93D3
S1132950CF93DF931F92CDB7DEB78E010F5F1F4F6A
S113296021E030E040E050E061DF89810F90DF91A9
S1132970CF911F910F9108950F931F93CF93DF93DE
S11329801F92CDB7DEB749838E010F5F1F4F21E041
S113299030E040E050E0FEDE0F90DF91CF911F91D8
S11329A00F9108950F931F93CF93DF9300D0CDB76A
S11329B0DEB749835A838E010F5F1F4F22E030E058
S11329C040E050E0E7DE0F900F90DF91CF911F9130
S11329D00F910895AC0164E078E18EE290E0E2CFDB
S11329E00895AC0160E070E088E190E0DBCF0895E9
S11329F00F931F93CF93DF9300D000D0CDB7DEB7F2
S1132A0029833A834B835C838E010F5F1F4F24E03D
S1132A1030E040E050E0BEDE2496CDBFDEBFDF9163
S1132A20CF911F910F910895CF92DF92EF92FF9271
S1132A300F931F938C01CA01AA2797FDA095BA2F63
S1132A40072E7FE0880F991FAA1FBB1F7A95D1F725
S1132A50702DE0919820F0919920C284D384E4846D
S1132A60F5848C299D29AE29BF2920E030E0802BF4
S1132A70912BA22BB32BAB0160E070E0032E36E167
S1132A80440F551F661F771F3A95D1F7302D9A01D1
S1132A90AB01282B392B4A2B5B2B60E070E088E0DC
S1132AA090E0A6DF1F910F91FF90EF90DF90CF9001
S1132AB00895AB0164E070E08DE290E073DF43E0E1
S1132AC066E070E08DE290E057DF40E066E070E0A1
S1132AD08DE290E051DF6AE070E08DE290E0E3CEB9
S1132AE0089540E062E070E08CE290E045DF42E06F
S1132AF062E070E08CE290E03FCF0895CF93DF93E3
S1132B00EC014DE666E078E08EE290E035DFCD2B17
S1132B1041F047E056E066E078E18EE290E042DF83
S1132B2007C047E056E166E078E18EE290E03ADFE4
S1132B30DF91CF9108954F925F926F927F92AF92FF
S1132B40BF92CF92DF92EF92FF920F931F93CF9396
S1132B50DF93EC01488059806A807B80842DEC8966
S1132B60FD89EE0FFF1FE95FFB4DC080D1800C8112
S1132B700150843041F021E090E0873009F020E0FA
S1132B80E22EF92E03C0EE24E394F12C8C8D9D8D5E
S1132B90AE8DBF8D892B8A2B8B2BA1F4E0919820CD
S1132BA0F091992080899189A289B389A064808B4E
S1132BB0918BA28BB38BD694C794D694C794D69496
S1132BC0C7940DC0E0919820F09199208089918953
S1132BD0A289B389AF7B808B918BA28BB38BE0915D
S1132BE09820F091992088A1808780899189A28971
S1132BF0B389AC7F808B918BA28BB38B48A159A1F5
S1132C006AA17BA1BA01552744274427552763703D
S1132C1077279A01AB01282B392B4A2B5B2B208B6E
S1132C20318B428B538B60E070E084E090E0E0DE17
S1132C30A60164E078E28EE290E0B4DE10E0C80120
S1132C405DDFE42DF0E0E455FB4DA080B12C65017F
S1132C50CC0CDD1CCC0CDD1CF601E458FB4D2081B2
S1132C6031814281538167E070E08BE290E0C0DE05
S1132C70F501EA58FB4D40816BE070E08BE290E097
S1132C807BDEF701FF27EC58FB4D40816BE070E0E1
S1132C9088E290E071DEF601EC56FB4D2081318133
S1132CA0428153816CE070E088E290E0A1DEEC8D1B
S1132CB0FD8DEE0FFF1F888D998DE80FF91FEE0F24
S1132CC0FF1FE35AFB4D4081518162E070E087E2CF
S1132CD090E068DEF801EE0FFF1FE75AFB4D4081DC
S1132CE0518164E070E087E290E05CDE8C8D9D8D24
S1132CF0AE8DBF8D892B8A2B8B2B41F444E650E09B
S1132D0066E070E087E290E04DDE23C08885998517
S1132D10AA85BB850497A105B10571F440E150E093
S1132D2066E070E087E290E03DDE40E166E270E05C
S1132D3087E290E021DE0DC040E250E066E070E002
S1132D4087E290E02FDE48E266E270E087E290E0FE
S1132D5013DE8C859D85F801EE0FFF1FEE0FFF1F1C
S1132D60E80FF91FEE0FFF1FEE0FFF1FE75CFB4D8F
S1132D70208131814281538168E070E087E290E0F4
S1132D8037DE8CA19DA1AEA1BFA1892B8A2B8B2BF1
S1132D9041F481E490E1A0E0B0E08CA39DA3AEA354
S1132DA0BFA34CA15DA160E270E087E290E0FADD90
S1132DB020916C2430916D2440916E2450916F24A5
S1132DC06CE070E083E290E013DEF801EE0FFF1F89
S1132DD0E059FB4D4081518164E070E083E290E072
S1132DE0E1DD888D998DAA8DBB8D892B8A2B8B2B48
S1132DF069F0EC8DFD8DE759FB4D408160E070E09A
S1132E0081E290E0B9DDE1E083E002C0E0E080E04F
S1132E100C891D892E893F890F2EFBE1000F111F9C
S1132E20221F331FFA95D1F7F02DB301A2014F7081
S1132E30552766277727042B152B262B372B4C81F8
S1132E405D816E817F81032E32E1440F551F661F21
S1132E50771F3A95D1F7302D442755276C70772783
S1132E60042B152B262B372B488959896A897B8992
S1132E70032E36E1440F551F661F771F3A95D1F78D
S1132E80302D44275527607C7770042B152B262B77
S1132E90372B552466247724B301A201440F551F10
S1132EA0661F771F440F551F661F771F440F551F5A
S1132EB0661F771F440F551F661F771F5527662708
S1132EC07727402B512B622B732B90E0A0E0B0E0CE
S1132ED0072E74E1880F991FAA1FBB1F7A95D1F79B
S1132EE0702D842B952BA62BB72B4E2E512C612C99
S1132EF0712C032E31E1440C551C661C771C3A9549
S1132F00D1F7302DA3019201282B392B4A2B5B2BAF
S1132F1060E070E08FE190E06BDD4C815D816E815B
S1132F207F8188859985AA85BB85842B952BA62BC3
S1132F30B72BBC01552744278C8D9D8DAE8DBF8D3D
S1132F40072E7DE0880F991FAA1FBB1F7A95D1F722
S1132F50702D9A01AB01282B392B4A2B5B2BE09166
S1132F609820F0919920228733874487558760E021
S1132F7070E088E090E03CDD42E460E070E08DE0E9
S1132F8090E0FADCDF91CF911F910F91FF90EF90C9
S1132F90DF90CF90BF90AF907F906F905F904F90F5
S1132FA00895E0919820F091992080A391A362A3C1
S1132FB073A344A355A326A337A30895CF93C82F7F
S1132FC080FF20C060E070E086E290E06CDCDC0111
S1132FD0CB01937C9C01AD01346160E070E086E23A
S1132FE090E006DD60E070E086E390E05CDC9B014D
S1132FF0AC01446860E070E086E390E0F9DCC1FD78
S113300019C00EC060E070E086E290E04CDC9B01E9
S1133010AC01337C60E070E086E290E0E9DC1CC047
S113302020E131E040E050E068E270E086E390E0C7
S1133030DFDC12C020E131E04FE050E068E270E0F4
S113304086E390E0D5DC20E131E040E050E068E246
S113305070E086E390E0CCDCCF910895EF92FF928C
S11330600F931F93CF93DF9300D0CDB7DEB77C01CE
S11330708E010F5F1F4F22E030E040E050E060E03F
S113308070E086E390E0D2DB8FE0E816F104A0F56F
S1133090F701EB5FFE4F0C943B2519828A818E7FEA
S11330A08A832AC089818C7F8160898325C0898134
S11330B08C7F8260898320C08981837B8864898333
S11330C08A8180688A8318C08981837B89838A8105
S11330D08F778A8311C08A8182608A830DC08A8136
S11330E08D7F8A8309C089818F7C8062898304C033
S11330F081E0898383E08A838E010F5F1F4F21E083
S113310030E040E050E060E070E086E390E042DBD5
S11331100F5F1F4F21E030E040E050E061E070E0DD
S113312086E390E037DB0F900F90DF91CF911F91F2
S11331300F91FF90EF9008958EE090E08FDF40E0D4
S113314050E866E070E08DE290E02CDC81E090E0F5
S1133150D0D481E090E082CF089580E090E07EDFDB
S113316040E050E064E070E086E390E01BCC08951A
S1133170CF93C82F81FF0EC040E860E070E08DE07F
S113318090E0FADBE0919820F091992081E0868B21
S113319040E801C040E0C0FF1DC0466060E070E050
S11331A08DE090E0E9DB63E070E08FE090E0B1DB7C
S11331B088709470892BB9F040E460E070E08DE091
S11331C090E0DADBE0919820F0919920168A8FEF55
S11331D09FEF0BC0426060E070E08DE090E0CCDBDC
S11331E080E090E002C080E090E0CF91089563E039
S11331F070E08FE090E0AADB482F407850E060E078
S113320070E0807490E0A0E0B0E0880F991FAA1FDE
S1133210BB1F481759076A077B0731F041E063E099
S113322070E08DE090E0A8CB0895CF92DF92EF920A
S1133230FF92CF93DF9360E070E08EE090E033DBA9
S11332406B017C0144D2EC0120E030E0A90160E094
S113325070E08EE090E0CCDB40E460E070E08DE074
S113326090E08ADB28EF3FEF47E254E260E070E051
S11332708FE090E0BDDBBBDFA701960160E070E06A
S11332808EE090E0B5DBCE0126D2E0919820F0915B
S11332909920168ADF91CF91FF90EF90DF90CF9025
S11332A00895CF92DF92EF92FF921F93CF93DF9313
S11332B06B017C01142F0BD2EC0160E070E08EE016
S11332C090E0F1DA112339F09B01AC012C293D295E
S11332D04E295F290AC0C094D094E094F0949B01D5
S11332E0AC012C213D214E215F2160E070E08EE095
S11332F090E07EDBCE01EFD1DF91CF911F91FF9063
S1133300EF90DF90CF90089540EE63E070E086E3A5
S113331090E032DB40EF63E070E086E390E02CCB9A
S11333200895CF92DF92EF92FF920F931F93CF9362
S1133330DF93C0919820D091992060E070E08FE0F5
S113334090E0B1DA6B017C016F8B788F898F9A8F53
S113335076FF6DC020E03FE640E050E060E070E0C2
S11333608FE090E045DBE0919820F0919920178E52
S113337060E070E080E190E0CCDAE0919820F09198
S113338099202085222319F09C01337003C09C01ED
S11333902F773327238F348F99231CF4878D8160F3
S11333A0878F8F01035E1F4F22E030E040E050E042
S11333B060E070E081E190E039DAC3FE1EC0E09184
S11333C09820F0919920858D85FD17C028E030E084
S11333D040E050E060E070E08FE090E009DBE091D5
S11333E09820F09199208789908DA18DB28D877F47
S11333F0878B908FA18FB28F168AA0919820B0915D
S113340099209296ED91FC919397309719F0CD0104
S113341047960995E0919820F09199208785882313
S113342031F041E063E070E08DE090E0A5DAC7FEA2
S113343021C028EF30E040E050E060E070E08FE031
S113344090E0D6DAC3FE09C0E0919820F09199206B
S11334508689882311F0E9DE57DFA0919820B09186
S113346099209096ED91FC919197309719F0CD01A8
S113347047960995D701C60188279927A272BB27C9
S1133480892B8A2B8B2BE9F020E030E042E050E0DE
S113349060E070E08FE090E0ABDAE0919820F0918A
S11334A09920168AC2DE30DFA0919820B09199202D
S11334B09496ED91FC919597309719F0CD0147962C
S11334C00995CC2480E9D82285E0E82284E2F82218
S11334D0CD28CE28CF28E9F020E030E945E054E2B9
S11334E060E070E08FE090E083DAE0919820F09162
S11334F09920168A9ADE08DFA0919820B09199202D
S11335009696ED91FC919797309719F0CD014796D7
S11335100995DF91CF911F910F91FF90EF90DF906C
S1133520CF9008951ADE40E050E060E070E08CE255
S113353090E038DA40E066E070E08CE290E01CDA7B
S1133540D0DA40E063E070E086E390E015DA81E0F1
S113355090E0CFD240EF63E070E086E390E00CDAD5
S1133560E0919820F0919920168A08958F71482F40
S113357040666EE070E08BE290E0FEC908950F9320
S11335801F93CF93DF93C82FE0919820F091992057
S11335901786168A148A158A10A211A212A213A2DF
S11335A014A215A216A217A2AED9603371408A4C98
S11335B09E4D09F085C0B6DF80E090E04FDD44E029
S11335C060E070E084E290E0D7D96EE170E080E0E2
S11335D090E06FDAD62FE0919820F09199207187CE
S11335E064E070E080E090E064DA662379F042E021
S11335F062E170E08DE290E0BFD9E0919820F09113
S11336009920848995899061848B958B0091982069
S11336101091992066E070E080E090E04ADAF801C9
S11336206083718382839383009198201091992001
S113363067E070E080E090E03CDAF8016483758331
S113364086839783E0919820F0919920DF7111F09F
S1133650D68702C080E18687868588DFC0FF0BC0DD
S11336606BDDE0919820F091992084899589986088
S1133670848B958B0CC065E070E086E390E049D9BB
S1133680AC015D7F65E070E086E390E08BD981E07A
S113369090E0E4DC40E06AE070E08CE290E06CD919
S11336A0C0919820D091992060E070E084E090E08F
S11336B0FAD8688B798B8A8B9B8B80E090E002C070
S11336C08FEF9FEFDF91CF911F910F910895F894A1
S11336D081E090E008957894089582E0E0E2F6E0D5
S11336E08783089580EE90E20E94D12588EB9BE0C9
S11336F0A0E0B0E08093C2209093C320A093C420A4
S1133700B093C52081E08093272C80E8E0E0F6E0C8
S1133710878308958EEE90E20E94D1251092C220F4
S11337201092C3201092C4201092C52082E080938E
S1133730272C81E0E0E2F6E087830895CF93DF93BE
S1133740EC0188EF90E20E94D125E2EEFAE221E654
S11337503BE21192E217F307E1F76C817D81603857
S1133760710528F440E050E082EE9AE28FD880910F
S1133770E22A813409F0B2C08091E32A883809F042
S1133780ADC08091E42A8093772B8091E52A90E064
S1133790982F88272091E62A822B8093782B909368
S11337A0792BC091E72AD0E0DC2FCC278091E82A3E
S11337B0C82BC0937A2BD0937B2B8091E92A90E07D
S11337C0982F88272091EA2A822B80937C2B909330
S11337D07D2B10927E2B8091EB2A803309F074C0EC
S11337E04091EC2A40937E2B50E06DEE7AE28FE715
S11337F09BE20E94B125BDD4C817D90761F58FE7B4
S11338009BE29F938F9380917E2B1F928F93ECE783
S1133810FBE281818F9380818F93EAE7FBE28181D0
S11338208F9380818F93E8E7FBE281818F9380817E
S11338308F938091772B1F928F9382E091E29F93D5
S11338408F930E94C0251092272C8DB79EB70E9699
S11338508DBF9EBF47C080917A2B90917B2B8F3F69
S1133860910551F58FE79BE29F938F9380917E2B77
S11338701F928F93ECE7FBE281818F9380818F937A
S11338801F928FEF8F93E8E7FBE281818F93808112
S11338908F938091772B1F928F938AE791E29F9366
S11338A08F930E94C02583E08093272C8DB79EB709
S11338B00E968DBF9EBF16C080E092E20E94D12575
S11338C084E08093272C0EC0823361F48DE192E270
S11338D00E94D12585E08093272C04C08AE292E2DD
S11338E00E94D12588EE93E0A0E0B0E08093C2204E
S11338F09093C320A093C420B093C52080E4E0E05B
S1133900F6E08783DF91CF910895CF93C82F3BD101
S113391080E090E034DE019649F48EE392E29F93D6
S11339208F930E94C0250F900F90FFCF55D18AE945
S113393090E201D9CC2311F083E040DB80D64AD851
S113394083D64FD82AE83BE142E75BE16EE97BE1AD
S11339508DE69BE126DB41E060E870ED83E294E0D4
S1133960A0DCCF910895AF92BF92CF92DF92EF92F5
S1133970FF920F931F93CF93DF93CDB7DEB75C0114
S11339800DB71EB7FC0101900020E9F7CF018A1999
S11339909B099C01245F3F4F79018DB79EB7821B21
S11339A0930B8DBF9EBFADB7BEB711966D0181E479
S11339B0EDB7FEB7818388E811968C9311978091B7
S11339C0E12A12968C93129713961C9213971496CD
S11339D01C92149715967C93159716966C931697CC
S11339E017961C92C6D3D60118968C93189780E329
S11339F019968C931997F50101900020E9F73197F6
S1133A00EA19FB091A96EC93F50101900020E9F7F5
S1133A103197EA19FB09EC0DFD1D1386F5010190A0
S1133A200020E9F73197EA19FB09EC0DFD1D148616
S1133A30F50101900020E9F73197AF014A195B09BC
S1133A40B501C6010B960E94B1254FEF5FEFBA0195
S1133A504093C2205093C3206093C4207093C52028
S1133A608FEF8093272C40E050E0B601C7010E94FD
S1133A70FB1340E050E060E070E0C7010E941415C1
S1133A8082E076DB0F2EF0E8EF2EF6E0FF2EF02D2D
S1133A9005C0F701808580FFFCCF43DC8091C22004
S1133AA09091C320A091C420B091C5208F3F9F4F17
S1133AB0AF4FBF4F71F38091272C853059F480911B
S1133AC0772B9091E12A891305C01092272C8F5FE0
S1133AD08093E12A8091272C0DBF1EBFDF91CF91E7
S1133AE01F910F91FF90EF90DF90CF90BF90AF9018
S1133AF00895AF92BF92CF92DF92EF92FF920F930D
S1133B001F93CF93DF93A12C0F2EFCE6BF2EF02D35
S1133B100F2EFCEDCF2EF02D6894DD24D1F8E12C8E
S1133B20F12C00E010E0282F392F40E050E060E055
S1133B3070E080E090E0A5D729513C4F4F4F5F4F94
S1133B406F4F7F4F8F4F9F4FC1D620E030E84BEB34
S1133B5055E41AD686D6F22FE32F8F2F9E2FA42F4B
S1133B60B52F0197A109B1090097A105B105C9F7BE
S1133B70DF91CF911F910F91FF90EF90DF90CF9045
S1133B80BF90AF900895CF92DF92EF92FF920F9380
S1133B901F9384E18093262C80EC98E00E944001DE
S1133BA0C12CD12C760100E211EA27E030E040E09C
S1133BB066E27CE280EC98E00E945901E0ECF8E0D7
S1133BC080818064808380E090E01F910F91FF905A
S1133BD0EF90DF90CF900895CF92DF92EF92FF9213
S1133BE00F931F93C12CD12C760100EC11EE24EE1F
S1133BF030E040E066E27CE280EC98E00E9459010B
S1133C001F910F91FF90EF90DF90CF9008958F92C6
S1133C109F92AF92BF92CF92DF92EF92FF920F9357
S1133C201F93CF93DF937C01EB0149015A014FDDD0
S1133C306C0166E27CE280EC98E00E949A01A701A4
S1133C40BE0180EC98E00E947801A401B80180ECE8
S1133C5098E00E94780166E27CE280EC98E00E94A1
S1133C60B001C60138DD80E090E0DF91CF911F9173
S1133C700F91FF90EF90DF90CF90BF90AF909F9007
S1133C808F9008958F929F92AF92BF92CF92DF92BE
S1133C90EF92FF920F931F93CF93DF937C01EB017D
S1133CA049015A0114DD6C0166E27CE280EC98E083
S1133CB00E949A01A701BE0180EC98E00E9478015D
S1133CC0A401B80180EC98E00E94870166E27CE2DE
S1133CD080EC98E00E94B001C601FDDC80E090E039
S1133CE0DF91CF911F910F91FF90EF90DF90CF90D4
S1133CF0BF90AF909F908F9008950E94681280E0CB
S1133D009AE6A8E1B0E00197A109B1090097A105DD
S1133D10B105C9F7E0E4F6E088E0828394E0928399
S1133D20A0E0B6E020E411962C93119730E81196A8
S1133D303C93A0E2B6E041E011964C93119742E027
S1133D4011964C93A0E8B6E011964C9311971296F5
S1133D509C93129711968C93A0E6B6E012969C93CE
S1133D60129711968C9380E1818380E28183318361
S1133D7022838FB7F894E6E5F6E0908197709083FC
S1133D809081906190838FBF81E0E0E8F6E08283C8
S1133D9087C4089580E4E0E0F6E0858380E092EE55
S1133DA0A4E0B0E00197A109B1090097A105B1050C
S1133DB0C9F780E8E0E0F6E0858380E092EEA4E0D5
S1133DC0B0E00197A109B1090097A105B105C9F7B0
S1133DD081E0E0E2F6E0858380E092EEA4E0B0E0EA
S1133DE00197A109B1090097A105B105C9F782E0BE
S1133DF0E0E2F6E0858380E092EEA4E0B0E0019793
S1133E00A109B1090097A105B105C9F780E4E0E073
S1133E10F6E0868380E092EEA4E0B0E00197A10989
S1133E20B1090097A105B105C9F780E8E0E0F6E023
S1133E30868380E092EEA4E0B0E00197A109B10985
S1133E400097A105B105C9F781E0E0E2F6E08683B9
S1133E5080E092EEA4E0B0E00197A109B1090097D7
S1133E60A105B105C9F782E0E0E2F6E0868380E0CF
S1133E7092EEA4E0B0E00197A109B1090097A10571
S1133E80B105C9F780E4E0E0F6E0858380E094ECD6
S1133E90A9E0B0E00197A109B1090097A105B10516
S1133EA0C9F780E8E0E0F6E0858380E094ECA9E0DF
S1133EB0B0E00197A109B1090097A105B105C9F7BF
S1133EC081E0E0E2F6E0858380E094ECA9E0B0E0F4
S1133ED00197A109B1090097A105B105C9F782E0CD
S1133EE0E0E2F6E0858380E094ECA9E0B0E001979D
S1133EF0A109B1090097A105B105C9F780E4E0E083
S1133F00F6E0868380E094ECA9E0B0E00197A10993
S1133F10B1090097A105B105C9F780E8E0E0F6E032
S1133F20868380E094ECA9E0B0E00197A109B1098F
S1133F300097A105B105C9F781E0E0E2F6E08683C8
S1133F4080E094ECA9E0B0E00197A109B1090097E1
S1133F50A105B105C9F782E0E0E2F6E0868380E0DE
S1133F6094ECA9E0B0E00197A109B1090097A1057B
S1133F70B105C9F780E4E0E0F6E0858380E096EAE5
S1133F80AEE0B0E00197A109B1090097A105B10520
S1133F90C9F780E8E0E0F6E0858380E096EAAEE0E9
S1133FA0B0E00197A109B1090097A105B105C9F7CE
S1133FB081E0E0E2F6E0858380E096EAAEE0B0E0FE
S1133FC00197A109B1090097A105B105C9F782E0DC
S1133FD0E0E2F6E0858380E096EAAEE0B0E00197A7
S1133FE0A109B1090097A105B105C9F780E4E0E092
S1133FF0F6E0868380E096EAAEE0B0E00197A1099E
S1134000B1090097A105B105C9F780E8E0E0F6E041
S1134010868380E096EAAEE0B0E00197A109B10999
S11340200097A105B105C9F781E0E0E2F6E08683D7
S113403080E096EAAEE0B0E00197A109B1090097EB
S1134040A105B105C9F782E0E0E2F6E0868380E0ED
S113405096EAAEE0B0E00197A109B1090097A10585
S1134060B105C9F780E4E0E0F6E0858380E098E8F4
S1134070A3E1B0E00197A109B1090097A105B10539
S1134080C9F780E8E0E0F6E0858380E098E8A3E102
S1134090B0E00197A109B1090097A105B105C9F7DD
S11340A081E0E0E2F6E0858380E098E8A3E1B0E017
S11340B00197A109B1090097A105B105C9F782E0EB
S11340C0E0E2F6E0858380E098E8A3E1B0E00197C0
S11340D0A109B1090097A105B105C9F780E4E0E0A1
S11340E0F6E0868380E098E8A3E1B0E00197A109B7
S11340F0B1090097A105B105C9F780E8E0E0F6E051
S1134100868380E098E8A3E1B0E00197A109B109B2
S11341100097A105B105C9F781E0E0E2F6E08683E6
S113412080E098E8A3E1B0E00197A109B109009704
S1134130A105B105C9F782E0E0E2F6E0868380E0FC
S113414098E8A3E1B0E00197A109B1090097A1059E
S1134150B105C9F7089548E250E06EEF7BE280E0D4
S113416090E00C94791308958091FE2B9091FF2B8D
S1134170089560E070E081E00E94BA1390E0089531
S1134180CF93DF9388EC90E18093FE2B9093FF2BE9
S1134190F0DFC0E0DCE28883998381E08093022C25
S11341A085E1E4EBF4E2A3E0BCE201900D928A9590
S11341B0E1F785E0E9ECF4E2A8E1BCE201900D92BC
S11341C08A95E1F785E0EEECF4E2ADE1BCE2019022
S11341D00D928A95E1F7888199818330910519F1CF
S11341E030F48130910549F0029791F03DC084305C
S11341F0910521F1059769F137C084E390E4809338
S1134200222C9093232C8093242C9093252C36C01D
S113421084E390E48093222C9093232C8093242C89
S11342209093252C2BC084E390E48093222C9093CC
S1134230232C8093242C9093252C20C084E390E499
S11342408093222C9093232C8093242C9093252CC0
S113425015C084E390E48093222C9093232C8093C4
S1134260242C9093252C0AC086E390E48093222C7E
S11342709093232C8093242C9093252C6CDFDF9136
S1134280CF91089548E250E06EEF7BE280E090E049
S11342900E94DC128091FE2B9091FF2B883C904170
S11342A019F06EDF81E0089580E0089563E07CE218
S11342B051C4089568E17CE24DC408956DE17CE247
S11342C049C40895BC0183E09CE244C40895BC0140
S11342D088E19CE23FC40895BC018DE19CE23AC4AC
S11342E008952F923F924F925F926F927F928F9296
S11342F09F92AF92BF92CF92DF92EF92FF920F9371
S11343001F93CF93DF93CDB7DEB7CE54D109CDBF82
S1134310DEBF18A21AA21BA21CA21DA2512C6E0160
S113432026E2C20ED11C7E0130E4E30EF11C8E01A4
S1134330055C1F4F0F2EFEEF6F2EFBE27F2EF02D3C
S11343400F2EF4E28F2EF5E29F2EF02D5E0181E216
S1134350A80EB11CFE01B4962796EEAFFFAF2797C7
S11343609E012E5D3F4F29962EAF3FAF2997CE0178
S11343704B962B968EAF9FAF2B971E0196E1290E7D
S1134380311CB3972D96EEAFFFAF2D972250310914
S11343902F962EAF3FAF2F97412CC60187DFC70161
S11343A089DFC8018BDF83EF94E2FBD38CE095E2D5
S11343B0F8D3F301808191819F938F939F928F9281
S11343C0DFD3D7DE9F938F9380E495E29F938F93FF
S11343D0D7D38091022CCDBFDEBF882319F083EDA3
S11343E094E202C083EE94E29F938F938BE595E26F
S11343F09F938F93C5D3DF92CF9286E795E29F93E5
S11344008F93BED3FF92EF9281E995E29F938F93AE
S1134410B7D31F930F938CEA95E29F938F93B0D3F6
S11344208091222C9091232C9F938F9387EC95E27B
S11344309F938F93A5D38091242C9091252C9F93A7
S11344408F9382EE95E29F938F939AD38DEF95E2AB
S1134450A8D38EE096E29F938F9392D3BF92AF92AC
S113446084E496E29F938F93C9D3CDBFDEBF89A125
S113447090E08830910508F0C8C0FC01EC5EFE4F66
S1134480FAC287E496E28DD380E094E2A4EFB42DDF
S11344900197A109B1090097A105B105C9F7B1C0F8
S11344A08CE896E29F938F936BD32F969FAD2F97B3
S11344B09F932E96EFAD2E97EF9384E496E29F930D
S11344C08F939CD30F900F900F900F900F900F909D
S11344D088A1882311F081E088A388A18093022C0D
S11344E090C083EC96E29F938F934AD32D96FFADB1
S11344F02D97FF932C962FAD2C972F9381EE96E258
S11345009F938F937BD3CE010196DCDE0F900F90A7
S11345100F900F900F900F9074C086EE96E29F93C9
S11345208F932ED33F922F9281E197E29F938F93A3
S113453065D3C101CCDE0F900F900F900F900F90B8
S11345400F905FC085E197E29F938F9319D32B96C9
S11345503FAD2B973F932A968FAD2A978F9381E196
S113456097E29F938F934AD3CE014B96B5DE0F907B
S11345700F900F900F900F900F9043C08FE397E22E
S11345809F938F93FDD229969FAD29979F93289649
S1134590EFAD2897EF9385E697E29F938F932ED301
S11345A08AA19BA18093222C9093232C0F900F908F
S11345B00F900F900F900F9024C089E697E29F937D
S11345C08F93DED22796FFAD2797FF9326962FADC4
S11345D026972F9385E697E29F938F930FD38CA111
S11345E09DA18093242C9093252C0F900F900F90D5
S11345F00F900F900F9005C0AEDD8FE897E2D1D2F7
S113460007C0552009F4C9CE03C0552009F4C5CE0E
S1134610C25BDF4FCDBFDEBFDF91CF911F910F9102
S1134620FF90EF90DF90CF90BF90AF909F908F90CE
S11346307F906F905F904F903F902F90089580915E
S1134640222C9091232C08958091242C9091252C38
S11346500895CF93C82F8A3021F48DE090E00E9412
S1134660AE048C2F992787FD90950E94AE0480E0BC
S113467090E0CF9108950F931F93CF93DF938C0114
S11346800E94ED038823E1F30E943904EC01B80190
S1134690E0DFCE019927DF91CF911F910F9108950B
S11346A087E0E0EAF0E0828378940E949C050E940F
S11346B07D0E86EC90E280932A2C90932B2C809391
S11346C0282C9093292C0895CF93DF93CDB7DEB790
S11346D02797CDBFDEBF11DB8091D8208D838091D9
S11346E0D9208E838091DA208F838091D420909179
S11346F0D520A091D620B091D72089839A83AB830B
S1134700BC8360E185E00E94B512BE016F5F7F4FFC
S113471080EA9AE00E94F20A3DDB26DD9F938F93A4
S11347201F921F9280E198E29F938F9329D2AADD72
S1134730E0E4F6E080850F900F900F900F900F90BB
S11347400F9082FFCEDD81E0E0D8E12C0F2EF2E164
S1134750FF2EF02D0AE710E061E070E08DE298E2B0
S113476002D94E2D5F2D602F712F415051096109DF
S113477071094115510561057105B9F78111ECCF36
S11347808FE398E20ED2E8CF0CD005C1FDD040F003
S1134790F4D030F021F45F3F19F0D6C051112FC18D
S11347A0D9C00AD198F39923C9F35523B1F3951BC2
S11347B0550BBB27AA2762177307840738F09F5F3E
S11347C05F4F220F331F441FAA1FA9F333D00E2EAD
S11347D03AF0E0E830D091505040E695001CCAF71A
S11347E029D0FE2F27D0660F771F881FBB1F2617DF
S11347F037074807AB07B0E809F0BB0B802DBF01B2
S1134800FF2793585F4F2AF09E3F510568F09CC0E4
S1134810F6C05F3FECF3983EDCF386957795679599
S1134820B795F7959F5FC9F7880F911D9695879562
S113483097F90895E1E0660F771F881FBB1F621781
S113484073078407BA0720F0621B730B840BBA0B3F
S1134850EE1F88F7E0950895BEE304D008F490E8CD
S11348600895BFE322273327A901AED058F19F57FB
S113487040F1B91738F1BFE3B91B9927B8503AF49E
S1134880660F771F881F991FB395D2F316C0B850CF
S11348904AF0232F342F452F562F672F782F882740
S11348A0B850BAF7B85F49F08695779567955795EC
S11348B0479537952795BA95B9F70EF44ED0889455
S11348C00895889460E070E0CB010895E894F92F8E
S11348D096EBFF2381F0121613061406440B9395EE
S11348E0F69587957795679557954040FF23B9F7D7
S11348F01BC099270895882351F49850D2F7872B29
S1134900762F652F542F432F322F20E0B1F3121648
S113491013061406440B88233AF09A95440F551F46
S1134920661F771F881FCAF755234AF4440F551F83
S113493011F460FF04C06F5F7F4F8F4F9F4F880F4C
S11349409695879597F9089597F99F6780E870E0A1
S113495060E008959FEF80EC0895909580957095A0
S1134960609550954095309521953F4F4F4F5F4F3F
S11349706F4F7F4F8F4F9F4F089500240A94161650
S1134980170618060906089500240A941216130639
S1134990140605060895092E0394000C11F48823C7
S11349A052F0BB0F40F4BF2B11F460FF04C06F5FE3
S11349B07F4F8F4F9F4F089557FD9058440F551FB9
S11349C059F05F3F71F04795880F97FB991F61F08D
S11349D09F3F79F087950895121613061406551F04
S11349E0F2CF4695F1DF08C0161617061806991F70
S11349F0F1CF86957105610508940895E894BB2765
S1134A0066277727CB0197F90895AA1BBB1B51E1B1
S1134A1007C0AA1FBB1FA617B70710F0A61BB70B2A
S1134A20881F991F5A95A9F780959095BC01CD01CF
S1134A300895A1E21A2EAA1BBB1BFD010DC0AA1FDB
S1134A40BB1FEE1FFF1FA217B307E407F50720F0F3
S1134A50A21BB30BE40BF50B661F771F881F991F6E
S1134A601A9469F760957095809590959B01AC01B7
S1134A70BD01CF010895EE0FFF1F0590F491E02DC5
S1134A800994DF93CF931F930F939A9DF02D219F49
S1134A90F00D8B9DF00D8A9DE02DF10D039FF00D1F
S1134AA0029FE00DF11D4E9DE00DF11D5E9DF00D88
S1134AB04F9DF00D7F936F93BF92AF925F934F938F
S1134AC0D50130D08B01AC01D7012CD0EB01E80F1C
S1134AD0F91FD6011FD02F913F91D60123D0C60FC5
S1134AE0D71FE81FF91FAF91BF9114D02F913F91A9
S1134AF019D0C60FD71FE81FF91FD60113D0E60F30
S1134B00F71F9801BE01CF0111240F911F91CF917E
S1134B10DF91089507D0460F571FC81FD91F08F407
S1134B2031960895A29FB001B39FC001A39F700D59
S1134B30811D1124911DB29F700D811D1124911DA1
S1134B400895FB01DC0102C001900D9241505040D8
S1134B50D8F70895FB01DC0101900D920020E1F7E4
S1134B600895FB01DC014150504048F001900D9242
S1134B700020C9F701C01D9241505040E0F708954C
S1134B80A0E0B0E0E5ECF5E2C8C5FE013596619120
S1134B907191AF0180912A2C90912B2C40D0E2E0AE
S1134BA0D5C50F931F93CF93DF93E0912A2CF091F7
S1134BB02B2C238121FF1BC0EC0100E010E0899124
S1134BC060912A2C70912B2CDB011896ED91FC91AD
S1134BD01997882331F00995892B89F30FEF1FEF7B
S1134BE0EECF8AE00995892B11F4C80102C08FEF3A
S1134BF09FEFDF91CF911F910F910895A0E0B0E056
S1134C00E3E0F6E28AC5FE01359661917191AF0148
S1134C108091282C9091292C34D3E2E097C5ACE004
S1134C20B0E0E4E1F6E269C57C016B018A01FC01B4
S1134C3016821782838181FFB0C1CE0101964C0197
S1134C40F7019381F60193FD859193FF81916F01A3
S1134C50882309F49EC1853239F493FD859193FF2D
S1134C6081916F01853221F4B70190E09AD4E8CFA5
S1134C70512C312C20E02032A0F48B3269F030F436
S1134C80803259F0833269F420612CC08D3239F0BE
S1134C90803339F4216026C02260246023C0286058
S1134CA021C027FD27C030ED380F3A3078F426FFB5
S1134CB006C0FAE05F9E300D1124532E13C08AE023
S1134CC0389E300D1124332E20620CC08E3221F414
S1134CD026FD5FC1206406C08C3611F4206802C032
S1134CE0883641F4F60193FD859193FF81916F011C
S1134CF08111C1CF982F9F7D9554933028F40C5F78
S1134D001F4FFFE3F9830DC0833631F0833771F011
S1134D10833509F057C021C0F801808189830E5F73
S1134D201F4F44244394512C540114C03801F2E021
S1134D306F0E711CF801A080B18026FF03C0652DA1
S1134D4070E002C06FEF7FEFC5012C87E1D32C0127
S1134D5083012C852F77222E16C03801F2E06F0EC6
S1134D60711CF801A080B18026FF03C0652D70E09E
S1134D7002C06FEF7FEFC5012C87BFD32C012C85B8
S1134D802068222E830123FC19C0832D90E048164D
S1134D905906A0F4B70180E290E003D43A94F5CF29
S1134DA0F50127FC859127FE81915F01B70190E011
S1134DB0F8D331103A94F1E04F1A510841145104D8
S1134DC079F7DEC0843611F0893631F5F80127FF12
S1134DD007C060817181828193810C5F1F4F08C07D
S1134DE060817181882777FD8095982F0E5F1F4F12
S1134DF02F76B22E97FF09C0909580957095619596
S1134E007F4F8F4F9F4F2068B22E2AE030E0A401DD
S1134E1013D4A82EA81843C0853729F42F7EB22EA8
S1134E202AE030E025C0F22FF97FBF2E8F36C1F083
S1134E3018F4883579F0ADC0803719F0883721F03F
S1134E40A8C02F2F2061B22EB4FE0DC08B2D84601C
S1134E50B82E09C024FF0AC09F2F9660B92E06C041
S1134E6028E030E005C020E130E002C020E132E07B
S1134E70F801B7FE07C060817181828193810C5F64
S1134E801F4F06C06081718180E090E00E5F1F4F6C
S1134E90A401D2D3A82EA818FB2DFF77BF2EB6FEEF
S1134EA00BC02B2D2E7FA51450F4B4FE0AC0B2FC07
S1134EB008C02B2D2E7E05C07A2C2B2D03C07A2CF6
S1134EC001C0752C24FF0DC0FE01EA0DF11D808187
S1134ED0803311F4297E09C022FF06C073947394B1
S1134EE004C0822F867809F0739423FD12C020FF3A
S1134EF006C05A2C731418F4530C5718732C7314DB
S1134F0060F4B70180E290E02C874BD373942C8536
S1134F10F6CF731410F4371801C0312C24FF11C0DC
S1134F20B70180E390E02C873CD32C8522FF16C088
S1134F3021FF03C088E590E002C088E790E0B70154
S1134F400CC0822F867851F021FD02C080E201C09E
S1134F508BE227FD8DE2B70190E023D3A51430F452
S1134F60B70180E390E01DD35A94F8CFAA94F401DA
S1134F70EA0DF11D8081B70190E013D3A110F6CFA3
S1134F80332009F45DCEB70180E290E00AD33A946D
S1134F90F7CFF7018681978102C08FEF9FEF2C96A0
S1134FA0E2E1C4C320FD09C0FC0123FD05C022FFCA
S1134FB002C07383628351834083089544FD10C00B
S1134FC046FD10C0DB01FC01AA0FBB1FEE1FFF1F33
S1134FD01094D1F76A0F7B1F8E1F9F1F31E003C00F
S1134FE033E001C034E0660F771F881F991F3150EA
S1134FF0D1F7620F711D811D911D08950F931F93A9
S1135000CF93DF938C01C8018ED2EC0197FD06C0CB
S113501061D2892BC1F7B801CE01F5D2CE01DF915F
S1135020CF911F910F9108958F929F92AF92CF923B
S1135030DF92EF92FF920F931F93CF93DF93EC01D4
S1135040A62E4A01022F6FD2AC0155274B325105CF
S113505021F04D32510549F40068AA9411F480E01E
S113506060C0CE0160D297FDFACF102F1D7F302F84
S11350703073F1F48033E1F4FF24FA94FA0C09F468
S11350803DC0CE0150D297FD39C0382F3F7D383511
S113509049F41264AA94AA9489F1CE0144D297FFE8
S11350A007C02CC006FF02C0126001C01261AF2C01
S11350B0C12CD12C760120ED280F283078F014FF74
S11350C003C0BE01A0D217C02A3040F016FFF9CFAA
S11350D02F7D3FEE320F3630A0F72750412FC70106
S11350E0B6016CDF6B017C011260AA9451F0CE0111
S11350F01AD297FFE0CF11FD04C0B1CFC12CD12C3F
S1135100760117FF08C0F094E094D094C094C11CB9
S1135110D11CE11CF11C212FB701A601C40142DFFF
S113512081E0DF91CF911F910F91FF90EF90DF907D
S1135130CF90AF909F908F900895A1E2B0E0E2EA03
S1135140F8E2E0C25C017A018E010F5F1F4F680133
S113515080E2D8011D928A95E9F7F501738040E059
S113516050E0812CB0E0912C81E090E0F90173FCD7
S1135170A59173FEA1918F017A2F9F01A11103C004
S113518080E090E07BC0AE3519F44115510559F12A
S1135190E92DF0E0E417F5073CF4AD3569F1AD32E3
S11351A019F4BB2319F103C0B11101C08A2EE72FF2
S11351B0E695E695E69586010E0F111DF801A72FD9
S11351C0A7708C0102C0000F111FAA95E2F7D80145
S11351D0B081BA2BB083781559F0781510F47F5F3D
S11351E0E6CF7150E4CF9924939403C0B1E001C099
S11351F0B0E04F5F5F4FBACFBB2319F08E8180625E
S11352008E83911003C09924939415C0F601CE01A6
S11352108196208120952193E817F907D1F7F3CFE0
S1135220E114F10429F0D7018C93F70131967F0141
S11352306150F1F0912CC50169A375D169A197FD65
S113524015C0282F269526952695F601E20FF11D07
S1135250208130E0AC014770552702C03595279571
S11352604A95E2F720FDDCCFB501CDD1911088CF6E
S1135270E114F10411F0D7011C92C801A196EDE0EC
S11352805AC24F925F927F928F929F92AF92BF9237
S1135290CF92DF92EF92FF920F931F93CF93DF93FE
S11352A01F92CDB7DEB78C012B017A01FC01168267
S11352B01782A12CF801D380F201D3FC8591D3FE8F
S11352C08191382F2F01882309F4EEC090E03983AF
S11352D001D13981892B19F0C80190DEEBCF353229
S11352E041F4F201D3FC3591D3FE31912F013532D3
S11352F059F4C801398317D1398197FDD3C03817C0
S1135300C9F2B80180D1D0C03A3241F4D3FC35910E
S1135310D3FE31912F01BB24B39401C0B12C712C65
S113532020ED230F2A3088F4FB2DF260BF2E672D69
S113533070E080E090E040E241DE762EF201D3FCA2
S11353403591D3FE31912F01EBCFB1FE03C0711023
S113535003C0AAC077247A94383619F03C3661F039
S113536014C0F201D3FC3591D3FE31912F013836AC
S113537061F4FB2DF860BF2E8B2D8460B82EF201F2
S1135380D3FC3591D3FE31912F01332309F48CC022
S1135390632F70E088E392E03983A4D03981892BAC
S11353A009F482C0B0FC07C0F701C080D180C701F6
S11353B002967C0102C0C12CD12C3E3649F4F8017E
S11353C04681578160E070E02B2DC601EBDD72CF82
S11353D0333699F4B1FC02C077247394C801A3D086
S11353E097FD60C0C114D10429F0F6018083C60181
S11353F001966C017A9491F751C03B3551F49201B6
S1135400A601672DC80199DE2C01009709F046C05A
S113541040C0C8013983F2DD398197FD43C03F366E
S113542051F128F4343619F1393661F128C0333793
S113543069F03537E1F023C0C114D10429F0F60135
S11354408082C60101966C017A9459F0C8016BD030
S11354504C0197FD06C03ED0892B71F3B801C401FD
S1135460D2D0C114D104D1F0F601108217C0FB2DA3
S1135470F062BF2E07C08B2D8061B82E03C09B2D18
S11354809064B92E2B2DA601672DC801CDDD8111A5
S113549005C0F8018381807329F406C0B0FC0ACFEB
S11354A0A39408CFAA2019F08A2D90E002C08FEFB0
S11354B09FEF0F90DF91CF911F910F91FF90EF908D
S11354C0DF90CF90BF90AF909F908F907F905F9030
S11354D04F90089591110EC1803219F08950855072
S11354E0D0F70895FC010590061621F00020D9F7A5
S11354F0C00108953197CF010895FC0105906150D2
S113550070400110D8F7809590958E0F9F1F0895D5
S1135510FC016150704001900110D8F7809590957E
S11355208E0F9F1F0895CF93DF93EC012B8120FFF3
S113553033C026FF0AC02F7B2B838E819F81019667
S11355408E839F838A8190E029C022FF0FC0E88167
S1135550F9818081992787FD9095009719F420623D
S11355602B831AC03196E883F9830EC0EA85FB8544
S1135570099597FF09C02B81019611F480E101C0C0
S113558080E2822B8B8308C02E813F812F5F3F4FA7
S11355902E833F83992702C08FEF9FEFDF91CF9136
S11355A008950F931F93CF93DF93182F092FEB01C7
S11355B08B8181FD03C08FEF9FEF20C082FF10C05D
S11355C04E815F812C813D81421753077CF4E88131
S11355D0F9819F012F5F3F4F28833983108306C0D1
S11355E0E885F985812F0995892B29F72E813F813B
S11355F02F5F3F4F2E833F83812F902FDF91CF91D9
S11356001F910F910895FB01238120FF12C026FDF5
S113561010C08F3F3FEF930761F082832F7D20649A
S113562023832681378121503109268337839927A3
S113563008958FEF9FEF0895FA01AA27283051F1BA
S1135640203181F1E8946F936E7F6E5F7F4F8F4FAF
S11356509F4FAF4FB1E03ED0B4E03CD0670F781F0E
S1135660891F9A1FA11D680F791F8A1F911DA11DF3
S11356706A0F711D811D911DA11D20D009F468942C
S11356803F912AE0269F11243019305D3193DEF6D4
S1135690CF010895462F4770405D4193B3E00FD08A
S11356A0C9F7F6CF462F4F70405D4A3318F0495D75
S11356B031FD4052419302D0A9F7EACFB4E0A69558
S11356C09795879577956795BA95C9F7009761057A
S11356D0710508959B01AC010A2E069457954795D0
S11356E037952795BA95C9F7620F731F841F951FC5
S11356F0A01D08959927882708952F923F924F92CD
S11357005F926F927F928F929F92AF92BF92CF924D
S1135710DF92EF92FF920F931F93CF93DF93CDB756
S1135720DEB7CA1BDB0BCDBFDEBF09942A883988DC
S113573048885F846E847D848C849B84AA84B98425
S1135740C884DF80EE80FD800C811B81AA81B98131
S1135750CE0FD11DCDBFDEBFED010895F894FFCF6C
S11357608A0304020E0210022603C601FE0112027D
S11357701002000000030000000000000000000010
S113578000004F6E65506F7300416772756D0000C5
S11357900403090486203A20000042203E200A2007
S11357A0002009024300020100C032090400000184
S11357B0020201000524001001042402020524064B
S11357C000010524010301070582034000100904B8
S11357D00100020A000000070581024000000705DD
S11357E00202400000001201000202000040EB032C
S11357F00424000101020301B92A0200000002008E
S11358000000080000000200000009000000090078
S1135810000001000000000000000000000021045E
S11358200000FFFFFFFF0000000300000000292329
S11358303B23000000C20100030000313245460052
S113584052582054696D656F7574203A2800727837
S11358505F6572725F6362005258204F4B21203A99
S1135860440076616C6964206D65737361676520BB
S113587072656365697665642E0A20536571756582
S11358806E6365206E756D626572203D2025640A25
S11358902050616E49443D2025640A206465737478
S11358A0696E6174696F6E203D2025640A20736FF0
S11358B0757263653D2025640A206D7367206C65ED
S11358C06E676874203D2025640A206D65737361DA
S11358D06765203D2025730A0A0076616C6964209F
S11358E06D65737361676520726563656976656468
S11358F02066726F6D2062726164636173742E0A34
S11359002053657175656E6365206E756D62657291
S1135910203D2025640A2050616E49443D202564C1
S11359200A2064657374696E6174696F6E203D202A
S113593025640A20736F757263653D2025640A200F
S11359406D7367206C656E676874203D2025640A5A
S1135950206D657373616765203D2025730A0A0015
S113596054686174206D6573736167652077617332
S1135970206E6F7420666F7220796F750041434BFF
S1135980207265636569766564004E6F74206120DA
S113599076616C6964206D65737361676500494E57
S11359A04954204641494C4544000A2D2D2D2D2DA6
S11359B02D2D2D2D2D2D2D2D2D2D2D2D2D2D2D2D13
S11359C02D2D2D2D2D2D2D2D2D2D2D2D2D2D2D2D03
S11359D02D2D2D2D2D0044574D3130303020494E82
S11359E0464F0044657669636520494420203A2087
S11359F02530345820253034580A00506172742000
S1135A004944202020203A202530345820253034A1
S1135A10580A0045554920202020202020203A20E3
S1135A202530325820253032582025303258202550
S1135A303032582025303258202530325820253035
S1135A40325820253032580A0050414E20416464B7
S1135A50726573733A20253032582025303258202D
S1135A602530325820253032580A005359535F43A9
S1135A704647202020203A20253034582025303431
S1135A80580A0054585F464354524C2020203A2070
S1135A9025303258202530325820253032582025E0
S1135AA030325820253032580A005359535F43543A
S1135AB0524C2020203A20253034582025303458A8
S1135AC00A005359535F4D41534B2020203A20255F
S1135AD030345820253034580A005359535F5354F6
S1135AE041545553203A202530325820253032581D
S1135AF02025303258202530325820253032580A9B
S1135B000052585F46494E464F2020203A20253007
S1135B10345820253034580A0052585F46515541B4
S1135B204C2020203A20253032582025303258206D
S1135B30253032582025303258202530325820253F
S1135B40303258202530325820253032580A00434C
S1135B5048414E5F4354524C20203A20253034585B
S1135B6020253034580A00000098599859EA518E7B
S1135B70421E45142E0080EA51F4283233E03A7074
S1135B803DE03AC235842BC2353233C235C235AE1C
S1135B9047E03A5038A23050382D001A3152001ADA
S1135BA0339A001A351D011A376B003B31BE003B96
S1135BB0335E013B3596023B3787008D000A0016A1
S1135BC000010006000100020040100807A9022598
S1135BD070889B88D8BC1E265626BEBE07040009C2
S1135BE00805400809104008080540081D0400087D
S1135BF01D040008405C0000A05C0400C06C0800A8
S1135C00805C0400E03F1E00E07D1E0000000102F5
S1135C1003040005364632333434353443463644BF
S1135C203441304641444632003031453000303151
S1135C303930005374617274206173204F6E655063
S1135C406F730053746172742061732042656163E1
S1135C506F6E000A2D2D2D2D2D2D2D2D2D2D2D2D3D
S1135C602D2D2D2D2D2D2D2D2D2D2D0043757272A5
S1135C70656E7420436F6E66696775726174696FCF
S1135C806E3A20002020204D454D20434845434B8B
S1135C902020202020202020203A202523780A00BC
S1135CA0312E204E4F4445204944202020202020DE
S1135CB020202020203A2025640A00322E204E4F36
S1135CC04445204D4F4445202020202020202020E2
S1135CD03A2025730A00332E204E414D455350413E
S1135CE043452049442020202020203A2025730ABF
