S00E00004F6E65506F732E73726563C2
S113000021C100003CC100003AC1000038C1000019
S113001036C1000034C1000032C1000030C100000C
S11300202EC100002CC100002AC1000028C100001C
S113003026C100000C94A20922C1000020C10000C6
S11300401EC100001CC100001AC1000018C100003C
S113005016C1000014C1000012C1000010C100004C
S11300600EC100000CC100000AC1000008C100005C
S113007006C1000004C1000002C1000000C100006C
S1130080FEC00000FCC00000FAC00000F8C0000080
S1130090F6C00000F4C00000F2C00000F0C0000090
S11300A0EEC00000ECC00000EAC00000E8C00000A0
S11300B0E6C00000E4C000000C94C509E0C00000E4
S11300C0DEC00000DCC00000DAC00000D8C00000C0
S11300D0D6C00000D4C00000D2C00000D0C00000D0
S11300E0CEC00000CCC00000CAC00000C8C00000E0
S11300F0C6C00000C4C00000C2C00000C0C00000F0
S1130100BEC00000BCC00000BAC00000B8C00000FF
S1130110B6C00000B4C00000B2C00000B0C000000F
S1130120AEC00000ACC00000AAC00000A8C000001F
S1130130A6C00000A4C00000A2C00000A0C000002F
S11301409EC000009CC000009AC0000098C000003F
S113015096C0000094C0000092C0000090C000004F
S11301608EC000008CC000008AC0000088C000005F
S113017086C0000084C0000082C0000080C000006F
S11301807EC000007CC000007AC0000078C000007F
S113019076C0000074C0000072C0000070C000008F
S11301A06EC000006CC000006AC0000068C000009F
S11301B066C0000064C0000062C0000060C00000AF
S11301C05EC000005CC000005AC0000058C00000BF
S11301D056C0000054C0000052C0000050C00000CF
S11301E04EC000004CC000004AC0000048C00000DF
S11301F046C000000C94C8100C947E11DC0CCA0C90
S1130200CD0CD00CD30CD60CD90C861881188B18B5
S1130210B018B018B018B01890189818B018B018D2
S11302209F18A318A718AC188523CA22D922FA222A
S113023016232B23472366236364696E6F707375DB
S113024078585B0011241FBECFEFCDBFDFE2DEBFC5
S113025015E2A0E0B0E2ECE1FBE502C005900D92EE
S1130260A03EB107D9F728E2A0EEB5E201C01D9285
S1130270A73FB207E1F70E94E3230C948C2DC0CE74
S1130280CF93DF93EC01C03C28E0D20729F468E067
S113029083E00E94B51207C0803C994021F468E0D5
S11302A084E00E94B512888180618883DF91CF91B8
S11302B00895FF920F931F93CF93DF93EC01F42ED5
S11302C0B901A80100E01CE62CED32E056D78823E2
S11302D04CF088819F2D990F990F9C70837FF92E84
S11302E0F82AF882DF91CF911F910F91FF90089522
S11302F0FC01DB01460F571F05C08D91838382816A
S11303008823ECF7A417B507C1F780E00895FC0132
S1130310DB014115510561F0460F571F9FEF938391
S113032082818823ECF783818D93A417B507B9F7ED
S113033080E00895FB018081E82FE695E695E69537
S113034040E2E49FF0011124FA5F877021E030E07D
S1130350A90102C0440F551F8A95E2F74683089508
S1130360FB018081E82FE695E695E69540E2E49F5F
S1130370F0011124FA5F877021E030E0A90102C086
S1130380440F551F8A95E2F7458308951092F62687
S1130390109202271092032781EA8093F82680E2C4
S11303A08093F9261092FA261092FB261092FC26CE
S11303B01092FD2682E090E08093FE269093FF2623
S11303C0109200271092012780E092ECA1E0B0E0A7
S11303D08093042790930527A0930627B0930727BB
S11303E0109208271092092788E080930A278091A9
S11303F0F6268F5F8093F62681E008958091F62695
S113040081508093F62608958091F526815080933B
S1130410F5268091F5261092F426089580E008953B
S113042080E008958091B2288823DCF480768032BD
S1130430E9F58091B3288132D9F58091B82890915B
S1130440B9280797B9F584E097E28093BA28909386
S1130450BB2887E090E08093BC289093BD2881E07E
S113046008958076803241F58091B328803221F05E
S1130470823221F581E008958091B8289091B928BD
S11304800797F1F482E692E08093BE289093BF2808
S113049084E097E28093BA289093BB2887E090E0A9
S11304A08093BC289093BD2881E0089580E008954E
S11304B080E0089580E0089580E0089580E0089544
S11304C080E008950895FF920F931F93CF93DF93D5
S11304D08091E32581119CC00E940A0F882351F06A
S11304E0C091E425D091E5250E94170FC817D907BC
S11304F059F48EC0C091E425D091E5250E94120FD5
S1130500C817D90709F484C0DFB7F894C091E62569
S1130510EC2FF0E0EE0FFF1FE951FA4D808191813D
S1130520892B09F58091E0259091E125019680932E
S1130530E0259093E1250E940A0F811107C0809164
S1130540E0259091E1258436910558F00E940A0F28
S1130550882349F08091E0259091E12580329340F1
S113056010F4DFBF55C01092E0251092E125809170
S1130570E225811106C081E0C11180E08093E62567
S113058004C081E0C11180E0C82F81E08093E3259D
S1130590DFBFD0E0FE01EE0FFF1FE951FA4DFF244B
S11305A0F394808191818034910509F4F12CFF202A
S11305B091F00E940A0F882339F00E94170F80934C
S11305C0E4259093E5250BC00E94120F8093E42547
S11305D09093E52504C01092E4251092E525FE01D0
S11305E0EE0FFF1FE951FA4D20813181AE01002445
S11305F0569547950794569547950794542F402D43
S113060044515A4D0EE013E06F2D81E80E94C90F4A
S1130610DF91CF911F910F91FF900895811115C023
S11306202091E62581E090E0222311F080E090E023
S1130630FC01EE0FFF1FE951FA4D10821182109256
S1130640E2251092E32580E03ECF089580E03BCF81
S113065008954FB7F89420916D2630916E26E0915D
S11306606F26F0E0EE0FFF1FE059F94D8081918174
S1130670821B930B4FBF0895ECDF21E0892B09F413
S113068020E0822F08950F931F93CF93DF934FB7EA
S1130690F89450916F2680916C26811110C020919E
S11306A06D2630916E26C52FD0E0FE01EE0FFF1FA0
S11306B0E059F94D808191812817390718F44FBF0B
S11306C080E023C010926D2610926E2681E05111B5
S11306D080E080936F2681E080936C264FBF80E09A
S11306E0CBDFAE0100245695479507945695479560
S11306F00794542F402D4C58594D0CEB13E020E433
S113070030E061E082E00E94C90FDF91CF911F9138
S11307100F9108951092F5261092E3251092E22588
S11307201092E6251092E7251092E8251092E9250B
S11307301092EA251092E4251092E52580E0C3DEAC
S113074010926C2610926F261092702610927126C9
S113075010926D2610926E2680E095DF882359F062
S11307609091F5269F5F9093F5269091F526913010
S113077011F49093F42608950F931F93942F8111ED
S113078029C080916F26E1E08111E0E061157105D7
S1130790B1F4F0E00024F695E7950794F695E79513
S11307A00794FE2FE02DAF014C58594D0CEB13E08C
S11307B020E430E061E0892F0E94C90F0BC0F0E013
S11307C0EE0FFF1FE059F94D6083718310926C2680
S11307D080E059DF1F910F91089580E04DCF089577
S11307E01F93CF93DF9311E080910A27893009F09A
S11307F010E060E070E03FB7F89480916D2690912E
S11308006E2620916F263FBF30E0F901EE0FFF1FE7
S1130810E059F94D408151818417950730F080915A
S1130820F4268111E8CF90E020C0F9010024F69568
S1130830E7950794F695E7950794FE2FE02DE80FCA
S1130840F91FEC58F94D2081EB01C22B01968093DE
S11308506D2690936E2680E016DF112321F07C2F05
S1130860662710E0C8CF8C2F9D2FDF91CF911F9169
S1130870089580E0B5CF08959FB7F8948091E62558
S1130880E82FF0E0EE0FFF1FE951FA4D208131818E
S11308902034310589F44091E32541110DC0409184
S11308A0E225411109C021E02093E225811120E0D5
S11308B02093E62520E030E09FBF80E490E0821B97
S11308C0930B0895D9DF21E0892B09F420E0822FCE
S11308D008951F93CF93DF93162FC72FD1E08091F4
S11308E00A27893009F0D0E080E0ECDF811107C0ED
S11308F08091F4268111F8CF80E090E02BC06FB78F
S1130900F8942091E62530E0F901EE0FFF1FE9513C
S1130910FA4D80819181AC014F5F5F4F40835183D9
S1130920F9010024F695E7950794F695E795079461
S1130930FE2FE02D8E0F9F1FFC01E451FA4D108312
S11309406FBFDD2329F01C2FCC0FCC0BD0E0CCCF14
S113095081E090E0DF91CF911F910895BC0180E088
S1130960B8CF0895E0911027F09111270190F081FC
S1130970E02D228133812E0F3F1FFC014081E40FC3
S1130980F11DE217F307A0F481818430A1F08613EE
S113099006C014C081818430A1F08617A9F080813B
S11309A0E80FF11DE217F307A8F380E090E0089543
S11309B080E090E0089580E090E008958E2F9F2FCE
S11309C0089580E090E008958E2F9F2F08958091E0
S11309D0B4288F770C940C0F0895909112279923C3
S11309E081F1E0911027F09111270190F081E02D21
S11309F09481891740F5E0930E27F0930F27228105
S1130A0033812E0F3F1FE217F307F8F491819430DE
S1130A1061F49281981309C09381961306C0E09300
S1130A200E27F0930F2781E008959081E90FF11DBF
S1130A30E217F30758F3E0930E27F0930F2780E0B3
S1130A40089580E0089580E0089580E00895FF927D
S1130A500F931F93CF93DF93C82F60E0BEDFF82E70
S1130A60882381F1A0911027B0911127EC2FF0E099
S1130A70EE0FFF1F12962D913C911397E20FF31F77
S1130A8000811181D8011696ED91FC911797099573
S1130A90682F8C2FA2DFF82E8823A1F0C0910E2797
S1130AA0D0910F2765E0CE015DDFEC01009721F0C6
S1130AB08A810E948A10F6CFD8011296ED91FC919A
S1130AC0139709958F2DDF91CF911F910F91FF906F
S1130AD008951F93CF93DF93182F7FDF882341F16D
S1130AE0C0910E27D0910F2765E0CE013BDFEC01CA
S1130AF0009749F04C815D816B818A810E94230FAC
S1130B008111F2CF15C0A0911027B0911127812F28
S1130B1090E0880F991F1296ED91FC911397E80FBE
S1130B20F91F0190F081E02D0190F081E02D0995ED
S1130B30DF91CF911F9108950C94A00E0895CF9347
S1130B40809112278823C1F0E0911027F09111279A
S1130B500190F081E02D8481882371F0C0E08C2F16
S1130B6076DFCF5FE0911027F09111270190F0819B
S1130B70E02D8481C81798F31092122781E090E049
S1130B808093162790931727CF910895CF93809140
S1130B901227882341F1E0911027F0911127A081B9
S1130BA0B18114968C918823F1F0C0E08C2F90E0F1
S1130BB0880F991F0280F381E02DE80FF91F01903F
S1130BC0F081E02D0084F185E02D309709F009953E
S1130BD0CF5FE0911027F0911127A081B181149685
S1130BE08C91C81718F3CF910895EF92FF920F9349
S1130BF01F93CF93DF931092BC281092BD281092BC
S1130C00BE281092BF281092C0281092C1282091AB
S1130C10B22822230CF097C28091B8289091B92869
S1130C20009709F095C28BC22F7109F0B9C03091B9
S1130C30B328363089F0383009F4A6C03111B0C079
S1130C40029741F462E070E086E197E20E941A0F95
S1130C5001E0F8C100E0F6C12091B4283091B52834
S1130C60832F992782309105A1F01CF4019739F064
S1130C7081C083309105F1F10F9769F17BC08091B8
S1130C80342090913520DC016C9170E00E941A0FA1
S1130C9060C0E0913420F09135208189281708F054
S1130CA06BC0C9019927880F991F880F991FE0917C
S1130CB03620F0913720E80FF91F80819181FC01E3
S1130CC0628173810E941A0FE091BA28F091BB28C7
S1130CD082E081833EC08091382090913920009732
S1130CE009F44CC0DC0112966D917C9113970E941B
S1130CF01A0F2FC033272130310589F048F02230F4
S1130D00310509F42AC22330310509F42AC238C056
S1130D1064E070E080E390E20E941A0F1AC089E256
S1130D2090E225E0382FA6E1B0E2E82FF92F819177
S1130D3090E08D939D938E2F831B8217C0F3220F17
S1130D4062E0620F6093142070E084E190E20E94FC
S1130D501A0F8091B8289091B9282091BC2830911D
S1130D60BD288217930770F48093BC289093BD2804
S1130D7001E068C100E066C100E064C100E062C156
S1130D8000E060C101E05EC1019741F461E070E000
S1130D9082E197E20E941A0F01E054C100E052C1BF
S1130DA0213009F040C03091B3283A30E1F5019781
S1130DB0A1F580911227882391F1C091B628D09192
S1130DC0B728E0901027F0901127D701ED91FC91FE
S1130DD08481C81730F560E08C2FFFDD082F88234D
S1130DE009F430C1CE019927880F991FD7011296B3
S1130DF0ED91FC911397E80FF91F0190F081E02D1C
S1130E000680F781E02D09958093142761E070E056
S1130E1084E197E20E941A0F15C100E013C100E0BB
S1130E2011C100E00FC1223009F00EC12091B32896
S1130E30211103C1029781F48091B6280E94840F86
S1130E4090E080930C2790930D2762E070E08CE093
S1130E5097E2F0D701E0F6C000E0F4C02F7109F08A
S1130E6090C08091B328833009F4E9C018F481302C
S1130E70B1F087C0853019F0893061F182C080916A
S1130E80B8289091B928892B41F487EE94E0809397
S1130E90BE289093BF2801E0D5C000E0D3C0809164
S1130EA0B8289091B928892B89F48091B42890911D
S1130EB0B528019769F480911627909117278D7FA3
S1130EC0809316279093172701E0BCC000E0BAC0B6
S1130ED000E0B8C08091B8289091B928892B09F016
S1130EE046C09DD7882309F444C02091B42830918A
S1130EF0B5283327E0913420F0913520818990E0A2
S1130F0082179307C0F11BDE8091B4289091B52815
S1130F1080931227882389F199278150904C880F58
S1130F20991F880F991FE0913620F0913720E80F20
S1130F30F91FE0931027F09311270190F081E02D21
S1130F4084818823E1F0C0E060E08C2FC2DD082FAB
S1130F50882309F477C0CF5FE0911027F09111271F
S1130F600190F081E02D8481C81770F36BC000E01C
S1130F7069C000E067C000E065C001E063C001E053
S1130F8061C0213009F58091B3288B30E9F4809158
S1130F90B8289091B928892B99F480911227882335
S1130FA089F0C091B628D091B4288C2F50DD082F39
S1130FB0882309F447C06D2F8C2F8BDD082F42C086
S1130FC000E040C000E03EC0223009F03DC0809106
S1130FD0B328813019F08330B1F033C08091B82840
S1130FE09091B928892B59F48091B4289091B5280F
S1130FF0892B39F48091B628A2D7082F23C000E0AA
S113100021C000E01FC08091B8289091B928892B95
S113101081F48091B4289091B528892B61F4C6EBB2
S1131020D8E288810E94511088810E94A710082F5D
S113103009C000E007C000E005C000E003C000E014
S113104001C000E0011191C08091B2288F718130FC
S1131050C1F5809112278823A1F1C091B628D091BF
S1131060B7280091102710911127D801ED91FC9118
S11310708481C81730F560E08C2FAFDC882309F138
S1131080CE019927880F991FD8011296ED91FC91F2
S11310901397E80FF91F00811181D8011696ED917D
S11310A0FC9117970995682F8C2F97DC882349F0BA
S11310B0D8011496ED91FC9115970995082F81118B
S11310C054C08091B2288F718230D9F58091122753
S11310D0882389F1E0911027F0911127A081B18133
S11310E014968C91882349F110E0212F30E0220FCF
S11310F0331F0280F381E02DE20FF31FC081D18101
S1131100EE81FF810995682F812F67DC082F8823E2
S113111061F1EC81FD810995082F811126C01F5FC3
S1131120E0911027F0911127A081B18114968C9140
S11311301817D8F21AC000E018C000E016C000E08A
S113114014C000E012C0822F807609F07DCF86CED5
S1131150322F307609F078CF67CD26E082E290E234
S1131160E1CD24E08AE091E2DDCD802FDF91CF91C3
S11311701F910F91FF90EF900895CF92DF92EF921D
S1131180FF920F931F93CF93DF93EC016A017B01CE
S1131190DB01CA010197A109B109BC01CD01600FAE
S11311A0711F821F931FA70196010E94C226213836
S11311B0310541055105F8F4213460F4213260F41D
S11311C0213160F4293060F4253060F4233060F07C
S11311D090E00BC093E009C092E007C092E805C01C
S11311E091E003C091E801C090E888818C77892B55
S11311F0888381E001C08FEFDF91CF911F910F9120
S1131200FF90EF90DF90CF900895CF93DF93E0911C
S11312101827F0911927848183FF08C0886084838C
S113122083E0838386EF8093222789C0982F94716B
S113123031F083E083838FEF8093222780C086FF81
S113124045C0A0911A27B0911B2780911C2790912B
S11312501D2714962D913C911597821793076CF4D2
S11312609C012F5F3F4F20931C2730931D27A80F0D
S1131270B91F11968C91878362C080911E2790912B
S11312801F2718962D913C91199782179307C8F43C
S113129020912027222321F08681816086834FC0FC
S11312A016962D913C911797AC014F5F5F4F409379
S11312B01E2750931F27D901A80FB91F8C9187832C
S11312C03EC083E083831092222739C08823A4F58B
S11312D0A0911A27B0911B2780911E2790911F2758
S11312E018962D913C91199782179307F8F4169646
S11312F04D915C9117979C012F5F3F4F20931E27C0
S113130030931F276781EA01C80FD91F6883189695
S11313108D919C9119972817390718F482E08383DB
S11313200EC087E083831092222709C083E0838361
S113133089EF8093222703C08BEF80932227DF91CC
S1131340CF9108951F920F920FB60F9211242F93ED
S11313503F934F935F936F937F938F939F93AF9339
S1131360BF93EF93FF9351DFFF91EF91BF91AF9143
S11313709F918F917F916F915F914F913F912F91A9
S11313800F900FBE0F901F9018951F920F920FB6DB
S11313900F9211242F933F934F935F936F937F93F7
S11313A08F939F93AF93BF93EF93FF932EDFFF91A0
S11313B0EF91BF91AF919F918F917F916F915F91C9
S11313C04F913F912F910F900FBE0F901F90189542
S11313D04F925F926F927F928F929F92AF92BF9241
S11313E0CF92DF92EF92FF920F931F93CF93DF93ED
S11313F0EC014A015B0128013901D901C801689453
S113140012F8B695A795979587951694D1F7B901D3
S1131410A801032E36E176956795579547953A9539
S1131420D1F7302D2C8122FD08C0B695A79597954C
S11314308795769567955795479588159905AA05D3
S1131440BB0508F4A6C084169506A606B70608F4DC
S1131450A2C08C8182FD04C0880C991CAA1CBB1CF0
S1131460C301B201A50194010E94C2262F3F310598
S11314704105510508F491C0C12CD12C7601CA94C0
S113148019EF05C02C153D054E055F0568F0CC0C21
S1131490DD1CEE1CFF1C1D3F14F46894C0F81F5F94
S11314A0173081F7212F50C0212F11230CF04CC08D
S11314B0D501C401880F991FAA1FBB1F880F991F4C
S11314C0AA1FBB1F880F991FAA1FBB1F481A590ABE
S11314D06A0A7B0A1E3FF4F46DEF7FEF611B71090A
S11314E017FD739504C0440C551C661C771C6A9543
S11314F0D2F7D501C401B695A79597958795BC01F8
S1131500CD01640D751D861D971DA50194010E94D2
S1131510C22636C023E0210FD501C40104C0880FC0
S1131520991FAA1FBB1F2A95D2F79C01AD01B6953E
S1131530A79597958795BC01CD01640D751D861DF2
S1131540971D0E94C2261CC02D5FD501C40104C092
S1131550880F991FAA1FBB1F2A95D2F79C01AD01C2
S1131560B695A79597958795BC01CD01640D751D1A
S1131570861D971D0E94C226215031094109510937
S1131580832F8F701295107F182B1F832E8381E079
S113159018C080E016C080E014C0D501C401880FD3
S11315A0991FAA1FBB1F880F991FAA1FBB1F880F53
S11315B0991FAA1FBB1F481A590A6A0A7B0A19EF06
S11315C08BCFDF91CF911F910F91FF90EF90DF9020
S11315D0CF90BF90AF909F908F907F906F905F90CF
S11315E04F9008950F931F93CF93DF93EC018B01DA
S11315F0009709F4BEC0803C910521F460E180E0CD
S1131600B4D7B7C0C11584E0D80721F464E080E002
S1131610ACD7AFC0C038E1E0DE0721F462E080E07F
S1131620A4D7A7C0C115F1E0DF0721F461E080E091
S11316309CD79FC0C03883E0D80721F461E081E0E3
S113164094D797C0C115E2E0DE0721F462E081E09F
S11316508CD78FC0C032F3E0DF0721F464E082E06E
S113166084D787C0C11588E0D80721F461E083E0FE
S11316707CD77FC0C115E9E0DE0721F461E084E096
S113168074D777C0C115FAE0DF0721F461E085E083
S11316906CD76FC0C03488E0D80721F462E083E0DF
S11316A064D767C0C034E9E0DE0721F462E084E077
S11316B05CD75FC0C039F8E0DF0721F464E083E061
S11316C054D757C0C03989E0D80721F464E084E0D6
S11316D04CD74FC0C039EAE0DE0721F464E085E06E
S11316E044D747C0C03CF8E0DF0721F468E083E05A
S11316F03CD73FC0C03C89E0D80721F468E084E0CF
S113170034D737C0C03AE8E0DE0721F460E183E073
S11317102CD72FC0C03AF9E0DF0721F460E184E060
S113172024D727C0C03A8AE0D80721F460E185E0D5
S11317301CD71FC0C03BE8E0DE0721F460E283E071
S113174014D717C0C03BF9E0DF0721F460E284E05E
S11317500CD70FC0C03884E0D80721F460E483E0DC
S113176004D707C0C03AE4E0DE0719F460E485E07A
S1131770FCD68D818F738D83F80194818581892BAB
S11317809681992311F098E001C090E0892B8D8314
S1131790F801408151816281738100E01CE62CEDE7
S11317A032E0CE0115DE9C8198609C839C8190611F
S11317B09C83DF91CF911F910F910895811118C0DF
S11317C090915028992389F09FB7F894E3ECF8E2BC
S11317D02081215020839FBF08C09FB7F894E3EC79
S11317E0F8E220812F5F20839FBF809350280895C3
S11317F090915028992389F3F8CF0F93E8ECF4E003
S113180080818F7D808380818F7D8083E4E2F8E214
S113181002E00593109226281092272800E20693EE
S113182000E40693ECE1F8E200E2069300E4069398
S11318301092BE281092BF281092C0281092C1287E
S11318401092BC281092BD2810920C280F91089574
S11318500F9385E080930C28E5E2F8E204E0059319
S1131860EDE1F8E204E005930F9108950F9383E00E
S113187080930C281092262810922728E4E2F8E29C
S113188002E006930F910895E091BE28F091BF28DD
S1131890309709F0099508950F93CF93DF938091C2
S11318A00C28833019F4F0DFA8DF60C08091082889
S11318B090910928C091BC28D091BD28C81BD90B90
S11318C071F520910A2830910B28820F931F809381
S11318D00A2890930B282091B8283091B9288217B0
S11318E0930721F080912327882341F084E080939B
S11318F00C28ECE1F8E202E0069338C0E091C0283D
S1131900F091C128309799F00995882381F01092BD
S1131910082810920928C091BC28D091BD28C03451
S1131920D10528F010922327C0E4D0E003C081E061
S113193080932327C0932628D093272880910828B2
S1131940909109282091BA283091BB28280F391F7B
S11319502093282830932928C80FD91FC09308281A
S1131960D0930928E4E2F8E202E00693DF91CF91F4
S11319700F910895FC018181877090E0FC013197FB
S1131980E730F10520F4E250FF4F0C94E42688E0A0
S113199090E0089580E290E0089580E490E0089556
S11319A080E890E0089580E091E0089580E092E07E
S11319B008958FEF93E0089580E190E00895282F33
S11319C02F7030E0220F331F992787FD90958827C9
S11319D0990F881F9927820F931F02979C01220F4A
S11319E0331F220F331F220F331F820F931F8C5577
S11319F0984D08950F93CF938091CC0480FF62C0DB
S1131A0081E08093CC04ECE1F8E200E80693E4E2A0
S1131A10F8E200E806938093CA04ECE1F8E200E1FE
S1131A20069380910C28882329F08350823008F48F
S1131A302BDFE3DE80911E2890911F28089709F080
S1131A4043C088E0E8ECF7E2A2EBB8E201900D9223
S1131A508A95E1F7E8ECF4E08081806280838081FC
S1131A6080628083C2D8C82F811103C0F1DEC1E037
S1131A702CC08091B22888236CF410920A2810920A
S1131A800B28109208281092092882E080930C28D1
S1131A9003DF1BC02091B8283091B928232B11F4FF
S1131AA0E5DE13C010920A2810920B281092082821
S1131AB01092092881E080930C28ECE1F8E202E01E
S1131AC0069303C0C0E001C0C1E08C2FCF910F91F9
S1131AD00895BF92CF92DF92EF92FF920F931F93DC
S1131AE0CF93DF93B82E6BDFEC011B2D111F112751
S1131AF0111F8B2D8F70E82EF12CEE0CFF1CE10EC4
S1131B00F11CC701880F991F880F991F880F991F0F
S1131B109C01245E374D7901C9012CDF6C0111232E
S1131B2009F45BC0D70116962D913C9117978D81CE
S1131B309E81280F391F2D833E838B819C8128171A
S1131B403907C9F1FC01E21BF30B9F012115F4E0F5
S1131B503F0740F02FEF33E0C901B6010E94AE26E3
S1131B60281B390B888181FF0AC0C901B6010E9474
S1131B70AE2641E0892B09F040E0942F01C090E0AB
S1131B80888190FB81F98883D70116961D921C9257
S1131B90179712962D933C93139729813A818D813F
S1131BA09E81820F931F14968D939C931597F70132
S1131BB002E0069398C0888181FF87C08D7F888367
S1131BC0D70116961D921C92179712961D921C927D
S1131BD01397F70102E0069386C0D70112960D9180
S1131BE01C911397888182FF15C0E981FA812D81A8
S1131BF03E818B819C81B6010E94AE26B0E4BB9EDF
S1131C00B00111246C51794DAC01CF01820F931FA7
S1131C100E948E272D813E81200F311F2D833E830C
S1131C20EB81FC81E217F30710F4ED83FE83D70107
S1131C3016968D919C9117978017910709F045C0CE
S1131C408D819E81E817F90709F43FC0E81BF90B61
S1131C50E115B4E0FB0748F0EFEFF3E0CF01B60184
S1131C600E94AE26E81BF90B06C0CF01B6010E9404
S1131C70AE26E81BF90BD70112961D921C921397FE
S1131C80EC15FD0578F4888184608883B0E4BB9EFC
S1131C90C00111248C51994DF70184839583C68228
S1131CA0D7820FC029813A818D819E81820F931F33
S1131CB0D70114968D939C9315971696ED93FC93E8
S1131CC01797F70102E006930EC0888180FF0BC0CE
S1131CD08E7F8883EF81F885309729F06D817E812E
S1131CE04B2D80E00995DF91CF911F910F91FF90CB
S1131CF0EF90DF90CF90BF900895CF93CFB7F89433
S1131D0081E05CDDEAECF4E080E4808380E28083BF
S1131D10E1ECF4E0808181608083A9ECB4E08C91F3
S1131D2082608C93E8ECF4E08081806480838C9101
S1131D3081608C93808180688083CFBFCF91089528
S1131D40CF9380E31ED4E0ECF4E080818064808350
S1131D50CFB7F89410921D281092252810922D28A0
S1131D601092352810923D2810924528E4EAF7E2B3
S1131D7080818E7F8083EDEAF7E280818E7F80838D
S1131D80E6EBF7E280818E7F8083EFEBF7E28081E0
S1131D908E7F80836AE170E082E0ECD48F3F19F09B
S1131DA08093FA0403C08FE18093FA046BE170E03E
S1131DB082E0E0D48F3F19F08093FB0403C08FE1ED
S1131DC08093FB04E0ECF4E0808182608083808176
S1131DD0806880838081806180838CE198E286833F
S1131DE097838081806280838FEF8093C504E8ECC1
S1131DF0F4E0808181608083109250288FB7F8943A
S1131E00E7ECF8E290819F5F90838FBF76DFCFBFCE
S1131E10CF91089580E008958093C304089580913C
S1131E20C304089580914C2890914D28089580E032
S1131E3090E008958093BA289093BB286093BC28BF
S1131E407093BD280895E82FEF70F0E0EE0FFF1FA8
S1131E50992787FD90958827990F881F9927E80F60
S1131E60F91FEE0FFF1FEE0FFF1FEE0FFF1FE45EC3
S1131E70F74D8181807C09F043C06370613029F0A3
S1131E8010F480E403C080E801C080EC40385105C0
S1131E90E1F050F440325105A1F04034510599F07D
S1131EA04031510561F419C0411592E0590789F098
S1131EB04F3F93E0590779F04115514041F020E03C
S1131EC00DC022E00BC023E009C024E007C025E0D8
S1131ED005C026E003C027E001C021E0118296E09E
S1131EE09083822B81838181807C803C21F4818159
S1131EF08770873039F081818062818381E0089521
S1131F0080E0089581E00895E82FEF70F0E0EE0F8F
S1131F10FF1F992787FD90958827990F881F992778
S1131F20E80FF91FEE0FFF1FEE0FFF1FEE0FFF1F4D
S1131F30E45EF74D818182FB882780F90895E82FBC
S1131F40EF70F0E0EE0FFF1F282F332727FD3095A9
S1131F502227330F221F3327E20FF31FEE0FFF1F39
S1131F60EE0FFF1FEE0FFF1FE45EF74D918192FF0E
S1131F700EC091819B7F918322DDFC01808180FFD3
S1131F8006C08E7F80830780F085E02D099581E06F
S1131F9008957F928F929F92AF92BF92CF92DF92D9
S1131FA0EF92FF920F931F93CF93DF93982E862E79
S1131FB05A01690104DD7C01792C771C7724771C94
S1131FC0C92DCF70D0E0CC0FDD1FC70DD11DCC0FB4
S1131FD0DD1FCC0FDD1FCC0FDD1FC45ED74D898103
S1131FE0807C09F44CC08981807C803C19F0898113
S1131FF082FD47C08FB7F894F701908190FF03C02A
S11320008FBF712C3FC0F7019081916090838FBF87
S1132010F701A182B282C382D48215821682078319
S11320201087811006C091E0C114D10419F090E02A
S113203001C091E0F701808190FB81F98B7F80835F
S1132040772019F01E821F8215C08981807C803C14
S113205069F4CE018FDCBC01C6010E94AE26892B37
S113206029F0F70180818E7F80830CC01A821B8245
S11320701E821F82892D2DDD7724739403C0712C59
S113208001C0712C872DDF91CF911F910F91FF908B
S1132090EF90DF90CF90BF90AF909F908F907F9004
S11320A00895FF920F931F93CF93DF93182FF82E69
S11320B0FF1CFF24FF1CC82FCF70D0E0CC0FDD1F06
S11320C0CF0DD11DCC0FDD1FCC0FDD1FCC0FDD1FBD
S11320D0C45ED74D74DCDC01FE0102E005938C91F3
S11320E080FF12C08E7F8C931796ED91FC91189708
S11320F0309751F0FF2019F06E817F8102C06A8110
S11321007B81412F81E00995DF91CF911F910F9140
S1132110FF900895CF93C82FC4DFEC2FEF70F0E049
S1132120EE0FFF1F8C2F992787FD90958827990F15
S1132130881F9927E80FF91FEE0FFF1FEE0FFF1FEF
S1132140EE0FFF1FE45EF74D1182CF9108950F93B8
S1132150E82FEF70F0E0EE0FFF1F282F332727FD45
S113216030952227330F221F3327E20FF31FEE0F80
S1132170FF1FEE0FFF1FEE0FFF1FE45EF74D91816F
S11321809460918301E006938CDF81E00F910895C0
S11321901F920F920FB60F9211240F932F933F9318
S11321A04F935F936F937F938F939F93AF93BF935B
S11321B0EF93FF938091CB04882334F480E88093D9
S11321C0CA040E94C60588C08091CB0482FF20C047
S11321D084E08093CA048091242886FF7DC0809186
S11321E0CC0481FD79C006DC811176C080910C2875
S11321F0813011F43BDB70C0843009F06DC0E5E23E
S1132200F8E204E00593EDE1F8E204E0059364C02C
S11322108091CB0481FF5BC082E08093CA048091EB
S11322201C2886FF59C08091CC0481FD55C0E2DB97
S1132230811152C080910C28823041F484E0809353
S11322400C28ECE1F8E202E0069346C0833009F082
S113225043C0E5E2F8E204E00593EDE1F8E204E0CE
S113226005933AC080E18093CA0481E01ADF81E8D3
S113227018DF0E949F051092C304EDE1F8E210827A
S113228096E090931C2883E48083E5E2F8E21082D0
S113229090932428808388EC97E28093202890935D
S11322A02128ABDA19C08091CB0486FF06C080E4F4
S11322B08093CA0480E082DA0FC08091CB0485FF4A
S11322C00BC080E28093CA0481E078DA05C0809173
S11322D0CB0484FFE8CFC6CFFF91EF91BF91AF91BC
S11322E09F918F917F916F915F914F913F912F912A
S11322F00F910F900FBE0F901F9018951F920F9281
S11323000FB60F9211240F931F932F933F934F9364
S11323105F936F937F938F939F93AF93BF93CF9369
S1132320DF93EF93FF938091CC0481FD03C062DBC4
S11323308111B9C082E08093CC048091C504819559
S1132340880FECE1F8E2E81BF109208131812C517E
S11323503842369527953695279536952795822FB9
S1132360869520FF02C090E801C090E0890FE82F15
S1132370EF70F0E0EE0FFF1F282F332727FD309575
S11323802227330F221F3327E20FF31FEE0FFF1F05
S1132390EE0FFF1FEE0FFF1FE45EF74D908195FFD8
S11323A082C000E20693811179C080910C288430A8
S11323B019F46ADA22DA77C0C0911E28D0911F2856
S11323C08091BC289091BD2800910828109109287B
S11323D098012C0F3D1F8217930718F4EC01C01BC2
S11323E0D10B8091BA289091BB28AE0168EC77E2BA
S11323F0800F911F0E948E270C0F1D1F0093082829
S113240010930928C034D10569F480910A28909169
S11324100B28800F911F2091B8283091B92882177A
S1132420930788F00093BC281093BD28E091C0283E
S1132430F091C128309729F00995811102C008DA7A
S113244032C014DA30C08091BC289091BD2808179E
S11324501907F9F4E091C028F091C128309711F4DC
S1132460F7D921C00995811102C0F2D91CC020916D
S11324700A2830910B288091082890910928820F0E
S1132480931F80930A2890930B2810920828109287
S11324900928ECE1F8E202E0069305C0803811F463
S11324A0FBD901C016DBFF91EF91DF91CF91BF9172
S11324B0AF919F918F917F916F915F914F913F91D8
S11324C02F911F910F910F900FBE0F901F90189591
S11324D0CF93DF9300D000D0CDB7DEB78FEF8093DA
S11324E070008093710080937200809373008093D6
S11324F0740080937500809376006CE170E082E054
S113250039D18A836DE170E082E034D18983898195
S11325109A81019621F480E493E289839A838981E4
S11325209A818B839C83E0E6F0E082838C818383B1
S11325308FB7F894E0E5F0E09081926090838FBFCC
S1132540818181FFFDCF61E080E490E01DD18FB7F0
S1132550F894E0E5F0E090819E7F90838FBF24960D
S1132560CDBFDEBFDF91CF9108959FB7F894E82FD8
S1132570F0E0E059FF4F60958081682360839FBF3E
S11325800895863011F468E101C060E0E0E5F0E010
S1132590818181FD09C08FB7F89490819260908306
S11325A08FBF818181FFFDCF636084E490E0ECD034
S11325B060E480E0DACF0895CF93DF939B01E0ECF1
S11325C0F1E067856623ECF3CCECD1E068816860C8
S11325D06883BC01705FC9010E948E278881877F50
S11325E08883DF91CF910895E0ECF1E0878588231B
S11325F0ECF3E0ECF1E0878581FF06C086E3828797
S113260061E08BEC91E0C0C00895E0ECF1E09785C7
S11326109923ECF3ECECF1E0908198609083A82F7F
S1132620B0E0B05F6C938081877F80830895FF92D0
S11326300F931F93CF93DF93182FF92EC62FE0EC3F
S1132640F1E00285D1DFE0ECF1E027852223ECF311
S11326506C2F812FDADFC0ECD1E01A82F982188363
S113266085E38A8761E08BEC91E08ED00A87DF9165
S1132670CF911F910F91FF900895EF92FF920F93C6
S11326801F93CF93DF938C01E0ECF1E087858823DF
S1132690ECF3780180E2E80EF11CE8018C2F801B3A
S11326A06991B3DFCE15DF05C9F7DF91CF911F9193
S11326B00F91FF90EF9008951F93CF93DF93E0EC79
S11326C0F1E097859923ECF320E2829FC001112465
S11326D0C0ECD1E01A82998388831A8585E38A87BE
S11326E061E08BEC91E050D01A87DF91CF911F917C
S11326F00895CF92DF92EF92FF920F931F93CF939F
S1132700DF93EC017B018A014115510551F1CE01A2
S11327108F719927892BB1F40032110598F0C70104
S1132720ACDFCE0196958795929582958F70892717
S11327309F708927C1DFA09680E2E80EF11C005249
S113274011090CC06E01EFEFCE1ADE0AF701619198
S11327507F01CE016CDF01501109E601011511055D
S1132760B1F6DF91CF911F910F91FF90EF90DF9021
S1132770CF9008954091CA01E62FF72F8093CA01A4
S113278084914093CA0108951BBEFC0128ED24BF27
S1132790608308950F931F93CF93DF9300D01F920C
S11327A0CDB7DEB76115710529F48068898381E0AE
S11327B090E014C0806C89836038710520F46A83CA
S11327C082E090E00BC0862F80688A83660F672FB3
S11327D0661F770B71956B8383E090E0BE016F5F9A
S11327E07F4F0E94941E2396CDBFDEBFDF91CF9111
S11327F01F910F9108950F931F93FA019A01280FC7
S1132800391F2130344068F49C012250310940E0E2
S113281050E08B01BF0189E090E0BCDF80E090E0F4
S113282002C08FEF9FEF1F910F9108950F931F9395
S1132830CF93DF9300D01F92CDB7DEB7611571053A
S113284021F4898381E090E014C080648983603836
S1132850710520F46A8382E090E00BC0862F8068C3
S11328608A83660F672F661F770B71956B8383E0EE
S113287090E0BE016F5F7F4F0E94CF1E2396CDBFB5
S1132880DEBFDF91CF911F910F9108950F931F9396
S11328909B01BA0140E050E08C0181E190E0C6DF89
S11328A01F910F9108950F931F938C0125E030E041
S11328B040E050E060E070E087E190E0B7DF1F9116
S11328C00F9108950F931F938C0125E030E040E0B1
S11328D050E060E070E085E190E0A8DF1F910F9187
S11328E00895EF92FF920F931F93CF93DF9300D03D
S11328F000D0CDB7DEB79E012F5F3F4F890124E0A2
S113290030E040E050E092DFFE01359660E070E098
S1132910CB01B82FA72F962F88272291BC01CD0178
S1132920620F711D811D911DE017F10791F7249627
S1132930CDBFDEBFDF91CF911F910F91FF90EF903C
S1132940089560E070E080E090E0CBCF08950F93AD
S11329501F93CF93DF9300D0CDB7DEB78E010F5F07
S11329601F4F22E030E040E050E060DF8A8190E0D9
S1132970982F88272981820F911D0F900F90DF9146
S1132980CF911F910F9108950F931F93CF93DF93CE
S11329901F92CDB7DEB78E010F5F1F4F21E030E0ED
S11329A040E050E043DF89810F90DF91CF911F9188
S11329B00F9108950F931F93CF93DF931F92CDB779
S11329C0DEB749838E010F5F1F4F21E030E040E006
S11329D050E0E0DE0F90DF91CF911F910F910895A9
S11329E00F931F93CF93DF9300D0CDB7DEB7498306
S11329F05A838E010F5F1F4F22E030E040E050E029
S1132A00C9DE0F900F90DF91CF911F910F91089520
S1132A10AC0164E078E18EE290E0E2CF0895AC018D
S1132A2060E070E088E190E0DBCF08950F931F939E
S1132A30CF93DF9300D000D0CDB7DEB729833A839C
S1132A404B835C838E010F5F1F4F24E030E040E036
S1132A5050E0A0DE2496CDBFDEBFDF91CF911F9161
S1132A600F910895CF92DF92EF92FF920F931F93ED
S1132A708C01CA01AA2797FDA095BA2F072E7FE0E3
S1132A80880F991FAA1FBB1F7A95D1F7702DE0916B
S1132A909820F0919920C284D384E484F5848C290D
S1132AA09D29AE29BF2920E030E0802B912BA22B59
S1132AB0B32BAB0160E070E0032E36E1440F551FE9
S1132AC0661F771F3A95D1F7302D9A01AB01282B59
S1132AD0392B4A2B5B2B60E070E088E090E0A6DFA6
S1132AE01F910F91FF90EF90DF90CF900895AB016D
S1132AF064E070E08DE290E073DF43E066E070E054
S1132B008DE290E057DF40E066E070E08DE290E017
S1132B1051DF6AE070E08DE290E0E3CE089540E09A
S1132B2062E070E08CE290E045DF42E062E070E059
S1132B308CE290E03FCF0895CF93DF93EC014DE614
S1132B4066E078E08EE290E035DFCD2B41F047E09F
S1132B5056E066E078E18EE290E042DF07C047E0AD
S1132B6056E166E078E18EE290E03ADFDF91CF91C2
S1132B7008954F925F926F927F92AF92BF92CF92DD
S1132B80DF92EF92FF920F931F93CF93DF93EC01A9
S1132B90488059806A807B80842DEC89FD89EE0F02
S1132BA0FF1FE654FE4DC080D1800C81015084305B
S1132BB041F021E090E0873009F020E0E22EF92E88
S1132BC003C0EE24E394F12C8C8D9D8DAE8DBF8DCE
S1132BD0892B8A2B8B2BA1F4E0919820F0919920DA
S1132BE080899189A289B389A064808B918BA28BFF
S1132BF0B38BD694C794D694C794D694C7940DC077
S1132C00E0919820F091992080899189A289B389D3
S1132C10AF7B808B918BA28BB38BE0919820F0914A
S1132C20992088A1808780899189A289B389AC7F02
S1132C30808B918BA28BB38B48A159A16AA17BA1F4
S1132C40BA015527442744275527637077279A01EB
S1132C50AB01282B392B4A2B5B2B208B318B428BDE
S1132C60538B60E070E084E090E0E0DEA60164E075
S1132C7078E28EE290E0B4DE10E0C8015DDFE42D7E
S1132C80F0E0E15AFD4DA080B12C6501CC0CDD1CB7
S1132C90CC0CDD1CF601E15DFD4D208131814281CA
S1132CA0538167E070E08BE290E0C0DEF501E75D00
S1132CB0FD4D40816BE070E08BE290E07BDEF7013C
S1132CC0FF27E95DFD4D40816BE070E088E290E014
S1132CD071DEF601E95BFD4D208131814281538132
S1132CE06CE070E088E290E0A1DEEC8DFD8DEE0FEB
S1132CF0FF1F888D998DE80FF91FEE0FFF1FE05F0E
S1132D00FD4D4081518162E070E087E290E068DE31
S1132D10F801EE0FFF1FE45FFD4D4081518164E037
S1132D2070E087E290E05CDE8C8D9D8DAE8DBF8D72
S1132D30892B8A2B8B2B41F444E650E066E070E04B
S1132D4087E290E04DDE23C088859985AA85BB85FE
S1132D500497A105B10571F440E150E066E070E02C
S1132D6087E290E03DDE40E166E270E087E290E0D9
S1132D7021DE0DC040E250E066E070E087E290E0C2
S1132D802FDE48E266E270E087E290E013DE8C8595
S1132D909D85F801EE0FFF1FEE0FFF1FE80FF91FCF
S1132DA0EE0FFF1FEE0FFF1FE451FE4D2081318116
S1132DB04281538168E070E087E290E037DE8CA1C5
S1132DC09DA1AEA1BFA1892B8A2B8B2B41F481E459
S1132DD090E1A0E0B0E08CA39DA3AEA3BFA34CA15F
S1132DE05DA160E270E087E290E0FADD20911F22AD
S1132DF03091202240912122509122226CE070E0F7
S1132E0083E290E013DEF801EE0FFF1FED5DFD4D50
S1132E104081518164E070E083E290E0E1DD888DDF
S1132E20998DAA8DBB8D892B8A2B8B2B69F0EC8D08
S1132E30FD8DE45EFD4D408160E070E081E290E054
S1132E40B9DDE1E083E002C0E0E080E00C891D89A7
S1132E502E893F890F2EFBE1000F111F221F331F04
S1132E60FA95D1F7F02DB301A2014F7055276627CB
S1132E707727042B152B262B372B4C815D816E81F4
S1132E807F81032E32E1440F551F661F771F3A9549
S1132E90D1F7302D442755276C707727042B152B39
S1132EA0262B372B488959896A897B89032E36E179
S1132EB0440F551F661F771F3A95D1F7302D4427CD
S1132EC05527607C7770042B152B262B372B552424
S1132ED066247724B301A201440F551F661F771F90
S1132EE0440F551F661F771F440F551F661F771F1A
S1132EF0440F551F661F771F552766277727402BDA
S1132F00512B622B732B90E0A0E0B0E0072E74E10C
S1132F10880F991FAA1FBB1F7A95D1F7702D842B98
S1132F20952BA62BB72B4E2E512C612C712C032ED6
S1132F3031E1440C551C661C771C3A95D1F7302DB1
S1132F40A3019201282B392B4A2B5B2B60E070E004
S1132F508FE190E06BDD4C815D816E817F8188859E
S1132F609985AA85BB85842B952BA62BB72BBC01F1
S1132F70552744278C8D9D8DAE8DBF8D072E7DE00A
S1132F80880F991FAA1FBB1F7A95D1F7702D9A013C
S1132F90AB01282B392B4A2B5B2BE0919820F09125
S1132FA09920228733874487558760E070E088E062
S1132FB090E03CDD42E460E070E08DE090E0FADC1B
S1132FC0DF91CF911F910F91FF90EF90DF90CF9001
S1132FD0BF90AF907F906F905F904F900895CF9285
S1132FE0DF92EF92FF926B017C0160E070E08AE176
S1132FF090E077DCDC01CB0188279927A07F2FE0C4
S1133000E222FF249C01AD012C293D294E295F2990
S113301060E070E08AE190E009DDFF90EF90DF90DE
S1133020CF900895CF93C82F80FF20C060E070E058
S113303086E290E056DCDC01CB01937C9C01AD017F
S1133040346160E070E086E290E0F0DC60E070E023
S113305086E390E046DC9B01AC01446860E070E0EC
S113306086E390E0E3DCC1FD19C00EC060E070E0CF
S113307086E290E036DC9B01AC01337C60E070E0DA
S113308086E290E0D3DC1CC020E131E040E050E077
S113309068E270E086E390E0C9DC12C020E131E030
S11330A04FE050E068E270E086E390E0BFDC20E1AE
S11330B031E040E050E068E270E086E390E0B6DCA6
S11330C0CF910895EF92FF920F931F93CF93DF93C5
S11330D000D0CDB7DEB77C018E010F5F1F4F22E019
S11330E030E040E050E060E070E086E390E09EDB9A
S11330F08FE0E816F104A0F5F701EB5FFE4F0C94A6
S1133100E42619828A818E7F8A832AC089818C7FF2
S11331108160898325C089818C7F8260898320C0F6
S11331208981837B886489838A8180688A8318C0C3
S11331308981837B89838A818F778A8311C08A817D
S113314082608A830DC08A818D7F8A8309C08981C8
S11331508F7C8062898304C081E0898383E08A83D1
S11331608E010F5F1F4F21E030E040E050E060E04F
S113317070E086E390E00EDB0F5F1F4F21E030E04C
S113318040E050E061E070E086E390E003DB0F9004
S11331900F90DF91CF911F910F91FF90EF900895C1
S11331A08EE090E08FDF40E050E866E070E08DE272
S11331B090E016DC81E090E028D581E090E082CFB9
S11331C0089580E090E07EDF40E050E064E070E04D
S11331D086E390E005CC08959B01AC0161E070E0CA
S11331E08AE090E023CC0895CF93C82F81FF0EC0CE
S11331F040E860E070E08DE090E0DCDBE091982056
S1133200F091992081E0868B40E801C040E0C0FF46
S11332101DC0466060E070E08DE090E0CBDB63E0D1
S113322070E08FE090E093DB88709470892BB9F0A4
S113323040E460E070E08DE090E0BCDBE091982039
S1133240F0919920168A8FEF9FEF0BC0426060E0E7
S113325070E08DE090E0AEDB80E090E002C080E0C2
S113326090E0CF91089563E070E08FE090E08CDB14
S1133270482F407850E060E070E0807490E0A0E077
S1133280B0E0880F991FAA1FBB1F481759076A0788
S11332907B0731F041E063E070E08DE090E08ACBA1
S11332A00895CF92DF92EF92FF92CF93DF9360E085
S11332B070E08EE090E015DB6B017C01A0D4EC01A2
S11332C020E030E0A90160E070E08EE090E0AEDB49
S11332D040E460E070E08DE090E06CDB28EF3FEFCD
S11332E047E254E260E070E08FE090E09FDBBBDFF8
S11332F0A701960160E070E08EE090E097DBCE01DC
S113330082D4E0919820F0919920168ADF91CF9190
S1133310FF90EF90DF90CF9008950F931F93CF937A
S1133320DF93EC0182FF9FDF8E0101701127C0FD46
S113333011C021C0B6DFC1FD0AC040E051E060E029
S113334070E08DE090E04CDB0FEF1FEF1BC00FEF40
S11333501FEF18C040E053E060E070E08DE090E0C3
S11333603FDB63E070E08FE090E00EDB83FDE2CFB3
S113337000E010E007C040E051E060E070E08DE064
S113338090E02EDBC801DF91CF911F910F9108953A
S11333900F931F93CF938C0163E070E084E090E07F
S11333A0F3DAC82F01151105D9F0A80160E070E027
S11333B08CE090E015DBE0919820F0919920008951
S11333C01189228933893061008B118B228B338BD5
S11333D04C2F406163E070E084E090E0EBDA14C0CD
S11333E0E0919820F09199200089118922893389EC
S11333F03F7E008B118B228B338B482F4F7E63E0F3
S113340070E084E090E0D6DACF911F910F91089597
S1133410AC0164E270E087E290E0E2CA089540EE15
S113342063E070E086E390E0C5DA40EF63E070E0CB
S113343086E390E0BFCA0895C4DE40E050E060E057
S113344070E08CE290E0CCDA40E066E070E08CE280
S113345090E0B0DA64DB40E063E070E086E390E0A3
S1133460A9DA81E090E0D1D340EF63E070E086E335
S113347090E0A0DAE0919820F0919920168A0895BE
S11334808F71482F40666EE070E08BE290E092CA44
S113349008950F931F93CF93DF93C82FE091982043
S11334A0F09199201786168A148A158A10A211A2FF
S11334B012A213A214A215A216A217A242DA603312
S11334C071408A4C9E4D09F085C0B6DF80E090E0E3
S11334D0F9DD44E060E070E084E290E06BDA6EE1F4
S11334E070E080E090E003DBD62FE0919820F0912B
S11334F09920718764E070E080E090E0F8DA662358
S113350079F042E062E170E08DE290E053DAE0911C
S11335109820F0919920848995899061848B958B6A
S1133520009198201091992066E070E080E090E08E
S1133530DEDAF8016083718382839383009198209B
S11335401091992067E070E080E090E0D0DAF80113
S11335506483758386839783E0919820F091992002
S1133560DF7111F0D68702C080E18687868588DF07
S1133570C0FF0BC015DEE0919820F091992084895A
S113358095899860848B958B0CC065E070E086E328
S113359090E0DDD9AC015D7F65E070E086E390E00A
S11335A01FDA81E090E08EDD40E06AE070E08CE2BA
S11335B090E000DAC0919820D091992060E070E00A
S11335C084E090E08ED9688B798B8A8B9B8B80E02A
S11335D090E002C08FEF9FEFDF91CF911F910F9189
S11335E008958F929F92AF92BF92CF92DF92EF9203
S11335F0FF920F93CF93DF93DB011D921D921D92D7
S11336001C921397EC01E0E0F0E0299130E040E0F7
S113361050E060E070E080E090E00E2F0E943B27D5
S1133620822E932EA42EB52E4D915D916D917C9199
S11336301397840E951EA61EB71E8D929D92AD9271
S1133640BC9213973896E032F105F9F6DF91CF91E9
S11336500F91FF90EF90DF90CF90BF90AF909F902D
S11336608F900895CF93DF93CDB7DEB76B97CDBF1F
S1133670DEBF81E090E00DDF019649F48FE091E236
S11336809F938F930E949E270F900F90FFCF31D36B
S11336908DEC90E26EDA83E0C5DC84E390E4B8D983
S11336A084E390E4BCD988E090E0B2DE0F2EF0E22F
S11336B02F2EF6E03F2EF02D12E0AE014F5F5F4F4C
S11336C04E875F8780E090E063DE80E090E025DE57
S11336D003C0D10117961C9360E070E08FE090E086
S11336E000D96093992870939A2880939B2890938B
S11336F09C286B017C01CC24B0EDDB22B7E2EB22E9
S1133700B4E2FB22CD28CE28CF2819F376FF6AC273
S113371020E030E440E050E060E070E08FE090E0D2
S113372085D960E070E080E190E0DBD87370882791
S1133730992740E050E08DE998E2A8D88DE998E215
S11337400E94AF27EFE9F8E210828BE191E20E9438
S1133750AF274AE050E061EC70E28DE998E20E9404
S11337608127892B09F0AECF82E291E20E94AF2734
S1133770CE010196A7D8FE013696DE01119620E00F
S113378030E040E050E060E070E080E090E008E08D
S11337900E943B270291202BEA17FB07C1F72093D5
S11337A091283093922840939328509394286093BF
S11337B09528709396288093972890939828445C32
S11337C0504F6F4F7F4F8F4F9F4F08E00E945627F7
S11337D0D52E022FF32EE42E622F7F2D8E2D9D2DBC
S11337E0FBDC2091912830919228409193285091AC
S11337F094286091952870919628DF92EF92FF9219
S11338000F931F921F921F921F925F934F933F93A8
S11338102F93809197289091982800E20E94562730
S11338205F934F933F932F93A9E2B1E2BF93AF937A
S11338300E949E2764EF71E080E090E0D0DB84EE8C
S11338409CE0A6DD8091B128A4EBB0E28C9340E02B
S113385050E062EB70E28FE090E00E94FB1341E0E5
S113386050E060E070E08FE090E0FCD883E0BCDCE6
S1133870CDBFDEBF019611F000E407C08CE391E2F6
S11338800E94AF271FCF0093070660E070E08FE02F
S113389090E027D86093992870939A2880939B2866
S11338A090939C28DC01CB018827907DA772B47289
S11338B0892B8A2B8B2B39F386E491E20E94AF2764
S11338C08091B1288F5F8093B1288091992890913D
S11338D09A28A0919B28B0919C2896FF73C18DE4EF
S11338E091E20E94AF2780E88093070620E830E445
S11338F040E050E060E070E08FE090E097D860E056
S113390070E080E190E00E9471146F777727882738
S113391099276531710581059105A0F440E050E0D7
S11339208DE998E20E9446148DE998E29F938F9363
S113393084E591E29F938F930E949E270F900F90AE
S11339400F900F90AFE9B8E21C924AE050E06AE9A8
S113395070E28DE998E20E948127892B09F02DC13C
S113396081E0F1018783CE0101960E945314FE0188
S11339703696DE01119620E030E040E050E060E051
S113398070E080E090E008E00E943B270291202B49
S1133990EA17FB07C1F72093892830938A284093BC
S11339A08B2850938C2860938D2870938E28809355
S11339B08F2890939028CE0101960E946214FE01F4
S11339C03696DE011196412C512C612C712C812CE0
S11339D0912CA12CB12C242D352D462D572D682D3D
S11339E0792D8A2D9B2D08E00E943B270291402EC1
S11339F0422A532E642E752E862E972EA82EB92E6B
S1133A00EA17FB0741F740928128309382284093BC
S1133A108328509384286093852870938628809304
S1133A20872890938828BE01665F7F4F87EA98E2D3
S1133A30D8DDBE016A5F7F4F8BEA98E2D2DDBE011A
S1133A406F5F7F4F8FEA98E2CCDDA9E8B8E22D9151
S1133A503D914D915C912C8B3D8B4E8B5F8B2E81D8
S1133A603F8148855985288B398B4A8B5B8B8A85A6
S1133A709B85AC85BD85281B390B4A0B5B0BCA01A2
S1133A80B9010E946F256B017C01C301B2012C892D
S1133A903D894E895F89621B730B840B950B0E94D1
S1133AA06F25688F798F8A8F9B8F89819A81AB81EB
S1133AB0BC81BC01CD01288939894A895B89621B93
S1133AC0730B840B950B0E946F25688B798B8A8B03
S1133AD09B8B8091912890919228A0919328B091EA
S1133AE094282C893D894E895F89281B390B4A0B00
S1133AF05B0BCA01B901F3D74B015C01288D398DE9
S1133B004A8D5B8DC701B6010E944B262B013C01F7
S1133B10A5019401688979898A899B890E944B2629
S1133B209B01AC01C301B201A3D62B013C01288D3A
S1133B30398D4A8D5B8DC701B6019BD62889398999
S1133B404A895B8996D6A501940193D69B01AC0161
S1133B50C301B201F2D659D7BED722EC38EA49E8FC
S1133B605DE20E944B2660937D2870937E288093AB
S1133B707F289093802829EC38EE4EE85DE40E947B
S1133B804B266093792870937A2880937B289093AE
S1133B907C2820E030E048EC52E40E944B266FD7AA
S1133BA07F936F938EE591E29F938F930E949E275C
S1133BB00F900F900F900F9085CD8BE691E20E94AD
S1133BC0AF2780CD8CEA91E20E94AF2720E030E954
S1133BD047E254E260E070E08FE090E00E94161546
S1133BE01EDC70CD20E030E947E254E260E070E092
S1133BF08FE090E00E94161512DC64CD33DDF8945A
S1133C0081E090E0089578940895AF92BF92CF92A6
S1133C10DF92EF92FF920F931F93CF93DF93A12C28
S1133C200F2EFCE6BF2EF02D0F2EFCEDCF2EF02D27
S1133C306894DD24D1F8E12CF12C00E010E0282F69
S1133C40392F40E050E060E070E080E090E00E94B6
S1133C50EA2629513C4F4F4F5F4F6F4F7F4F8F4F95
S1133C609F4F7AD720E030E84BEB55E466D6D2D6A6
S1133C70F22FE32F8F2F9E2FA42FB52F0197A10989
S1133C80B1090097A105B105C9F7DF91CF911F9143
S1133C900F91FF90EF90DF90CF90BF90AF90089579
S1133CA0CF92DF92EF92FF920F931F9384E1809360
S1133CB0F02880EC98E00E944001C12CD12C7601C0
S1133CC000E211EA27E030E040E060EF78E280ECC7
S1133CD098E00E945901E0ECF8E0808180648083E0
S1133CE080E090E01F910F91FF90EF90DF90CF90D4
S1133CF00895CF92DF92EF92FF920F931F93C12CFE
S1133D00D12C760100EC11EE24EE30E040E060EFBF
S1133D1078E280EC98E00E9459011F910F91FF9086
S1133D20EF90DF90CF9008958F929F92AF92BF92C1
S1133D30CF92DF92EF92FF920F931F93CF93DF9373
S1133D407C01EB0149015A015ADF6C0160EF78E212
S1133D5080EC98E00E949A01A701BE0180EC98E0F3
S1133D600E947801A401B80180EC98E00E947801D7
S1133D7060EF78E280EC98E00E94B001C60143DF76
S1133D8080E090E0DF91CF911F910F91FF90EF9031
S1133D90DF90CF90BF90AF909F908F9008958F92B7
S1133DA09F92AF92BF92CF92DF92EF92FF920F93C6
S1133DB01F93CF93DF937C01EB0149015A011FDF6D
S1133DC06C0160EF78E280EC98E00E949A01A70110
S1133DD0BE0180EC98E00E947801A401B80180EC57
S1133DE098E00E94870160EF78E280EC98E00E94FE
S1133DF0B001C60108DF80E090E0DF91CF911F9110
S1133E000F91FF90EF90DF90CF90BF90AF909F9075
S1133E108F9008950E94681280E09AE6A8E1B0E0CD
S1133E200197A109B1090097A105B105C9F7E0E41B
S1133E30F6E088E0828394E09283A0E0B6E020E498
S1133E4011962C93119730E811963C93A0E2B6E0BA
S1133E5041E011964C93119742E011964C93A0E8DF
S1133E60B6E011964C93119712969C931297119663
S1133E708C93A0E6B6E012969C93129711968C93BD
S1133E8080E1818380E28183318322838FB7F89438
S1133E90E6E5F6E09081977090839081906190833D
S1133EA08FBF7DC4089580E4E0E0F6E0858380E080
S1133EB092EEA4E0B0E00197A109B1090097A10531
S1133EC0B105C9F780E8E0E0F6E0858380E092EE92
S1133ED0A4E0B0E00197A109B1090097A105B105DB
S1133EE0C9F781E0E0E2F6E0858380E092EEA4E0A9
S1133EF0B0E00197A109B1090097A105B105C9F77F
S1133F0082E0E0E2F6E0858380E092EEA4E0B0E0B7
S1133F100197A109B1090097A105B105C9F780E48A
S1133F20E0E0F6E0868380E092EEA4E0B0E0019762
S1133F30A109B1090097A105B105C9F780E8E0E03E
S1133F40F6E0868380E092EEA4E0B0E00197A10958
S1133F50B1090097A105B105C9F781E0E0E2F6E0F7
S1133F60868380E092EEA4E0B0E00197A109B10954
S1133F700097A105B105C9F782E0E0E2F6E0868387
S1133F8080E092EEA4E0B0E00197A109B1090097A6
S1133F90A105B105C9F780E4E0E0F6E0858380E09F
S1133FA094ECA9E0B0E00197A109B1090097A1053B
S1133FB0B105C9F780E8E0E0F6E0858380E094ECA1
S1133FC0A9E0B0E00197A109B1090097A105B105E5
S1133FD0C9F781E0E0E2F6E0858380E094ECA9E0B3
S1133FE0B0E00197A109B1090097A105B105C9F78E
S1133FF082E0E0E2F6E0858380E094ECA9E0B0E0C2
S11340000197A109B1090097A105B105C9F780E499
S1134010E0E0F6E0868380E094ECA9E0B0E001976C
S1134020A109B1090097A105B105C9F780E8E0E04D
S1134030F6E0868380E094ECA9E0B0E00197A10962
S1134040B1090097A105B105C9F781E0E0E2F6E006
S1134050868380E094ECA9E0B0E00197A109B1095E
S11340600097A105B105C9F782E0E0E2F6E0868396
S113407080E094ECA9E0B0E00197A109B1090097B0
S1134080A105B105C9F780E4E0E0F6E0858380E0AE
S113409096EAAEE0B0E00197A109B1090097A10545
S11340A0B105C9F780E8E0E0F6E0858380E096EAB0
S11340B0AEE0B0E00197A109B1090097A105B105EF
S11340C0C9F781E0E0E2F6E0858380E096EAAEE0BD
S11340D0B0E00197A109B1090097A105B105C9F79D
S11340E082E0E0E2F6E0858380E096EAAEE0B0E0CC
S11340F00197A109B1090097A105B105C9F780E4A9
S1134100E0E0F6E0868380E096EAAEE0B0E0019776
S1134110A109B1090097A105B105C9F780E8E0E05C
S1134120F6E0868380E096EAAEE0B0E00197A1096C
S1134130B1090097A105B105C9F781E0E0E2F6E015
S1134140868380E096EAAEE0B0E00197A109B10968
S11341500097A105B105C9F782E0E0E2F6E08683A5
S113416080E096EAAEE0B0E00197A109B1090097BA
S1134170A105B105C9F780E4E0E0F6E0858380E0BD
S113418098E8A3E1B0E00197A109B1090097A1055E
S1134190B105C9F780E8E0E0F6E0858380E098E8BF
S11341A0A3E1B0E00197A109B1090097A105B10508
S11341B0C9F781E0E0E2F6E0858380E098E8A3E1D6
S11341C0B0E00197A109B1090097A105B105C9F7AC
S11341D082E0E0E2F6E0858380E098E8A3E1B0E0E5
S11341E00197A109B1090097A105B105C9F780E4B8
S11341F0E0E0F6E0868380E098E8A3E1B0E0019790
S1134200A109B1090097A105B105C9F780E8E0E06B
S1134210F6E0868380E098E8A3E1B0E00197A10985
S1134220B1090097A105B105C9F781E0E0E2F6E024
S1134230868380E098E8A3E1B0E00197A109B10981
S11342400097A105B105C9F782E0E0E2F6E08683B4
S113425080E098E8A3E1B0E00197A109B1090097D3
S1134260A105B105C9F7089548E250E068EC78E289
S113427080E090E00C94791308958091C82890917F
S1134280C928089560E070E081E00E94BA1390E0CC
S11342900895CF93DF9388EC90E18093C82890939E
S11342A0C928F0DFCAECD8E28883998381E080933F
S11342B0CC2885E1E7E6F2E2ADECB8E201900D929C
S11342C08A95E1F785E0ECE7F2E2A2EEB8E201902C
S11342D00D928A95E1F785E0E1E8F2E2A7EEB8E213
S11342E001900D928A95E1F7888199818330910537
S11342F019F130F48130910549F0029791F03DC0F5
S11343008430910521F1059769F137C084E390E485
S11343108093EC289093ED288093EE289093EF28D7
S113432036C084E390E48093EC289093ED28809346
S1134330EE289093EF282BC084E390E48093EC283C
S11343409093ED288093EE289093EF2820C084E387
S113435090E48093EC289093ED288093EE2890933A
S1134360EF2815C084E390E48093EC289093ED2823
S11343708093EE289093EF280AC086E390E480931C
S1134380EC289093ED288093EE289093EF286CDF2F
S1134390DF91CF91089548E250E068EC78E280E044
S11343A090E00E94DC128091C8289091C928883C32
S11343B0904119F06EDF81E0089580E008956DEC7E
S11343C078E2B5C5089562EE78E2B1C5089567EE66
S11343D078E2ADC50895BC018DEC98E2A8C50895B6
S11343E0BC0182EE98E2A3C50895BC0187EE98E271
S11343F09EC508952F923F924F925F926F927F9243
S11344008F929F92AF92BF92CF92DF92EF92FF92E0
S11344100F931F93CF93DF93CDB7DEB7CE54D1095B
S1134420CDBFDEBF18A21AA21BA21CA21DA2512C32
S11344306E0126E2C20ED11C7E0130E4E30EF11CB3
S11344408E01055C1F4F0F2EF8EC6F2EF8E27F2EC5
S1134450F02D0F2EF7ED8F2EF2E29F2EF02D5E0140
S113446081E2A80EB11CFE01B4962796EEAFFFAF11
S113447027979E012E5D3F4F29962EAF3FAF299778
S1134480CE014B962B968EAF9FAF2B971E0196E1D4
S1134490290E311CB3972D96EEAFFFAF2D97225006
S11344A031092F962EAF3FAF2F97412CC60187DFDE
S11344B0C70189DFC8018BDF86EA92E250D58FEB12
S11344C092E24DD5F301808191819F938F939F92C6
S11344D08F9234D5D7DE9F938F9383EF92E29F938D
S11344E08F932CD58091CC28CDBFDEBF882319F0C3
S11344F086E892E202C086E992E29F938F938EE06F
S113450093E29F938F931AD5DF92CF9289E293E23D
S11345109F938F9313D5FF92EF9284E493E29F933A
S11345208F930CD51F930F938FE593E29F938F93F3
S113453005D58091EC289091ED289F938F938AE77D
S113454093E29F938F93FAD48091EE289091EF2871
S11345509F938F9385E993E29F938F93EFD480EB9E
S113456093E2FDD481EC93E29F938F93E7D4BF92BF
S1134570AF9287EF93E29F938F931ED5CDBFDEBF9B
S113458089A190E08830910508F0C8C0FC01EC5E78
S1134590FE4F1AC48AEF93E2E2D480E094E2A4EFDF
S11345A0B42D0197A109B1090097A105B105C9F777
S11345B0B1C08FE394E29F938F93C0D42F969FADA5
S11345C02F979F932E96EFAD2E97EF9387EF93E25D
S11345D09F938F93F1D40F900F900F900F900F90A3
S11345E00F9088A1882311F081E088A388A180938B
S11345F0CC2890C086E794E29F938F939FD42D9606
S1134600FFAD2D97FF932C962FAD2C972F9384E914
S113461094E29F938F93D0D4CE010196DCDE0F9069
S11346200F900F900F900F900F9074C089E994E24F
S11346309F938F9383D43F922F9284EC94E29F9321
S11346408F93BAD4C101CCDE0F900F900F900F90CE
S11346500F900F905FC088EC94E29F938F936ED479
S11346602B963FAD2B973F932A968FAD2A978F9326
S113467084EC94E29F938F939FD4CE014B96B5DE46
S11346800F900F900F900F900F900F9043C082EFF8
S113469094E29F938F9352D429969FAD29979F9329
S11346A02896EFAD2897EF9388E195E29F938F9337
S11346B083D48AA19BA18093EC289093ED280F903A
S11346C00F900F900F900F900F9024C08CE195E203
S11346D09F938F9333D42796FFAD2797FF93269606
S11346E02FAD26972F9388E195E29F938F9364D4FF
S11346F08CA19DA18093EE289093EF280F900F90AA
S11347000F900F900F900F9005C0AEDD82E495E2FC
S113471026D407C0552009F4C9CE03C0552009F496
S1134720C5CEC25BDF4FCDBFDEBFDF91CF911F91FE
S11347300F91FF90EF90DF90CF90BF90AF909F903C
S11347408F907F906F905F904F903F902F9008953F
S1134750CF93C82F8A3021F48DE090E00E94AE04FC
S11347608C2F992787FD90950E94AE0480E090E0FD
S1134770CF9108950F931F93CF93DF938C010E94E1
S1134780ED038823E1F30E943904EC01B801E0DF72
S1134790CE019927DF91CF911F910F91089587E062
S11347A0E0EAF0E0828378940E949C050E947D0EEA
S11347B085EF90E28093F3289093F4288093F12876
S11347C09093F2280895CF93DF93CDB7DEB7279760
S11347D0CDBFDEBF1FDB809107218D83809108212F
S11347E08E83809109218F838091032190910421EC
S11347F0A0910521B091062189839A83AB83BC8360
S113480060E185E00E94B512BE016F5F7F4F80EAD0
S11348109AE00E94F20A47DB30DD9F938F931F9248
S11348201F9283EC95E29F938F9388D3B4DDE0E4E9
S1134830F6E080850F900F900F900F900F900F90DF
S113484082FFD8DD2DDADAD9E0E0F6E060E450E06A
S113485049E03DE320E06783852F942FA32FB22FF7
S11348600197A109B1090097A105B105C9F7F3CFD3
S11348705058BB27AA270ED0D4C1C5D130F0CAD115
S113488020F031F49F3F11F41EF4AAC10EF4E09518
S1134890E7FBA0C1E92FD6D180F3BA1762077307EB
S11348A08407950718F071F49EF5EEC10EF4E095B7
S11348B00B2EBA2FA02D0B01B90190010C01CA01D6
S11348C0A0011124FF27591B99F0593F50F4503E81
S11348D068F11A16F040A22F232F342F4427585F73
S11348E0F3CF469537952795A795F0405395C9F78B
S11348F07EF41F16BA0B620B730B840BBAF0915043
S1134900A1F0FF0FBB1F661F771F881FC2F70EC0E1
S1134910BA0F621F731F841F48F4879577956795B4
S1134920B795F7959E3F08F0B3CF9395880F08F09D
S11349309927EE0F9795879508950CD072C16AD187
S113494040F061D130F021F45F3F19F043C15111BF
S11349509CC146C177D198F39923C9F35523B1F388
S1134960951B550BBB27AA2762177307840738F0DA
S11349709F5F5F4F220F331F441FAA1FA9F333D039
S11349800E2E3AF0E0E830D091505040E695001CED
S1134990CAF729D0FE2F27D0660F771F881FBB1FA9
S11349A0261737074807AB07B0E809F0BB0B802D83
S11349B0BF01FF2793585F4F2AF09E3F510568F0CF
S11349C009C163C15F3FECF3983EDCF386957795AC
S11349D06795B795F7959F5FC9F7880F911D9695D1
S11349E0879597F90895E1E0660F771F881FBB1F2D
S11349F0621773078407BA0720F0621B730B840BDA
S1134A00BA0BEE1F88F7E0950895BEE304D008F4CE
S1134A1090E80895BFE322273327A9011BD158F159
S1134A209F5740F1B91738F1BFE3B91B9927B85024
S1134A303AF4660F771F881F991FB395D2F316C0F7
S1134A40B8504AF0232F342F452F562F672F782F35
S1134A508827B850BAF7B85F49F086957795679577
S1134A605795479537952795BA95B9F70EF4BBD066
S1134A7088940895889460E070E0CB010895EAD0AA
S1134A8088F09F5790F0B92F9927B751A0F0D1F033
S1134A90660F771F881F991F1AF0BA95C9F712C0BD
S1134AA0B13081F0F1D0B1E00895EEC0672F782FD6
S1134AB08827B85F39F0B93FCCF386957795679529
S1134AC0B395D9F73EF490958095709561957F4F95
S1134AD08F4F9F4F089597FB0EF485D03EC0E89406
S1134AE009C097FB3EF490958095709561957F4F32
S1134AF08F4F9F4F9923A9F0F92F96E9BB279395E0
S1134B00F695879577956795B795F111F8CFFAF4EF
S1134B10BB0F11F460FF1BC06F5F7F4F8F4F9F4F20
S1134B2016C0882311F096E911C0772321F09EE87E
S1134B30872F762F05C0662371F096E8862F70E0E4
S1134B4060E02AF09A95660F771F881FDAF7880FBE
S1134B509695879597F90895E894F92F96EBFF2396
S1134B6081F0121613061406440B9395F695879557
S1134B707795679557954040FF23B9F71BC0992750
S1134B800895882351F49850D2F7872B762F652FF8
S1134B90542F432F322F20E0B1F3121613061406BC
S1134BA0440B88233AF09A95440F551F661F771FCC
S1134BB0881FCAF755234AF4440F551F11F460FFA8
S1134BC004C06F5F7F4F8F4F9F4F880F96958795D7
S1134BD097F9089597F99F6780E870E060E0089579
S1134BE09FEF80EC08959095809570956095509511
S1134BF04095309521953F4F4F4F5F4F6F4F7F4FFB
S1134C008F4F9F4F089500240A941616170618060E
S1134C100906089500240A941216130614060506BC
S1134C200895092E0394000C11F4882352F0BB0F4D
S1134C3040F4BF2B11F460FF04C06F5F7F4F8F4FB0
S1134C409F4F089557FD9058440F551F59F05F3FEB
S1134C5071F04795880F97FB991F61F09F3F79F09A
S1134C6087950895121613061406551FF2CF46951C
S1134C70F1DF08C0161617061806991FF1CF86959E
S1134C807105610508940895E894BB276627772782
S1134C90CB0197F908950BD0C4CFB5DF28F0BADF64
S1134CA018F0952309F096CF9BCF1124EECFCADFDD
S1134CB0A0F3959FD1F3950F50E0551F629FF0012B
S1134CC0729FBB27F00DB11D639FAA27F00DB11D84
S1134CD0AA1F649F6627B00DA11D661F829F22270D
S1134CE0B00DA11D621F739FB00DA11D621F839F94
S1134CF0A00D611D221F749F3327A00D611D231F6A
S1134D00849F600D211D822F762F6A2F11249F57B7
S1134D1050408AF0E1F088234AF0EE0FFF1FBB1FDA
S1134D20661F771F881F91505040A9F79E3F510579
S1134D3070F050CFAACF5F3FECF3983EDCF386953A
S1134D4077956795B795F795E7959F5FC1F7FE2B24
S1134D50880F911D9695879597F90895AA1BBB1BFB
S1134D6051E107C0AA1FBB1FA617B70710F0A61B67
S1134D70B70B881F991F5A95A9F780959095BC0188
S1134D80CD010895A1E21A2EAA1BBB1BFD010DC083
S1134D90AA1FBB1FEE1FFF1FA217B307E407F507E7
S1134DA020F0A21BB30BE40BF50B661F771F881FC3
S1134DB0991F1A9469F760957095809590959B0159
S1134DC0AC01BD01CF010895EE0FFF1F0590F491D2
S1134DD0E02D0994DF93CF931F930F939A9DF02DA9
S1134DE0219FF00D8B9DF00D8A9DE02DF10D039F09
S1134DF0F00D029FE00DF11D4E9DE00DF11D5E9D35
S1134E00F00D4F9DF00D7F936F93BF92AF925F9320
S1134E104F93D50167D08B01AC01D70163D0EB016F
S1134E20E80FF91FD6011FD02F913F91D6015AD018
S1134E30C60FD71FE81FF91FAF91BF9114D02F9150
S1134E403F9150D0C60FD71FE81FF91FD6014AD093
S1134E50E60FF71F9801BE01CF0111240F911F9196
S1134E60CF91DF9108953ED0460F571FC81FD91F19
S1134E7008F4319608950F93083090F0982F872FF7
S1134E80762F652F542F432F322F22270850F4CF2B
S1134E90220F331F441F551F661F771F881F991F3A
S1134EA00A95B2F70F91089597FB10F8169400082D
S1134EB00F93083098F00850232F342F452F562F86
S1134EC0672F782F892F902DF4CF05949795879588
S1134ED07795679557954795379527950A95AAF736
S1134EE00F910895A29FB001B39FC001A39F700DBD
S1134EF0811D1124911DB29F700D811D1124911DDE
S1134F000895FB01DC0104C08D910190801921F406
S1134F1041505040C8F7881B990B0895FB01DC01F0
S1134F2002C001900D9241505040D8F70895FB0102
S1134F30DC0101900D920020E1F70895A0E0B0E0BB
S1134F40E3EAF7E2C8C5FE01359661917191AF01BC
S1134F508091F3289091F42840D0E2E0D5C50F93D6
S1134F601F93CF93DF93E091F328F091F4282381EA
S1134F7021FF1BC0EC0100E010E089916091F3284F
S1134F807091F428DB011896ED91FC911997882310
S1134F9031F00995892B89F30FEF1FEFEECF8AE0EB
S1134FA00995892B11F4C80102C08FEF9FEFDF919F
S1134FB0CF911F910F910895A0E0B0E0E1EEF7E2E8
S1134FC08AC5FE01359661917191AF018091F128F6
S1134FD09091F22834D3E2E097C5ACE0B0E0E2EF80
S1134FE0F7E269C57C016B018A01FC011682178214
S1134FF0838181FFB0C1CE0101964C01F7019381F9
S1135000F60193FD859193FF81916F01882309F443
S11350109EC1853239F493FD859193FF81916F018F
S1135020853221F4B70190E09AD4E8CF512C312C89
S113503020E02032A0F48B3269F030F4803259F051
S1135040833269F420612CC08D3239F0803339F415
S1135050216026C02260246023C0286021C027FD6F
S113506027C030ED380F3A3078F426FF06C0FAE056
S11350705F9E300D1124532E13C08AE0389E300DEC
S11350801124332E20620CC08E3221F426FD5FC120
S1135090206406C08C3611F4206802C0883641F4BE
S11350A0F60193FD859193FF81916F018111C1CF29
S11350B0982F9F7D9554933028F40C5F1F4FFFE386
S11350C0F9830DC0833631F0833771F0833509F0ED
S11350D057C021C0F801808189830E5F1F4F44248B
S11350E04394512C540114C03801F2E06F0E711C2A
S11350F0F801A080B18026FF03C0652D70E002C0D6
S11351006FEF7FEFC5012C87E1D32C0183012C8540
S11351102F77222E16C03801F2E06F0E711CF801B1
S1135120A080B18026FF03C0652D70E002C06FEF40
S11351307FEFC5012C87BFD32C012C852068222E3C
S1135140830123FC19C0832D90E048165906A0F46E
S1135150B70180E290E003D43A94F5CFF50127FC3F
S1135160859127FE81915F01B70190E0F8D331105A
S11351703A94F1E04F1A51084114510479F7DEC012
S1135180843611F0893631F5F80127FF07C06081B4
S11351907181828193810C5F1F4F08C0608171818E
S11351A0882777FD8095982F0E5F1F4F2F76B22E9C
S11351B097FF09C090958095709561957F4F8F4FAB
S11351C09F4F2068B22E2AE030E0A40113D4A82E09
S11351D0A81843C0853729F42F7EB22E2AE030E088
S11351E025C0F22FF97FBF2E8F36C1F018F4883511
S11351F079F0ADC0803719F0883721F0A8C02F2F7F
S11352002061B22EB4FE0DC08B2D8460B82E09C06F
S113521024FF0AC09F2F9660B92E06C028E030E014
S113522005C020E130E002C020E132E0F801B7FE21
S113523007C060817181828193810C5F1F4F06C01A
S11352406081718180E090E00E5F1F4FA401D2D392
S1135250A82EA818FB2DFF77BF2EB6FE0BC02B2D52
S11352602E7FA51450F4B4FE0AC0B2FC08C02B2D46
S11352702E7E05C07A2C2B2D03C07A2C01C0752CF0
S113528024FF0DC0FE01EA0DF11D8081803311F46D
S1135290297E09C022FF06C07394739404C0822F30
S11352A0867809F0739423FD12C020FF06C05A2C9F
S11352B0731418F4530C5718732C731460F4B70157
S11352C080E290E02C874BD373942C85F6CF731433
S11352D010F4371801C0312C24FF11C0B70180E34A
S11352E090E02C873CD32C8522FF16C021FF03C0FD
S11352F088E590E002C088E790E0B7010CC0822FF7
S1135300867851F021FD02C080E201C08BE227FDC6
S11353108DE2B70190E023D3A51430F4B70180E304
S113532090E01DD35A94F8CFAA94F401EA0DF11D2C
S11353308081B70190E013D3A110F6CF332009F494
S11353405DCEB70180E290E00AD33A94F7CFF7013B
S11353508681978102C08FEF9FEF2C96E2E1C4C350
S113536020FD09C0FC0123FD05C022FF02C0738398
S1135370628351834083089544FD10C046FD10C0EC
S1135380DB01FC01AA0FBB1FEE1FFF1F1094D1F716
S11353906A0F7B1F8E1F9F1F31E003C033E001C0E3
S11353A034E0660F771F881F991F3150D1F7620FC1
S11353B0711D811D911D08950F931F93CF93DF934A
S11353C08C01C8018ED2EC0197FD06C061D2892BF5
S11353D0C1F7B801CE01F5D2CE01DF91CF911F9173
S11353E00F9108958F929F92AF92CF92DF92EF9296
S11353F0FF920F931F93CF93DF93EC01A62E4A01E4
S1135400022F6FD2AC0155274B32510521F04D329A
S1135410510549F40068AA9411F480E060C0CE01FB
S113542060D297FDFACF102F1D7F302F3073F1F427
S11354308033E1F4FF24FA94FA0C09F43DC0CE0160
S113544050D297FD39C0382F3F7D383549F4126466
S1135450AA94AA9489F1CE0144D297FF07C02CC024
S113546006FF02C0126001C01261AF2CC12CD12C06
S1135470760120ED280F283078F014FF03C0BE0118
S1135480A0D217C02A3040F016FFF9CF2F7D3FEE8F
S1135490320F3630A0F72750412FC701B6016CDF19
S11354A06B017C011260AA9451F0CE011AD297FFCD
S11354B0E0CF11FD04C0B1CFC12CD12C760117FF70
S11354C008C0F094E094D094C094C11CD11CE11C99
S11354D0F11C212FB701A601C40142DF81E0DF9155
S11354E0CF911F910F91FF90EF90DF90CF90AF90ED
S11354F09F908F900895A1E2B0E0E0E8FAE2E0C264
S11355005C017A018E010F5F1F4F680180E2D801B0
S11355101D928A95E9F7F501738040E050E0812CF3
S1135520B0E0912C81E090E0F90173FCA59173FE49
S1135530A1918F017A2F9F01A11103C080E090E017
S11355407BC0AE3519F44115510559F1E92DF0E050
S1135550E417F5073CF4AD3569F1AD3219F4BB231A
S113556019F103C0B11101C08A2EE72FE695E69523
S1135570E69586010E0F111DF801A72FA7708C0167
S113558002C0000F111FAA95E2F7D801B081BA2B0F
S1135590B083781559F0781510F47F5FE6CF715019
S11355A0E4CF9924939403C0B1E001C0B0E04F5F0D
S11355B05F4FBACFBB2319F08E8180628E83911026
S11355C003C09924939415C0F601CE0181962081DD
S11355D020952193E817F907D1F7F3CFE114F104EB
S11355E029F0D7018C93F70131967F016150F1F0D6
S11355F0912CC50169A375D169A197FD15C0282F08
S1135600269526952695F601E20FF11D208130E0BE
S1135610AC014770552702C0359527954A95E2F7A6
S113562020FDDCCFB501CDD1911088CFE114F10478
S113563011F0D7011C92C801A196EDE05AC24F9215
S11356405F927F928F929F92AF92BF92CF92DF929E
S1135650EF92FF920F931F93CF93DF931F92CDB7D7
S1135660DEB78C012B017A01FC0116821782A12C72
S1135670F801D380F201D3FC8591D3FE8191382FB8
S11356802F01882309F4EEC090E0398301D13981D8
S1135690892B19F0C80190DEEBCF353241F4F201C9
S11356A0D3FC3591D3FE31912F01353259F4C80121
S11356B0398317D1398197FDD3C03817C9F2B8019E
S11356C080D1D0C03A3241F4D3FC3591D3FE31912C
S11356D02F01BB24B39401C0B12C712C20ED230FF6
S11356E02A3088F4FB2DF260BF2E672D70E080E035
S11356F090E040E241DE762EF201D3FC3591D3FEF8
S113570031912F01EBCFB1FE03C0711003C0AAC0C9
S113571077247A94383619F03C3661F014C0F201DB
S1135720D3FC3591D3FE31912F01383661F4FB2D32
S1135730F860BF2E8B2D8460B82EF201D3FC359116
S1135740D3FE31912F01332309F48CC0632F70E011
S113575088E392E03983A4D03981892B09F482C08B
S1135760B0FC07C0F701C080D180C70102967C015C
S113577002C0C12CD12C3E3649F4F8014681578130
S113578060E070E02B2DC601EBDD72CF333699F467
S1135790B1FC02C077247394C801A3D097FD60C004
S11357A0C114D10429F0F6018083C60101966C016D
S11357B07A9491F751C03B3551F49201A601672DBB
S11357C0C80199DE2C01009709F046C040C0C80109
S11357D03983F2DD398197FD43C03F3651F128F416
S11357E0343619F1393661F128C0333769F0353769
S11357F0E1F023C0C114D10429F0F6018082C6016E
S113580001966C017A9459F0C8016BD04C0197FD54
S113581006C03ED0892B71F3B801C401D2D0C114A3
S1135820D104D1F0F601108217C0FB2DF062BF2E17
S113583007C08B2D8061B82E03C09B2D9064B92EB8
S11358402B2DA601672DC801CDDD811105C0F801FE
S11358508381807329F406C0B0FC0ACFA39408CFD7
S1135860AA2019F08A2D90E002C08FEF9FEF0F90CD
S1135870DF91CF911F910F91FF90EF90DF90CF9028
S1135880BF90AF909F908F907F905F904F900895BE
S113589091110EC1803219F089508550D0F70895C6
S11358A0FC010590061621F00020D9F7C0010895E7
S11358B03197CF010895FC010590615070400110AB
S11358C0D8F7809590958E0F9F1F0895FC01615025
S11358D0704001900110D8F7809590958E0F9F1F0E
S11358E00895CF93DF93EC012B8120FF33C026FF73
S11358F00AC02F7B2B838E819F8101968E839F8389
S11359008A8190E029C022FF0FC0E881F98180815B
S1135910992787FD9095009719F420622B831AC06C
S11359203196E883F9830EC0EA85FB85099597FFD4
S113593009C02B81019611F480E101C080E2822B21
S11359408B8308C02E813F812F5F3F4F2E833F837F
S1135950992702C08FEF9FEFDF91CF9108950F93A6
S11359601F93CF93DF93182F092FEB018B8181FDB8
S113597003C08FEF9FEF20C082FF10C04E815F8174
S11359802C813D81421753077CF4E881F9819F0102
S11359902F5F3F4F28833983108306C0E885F9853C
S11359A0812F0995892B29F72E813F812F5F3F4F46
S11359B02E833F83812F902FDF91CF911F910F91E1
S11359C00895FB01238120FF12C026FD10C08F3FE4
S11359D03FEF930761F082832F7D20642383268128
S11359E037812150310926833783992708958FEF12
S11359F09FEF0895FA01AA27283051F1203181F14F
S1135A00E8946F936E7F6E5F7F4F8F4F9F4FAF4FC2
S1135A10B1E03ED0B4E03CD0670F781F891F9A1FD5
S1135A20A11D680F791F8A1F911DA11D6A0F711D89
S1135A30811D911DA11D20D009F468943F912AE095
S1135A40269F11243019305D3193DEF6CF0108957D
S1135A50462F4770405D4193B3E00FD0C9F7F6CFAE
S1135A60462F4F70405D4A3318F0495D31FD405276
S1135A70419302D0A9F7EACFB4E0A695979587950C
S1135A8077956795BA95C9F70097610571050895EB
S1135A909B01AC010A2E0694579547953795279597
S1135AA0BA95C9F7620F731F841F951FA01D08952F
S1135AB09927882708952F923F924F925F926F9271
S1135AC07F928F929F92AF92BF92CF92DF92EF928A
S1135AD0FF920F931F93CF93DF93CDB7DEB7CA1B0B
S1135AE0DB0BCDBFDEBF09942A88398848885F84E0
S1135AF06E847D848C849B84AA84B984C884DF806A
S1135B00EE80FD800C811B81AA81B981CE0FD11D4D
S10F5B10CDBFDEBFED010895F894FFCF77
S1135B1C8A0304020E0210022603C601FE011202BD
S1135B2C1002000000030000000000000000000050
S1135B3C00004F6E65506F7300416772756D000005
S1135B4C0403090486203A20000042203E200A2047
S1135B5C002009024300020100C0320904000001C4
S1135B6C020201000524001001042402020524068B
S1135B7C00010524010301070582034000100904F8
S1135B8C0100020A0000000705810240000007051D
S1135B9C0202400000001201000202000040EB036C
S1135BAC04240001010203015128418800CADE5774
S1135BBC41564523000000000000000000000000D6
S1135BCC0000418800CADE5645574110020000000F
S1135BDC00418800CADE57415645210000020000EE
S1135BEC0002000000080000000200000009000090
S1135BFC000900000001000000000000000000008B
S1135C0C00210400000000000300000000A823BAD7
S1135C1C23000000C2010003000031324546004954
S1135C2C4E4954204641494C4544005374657020F8
S1135C3C300053746570203100256C58256C582045
S1135C4C767320256C58256C58200A004457545FF1
S1135C5C4552524F52005374657020320053746590
S1135C6C7020330031323331333225730A00444906
S1135C7C53543A202564206D6D0A004661696C65A5
S1135C8C64206D656D636D702872785F62756666ED
S1135C9C65722C2072785F66696E616C5F6D7367D8
S1135CAC2C20414C4C5F4D53475F434F4D4D4F4E51
S1135CBC5F4C454E29203D3D2030200053746570C7
S1135CCC2033206661696C6564000000985998590A
S1135CDCEA518E421E45142E0080EA51F4283233C8
