S00E00004F6E65506F732E73726563C2
S113000013C100002EC100002CC100002AC1000051
S113001028C1000026C1000024C1000022C1000044
S113002020C100001EC100001CC100001AC1000054
S113003018C100000C94940914C1000012C10000FE
S113004010C100000EC100000CC100000AC1000074
S113005008C1000006C1000004C1000002C1000084
S113006000C10000FEC00000FCC00000FAC0000097
S1130070F8C00000F6C00000F4C00000F2C00000A8
S1130080F0C00000EEC00000ECC00000EAC00000B8
S1130090E8C00000E6C00000E4C00000E2C00000C8
S11300A0E0C00000DEC00000DCC00000DAC00000D8
S11300B0D8C00000D6C000000C94B709D2C000001C
S11300C0D0C00000CEC00000CCC00000CAC00000F8
S11300D0C8C00000C6C00000C4C00000C2C0000008
S11300E0C0C00000BEC00000BCC00000BAC0000018
S11300F0B8C00000B6C00000B4C00000B2C0000028
S1130100B0C00000AEC00000ACC00000AAC0000037
S1130110A8C00000A6C00000A4C00000A2C0000047
S1130120A0C000009EC000009CC000009AC0000057
S113013098C0000096C0000094C0000092C0000067
S113014090C000008EC000008CC000008AC0000077
S113015088C0000086C0000084C0000082C0000087
S113016080C000007EC000007CC000007AC0000097
S113017078C0000076C0000074C0000072C00000A7
S113018070C000006EC000006CC000006AC00000B7
S113019068C0000066C0000064C0000062C00000C7
S11301A060C000005EC000005CC000005AC00000D7
S11301B058C0000056C0000054C0000052C00000E7
S11301C050C000004EC000004CC000004AC00000F7
S11301D048C0000046C0000044C0000042C0000007
S11301E040C000003EC000003CC000003AC0000017
S11301F038C000000C94BA100C947011CE0CBC0CD6
S1130200BF0CC20CC50CC80CCB0C0117FC1606178E
S11302102B172B172B172B170B1713172B172B1702
S11302201A171E172217271711241FBECFEFCDBF91
S1130230DFE2DEBF13E2A0E0B0E2E6EBF6E402C0E8
S113024005900D92AA35B107D9F726E2AAE5B3E2E3
S113025001C01D92A339B207E1F70E948C1E0C94D1
S11302605923CECECF93DF93EC01C03C28E0D207D4
S113027029F468E083E00E94A71207C0803C9940FB
S113028021F468E084E00E94A71288818061888359
S1130290DF91CF910895FF920F931F93CF93DF9334
S11302A0EC01F42EB901A80100E01CE62CED32E0CB
S11302B056D788234CF088819F2D990F990F9C70F5
S11302C0837FF92EF82AF882DF91CF911F910F9145
S11302D0FF900895FC01DB01460F571F05C08D9167
S11302E0838382818823ECF7A417B507C1F780E0E4
S11302F00895FC01DB014115510561F0460F571FBC
S11303009FEF938382818823ECF783818D93A417D5
S1130310B507B9F780E00895FB018081E82FE695E1
S1130320E695E69540E2E49FF0011124FA5F8770B8
S113033021E030E0A90102C0440F551F8A95E2F77D
S113034046830895FB018081E82FE695E695E695BE
S113035040E2E49FF0011124FA5F877021E030E06D
S1130360A90102C0440F551F8A95E2F745830895F9
S11303701092702410927C2410927D2481EA809340
S1130380722480E280937324109274241092752452
S1130390109276241092772482E090E0809378245F
S11303A09093792410927A2410927B2480E092EC2A
S11303B0A1E0B0E080937E2490937F24A0938024D6
S11303C0B0938124109282241092832488E0809335
S11303D08424809170248F5F8093702481E0089539
S11303E080917024815080937024089580916F24AB
S11303F0815080936F2480916F2410926E2408950D
S113040080E0089580E00895809176268823DCF4C6
S113041080768032E9F5809177268132D9F5809112
S11304207C2690917D260797B9F58EE794E2809318
S11304307E2690937F2687E090E080938026909399
S1130440812681E008958076803241F58091772677
S1130450803221F0823221F581E0089580917C265A
S113046090917D260797F1F484E592E080938226AB
S1130470909383268EE794E280937E2690937F2642
S113048087E090E0809380269093812681E0089510
S113049080E0089580E0089580E0089580E0089564
S11304A080E0089580E008950895FF920F931F93CC
S11304B0CF93DF9380915D2381119CC00E94FC0E39
S11304C0882351F0C0915E23D0915F230E94090FCD
S11304D0C817D90759F48EC0C0915E23D0915F2309
S11304E00E94040FC817D90709F484C0DFB7F89431
S11304F0C0916023EC2FF0E0EE0FFF1FEF59FC4D8D
S113050080819181892B09F580915A2390915B23F5
S1130510019680935A2390935B230E94FC0E8111D1
S113052007C080915A2390915B238436910558F03B
S11305300E94FC0E882349F080915A2390915B23FA
S11305408032934010F4DFBF55C010925A231092AA
S11305505B2380915C23811106C081E0C11180E09E
S11305608093602304C081E0C11180E0C82F81E042
S113057080935D23DFBFD0E0FE01EE0FFF1FEF5934
S1130580FC4DFF24F394808191818034910509F41A
S1130590F12CFF2091F00E94FC0E882339F00E9478
S11305A0090F80935E2390935F230BC00E94040F76
S11305B080935E2390935F2304C010925E23109275
S11305C05F23FE01EE0FFF1FEF59FC4D20813181A7
S11305D0AE01002456954795079456954795079480
S11305E0542F402D4A595C4D00E013E06F2D81E8F3
S11305F00E94BB0FDF91CF911F910F91FF9008953F
S1130600811115C02091602381E090E0222311F034
S113061080E090E0FC01EE0FFF1FEF59FC4D1082CB
S1130620118210925C2310925D2380E03ECF0895E6
S113063080E03BCF08954FB7F8942091E7233091A1
S1130640E823E091E923F0E0EE0FFF1FE651FC4DB3
S113065080819181821B930B4FBF0895ECDF21E0D1
S1130660892B09F420E0822F08950F931F93CF93D1
S1130670DF934FB7F8945091E9238091E6238111D9
S113068010C02091E7233091E823C52FD0E0FE016C
S1130690EE0FFF1FE651FC4D808191812817390729
S11306A018F44FBF80E023C01092E7231092E82390
S11306B081E0511180E08093E92381E08093E62377
S11306C04FBF80E0CBDFAE010024569547950794D9
S11306D0569547950794542F402D42515C4D0EEA90
S11306E013E020E430E061E082E00E94BB0FDF9180
S11306F0CF911F910F91089510926F2410925D2352
S113070010925C2310926023109261231092622352
S1130710109263231092642310925E2310925F233D
S113072080E0C3DE1092E6231092E9231092EA23BC
S11307301092EB231092E7231092E82380E095DFD8
S1130740882359F090916F249F5F90936F24909128
S11307506F24913011F490936E2408950F931F9396
S1130760942F811129C08091E923E1E08111E0E017
S113077061157105B1F4F0E00024F695E79507944E
S1130780F695E7950794FE2FE02DAF0142515C4D9D
S11307900EEA13E020E430E061E0892F0E94BB0FF1
S11307A00BC0F0E0EE0FFF1FE651FC4D6083718338
S11307B01092E62380E059DF1F910F91089580E0A5
S11307C04DCF08951F93CF93DF9311E0809184243C
S11307D0893009F010E060E070E03FB7F894809150
S11307E0E7239091E8232091E9233FBF30E0F9010A
S11307F0EE0FFF1FE651FC4D408151818417950790
S113080030F080916E248111E8CF90E020C0F9018E
S11308100024F695E7950794F695E7950794FE2F3F
S1130820E02DE80FF91FE251FC4D2081EB01C22BB2
S113083001968093E7239093E82380E016DF112349
S113084021F07C2F662710E0C8CF8C2F9D2FDF91DD
S1130850CF911F91089580E0B5CF08959FB7F89484
S113086080916023E82FF0E0EE0FFF1FEF59FC4D5D
S1130870208131812034310589F440915D23411177
S11308800DC040915C23411109C021E020935C23F9
S1130890811120E02093602320E030E09FBF80E4BA
S11308A090E0821B930B0895D9DF21E0892B09F492
S11308B020E0822F08951F93CF93DF93162FC72F25
S11308C0D1E080918424893009F0D0E080E0ECDF2D
S11308D0811107C080916E248111F8CF80E090E0EF
S11308E02BC06FB7F8942091602330E0F901EE0F2C
S11308F0FF1FEF59FC4D80819181AC014F5F5F4F29
S113090040835183F9010024F695E7950794F69501
S1130910E7950794FE2FE02D8E0F9F1FFC01EA59E7
S1130920FC4D10836FBFDD2329F01C2FCC0FCC0BA3
S1130930D0E0CCCF81E090E0DF91CF911F9108957A
S1130940BC0180E0B8CF0895E0918A24F0918B2413
S11309500190F081E02D228133812E0F3F1FFC0195
S11309604081E40FF11DE217F307A0F48181843084
S1130970A1F0861306C014C081818430A1F08617CB
S1130980A9F08081E80FF11DE217F307A8F380E0D6
S113099090E0089580E090E0089580E090E008956C
S11309A08E2F9F2F089580E090E008958E2F9F2F23
S11309B00895809178268F770C94FE0E0895909177
S11309C08C24992381F1E0918A24F0918B24019065
S11309D0F081E02D9481891740F5E0938824F09309
S11309E08924228133812E0F3F1FE217F307F8F485
S11309F09181943061F49281981309C09381961384
S1130A0006C0E0938824F093892481E008959081BE
S1130A10E90FF11DE217F30758F3E0938824F093EC
S1130A20892480E0089580E0089580E0089580E0BE
S1130A300895FF920F931F93CF93DF93C82F60E025
S1130A40BEDFF82E882381F1A0918A24B0918B24F3
S1130A50EC2FF0E0EE0FFF1F12962D913C911397AF
S1130A60E20FF31F00811181D8011696ED91FC91DC
S1130A7017970995682F8C2FA2DFF82E8823A1F0F1
S1130A80C0918824D091892465E0CE015DDFEC011A
S1130A90009721F08A810E947C10F6CFD80112962B
S1130AA0ED91FC91139709958F2DDF91CF911F91B3
S1130AB00F91FF9008951F93CF93DF93182F7FDF3B
S1130AC0882341F1C0918824D091892465E0CE0126
S1130AD03BDFEC01009749F04C815D816B818A8199
S1130AE00E94150F8111F2CF15C0A0918A24B091F4
S1130AF08B24812F90E0880F991F1296ED91FC9121
S1130B001397E80FF91F0190F081E02D0190F08117
S1130B10E02D0995DF91CF911F9108950C94920EC9
S1130B200895CF9380918C248823C1F0E0918A2486
S1130B30F0918B240190F081E02D8481882371F061
S1130B40C0E08C2F76DFCF5FE0918A24F0918B2474
S1130B500190F081E02D8481C81798F310928C24C1
S1130B6081E090E08093902490939124CF91089514
S1130B70CF9380918C24882341F1E0918A24F091D1
S1130B808B24A081B18114968C918823F1F0C0E06C
S1130B908C2F90E0880F991F0280F381E02DE80FDD
S1130BA0F91F0190F081E02D0084F185E02D30974C
S1130BB009F00995CF5FE0918A24F0918B24A081FC
S1130BC0B18114968C91C81718F3CF910895EF92C0
S1130BD0FF920F931F93CF93DF931092802610926E
S1130BE081261092822610928326109284261092D7
S1130BF085262091762622230CF097C280917C26AC
S1130C0090917D26009709F095C28BC22F7109F04F
S1130C10B9C030917726363089F0383009F4A6C04F
S1130C203111B0C0029741F462E070E080E994E2CF
S1130C300E940C0F01E0F8C100E0F6C12091782673
S1130C4030917926832F992782309105A1F01CF4E5
S1130C50019739F081C083309105F1F10F9769F163
S1130C607BC08091342090913520DC016C9170E040
S1130C700E940C0F60C0E0913420F09135208189EE
S1130C80281708F06BC0C9019927880F991F880F8E
S1130C90991FE0913620F0913720E80FF91F8081E9
S1130CA09181FC01628173810E940C0FE0917E2688
S1130CB0F0917F2682E081833EC08091382090911C
S1130CC03920009709F44CC0DC0112966D917C9197
S1130CD013970E940C0F2FC033272130310589F060
S1130CE048F02230310509F42AC22330310509F4D1
S1130CF02AC238C064E070E080E390E20E940C0FE6
S1130D001AC089E290E225E0382FA6E1B0E2E82F8C
S1130D10F92F819190E08D939D938E2F831B8217E1
S1130D20C0F3220F62E0620F6093142070E084E14C
S1130D3090E20E940C0F80917C2690917D26209158
S1130D408026309181268217930770F48093802641
S1130D509093812601E068C100E066C100E064C1AF
S1130D6000E062C100E060C101E05EC1019741F4AE
S1130D7061E070E08CE894E20E940C0F01E054C141
S1130D8000E052C1213009F040C0309177263A305A
S1130D90E1F50197A1F580918C24882391F1C0910C
S1130DA07A26D0917B26E0908A24F0908B24D70178
S1130DB0ED91FC918481C81730F560E08C2FFFDD44
S1130DC0082F882309F430C1CE019927880F991F71
S1130DD0D7011296ED91FC911397E80FF91F01903A
S1130DE0F081E02D0680F781E02D099580938E2413
S1130DF061E070E08EE894E20E940C0F15C100E0FF
S1130E0013C100E011C100E00FC1223009F00EC18E
S1130E1020917726211103C1029781F480917A26CB
S1130E200E94760F90E0809386249093872462E05A
S1130E3070E086E894E2F0D701E0F6C000E0F4C088
S1130E402F7109F090C080917726833009F4E9C0AE
S1130E5018F48130B1F087C0853019F0893061F120
S1130E6082C080917C2690917D26892B41F489ED66
S1130E7094E0809382269093832601E0D5C000E01D
S1130E80D3C080917C2690917D26892B89F4809112
S1130E90782690917926019769F480919024909115
S1130EA091248D7F809390249093912401E0BCC081
S1130EB000E0BAC000E0B8C080917C2690917D2605
S1130EC0892B09F046C09DD7882309F444C020919A
S1130ED07826309179263327E0913420F09135201B
S1130EE0818990E082179307C0F11BDE80917826F8
S1130EF09091792680938C24882389F199278150B5
S1130F00904C880F991F880F991FE0913620F0911B
S1130F103720E80FF91FE0938A24F0938B24019083
S1130F20F081E02D84818823E1F0C0E060E08C2F23
S1130F30C2DD082F882309F477C0CF5FE0918A24AB
S1130F40F0918B240190F081E02D8481C81770F317
S1130F506BC000E069C000E067C000E065C001E06C
S1130F6063C001E061C0213009F5809177268B30A0
S1130F70E9F480917C2690917D26892B99F48091C7
S1130F808C24882389F0C0917A26D09178268C2FDE
S1130F9050DD082F882309F447C06D2F8C2F8BDD7B
S1130FA0082F42C000E040C000E03EC0223009F0FB
S1130FB03DC080917726813019F08330B1F033C081
S1130FC080917C2690917D26892B59F480917826F6
S1130FD090917926892B39F480917A26A2D7082F0B
S1130FE023C000E021C000E01FC080917C269091C6
S1130FF07D26892B81F48091782690917926892BFE
S113100061F4CAE7D6E288810E94431088810E9475
S11310109910082F09C000E007C000E005C000E0F7
S113102003C000E001C000E0011191C08091762668
S11310308F718130C1F580918C248823A1F1C091F6
S11310407A26D0917B2600918A2410918B24D80192
S1131050ED91FC918481C81730F560E08C2FAFDCF2
S1131060882309F1CE019927880F991FD801129678
S1131070ED91FC911397E80FF91F00811181D801BC
S11310801696ED91FC9117970995682F8C2F97DC94
S1131090882349F0D8011496ED91FC911597099590
S11310A0082F811154C0809176268F718230D9F532
S11310B080918C24882389F1E0918A24F0918B24F7
S11310C0A081B18114968C91882349F110E0212FDD
S11310D030E0220F331F0280F381E02DE20FF31F73
S11310E0C081D181EE81FF810995682F812F67DC52
S11310F0082F882361F1EC81FD810995082F811166
S113110026C01F5FE0918A24F0918B24A081B181D5
S113111014968C911817D8F21AC000E018C000E099
S113112016C000E014C000E012C0822F807609F0DF
S11311307DCF86CE322F307609F078CF67CD26E08A
S113114082E290E2E1CD24E08EED90E2DDCD802FCD
S1131150DF91CF911F910F91FF90EF900895CF925F
S1131160DF92EF92FF920F931F93CF93DF93EC01E3
S11311706A017B01DB01CA010197A109B109BC0124
S1131180CD01600F711F821F931FA70196010E945A
S1131190F01F2138310541055105F8F4213460F47C
S11311A0213260F4213160F4293060F4253060F498
S11311B0233060F090E00BC093E009C092E007C0D8
S11311C092E805C091E003C091E801C090E88881ED
S11311D08C77892B888381E001C08FEFDF91CF91D9
S11311E01F910F91FF90EF90DF90CF900895CF93D0
S11311F0DF93E0919224F0919324848183FF08C0CB
S11312008860848383E0838386EF80939C2489C0F1
S1131210982F947131F083E083838FEF80939C2423
S113122080C086FF45C0A0919424B09195248091FC
S113123096249091972414962D913C91159782179A
S113124093076CF49C012F5F3F4F209396243093B7
S11312509724A80FB91F11968C91878362C080913F
S113126098249091992418962D913C91199782175E
S11312709307C8F420919A24222321F08681816067
S113128086834FC016962D913C911797AC014F5F02
S11312905F4F4093982450939924D901A80FB91F04
S11312A08C9187833EC083E0838310929C2439C051
S11312B08823A4F5A0919424B09195248091982436
S11312C09091992418962D913C9119978217930720
S11312D0F8F416964D915C9117979C012F5F3F4F40
S11312E020939824309399246781EA01C80FD91F69
S11312F0688318968D919C9119972817390718F4CB
S113130082E083830EC087E0838310929C2409C00B
S113131083E0838389EF80939C2403C08BEF8093C5
S11313209C24DF91CF9108951F920F920FB60F92D4
S113133011242F933F934F935F936F937F938F93D6
S11313409F93AF93BF93EF93FF9351DFFF91EF917F
S1131350BF91AF919F918F917F916F915F914F91C9
S11313603F912F910F900FBE0F901F9018951F92D1
S11313700F920FB60F9211242F933F934F935F93C5
S11313806F937F938F939F93AF93BF93EF93FF9349
S11313902EDFFF91EF91BF91AF919F918F917F913C
S11313A06F915F914F913F912F910F900FBE0F90CE
S11313B01F9018954F925F926F927F928F929F9297
S11313C0AF92BF92CF92DF92EF92FF920F931F934F
S11313D0CF93DF93EC014A015B0128013901D90164
S11313E0C801689412F8B695A795979587951694B1
S11313F0D1F7B901A801032E36E176956795579583
S113140047953A95D1F7302D2C8122FD08C0B69529
S1131410A7959795879576956795579547958815D8
S11314209905AA05BB0508F4A6C084169506A60668
S1131430B70608F4A2C08C8182FD04C0880C991CF4
S1131440AA1CBB1CC301B201A50194010E94F01F98
S11314502F3F31054105510508F491C0C12CD12C11
S11314607601CA9419EF05C02C153D054E055F059C
S113147068F0CC0CDD1CEE1CFF1C1D3F14F46894BA
S1131480C0F81F5F173081F7212F50C0212F11237F
S11314900CF04CC0D501C401880F991FAA1FBB1FB3
S11314A0880F991FAA1FBB1F880F991FAA1FBB1F54
S11314B0481A590A6A0A7B0A1E3FF4F46DEF7FEF5B
S11314C0611B710917FD739504C0440C551C661CFF
S11314D0771C6A95D2F7D501C401B695A79597955F
S11314E08795BC01CD01640D751D861D971DA50151
S11314F094010E94F01F36C023E0210FD501C401DE
S113150004C0880F991FAA1FBB1F2A95D2F79C01FC
S1131510AD01B695A79597958795BC01CD01640D4E
S1131520751D861D971D0E94F01F1CC02D5FD501DF
S1131530C40104C0880F991FAA1FBB1F2A95D2F7A4
S11315409C01AD01B695A79597958795BC01CD01F2
S1131550640D751D861D971D0E94F01F21503109D1
S113156041095109832F8F701295107F182B1F8307
S11315702E8381E018C080E016C080E014C0D5013D
S1131580C401880F991FAA1FBB1F880F991FAA1F88
S1131590BB1F880F991FAA1FBB1F481A590A6A0A42
S11315A07B0A19EF8BCFDF91CF911F910F91FF90A1
S11315B0EF90DF90CF90BF90AF909F908F907F90EF
S11315C06F905F904F9008950F931F93CF93DF9385
S11315D0EC018B01009709F4BEC0803C910521F415
S11315E060E180E0B4D7B7C0C11584E0D80721F426
S11315F064E080E0ACD7AFC0C038E1E0DE0721F49E
S113160062E080E0A4D7A7C0C115F1E0DF0721F4B0
S113161061E080E09CD79FC0C03883E0D80721F404
S113162061E081E094D797C0C115E2E0DE0721F4C0
S113163062E081E08CD78FC0C032F3E0DF0721F491
S113164064E082E084D787C0C11588E0D80721F41C
S113165061E083E07CD77FC0C115E9E0DE0721F4B7
S113166061E084E074D777C0C115FAE0DF0721F4A4
S113167061E085E06CD76FC0C03488E0D80721F4FE
S113168062E083E064D767C0C034E9E0DE0721F498
S113169062E084E05CD75FC0C039F8E0DF0721F482
S11316A064E083E054D757C0C03989E0D80721F4F7
S11316B064E084E04CD74FC0C039EAE0DE0721F48F
S11316C064E085E044D747C0C03CF8E0DF0721F47C
S11316D068E083E03CD73FC0C03C89E0D80721F4F0
S11316E068E084E034D737C0C03AE8E0DE0721F48C
S11316F060E183E02CD72FC0C03AF9E0DF0721F482
S113170060E184E024D727C0C03A8AE0D80721F4F6
S113171060E185E01CD71FC0C03BE8E0DE0721F490
S113172060E283E014D717C0C03BF9E0DF0721F47F
S113173060E284E00CD70FC0C03884E0D80721F4FD
S113174060E483E004D707C0C03AE4E0DE0719F49C
S113175060E485E0FCD68D818F738D83F8019481DC
S11317608581892B9681992311F098E001C090E03E
S1131770892B8D83F801408151816281738100E05E
S11317801CE62CED32E0CE0115DE9C8198609C8332
S11317909C8190619C83DF91CF911F910F9108955B
S11317A0811118C09091C825992389F09FB7F894A6
S11317B0E7E8F6E22081215020839FBF08C09FB74D
S11317C0F894E7E8F6E220812F5F20839FBF80939F
S11317D0C82508959091C825992389F3F8CF0F93CC
S11317E0E8ECF4E080818F7D808380818F7D80832D
S11317F0ECE9F5E202E0059310929E2510929F25F4
S113180000E2069300E40693E4E9F5E200E20693BD
S113181000E4069310928226109283261092842666
S11318201092852610928026109281261092862589
S11318300F9108950F9385E080938625EDE9F5E2F5
S113184004E00593E5E9F5E204E005930F910895BA
S11318500F9383E08093862510929E2510929F25F6
S1131860ECE9F5E202E006930F910895E0918226F7
S1131870F0918326309709F0099508950F93CF933B
S1131880DF9380918625833019F4F0DFA8DF60C0F0
S11318908091822590918325C0918026D0918126C4
S11318A0C81BD90B71F52091842530918525820FB1
S11318B0931F809384259093852520917C263091D5
S11318C07D268217930721F080919D24882341F07F
S11318D084E080938625E4E9F5E202E0069338C0CB
S11318E0E0918426F0918526309799F00995882314
S11318F081F01092822510928325C0918026D09188
S11319008126C034D10528F010929D24C0E4D0E093
S113191003C081E080939D24C0939E25D0939F258E
S1131920809182259091832520917E2630917F2677
S1131930280F391F2093A0253093A125C80FD91F44
S1131940C0938225D0938325ECE9F5E202E0069367
S1131950DF91CF910F910895FC018181877090E010
S1131960FC013197E730F10520F4E250FF4F0C946D
S1131970122088E090E0089580E290E0089580E4E9
S113198090E0089580E890E0089580E091E0089563
S113199080E092E008958FEF93E0089580E190E075
S11319A00895282F2F7030E0220F331F992787FDC9
S11319B090958827990F881F9927820F931F029764
S11319C09C01220F331F220F331F220F331F820F5C
S11319D0931F825E9A4D08950F93CF938091CC0408
S11319E080FF62C081E08093CC04E4E9F5E200E882
S11319F00693ECE9F5E200E806938093CA04E4E96F
S1131A00F5E200E1069380918625882329F083502E
S1131A10823008F42BDFE3DE8091962590919725A0
S1131A20089709F043C088E0E2E4F5E2A6E7B6E2ED
S1131A3001900D928A95E1F7E8ECF4E080818062F0
S1131A408083808180628083C2D8C82F811103C0C3
S1131A50F1DEC1E02CC08091762688236CF41092CC
S1131A60842510928525109282251092832582E088
S1131A708093862503DF1BC020917C2630917D2630
S1131A80232B11F4E5DE13C01092842510928525D2
S1131A90109282251092832581E080938625E4E9C3
S1131AA0F5E202E0069303C0C0E001C0C1E08C2F60
S1131AB0CF910F910895BF92CF92DF92EF92FF9250
S1131AC00F931F93CF93DF93B82E6BDFEC011B2D85
S1131AD0111F1127111F8B2D8F70E82EF12CEE0C86
S1131AE0FF1CE10EF11CC701880F991F880F991F75
S1131AF0880F991F9C012C563A4D7901C9012CDF9E
S1131B006C01112309F45BC0D70116962D913C9109
S1131B1017978D819E81280F391F2D833E838B81DA
S1131B209C8128173907C9F1FC01E21BF30B9F01C3
S1131B302115F4E03F0740F02FEF33E0C901B6016F
S1131B400E94DC1F281B390B888181FF0AC0C90150
S1131B50B6010E94DC1F41E0892B09F040E0942F7C
S1131B6001C090E0888190FB81F98883D7011696A3
S1131B701D921C92179712962D933C9313972981CB
S1131B803A818D819E81820F931F14968D939C932D
S1131B901597F70102E0069398C0888181FF87C0FA
S1131BA08D7F8883D70116961D921C9217971296E3
S1131BB01D921C921397F70102E0069386C0D70189
S1131BC012960D911C911397888182FF15C0E981AB
S1131BD0FA812D813E818B819C81B6010E94DC1F9C
S1131BE0B0E4BB9EB0011124625A7B4DAC01CF011D
S1131BF0820F931F0E9478202D813E81200F311F78
S1131C002D833E83EB81FC81E217F30710F4ED830F
S1131C10FE83D70116968D919C9117978017910793
S1131C2009F045C08D819E81E817F90709F43FC08A
S1131C30E81BF90BE115B4E0FB0748F0EFEFF3E024
S1131C40CF01B6010E94DC1FE81BF90B06C0CF01CF
S1131C50B6010E94DC1FE81BF90BD70112961D92F6
S1131C601C921397EC15FD0578F4888184608883B1
S1131C70B0E4BB9EC0011124825A9B4DF7018483BA
S1131C809583C682D7820FC029813A818D819E8136
S1131C90820F931FD70114968D939C9315971696D4
S1131CA0ED93FC931797F70102E006930EC0888129
S1131CB080FF0BC08E7F8883EF81F885309729F0F1
S1131CC06D817E814B2D80E00995DF91CF911F912D
S1131CD00F91FF90EF90DF90CF90BF900895CF9336
S1131CE0CFB7F89481E05CDDEAECF4E080E4808333
S1131CF080E28083E1ECF4E0808181608083A9EC60
S1131D00B4E08C9182608C93E8ECF4E08081806490
S1131D1080838C9181608C93808180688083CFBF25
S1131D20CF910895CF9380E31ED4E0ECF4E080815A
S1131D3080648083CFB7F8941092952510929D25E6
S1131D401092A5251092AD251092B5251092BD25AF
S1131D50EEE1F5E280818E7F8083E7E2F5E2808127
S1131D608E7F8083E0E3F5E280818E7F8083E9E3E8
S1131D70F5E280818E7F80836AE170E082E00ED498
S1131D808F3F19F08093FA0403C08FE18093FA0423
S1131D906BE170E082E002D48F3F19F08093FB0482
S1131DA003C08FE18093FB04E0ECF4E08081826067
S1131DB0808380818068808380818061808384E9DE
S1131DC095E2868397838081806280838FEF8093FE
S1131DD0C504E8ECF4E08081816080831092C8251A
S1131DE08FB7F894EBE8F6E290819F5F90838FBF02
S1131DF076DFCFBFCF91089580E008958093C30428
S1131E0008958091C30408958091C4259091C525B7
S1131E10089580E090E0089580937E2690937F2635
S1131E2060938026709381260895E82FEF70F0E088
S1131E30EE0FFF1F992787FD90958827990F881F1C
S1131E409927E80FF91FEE0FFF1FEE0FFF1FEE0F8C
S1131E50FF1FEC56FA4D8181807C09F043C063700A
S1131E60613029F010F480E403C080E801C080EC04
S1131E7040385105E1F050F440325105A1F04034AE
S1131E80510599F04031510561F419C0411592E0B2
S1131E90590789F04F3F93E0590779F041155140B4
S1131EA041F020E00DC022E00BC023E009C024E093
S1131EB007C025E005C026E003C027E001C021E0FB
S1131EC0118296E09083822B81838181807C803C87
S1131ED021F481818770873039F081818062818328
S1131EE081E0089580E0089581E00895E82FEF707F
S1131EF0F0E0EE0FFF1F992787FD90958827990F33
S1131F00881F9927E80FF91FEE0FFF1FEE0FFF1F21
S1131F10EE0FFF1FEC56FA4D818182FB882780F972
S1131F200895E82FEF70F0E0EE0FFF1F282F3327FE
S1131F3027FD30952227330F221F3327E20FF31F8B
S1131F40EE0FFF1FEE0FFF1FEE0FFF1FEC56FA4DB3
S1131F50918192FF0EC091819B7F918322DDFC01D0
S1131F60808180FF06C08E7F80830780F085E02D0E
S1131F70099581E008957F928F929F92AF92BF92CC
S1131F80CF92DF92EF92FF920F931F93CF93DF9341
S1131F90982E862E5A01690104DD7C01792C771C68
S1131FA07724771CC92DCF70D0E0CC0FDD1FC70D6F
S1131FB0D11DCC0FDD1FCC0FDD1FCC0FDD1FCC5688
S1131FC0DA4D8981807C09F44CC08981807C803C15
S1131FD019F0898182FD47C08FB7F894F701908189
S1131FE090FF03C08FBF712C3FC0F70190819160B7
S1131FF090838FBFF701A182B282C382D4821582FB
S1132000168207831087811006C091E0C114D104A1
S113201019F090E001C091E0F701808190FB81F913
S11320208B7F8083772019F01E821F8215C08981DF
S1132030807C803C69F4CE018FDCBC01C6010E9427
S1132040DC1F892B29F0F70180818E7F80830CC0EF
S11320501A821B821E821F82892D2DDD77247394A0
S113206003C0712C01C0712C872DDF91CF911F917A
S11320700F91FF90EF90DF90CF90BF90AF909F9023
S11320808F907F900895FF920F931F93CF93DF93C8
S1132090182FF82EFF1CFF24FF1CC82FCF70D0E090
S11320A0CC0FDD1FCF0DD11DCC0FDD1FCC0FDD1FDD
S11320B0CC0FDD1FCC56DA4D74DCDC01FE0102E0EE
S11320C005938C9180FF12C08E7F8C931796ED91AF
S11320D0FC911897309751F0FF2019F06E817F81A1
S11320E002C06A817B81412F81E00995DF91CF9104
S11320F01F910F91FF900895CF93C82FC4DFEC2F49
S1132100EF70F0E0EE0FFF1F8C2F992787FD90955D
S11321108827990F881F9927E80FF91FEE0FFF1FD3
S1132120EE0FFF1FEE0FFF1FEC56FA4D1182CF91F9
S113213008950F93E82FEF70F0E0EE0FFF1F282FA4
S1132140332727FD30952227330F221F3327E20F31
S1132150F31FEE0FFF1FEE0FFF1FEE0FFF1FEC56D6
S1132160FA4D91819460918301E006938CDF81E0C4
S11321700F9108951F920F920FB60F9211240F938F
S11321802F933F934F935F936F937F938F939F937B
S1132190AF93BF93EF93FF938091CB04882334F4E0
S11321A080E88093CA040E94B80588C08091CB045B
S11321B082FF20C084E08093CA0480919C2586FF1E
S11321C07DC08091CC0481FD79C006DC811176C08C
S11321D080918625813011F43BDB70C0843009F096
S11321E06DC0EDE9F5E204E00593E5E9F5E204E00C
S11321F0059364C08091CB0481FF5BC082E080932F
S1132200CA048091942586FF59C08091CC0481FD35
S113221055C0E2DB811152C080918625823041F4A1
S113222084E080938625E4E9F5E202E0069346C063
S1132230833009F043C0EDE9F5E204E00593E5E9F4
S1132240F5E204E005933AC080E18093CA0481E09A
S11322501ADF81E818DF0E9491051092C304E5E9B2
S1132260F5E2108296E09093942583E48083EDE96F
S1132270F5E2108290939C25808382E495E280931A
S1132280982590939925ABDA19C08091CB0486FFE9
S113229006C080E48093CA0480E082DA0FC0809193
S11322A0CB0485FF0BC080E28093CA0481E078DA16
S11322B005C08091CB0484FFE8CFC6CFFF91EF9196
S11322C0BF91AF919F918F917F916F915F914F914A
S11322D03F912F910F910F900FBE0F901F90189563
S11322E01F920F920FB60F9211240F931F932F93E7
S11322F03F934F935F936F937F938F939F93AF938A
S1132300BF93CF93DF93EF93FF938091CC0481FD30
S113231003C062DB8111B9C082E08093CC04809158
S1132320C5048195880FE4E9F5E2E81BF1092081F1
S1132330318124593542369527953695279536951A
S11323402795822F869520FF02C090E801C090E077
S1132350890FE82FEF70F0E0EE0FFF1F282F3327CF
S113236027FD30952227330F221F3327E20FF31F57
S1132370EE0FFF1FEE0FFF1FEE0FFF1FEC56FA4D7F
S1132380908195FF82C000E20693811179C080910B
S11323908625843019F46ADA22DA77C0C09196254A
S11323A0D091972580918026909181260091822555
S11323B01091832598012C0F3D1F8217930718F461
S11323C0EC01C01BD10B80917E2690917F26AE013B
S11323D062E475E2800F911F0E9478200C0F1D1F8C
S11323E00093822510938325C034D10569F480912C
S11323F0842590918525800F911F20917C26309112
S11324007D268217930788F00093802610938126F7
S1132410E0918426F0918526309729F00995811161
S113242002C008DA32C014DA30C08091802690915C
S1132430812608171907F9F4E0918426F09185267E
S1132440309711F4F7D921C00995811102C0F2D94E
S11324501CC02091842530918525809182259091FE
S11324608325820F931F8093842590938525109252
S1132470822510928325E4E9F5E202E0069305C083
S1132480803811F4FBD901C016DBFF91EF91DF9185
S1132490CF91BF91AF919F918F917F916F915F91F8
S11324A04F913F912F911F910F910F900FBE0F905D
S11324B01F901895CF93DF9300D000D0CDB7DEB72F
S11324C08FEF8093700080937100809372008093EB
S11324D073008093740080937500809376006CE1A0
S11324E070E082E05BD08A836DE170E082E056D0D8
S11324F0898389819A81019621F480E493E2898316
S11325009A8389819A818B839C83E0E6F0E08283BD
S11325108C8183838FB7F894E0E5F0E0908192603A
S113252090838FBF818181FFFDCF61E080E490E0E3
S11325303FD08FB7F894E0E5F0E090819E7F9083E0
S11325408FBF2496CDBFDEBFDF91CF9108959FB793
S1132550F894E82FF0E0E059FF4F609580816823FC
S113256060839FBF0895863011F468E101C060E084
S1132570E0E5F0E0818181FD09C08FB7F894908196
S1132580926090838FBF818181FFFDCF636084E47B
S113259090E00ED060E480E0DACF08954091CA0163
S11325A0E62FF72F8093CA0184914093CA010895BE
S11325B01BBEFC0128ED24BF60830895E0919820A0
S11325C0F0919920608171818281938108950F93A4
S11325D01F93CF93DF9300D01F92CDB7DEB7611561
S11325E0710529F48068898381E090E014C0806CCF
S11325F089836038710520F46A8382E090E00BC01F
S1132600862F80688A83660F672F661F770B719504
S11326106B8383E090E0BE016F5F7F4F56D62396B5
S1132620CDBFDEBFDF91CF911F910F9108950F931E
S11326301F93CF93DF9300D01F92CDB7DEB7611500
S1132640710521F4898381E090E014C0806489835A
S11326506038710520F46A8382E090E00BC0862F15
S113266080688A83660F672F661F770B71956B836B
S113267083E090E0BE016F5F7F4F62D62396CDBFAB
S1132680DEBFDF91CF911F910F9108950F931F9398
S11326909B01BA0140E050E08C0181E190E0C7DF8A
S11326A01F910F910895EF92FF920F931F93CF9371
S11326B0DF9300D000D0CDB7DEB79E012F5F3F4F30
S11326C0890124E030E040E050E0B1DFFE013596BE
S11326D060E070E0CB01B82FA72F962F88272291B6
S11326E0BC01CD01620F711D811D911DE017F10721
S11326F091F72496CDBFDEBFDF91CF911F910F914B
S1132700FF90EF90089560E070E080E090E0CBCF20
S113271008950F931F93CF93DF9300D0CDB7DEB707
S11327208E010F5F1F4F22E030E040E050E07FDF7A
S11327308A8190E0982F88272981820F911D0F901C
S11327400F90DF91CF911F910F9108950F931F93D5
S1132750CF93DF931F92CDB7DEB78E010F5F1F4F6C
S113276021E030E040E050E062DF89810F90DF91AA
S1132770CF911F910F9108950F931F93CF93DF93E0
S11327801F92CDB7DEB749838E010F5F1F4F21E043
S113279030E040E050E01BDF0F90DF91CF911F91BC
S11327A00F9108950F931F93CF93DF9300D0CDB76C
S11327B0DEB749835A838E010F5F1F4F22E030E05A
S11327C040E050E004DF0F900F90DF91CF911F9114
S11327D00F9108950F931F93CF93DF9300D000D0F0
S11327E0CDB7DEB729833A834B835C838E010F5FB9
S11327F01F4F24E030E040E050E0E9DE2496CDBFF6
S1132800DEBFDF91CF911F910F9108950F931F9316
S11328108C0128E030E040E050E060E070E081E0CE
S113282090E005DF1F910F910895AB0164E070E023
S11328308DE290E0B7DF43E066E070E08DE290E087
S11328409BDF40E066E070E08DE290E095DF6AE0B7
S113285070E08DE290E027CF089540E062E070E000
S11328608CE290E089DF42E062E070E08CE290E08C
S113287083CF0895CF93DF93EC014DE666E078E0D3
S11328808EE290E079DFCD2B41F047E056E066E040
S113289078E18EE290E086DF07C047E056E166E02B
S11328A078E18EE290E07EDFDF91CF9108954F9240
S11328B05F926F927F92AF92BF92CF92DF92EF922C
S11328C0FF920F931F93CF93DF93EC0148805980BD
S11328D06A807B80842DEC89FD89EE0FFF1FED510A
S11328E0FF4DC080D1800C810150843041F021E043
S11328F090E0873009F020E0E22EF92E03C0EE24A8
S1132900E394F12C8C8D9D8DAE8DBF8D892B8A2BFC
S11329108B2BA1F4E0919820F091992080899189E2
S1132920A289B389A064808B918BA28BB38BD6943C
S1132930C794D694C794D694C7940DC0E0919820B8
S1132940F091992080899189A289B389AF7B808B8A
S1132950918BA28BB38BE0919820F091992088A160
S1132960808780899189A289B389AC7F808B918B80
S1132970A28BB38B48A159A16AA17BA1BA015527A7
S1132980442744275527637077279A01AB01282BE6
S1132990392B4A2B5B2B208B318B428B538B60E082
S11329A070E084E090E016DFA60164E078E28EE255
S11329B090E0F8DE10E0C8015DDFE42DF0E0E857B8
S11329C0FE4DA080B12C6501CC0CDD1CCC0CDD1CB3
S11329D0F601E85AFE4D208131814281538167E03E
S11329E070E08BE290E0F6DEF501EE5AFE4D408198
S11329F06BE070E08BE290E0BFDEF701FF27E05B65
S1132A00FE4D40816BE070E088E290E0B5DEF601B7
S1132A10E059FE4D20813181428153816CE070E0A8
S1132A2088E290E0D7DEEC8DFD8DEE0FFF1F888DE0
S1132A30998DE80FF91FEE0FFF1FE75CFE4D4081F3
S1132A40518162E070E087E290E0ACDEF801EE0FC5
S1132A50FF1FEB5CFE4D4081518164E070E087E232
S1132A6090E0A0DE8C8D9D8DAE8DBF8D892B8A2B41
S1132A708B2B41F444E650E066E070E087E290E09E
S1132A8091DE23C088859985AA85BB850497A10515
S1132A90B10571F440E150E066E070E087E290E057
S1132AA081DE40E166E270E087E290E065DE0DC021
S1132AB040E250E066E070E087E290E073DE48E2D6
S1132AC066E270E087E290E057DE8C859D85F80130
S1132AD0EE0FFF1FEE0FFF1FE80FF91FEE0FFF1F92
S1132AE0EE0FFF1FEB5EFE4D208131814281538149
S1132AF068E070E087E290E06DDE8CA19DA1AEA15C
S1132B00BFA1892B8A2B8B2B41F481E490E1A0E0B7
S1132B10B0E08CA39DA3AEA3BFA34CA15DA160E2D2
S1132B2070E087E290E03EDE209148213091492117
S1132B3040914A2150914B216CE070E083E290E097
S1132B4049DEF801EE0FFF1FE45BFE4D4081518129
S1132B5064E070E083E290E025DE888D998DAA8D93
S1132B60BB8D892B8A2B8B2B69F0EC8DFD8DEB5B58
S1132B70FE4D408160E070E081E290E0FDDDE1E047
S1132B8083E002C0E0E080E00C891D892E893F8942
S1132B900F2EFBE1000F111F221F331FFA95D1F7EF
S1132BA0F02DB301A2014F70552766277727042B18
S1132BB0152B262B372B4C815D816E817F81032E53
S1132BC032E1440F551F661F771F3A95D1F7302D18
S1132BD0442755276C707727042B152B262B372B6E
S1132BE0488959896A897B89032E36E1440F551F28
S1132BF0661F771F3A95D1F7302D44275527607CFF
S1132C007770042B152B262B372B55246624772419
S1132C10B301A201440F551F661F771F440F551FB0
S1132C20661F771F440F551F661F771F440F551FDC
S1132C30661F771F552766277727402B512B622B5A
S1132C40732B90E0A0E0B0E0072E74E1880F991F89
S1132C50AA1FBB1F7A95D1F7702D842B952BA62B19
S1132C60B72B4E2E512C612C712C032E31E1440CC8
S1132C70551C661C771C3A95D1F7302DA30192019F
S1132C80282B392B4A2B5B2B60E070E08FE190E01E
S1132C90A1DD4C815D816E817F8188859985AA85BE
S1132CA0BB85842B952BA62BB72BBC01552744271A
S1132CB08C8D9D8DAE8DBF8D072E7DE0880F991F65
S1132CC0AA1FBB1F7A95D1F7702D9A01AB01282B4F
S1132CD0392B4A2B5B2BE0919820F0919920228785
S1132CE033874487558760E070E088E090E072DDC8
S1132CF042E460E070E08DE090E03EDDDF91CF9152
S1132D001F910F91FF90EF90DF90CF90BF90AF9005
S1132D107F906F905F904F900895CF93C82F80FF5E
S1132D2020C060E070E086E290E0BDDCDC01CB0115
S1132D30937C9C01AD01346160E070E086E290E038
S1132D4049DD60E070E086E390E0ADDC9B01AC011E
S1132D50446860E070E086E390E03CDDC1FD19C0AA
S1132D600EC060E070E086E290E09DDC9B01AC0167
S1132D70337C60E070E086E290E02CDD1CC020E152
S1132D8031E040E050E068E270E086E390E022DD6C
S1132D9012C020E131E04FE050E068E270E086E3E9
S1132DA090E018DD20E131E040E050E068E270E0BE
S1132DB086E390E00FDDCF910895EF92FF920F9399
S1132DC01F93CF93DF9300D0CDB7DEB77C018E0184
S1132DD00F5F1F4F22E030E040E050E060E070E021
S1132DE086E390E024DC8FE0E816F104A0F5F70117
S1132DF0EB5FFE4F0C94122019828A818E7F8A83A6
S1132E002AC089818C7F8160898325C089818C7FD8
S1132E108260898320C08981837B886489838A81D5
S1132E2080688A8318C08981837B89838A818F77AC
S1132E308A8311C08A8182608A830DC08A818D7FD2
S1132E408A8309C089818F7C8062898304C081E080
S1132E50898383E08A838E010F5F1F4F21E030E076
S1132E6040E050E060E070E086E390E0B0DB0F5FAC
S1132E701F4F21E030E040E050E061E070E086E385
S1132E8090E0A5DB0F900F90DF91CF911F910F91F0
S1132E90FF90EF9008958EE090E08FDF40E050E8DF
S1132EA066E070E08DE290E07DDC81E090E07FD12F
S1132EB081E090E082CF089580E090E07EDF40E002
S1132EC050E064E070E086E390E06CCC089563E049
S1132ED070E08FE090E03ADC482F407850E060E00A
S1132EE070E0807490E0A0E0B0E0880F991FAA1F02
S1132EF0BB1F481759076A077B0731F041E063E0BD
S1132F0070E08DE090E038CC0895CF92DF92EF929C
S1132F10FF92CF93DF9360E070E08EE090E0C3DB3C
S1132F206B017C013ED1EC0120E030E0A90160E0BE
S1132F3070E08EE090E04EDC40E460E070E08DE014
S1132F4090E01ADC28EF3FEF47E254E260E070E0E3
S1132F508FE090E03FDCBBDFA701960160E070E00A
S1132F608EE090E037DCCE0120D1E0919820F09102
S1132F709920168ADF91CF91FF90EF90DF90CF9048
S1132F8008950F931F93CF93DF93EC0182FF9FDF8C
S1132F908E0101701127C0FD11C021C0B6DFC1FD33
S1132FA00AC040E051E060E070E08DE090E0FADBC0
S1132FB00FEF1FEF1BC00FEF1FEF18C040E053E0EF
S1132FC060E070E08DE090E0EDDB63E070E08FE0C6
S1132FD090E0BCDB83FDE2CF00E010E007C040E0FE
S1132FE051E060E070E08DE090E0DCDBC801DF914F
S1132FF0CF911F910F9108955FDF40E050E060E0B2
S113300070E08CE290E0CEDB40E066E070E08CE2C1
S113301090E0B2DB22DC40E063E070E086E390E025
S1133020ABDB81E090E0C3D040EF63E070E086E387
S113303090E0A2DBE0919820F0919920168A0895FF
S11330408F71482F40666EE070E08BE290E094CB85
S113305008950F931F93CF93DF93C82FE091982087
S1133060F09199201786168A148A158A10A211A243
S113307012A213A214A215A216A217A244DB603353
S113308071408A4C9E4D09F085C0B6DF80E090E027
S113309094DE44E060E070E084E290E06DDB6EE199
S11330A070E080E090E0C1DBD62FE0919820F091B1
S11330B09920718764E070E080E090E0B6DB6623DD
S11330C079F042E062E170E08DE290E055DBE0915E
S11330D09820F0919920848995899061848B958BAF
S11330E0009198201091992066E070E080E090E0D3
S11330F09CDBF80160837183828393830091982021
S11331001091992067E070E080E090E08EDBF80198
S11331106483758386839783E0919820F091992046
S1133120DF7111F0D68702C080E18687868588DF4B
S1133130C0FF0BC0B0DEE0919820F0919920848903
S113314095899860848B958B0CC065E070E086E36C
S113315090E0DFDAAC015D7F65E070E086E390E04B
S113316021DB81E090E029DE40E06AE070E08CE25F
S113317090E002DBC0919820D091992060E070E04B
S113318084E090E090DA688B798B8A8B9B8B80E06B
S113319090E002C08FEF9FEFDF91CF911F910F91CD
S11331A00895F89481E090E0089578940895AF929A
S11331B0BF92CF92DF92EF92FF920F931F93CF9320
S11331C0DF93A12C0F2EFCE6BF2EF02D0F2EFCED6D
S11331D0CF2EF02D6894DD24D1F8E12CF12C00E001
S11331E010E0282F392F40E050E060E070E080E0EC
S11331F090E01ED729513C4F4F4F5F4F6F4F7F4F89
S11332008F4F9F4F3AD620E030E84BEB55E493D5EF
S1133210FFD5F22FE32F8F2F9E2FA42FB52F0197C9
S1133220A109B1090097A105B105C9F7DF91CF91B3
S11332301F910F91FF90EF90DF90CF90BF90AF90D0
S11332400895CF92DF92EF92FF920F931F9384E140
S113325080938C2680EC98E00E943201C12CD12C02
S1133260760100E211EA27E030E040E06CE876E223
S113327080EC98E00E944B01E0ECF8E080818064EF
S1133280808380E090E01F910F91FF90EF90DF909A
S1133290CF900895CF92DF92EF92FF920F931F93F6
S11332A0C12CD12C760100E012E12AE730E040E0A5
S11332B06CE876E280EC98E00E944B011F910F913C
S11332C0FF90EF90DF90CF9008958F929F92AF92EE
S11332D0BF92CF92DF92EF92FF920F931F93CF93FF
S11332E0DF937C01EB0149015A015BDF6C016CE85F
S11332F076E280EC98E00E948C01A701BE0180EC8C
S113330098E00E946A01A401B80180EC98E00E9450
S11333106A016CE876E280EC98E00E94A201C601A2
S113332044DF80E090E0DF91CF911F910F91FF90F7
S1133330EF90DF90CF90BF90AF909F908F900895C3
S11333408F929F92AF92BF92CF92DF92EF92FF92B1
S11333500F931F93CF93DF937C01EB0149015A0133
S113336020DF6C016CE876E280EC98E00E948C012E
S1133370A701BE0180EC98E00E946A01A401B80193
S113338080EC98E00E9479016CE876E280EC98E0A9
S11333900E94A201C60109DF80E090E0DF91CF9195
S11333A01F910F91FF90EF90DF90CF90BF90AF905F
S11333B09F908F9008957ED843D2E0E4F6E088E0B1
S11333C0828394E09283A0E0B6E020E411962C93EB
S11333D0119730E811963C93A0E2B6E041E01196D3
S11333E04C93119742E011964C93A0E8B6E01196E5
S11333F04C93119712969C93129711968C93A0E676
S1133400B6E012969C93129711968C9380E1818377
S113341080E28183318322838FB7F894E6E5F6E076
S11334209081977090839081906190838FBF08956D
S113343080E4E0E0F6E0858380E092EEA4E0B0E092
S11334400197A109B1090097A105B105C9F780E861
S1133450E0E0F6E0858380E092EEA4E0B0E001973E
S1133460A109B1090097A105B105C9F781E0E0E21E
S1133470F6E0858380E092EEA4E0B0E00197A10934
S1133480B1090097A105B105C9F782E0E0E2F6E0D1
S1133490858380E092EEA4E0B0E00197A109B10930
S11334A00097A105B105C9F780E4E0E0F6E0868362
S11334B080E092EEA4E0B0E00197A109B109009781
S11334C0A105B105C9F780E8E0E0F6E0868380E075
S11334D092EEA4E0B0E00197A109B1090097A1051B
S11334E0B105C9F781E0E0E2F6E0868380E092EE80
S11334F0A4E0B0E00197A109B1090097A105B105C5
S1133500C9F782E0E0E2F6E0868380E092EEA4E090
S1133510B0E00197A109B1090097A105B105C9F768
S113352080E4E0E0F6E0858380E094ECA9E0B0E09C
S11335300197A109B1090097A105B105C9F780E870
S1133540E0E0F6E0858380E094ECA9E0B0E0019748
S1133550A109B1090097A105B105C9F781E0E0E22D
S1133560F6E0858380E094ECA9E0B0E00197A1093E
S1133570B1090097A105B105C9F782E0E0E2F6E0E0
S1133580858380E094ECA9E0B0E00197A109B1093A
S11335900097A105B105C9F780E4E0E0F6E0868371
S11335A080E094ECA9E0B0E00197A109B10900978B
S11335B0A105B105C9F780E8E0E0F6E0868380E084
S11335C094ECA9E0B0E00197A109B1090097A10525
S11335D0B105C9F781E0E0E2F6E0868380E094EC8F
S11335E0A9E0B0E00197A109B1090097A105B105CF
S11335F0C9F782E0E0E2F6E0868380E094ECA9E09B
S1133600B0E00197A109B1090097A105B105C9F777
S113361080E4E0E0F6E0858380E096EAAEE0B0E0A6
S11336200197A109B1090097A105B105C9F780E87F
S1133630E0E0F6E0858380E096EAAEE0B0E0019752
S1133640A109B1090097A105B105C9F781E0E0E23C
S1133650F6E0858380E096EAAEE0B0E00197A10948
S1133660B1090097A105B105C9F782E0E0E2F6E0EF
S1133670858380E096EAAEE0B0E00197A109B10944
S11336800097A105B105C9F780E4E0E0F6E0868380
S113369080E096EAAEE0B0E00197A109B109009795
S11336A0A105B105C9F780E8E0E0F6E0868380E093
S11336B096EAAEE0B0E00197A109B1090097A1052F
S11336C0B105C9F781E0E0E2F6E0868380E096EA9E
S11336D0AEE0B0E00197A109B1090097A105B105D9
S11336E0C9F782E0E0E2F6E0868380E096EAAEE0A5
S11336F0B0E00197A109B1090097A105B105C9F787
S113370080E4E0E0F6E0858380E098E8A3E1B0E0BF
S11337100197A109B1090097A105B105C9F780E88E
S1133720E0E0F6E0858380E098E8A3E1B0E001976B
S1133730A109B1090097A105B105C9F781E0E0E24B
S1133740F6E0858380E098E8A3E1B0E00197A10961
S1133750B1090097A105B105C9F782E0E0E2F6E0FE
S1133760858380E098E8A3E1B0E00197A109B1095D
S11337700097A105B105C9F780E4E0E0F6E086838F
S113378080E098E8A3E1B0E00197A109B1090097AE
S1133790A105B105C9F780E8E0E0F6E0868380E0A2
S11337A098E8A3E1B0E00197A109B1090097A10548
S11337B0B105C9F781E0E0E2F6E0868380E098E8AD
S11337C0A3E1B0E00197A109B1090097A105B105F2
S11337D0C9F782E0E0E2F6E0868380E098E8A3E1BE
S11337E0B0E00197A109B1090097A105B105C9F796
S11337F00895CF93C82F8A3021F48DE090E00E9481
S1133800A0048C2F992787FD90950E94A00480E046
S113381090E0CF9108950F931F93CF93DF938C0182
S11338200E94DF038823E1F30E942B04EC01B8011A
S1133830E0DFCE019927DF91CF911F910F91089579
S113384087E0E0EAF0E0828378940E948E050E948B
S11338506F0E8AE990E280938F269093902680934E
S11338608D2690938E260895EF92FF920F931F93C7
S1133870CF93DF93CDB7DEB72797CDBFDEBF7C01F3
S1133880FB0184818D8385818E8386818F83408132
S113389051816281738149835A836B837C8387015D
S11338A080EAE81688E0F80629F460E183E00E94E3
S11338B0A71214C080EBE81688E0F80629F460E249
S11338C083E00E94A71213C080EAE81689E0F80694
S11338D029F460E184E00E94A71210C0003B89E053
S11338E0180729F460E284E00E94A71207C0003A96
S11338F01A4021F460E185E00E94A712BE016F5FC7
S11339007F4FC7010E94E40A2796CDBFDEBFDF9137
S1133910CF911F910F91FF90EF9008954F925F9276
S11339206F927F928F929F92AF92BF92CF92DF92CB
S1133930EF92FF920F931F93CF93DF93CDB7DEB730
S1133940AA97CDBFDEBF0E9483134B015C010E9486
S1133950DE126B017C01CE0101960E9406148E01D9
S11339600F5F1F4F24E030E040E050E060E070E083
S113397083E090E00E94171360E070E084E090E040
S11339800E9453136B8F7C8F8D8F9E8F085F1F4F08
S113399025E030E040E050E060E070E088E090E056
S11339A00E94171360E070E08DE090E00E945313D2
S11339B06F8F78A389A39AA360E070E08EE090E013
S11339C00E9453136BA37CA38DA39EA30B5F1F4F75
S11339D025E030E040E050E060E070E08FE090E00F
S11339E00E94171360E070E080E190E00E9453139E
S11339F06FA378A789A79AA70B5F1F4F28E030E031
S1133A0040E050E060E070E082E190E00E94171333
S1133A1060E070E08FE190E00E9453132B013C01C1
S1133A2080E991E27FD38CEB91E27CD39F928F92D9
S1133A304501AA24BB249F928F9289EC91E29F9323
S1133A408F935FD3DF92CF926701EE24FF24DF923E
S1133A50CF9281EE91E29F938F9353D389811F92EA
S1133A608F938A811F928F938B811F928F938C8166
S1133A701F928F938D811F928F938E811F928F93AC
S1133A808F811F928F9388851F928F9389EF91E284
S1133A909F938F9336D31F921F921F921F921F9250
S1133AA01F921F921F928FE292E29F938F9329D3CA
S1133AB0CDBFDEBF3C8D3F934B8D4F932B8D3C8D03
S1133AC04D8D5E8DCA01AA27BB279F938F9381E5F5
S1133AD092E29F938F9315D389851F928F938A8542
S1133AE01F928F938B851F928F938C851F928F9338
S1133AF08D851F928F9389E692E29F938F9301D3D2
S1133B0038A13F934F8D4F932F8D38A149A15AA1CE
S1133B10CA01AA27BB279F938F9380E992E29F93C0
S1133B208F93EFD23CA13F934BA14F932BA13CA188
S1133B304DA15EA1CA01AA27BB279F938F9388EA50
S1133B4092E29F938F93DDD28E851F928F938F8500
S1133B501F928F9388891F928F9389891F928F93C5
S1133B608A891F928F9380EC92E29F938F93C9D29C
S1133B70CDBFDEBF58A55F938FA18F932FA138A52A
S1133B8049A55AA5CA01AA27BB279F938F9387EEFD
S1133B9092E29F938F93B5D28B891F928F938C89D6
S1133BA01F928F938D891F928F938E891F928F936B
S1133BB08F891F928F93888D1F928F93898D1F9267
S1133BC08F938A8D1F928F938FEF92E29F938F939F
S1133BD098D25F924F922301662477245F924F928A
S1133BE085E393E29F938F938CD280E991E29AD2FA
S1133BF0CDBFDEBFAA96CDBFDEBFDF91CF911F91AF
S1133C000F91FF90EF90DF90CF90BF90AF909F9077
S1133C108F907F906F905F904F90089580E090E038
S1133C2018DA019641F48DE493E29F938F9369D25D
S1133C300F900F90FFCF2EDB86EB90E20E9457147B
S1133C4083E06BD880E090E0E12C0F2EF2E1FF2EB0
S1133C50F02DDAE7C0E008C0FC01E950FA4D10820B
S1133C60019602C080E090E08F379105ACF380E0CC
S1133C7090E087D960E070E08FE090E00E945313F9
S1133C806093F3257093F4258093F5259093F6259E
S1133C908B019C010027107D25703472012B022BAF
S1133CA0032B41F376FF22C060E070E080E190E0F6
S1133CB00E94531373706093F1257093F22560385A
S1133CC0710548F440E050E087EF95E20E94461306
S1133CD087EF95E227D220E030E440E050E060E056
S1133CE070E08FE090E00E94EA130AC020E030E91F
S1133CF045E054E260E070E08FE090E00E94EA1357
S1133D008E2D9F2DAD2FBC2F0197A109B1090097CE
S1133D10A105B105C9F7A6CF4EDB93DA6FEA70E2CD
S1133D2080EA99E0A1DD68EA70E280EA9AE09CDD2D
S1133D307FDBF4DD73DF0CD005C1FDD040F0F4D09F
S1133D4030F021F45F3F19F0D6C051112FC1D9C012
S1133D500AD198F39923C9F35523B1F3951B550B55
S1133D60BB27AA2762177307840738F09F5F5F4F4A
S1133D70220F331F441FAA1FA9F333D00E2E3AF08B
S1133D80E0E830D091505040E695001CCAF729D0A5
S1133D90FE2F27D0660F771F881FBB1F26173707F4
S1133DA04807AB07B0E809F0BB0B802DBF01FF2724
S1133DB093585F4F2AF09E3F510568F09CC0F6C0AF
S1133DC05F3FECF3983EDCF3869577956795B7955E
S1133DD0F7959F5FC9F7880F911D9695879597F979
S1133DE00895E1E0660F771F881FBB1F62177307F2
S1133DF08407BA0720F0621B730B840BBA0BEE1F07
S1133E0088F7E0950895BEE304D008F490E8089597
S1133E10BFE322273327A901AED058F19F5740F1C1
S1133E20B91738F1BFE3B91B9927B8503AF4660FB4
S1133E30771F881F991FB395D2F316C0B8504AF064
S1133E40232F342F452F562F672F782F8827B850CC
S1133E50BAF7B85F49F08695779567955795479572
S1133E6037952795BA95B9F70EF44ED088940895EE
S1133E70889460E070E0CB010895E894F92F96EB04
S1133E80FF2381F0121613061406440B9395F6953E
S1133E9087957795679557954040FF23B9F71BC0E1
S1133EA099270895882351F49850D2F7872B762FB9
S1133EB0652F542F432F322F20E0B1F3121613062F
S1133EC01406440B88233AF09A95440F551F661F35
S1133ED0771F881FCAF755234AF4440F551F11F45E
S1133EE060FF04C06F5F7F4F8F4F9F4F880F969581
S1133EF0879597F9089597F99F6780E870E060E0E7
S1133F0008959FEF80EC0895909580957095609545
S1133F1050954095309521953F4F4F4F5F4F6F4FD0
S1133F207F4F8F4F9F4F089500240A94161617064B
S1133F3018060906089500240A9412161306140696
S1133F4005060895092E0394000C11F4882352F0F9
S1133F50BB0F40F4BF2B11F460FF04C06F5F7F4FB1
S1133F608F4F9F4F089557FD9058440F551F59F098
S1133F705F3F71F04795880F97FB991F61F09F3F52
S1133F8079F087950895121613061406551FF2CF7B
S1133F904695F1DF08C0161617061806991FF1CFCB
S1133FA086957105610508940895E894BB276627F2
S1133FB07727CB0197F90895AA1BBB1B51E107C0D2
S1133FC0AA1FBB1FA617B70710F0A61BB70B881FA5
S1133FD0991F5A95A9F780959095BC01CD01089534
S1133FE0A1E21A2EAA1BBB1BFD010DC0AA1FBB1FF9
S1133FF0EE1FFF1FA217B307E407F50720F0A21B6B
S1134000B30BE40BF50B661F771F881F991F1A94D7
S113401069F760957095809590959B01AC01BD0101
S1134020CF010895EE0FFF1F0590F491E02D099440
S1134030DF93CF931F930F939A9DF02D219FF00D43
S11340408B9DF00D8A9DE02DF10D039FF00D029FD5
S1134050E00DF11D4E9DE00DF11D5E9DF00D4F9D97
S1134060F00D7F936F93BF92AF925F934F93D501FF
S113407030D08B01AC01D7012CD0EB01E80FF91F34
S1134080D6011FD02F913F91D60123D0C60FD71F41
S1134090E81FF91FAF91BF9114D02F913F9119D010
S11340A0C60FD71FE81FF91FD60113D0E60FF71F5D
S11340B09801BE01CF0111240F911F91CF91DF917F
S11340C0089507D0460F571FC81FD91F08F431960B
S11340D00895A29FB001B39FC001A39F700D811DDD
S11340E01124911DB29F700D811D1124911D0895FD
S11340F0FB01DC0102C001900D9241505040D8F701
S11341000895A0E0B0E0E6E8F0E2B2C2FE01359620
S113411061917191AF0180918F26909190262FD05B
S1134120E2E0BFC20F931F93CF93DF93E0918F26FA
S1134130F0919026238121FF1BC0EC0100E010E0E8
S1134140899160918F2670919026DB011896ED91EC
S1134150FC911997882331F00995892B89F30FEF86
S11341601FEFEECF8AE00995892B11F4C80102C034
S11341708FEF9FEFDF91CF911F910F910895ACE0E6
S1134180B0E0E4ECF0E264C27C016B018A01FC0162
S113419016821782838181FFB0C1CE0101964C0142
S11341A0F7019381F60193FD859193FF81916F014E
S11341B0882309F49EC1853239F493FD859193FFD8
S11341C081916F01853221F4B70190E0B1D1E8CF3C
S11341D0512C312C20E02032A0F48B3269F030F4E1
S11341E0803259F0833269F420612CC08D3239F069
S11341F0803339F4216026C02260246023C0286003
S113420021C027FD27C030ED380F3A3078F426FF5F
S113421006C0FAE05F9E300D1124532E13C08AE0CD
S1134220389E300D1124332E20620CC08E3221F4BE
S113423026FD5FC1206406C08C3611F4206802C0DC
S1134240883641F4F60193FD859193FF81916F01C6
S11342508111C1CF982F9F7D9554933028F40C5F22
S11342601F4FFFE3F9830DC0833631F0833771F0BC
S1134270833509F057C021C0F801808189830E5F1E
S11342801F4F44244394512C540114C03801F2E0CC
S11342906F0E711CF801A080B18026FF03C0652D4C
S11342A070E002C06FEF7FEFC5012C8736D12C017F
S11342B083012C852F77222E16C03801F2E06F0E71
S11342C0711CF801A080B18026FF03C0652D70E049
S11342D002C06FEF7FEFC5012C8714D12C012C8510
S11342E02068222E830123FC19C0832D90E04816F8
S11342F05906A0F4B70180E290E01AD13A94F5CFC0
S1134300F50127FC859127FE81915F01B70190E0BB
S11343100FD131103A94F1E04F1A5108411451046D
S113432079F7DEC0843611F0893631F5F80127FFBC
S113433007C060817181828193810C5F1F4F08C027
S113434060817181882777FD8095982F0E5F1F4FBC
S11343502F76B22E97FF09C0909580957095619540
S11343607F4F8F4F9F4F2068B22E2AE030E0A40188
S113437011D1A82EA81843C0853729F42F7EB22E58
S11343802AE030E025C0F22FF97FBF2E8F36C1F02E
S113439018F4883579F0ADC0803719F0883721F0EA
S11343A0A8C02F2F2061B22EB4FE0DC08B2D8460C7
S11343B0B82E09C024FF0AC09F2F9660B92E06C0EC
S11343C028E030E005C020E130E002C020E132E026
S11343D0F801B7FE07C060817181828193810C5F0F
S11343E01F4F06C06081718180E090E00E5F1F4F17
S11343F0A401D0D0A82EA818FB2DFF77BF2EB6FE9F
S11344000BC02B2D2E7FA51450F4B4FE0AC0B2FCB1
S113441008C02B2D2E7E05C07A2C2B2D03C07A2CA0
S113442001C0752C24FF0DC0FE01EA0DF11D808131
S1134430803311F4297E09C022FF06C0739473945B
S113444004C0822F867809F0739423FD12C020FFE4
S113445006C05A2C731418F4530C5718732C731485
S113446060F4B70180E290E02C8762D073942C85CD
S1134470F6CF731410F4371801C0312C24FF11C087
S1134480B70180E390E02C8753D02C8522FF16C01F
S113449021FF03C088E590E002C088E790E0B701FF
S11344A00CC0822F867851F021FD02C080E201C049
S11344B08BE227FD8DE2B70190E03AD0A51430F4E9
S11344C0B70180E390E034D05A94F8CFAA94F40171
S11344D0EA0DF11D8081B70190E02AD0A110F6CF3A
S11344E0332009F45DCEB70180E290E021D03A9404
S11344F0F7CFF7018681978102C08FEF9FEF2C964B
S1134500E2E1BFC0FC010590615070400110D8F792
S1134510809590958E0F9F1F0895FC016150704007
S113452001900110D8F7809590958E0F9F1F0895E4
S11345300F931F93CF93DF93182F092FEB018B81D8
S113454081FD03C08FEF9FEF20C082FF10C04E811A
S11345505F812C813D81421753077CF4E881F98106
S11345609F012F5F3F4F28833983108306C0E8855E
S1134570F985812F0995892B29F72E813F812F5F9A
S11345803F4F2E833F83812F902FDF91CF911F9137
S11345900F910895FA01AA27283051F1203181F1B1
S11345A0E8946F936E7F6E5F7F4F8F4F9F4FAF4F37
S11345B0B1E03ED0B4E03CD0670F781F891F9A1F4A
S11345C0A11D680F791F8A1F911DA11D6A0F711DFE
S11345D0811D911DA11D20D009F468943F912AE00A
S11345E0269F11243019305D3193DEF6CF010895F2
S11345F0462F4770405D4193B3E00FD0C9F7F6CF23
S1134600462F4F70405D4A3318F0495D31FD4052EA
S1134610419302D0A9F7EACFB4E0A6959795879580
S113462077956795BA95C9F700976105710508955F
S11346309B01AC010A2E069457954795379527950B
S1134640BA95C9F7620F731F841F951FA01D0895A3
S11346502F923F924F925F926F927F928F929F928E
S1134660AF92BF92CF92DF92EF92FF920F931F937C
S1134670CF93DF93CDB7DEB7CA1BDB0BCDBFDEBF55
S113468009942A88398848885F846E847D848C8460
S11346909B84AA84B984C884DF80EE80FD800C8169
S11346A01B81AA81B981CE0FD11DCDBFDEBFED0123
S10946B00895F894FFCF09
S11346B67C03F601000202021803B801F0010402A9
S11346C602020000000300000000000000000000D9
S11346D600004F6E65506F7300416772756D000080
S11346E60403090486203A20000042203E200A20C2
S11346F6002009024300020100C03209040000013F
S11347060202010005240010010424020205240605
S11347160001052401030107058203400010090472
S11347260100020A00000007058102400000070597
S11347360202400000001201000202000040EB03E6
S11347460424000101020301C9250000000300003E
S11347560000F91B0B1C000000C20100030000004E
S1134766C20100030000020000000200000008006D
S1134776000002000000090000000900000001001A
S11347860000000000000000000021040000313297
S1134796454600000098599859EA518E421E451420
S11347A62E0080EA51F4283233E03A703DE03AC2F2
S11347B635842BC2353233C235C235AE47E03A5062
S11347C638A23050382D001A3152001A339A001A82
S11347D6351D011A376B003B31BE003B335E013B8E
S11347E63596023B3787008D000A00160001000645
S11347F6000100020040100807A9022570889B8862
S1134806D8BC1E265626BEBE070400090805400865
S113481609104008080540081D0400081D04000886
S1134826405C0000A05C0400C06C0800805C0400CE
S1134836E03F1E00E07D1E000000010203040005A7
S11348460A2D2D2D2D2D2D2D2D2D2D2D2D2D2D2DB1
S11348562D2D2D2D2D2D2D2D2D2D2D2D2D2D2D2D7E
S11348662D2D2D2D2D2D2D2D2D2D2D0044574D3136
S113487630303020494E464F0044657669636520E2
S1134886494420203A202530345820253034580A0B
S11348960050617274204944202020203A2025309B
S11348A6345820253034580A004555492020202004
S11348B6202020203A202530325820253032582016
S11348C625303258202530325820253032582025BC
S11348D6303258202530325820253032580A0050BC
S11348E6414E20416464726573733A202530325810
S11348F62025303258202530325820253032580AA7
S1134906005359535F434647202020203A20253040
S1134916345820253034580A0054585F46435452BC
S11349264C2020203A202530325820253032582079
S113493625303258202530325820253032580A0086
S11349465359535F4354524C2020203A2025303487
S11349565820253034580A005359535F4D41534B60
S11349662020203A202530345820253034580A0097
S11349765359535F535441545553203A20253032EA
S113498658202530325820253032582025303258C8
S113499620253032580A0052585F46494E464F2069
S11349A620203A202530345820253034580A005225
S11349B6585F465155414C2020203A202530325824
S11349C620253032582025303258202530325820C0
S11349D625303258202530325820253032582025AB
S11349E63032580A004348414E5F4354524C20200B
S11349F63A202530345820253034580A00494E4987
S10D4A0654204641494C4544000089
S9030000FC
