S00E00004F6E65506F732E73726563C2
S113000004C100001FC100001DC100001BC100008D
S113001019C1000017C1000015C1000013C1000080
S113002011C100000FC100000DC100000BC1000090
S113003009C1000098C7000005C1000003C1000009
S113004001C10000FFC00000FDC00000FBC00000B3
S1130050F9C00000F7C00000F5C00000F3C00000C4
S1130060F1C00000EFC00000EDC00000EBC00000D4
S1130070E9C00000E7C00000E5C00000E3C00000E4
S1130080E1C00000DFC00000DDC00000DBC00000F4
S1130090D9C00000D7C00000D5C00000D3C0000004
S11300A0D1C00000CFC00000CDC00000CBC0000014
S11300B0C9C00000C7C0000079C70000C3C0000069
S11300C0C1C00000BFC00000BDC00000BBC0000034
S11300D0B9C00000B7C00000B5C00000B3C0000044
S11300E0B1C00000AFC00000ADC00000ABC0000054
S11300F0A9C00000A7C00000A5C00000A3C0000064
S1130100A1C000009FC000009DC000009BC0000073
S113011099C0000097C0000095C0000093C0000083
S113012091C000008FC000008DC000008BC0000093
S113013089C0000087C0000085C0000083C00000A3
S113014081C000007FC000007DC000007BC00000B3
S113015079C0000077C0000075C0000073C00000C3
S113016071C000006FC000006DC000006BC00000D3
S113017069C0000067C0000065C0000063C00000E3
S113018061C000005FC000005DC000005BC00000F3
S113019059C0000057C0000055C0000053C0000003
S11301A051C000004FC000004DC000004BC0000013
S11301B049C0000047C0000045C0000043C0000023
S11301C041C000003FC000003DC000003BC0000033
S11301D039C0000037C0000035C0000033C0000043
S11301E031C000002FC000002DC000002BC0000053
S11301F029C000000C944E0C0C94040DF608E4087D
S1130200E708EA08ED08F008F30811241FBECFEF51
S1130210CDBFDFE2DEBF10E2A0E0B0E2E0E6FFE146
S113022002C005900D92AC37B107D9F723E2ACE7D1
S1130230B0E201C01D92A330B207E1F70E94880F1B
S11302400C94AE0FDDCE1092922110929E2110924A
S11302509F2181EA8093942180E2809395211092DA
S1130260962110929721109298211092992182E060
S113027090E080939A2190939B2110929C2110925C
S11302809D2180E092ECA1E0B0E08093A0219093C6
S1130290A121A093A221B093A3211092A421109292
S11302A0A52188E08093A621809192218F5F80937D
S11302B0922181E00895809192218150809392212E
S11302C00895809191218150809391218091912171
S11302D010929021089580E0089580E0089580911F
S11302E0ED228823DCF480768032E9F58091EE22D9
S11302F08132D9F58091F3229091F4220797B9F5D0
S113030080EA91E28093F5229093F62287E090E0D0
S11303108093F7229093F82281E0089580768032CA
S113032041F58091EE22803221F0823221F581E084
S113033008958091F3229091F4220797F1F48FEBC2
S113034091E08093F9229093FA2280EA91E28093DB
S1130350F5229093F62287E090E08093F722909321
S1130360F82281E0089580E0089580E0089580E017
S1130370089580E0089580E0089580E00895089548
S1130380FF920F931F93CF93DF9380917F2081116E
S11303909CC00E94910A882351F0C0918020D09182
S11303A081200E949E0AC817D90759F48EC0C091B3
S11303B08020D09181200E94990AC817D90709F496
S11303C084C0DFB7F894C0918220EC2FF0E0EE0FE8
S11303D0FF1FED57FF4D80819181892B09F5809195
S11303E07C2090917D20019680937C2090937D20A9
S11303F00E94910A811107C080917C2090917D20F8
S11304008436910558F00E94910A882349F080911E
S11304107C2090917D208032934010F4DFBF55C042
S113042010927C2010927D2080917E20811106C044
S113043081E0C11180E08093822004C081E0C11179
S113044080E0C82F81E080937F20DFBFD0E0FE01F1
S1130450EE0FFF1FED57FF4DFF24F3948081918130
S11304608034910509F4F12CFF2091F00E94910A47
S1130470882339F00E949E0A8093802090938120E3
S11304800BC00E94990A809380209093812004C01D
S11304901092802010928120FE01EE0FFF1FED5775
S11304A0FF4D20813181AE01002456954795079474
S11304B0569547950794542F402D48575F4D0BE6AA
S11304C012E06F2D81E80E94500BDF91CF911F91B4
S11304D00F91FF900895811115C02091822081E031
S11304E090E0222311F080E090E0FC01EE0FFF1F6A
S11304F0ED57FF4D1082118210927E2010927F20C2
S113050080E03ECF089580E03BCF08954FB7F89444
S11305102091092130910A21E0910B21F0E0EE0FA6
S1130520FF1FE45FFE4D80819181821B930B4FBFBF
S11305300895ECDF21E0892B09F420E0822F08954F
S11305400F931F93CF93DF934FB7F89450910B21E0
S113055080910821811110C02091092130910A2134
S1130560C52FD0E0FE01EE0FFF1FE45FFE4D80813A
S113057091812817390718F44FBF80E023C01092E7
S1130580092110920A2181E0511180E080930B210E
S113059081E0809308214FBF80E0CBDFAE010024CF
S11305A0569547950794569547950794542F402D93
S11305B0405F5E4D09E113E020E430E061E082E059
S11305C00E94500BDF91CF911F910F9108951092CB
S11305D0912110927F2010927E20109282201092FE
S11305E083201092842010928520109286201092ED
S11305F080201092812080E0C3DE109208211092A6
S11306000B2110920C2110920D21109209211092AD
S11306100A2180E095DF882359F0909191219F5F12
S11306209093912190919121913011F49093902184
S113063008950F931F93942F811129C080910B214A
S1130640E1E08111E0E061157105B1F4F0E000240E
S1130650F695E7950794F695E7950794FE2FE02D18
S1130660AF01405F5E4D09E113E020E430E061E05A
S1130670892F0E94500B0BC0F0E0EE0FFF1FE45FC8
S1130680FE4D608371831092082180E059DF1F9131
S11306900F910895E091AC21F091AD210190F0818A
S11306A0E02D228133812E0F3F1FFC014081E40F96
S11306B0F11DE217F307A0F481818430A1F08613C1
S11306C006C014C081818430A1F08617A9F080810E
S11306D0E80FF11DE217F307A8F380E090E0089516
S11306E080E090E0089580E090E008958E2F9F2FA1
S11306F0089580E090E008958E2F9F2F08958091B3
S1130700EF228F7710C708959091AE21992381F13C
S1130710E091AC21F091AD210190F081E02D948124
S1130720891740F5E093AA21F093AB21228133810C
S11307302E0F3F1FE217F307F8F49181943061F410
S11307409281981309C09381961306C0E093AA215D
S1130750F093AB2181E008959081E90FF11DE21738
S1130760F30758F3E093AA21F093AB2180E00895B6
S113077080E0089580E0089580E00895FF920F934B
S11307801F93CF93DF93C82F60E0BEDFF82E88233A
S113079081F1A091AC21B091AD21EC2FF0E0EE0FEE
S11307A0FF1F12962D913C911397E20FF31F0081C6
S11307B01181D8011696ED91FC9117970995682F30
S11307C08C2FA2DFF82E8823A1F0C091AA21D0910A
S11307D0AB2165E0CE015EDFEC01009721F08A8158
S11307E00E94100CF6CFD8011296ED91FC9113974C
S11307F009958F2DDF91CF911F910F91FF9008954F
S11308001F93CF93DF93182F7FDF882339F1C09193
S1130810AA21D091AB2165E0CE013CDFEC01009729
S113082041F04C815D816B818A8194D68111F3CF33
S113083015C0A091AC21B091AD21812F90E0880F1B
S1130840991F1296ED91FC911397E80FF91F0190EF
S1130850F081E02D0190F081E02D0995DF91CF9199
S11308601F910895CF938091AE218823C1F0E09128
S1130870AC21F091AD210190F081E02D8481882399
S113088071F0C0E08C2F7ADFCF5FE091AC21F09162
S1130890AD210190F081E02D8481C81798F3109266
S11308A0AE2181E090E08093B2219093B321CF9167
S11308B00895CF938091AE21882341F1E091AC213A
S11308C0F091AD21A081B18114968C918823F1F02F
S11308D0C0E08C2F90E0880F991F0280F381E02DF7
S11308E0E80FF91F0190F081E02D0084F185E02DDF
S11308F0309709F00995CF5FE091AC21F091AD21DB
S1130900A081B18114968C91C81718F3CF910895E2
S1130910EF92FF920F931F93CF93DF931092F722DE
S11309201092F8221092F9221092FA221092FB22CD
S11309301092FC222091ED2222230CF065C28091BA
S1130940F3229091F422009709F063C259C22F71E7
S113095009F08BC03091EE22363081F0383009F442
S113096079C0311182C0029739F462E070E082EB01
S113097091E2E7D501E0C7C100E0C5C12091EF22B3
S11309803091F022832F99278230910599F01CF43D
S1130990019739F055C083309105D1F10F9759F182
S11309A04FC08091182090911920DC016C9170E067
S11309B0C8D535C0E0911820F091192081892817F5
S11309C008F040C0C9019927880F991F880F991F03
S11309D0E0911A20F0911B20E80FF91F808191818A
S11309E0FC0162817381ADD5E091F522F091F6228C
S11309F082E0818314C080911C2090911D20009777
S1130A0019F1DC0112966D917C9113979AD507C068
S1130A1021111CC064E070E084E190E292D58091E1
S1130A20F3229091F4222091F7223091F822821738
S1130A30930770F48093F7229093F82201E063C146
S1130A4000E061C100E05FC100E05DC100E05BC1A6
S1130A5001E059C1019739F461E070E08EEA91E256
S1130A6070D501E050C100E04EC1213009F03FC013
S1130A703091EE223A30D9F5019799F58091AE2163
S1130A80882389F1C091F122D091F222E090AC2127
S1130A90F090AD21D701ED91FC918481C81728F520
S1130AA060E08C2F31DE082F882309F42CC1CE019D
S1130AB09927880F991FD7011296ED91FC911397EE
S1130AC0E80FF91F0190F081E02D0680F781E02DF9
S1130AD009958093B02161E070E080EB91E231D51B
S1130AE012C100E010C100E00EC100E00CC12230D0
S1130AF009F00BC12091EE22211100C1029779F473
S1130B008091F12288D590E08093A8219093A92127
S1130B1062E070E088EA91E214D501E0F4C000E0FC
S1130B20F2C02F7109F090C08091EE22833009F455
S1130B30E7C018F48130B1F087C0853019F08930EE
S1130B4061F182C08091F3229091F422892B41F4C7
S1130B508FE793E08093F9229093FA2201E0D3C0C7
S1130B6000E0D1C08091F3229091F422892B89F482
S1130B708091EF229091F022019769F48091B22143
S1130B809091B3218D7F8093B2219093B32101E0A2
S1130B90BAC000E0B8C000E0B6C08091F3229091E2
S1130BA0F422892B09F046C0C1D4882309F444C037
S1130BB02091EF223091F0223327E0911820F09118
S1130BC01920818990E082179307C0F14BDE809150
S1130BD0EF229091F0228093AE21882389F1992706
S1130BE08150904C880F991F880F991FE0911A200B
S1130BF0F0911B20E80FF91FE093AC21F093AD2195
S1130C000190F081E02D84818823E1F0C0E060E070
S1130C108C2FF6DD082F882309F475C0CF5FE0918F
S1130C20AC21F091AD210190F081E02D8481C817B1
S1130C3070F369C000E067C000E065C000E063C015
S1130C4001E061C001E05FC0213009F58091EE222E
S1130C508B30E9F48091F3229091F422892B99F45A
S1130C608091AE21882389F0C091F122D091EF22A6
S1130C708C2F84DD082F882309F445C06D2F8C2F19
S1130C80BFDD082F40C000E03EC000E03CC0223081
S1130C9009F03BC08091EE22813019F08330B1F02D
S1130CA031C08091F3229091F422892B59F48091E0
S1130CB0EF229091F022892B39F48091F122C6D44D
S1130CC0082F21C000E01FC000E01DC08091F32266
S1130CD09091F422892B71F48091EF229091F0226B
S1130CE0892B51F4C1EFD2E2888161D58881B5D5D1
S1130CF0082F09C000E007C000E005C000E003C001
S1130D0000E001C000E0011189C08091ED228F71E3
S1130D108130C1F58091AE218823A1F1C091F122E7
S1130D20D091F2220091AC211091AD21D801ED9126
S1130D30FC918481C81730F560E08C2FE5DC8823B2
S1130D4009F1CE019927880F991FD8011296ED91C8
S1130D50FC911397E80FF91F00811181D8011696B1
S1130D60ED91FC9117970995682F8C2FCDDC882382
S1130D7049F0D8011496ED91FC9115970995082F27
S1130D8081114CC08091ED228F718230D9F5809110
S1130D90AE21882389F1E091AC21F091AD21A081AD
S1130DA0B18114968C91882349F110E0212F30E011
S1130DB0220F331F0280F381E02DE20FF31FC08165
S1130DC0D181EE81FF810995682F812F9DDC082F49
S1130DD0882321F1EC81FD810995082F81111EC022
S1130DE01F5FE091AC21F091AD21A081B1811496F7
S1130DF08C911817D8F212C000E010C000E00EC0A9
S1130E0000E00CC000E00AC0822F807609F07DCF9C
S1130E1088CE322F307609F078CF99CD802FDF91AC
S1130E20CF911F910F91FF90EF900895CF93DF938F
S1130E30E091B421F091B521848183FF08C08860DA
S1130E40848383E0838386EF8093BE2189C0982FB7
S1130E50947131F083E083838FEF8093BE2180C04F
S1130E6086FF45C0A091B621B091B7218091B821E9
S1130E709091B92114962D913C911597821793075F
S1130E806CF49C012F5F3F4F2093B8213093B9211C
S1130E90A80FB91F11968C91878362C08091BA21E3
S1130EA09091BB2118962D913C9119978217930725
S1130EB0C8F42091BC21222321F08681816086839D
S1130EC04FC016962D913C911797AC014F5F5F4F21
S1130ED04093BA215093BB21D901A80FB91F8C911B
S1130EE087833EC083E083831092BE2139C0882368
S1130EF0A4F5A091B621B091B7218091BA21909127
S1130F00BB2118962D913C91199782179307F8F4F9
S1130F1016964D915C9117979C012F5F3F4F20933C
S1130F20BA213093BB216781EA01C80FD91F6883B6
S1130F3018968D919C9119972817390718F482E017
S1130F4083830EC087E083831092BE2109C083E0AF
S1130F50838389EF8093BE2103C08BEF8093BE21EE
S1130F60DF91CF9108951F920F920FB60F92112423
S1130F702F933F934F935F936F937F938F939F939D
S1130F80AF93BF93EF93FF9351DFFF91EF91BF9125
S1130F90AF919F918F917F916F915F914F913F910D
S1130FA02F910F900FBE0F901F9018951F920F92C4
S1130FB00FB60F9211242F933F934F935F936F9328
S1130FC07F938F939F93AF93BF93EF93FF932EDF02
S1130FD0FF91EF91BF91AF919F918F917F916F910D
S1130FE05F914F913F912F910F900FBE0F901F90E3
S1130FF01895811118C09091EC22992389F09FB71C
S1131000F894EEEFF2E22081215020839FBF08C0C4
S11310109FB7F894EEEFF2E220812F5F20839FBF09
S11310208093EC2208959091EC22992389F3F8CFD0
S11310300F93E8ECF4E080818F7D808380818F7D45
S11310408083E0ECF2E202E005931092C222109257
S1131050C32200E2069300E40693E8EBF2E200E226
S1131060069300E406931092F9221092FA22109249
S1131070FB221092FC221092F7221092F822109276
S1131080A8220F9108950F9385E08093A822E1ECA4
S1131090F2E204E00593E9EBF2E204E005930F9138
S11310A008950F9383E08093A8221092C222109295
S11310B0C322E0ECF2E202E006930F910895E0917E
S11310C0F922F091FA22309709F0099508950F93C7
S11310D0CF93DF938091A822833019F4F0DFA8DF47
S11310E060C08091A4229091A522C091F722D09152
S11310F0F822C81BD90B71F52091A6223091A722A2
S1131100820F931F8093A6229093A7222091F3220B
S11311103091F4228217930721F08091BF21882314
S113112041F084E08093A822E8EBF2E202E0069327
S113113038C0E091FB22F091FC22309799F0099598
S1131140882381F01092A4221092A522C091F72244
S1131150D091F822C034D10528F01092BF21C0E408
S1131160D0E003C081E08093BF21C093C222D0931A
S1131170C3228091A4229091A5222091F52230913E
S1131180F622280F391F2093C4223093C522C80F9A
S1131190D91FC093A422D093A522E0ECF2E202E08E
S11311A00693DF91CF910F910895FC01818187709F
S11311B090E0FC013197E730F10518F4E250FF4F5D
S11311C0BEC688E090E0089580E290E0089580E44F
S11311D090E0089580E890E0089580E091E008951B
S11311E080E092E008958FEF93E0089580E190E02D
S11311F00895282F2F7030E0220F331F992787FD81
S113120090958827990F881F9927820F931F02971B
S11312109C01220F331F220F331F220F331F820F13
S1131220931F805C9D4D08950F93CF938091CC04C0
S113123080FF62C081E08093CC04E8EBF2E200E836
S11312400693E0ECF2E200E806938093CA04E8EB2C
S1131250F2E200E106938091A822882329F08350CA
S1131260823008F42CDFE4DE8091BA229091BB2214
S1131270089709F043C088E0E4E6F2E2ADEEB2E29A
S113128001900D928A95E1F7E8ECF4E080818062A8
S113129080838081806280833BDBC82F811103C0FF
S11312A0F2DEC1E02CC08091ED2288236CF4109210
S11312B0A6221092A7221092A4221092A52282E0C4
S11312C08093A82204DF1BC02091F3223091F422E2
S11312D0232B11F4E6DE13C01092A6221092A7224B
S11312E01092A4221092A52281E08093A822E8EB18
S11312F0F2E202E0069303C0C0E001C0C1E08C2F1B
S1131300CF910F910895BF92CF92DF92EF92FF9207
S11313100F931F93CF93DF93B82E6BDFEC011B2D3C
S1131320111F1127111F8B2D8F70E82EF12CEE0C3D
S1131330FF1CE10EF11CC701880F991F880F991F2C
S1131340880F991F9C0128543D4D7901C9012DDF57
S11313506C01112309F459C0D70116962D913C91C3
S113136017978D819E81280F391F2D833E838B8192
S11313709C8128173907B9F1FC01E21BF30B9F018B
S11313802115F4E03F0738F02FEF33E0C901B6012F
S1131390C2D5281B390B888181FF09C0C901B60158
S11313A0BAD541E0892B09F040E0942F01C090E0C8
S11313B0888190FB81F98883D70116961D921C922F
S11313C0179712962D933C93139729813A818D8117
S11313D09E81820F931F14968D939C931597F7010A
S11313E002E0069394C0888181FF83C08D7F888347
S11313F0D70116961D921C92179712961D921C9255
S11314001397F70102E0069382C0D70112960D915B
S11314101C911397888182FF13C0E981FA812D8181
S11314203E818B819C81B60176D5B0E4BB9EB00130
S1131430112460587E4DAC01CF01820F931F85D5D6
S11314402D813E81200F311F2D833E83EB81FC8152
S1131450E217F30710F4ED83FE83D70116968D91FE
S11314609C9117978017910709F043C08D819E8145
S1131470E817F90709F43DC0E81BF90BE115B4E0DE
S1131480FB0740F0EFEFF3E0CF01B60144D5E81BD2
S1131490F90B05C0CF01B6013ED5E81BF90BD70106
S11314A012961D921C921397EC15FD0578F4888111
S11314B084608883B0E4BB9EC001112480589E4D93
S11314C0F70184839583C682D7820FC029813A812C
S11314D08D819E81820F931FD70114968D939C93C7
S11314E015971696ED93FC931797F70102E0069370
S11314F00EC0888180FF0BC08E7F8883EF81F885C2
S1131500309729F06D817E814B2D80E00995DF9124
S1131510CF911F910F91FF90EF90DF90CF90BF90EC
S1131520089580E008958093C30408958091C304CE
S113153008958091E8229091E922089580E090E056
S113154008958093F5229093F6226093F722709386
S1131550F8220895E82FEF70F0E0EE0FFF1F9927AF
S113156087FD90958827990F881F9927E80FF91F01
S1131570EE0FFF1FEE0FFF1FEE0FFF1FE854FD4D90
S11315808181807C09F043C06370613029F010F4DC
S113159080E403C080E801C080EC40385105E1F0EC
S11315A050F440325105A1F04034510599F04031D6
S11315B0510561F419C0411592E0590789F04F3F74
S11315C093E0590779F04115514041F020E00DC0F6
S11315D022E00BC023E009C024E007C025E005C0D9
S11315E026E003C027E001C021E0118296E0908349
S11315F0822B81838181807C803C21F4818187706E
S1131600873039F081818062818381E0089580E0B0
S1131610089581E00895E82FEF70F0E0EE0FFF1FCA
S1131620992787FD90958827990F881F9927E80F98
S1131630F91FEE0FFF1FEE0FFF1FEE0FFF1FE85401
S1131640FD4D818182FB882780F90895E82FEF7092
S1131650F0E0EE0FFF1F282F332727FD30952227B8
S1131660330F221F3327E20FF31FEE0FFF1FEE0F7E
S1131670FF1FEE0FFF1FE854FD4D918192FF0EC036
S113168091819B7F9183B5DDFC01808180FF06C041
S11316908E7F80830780F085E02D099581E0089591
S11316A07F928F929F92AF92BF92CF92DF92EF92EE
S11316B0FF920F931F93CF93DF93982E862E5A0198
S11316C0690197DD7C01792C771C7724771CC92D5F
S11316D0CF70D0E0CC0FDD1FC70DD11DCC0FDD1FA7
S11316E0CC0FDD1FCC0FDD1FC854DD4D8981807CFC
S11316F009F44BC08981807C803C19F0898182FD8A
S113170046C08FB7F894F701908190FF03C08FBF54
S1131710712C3EC0F7019081916090838FBFF701D7
S1131720A182B282C382D482158216820783108773
S1131730811006C091E0C114D10419F090E001C0F9
S113174091E0F701808190FB81F98B7F8083772082
S113175019F01E821F8214C08981807C803C61F450
S1131760CE0123DDBC01C601D6D3892B29F0F701B4
S113177080818E7F80830CC01A821B821E821F820E
S1131780892DC1DD7724739403C0712C01C0712CA1
S1131790872DDF91CF911F910F91FF90EF90DF90F4
S11317A0CF90BF90AF909F908F907F900895FF92BD
S11317B00F931F93CF93DF93182FF82EFF1CFF2452
S11317C0FF1CC82FCF70D0E0CC0FDD1FCF0DD11D73
S11317D0CC0FDD1FCC0FDD1FCC0FDD1FC854DD4D3A
S11317E008DDDC01FE0102E005938C9180FF12C04C
S11317F08E7F8C931796ED91FC911897309751F04A
S1131800FF2019F06E817F8102C06A817B81412FA4
S113181081E00995DF91CF911F910F91FF90089579
S1131820CF93C82FC4DFEC2FEF70F0E0EE0FFF1F53
S11318308C2F992787FD90958827990F881F9927C2
S1131840E80FF91FEE0FFF1FEE0FFF1FEE0FFF1F34
S1131850E854FD4D1182CF9108950F93E82FEF7056
S1131860F0E0EE0FFF1F282F332727FD30952227A6
S1131870330F221F3327E20FF31FEE0FFF1FEE0F6C
S1131880FF1FEE0FFF1FE854FD4D9181946091837B
S113189001E006938CDF81E00F9108951F920F926F
S11318A00FB60F9211240F932F933F934F935F938F
S11318B06F937F938F939F93AF93BF93EF93FF9314
S11318C08091CB04882334F480E88093CA040E9476
S11318D0590488C08091CB0482FF20C084E08093A7
S11318E0CA048091C02286FF7DC08091CC0481FD12
S11318F079C09ADC811176C08091A822813011F4DC
S1131900D0DB70C0843009F06DC0E1ECF2E204E099
S11319100593E9EBF2E204E0059364C08091CB0403
S113192081FF5BC082E08093CA048091B82286FF65
S113193059C08091CC0481FD55C076DC811152C020
S11319408091A822823041F484E08093A822E8EBBD
S1131950F2E202E0069346C0833009F043C0E1ECB2
S1131960F2E204E00593E9EBF2E204E005933AC005
S113197080E18093CA0481E01ADF81E818DF0E94C5
S113198032041092C304E9EBF2E2108296E09093E1
S1131990B82283E48083E1ECF2E210829093C022C7
S11319A0808384E692E28093BC229093BD2240DB44
S11319B019C08091CB0486FF06C080E48093CA04DA
S11319C080E017DB0FC08091CB0485FF0BC080E261
S11319D08093CA0481E00DDB05C08091CB0484FFB1
S11319E0E8CFC6CFFF91EF91BF91AF919F918F91B7
S11319F07F916F915F914F913F912F910F910F9034
S1131A000FBE0F901F9018951F920F920FB60F9252
S1131A1011240F931F932F933F934F935F936F93CF
S1131A207F938F939F93AF93BF93CF93DF93EF9362
S1131A30FF938091CC0481FD03C0F6DB8111B8C013
S1131A4082E08093CC048091C5048195880FE8EBF3
S1131A50F2E2E81BF10920813181285B324236959C
S1131A6027953695279536952795822F869520FFBD
S1131A7002C090E801C090E0890FE82FEF70F0E019
S1131A80EE0FFF1F282F332727FD30952227330F12
S1131A90221F3327E20FF31FEE0FFF1FEE0FFF1F6E
S1131AA0EE0FFF1FE854FD4D908195FF81C000E2C9
S1131AB00693811178C08091A822843019F4FFDA4A
S1131AC0B7DA76C0C091BA22D091BB228091F722B6
S1131AD09091F8220091A4221091A52298012C0F34
S1131AE03D1F8217930718F4EC01C01BD10B8091A2
S1131AF0F5229091F622AE0164E672E2800F911F06
S1131B0024D20C0F1D1F0093A4221093A522C034CD
S1131B10D10569F48091A6229091A722800F911F8C
S1131B202091F3223091F4228217930788F00093D6
S1131B30F7221093F822E091FB22F091FC223097D7
S1131B4029F00995811102C09EDA32C0AADA30C0A8
S1131B508091F7229091F82208171907F9F4E0917F
S1131B60FB22F091FC22309711F48DDA21C0099503
S1131B70811102C088DA1CC02091A6223091A722CC
S1131B808091A4229091A522820F931F8093A62274
S1131B909093A7221092A4221092A522E8EBF2E2DD
S1131BA002E0069305C0803811F491DA01C0ABDB82
S1131BB0FF91EF91DF91CF91BF91AF919F918F9161
S1131BC07F916F915F914F913F912F911F910F9151
S1131BD00F900FBE0F901F9018958FEF8093700099
S1131BE080937100809372008093730080937400DB
S1131BF080937500809376000895EFDFE0E4F6E0CB
S1131C0028E0228334E03283A0E0B6E080E4119639
S1131C108C93119790E811969C93A0E2B6E041E072
S1131C2011964C93119742E011964C93A0E8B6E0BC
S1131C3011964C93119711963C93119712962C93ED
S1131C4020E1218320E2218391838283089580E42B
S1131C50E0E0F6E0858380E090E00196853124E3BE
S1131C609207D9F780E8E0E0F6E0858380E090E031
S1131C700196853124E39207D9F781E0E0E2F6E0AA
S1131C80858380E090E00196853124E39207D9F7BB
S1131C9082E0E0E2F6E0858380E090E00196853121
S1131CA024E39207D9F780E4E0E0F6E0868380E05D
S1131CB090E00196853124E39207D9F780E8E0E0CB
S1131CC0F6E0868380E090E00196853124E3920774
S1131CD0D9F781E0E0E2F6E0868380E090E00196C7
S1131CE0853124E39207D9F782E0E0E2F6E08683C7
S1131CF080E090E00196853124E39207D9F780E4EF
S1131D00E0E0F6E0858380E090E001968A3228E600
S1131D109207D9F780E8E0E0F6E0858380E090E080
S1131D2001968A3228E69207D9F781E0E0E2F6E0EC
S1131D30858380E090E001968A3228E69207D9F7FD
S1131D4082E0E0E2F6E0858380E090E001968A326A
S1131D5028E69207D9F780E4E0E0F6E0868380E0A5
S1131D6090E001968A3228E69207D9F780E8E0E00D
S1131D70F6E0868380E090E001968A3228E69207B6
S1131D80D9F781E0E0E2F6E0868380E090E0019616
S1131D908A3228E69207D9F782E0E0E2F6E0868309
S1131DA080E090E001968A3228E69207D9F780E431
S1131DB0E0E0F6E0858380E090E0019680342CE951
S1131DC09207D9F780E8E0E0F6E0858380E090E0D0
S1131DD0019680342CE99207D9F781E0E0E2F6E03D
S1131DE0858380E090E0019680342CE99207D9F74E
S1131DF082E0E0E2F6E0858380E090E001968034C2
S1131E002CE99207D9F780E4E0E0F6E0868380E0ED
S1131E1090E0019680342CE99207D9F780E8E0E05D
S1131E20F6E0868380E090E0019680342CE9920706
S1131E30D9F781E0E0E2F6E0868380E090E0019665
S1131E4080342CE99207D9F782E0E0E2F6E0868359
S1131E5080E090E0019680342CE99207D9F780E481
S1131E60E0E0F6E0858380E090E00196853520EDA2
S1131E709207D9F780E8E0E0F6E0858380E090E01F
S1131E800196853520ED9207D9F781E0E0E2F6E08E
S1131E90858380E090E00196853520ED9207D9F79F
S1131EA082E0E0E2F6E0858380E090E0019685350B
S1131EB020ED9207D9F780E4E0E0F6E0868380E045
S1131EC090E00196853520ED9207D9F780E8E0E0AF
S1131ED0F6E0868380E090E00196853520ED920758
S1131EE0D9F781E0E0E2F6E0868380E090E00196B5
S1131EF0853520ED9207D9F782E0E0E2F6E08683AB
S1131F0080E090E00196853520ED9207D9F7089599
S1131F1074DE9DDEFFCFAA1BBB1B51E107C0AA1FC5
S1131F20BB1FA617B70710F0A61BB70B881F991F76
S1131F305A95A9F780959095BC01CD010895EE0FAF
S1131F40FF1F0590F491E02D0994FB01DC0102C010
S1131F5001900D9241505040D8F70895F894FFCF66
S1131F60E70261016B016D01830223015B016F01D3
S1131F706D010000040309046A201E2000002620CD
S1131F8022200A20002009024300020100C0320975
S1131F9004000001020201000524001001042402CF
S1131FA002052406000105240103010705820340FC
S1131FB0001009040100020A000000070581024024
S1131FC000000705020240000000120100020200A6
S10F1FD00040EB030424000100000001A9
S9030000FC
